{
  "_format": "hh-sol-artifact-1",
  "contractName": "CreatorsKeys",
  "sourceName": "contracts/CreatorsKeys.sol",
  "abi": [
    {
      "inputs": [],
      "stateMutability": "nonpayable",
      "type": "constructor"
    },
    {
      "anonymous": false,
      "inputs": [
        {
          "indexed": true,
          "internalType": "address",
          "name": "owner",
          "type": "address"
        },
        {
          "indexed": true,
          "internalType": "address",
          "name": "approved",
          "type": "address"
        },
        {
          "indexed": true,
          "internalType": "uint256",
          "name": "tokenId",
          "type": "uint256"
        }
      ],
      "name": "Approval",
      "type": "event"
    },
    {
      "anonymous": false,
      "inputs": [
        {
          "indexed": true,
          "internalType": "address",
          "name": "owner",
          "type": "address"
        },
        {
          "indexed": true,
          "internalType": "address",
          "name": "operator",
          "type": "address"
        },
        {
          "indexed": false,
          "internalType": "bool",
          "name": "approved",
          "type": "bool"
        }
      ],
      "name": "ApprovalForAll",
      "type": "event"
    },
    {
      "anonymous": false,
      "inputs": [
        {
          "indexed": false,
          "internalType": "uint256",
          "name": "_fromTokenId",
          "type": "uint256"
        },
        {
          "indexed": false,
          "internalType": "uint256",
          "name": "_toTokenId",
          "type": "uint256"
        }
      ],
      "name": "BatchMetadataUpdate",
      "type": "event"
    },
    {
      "anonymous": false,
      "inputs": [
        {
          "indexed": true,
          "internalType": "address",
          "name": "buyer",
          "type": "address"
        },
        {
          "indexed": false,
          "internalType": "uint256",
          "name": "nftId",
          "type": "uint256"
        }
      ],
      "name": "KeyTransferred",
      "type": "event"
    },
    {
      "anonymous": false,
      "inputs": [
        {
          "indexed": false,
          "internalType": "uint256",
          "name": "_tokenId",
          "type": "uint256"
        }
      ],
      "name": "MetadataUpdate",
      "type": "event"
    },
    {
      "anonymous": false,
      "inputs": [
        {
          "indexed": true,
          "internalType": "address",
          "name": "previousOwner",
          "type": "address"
        },
        {
          "indexed": true,
          "internalType": "address",
          "name": "newOwner",
          "type": "address"
        }
      ],
      "name": "OwnershipTransferred",
      "type": "event"
    },
    {
      "anonymous": false,
      "inputs": [
        {
          "indexed": true,
          "internalType": "address",
          "name": "from",
          "type": "address"
        },
        {
          "indexed": false,
          "internalType": "uint256",
          "name": "amount",
          "type": "uint256"
        }
      ],
      "name": "Received",
      "type": "event"
    },
    {
      "anonymous": false,
      "inputs": [
        {
          "indexed": true,
          "internalType": "address",
          "name": "sender",
          "type": "address"
        },
        {
          "indexed": false,
          "internalType": "address",
          "name": "tokenAddress",
          "type": "address"
        },
        {
          "indexed": false,
          "internalType": "uint256",
          "name": "amountOrTokenId",
          "type": "uint256"
        }
      ],
      "name": "Recovered",
      "type": "event"
    },
    {
      "anonymous": false,
      "inputs": [
        {
          "indexed": true,
          "internalType": "address",
          "name": "from",
          "type": "address"
        },
        {
          "indexed": true,
          "internalType": "address",
          "name": "to",
          "type": "address"
        },
        {
          "indexed": true,
          "internalType": "uint256",
          "name": "tokenId",
          "type": "uint256"
        }
      ],
      "name": "Transfer",
      "type": "event"
    },
    {
      "stateMutability": "payable",
      "type": "fallback"
    },
    {
      "inputs": [
        {
          "internalType": "address",
          "name": "to",
          "type": "address"
        },
        {
          "internalType": "uint256",
          "name": "tokenId",
          "type": "uint256"
        }
      ],
      "name": "approve",
      "outputs": [],
      "stateMutability": "nonpayable",
      "type": "function"
    },
    {
      "inputs": [
        {
          "internalType": "address",
          "name": "owner",
          "type": "address"
        }
      ],
      "name": "balanceOf",
      "outputs": [
        {
          "internalType": "uint256",
          "name": "",
          "type": "uint256"
        }
      ],
      "stateMutability": "view",
      "type": "function"
    },
    {
      "inputs": [
        {
          "internalType": "uint256",
          "name": "sourceId",
          "type": "uint256"
        }
      ],
      "name": "buyKey",
      "outputs": [],
      "stateMutability": "nonpayable",
      "type": "function"
    },
    {
      "inputs": [
        {
          "internalType": "uint256",
          "name": "sourceId",
          "type": "uint256"
        }
      ],
      "name": "deleteKeySource",
      "outputs": [],
      "stateMutability": "nonpayable",
      "type": "function"
    },
    {
      "inputs": [
        {
          "internalType": "uint256",
          "name": "tokenId",
          "type": "uint256"
        }
      ],
      "name": "getApproved",
      "outputs": [
        {
          "internalType": "address",
          "name": "",
          "type": "address"
        }
      ],
      "stateMutability": "view",
      "type": "function"
    },
    {
      "inputs": [],
      "name": "getKeyDetailsByCreator",
      "outputs": [
        {
          "components": [
            {
              "internalType": "uint256",
              "name": "keySourceId",
              "type": "uint256"
            },
            {
              "internalType": "address",
              "name": "creator",
              "type": "address"
            },
            {
              "internalType": "string",
              "name": "name",
              "type": "string"
            },
            {
              "internalType": "string",
              "name": "description",
              "type": "string"
            },
            {
              "internalType": "string",
              "name": "image",
              "type": "string"
            },
            {
              "internalType": "string",
              "name": "external_url",
              "type": "string"
            },
            {
              "internalType": "uint256",
              "name": "duration",
              "type": "uint256"
            },
            {
              "internalType": "uint256",
              "name": "price",
              "type": "uint256"
            },
            {
              "internalType": "uint256",
              "name": "units",
              "type": "uint256"
            },
            {
              "internalType": "enum KeySource.Status",
              "name": "status",
              "type": "uint8"
            }
          ],
          "internalType": "struct KeySource.Detail[]",
          "name": "",
          "type": "tuple[]"
        }
      ],
      "stateMutability": "view",
      "type": "function"
    },
    {
      "inputs": [],
      "name": "getKeysByCreator",
      "outputs": [
        {
          "internalType": "uint256[]",
          "name": "",
          "type": "uint256[]"
        }
      ],
      "stateMutability": "view",
      "type": "function"
    },
    {
      "inputs": [
        {
          "internalType": "address",
          "name": "creator",
          "type": "address"
        }
      ],
      "name": "getPublicKeyDetailsByCreator",
      "outputs": [
        {
          "components": [
            {
              "internalType": "uint256",
              "name": "keySourceId",
              "type": "uint256"
            },
            {
              "internalType": "address",
              "name": "creator",
              "type": "address"
            },
            {
              "internalType": "string",
              "name": "name",
              "type": "string"
            },
            {
              "internalType": "string",
              "name": "description",
              "type": "string"
            },
            {
              "internalType": "string",
              "name": "image",
              "type": "string"
            },
            {
              "internalType": "string",
              "name": "external_url",
              "type": "string"
            },
            {
              "internalType": "uint256",
              "name": "duration",
              "type": "uint256"
            },
            {
              "internalType": "uint256",
              "name": "price",
              "type": "uint256"
            },
            {
              "internalType": "uint256",
              "name": "units",
              "type": "uint256"
            },
            {
              "internalType": "enum KeySource.Status",
              "name": "status",
              "type": "uint8"
            }
          ],
          "internalType": "struct KeySource.Detail[]",
          "name": "",
          "type": "tuple[]"
        }
      ],
      "stateMutability": "view",
      "type": "function"
    },
    {
      "inputs": [
        {
          "internalType": "address",
          "name": "creator",
          "type": "address"
        }
      ],
      "name": "getPublicKeysByCreator",
      "outputs": [
        {
          "internalType": "uint256[]",
          "name": "",
          "type": "uint256[]"
        }
      ],
      "stateMutability": "view",
      "type": "function"
    },
    {
      "inputs": [
        {
          "internalType": "uint256",
          "name": "tokenId",
          "type": "uint256"
        }
      ],
      "name": "getSoldUnitsPerSource",
      "outputs": [
        {
          "internalType": "uint256",
          "name": "",
          "type": "uint256"
        }
      ],
      "stateMutability": "view",
      "type": "function"
    },
    {
      "inputs": [
        {
          "internalType": "address",
          "name": "owner",
          "type": "address"
        },
        {
          "internalType": "address",
          "name": "operator",
          "type": "address"
        }
      ],
      "name": "isApprovedForAll",
      "outputs": [
        {
          "internalType": "bool",
          "name": "",
          "type": "bool"
        }
      ],
      "stateMutability": "view",
      "type": "function"
    },
    {
      "inputs": [
        {
          "internalType": "uint256",
          "name": "",
          "type": "uint256"
        }
      ],
      "name": "keys",
      "outputs": [
        {
          "internalType": "uint256",
          "name": "keyId",
          "type": "uint256"
        },
        {
          "internalType": "address",
          "name": "creator",
          "type": "address"
        },
        {
          "internalType": "string",
          "name": "name",
          "type": "string"
        },
        {
          "internalType": "string",
          "name": "description",
          "type": "string"
        },
        {
          "internalType": "string",
          "name": "image",
          "type": "string"
        },
        {
          "internalType": "string",
          "name": "external_url",
          "type": "string"
        },
        {
          "internalType": "uint256",
          "name": "duration",
          "type": "uint256"
        },
        {
          "internalType": "uint256",
          "name": "price",
          "type": "uint256"
        }
      ],
      "stateMutability": "view",
      "type": "function"
    },
    {
      "inputs": [],
      "name": "name",
      "outputs": [
        {
          "internalType": "string",
          "name": "",
          "type": "string"
        }
      ],
      "stateMutability": "view",
      "type": "function"
    },
    {
      "inputs": [],
      "name": "nextKeyId",
      "outputs": [
        {
          "internalType": "uint256",
          "name": "",
          "type": "uint256"
        }
      ],
      "stateMutability": "view",
      "type": "function"
    },
    {
      "inputs": [],
      "name": "nextSourceId",
      "outputs": [
        {
          "internalType": "uint256",
          "name": "",
          "type": "uint256"
        }
      ],
      "stateMutability": "view",
      "type": "function"
    },
    {
      "inputs": [],
      "name": "owner",
      "outputs": [
        {
          "internalType": "address",
          "name": "",
          "type": "address"
        }
      ],
      "stateMutability": "view",
      "type": "function"
    },
    {
      "inputs": [
        {
          "internalType": "uint256",
          "name": "tokenId",
          "type": "uint256"
        }
      ],
      "name": "ownerOf",
      "outputs": [
        {
          "internalType": "address",
          "name": "",
          "type": "address"
        }
      ],
      "stateMutability": "view",
      "type": "function"
    },
    {
      "inputs": [
        {
          "internalType": "uint256",
          "name": "sourceId",
          "type": "uint256"
        }
      ],
      "name": "permanentDeleteKeySource",
      "outputs": [],
      "stateMutability": "nonpayable",
      "type": "function"
    },
    {
      "inputs": [],
      "name": "renounceOwnership",
      "outputs": [],
      "stateMutability": "nonpayable",
      "type": "function"
    },
    {
      "inputs": [
        {
          "internalType": "uint256",
          "name": "sourceId",
          "type": "uint256"
        }
      ],
      "name": "restoreKeySource",
      "outputs": [],
      "stateMutability": "nonpayable",
      "type": "function"
    },
    {
      "inputs": [
        {
          "internalType": "address",
          "name": "from",
          "type": "address"
        },
        {
          "internalType": "address",
          "name": "to",
          "type": "address"
        },
        {
          "internalType": "uint256",
          "name": "tokenId",
          "type": "uint256"
        }
      ],
      "name": "safeTransferFrom",
      "outputs": [],
      "stateMutability": "nonpayable",
      "type": "function"
    },
    {
      "inputs": [
        {
          "internalType": "address",
          "name": "from",
          "type": "address"
        },
        {
          "internalType": "address",
          "name": "to",
          "type": "address"
        },
        {
          "internalType": "uint256",
          "name": "tokenId",
          "type": "uint256"
        },
        {
          "internalType": "bytes",
          "name": "data",
          "type": "bytes"
        }
      ],
      "name": "safeTransferFrom",
      "outputs": [],
      "stateMutability": "nonpayable",
      "type": "function"
    },
    {
      "inputs": [
        {
          "internalType": "address",
          "name": "operator",
          "type": "address"
        },
        {
          "internalType": "bool",
          "name": "approved",
          "type": "bool"
        }
      ],
      "name": "setApprovalForAll",
      "outputs": [],
      "stateMutability": "nonpayable",
      "type": "function"
    },
    {
      "inputs": [
        {
          "internalType": "address",
          "name": "creatorsAddress",
          "type": "address"
        }
      ],
      "name": "setCreators",
      "outputs": [],
      "stateMutability": "nonpayable",
      "type": "function"
    },
    {
      "inputs": [
        {
          "internalType": "string",
          "name": "name",
          "type": "string"
        },
        {
          "internalType": "string",
          "name": "description",
          "type": "string"
        },
        {
          "internalType": "string",
          "name": "image",
          "type": "string"
        },
        {
          "internalType": "string",
          "name": "external_url",
          "type": "string"
        },
        {
          "internalType": "uint256",
          "name": "duration",
          "type": "uint256"
        },
        {
          "internalType": "uint256",
          "name": "price",
          "type": "uint256"
        },
        {
          "internalType": "uint256",
          "name": "units",
          "type": "uint256"
        }
      ],
      "name": "setKeySource",
      "outputs": [],
      "stateMutability": "nonpayable",
      "type": "function"
    },
    {
      "inputs": [
        {
          "internalType": "address",
          "name": "Lockeek",
          "type": "address"
        }
      ],
      "name": "setLockeek",
      "outputs": [],
      "stateMutability": "nonpayable",
      "type": "function"
    },
    {
      "inputs": [
        {
          "internalType": "bytes4",
          "name": "interfaceId",
          "type": "bytes4"
        }
      ],
      "name": "supportsInterface",
      "outputs": [
        {
          "internalType": "bool",
          "name": "",
          "type": "bool"
        }
      ],
      "stateMutability": "view",
      "type": "function"
    },
    {
      "inputs": [],
      "name": "symbol",
      "outputs": [
        {
          "internalType": "string",
          "name": "",
          "type": "string"
        }
      ],
      "stateMutability": "view",
      "type": "function"
    },
    {
      "inputs": [
        {
          "internalType": "uint256",
          "name": "index",
          "type": "uint256"
        }
      ],
      "name": "tokenByIndex",
      "outputs": [
        {
          "internalType": "uint256",
          "name": "",
          "type": "uint256"
        }
      ],
      "stateMutability": "view",
      "type": "function"
    },
    {
      "inputs": [
        {
          "internalType": "address",
          "name": "owner",
          "type": "address"
        },
        {
          "internalType": "uint256",
          "name": "index",
          "type": "uint256"
        }
      ],
      "name": "tokenOfOwnerByIndex",
      "outputs": [
        {
          "internalType": "uint256",
          "name": "",
          "type": "uint256"
        }
      ],
      "stateMutability": "view",
      "type": "function"
    },
    {
      "inputs": [
        {
          "internalType": "uint256",
          "name": "tokenId",
          "type": "uint256"
        }
      ],
      "name": "tokenURI",
      "outputs": [
        {
          "internalType": "string",
          "name": "",
          "type": "string"
        }
      ],
      "stateMutability": "view",
      "type": "function"
    },
    {
      "inputs": [],
      "name": "totalSupply",
      "outputs": [
        {
          "internalType": "uint256",
          "name": "",
          "type": "uint256"
        }
      ],
      "stateMutability": "view",
      "type": "function"
    },
    {
      "inputs": [
        {
          "internalType": "address",
          "name": "from",
          "type": "address"
        },
        {
          "internalType": "address",
          "name": "to",
          "type": "address"
        },
        {
          "internalType": "uint256",
          "name": "tokenId",
          "type": "uint256"
        }
      ],
      "name": "transferFrom",
      "outputs": [],
      "stateMutability": "nonpayable",
      "type": "function"
    },
    {
      "inputs": [
        {
          "internalType": "address",
          "name": "newOwner",
          "type": "address"
        }
      ],
      "name": "transferOwnership",
      "outputs": [],
      "stateMutability": "nonpayable",
      "type": "function"
    },
    {
      "inputs": [
        {
          "internalType": "address",
          "name": "tokenAddress",
          "type": "address"
        },
        {
          "internalType": "uint256",
          "name": "amountOrTokenId",
          "type": "uint256"
        }
      ],
      "name": "withdraw",
      "outputs": [],
      "stateMutability": "nonpayable",
      "type": "function"
    },
    {
      "stateMutability": "payable",
      "type": "receive"
    }
  ],
  "bytecode": "0x608060405234620000265762000014620001cd565b604051613df9620004fe8239613df990f35b600080fd5b634e487b7160e01b600052604160045260246000fd5b90601f01601f191681019081106001600160401b038211176200006357604052565b6200002b565b90620000806200007860405190565b928362000041565b565b6001600160401b0381116200006357602090601f01601f19160190565b90620000b5620000af8362000082565b62000069565b918252565b620000c6600a6200009f565b694c6f636b65656b4b657960b01b602082015290565b620000e6620000ba565b90565b620000f560036200009f565b6221232760e91b602082015290565b620000e6620000e9565b90600019905b9181191691161790565b620000e6620000e6620000e69290565b9062000142620000e66200014a926200011e565b82546200010e565b9055565b6200015e620000e6620000e69290565b6001600160a01b031690565b620000e6906200014e565b620000e6906200015e906001600160a01b031682565b620000e69062000175565b620000e6906200018b565b906001600160a01b039062000114565b90620001c5620000e66200014a9262000196565b8254620001a1565b620001ec620001db620000dc565b620001e562000104565b9062000257565b620002076001620001ff81600f6200012e565b60106200012e565b620000806200024f6200021b60006200016a565b620002326200022a8262000196565b600e620001b1565b62000249620002418262000196565b600c620001b1565b62000196565b600d620001b1565b6200008091620002679162000272565b62000080336200049b565b620000809182918291906200046a565b634e487b7160e01b600052602260045260246000fd5b9060016002830492168015620002bb575b6020831014620002b557565b62000282565b91607f1691620002a9565b9160001960089290920291821b911b62000114565b9190620002f0620000e66200014a936200011e565b908354620002c6565b6200008091600091620002db565b81811062000313575050565b80620003236000600193620002f9565b0162000307565b9190601f81116200033a57505050565b6200034e6200008093600052602060002090565b906020601f84018190048301931062000372575b6020601f90910104019062000307565b909150819062000362565b9062000387815190565b906001600160401b0382116200006357620003af82620003a8855462000298565b856200032a565b602090601f8311600114620003ee576200014a929160009183620003e2575b5050600019600883021c1916906002021790565b015190503880620003ce565b601f198316916200040485600052602060002090565b9260005b81811062000445575091600293918560019694106200042b575b50505002019055565b01516000196008601f8516021c1916905538808062000422565b9193602060018192878701518155019501920162000408565b9062000080916200037d565b906200047c620000809260006200045e565b60016200045e565b620000e6906200015e565b620000e6905462000484565b620004a7600b6200048f565b90620004b581600b620001b1565b620004ec620004e57f8be0079c531659141344cd1fd0a4f28419497f9722a3daafe3b4186f6b6457e09362000196565b9162000196565b91620004f760405190565b600090a356fe60806040526004361015610026575b361561001e5761001c611b82565b005b61001c611b82565b60003560e01c806301ffc9a71461025657806306b177fc1461025157806306fdde031461024c578063081812fc14610247578063095ea7b3146102425780630cb6aaf11461023d5780630dfb18b91461023857806314c009d01461023357806318160ddd1461022e57806323b872dd146102295780632f745c5914610224578063410f25a41461021f5780634279aba61461021a57806342842e0e146102155780634f6ccce714610210578063621c61171461020b5780636352211e1461020657806370a082311461020157806370a9c6d4146101fc578063715018a6146101f75780638da5cb5b146101f2578063926061f0146101ed57806395d89b41146101e85780639d780a34146101e35780639fef93f8146101de578063a22cb465146101d9578063a6d9fdf1146101d4578063ae07cfdf146101cf578063b88d4fde146101ca578063c87b56dd146101c5578063da83ae24146101c0578063e985e9c5146101bb578063f2fde38b146101b6578063f3fef3a3146101b15763fa3157d50361000e57610e2c565b610e13565b610dfb565b610ddf565b610d9d565b610cd0565b610cb4565b610bc5565b610bad565b610b94565b610b44565b610b29565b610b0e565b610af3565b610ac2565b610aaa565b610a8f565b610a74565b610a45565b610a2d565b610a12565b6109f9565b6109de565b6109a4565b610988565b61096f565b610923565b6108fc565b61075a565b6106bc565b610440565b6103cc565b610399565b6102f6565b61029d565b6001600160e01b031981165b0361026e57565b600080fd5b905035906102808261025b565b565b9060208282031261026e5761029691610273565b90565b9052565b3461026e576102cb6102b86102b3366004610282565b611bbf565b6040515b91829182901515815260200190565b0390f35b80610267565b90503590610280826102cf565b9060208282031261026e57610296916102d5565b3461026e576102cb61031161030c3660046102e2565b612b2d565b6040515b9182918290815260200190565b600091031261026e57565b60005b8381106103405750506000910152565b8181015183820152602001610330565b61037161037a60209361038493610365815190565b80835293849260200190565b9586910161032d565b601f01601f191690565b0190565b602080825261029692910190610350565b3461026e576103a9366004610322565b6102cb6103b4611181565b60405191829182610388565b6001600160a01b031690565b3461026e576102cb6103e76103e23660046102e2565b6112be565b604051918291826001600160a01b03909116815260200190565b6001600160a01b038116610267565b9050359061028082610401565b919060408382031261026e57610296906104378185610410565b936020016102d5565b3461026e5761045961045336600461041d565b9061125d565b604051005b6102966102966102969290565b906104759061045e565b600052602052604060002090565b6102969081565b6102969054610483565b634e487b7160e01b600052602260045260246000fd5b90600160028304921680156104ca575b60208310146104c557565b610494565b91607f16916104ba565b805460009392916104f16104e7836104aa565b8085529360200190565b9160018116908115610543575060011461050a57505050565b61051d9192939450600052602060002090565b916000925b81841061052f5750500190565b805484840152602090930192600101610522565b92949550505060ff1916825215156020020190565b90610296916104d4565b634e487b7160e01b600052604160045260246000fd5b90601f01601f1916810190811067ffffffffffffffff82111761059a57604052565b610562565b906102806105b9926105b060405190565b93848092610558565b0383610578565b6105cb90601461046b565b906105d58261048a565b916105ea60018201546001600160a01b031690565b916105f76002830161059f565b916106046003820161059f565b916106116004830161059f565b9161061e6005820161059f565b9161029660076106306006850161048a565b930161048a565b9360e0956106946106a292610686886106b8986102809d9f9e9c976106b0996106696106799260006101008701960152565b6001600160a01b031660208d0152565b8a820360408c0152610350565b9088820360608a0152610350565b908682036080880152610350565b9084820360a0860152610350565b9660c0830152565b0152565b3461026e576102cb6106d76106d23660046102e2565b6105c0565b946106ea98969894919493929360405190565b98899889610637565b9061071361070c610702845190565b8084529260200190565b9260200190565b9060005b8181106107245750505090565b90919261074161073a6001928651815260200190565b9460200190565b929101610717565b6020808252610296929101906106f3565b3461026e5761076a366004610322565b6102cb610775612850565b60405191829182610749565b634e487b7160e01b600052602160045260246000fd5b600611156107a157565b610781565b9061028082610797565b610296906107a6565b610299906107b0565b805182526020808201516001600160a01b03169083015290610296906101208061083b610829610817610805610140870160408a015188820360408a0152610350565b60608901518782036060890152610350565b60808801518682036080880152610350565b60a087015185820360a0870152610350565b9461084b60c082015160c0860152565b61085a60e082015160e0860152565b61086b610100820151610100860152565b01519101906107b9565b90610296916107c2565b9061089561088b835190565b8083529160200190565b90816108a76020830284019460200190565b926000915b8383106108bb57505050505090565b909192939460206108de6108d783856001950387528951610875565b9760200190565b93019301919392906108ac565b60208082526102969291019061087f565b3461026e5761090c366004610322565b6102cb610917612a39565b604051918291826108eb565b3461026e57610933366004610322565b6102cb61031160095490565b909160608284031261026e576102966109588484610410565b936109668160208601610410565b936040016102d5565b3461026e5761045961098236600461093f565b9161137f565b3461026e576102cb61031161099e36600461041d565b90611a68565b3461026e576104596109b73660046102e2565b612bbe565b610296916008021c81565b9061029691546109bc565b610296600060106109c7565b3461026e576109ee366004610322565b6102cb6103116109d2565b3461026e57610459610a0c36600461093f565b916113c0565b3461026e576102cb610311610a283660046102e2565b611b3d565b3461026e57610459610a403660046102e2565b612fe6565b3461026e576102cb6103e7610a5b3660046102e2565b61114a565b9060208282031261026e5761029691610410565b3461026e576102cb610311610a8a366004610a60565b6110c1565b3461026e576102cb610917610aa5366004610a60565b612ad8565b3461026e57610aba366004610322565b610459610e7c565b3461026e57610ad2366004610322565b6102cb6103e7600b546001600160a01b031690565b6102966000600f6109c7565b3461026e57610b03366004610322565b6102cb610311610ae7565b3461026e57610b1e366004610322565b6102cb6103b461118b565b3461026e576102cb610775610b3f366004610a60565b612ac1565b3461026e57610459610b573660046102e2565b613132565b801515610267565b9050359061028082610b5c565b919060408382031261026e5761029690610b8b8185610410565b93602001610b64565b3461026e57610459610ba7366004610b71565b906112eb565b3461026e57610459610bc0366004610a60565b61236d565b3461026e57610459610bd83660046102e2565b612f43565b90610280610bea60405190565b9283610578565b67ffffffffffffffff811161059a57602090601f01601f19160190565b90826000939282370152565b90929192610c2f610c2a82610bf1565b610bdd565b9381855260208501908284011161026e5761028092610c0e565b9080601f8301121561026e5781602061029693359101610c1a565b9060808282031261026e57610c798183610410565b92610c878260208501610410565b92610c9583604083016102d5565b92606082013567ffffffffffffffff811161026e576102969201610c49565b3461026e57610459610cc7366004610c64565b929190916113d0565b3461026e576102cb6103b4610ce63660046102e2565b611c93565b60e08183031261026e57803567ffffffffffffffff811161026e5782610d12918301610c49565b92602082013567ffffffffffffffff811161026e5783610d33918401610c49565b92604083013567ffffffffffffffff811161026e5781610d54918501610c49565b92606081013567ffffffffffffffff811161026e5782610d75918301610c49565b92610296610d8684608085016102d5565b93610d948160a086016102d5565b9360c0016102d5565b3461026e57610459610db0366004610ceb565b95949094939193612678565b919060408382031261026e5761029690610dd68185610410565b93602001610410565b3461026e576102cb6102b8610df5366004610dbc565b906112f6565b3461026e57610459610e0e366004610a60565b610f9d565b3461026e57610459610e2636600461041d565b90613db9565b3461026e57610459610e3f366004610a60565b612395565b610e4c610ed8565b610280610e6a565b6103c06102966102969290565b61029690610e54565b610280610e776000610e61565b610ffc565b610280610e44565b15610e8b57565b60405162461bcd60e51b815280610ed4600482016020808252818101527f4f776e61626c653a2063616c6c6572206973206e6f7420746865206f776e6572604082015260600190565b0390fd5b610280610eed600b546001600160a01b031690565b610f06610ef9336103c0565b916001600160a01b031690565b14610e84565b61028090610f18610ed8565b610f78565b15610f2457565b60405162461bcd60e51b815260206004820152602660248201527f4f776e61626c653a206e6577206f776e657220697320746865207a65726f206160448201526564647265737360d01b6064820152608490fd5b61028090610e77610f8c6103c06000610e61565b6001600160a01b0383161415610f1d565b61028090610f0c565b906001600160a01b03905b9181191691161790565b610296906103c0906001600160a01b031682565b61029690610fbb565b61029690610fcf565b90610ff1610296610ff892610fd8565b8254610fa6565b9055565b600b546001600160a01b03169061101481600b610fe1565b6110476110417f8be0079c531659141344cd1fd0a4f28419497f9722a3daafe3b4186f6b6457e093610fd8565b91610fd8565b9161105160405190565b80805b0390a3565b1561106057565b60405162461bcd60e51b815260206004820152602960248201527f4552433732313a2061646472657373207a65726f206973206e6f7420612076616044820152683634b21037bbb732b960b91b6064820152608490fd5b9061047590610fd8565b6110f9610296916110d0600090565b506110f26110e16103c06000610e61565b6001600160a01b0383161415611059565b60036110b7565b61048a565b1561110557565b60405162461bcd60e51b815260206004820152601860248201527f4552433732313a20696e76616c696420746f6b656e20494400000000000000006044820152606490fd5b6111579060005b50611470565b6102966111676103c06000610e61565b6001600160a01b03831614156110fe565b6102969061059f565b6102966000611178565b6102966001611178565b1561119c57565b60405162461bcd60e51b815260206004820152602160248201527f4552433732313a20617070726f76616c20746f2063757272656e74206f776e656044820152603960f91b6064820152608490fd5b156111f257565b60405162461bcd60e51b815260206004820152603d60248201527f4552433732313a20617070726f76652063616c6c6572206973206e6f7420746f60448201527f6b656e206f776e6572206f7220617070726f76656420666f7220616c6c0000006064820152608490fd5b90610280916112a861126e8361114a565b61128c6001600160a01b0382166001600160a01b0385161415611195565b336001600160a01b03821681149182156112ad575b50506111eb565b61172c565b6112b792506112f6565b38806112a1565b6112de610296916112cd600090565b506112d781611858565b600461046b565b546001600160a01b031690565b6102809190336117e2565b6102969161131161131692611309600090565b5060056110b7565b6110b7565b5460ff1690565b1561132457565b60405162461bcd60e51b815260206004820152602d60248201527f4552433732313a2063616c6c6572206973206e6f7420746f6b656e206f776e6560448201526c1c881bdc88185c1c1c9bdd9959609a1b6064820152608490fd5b6102809291906113976113928433611487565b61131d565b611602565b906113a9610c2a83610bf1565b918252565b610296600061139c565b6102966113ae565b9091610280926113ce6113b8565b925b610280939291906113e46113928433611487565b611451565b156113f057565b6040515b62461bcd60e51b815260206004820152603260248201527f4552433732313a207472616e7366657220746f206e6f6e20455243373231526560448201527131b2b4bb32b91034b6b83632b6b2b73a32b960711b6064820152608490fd5b91610280939161146b93611466838383611602565b611906565b6113e9565b6112de6102969161147f600090565b50600261046b565b6114908261114a565b916001600160a01b0383166001600160a01b038316149283156114dd575b5082156114ba57505090565b6114d99192506114cc610ef9916112be565b926001600160a01b031690565b1490565b6114ea91935082906112f6565b91386114ae565b156114f857565b60405162461bcd60e51b815260206004820152602560248201527f4552433732313a207472616e736665722066726f6d20696e636f72726563742060448201526437bbb732b960d91b6064820152608490fd5b1561155257565b60405162461bcd60e51b8152602060048201526024808201527f4552433732313a207472616e7366657220746f20746865207a65726f206164646044820152637265737360e01b6064820152608490fd5b916001600160a01b0360089290920291821b911b610fb1565b91906115cd610296610ff893610fd8565b9083546115a3565b610280916000916115bc565b9060001990610fb1565b906115fb610296610ff89261045e565b82546115e1565b91906116286116108361114a565b6116226001600160a01b038616610ef9565b146114f1565b6116cc600061164d61163c6103c083610e61565b6001600160a01b038516141561154b565b61169561165a600161045e565b916116678387878a612036565b6116856116738761114a565b6116226001600160a01b038a16610ef9565b61169086600461046b565b6115d5565b6116bc6116c28460036113116116ab8a836110b7565b6116bc876116b88361048a565b0390565b906115eb565b916103848361048a565b6116e0816116db84600261046b565b610fe1565b61171c6117166117107fddf252ad1be2c89b69c2b068fc378daa952ba7f163c4a11628f55a4df523b3ef95610fd8565b92610fd8565b9261045e565b9261172660405190565b600090a4565b9061173c826116db83600461046b565b6117458161114a565b9161171c6117166117107f8c5be1e5ebec7d5bd14f71427d1e84f3dd0314c0f7b2291e5b200ac8c7c3b92595610fd8565b1561177d57565b60405162461bcd60e51b815260206004820152601960248201527f4552433732313a20617070726f766520746f2063616c6c6572000000000000006044820152606490fd5b9060ff90610fb1565b906117db610296610ff892151590565b82546117c2565b6118006001600160a01b0383166001600160a01b0383161415611776565b61181883611813846113118560056110b7565b6117cb565b61105461184e6118487f17307eab39ab6107e8899845ad3d59bd9653f200f220920489ca2b5937696c3193610fd8565b93610fd8565b936102bc60405190565b61186461028091611869565b6110fe565b611874906000611151565b611884610ef96103c06000610e61565b141590565b905051906102808261025b565b9060208282031261026e5761029691611889565b6001600160a01b03918216815291166020820152604081019190915260806060820181905261029692910190610350565b6040513d6000823e3d90fd5b3d15611901576118f63d61139c565b903d6000602084013e565b606090565b91909392611912600090565b9461191c81611b70565b156119fe5790611963600061193b61193660209695610fd8565b610fd8565b9261196e63150b7a029161194c3390565b9661195660405190565b998a988997889660e01b90565b8652600486016118aa565b03925af1600091816119ce575b506119b157506119896118e7565b805161199c611998600061045e565b9190565b036119a9576040516113f4565b805190602001fd5b9091506114d9630a85bd0160e11b5b916001600160e01b03191690565b6119f091925060203d81116119f7575b6119e88183610578565b810190611896565b903861197b565b503d6119de565b5060019450505050565b15611a0f57565b60405162461bcd60e51b815260206004820152602b60248201527f455243373231456e756d657261626c653a206f776e657220696e646578206f7560448201526a74206f6620626f756e647360a81b6064820152608490fd5b61029691611a996110f992611a7b600090565b50611a92611a8b610296836110c1565b8410611a08565b60076110b7565b61046b565b15611aa557565b60405162461bcd60e51b815260206004820152602c60248201527f455243373231456e756d657261626c653a20676c6f62616c20696e646578206f60448201526b7574206f6620626f756e647360a01b6064820152608490fd5b634e487b7160e01b600052603260045260246000fd5b8054821015611b3857611b2f600191600052602060002090565b91020190600090565b611aff565b611b6a61029691611b4c600090565b50611b63611b5c61029660095490565b8210611a9e565b6009611b15565b906109c7565b3b611b7e611998600061045e565b1190565b347f88a5966d370b9919b20f3e2c13ff65706f196a4e32cc2c12bf57088f88525874611bba611bb033610fd8565b9261031560405190565b0390a2565b6102969063780e9d6360e01b6001600160e01b0319821614908115611be2575090565b6102969150611c0c565b611bff611bf96102969290565b60e01b90565b6001600160e01b03191690565b611c1c611bff6349064906611bec565b6001600160e01b0319821614908115611c33575090565b61029691506380ac58cd60e01b6001600160e01b0319821614908115611c68575b8115611c5e575090565b6102969150611c83565b6001600160e01b03198116635b5e139f60e01b149150611c54565b6114d96301ffc9a760e01b6119c0565b61029690611cd1565b610384611cb492602092611cae815190565b94859290565b9384910161032d565b611ccb906102969392611c9c565b90611c9c565b611cda81611858565b611ced611ce882600661046b565b611178565b611cf5611dad565b8051600090611d066119988361045e565b14611d5957611d19611998611716855190565b11611d2957505061029690611d60565b6102969250611d4d9161029691611d3f60405190565b938492602084019283611cbd565b90810382520382610578565b5050905090565b611d6981611858565b611d71611dad565b8051611d80611998600061045e565b1115611da357610296611d4d91611d9961029694611e06565b90611d3f60405190565b50506102966113b8565b60605b506102966113b8565b369037565b90610280611dd4611dce8461139c565b93610bf1565b601f190160208401611db9565b634e487b7160e01b600052601260045260246000fd5b8115611e01570490565b611de1565b611e0f81611e92565b90611e1f6001926103848461045e565b9180611e2a84611dbe565b936020018401905b611e3d575b50505090565b611e719060001901926f181899199a1a9b1b9c1cb0b131b232b360811b600a82061a8453611e6b600a61045e565b90611df7565b9081611e80611998600061045e565b14611e8d57909181611e32565b611e37565b611e9c600061045e565b907a184f03e93ff9f4daa797ed6e38ed64bf6a1f010000000000000000611ec28161045e565b821015612014575b506d04ee2d6d415b85acef8100000000611ee38161045e565b821015611ff2575b50662386f26fc10000611efd8161045e565b821015611fd0575b506305f5e100611f148161045e565b821015611fae575b50612710611f298161045e565b821015611f8c575b506064611f3d8161045e565b821015611f6a575b50611f53611998600a61045e565b1015611f5c5790565b61029690610384600161045e565b611f8591611e6b611f7a9261045e565b91610384600261045e565b9038611f45565b611fa791611e6b611f9c9261045e565b91610384600461045e565b9038611f31565b611fc991611e6b611fbe9261045e565b91610384600861045e565b9038611f1c565b611feb91611e6b611fe09261045e565b91610384601061045e565b9038611f05565b61200d91611e6b6120029261045e565b91610384602061045e565b9038611eeb565b61202f91611e6b6120249261045e565b91610384604061045e565b9038611eca565b6102809391929161204a611998600161045e565b116120e05761207e61205c6000610e61565b6001600160a01b0381166001600160a01b038416036120bd576103c0846121ca565b6001600160a01b03841603612098575061028091506122ed565b6001600160a01b03166001600160a01b038316036120b4575050565b61028091612143565b6001600160a01b0385166001600160a01b038416146103c0576103c08484612222565b60405162461bcd60e51b815260206004820152603560248201527f455243373231456e756d657261626c653a20636f6e7365637574697665207472604482015274185b9cd9995c9cc81b9bdd081cdd5c1c1bdc9d1959605a1b6064820152608490fd5b6121688261216d61028094612168611a999561215e816110c1565b96879160076110b7565b6115eb565b600861046b565b9160001960089290920291821b911b610fb1565b9190612199610296610ff89361045e565b908354612174565b90815491600160401b83101561059a57826121c491600161028095018155611b15565b90612188565b610280906121e960096102966121de825490565b61216885600a61046b565b6121a1565b634e487b7160e01b600052601160045260246000fd5b9190820391821161221157565b6121ee565b61028091600091612188565b61227061028092611a99600093611a9285612270612252612242856110c1565b61224c600161045e565b90612204565b9560086122626110f9838361046b565b888103612275575b5061046b565b612216565b80612168886122a38c6121686122a996611a9961229b6110f9600795611a9989886110b7565b9586946110b7565b8461046b565b3861226a565b634e487b7160e01b600052603160045260246000fd5b805480156122e85760001901906122e56122df8383611b15565b90612216565b55565b6122af565b61233b61028091610296600061227060099361230a612242865490565b611a99600a9161216861232d611b6a6123266110f9888861046b565b938b611b15565b6122a3816121c4858d611b15565b6122c5565b6102809061234c610ed8565b6123666102809161193661235f82610fd8565b600e610fe1565b600c610fe1565b61028090612340565b61028090612382610ed8565b61238e61028091610fd8565b600d610fe1565b61028090612376565b9050519061028082610b5c565b9060208282031261026e576102969161239e565b156123c657565b60405162461bcd60e51b815260206004820152600d60248201526c2737ba10309031b932b0ba37b960991b6044820152606490fd5b60001981146122115760010190565b610296610140610bdd565b90610299906107a6565b634e487b7160e01b600052600060045260246000fd5b818110612440575050565b8061244e6000600193612216565b01612435565b9190601f811161246357505050565b61247561028093600052602060002090565b906020601f840181900483019310612498575b6020601f909101045b0190612435565b9091508190612488565b600019600883021c1916906002021790565b906124bd815190565b9067ffffffffffffffff821161059a576124e1826124db85546104aa565b85612454565b602090601f831160011461250f57610ff8929160009183612504575b50506124a2565b0151905038806124fd565b601f1983169161252485600052602060002090565b9260005b81811061256257509160029391856001969410612549575b50505002019055565b01516000196008601f8516021c19169055388080612540565b91936020600181928787015181550195019201612528565b90610280916124b4565b61029690516107a6565b906117db610296610ff8926107b0565b610280919061266890610120906009906125ba816116bc875190565b6125db600182016125d560208801516001600160a01b031690565b90610fe1565b6125f3600282016125ed604088015190565b9061257a565b612605600382016125ed606088015190565b612617600482016125ed608088015190565b612629600582016125ed60a088015190565b61263b600682016116bc60c088015190565b61264d600782016116bc60e088015190565b612660600882016116bc61010088015190565b019201612584565b9061258e565b906102809161259e565b9395919594909294612695611936600d546001600160a01b031690565b956126b4602063efd4606533996126ab60405190565b93849260e01b90565b82526001600160a01b038b16600483015260249082905afa80156127c6576126e491600091612798575b506123bf565b6126ee600f61048a565b976126f8896123fb565b61270390600f6115eb565b60019561270e61240a565b976127178b8a52565b6001600160a01b038a1660208a015260408901526060880152608087015260a086015260c085015260e0840152610100830152612758906101208301612415565b61276383601161046b565b9061276d9161266e565b816127798260126110b7565b90612783916121a1565b61278e9060136110b7565b90610280916121a1565b6127b9915060203d81116127bf575b6127b18183610578565b8101906123ab565b386126de565b503d6127a7565b6118db565b906127e66127da610702845490565b92600052602060002090565b9060005b8181106127f75750505090565b90919261281b61281460019261280c8761048a565b815260200190565b9460010190565b9291016127ea565b90610296916127cb565b906102806105b99261283e60405190565b93848092612823565b6102969061282d565b61029661285e3360126110b7565b612847565b67ffffffffffffffff811161059a5760208091020190565b906113a9610c2a83612863565b61289061240a565b906000825260208080808080808080808b01600081520160608152016060815201606081520160608152016000815201600081520160008152016000905250565b610296612888565b60005b8281106128e857505050565b6020906128f36128d1565b81840152016128dc565b9061028061291361290d8461287b565b93612863565b601f1901602084016128d9565b90612929825190565b811015611b38576020809102010190565b90610280612a26600961294b61240a565b9461295c6129588261048a565b8752565b61298361297360018301546001600160a01b031690565b6001600160a01b03166020880152565b6129996129926002830161059f565b6040880152565b6129af6129a86003830161059f565b6060880152565b6129c56129be6004830161059f565b6080880152565b6129db6129d46005830161059f565b60a0880152565b6129f16129ea6006830161048a565b60c0880152565b612a07612a006007830161048a565b60e0880152565b612a1e612a166008830161048a565b610100880152565b015460ff1690565b6101208401612415565b6102969061293a565b612a4761285e3360126110b7565b612a57612a52825190565b6128fd565b90612a62600061045e565b612a6d610296835190565b811015612abc57612ab790612a9c612a976011612a91612a8d8588612920565b5190565b9061046b565b612a30565b612aa68286612920565b52612ab18185612920565b506123fb565b612a62565b505090565b61285e61029691612ad0606090565b5060136110b7565b61285e612ae791612ad0606090565b612af2612a52825190565b90612afd600061045e565b612b08610296835190565b811015612abc57612b2890612a9c612a976011612a91612a8d8588612920565b612afd565b6110f961029691612b3c600090565b50601561046b565b15612b4b57565b60405162461bcd60e51b815260206004820152600f60248201526e2737ba103a34329031b932b0ba37b960891b6044820152606490fd5b15612b8957565b60405162461bcd60e51b815260206004820152600d60248201526c4e6f7420417661696c61626c6560981b6044820152606490fd5b610280906011612c41612be46001612bd6858561046b565b01546001600160a01b031690565b339290612bfa90612bf485610ef9565b14612b44565b612c096009612a1e868461046b565b612c1c612c1660006107a6565b916107a6565b148015612c46575b612c2d90612b82565b6009612c3b8560039361046b565b0161258e565b612c6e565b50612c2d612c596009612a1e878561046b565b612c66612c1660016107a6565b149050612c24565b6013612c81612c7d83836110b7565b5490565b612c8b600061045e565b81811015612d0157612ca9611b6a82612ca487876110b7565b611b15565b8514612cbd57612cb8906123fb565b612c8b565b610280945091611311610296936121c4612cf6611b6a8896612cf0612ce561233b9b896110b7565b9161224c600161045e565b90611b15565b91612ca486866110b7565b5050505050565b90612d1b90600019906020036008021c90565b8154169055565b90600091612d40612d3882600052602060002090565b9283546124a2565b905555565b9192906020821015612d9d57601f8411600114612d6757610ff89293506124a2565b5090612d98610280936001612d8f612d8485600052602060002090565b92601f602091010490565b82019101612435565b612d22565b50612dd68293612db4600194600052602060002090565b6124916020601f860104820192601f861680612dde575b50601f602091010490565b600202179055565b612dea90888603612d08565b38612dcb565b929091600160401b821161059a5760201115612e37576020811015612e1857610ff8916124a2565b60019160ff1916612e2e84600052602060002090565b55600202019055565b60019150600202019055565b908154612e4f816104aa565b90818311612e78575b818310612e66575b50505050565b612e6f93612d45565b38808080612e60565b612e8483838387612df0565b612e58565b8181029291811591840414171561221157565b600061028091612e43565b90600003612eb85761028090612e9c565b61241f565b600090600990612ecd8382612216565b826001820155612ee08360028301612ea7565b612eed8360038301612ea7565b612efa8360048301612ea7565b612f078360058301612ea7565b612f148360068301612216565b612f218360078301612216565b612f2e8360088301612216565b0155565b90600003612eb85761028090612ebd565b610280906011612f9b6000612f9684612f616001612bd6838861046b565b339590612f7190612bf488610ef9565b611a99612f836009612a1e858561046b565b612f90612c1660036107a6565b14612b82565b612f32565b612c4182826012612faf612c7d83836110b7565b612fb9600061045e565b81811015612d0157612fd2611b6a82612ca487876110b7565b8514612cbd57612fe1906123fb565b612fb9565b610280906121e961029660116130226130046001612bd6878561046b565b33929061301490612bf485610ef9565b6009612c3b8760019361046b565b60136110b7565b1561303057565b60405162461bcd60e51b815260206004820152600860248201526714dbdb190813dd5d60c21b6044820152606490fd5b90505190610280826102cf565b9060208282031261026e5761029691613060565b1561308857565b60405162461bcd60e51b8152602060048201526011602482015270105b1b1bddd85b98d9481b9bdd081cd95d607a1b6044820152606490fd5b61029990610fd8565b6001600160a01b0390911681526060810193926102809290916040916106b89060208301906130c1565b156130fb57565b60405162461bcd60e51b815260206004820152600f60248201526e151c985b9cd9995c8819985a5b1959608a1b6044820152606490fd5b61314061029682601161046b565b6008810161314d8161048a565b60009061315c6119988361045e565b1480156133d0575b61316d90613029565b600983019161318d613180845460ff1690565b612f90612c1660016107a6565b6131f16131a5611936600c546001600160a01b031690565b94602063dd62ed3e33976131d26131bb30610fd8565b926131c560405190565b9687948593849360e01b90565b83526001600160a01b03808e1660048501521660248301526044820190565b03915afa9182156127c65760009261339b575b506007602091016132416132178261048a565b9361323a611998610296670de0b6b3a7640000976132348961045e565b90612e89565b1015613081565b613256611936600c546001600160a01b031690565b6132a1866132876323b872dd9661323461328161327b600e546001600160a01b031690565b9761048a565b9161045e565b956132ad61329460405190565b9788968795869460e01b90565b84528d600485016130ca565b03925af180156127c6576132c99160009161337d575b506130f4565b6132d2856134a3565b946015926132f46132e3838661046b565b6116bc6132ef8261048a565b6123fb565b6133036119986117168561048a565b14159283613354575b505050613342575b50611bba611bb07f47f6d8252610baec3c223131f429a133650bfe5a28d457219450a310a95545bd92610fd8565b61334e9060029061258e565b38613314565b61337392935061336d6110f9611998936102969361046b565b9361048a565b101538808061330c565b613395915060203d81116127bf576127b18183610578565b386132c3565b60209192506133c1600791833d81116133c9575b6133b98183610578565b81019061306d565b929150613204565b503d6133af565b5061316d6133e26110f986601561046b565b6133f16119986102968661048a565b109050613164565b610296610100610bdd565b61028091906116bc9060e09060079061341d8185875190565b613438600182016125d560208801516001600160a01b031690565b61344a600282016125ed604088015190565b61345c600382016125ed606088015190565b61346e600482016125ed608088015190565b613480600582016125ed60a088015190565b613492600682016116bc60c088015190565b0192015190565b9061028091613404565b6134ae90601161046b565b6134b790612a30565b6134c1601061048a565b906134cb826123fb565b6134d69060106115eb565b60208101516001600160a01b0316906040810151906060810151608082015160a08301519160c08401613507905190565b60e090940151946135166133f9565b9661351f898952565b6001600160a01b0316602088015260408701526060860152608085015260a084015260c083015260e08201528061355783601461046b565b9061356191613499565b61356b8233613652565b60208101516001600160a01b0316906040810151906060810151608082015160a08301519160c0840161359c905190565b60e090940151946135ac966138f1565b610296908261372d565b156135bd57565b60405162461bcd60e51b815280610ed4600482016020808252818101527f4552433732313a206d696e7420746f20746865207a65726f2061646472657373604082015260600190565b1561360d57565b60405162461bcd60e51b815260206004820152601c60248201527f4552433732313a20746f6b656e20616c7265616479206d696e746564000000006044820152606490fd5b9061365d6000610e61565b9161367c6001600160a01b0384166001600160a01b03831614156135b6565b61369461368f61368b84611869565b1590565b613606565b6116cc6136a1600161045e565b6136ad81858588612036565b6136bc61368f61368b86611869565b6116bc6116c28460036110b7565b156136d157565b60405162461bcd60e51b815260206004820152602e60248201527f45524337323155524953746f726167653a2055524920736574206f66206e6f6e60448201526d32bc34b9ba32b73a103a37b5b2b760911b6064820152608490fd5b906137539061374361373e84611869565b6136ca565b61374e83600661046b565b61257a565b6137817ff8e1a15aba9398e019f0b49df1a4fde98ee17ae345cb5f6b5e2c27f5033e8ce79161031560405190565b0390a1565b610299906001600160a01b031660601b90565b6138b49661380c6113a961388761382e60209a611ccb61386b6102969f9c61382e908f9a61385661380c9f6113a99f9061389f9f61383b61382e61382e94611ccb61381a6014611ccb9661380c613805611ccb9d6b3d9131b932b0ba37b9111d1160a11b8152600c0190565b8092613786565b01601160f91b815260010190565b67113730b6b2911d1160c11b815260080190565b601160f91b815260010190565b6e113232b9b1b934b83a34b7b7111d1160891b8152600f0190565b681134b6b0b3b2911d1160b91b815260090190565b6f1132bc3a32b93730b62fbab936111d1160811b815260100190565b6b11323ab930ba34b7b7111d1160a11b8152600c0190565b6811383934b1b2911d1160b91b815260090190565b607d60f81b815260010190565b7f646174613a6170706c69636174696f6e2f6a736f6e3b6261736536342c00000081526102969190601d01611ccb565b9091936102969661392396611d4d9261391e9661390c606090565b50604051988997602089019788613799565b6139b5565b61029661392f60405190565b8092611d4d6020830191826138c1565b613949604061139c565b7f4142434445464748494a4b4c4d4e4f505152535455565758595a61626364656660208201527f6768696a6b6c6d6e6f707172737475767778797a303132333435363738392b2f604082015290565b61029661393f565b610296613998565b9190820180921161221157565b80516139c4611998600061045e565b14611db0576139d16139a0565b9060046139dc825190565b906001613a17613a126139fa6002956139f48761045e565b906139a8565b93613a0d613281600396611e6b8861045e565b612e89565b611dbe565b9401926020850193819082518301915b828110613a625750505051069081600114613a525750600214613a48575090565b6001603d91035390565b905081603d600181940353035390565b84600191979293970191603f828080865194848660121c168901518153018385600c1c16880151815301828460061c168701518153019116840151815301959190613a27565b9061028091613ab5610ed8565b613b53565b6001600160a01b0390911681526040810192916102809160200152565b6001600160a01b039182168152911660208201526060810192916102809160400152565b15613b0257565b60405162461bcd60e51b8152602060048201526024808201527f496e73756666696369656e74204554482062616c616e636520696e20636f6e746044820152631c9858dd60e21b6064820152608490fd5b906000613b626103c082610e61565b6001600160a01b03841603613bfb57613b87613b7d30610fd8565b8390311015613afb565b80808084613ba3611936611936600b546001600160a01b031690565b828215613bf2575bf1156127c6577ffff3b3844276f57024e0b42afec1a37f75db36511e43819a4f2a63ab7862b64890613bdc33610fd8565b92611bba613be960405190565b92839283613aba565b506108fc613bab565b816020613c0a61193686610fd8565b63a9059cbb90613c3385613c26600b546001600160a01b031690565b93613c3e61329460405190565b845260048401613aba565b03925af19081613d9d575b50158114613d7157613c5d61193684610fd8565b6342842e0e613c6b30610fd8565b600b546001600160a01b031692803b1561026e57613c9f858094613caa89613c9260405190565b9889978896879560e01b90565b855260048501613ad7565b03925af19081613d45575b501514613d1a5760405162461bcd60e51b815260206004820152603060248201527f546f6b656e2074797065206e6f7420737570706f72746564206f7220696e737560448201526f6666696369656e742062616c616e636560801b6064820152608490fd5b7ffff3b3844276f57024e0b42afec1a37f75db36511e43819a4f2a63ab7862b64890613bdc33610fd8565b613d6490833d8511613d6a575b613d5c8183610578565b810190610322565b38613cb5565b503d613d52565b507ffff3b3844276f57024e0b42afec1a37f75db36511e43819a4f2a63ab7862b64890613bdc33610fd8565b613db49060203d81116127bf576127b18183610578565b613c49565b9061028091613aa856fea264697066735822122044972351fceb4d3319537f076d82aaf941dc5a02c290a1ada263884a9611d25f64736f6c63430008130033",
  "linkReferences": {},
  "deployedLinkReferences": {}
}