{
  "_format": "hh-sol-artifact-1",
  "contractName": "CreatorsNFT",
  "sourceName": "contracts/CreatorsNFT.sol",
  "abi": [
    {
      "inputs": [],
      "stateMutability": "nonpayable",
      "type": "constructor"
    },
    {
      "anonymous": false,
      "inputs": [
        {
          "indexed": true,
          "internalType": "address",
          "name": "owner",
          "type": "address"
        },
        {
          "indexed": true,
          "internalType": "address",
          "name": "approved",
          "type": "address"
        },
        {
          "indexed": true,
          "internalType": "uint256",
          "name": "tokenId",
          "type": "uint256"
        }
      ],
      "name": "Approval",
      "type": "event"
    },
    {
      "anonymous": false,
      "inputs": [
        {
          "indexed": true,
          "internalType": "address",
          "name": "owner",
          "type": "address"
        },
        {
          "indexed": true,
          "internalType": "address",
          "name": "operator",
          "type": "address"
        },
        {
          "indexed": false,
          "internalType": "bool",
          "name": "approved",
          "type": "bool"
        }
      ],
      "name": "ApprovalForAll",
      "type": "event"
    },
    {
      "anonymous": false,
      "inputs": [
        {
          "indexed": false,
          "internalType": "uint256",
          "name": "_fromTokenId",
          "type": "uint256"
        },
        {
          "indexed": false,
          "internalType": "uint256",
          "name": "_toTokenId",
          "type": "uint256"
        }
      ],
      "name": "BatchMetadataUpdate",
      "type": "event"
    },
    {
      "anonymous": false,
      "inputs": [
        {
          "indexed": false,
          "internalType": "uint256",
          "name": "_tokenId",
          "type": "uint256"
        }
      ],
      "name": "MetadataUpdate",
      "type": "event"
    },
    {
      "anonymous": false,
      "inputs": [
        {
          "indexed": true,
          "internalType": "address",
          "name": "buyer",
          "type": "address"
        },
        {
          "indexed": false,
          "internalType": "uint256",
          "name": "nftId",
          "type": "uint256"
        }
      ],
      "name": "NFTTransferred",
      "type": "event"
    },
    {
      "anonymous": false,
      "inputs": [
        {
          "indexed": true,
          "internalType": "address",
          "name": "previousOwner",
          "type": "address"
        },
        {
          "indexed": true,
          "internalType": "address",
          "name": "newOwner",
          "type": "address"
        }
      ],
      "name": "OwnershipTransferred",
      "type": "event"
    },
    {
      "anonymous": false,
      "inputs": [
        {
          "indexed": true,
          "internalType": "address",
          "name": "from",
          "type": "address"
        },
        {
          "indexed": false,
          "internalType": "uint256",
          "name": "amount",
          "type": "uint256"
        }
      ],
      "name": "Received",
      "type": "event"
    },
    {
      "anonymous": false,
      "inputs": [
        {
          "indexed": true,
          "internalType": "address",
          "name": "sender",
          "type": "address"
        },
        {
          "indexed": false,
          "internalType": "address",
          "name": "tokenAddress",
          "type": "address"
        },
        {
          "indexed": false,
          "internalType": "uint256",
          "name": "amountOrTokenId",
          "type": "uint256"
        }
      ],
      "name": "Recovered",
      "type": "event"
    },
    {
      "anonymous": false,
      "inputs": [
        {
          "indexed": true,
          "internalType": "address",
          "name": "from",
          "type": "address"
        },
        {
          "indexed": true,
          "internalType": "address",
          "name": "to",
          "type": "address"
        },
        {
          "indexed": true,
          "internalType": "uint256",
          "name": "tokenId",
          "type": "uint256"
        }
      ],
      "name": "Transfer",
      "type": "event"
    },
    {
      "stateMutability": "payable",
      "type": "fallback"
    },
    {
      "inputs": [
        {
          "internalType": "address",
          "name": "to",
          "type": "address"
        },
        {
          "internalType": "uint256",
          "name": "tokenId",
          "type": "uint256"
        }
      ],
      "name": "approve",
      "outputs": [],
      "stateMutability": "nonpayable",
      "type": "function"
    },
    {
      "inputs": [
        {
          "internalType": "address",
          "name": "owner",
          "type": "address"
        }
      ],
      "name": "balanceOf",
      "outputs": [
        {
          "internalType": "uint256",
          "name": "",
          "type": "uint256"
        }
      ],
      "stateMutability": "view",
      "type": "function"
    },
    {
      "inputs": [
        {
          "internalType": "uint256",
          "name": "sourceId",
          "type": "uint256"
        }
      ],
      "name": "buyNFT",
      "outputs": [],
      "stateMutability": "nonpayable",
      "type": "function"
    },
    {
      "inputs": [
        {
          "internalType": "uint256",
          "name": "sourceId",
          "type": "uint256"
        }
      ],
      "name": "deleteNFTSource",
      "outputs": [],
      "stateMutability": "nonpayable",
      "type": "function"
    },
    {
      "inputs": [
        {
          "internalType": "uint256",
          "name": "tokenId",
          "type": "uint256"
        }
      ],
      "name": "getApproved",
      "outputs": [
        {
          "internalType": "address",
          "name": "",
          "type": "address"
        }
      ],
      "stateMutability": "view",
      "type": "function"
    },
    {
      "inputs": [
        {
          "internalType": "address",
          "name": "creator",
          "type": "address"
        }
      ],
      "name": "getNFTDetailsByCreator",
      "outputs": [
        {
          "components": [
            {
              "internalType": "uint256",
              "name": "sourceId",
              "type": "uint256"
            },
            {
              "internalType": "address",
              "name": "creator",
              "type": "address"
            },
            {
              "internalType": "string",
              "name": "name",
              "type": "string"
            },
            {
              "internalType": "string",
              "name": "description",
              "type": "string"
            },
            {
              "internalType": "string",
              "name": "image",
              "type": "string"
            },
            {
              "internalType": "string",
              "name": "external_url",
              "type": "string"
            },
            {
              "internalType": "uint256",
              "name": "price",
              "type": "uint256"
            },
            {
              "internalType": "uint256",
              "name": "units",
              "type": "uint256"
            },
            {
              "internalType": "enum NFTSource.MediaType",
              "name": "mediaType",
              "type": "uint8"
            },
            {
              "internalType": "enum NFTSource.Status",
              "name": "status",
              "type": "uint8"
            }
          ],
          "internalType": "struct NFTSource.Detail[]",
          "name": "",
          "type": "tuple[]"
        }
      ],
      "stateMutability": "view",
      "type": "function"
    },
    {
      "inputs": [
        {
          "internalType": "address",
          "name": "creator",
          "type": "address"
        }
      ],
      "name": "getNFTsByCreator",
      "outputs": [
        {
          "internalType": "uint256[]",
          "name": "",
          "type": "uint256[]"
        }
      ],
      "stateMutability": "view",
      "type": "function"
    },
    {
      "inputs": [
        {
          "internalType": "address",
          "name": "owner",
          "type": "address"
        },
        {
          "internalType": "address",
          "name": "operator",
          "type": "address"
        }
      ],
      "name": "isApprovedForAll",
      "outputs": [
        {
          "internalType": "bool",
          "name": "",
          "type": "bool"
        }
      ],
      "stateMutability": "view",
      "type": "function"
    },
    {
      "inputs": [],
      "name": "name",
      "outputs": [
        {
          "internalType": "string",
          "name": "",
          "type": "string"
        }
      ],
      "stateMutability": "view",
      "type": "function"
    },
    {
      "inputs": [],
      "name": "nextNFTId",
      "outputs": [
        {
          "internalType": "uint256",
          "name": "",
          "type": "uint256"
        }
      ],
      "stateMutability": "view",
      "type": "function"
    },
    {
      "inputs": [],
      "name": "nextSourceId",
      "outputs": [
        {
          "internalType": "uint256",
          "name": "",
          "type": "uint256"
        }
      ],
      "stateMutability": "view",
      "type": "function"
    },
    {
      "inputs": [
        {
          "internalType": "uint256",
          "name": "",
          "type": "uint256"
        }
      ],
      "name": "nfts",
      "outputs": [
        {
          "internalType": "uint256",
          "name": "tokenId",
          "type": "uint256"
        },
        {
          "internalType": "address",
          "name": "creator",
          "type": "address"
        },
        {
          "internalType": "string",
          "name": "name",
          "type": "string"
        },
        {
          "internalType": "string",
          "name": "description",
          "type": "string"
        },
        {
          "internalType": "string",
          "name": "image",
          "type": "string"
        },
        {
          "internalType": "string",
          "name": "external_url",
          "type": "string"
        },
        {
          "internalType": "uint256",
          "name": "price",
          "type": "uint256"
        },
        {
          "internalType": "enum NFTSource.MediaType",
          "name": "mediaType",
          "type": "uint8"
        }
      ],
      "stateMutability": "view",
      "type": "function"
    },
    {
      "inputs": [],
      "name": "owner",
      "outputs": [
        {
          "internalType": "address",
          "name": "",
          "type": "address"
        }
      ],
      "stateMutability": "view",
      "type": "function"
    },
    {
      "inputs": [
        {
          "internalType": "uint256",
          "name": "tokenId",
          "type": "uint256"
        }
      ],
      "name": "ownerOf",
      "outputs": [
        {
          "internalType": "address",
          "name": "",
          "type": "address"
        }
      ],
      "stateMutability": "view",
      "type": "function"
    },
    {
      "inputs": [],
      "name": "renounceOwnership",
      "outputs": [],
      "stateMutability": "nonpayable",
      "type": "function"
    },
    {
      "inputs": [
        {
          "internalType": "address",
          "name": "from",
          "type": "address"
        },
        {
          "internalType": "address",
          "name": "to",
          "type": "address"
        },
        {
          "internalType": "uint256",
          "name": "tokenId",
          "type": "uint256"
        }
      ],
      "name": "safeTransferFrom",
      "outputs": [],
      "stateMutability": "nonpayable",
      "type": "function"
    },
    {
      "inputs": [
        {
          "internalType": "address",
          "name": "from",
          "type": "address"
        },
        {
          "internalType": "address",
          "name": "to",
          "type": "address"
        },
        {
          "internalType": "uint256",
          "name": "tokenId",
          "type": "uint256"
        },
        {
          "internalType": "bytes",
          "name": "data",
          "type": "bytes"
        }
      ],
      "name": "safeTransferFrom",
      "outputs": [],
      "stateMutability": "nonpayable",
      "type": "function"
    },
    {
      "inputs": [
        {
          "internalType": "address",
          "name": "operator",
          "type": "address"
        },
        {
          "internalType": "bool",
          "name": "approved",
          "type": "bool"
        }
      ],
      "name": "setApprovalForAll",
      "outputs": [],
      "stateMutability": "nonpayable",
      "type": "function"
    },
    {
      "inputs": [
        {
          "internalType": "address",
          "name": "blockFans",
          "type": "address"
        }
      ],
      "name": "setBlockFans",
      "outputs": [],
      "stateMutability": "nonpayable",
      "type": "function"
    },
    {
      "inputs": [
        {
          "internalType": "address",
          "name": "creatorsAddress",
          "type": "address"
        }
      ],
      "name": "setCreators",
      "outputs": [],
      "stateMutability": "nonpayable",
      "type": "function"
    },
    {
      "inputs": [
        {
          "internalType": "string",
          "name": "name",
          "type": "string"
        },
        {
          "internalType": "string",
          "name": "description",
          "type": "string"
        },
        {
          "internalType": "string",
          "name": "image",
          "type": "string"
        },
        {
          "internalType": "string",
          "name": "external_url",
          "type": "string"
        },
        {
          "internalType": "uint256",
          "name": "price",
          "type": "uint256"
        },
        {
          "internalType": "uint256",
          "name": "units",
          "type": "uint256"
        },
        {
          "internalType": "enum NFTSource.MediaType",
          "name": "mediaType",
          "type": "uint8"
        }
      ],
      "name": "setNFTSource",
      "outputs": [],
      "stateMutability": "nonpayable",
      "type": "function"
    },
    {
      "inputs": [
        {
          "internalType": "bytes4",
          "name": "interfaceId",
          "type": "bytes4"
        }
      ],
      "name": "supportsInterface",
      "outputs": [
        {
          "internalType": "bool",
          "name": "",
          "type": "bool"
        }
      ],
      "stateMutability": "view",
      "type": "function"
    },
    {
      "inputs": [],
      "name": "symbol",
      "outputs": [
        {
          "internalType": "string",
          "name": "",
          "type": "string"
        }
      ],
      "stateMutability": "view",
      "type": "function"
    },
    {
      "inputs": [
        {
          "internalType": "uint256",
          "name": "index",
          "type": "uint256"
        }
      ],
      "name": "tokenByIndex",
      "outputs": [
        {
          "internalType": "uint256",
          "name": "",
          "type": "uint256"
        }
      ],
      "stateMutability": "view",
      "type": "function"
    },
    {
      "inputs": [
        {
          "internalType": "address",
          "name": "owner",
          "type": "address"
        },
        {
          "internalType": "uint256",
          "name": "index",
          "type": "uint256"
        }
      ],
      "name": "tokenOfOwnerByIndex",
      "outputs": [
        {
          "internalType": "uint256",
          "name": "",
          "type": "uint256"
        }
      ],
      "stateMutability": "view",
      "type": "function"
    },
    {
      "inputs": [
        {
          "internalType": "uint256",
          "name": "tokenId",
          "type": "uint256"
        }
      ],
      "name": "tokenURI",
      "outputs": [
        {
          "internalType": "string",
          "name": "",
          "type": "string"
        }
      ],
      "stateMutability": "view",
      "type": "function"
    },
    {
      "inputs": [],
      "name": "totalSupply",
      "outputs": [
        {
          "internalType": "uint256",
          "name": "",
          "type": "uint256"
        }
      ],
      "stateMutability": "view",
      "type": "function"
    },
    {
      "inputs": [
        {
          "internalType": "address",
          "name": "from",
          "type": "address"
        },
        {
          "internalType": "address",
          "name": "to",
          "type": "address"
        },
        {
          "internalType": "uint256",
          "name": "tokenId",
          "type": "uint256"
        }
      ],
      "name": "transferFrom",
      "outputs": [],
      "stateMutability": "nonpayable",
      "type": "function"
    },
    {
      "inputs": [
        {
          "internalType": "address",
          "name": "newOwner",
          "type": "address"
        }
      ],
      "name": "transferOwnership",
      "outputs": [],
      "stateMutability": "nonpayable",
      "type": "function"
    },
    {
      "inputs": [
        {
          "internalType": "address",
          "name": "tokenAddress",
          "type": "address"
        },
        {
          "internalType": "uint256",
          "name": "amountOrTokenId",
          "type": "uint256"
        }
      ],
      "name": "withdraw",
      "outputs": [],
      "stateMutability": "nonpayable",
      "type": "function"
    },
    {
      "stateMutability": "payable",
      "type": "receive"
    }
  ],
  "bytecode": "0x608060405234620000265762000014620001cf565b604051613b4d620005008239613b4d90f35b600080fd5b634e487b7160e01b600052604160045260246000fd5b90601f01601f191681019081106001600160401b038211176200006357604052565b6200002b565b90620000806200007860405190565b928362000041565b565b6001600160401b0381116200006357602090601f01601f19160190565b90620000b5620000af8362000082565b62000069565b918252565b620000c6600c6200009f565b6b109b1bd8dad9985b9cd3919560a21b602082015290565b620000e8620000ba565b90565b620000f760036200009f565b6221232760e91b602082015290565b620000e8620000eb565b90600019905b9181191691161790565b620000e8620000e8620000e89290565b9062000144620000e86200014c9262000120565b825462000110565b9055565b62000160620000e8620000e89290565b6001600160a01b031690565b620000e89062000150565b620000e89062000160906001600160a01b031682565b620000e89062000177565b620000e8906200018d565b906001600160a01b039062000116565b90620001c7620000e86200014c9262000198565b8254620001a3565b620001ee620001dd620000de565b620001e762000106565b9062000259565b6200020960016200020181600f62000130565b601062000130565b62000080620002516200021d60006200016c565b620002346200022c8262000198565b600e620001b3565b6200024b620002438262000198565b600c620001b3565b62000198565b600d620001b3565b6200008091620002699162000274565b62000080336200049d565b620000809182918291906200046c565b634e487b7160e01b600052602260045260246000fd5b9060016002830492168015620002bd575b6020831014620002b757565b62000284565b91607f1691620002ab565b9160001960089290920291821b911b62000116565b9190620002f2620000e86200014c9362000120565b908354620002c8565b6200008091600091620002dd565b81811062000315575050565b80620003256000600193620002fb565b0162000309565b9190601f81116200033c57505050565b620003506200008093600052602060002090565b906020601f84018190048301931062000374575b6020601f90910104019062000309565b909150819062000364565b9062000389815190565b906001600160401b0382116200006357620003b182620003aa85546200029a565b856200032c565b602090601f8311600114620003f0576200014c929160009183620003e4575b5050600019600883021c1916906002021790565b015190503880620003d0565b601f198316916200040685600052602060002090565b9260005b81811062000447575091600293918560019694106200042d575b50505002019055565b01516000196008601f8516021c1916905538808062000424565b919360206001819287870151815501950192016200040a565b9062000080916200037f565b906200047e6200008092600062000460565b600162000460565b620000e89062000160565b620000e8905462000486565b620004a9600b62000491565b90620004b781600b620001b3565b620004ee620004e77f8be0079c531659141344cd1fd0a4f28419497f9722a3daafe3b4186f6b6457e09362000198565b9162000198565b91620004f960405190565b600090a356fe60806040526004361015610026575b361561001e5761001c611b07565b005b61001c611b07565b60003560e01c806301ffc9a71461020657806306fdde0314610201578063081812fc146101fc578063095ea7b3146101f757806315b684cf146101f257806318160ddd146101ed57806323b872dd146101e8578063265aa621146101e35780632f745c59146101de57806342842e0e146101d95780634f6ccce7146101d457806351ed8288146101cf5780636352211e146101ca57806370a08231146101c5578063715018a6146101c05780638da5cb5b146101bb578063926061f0146101b657806395d89b41146101b1578063a22cb465146101ac578063abd48199146101a7578063af2217cd146101a2578063b88d4fde1461019d578063ba908b4514610198578063c87b56dd14610193578063c909adc01461018e578063e985e9c514610189578063f2fde38b14610184578063f3fef3a31461017f578063fa3157d51461017a5763ffa038210361000e57610da4565b610d25565b610d0c565b610cf4565b610cd8565b610c9a565b610c73565b610c5b565b610c3f565b610bc8565b610a46565b6108dd565b61088a565b61086f565b610828565b610810565b6107f5565b6107c6565b6107ae565b610793565b61077a565b61075e565b610727565b610457565b6103fa565b6103e2565b6103c4565b610350565b6102f6565b61024d565b6001600160e01b031981165b0361021e57565b600080fd5b905035906102308261020b565b565b9060208282031261021e5761024691610223565b90565b9052565b3461021e5761027b610268610263366004610232565b611b44565b6040515b91829182901515815260200190565b0390f35b600091031261021e57565b60005b83811061029d5750506000910152565b818101518382015260200161028d565b6102ce6102d76020936102e1936102c2815190565b80835293849260200190565b9586910161028a565b601f01601f191690565b0190565b6020808252610246929101906102ad565b3461021e5761030636600461027f565b61027b610311611108565b604051918291826102e5565b80610217565b905035906102308261031d565b9060208282031261021e5761024691610323565b6001600160a01b031690565b3461021e5761027b61036b610366366004610330565b611245565b604051918291826001600160a01b03909116815260200190565b6001600160a01b038116610217565b9050359061023082610385565b919060408382031261021e57610246906103bb8185610394565b93602001610323565b3461021e576103dd6103d73660046103a1565b906111e4565b604051005b3461021e576103dd6103f5366004610330565b612c0d565b3461021e5761040a36600461027f565b61027b61041660095490565b6040515b9182918290815260200190565b909160608284031261021e576102466104408484610394565b9361044e8160208601610394565b93604001610323565b3461021e576103dd61046a366004610427565b91611304565b6102466102466102469290565b9061048790610470565b600052602052604060002090565b6102469081565b6102469054610495565b634e487b7160e01b600052602260045260246000fd5b90600160028304921680156104dc575b60208310146104d757565b6104a6565b91607f16916104cc565b805460009392916105036104f9836104bc565b8085529360200190565b9160018116908115610555575060011461051c57505050565b61052f9192939450600052602060002090565b916000925b8184106105415750500190565b805484840152602090930192600101610534565b92949550505060ff1916825215156020020190565b90610246916104e6565b634e487b7160e01b600052604160045260246000fd5b90601f01601f1916810190811067ffffffffffffffff8211176105ac57604052565b610574565b906102306105cb926105c260405190565b9384809261056a565b038361058a565b610246905b60ff1690565b61024690546105d2565b6105f290601361047d565b906105fc8261049c565b9161061160018201546001600160a01b031690565b9161061e600283016105b1565b9161062b600382016105b1565b91610638600483016105b1565b91610645600582016105b1565b9161024660076106576006850161049c565b93016105dd565b634e487b7160e01b600052602160045260246000fd5b6006111561067e57565b61065e565b9061023082610674565b61024690610683565b6102499061068d565b9360e0956106fc61070a926106ee88610720986102309d9f9e9c97610718996106d16106e19260006101008701960152565b6001600160a01b031660208d0152565b8a820360408c01526102ad565b9088820360608a01526102ad565b9086820360808801526102ad565b9084820360a08601526102ad565b9660c0830152565b0190610696565b3461021e5761027b61074261073d366004610330565b6105e7565b9461075598969894919493929360405190565b9889988961069f565b3461021e5761027b6104166107743660046103a1565b906119ed565b3461021e576103dd61078d366004610427565b91611345565b3461021e5761027b6104166107a9366004610330565b611ac2565b3461021e576103dd6107c1366004610330565b612e3a565b3461021e5761027b61036b6107dc366004610330565b6110d1565b9060208282031261021e5761024691610394565b3461021e5761027b61041661080b3660046107e1565b611048565b3461021e5761082036600461027f565b6103dd610e03565b3461021e5761083836600461027f565b61027b61036b600b546001600160a01b031690565b610246916008021c81565b90610246915461084d565b6102466000600f610858565b3461021e5761087f36600461027f565b61027b610416610863565b3461021e5761089a36600461027f565b61027b610311611112565b801515610217565b90503590610230826108a5565b919060408382031261021e57610246906108d48185610394565b936020016108ad565b3461021e576103dd6108f03660046108ba565b90611272565b9061023061090360405190565b928361058a565b67ffffffffffffffff81116105ac57602090601f01601f19160190565b90826000939282370152565b909291926109486109438261090a565b6108f6565b9381855260208501908284011161021e5761023092610927565b9080601f8301121561021e5781602061024693359101610933565b6006111561021e57565b905035906102308261097d565b60e08183031261021e57803567ffffffffffffffff811161021e57826109bb918301610962565b92602082013567ffffffffffffffff811161021e57836109dc918401610962565b92604083013567ffffffffffffffff811161021e57816109fd918501610962565b92606081013567ffffffffffffffff811161021e5782610a1e918301610962565b92610246610a2f8460808501610323565b93610a3d8160a08601610323565b9360c001610987565b3461021e576103dd610a59366004610994565b959490949391936125db565b6005111561067e57565b9061023082610a65565b61024690610a6f565b61024990610a79565b805182526020808201516001600160a01b031690830152906102469061012080610b04610af2610ae0610ace610140870160408a015188820360408a01526102ad565b606089015187820360608901526102ad565b608088015186820360808801526102ad565b60a087015185820360a08701526102ad565b94610b1460c082015160c0860152565b610b2360e082015160e0860152565b610b37610100820151610100860190610696565b0151910190610a82565b9061024691610a8b565b90610b61610b57835190565b8083529160200190565b9081610b736020830284019460200190565b926000915b838310610b8757505050505090565b90919293946020610baa610ba383856001950387528951610b41565b9760200190565b9301930191939290610b78565b602080825261024692910190610b4b565b3461021e5761027b610be3610bde3660046107e1565b612918565b60405191829182610bb7565b9060808282031261021e57610c048183610394565b92610c128260208501610394565b92610c208360408301610323565b92606082013567ffffffffffffffff811161021e576102469201610962565b3461021e576103dd610c52366004610bef565b92919091611355565b3461021e576103dd610c6e3660046107e1565b6122f2565b3461021e5761027b610311610c89366004610330565b611c18565b61024660006010610858565b3461021e57610caa36600461027f565b61027b610416610c8e565b919060408382031261021e5761024690610ccf8185610394565b93602001610394565b3461021e5761027b610268610cee366004610cb5565b9061127d565b3461021e576103dd610d073660046107e1565b610f24565b3461021e576103dd610d1f3660046103a1565b90613a34565b3461021e576103dd610d383660046107e1565b61231a565b90610d5d610d56610d4c845190565b8084529260200190565b9260200190565b9060005b818110610d6e5750505090565b909192610d8b610d846001928651815260200190565b9460200190565b929101610d61565b602080825261024692910190610d3d565b3461021e5761027b610dbf610dba3660046107e1565b612711565b60405191829182610d93565b610dd3610e5f565b610230610df1565b6103446102466102469290565b61024690610ddb565b610230610dfe6000610de8565b610f83565b610230610dcb565b15610e1257565b60405162461bcd60e51b815280610e5b600482016020808252818101527f4f776e61626c653a2063616c6c6572206973206e6f7420746865206f776e6572604082015260600190565b0390fd5b610230610e74600b546001600160a01b031690565b610e8d610e8033610344565b916001600160a01b031690565b14610e0b565b61023090610e9f610e5f565b610eff565b15610eab57565b60405162461bcd60e51b815260206004820152602660248201527f4f776e61626c653a206e6577206f776e657220697320746865207a65726f206160448201526564647265737360d01b6064820152608490fd5b61023090610dfe610f136103446000610de8565b6001600160a01b0383161415610ea4565b61023090610e93565b906001600160a01b03905b9181191691161790565b61024690610344906001600160a01b031682565b61024690610f42565b61024690610f56565b90610f78610246610f7f92610f5f565b8254610f2d565b9055565b600b546001600160a01b031690610f9b81600b610f68565b610fce610fc87f8be0079c531659141344cd1fd0a4f28419497f9722a3daafe3b4186f6b6457e093610f5f565b91610f5f565b91610fd860405190565b80805b0390a3565b15610fe757565b60405162461bcd60e51b815260206004820152602960248201527f4552433732313a2061646472657373207a65726f206973206e6f7420612076616044820152683634b21037bbb732b960b91b6064820152608490fd5b9061048790610f5f565b61108061024691611057600090565b506110796110686103446000610de8565b6001600160a01b0383161415610fe0565b600361103e565b61049c565b1561108c57565b60405162461bcd60e51b815260206004820152601860248201527f4552433732313a20696e76616c696420746f6b656e20494400000000000000006044820152606490fd5b6110de9060005b506113f5565b6102466110ee6103446000610de8565b6001600160a01b0383161415611085565b610246906105b1565b61024660006110ff565b61024660016110ff565b1561112357565b60405162461bcd60e51b815260206004820152602160248201527f4552433732313a20617070726f76616c20746f2063757272656e74206f776e656044820152603960f91b6064820152608490fd5b1561117957565b60405162461bcd60e51b815260206004820152603d60248201527f4552433732313a20617070726f76652063616c6c6572206973206e6f7420746f60448201527f6b656e206f776e6572206f7220617070726f76656420666f7220616c6c0000006064820152608490fd5b906102309161122f6111f5836110d1565b6112136001600160a01b0382166001600160a01b038516141561111c565b336001600160a01b0382168114918215611234575b5050611172565b6116b1565b61123e925061127d565b3880611228565b61126561024691611254600090565b5061125e816117dd565b600461047d565b546001600160a01b031690565b610230919033611767565b6102469161129861129d92611290600090565b50600561103e565b61103e565b6105dd565b156112a957565b60405162461bcd60e51b815260206004820152602d60248201527f4552433732313a2063616c6c6572206973206e6f7420746f6b656e206f776e6560448201526c1c881bdc88185c1c1c9bdd9959609a1b6064820152608490fd5b61023092919061131c611317843361140c565b6112a2565b611587565b9061132e6109438361090a565b918252565b6102466000611321565b610246611333565b90916102309261135361133d565b925b61023093929190611369611317843361140c565b6113d6565b1561137557565b6040515b62461bcd60e51b815260206004820152603260248201527f4552433732313a207472616e7366657220746f206e6f6e20455243373231526560448201527131b2b4bb32b91034b6b83632b6b2b73a32b960711b6064820152608490fd5b9161023093916113f0936113eb838383611587565b61188b565b61136e565b61126561024691611404600090565b50600261047d565b611415826110d1565b916001600160a01b0383166001600160a01b03831614928315611462575b50821561143f57505090565b61145e919250611451610e8091611245565b926001600160a01b031690565b1490565b61146f919350829061127d565b9138611433565b1561147d57565b60405162461bcd60e51b815260206004820152602560248201527f4552433732313a207472616e736665722066726f6d20696e636f72726563742060448201526437bbb732b960d91b6064820152608490fd5b156114d757565b60405162461bcd60e51b8152602060048201526024808201527f4552433732313a207472616e7366657220746f20746865207a65726f206164646044820152637265737360e01b6064820152608490fd5b916001600160a01b0360089290920291821b911b610f38565b9190611552610246610f7f93610f5f565b908354611528565b61023091600091611541565b9060001990610f38565b90611580610246610f7f92610470565b8254611566565b91906115ad611595836110d1565b6115a76001600160a01b038616610e80565b14611476565b61165160006115d26115c161034483610de8565b6001600160a01b03851614156114d0565b61161a6115df6001610470565b916115ec8387878a611fbb565b61160a6115f8876110d1565b6115a76001600160a01b038a16610e80565b61161586600461047d565b61155a565b6116416116478460036112986116308a8361103e565b6116418761163d8361049c565b0390565b90611570565b916102e18361049c565b6116658161166084600261047d565b610f68565b6116a161169b6116957fddf252ad1be2c89b69c2b068fc378daa952ba7f163c4a11628f55a4df523b3ef95610f5f565b92610f5f565b92610470565b926116ab60405190565b600090a4565b906116c18261166083600461047d565b6116ca816110d1565b916116a161169b6116957f8c5be1e5ebec7d5bd14f71427d1e84f3dd0314c0f7b2291e5b200ac8c7c3b92595610f5f565b1561170257565b60405162461bcd60e51b815260206004820152601960248201527f4552433732313a20617070726f766520746f2063616c6c6572000000000000006044820152606490fd5b9060ff90610f38565b90611760610246610f7f92151590565b8254611747565b6117856001600160a01b0383166001600160a01b03831614156116fb565b61179d836117988461129885600561103e565b611750565b610fdb6117d36117cd7f17307eab39ab6107e8899845ad3d59bd9653f200f220920489ca2b5937696c3193610f5f565b93610f5f565b9361026c60405190565b6117e9610230916117ee565b611085565b6117f99060006110d8565b611809610e806103446000610de8565b141590565b905051906102308261020b565b9060208282031261021e576102469161180e565b6001600160a01b039182168152911660208201526040810191909152608060608201819052610246929101906102ad565b6040513d6000823e3d90fd5b3d156118865761187b3d611321565b903d6000602084013e565b606090565b91909392611897600090565b946118a181611af5565b1561198357906118e860006118c06118bb60209695610f5f565b610f5f565b926118f363150b7a02916118d13390565b966118db60405190565b998a988997889660e01b90565b86526004860161182f565b03925af160009181611953575b50611936575061190e61186c565b805161192161191d6000610470565b9190565b0361192e57604051611379565b805190602001fd5b90915061145e630a85bd0160e11b5b916001600160e01b03191690565b61197591925060203d811161197c575b61196d818361058a565b81019061181b565b9038611900565b503d611963565b5060019450505050565b1561199457565b60405162461bcd60e51b815260206004820152602b60248201527f455243373231456e756d657261626c653a206f776e657220696e646578206f7560448201526a74206f6620626f756e647360a81b6064820152608490fd5b61024691611a1e61108092611a00600090565b50611a17611a1061024683611048565b841061198d565b600761103e565b61047d565b15611a2a57565b60405162461bcd60e51b815260206004820152602c60248201527f455243373231456e756d657261626c653a20676c6f62616c20696e646578206f60448201526b7574206f6620626f756e647360a01b6064820152608490fd5b634e487b7160e01b600052603260045260246000fd5b8054821015611abd57611ab4600191600052602060002090565b91020190600090565b611a84565b611aef61024691611ad1600090565b50611ae8611ae161024660095490565b8210611a23565b6009611a9a565b90610858565b3b611b0361191d6000610470565b1190565b347f88a5966d370b9919b20f3e2c13ff65706f196a4e32cc2c12bf57088f88525874611b3f611b3533610f5f565b9261041a60405190565b0390a2565b6102469063780e9d6360e01b6001600160e01b0319821614908115611b67575090565b6102469150611b91565b611b84611b7e6102469290565b60e01b90565b6001600160e01b03191690565b611ba1611b846349064906611b71565b6001600160e01b0319821614908115611bb8575090565b61024691506380ac58cd60e01b6001600160e01b0319821614908115611bed575b8115611be3575090565b6102469150611c08565b6001600160e01b03198116635b5e139f60e01b149150611bd9565b61145e6301ffc9a760e01b611945565b61024690611c56565b6102e1611c3992602092611c33815190565b94859290565b9384910161028a565b611c50906102469392611c21565b90611c21565b611c5f816117dd565b611c72611c6d82600661047d565b6110ff565b611c7a611d32565b8051600090611c8b61191d83610470565b14611cde57611c9e61191d61169b855190565b11611cae57505061024690611ce5565b6102469250611cd29161024691611cc460405190565b938492602084019283611c42565b9081038252038261058a565b5050905090565b611cee816117dd565b611cf6611d32565b8051611d0561191d6000610470565b1115611d2857610246611cd291611d1e61024694611d8b565b90611cc460405190565b505061024661133d565b60605b5061024661133d565b369037565b90610230611d59611d5384611321565b9361090a565b601f190160208401611d3e565b634e487b7160e01b600052601260045260246000fd5b8115611d86570490565b611d66565b611d9481611e17565b90611da46001926102e184610470565b9180611daf84611d43565b936020018401905b611dc2575b50505090565b611df69060001901926f181899199a1a9b1b9c1cb0b131b232b360811b600a82061a8453611df0600a610470565b90611d7c565b9081611e0561191d6000610470565b14611e1257909181611db7565b611dbc565b611e216000610470565b907a184f03e93ff9f4daa797ed6e38ed64bf6a1f010000000000000000611e4781610470565b821015611f99575b506d04ee2d6d415b85acef8100000000611e6881610470565b821015611f77575b50662386f26fc10000611e8281610470565b821015611f55575b506305f5e100611e9981610470565b821015611f33575b50612710611eae81610470565b821015611f11575b506064611ec281610470565b821015611eef575b50611ed861191d600a610470565b1015611ee15790565b610246906102e16001610470565b611f0a91611df0611eff92610470565b916102e16002610470565b9038611eca565b611f2c91611df0611f2192610470565b916102e16004610470565b9038611eb6565b611f4e91611df0611f4392610470565b916102e16008610470565b9038611ea1565b611f7091611df0611f6592610470565b916102e16010610470565b9038611e8a565b611f9291611df0611f8792610470565b916102e16020610470565b9038611e70565b611fb491611df0611fa992610470565b916102e16040610470565b9038611e4f565b61023093919291611fcf61191d6001610470565b1161206557612003611fe16000610de8565b6001600160a01b0381166001600160a01b03841603612042576103448461214f565b6001600160a01b0384160361201d57506102309150612272565b6001600160a01b03166001600160a01b03831603612039575050565b610230916120c8565b6001600160a01b0385166001600160a01b038416146103445761034484846121a7565b60405162461bcd60e51b815260206004820152603560248201527f455243373231456e756d657261626c653a20636f6e7365637574697665207472604482015274185b9cd9995c9cc81b9bdd081cdd5c1c1bdc9d1959605a1b6064820152608490fd5b6120ed826120f2610230946120ed611a1e956120e381611048565b968791600761103e565b611570565b600861047d565b9160001960089290920291821b911b610f38565b919061211e610246610f7f93610470565b9083546120f9565b90815491600160401b8310156105ac578261214991600161023095018155611a9a565b9061210d565b6102309061216e6009610246612163825490565b6120ed85600a61047d565b612126565b634e487b7160e01b600052601160045260246000fd5b9190820391821161219657565b612173565b6102309160009161210d565b6121f561023092611a1e600093611a17856121f56121d76121c785611048565b6121d16001610470565b90612189565b9560086121e7611080838361047d565b8881036121fa575b5061047d565b61219b565b806120ed886122288c6120ed61222e96611a1e612220611080600795611a1e898861103e565b95869461103e565b8461047d565b386121ef565b634e487b7160e01b600052603160045260246000fd5b8054801561226d57600019019061226a6122648383611a9a565b9061219b565b55565b612234565b6122c06102309161024660006121f560099361228f6121c7865490565b611a1e600a916120ed6122b2611aef6122ab611080888861047d565b938b611a9a565b61222881612149858d611a9a565b61224a565b610230906122d1610e5f565b6122eb610230916118bb6122e482610f5f565b600e610f68565b600c610f68565b610230906122c5565b61023090612307610e5f565b61231361023091610f5f565b600d610f68565b610230906122fb565b60001981146121965760010190565b6102466101406108f6565b9061024990610683565b9061024990610a6f565b634e487b7160e01b600052600060045260246000fd5b818110612372575050565b80612380600060019361219b565b01612367565b9190601f811161239557505050565b6123a761023093600052602060002090565b906020601f8401819004830193106123ca575b6020601f909101045b0190612367565b90915081906123ba565b600019600883021c1916906002021790565b906123ef815190565b9067ffffffffffffffff82116105ac576124138261240d85546104bc565b85612386565b602090601f831160011461244157610f7f929160009183612436575b50506123d4565b01519050388061242f565b601f1983169161245685600052602060002090565b9260005b8181106124945750916002939185600196941061247b575b50505002019055565b01516000196008601f8516021c19169055388080612472565b9193602060018192878701518155019501920161245a565b90610230916123e6565b6102469051610683565b90611760610246610f7f9261068d565b6102469051610a6f565b9061ff009060081b610f38565b906124f7610246610f7f92610a79565b82546124da565b61023091906125cb906101209060089061251a81611641875190565b61253b6001820161253560208801516001600160a01b031690565b90610f68565b6125536002820161254d604088015190565b906124ac565b6125656003820161254d606088015190565b6125776004820161254d608088015190565b6125896005820161254d60a088015190565b61259b6006820161164160c088015190565b6125ad6007820161164160e088015190565b01926125c56125bf61010083016124b6565b856124c0565b016124d0565b906124e7565b90610230916124fe565b939591949092956125ec600f61049c565b966125f688612323565b61260190600f611570565b339660009561260e612332565b976126198b898b0152565b6001600160a01b038a1660208a015260408901526060880152608087015260a086015260c085015260e084015261265490610100840161233d565b612662906101208301612347565b61266d83601161047d565b90612677916125d1565b61268290601261103e565b9061023091612126565b906126a761269b610d4c845490565b92600052602060002090565b9060005b8181106126b85750505090565b9091926126dc6126d56001926126cd8761049c565b815260200190565b9460010190565b9291016126ab565b906102469161268c565b906102306105cb926126ff60405190565b938480926126e4565b610246906126ee565b61272861024691612720606090565b50601261103e565b612708565b67ffffffffffffffff81116105ac5760208091020190565b9061132e6109438361272d565b61275a612332565b906000825260208080808080808080808b01600081520160608152016060815201606081520160608152016000815201600081520160008152016000905250565b610246612752565b60005b8281106127b257505050565b6020906127bd61279b565b81840152016127a6565b906102306127dd6127d784612745565b9361272d565b601f1901602084016127a3565b906127f3825190565b811015611abd576020809102010190565b6102469060081c6105d7565b6102469054612804565b90610230612905600861282b612332565b9461283c6128388261049c565b8752565b61286361285360018301546001600160a01b031690565b6001600160a01b03166020880152565b612879612872600283016105b1565b6040880152565b61288f612888600383016105b1565b6060880152565b6128a561289e600483016105b1565b6080880152565b6128bb6128b4600583016105b1565b60a0880152565b6128d16128ca6006830161049c565b60c0880152565b6128e76128e06007830161049c565b60e0880152565b6128ff6128f58383016105dd565b610100880161233d565b01612810565b6101208401612347565b6102469061281a565b61272861292791612720606090565b612937612932825190565b6127c7565b906129426000610470565b61294d610246835190565b81101561299c576129979061297c612977601161297161296d85886127ea565b5190565b9061047d565b61290f565b61298682866127ea565b5261299181856127ea565b50612323565b612942565b505090565b156129a857565b60405162461bcd60e51b815260206004820152600f60248201526e2737ba103a34329031b932b0ba37b960891b6044820152606490fd5b906129f290600019906020036008021c90565b8154169055565b90600091612a17612a0f82600052602060002090565b9283546123d4565b905555565b9192906020821015612a7457601f8411600114612a3e57610f7f9293506123d4565b5090612a6f610230936001612a66612a5b85600052602060002090565b92601f602091010490565b82019101612367565b6129f9565b50612aad8293612a8b600194600052602060002090565b6123c36020601f860104820192601f861680612ab5575b50601f602091010490565b600202179055565b612ac1908886036129df565b38612aa2565b929091600160401b82116105ac5760201115612b0e576020811015612aef57610f7f916123d4565b60019160ff1916612b0584600052602060002090565b55600202019055565b60019150600202019055565b908154612b26816104bc565b90818311612b4f575b818310612b3d575b50505050565b612b4693612a1c565b38808080612b37565b612b5b83838387612ac7565b612b2f565b8181029291811591840414171561219657565b600061023091612b1a565b90600003612b8f5761023090612b73565b612351565b600090600890612ba4838261219b565b826001820155612bb78360028301612b7e565b612bc48360038301612b7e565b612bd18360048301612b7e565b612bde8360058301612b7e565b612beb836006830161219b565b612bf8836007830161219b565b0155565b90600003612b8f5761023090612b94565b610230906011612c546000612c4f84612c396001612c2b838861047d565b01546001600160a01b031690565b339590611a1e90612c4988610e80565b146129a1565b612bfc565b6012612c67612c63838361103e565b5490565b612c716000610470565b81811015612ce757612c8f611aef82612c8a878761103e565b611a9a565b8514612ca357612c9e90612323565b612c71565b61023094509161129861024693612149612cdc611aef8896612cd6612ccb6122c09b8961103e565b916121d16001610470565b90611a9a565b91612c8a868661103e565b5050505050565b612cf86007611321565b660383934b1b29d160cd1b602082015290565b610246612cee565b612d1d6012611321565b710313637b1b5a330b739a0b2323932b9b99d160751b602082015290565b610246612d13565b905051906102308261031d565b9060208282031261021e5761024691612d43565b15612d6b57565b60405162461bcd60e51b8152602060048201526011602482015270105b1b1bddd85b98d9481b9bdd081cd95d607a1b6044820152606490fd5b90505190610230826108a5565b9060208282031261021e5761024691612da4565b61024990610f5f565b6001600160a01b039091168152606081019392610230929091604091612df8906020830190612dc5565b0152565b15612e0357565b60405162461bcd60e51b815260206004820152600f60248201526e151c985b9cd9995c8819985a5b1959608a1b6044820152606490fd5b612eee60c0612e4d61297784601161047d565b0191612e67612e5a845190565b612e62612d0b565b613a60565b612e8d612e7c600e546001600160a01b031690565b612e87610fc8612d3b565b90613aea565b612ea26118bb600c546001600160a01b031690565b92602063dd62ed3e3395612ecf612eb830610f5f565b92612ec260405190565b9788948593849360e01b90565b83526001600160a01b03808c1660048501521660248301526044820190565b03915afa9283156130285760009361302d575b5080612f3a612f106020935190565b94612f3361191d610246670de0b6b3a764000098612f2d8a610470565b90612b60565b1015612d64565b612f4f6118bb600c546001600160a01b031690565b612f9a6000612f806323b872dd97612f2d612f7a612f75600e546001600160a01b031690565b975190565b91610470565b96612fa6612f8d60405190565b9889968795869460e01b90565b84528b60048501612dce565b03925af191821561302857612fcc92612fc791600091612ffa575b50612dfc565b613112565b90611b3f611b357fdbd06c5b09e89a22b08c07aa17dfc71d3f3741d98ad99285be427c36017340e692610f5f565b61301b915060203d8111613021575b613013818361058a565b810190612db1565b38612fc1565b503d613009565b611860565b602091935061305190823d8111613058575b613049818361058a565b810190612d50565b9290612f01565b503d61303f565b6102466101006108f6565b61023091906131029060e09060079061308581611641875190565b6130a06001820161253560208801516001600160a01b031690565b6130b26002820161254d604088015190565b6130c46003820161254d606088015190565b6130d66004820161254d608088015190565b6130e86005820161254d60a088015190565b6130fa6006820161164160c088015190565b0192016124b6565b906124c0565b906102309161306a565b61311d90601161047d565b6131269061290f565b613130601061049c565b9061313a82612323565b613145906010611570565b60208101516001600160a01b0316906040810151906060810151608082015160a08301519160c08401613176905190565b9361010001613184906124b6565b9461318d61305f565b96613196898952565b6001600160a01b0316602088015260408701526060860152608085015260a084015260c08301526131ca9060e0830161233d565b806131d683601361047d565b906131e091613108565b6131ea82336132cc565b60208101516001600160a01b031690604081015190606081015160808201519060a08301519260e00161321c906124b6565b9361322695613562565b61024690826133a7565b1561323757565b60405162461bcd60e51b815280610e5b600482016020808252818101527f4552433732313a206d696e7420746f20746865207a65726f2061646472657373604082015260600190565b1561328757565b60405162461bcd60e51b815260206004820152601c60248201527f4552433732313a20746f6b656e20616c7265616479206d696e746564000000006044820152606490fd5b906132d76000610de8565b916132f66001600160a01b0384166001600160a01b0383161415613230565b61330e613309613305846117ee565b1590565b613280565b61165161331b6001610470565b61332781858588611fbb565b613336613309613305866117ee565b61164161164784600361103e565b1561334b57565b60405162461bcd60e51b815260206004820152602e60248201527f45524337323155524953746f726167653a2055524920736574206f66206e6f6e60448201526d32bc34b9ba32b73a103a37b5b2b760911b6064820152608490fd5b906133cd906133bd6133b8846117ee565b613344565b6133c883600661047d565b6124ac565b6133fb7ff8e1a15aba9398e019f0b49df1a4fde98ee17ae345cb5f6b5e2c27f5033e8ce79161041a60405190565b0390a1565b610249906001600160a01b031660601b90565b61341f6102499161068d565b60f81b90565b6134ac61352596611c506134e96134ac600199611c506134d46134ac6102469f9c611c506134b96134ac61348a9f61351e9f6135059f6014611c509261348a613483613498946b3d9131b932b0ba37b9111d1160a11b8152600c0190565b8092613400565b01601160f91b815260010190565b67113730b6b2911d1160c11b815260080190565b601160f91b815260010190565b6e113232b9b1b934b83a34b7b7111d1160891b8152600f0190565b681134b6b0b3b2911d1160b91b815260090190565b6f1132bc3a32b93730b62fbab936111d1160811b815260100190565b6c1136b2b234b0aa3cb832911d1160991b8152600d0190565b8092613413565b607d60f81b815260010190565b7f646174613a6170706c69636174696f6e2f6a736f6e3b6261736536342c00000081526102469190601d01611c50565b611cd2610246966135919661358c959661357a606090565b50604051978896602088019687613425565b613623565b61024661359d60405190565b8092611cd2602083019182613532565b6135b76040611321565b7f4142434445464748494a4b4c4d4e4f505152535455565758595a61626364656660208201527f6768696a6b6c6d6e6f707172737475767778797a303132333435363738392b2f604082015290565b6102466135ad565b610246613606565b9190820180921161219657565b805161363261191d6000610470565b14611d355761363f61360e565b90600461364a825190565b90600161368561368061366860029561366287610470565b90613616565b9361367b612f7a600396611df088610470565b612b60565b611d43565b9401926020850193819082518301915b8281106136d057505050510690816001146136c057506002146136b6575090565b6001603d91035390565b905081603d600181940353035390565b84600191979293970191603f828080865194848660121c168901518153018385600c1c16880151815301828460061c168701518153019116840151815301959190613695565b9061023091613723610e5f565b6137c1565b6001600160a01b0390911681526040810192916102309160200152565b6001600160a01b039182168152911660208201526060810192916102309160400152565b1561377057565b60405162461bcd60e51b8152602060048201526024808201527f496e73756666696369656e74204554482062616c616e636520696e20636f6e746044820152631c9858dd60e21b6064820152608490fd5b9060006137d061034482610de8565b6001600160a01b03841603613869576137f56137eb30610f5f565b8390311015613769565b808080846138116118bb6118bb600b546001600160a01b031690565b828215613860575bf115613028577ffff3b3844276f57024e0b42afec1a37f75db36511e43819a4f2a63ab7862b6489061384a33610f5f565b92611b3f61385760405190565b92839283613728565b506108fc613819565b8160206138786118bb86610f5f565b63a9059cbb906138ae85613894600b546001600160a01b031690565b936138b96138a160405190565b9788968795869460e01b90565b845260048401613728565b03925af19081613a18575b501581146139ec576138d86118bb84610f5f565b6342842e0e6138e630610f5f565b600b546001600160a01b031692803b1561021e5761391a8580946139258961390d60405190565b9889978896879560e01b90565b855260048501613745565b03925af190816139c0575b5015146139955760405162461bcd60e51b815260206004820152603060248201527f546f6b656e2074797065206e6f7420737570706f72746564206f7220696e737560448201526f6666696369656e742062616c616e636560801b6064820152608490fd5b7ffff3b3844276f57024e0b42afec1a37f75db36511e43819a4f2a63ab7862b6489061384a33610f5f565b6139df90833d85116139e5575b6139d7818361058a565b81019061027f565b38613930565b503d6139cd565b507ffff3b3844276f57024e0b42afec1a37f75db36511e43819a4f2a63ab7862b6489061384a33610f5f565b613a2f9060203d811161302157613013818361058a565b6138c4565b9061023091613716565b92916020613a5b61023093604087019087820360008901526102ad565b940152565b90613a9c61023092613a8d613a7460405190565b632d839cb360e21b602082015293849260248401613a3e565b6020820181038252038261058a565b60008091613aa8815190565b906020016a636f6e736f6c652e6c6f675afa50565b92916020613ada61023093604087019087820360008901526102ad565b9401906001600160a01b03169052565b90613a9c61023092613a8d613afe60405190565b63319af33360e01b602082015293849260248401613abd56fea2646970667358221220669c1f777afed6071829a866cb8062f6e88db0dd875b51dca4f6b65f52c11b9964736f6c63430008130033",
  "linkReferences": {},
  "deployedLinkReferences": {}
}