{
  "_format": "hh-sol-artifact-1",
  "contractName": "CreatorsNFT",
  "sourceName": "contracts/CreatorsNFT.sol",
  "abi": [
    {
      "inputs": [],
      "stateMutability": "nonpayable",
      "type": "constructor"
    },
    {
      "anonymous": false,
      "inputs": [
        {
          "indexed": true,
          "internalType": "address",
          "name": "owner",
          "type": "address"
        },
        {
          "indexed": true,
          "internalType": "address",
          "name": "approved",
          "type": "address"
        },
        {
          "indexed": true,
          "internalType": "uint256",
          "name": "tokenId",
          "type": "uint256"
        }
      ],
      "name": "Approval",
      "type": "event"
    },
    {
      "anonymous": false,
      "inputs": [
        {
          "indexed": true,
          "internalType": "address",
          "name": "owner",
          "type": "address"
        },
        {
          "indexed": true,
          "internalType": "address",
          "name": "operator",
          "type": "address"
        },
        {
          "indexed": false,
          "internalType": "bool",
          "name": "approved",
          "type": "bool"
        }
      ],
      "name": "ApprovalForAll",
      "type": "event"
    },
    {
      "anonymous": false,
      "inputs": [
        {
          "indexed": false,
          "internalType": "uint256",
          "name": "_fromTokenId",
          "type": "uint256"
        },
        {
          "indexed": false,
          "internalType": "uint256",
          "name": "_toTokenId",
          "type": "uint256"
        }
      ],
      "name": "BatchMetadataUpdate",
      "type": "event"
    },
    {
      "anonymous": false,
      "inputs": [
        {
          "indexed": false,
          "internalType": "uint256",
          "name": "_tokenId",
          "type": "uint256"
        }
      ],
      "name": "MetadataUpdate",
      "type": "event"
    },
    {
      "anonymous": false,
      "inputs": [
        {
          "indexed": true,
          "internalType": "address",
          "name": "buyer",
          "type": "address"
        },
        {
          "indexed": false,
          "internalType": "uint256",
          "name": "nftId",
          "type": "uint256"
        }
      ],
      "name": "NFTTransferred",
      "type": "event"
    },
    {
      "anonymous": false,
      "inputs": [
        {
          "indexed": true,
          "internalType": "address",
          "name": "previousOwner",
          "type": "address"
        },
        {
          "indexed": true,
          "internalType": "address",
          "name": "newOwner",
          "type": "address"
        }
      ],
      "name": "OwnershipTransferred",
      "type": "event"
    },
    {
      "anonymous": false,
      "inputs": [
        {
          "indexed": true,
          "internalType": "address",
          "name": "from",
          "type": "address"
        },
        {
          "indexed": false,
          "internalType": "uint256",
          "name": "amount",
          "type": "uint256"
        }
      ],
      "name": "Received",
      "type": "event"
    },
    {
      "anonymous": false,
      "inputs": [
        {
          "indexed": true,
          "internalType": "address",
          "name": "sender",
          "type": "address"
        },
        {
          "indexed": false,
          "internalType": "address",
          "name": "tokenAddress",
          "type": "address"
        },
        {
          "indexed": false,
          "internalType": "uint256",
          "name": "amountOrTokenId",
          "type": "uint256"
        }
      ],
      "name": "Recovered",
      "type": "event"
    },
    {
      "anonymous": false,
      "inputs": [
        {
          "indexed": true,
          "internalType": "address",
          "name": "from",
          "type": "address"
        },
        {
          "indexed": true,
          "internalType": "address",
          "name": "to",
          "type": "address"
        },
        {
          "indexed": true,
          "internalType": "uint256",
          "name": "tokenId",
          "type": "uint256"
        }
      ],
      "name": "Transfer",
      "type": "event"
    },
    {
      "stateMutability": "payable",
      "type": "fallback"
    },
    {
      "inputs": [
        {
          "internalType": "address",
          "name": "to",
          "type": "address"
        },
        {
          "internalType": "uint256",
          "name": "tokenId",
          "type": "uint256"
        }
      ],
      "name": "approve",
      "outputs": [],
      "stateMutability": "nonpayable",
      "type": "function"
    },
    {
      "inputs": [
        {
          "internalType": "address",
          "name": "owner",
          "type": "address"
        }
      ],
      "name": "balanceOf",
      "outputs": [
        {
          "internalType": "uint256",
          "name": "",
          "type": "uint256"
        }
      ],
      "stateMutability": "view",
      "type": "function"
    },
    {
      "inputs": [
        {
          "internalType": "uint256",
          "name": "sourceId",
          "type": "uint256"
        }
      ],
      "name": "buyNFT",
      "outputs": [],
      "stateMutability": "nonpayable",
      "type": "function"
    },
    {
      "inputs": [
        {
          "internalType": "uint256",
          "name": "sourceId",
          "type": "uint256"
        }
      ],
      "name": "deleteNFTSource",
      "outputs": [],
      "stateMutability": "nonpayable",
      "type": "function"
    },
    {
      "inputs": [
        {
          "internalType": "uint256",
          "name": "tokenId",
          "type": "uint256"
        }
      ],
      "name": "getApproved",
      "outputs": [
        {
          "internalType": "address",
          "name": "",
          "type": "address"
        }
      ],
      "stateMutability": "view",
      "type": "function"
    },
    {
      "inputs": [
        {
          "internalType": "address",
          "name": "creator",
          "type": "address"
        }
      ],
      "name": "getNFTDetailsByCreator",
      "outputs": [
        {
          "components": [
            {
              "internalType": "uint256",
              "name": "sourceId",
              "type": "uint256"
            },
            {
              "internalType": "address",
              "name": "creator",
              "type": "address"
            },
            {
              "internalType": "string",
              "name": "name",
              "type": "string"
            },
            {
              "internalType": "string",
              "name": "description",
              "type": "string"
            },
            {
              "internalType": "string",
              "name": "image",
              "type": "string"
            },
            {
              "internalType": "string",
              "name": "external_url",
              "type": "string"
            },
            {
              "internalType": "uint256",
              "name": "price",
              "type": "uint256"
            },
            {
              "internalType": "uint256",
              "name": "units",
              "type": "uint256"
            },
            {
              "internalType": "enum NFTSource.MediaType",
              "name": "mediaType",
              "type": "uint8"
            },
            {
              "internalType": "enum NFTSource.Status",
              "name": "status",
              "type": "uint8"
            }
          ],
          "internalType": "struct NFTSource.Detail[]",
          "name": "",
          "type": "tuple[]"
        }
      ],
      "stateMutability": "view",
      "type": "function"
    },
    {
      "inputs": [
        {
          "internalType": "address",
          "name": "creator",
          "type": "address"
        }
      ],
      "name": "getNFTsByCreator",
      "outputs": [
        {
          "internalType": "uint256[]",
          "name": "",
          "type": "uint256[]"
        }
      ],
      "stateMutability": "view",
      "type": "function"
    },
    {
      "inputs": [
        {
          "internalType": "uint256",
          "name": "tokenId",
          "type": "uint256"
        }
      ],
      "name": "getSoldUnitsPerSource",
      "outputs": [
        {
          "internalType": "uint256",
          "name": "",
          "type": "uint256"
        }
      ],
      "stateMutability": "view",
      "type": "function"
    },
    {
      "inputs": [
        {
          "internalType": "address",
          "name": "owner",
          "type": "address"
        },
        {
          "internalType": "address",
          "name": "operator",
          "type": "address"
        }
      ],
      "name": "isApprovedForAll",
      "outputs": [
        {
          "internalType": "bool",
          "name": "",
          "type": "bool"
        }
      ],
      "stateMutability": "view",
      "type": "function"
    },
    {
      "inputs": [],
      "name": "name",
      "outputs": [
        {
          "internalType": "string",
          "name": "",
          "type": "string"
        }
      ],
      "stateMutability": "view",
      "type": "function"
    },
    {
      "inputs": [],
      "name": "nextNFTId",
      "outputs": [
        {
          "internalType": "uint256",
          "name": "",
          "type": "uint256"
        }
      ],
      "stateMutability": "view",
      "type": "function"
    },
    {
      "inputs": [],
      "name": "nextSourceId",
      "outputs": [
        {
          "internalType": "uint256",
          "name": "",
          "type": "uint256"
        }
      ],
      "stateMutability": "view",
      "type": "function"
    },
    {
      "inputs": [
        {
          "internalType": "uint256",
          "name": "",
          "type": "uint256"
        }
      ],
      "name": "nfts",
      "outputs": [
        {
          "internalType": "uint256",
          "name": "tokenId",
          "type": "uint256"
        },
        {
          "internalType": "address",
          "name": "creator",
          "type": "address"
        },
        {
          "internalType": "string",
          "name": "name",
          "type": "string"
        },
        {
          "internalType": "string",
          "name": "description",
          "type": "string"
        },
        {
          "internalType": "string",
          "name": "image",
          "type": "string"
        },
        {
          "internalType": "string",
          "name": "external_url",
          "type": "string"
        },
        {
          "internalType": "uint256",
          "name": "price",
          "type": "uint256"
        },
        {
          "internalType": "enum NFTSource.MediaType",
          "name": "mediaType",
          "type": "uint8"
        }
      ],
      "stateMutability": "view",
      "type": "function"
    },
    {
      "inputs": [],
      "name": "owner",
      "outputs": [
        {
          "internalType": "address",
          "name": "",
          "type": "address"
        }
      ],
      "stateMutability": "view",
      "type": "function"
    },
    {
      "inputs": [
        {
          "internalType": "uint256",
          "name": "tokenId",
          "type": "uint256"
        }
      ],
      "name": "ownerOf",
      "outputs": [
        {
          "internalType": "address",
          "name": "",
          "type": "address"
        }
      ],
      "stateMutability": "view",
      "type": "function"
    },
    {
      "inputs": [
        {
          "internalType": "uint256",
          "name": "sourceId",
          "type": "uint256"
        }
      ],
      "name": "permanentDeleteNFTSource",
      "outputs": [],
      "stateMutability": "nonpayable",
      "type": "function"
    },
    {
      "inputs": [],
      "name": "renounceOwnership",
      "outputs": [],
      "stateMutability": "nonpayable",
      "type": "function"
    },
    {
      "inputs": [
        {
          "internalType": "uint256",
          "name": "sourceId",
          "type": "uint256"
        }
      ],
      "name": "restoreNFTSource",
      "outputs": [],
      "stateMutability": "nonpayable",
      "type": "function"
    },
    {
      "inputs": [
        {
          "internalType": "address",
          "name": "from",
          "type": "address"
        },
        {
          "internalType": "address",
          "name": "to",
          "type": "address"
        },
        {
          "internalType": "uint256",
          "name": "tokenId",
          "type": "uint256"
        }
      ],
      "name": "safeTransferFrom",
      "outputs": [],
      "stateMutability": "nonpayable",
      "type": "function"
    },
    {
      "inputs": [
        {
          "internalType": "address",
          "name": "from",
          "type": "address"
        },
        {
          "internalType": "address",
          "name": "to",
          "type": "address"
        },
        {
          "internalType": "uint256",
          "name": "tokenId",
          "type": "uint256"
        },
        {
          "internalType": "bytes",
          "name": "data",
          "type": "bytes"
        }
      ],
      "name": "safeTransferFrom",
      "outputs": [],
      "stateMutability": "nonpayable",
      "type": "function"
    },
    {
      "inputs": [
        {
          "internalType": "address",
          "name": "operator",
          "type": "address"
        },
        {
          "internalType": "bool",
          "name": "approved",
          "type": "bool"
        }
      ],
      "name": "setApprovalForAll",
      "outputs": [],
      "stateMutability": "nonpayable",
      "type": "function"
    },
    {
      "inputs": [
        {
          "internalType": "address",
          "name": "blockFans",
          "type": "address"
        }
      ],
      "name": "setBlockFans",
      "outputs": [],
      "stateMutability": "nonpayable",
      "type": "function"
    },
    {
      "inputs": [
        {
          "internalType": "address",
          "name": "creatorsAddress",
          "type": "address"
        }
      ],
      "name": "setCreators",
      "outputs": [],
      "stateMutability": "nonpayable",
      "type": "function"
    },
    {
      "inputs": [
        {
          "internalType": "string",
          "name": "name",
          "type": "string"
        },
        {
          "internalType": "string",
          "name": "description",
          "type": "string"
        },
        {
          "internalType": "string",
          "name": "image",
          "type": "string"
        },
        {
          "internalType": "string",
          "name": "external_url",
          "type": "string"
        },
        {
          "internalType": "uint256",
          "name": "price",
          "type": "uint256"
        },
        {
          "internalType": "uint256",
          "name": "units",
          "type": "uint256"
        },
        {
          "internalType": "enum NFTSource.MediaType",
          "name": "mediaType",
          "type": "uint8"
        }
      ],
      "name": "setNFTSource",
      "outputs": [],
      "stateMutability": "nonpayable",
      "type": "function"
    },
    {
      "inputs": [
        {
          "internalType": "bytes4",
          "name": "interfaceId",
          "type": "bytes4"
        }
      ],
      "name": "supportsInterface",
      "outputs": [
        {
          "internalType": "bool",
          "name": "",
          "type": "bool"
        }
      ],
      "stateMutability": "view",
      "type": "function"
    },
    {
      "inputs": [],
      "name": "symbol",
      "outputs": [
        {
          "internalType": "string",
          "name": "",
          "type": "string"
        }
      ],
      "stateMutability": "view",
      "type": "function"
    },
    {
      "inputs": [
        {
          "internalType": "uint256",
          "name": "index",
          "type": "uint256"
        }
      ],
      "name": "tokenByIndex",
      "outputs": [
        {
          "internalType": "uint256",
          "name": "",
          "type": "uint256"
        }
      ],
      "stateMutability": "view",
      "type": "function"
    },
    {
      "inputs": [
        {
          "internalType": "address",
          "name": "owner",
          "type": "address"
        },
        {
          "internalType": "uint256",
          "name": "index",
          "type": "uint256"
        }
      ],
      "name": "tokenOfOwnerByIndex",
      "outputs": [
        {
          "internalType": "uint256",
          "name": "",
          "type": "uint256"
        }
      ],
      "stateMutability": "view",
      "type": "function"
    },
    {
      "inputs": [
        {
          "internalType": "uint256",
          "name": "tokenId",
          "type": "uint256"
        }
      ],
      "name": "tokenURI",
      "outputs": [
        {
          "internalType": "string",
          "name": "",
          "type": "string"
        }
      ],
      "stateMutability": "view",
      "type": "function"
    },
    {
      "inputs": [],
      "name": "totalSupply",
      "outputs": [
        {
          "internalType": "uint256",
          "name": "",
          "type": "uint256"
        }
      ],
      "stateMutability": "view",
      "type": "function"
    },
    {
      "inputs": [
        {
          "internalType": "address",
          "name": "from",
          "type": "address"
        },
        {
          "internalType": "address",
          "name": "to",
          "type": "address"
        },
        {
          "internalType": "uint256",
          "name": "tokenId",
          "type": "uint256"
        }
      ],
      "name": "transferFrom",
      "outputs": [],
      "stateMutability": "nonpayable",
      "type": "function"
    },
    {
      "inputs": [
        {
          "internalType": "address",
          "name": "newOwner",
          "type": "address"
        }
      ],
      "name": "transferOwnership",
      "outputs": [],
      "stateMutability": "nonpayable",
      "type": "function"
    },
    {
      "inputs": [
        {
          "internalType": "address",
          "name": "tokenAddress",
          "type": "address"
        },
        {
          "internalType": "uint256",
          "name": "amountOrTokenId",
          "type": "uint256"
        }
      ],
      "name": "withdraw",
      "outputs": [],
      "stateMutability": "nonpayable",
      "type": "function"
    },
    {
      "stateMutability": "payable",
      "type": "receive"
    }
  ],
  "bytecode": "0x608060405234620000265762000014620001cf565b604051613ce0620005008239613ce090f35b600080fd5b634e487b7160e01b600052604160045260246000fd5b90601f01601f191681019081106001600160401b038211176200006357604052565b6200002b565b90620000806200007860405190565b928362000041565b565b6001600160401b0381116200006357602090601f01601f19160190565b90620000b5620000af8362000082565b62000069565b918252565b620000c6600c6200009f565b6b109b1bd8dad9985b9cd3919560a21b602082015290565b620000e8620000ba565b90565b620000f760036200009f565b6221232760e91b602082015290565b620000e8620000eb565b90600019905b9181191691161790565b620000e8620000e8620000e89290565b9062000144620000e86200014c9262000120565b825462000110565b9055565b62000160620000e8620000e89290565b6001600160a01b031690565b620000e89062000150565b620000e89062000160906001600160a01b031682565b620000e89062000177565b620000e8906200018d565b906001600160a01b039062000116565b90620001c7620000e86200014c9262000198565b8254620001a3565b620001ee620001dd620000de565b620001e762000106565b9062000259565b6200020960016200020181600f62000130565b601062000130565b62000080620002516200021d60006200016c565b620002346200022c8262000198565b600e620001b3565b6200024b620002438262000198565b600c620001b3565b62000198565b600d620001b3565b6200008091620002699162000274565b62000080336200049d565b620000809182918291906200046c565b634e487b7160e01b600052602260045260246000fd5b9060016002830492168015620002bd575b6020831014620002b757565b62000284565b91607f1691620002ab565b9160001960089290920291821b911b62000116565b9190620002f2620000e86200014c9362000120565b908354620002c8565b6200008091600091620002dd565b81811062000315575050565b80620003256000600193620002fb565b0162000309565b9190601f81116200033c57505050565b620003506200008093600052602060002090565b906020601f84018190048301931062000374575b6020601f90910104019062000309565b909150819062000364565b9062000389815190565b906001600160401b0382116200006357620003b182620003aa85546200029a565b856200032c565b602090601f8311600114620003f0576200014c929160009183620003e4575b5050600019600883021c1916906002021790565b015190503880620003d0565b601f198316916200040685600052602060002090565b9260005b81811062000447575091600293918560019694106200042d575b50505002019055565b01516000196008601f8516021c1916905538808062000424565b919360206001819287870151815501950192016200040a565b9062000080916200037f565b906200047e6200008092600062000460565b600162000460565b620000e89062000160565b620000e8905462000486565b620004a9600b62000491565b90620004b781600b620001b3565b620004ee620004e77f8be0079c531659141344cd1fd0a4f28419497f9722a3daafe3b4186f6b6457e09362000198565b9162000198565b91620004f960405190565b600090a356fe60806040526004361015610026575b361561001e5761001c611b5c565b005b61001c611b5c565b60003560e01c806301ffc9a71461023657806306b177fc1461023157806306fdde031461022c578063081812fc14610227578063095ea7b31461022257806315b684cf1461021d57806318160ddd1461021857806323b872dd14610213578063265aa6211461020e5780632f745c59146102095780633617d7cd1461020457806342842e0e146101ff5780634f6ccce7146101fa57806351ed8288146101f55780636352211e146101f057806370a08231146101eb578063715018a6146101e65780638af462cc146101e15780638da5cb5b146101dc578063926061f0146101d757806395d89b41146101d2578063a22cb465146101cd578063abd48199146101c8578063af2217cd146101c3578063b88d4fde146101be578063ba908b45146101b9578063c87b56dd146101b4578063c909adc0146101af578063e985e9c5146101aa578063f2fde38b146101a5578063f3fef3a3146101a0578063fa3157d51461019b5763ffa038210361000e57610df9565b610d7a565b610d61565b610d49565b610d2d565b610cef565b610cc8565b610cb0565b610c94565b610c1d565b610ac1565b610958565b610905565b6108ea565b6108a3565b61088b565b610873565b610858565b610829565b610811565b6107f6565b6107dd565b6107c5565b6107a9565b610772565b6104a2565b610456565b61043e565b610420565b6103ac565b610379565b6102d6565b61027d565b6001600160e01b031981165b0361024e57565b600080fd5b905035906102608261023b565b565b9060208282031261024e5761027691610253565b90565b9052565b3461024e576102ab610298610293366004610262565b611b99565b6040515b91829182901515815260200190565b0390f35b80610247565b90503590610260826102af565b9060208282031261024e57610276916102b5565b3461024e576102ab6102f16102ec3660046102c2565b612ad5565b6040515b9182918290815260200190565b600091031261024e57565b60005b8381106103205750506000910152565b8181015183820152602001610310565b61035161035a60209361036493610345815190565b80835293849260200190565b9586910161030d565b601f01601f191690565b0190565b602080825261027692910190610330565b3461024e57610389366004610302565b6102ab61039461115d565b60405191829182610368565b6001600160a01b031690565b3461024e576102ab6103c76103c23660046102c2565b61129a565b604051918291826001600160a01b03909116815260200190565b6001600160a01b038116610247565b90503590610260826103e1565b919060408382031261024e576102769061041781856103f0565b936020016102b5565b3461024e576104396104333660046103fd565b90611239565b604051005b3461024e576104396104513660046102c2565b612b66565b3461024e57610466366004610302565b6102ab6102f160095490565b909160608284031261024e5761027661048b84846103f0565b9361049981602086016103f0565b936040016102b5565b3461024e576104396104b5366004610472565b91611359565b6102766102766102769290565b906104d2906104bb565b600052602052604060002090565b6102769081565b61027690546104e0565b634e487b7160e01b600052602260045260246000fd5b9060016002830492168015610527575b602083101461052257565b6104f1565b91607f1691610517565b8054600093929161054e61054483610507565b8085529360200190565b91600181169081156105a0575060011461056757505050565b61057a9192939450600052602060002090565b916000925b81841061058c5750500190565b80548484015260209093019260010161057f565b92949550505060ff1916825215156020020190565b9061027691610531565b634e487b7160e01b600052604160045260246000fd5b90601f01601f1916810190811067ffffffffffffffff8211176105f757604052565b6105bf565b906102606106169261060d60405190565b938480926105b5565b03836105d5565b610276905b60ff1690565b610276905461061d565b61063d9060136104c8565b90610647826104e7565b9161065c60018201546001600160a01b031690565b91610669600283016105fc565b91610676600382016105fc565b91610683600483016105fc565b91610690600582016105fc565b9161027660076106a2600685016104e7565b9301610628565b634e487b7160e01b600052602160045260246000fd5b600611156106c957565b6106a9565b90610260826106bf565b610276906106ce565b610279906106d8565b9360e095610747610755926107398861076b986102609d9f9e9c976107639961071c61072c9260006101008701960152565b6001600160a01b031660208d0152565b8a820360408c0152610330565b9088820360608a0152610330565b908682036080880152610330565b9084820360a0860152610330565b9660c0830152565b01906106e1565b3461024e576102ab61078d6107883660046102c2565b610632565b946107a098969894919493929360405190565b988998896106ea565b3461024e576102ab6102f16107bf3660046103fd565b90611a42565b3461024e576104396107d83660046102c2565b612f28565b3461024e576104396107f0366004610472565b9161139a565b3461024e576102ab6102f161080c3660046102c2565b611b17565b3461024e576104396108243660046102c2565b61305b565b3461024e576102ab6103c761083f3660046102c2565b611126565b9060208282031261024e57610276916103f0565b3461024e576102ab6102f161086e366004610844565b61109d565b3461024e57610883366004610302565b610439610e58565b3461024e5761043961089e3660046102c2565b612e36565b3461024e576108b3366004610302565b6102ab6103c7600b546001600160a01b031690565b610276916008021c81565b9061027691546108c8565b6102766000600f6108d3565b3461024e576108fa366004610302565b6102ab6102f16108de565b3461024e57610915366004610302565b6102ab610394611167565b801515610247565b9050359061026082610920565b919060408382031261024e576102769061094f81856103f0565b93602001610928565b3461024e5761043961096b366004610935565b906112c7565b9061026061097e60405190565b92836105d5565b67ffffffffffffffff81116105f757602090601f01601f19160190565b90826000939282370152565b909291926109c36109be82610985565b610971565b9381855260208501908284011161024e57610260926109a2565b9080601f8301121561024e57816020610276933591016109ae565b6006111561024e57565b90503590610260826109f8565b60e08183031261024e57803567ffffffffffffffff811161024e5782610a369183016109dd565b92602082013567ffffffffffffffff811161024e5783610a579184016109dd565b92604083013567ffffffffffffffff811161024e5781610a789185016109dd565b92606081013567ffffffffffffffff811161024e5782610a999183016109dd565b92610276610aaa84608085016102b5565b93610ab88160a086016102b5565b9360c001610a02565b3461024e57610439610ad4366004610a0f565b95949094939193612679565b805182526020808201516001600160a01b031690830152906102769061012080610b59610b47610b35610b23610140870160408a015188820360408a0152610330565b60608901518782036060890152610330565b60808801518682036080880152610330565b60a087015185820360a0870152610330565b94610b6960c082015160c0860152565b610b7860e082015160e0860152565b610b8c6101008201516101008601906106e1565b01519101906106e1565b9061027691610ae0565b90610bb6610bac835190565b8083529160200190565b9081610bc86020830284019460200190565b926000915b838310610bdc57505050505090565b90919293946020610bff610bf883856001950387528951610b96565b9760200190565b9301930191939290610bcd565b602080825261027692910190610ba0565b3461024e576102ab610c38610c33366004610844565b612a4c565b60405191829182610c0c565b9060808282031261024e57610c5981836103f0565b92610c6782602085016103f0565b92610c7583604083016102b5565b92606082013567ffffffffffffffff811161024e5761027692016109dd565b3461024e57610439610ca7366004610c44565b929190916113aa565b3461024e57610439610cc3366004610844565b612347565b3461024e576102ab610394610cde3660046102c2565b611c6d565b610276600060106108d3565b3461024e57610cff366004610302565b6102ab6102f1610ce3565b919060408382031261024e5761027690610d2481856103f0565b936020016103f0565b3461024e576102ab610298610d43366004610d0a565b906112d2565b3461024e57610439610d5c366004610844565b610f79565b3461024e57610439610d743660046103fd565b90613ca0565b3461024e57610439610d8d366004610844565b61236f565b90610db2610dab610da1845190565b8084529260200190565b9260200190565b9060005b818110610dc35750505090565b909192610de0610dd96001928651815260200190565b9460200190565b929101610db6565b602080825261027692910190610d92565b3461024e576102ab610e14610e0f366004610844565b612845565b60405191829182610de8565b610e28610eb4565b610260610e46565b6103a06102766102769290565b61027690610e30565b610260610e536000610e3d565b610fd8565b610260610e20565b15610e6757565b60405162461bcd60e51b815280610eb0600482016020808252818101527f4f776e61626c653a2063616c6c6572206973206e6f7420746865206f776e6572604082015260600190565b0390fd5b610260610ec9600b546001600160a01b031690565b610ee2610ed5336103a0565b916001600160a01b031690565b14610e60565b61026090610ef4610eb4565b610f54565b15610f0057565b60405162461bcd60e51b815260206004820152602660248201527f4f776e61626c653a206e6577206f776e657220697320746865207a65726f206160448201526564647265737360d01b6064820152608490fd5b61026090610e53610f686103a06000610e3d565b6001600160a01b0383161415610ef9565b61026090610ee8565b906001600160a01b03905b9181191691161790565b610276906103a0906001600160a01b031682565b61027690610f97565b61027690610fab565b90610fcd610276610fd492610fb4565b8254610f82565b9055565b600b546001600160a01b031690610ff081600b610fbd565b61102361101d7f8be0079c531659141344cd1fd0a4f28419497f9722a3daafe3b4186f6b6457e093610fb4565b91610fb4565b9161102d60405190565b80805b0390a3565b1561103c57565b60405162461bcd60e51b815260206004820152602960248201527f4552433732313a2061646472657373207a65726f206973206e6f7420612076616044820152683634b21037bbb732b960b91b6064820152608490fd5b906104d290610fb4565b6110d5610276916110ac600090565b506110ce6110bd6103a06000610e3d565b6001600160a01b0383161415611035565b6003611093565b6104e7565b156110e157565b60405162461bcd60e51b815260206004820152601860248201527f4552433732313a20696e76616c696420746f6b656e20494400000000000000006044820152606490fd5b6111339060005b5061144a565b6102766111436103a06000610e3d565b6001600160a01b03831614156110da565b610276906105fc565b6102766000611154565b6102766001611154565b1561117857565b60405162461bcd60e51b815260206004820152602160248201527f4552433732313a20617070726f76616c20746f2063757272656e74206f776e656044820152603960f91b6064820152608490fd5b156111ce57565b60405162461bcd60e51b815260206004820152603d60248201527f4552433732313a20617070726f76652063616c6c6572206973206e6f7420746f60448201527f6b656e206f776e6572206f7220617070726f76656420666f7220616c6c0000006064820152608490fd5b906102609161128461124a83611126565b6112686001600160a01b0382166001600160a01b0385161415611171565b336001600160a01b0382168114918215611289575b50506111c7565b611706565b61129392506112d2565b388061127d565b6112ba610276916112a9600090565b506112b381611832565b60046104c8565b546001600160a01b031690565b6102609190336117bc565b610276916112ed6112f2926112e5600090565b506005611093565b611093565b610628565b156112fe57565b60405162461bcd60e51b815260206004820152602d60248201527f4552433732313a2063616c6c6572206973206e6f7420746f6b656e206f776e6560448201526c1c881bdc88185c1c1c9bdd9959609a1b6064820152608490fd5b61026092919061137161136c8433611461565b6112f7565b6115dc565b906113836109be83610985565b918252565b6102766000611376565b610276611388565b9091610260926113a8611392565b925b610260939291906113be61136c8433611461565b61142b565b156113ca57565b6040515b62461bcd60e51b815260206004820152603260248201527f4552433732313a207472616e7366657220746f206e6f6e20455243373231526560448201527131b2b4bb32b91034b6b83632b6b2b73a32b960711b6064820152608490fd5b916102609391611445936114408383836115dc565b6118e0565b6113c3565b6112ba61027691611459600090565b5060026104c8565b61146a82611126565b916001600160a01b0383166001600160a01b038316149283156114b7575b50821561149457505090565b6114b39192506114a6610ed59161129a565b926001600160a01b031690565b1490565b6114c491935082906112d2565b9138611488565b156114d257565b60405162461bcd60e51b815260206004820152602560248201527f4552433732313a207472616e736665722066726f6d20696e636f72726563742060448201526437bbb732b960d91b6064820152608490fd5b1561152c57565b60405162461bcd60e51b8152602060048201526024808201527f4552433732313a207472616e7366657220746f20746865207a65726f206164646044820152637265737360e01b6064820152608490fd5b916001600160a01b0360089290920291821b911b610f8d565b91906115a7610276610fd493610fb4565b90835461157d565b61026091600091611596565b9060001990610f8d565b906115d5610276610fd4926104bb565b82546115bb565b91906116026115ea83611126565b6115fc6001600160a01b038616610ed5565b146114cb565b6116a660006116276116166103a083610e3d565b6001600160a01b0385161415611525565b61166f61163460016104bb565b916116418387878a612010565b61165f61164d87611126565b6115fc6001600160a01b038a16610ed5565b61166a8660046104c8565b6115af565b61169661169c8460036112ed6116858a83611093565b61169687611692836104e7565b0390565b906115c5565b91610364836104e7565b6116ba816116b58460026104c8565b610fbd565b6116f66116f06116ea7fddf252ad1be2c89b69c2b068fc378daa952ba7f163c4a11628f55a4df523b3ef95610fb4565b92610fb4565b926104bb565b9261170060405190565b600090a4565b90611716826116b58360046104c8565b61171f81611126565b916116f66116f06116ea7f8c5be1e5ebec7d5bd14f71427d1e84f3dd0314c0f7b2291e5b200ac8c7c3b92595610fb4565b1561175757565b60405162461bcd60e51b815260206004820152601960248201527f4552433732313a20617070726f766520746f2063616c6c6572000000000000006044820152606490fd5b9060ff90610f8d565b906117b5610276610fd492151590565b825461179c565b6117da6001600160a01b0383166001600160a01b0383161415611750565b6117f2836117ed846112ed856005611093565b6117a5565b6110306118286118227f17307eab39ab6107e8899845ad3d59bd9653f200f220920489ca2b5937696c3193610fb4565b93610fb4565b9361029c60405190565b61183e61026091611843565b6110da565b61184e90600061112d565b61185e610ed56103a06000610e3d565b141590565b905051906102608261023b565b9060208282031261024e5761027691611863565b6001600160a01b03918216815291166020820152604081019190915260806060820181905261027692910190610330565b6040513d6000823e3d90fd5b3d156118db576118d03d611376565b903d6000602084013e565b606090565b919093926118ec600090565b946118f681611b4a565b156119d8579061193d600061191561191060209695610fb4565b610fb4565b9261194863150b7a02916119263390565b9661193060405190565b998a988997889660e01b90565b865260048601611884565b03925af1600091816119a8575b5061198b57506119636118c1565b805161197661197260006104bb565b9190565b03611983576040516113ce565b805190602001fd5b9091506114b3630a85bd0160e11b5b916001600160e01b03191690565b6119ca91925060203d81116119d1575b6119c281836105d5565b810190611870565b9038611955565b503d6119b8565b5060019450505050565b156119e957565b60405162461bcd60e51b815260206004820152602b60248201527f455243373231456e756d657261626c653a206f776e657220696e646578206f7560448201526a74206f6620626f756e647360a81b6064820152608490fd5b61027691611a736110d592611a55600090565b50611a6c611a656102768361109d565b84106119e2565b6007611093565b6104c8565b15611a7f57565b60405162461bcd60e51b815260206004820152602c60248201527f455243373231456e756d657261626c653a20676c6f62616c20696e646578206f60448201526b7574206f6620626f756e647360a01b6064820152608490fd5b634e487b7160e01b600052603260045260246000fd5b8054821015611b1257611b09600191600052602060002090565b91020190600090565b611ad9565b611b4461027691611b26600090565b50611b3d611b3661027660095490565b8210611a78565b6009611aef565b906108d3565b3b611b5861197260006104bb565b1190565b347f88a5966d370b9919b20f3e2c13ff65706f196a4e32cc2c12bf57088f88525874611b94611b8a33610fb4565b926102f560405190565b0390a2565b6102769063780e9d6360e01b6001600160e01b0319821614908115611bbc575090565b6102769150611be6565b611bd9611bd36102769290565b60e01b90565b6001600160e01b03191690565b611bf6611bd96349064906611bc6565b6001600160e01b0319821614908115611c0d575090565b61027691506380ac58cd60e01b6001600160e01b0319821614908115611c42575b8115611c38575090565b6102769150611c5d565b6001600160e01b03198116635b5e139f60e01b149150611c2e565b6114b36301ffc9a760e01b61199a565b61027690611cab565b610364611c8e92602092611c88815190565b94859290565b9384910161030d565b611ca5906102769392611c76565b90611c76565b611cb481611832565b611cc7611cc28260066104c8565b611154565b611ccf611d87565b8051600090611ce0611972836104bb565b14611d3357611cf36119726116f0855190565b11611d0357505061027690611d3a565b6102769250611d279161027691611d1960405190565b938492602084019283611c97565b908103825203826105d5565b5050905090565b611d4381611832565b611d4b611d87565b8051611d5a61197260006104bb565b1115611d7d57610276611d2791611d7361027694611de0565b90611d1960405190565b5050610276611392565b60605b50610276611392565b369037565b90610260611dae611da884611376565b93610985565b601f190160208401611d93565b634e487b7160e01b600052601260045260246000fd5b8115611ddb570490565b611dbb565b611de981611e6c565b90611df9600192610364846104bb565b9180611e0484611d98565b936020018401905b611e17575b50505090565b611e4b9060001901926f181899199a1a9b1b9c1cb0b131b232b360811b600a82061a8453611e45600a6104bb565b90611dd1565b9081611e5a61197260006104bb565b14611e6757909181611e0c565b611e11565b611e7660006104bb565b907a184f03e93ff9f4daa797ed6e38ed64bf6a1f010000000000000000611e9c816104bb565b821015611fee575b506d04ee2d6d415b85acef8100000000611ebd816104bb565b821015611fcc575b50662386f26fc10000611ed7816104bb565b821015611faa575b506305f5e100611eee816104bb565b821015611f88575b50612710611f03816104bb565b821015611f66575b506064611f17816104bb565b821015611f44575b50611f2d611972600a6104bb565b1015611f365790565b6102769061036460016104bb565b611f5f91611e45611f54926104bb565b9161036460026104bb565b9038611f1f565b611f8191611e45611f76926104bb565b9161036460046104bb565b9038611f0b565b611fa391611e45611f98926104bb565b9161036460086104bb565b9038611ef6565b611fc591611e45611fba926104bb565b9161036460106104bb565b9038611edf565b611fe791611e45611fdc926104bb565b9161036460206104bb565b9038611ec5565b61200991611e45611ffe926104bb565b9161036460406104bb565b9038611ea4565b6102609391929161202461197260016104bb565b116120ba576120586120366000610e3d565b6001600160a01b0381166001600160a01b03841603612097576103a0846121a4565b6001600160a01b03841603612072575061026091506122c7565b6001600160a01b03166001600160a01b0383160361208e575050565b6102609161211d565b6001600160a01b0385166001600160a01b038416146103a0576103a084846121fc565b60405162461bcd60e51b815260206004820152603560248201527f455243373231456e756d657261626c653a20636f6e7365637574697665207472604482015274185b9cd9995c9cc81b9bdd081cdd5c1c1bdc9d1959605a1b6064820152608490fd5b6121428261214761026094612142611a73956121388161109d565b9687916007611093565b6115c5565b60086104c8565b9160001960089290920291821b911b610f8d565b9190612173610276610fd4936104bb565b90835461214e565b90815491600160401b8310156105f7578261219e91600161026095018155611aef565b90612162565b610260906121c360096102766121b8825490565b61214285600a6104c8565b61217b565b634e487b7160e01b600052601160045260246000fd5b919082039182116121eb57565b6121c8565b61026091600091612162565b61224a61026092611a73600093611a6c8561224a61222c61221c8561109d565b61222660016104bb565b906121de565b95600861223c6110d583836104c8565b88810361224f575b506104c8565b6121f0565b806121428861227d8c61214261228396611a736122756110d5600795611a738988611093565b958694611093565b846104c8565b38612244565b634e487b7160e01b600052603160045260246000fd5b805480156122c25760001901906122bf6122b98383611aef565b906121f0565b55565b612289565b61231561026091610276600061224a6009936122e461221c865490565b611a73600a91612142612307611b446123006110d588886104c8565b938b611aef565b61227d8161219e858d611aef565b61229f565b61026090612326610eb4565b6123406102609161191061233982610fb4565b600e610fbd565b600c610fbd565b6102609061231a565b6102609061235c610eb4565b61236861026091610fb4565b600d610fbd565b61026090612350565b9050519061026082610920565b9060208282031261024e5761027691612378565b156123a057565b60405162461bcd60e51b815260206004820152600d60248201526c2737ba10309031b932b0ba37b960991b6044820152606490fd5b60001981146121eb5760010190565b610276610140610971565b90610279906106ce565b634e487b7160e01b600052600060045260246000fd5b81811061241a575050565b8061242860006001936121f0565b0161240f565b9190601f811161243d57505050565b61244f61026093600052602060002090565b906020601f840181900483019310612472575b6020601f909101045b019061240f565b9091508190612462565b600019600883021c1916906002021790565b90612497815190565b9067ffffffffffffffff82116105f7576124bb826124b58554610507565b8561242e565b602090601f83116001146124e957610fd49291600091836124de575b505061247c565b0151905038806124d7565b601f198316916124fe85600052602060002090565b9260005b81811061253c57509160029391856001969410612523575b50505002019055565b01516000196008601f8516021c1916905538808061251a565b91936020600181928787015181550195019201612502565b906102609161248e565b61027690516106ce565b906117b5610276610fd4926106d8565b9061ff009060081b610f8d565b90612595610276610fd4926106d8565b8254612578565b610260919061266990610120906008906125b881611696875190565b6125d9600182016125d360208801516001600160a01b031690565b90610fbd565b6125f1600282016125eb604088015190565b90612554565b612603600382016125eb606088015190565b612615600482016125eb608088015190565b612627600582016125eb60a088015190565b6126396006820161169660c088015190565b61264b6007820161169660e088015190565b019261266361265d610100830161255e565b85612568565b0161255e565b90612585565b906102609161259c565b9395919594909294612696611910600d546001600160a01b031690565b956126b5602063efd4606533996126ac60405190565b93849260e01b90565b82526001600160a01b038b16600483015260249082905afa80156127bb576126e59160009161278d575b50612399565b6126ef600f6104e7565b976126f9896123d5565b61270490600f6115c5565b60009561270f6123e4565b9761271a8b898b0152565b6001600160a01b038a1660208a015260408901526060880152608087015260a086015260c085015260e08401526127559061010084016123ef565b6127639061012083016123ef565b61276e8360116104c8565b906127789161266f565b612783906012611093565b906102609161217b565b6127ae915060203d81116127b4575b6127a681836105d5565b810190612385565b386126df565b503d61279c565b6118b5565b906127db6127cf610da1845490565b92600052602060002090565b9060005b8181106127ec5750505090565b909192612810612809600192612801876104e7565b815260200190565b9460010190565b9291016127df565b90610276916127c0565b906102606106169261283360405190565b93848092612818565b61027690612822565b61285c61027691612854606090565b506012611093565b61283c565b67ffffffffffffffff81116105f75760208091020190565b906113836109be83612861565b61288e6123e4565b906000825260208080808080808080808b01600081520160608152016060815201606081520160608152016000815201600081520160008152016000905250565b610276612886565b60005b8281106128e657505050565b6020906128f16128cf565b81840152016128da565b9061026061291161290b84612879565b93612861565b601f1901602084016128d7565b90612927825190565b811015611b12576020809102010190565b6102769060081c610622565b6102769054612938565b90610260612a39600861295f6123e4565b9461297061296c826104e7565b8752565b61299761298760018301546001600160a01b031690565b6001600160a01b03166020880152565b6129ad6129a6600283016105fc565b6040880152565b6129c36129bc600383016105fc565b6060880152565b6129d96129d2600483016105fc565b6080880152565b6129ef6129e8600583016105fc565b60a0880152565b612a056129fe600683016104e7565b60c0880152565b612a1b612a14600783016104e7565b60e0880152565b612a33612a29838301610628565b61010088016123ef565b01612944565b61012084016123ef565b6102769061294e565b61285c612a5b91612854606090565b612a6b612a66825190565b6128fb565b90612a7660006104bb565b612a81610276835190565b811015612ad057612acb90612ab0612aab6011612aa5612aa1858861291e565b5190565b906104c8565b612a43565b612aba828661291e565b52612ac5818561291e565b506123d5565b612a76565b505090565b6110d561027691612ae4600090565b5060146104c8565b15612af357565b60405162461bcd60e51b815260206004820152600f60248201526e2737ba103a34329031b932b0ba37b960891b6044820152606490fd5b15612b3157565b60405162461bcd60e51b815260206004820152600d60248201526c4e6f7420417661696c61626c6560981b6044820152606490fd5b610260906008612bdb601192612ba1612b926001612b8484886104c8565b01546001600160a01b031690565b612b9b33610ed5565b14612aec565b612baf83612a3383876104c8565b612bc2612bbc60006106ce565b916106ce565b148015612be1575b612bd390612b2a565b6003936104c8565b01612585565b50612bd3612bf384612a3384886104c8565b612c00612bbc60016106ce565b149050612bca565b90612c1b90600019906020036008021c90565b8154169055565b90600091612c40612c3882600052602060002090565b92835461247c565b905555565b9192906020821015612c9d57601f8411600114612c6757610fd492935061247c565b5090612c98610260936001612c8f612c8485600052602060002090565b92601f602091010490565b8201910161240f565b612c22565b50612cd68293612cb4600194600052602060002090565b61246b6020601f860104820192601f861680612cde575b50601f602091010490565b600202179055565b612cea90888603612c08565b38612ccb565b929091600160401b82116105f75760201115612d37576020811015612d1857610fd49161247c565b60019160ff1916612d2e84600052602060002090565b55600202019055565b60019150600202019055565b908154612d4f81610507565b90818311612d78575b818310612d66575b50505050565b612d6f93612c45565b38808080612d60565b612d8483838387612cf0565b612d58565b818102929181159184041417156121eb57565b600061026091612d43565b90600003612db85761026090612d9c565b6123f9565b600090600890612dcd83826121f0565b826001820155612de08360028301612da7565b612ded8360038301612da7565b612dfa8360048301612da7565b612e078360058301612da7565b612e1483600683016121f0565b612e2183600783016121f0565b0155565b90600003612db85761026090612dbd565b610260906011612e8e6000612e8984612e546001612b8483886104c8565b339590612e6490612b9b88610ed5565b611a73612e766008612a3385856104c8565b612e83612bbc60036106ce565b14612b2a565b612e25565b6012612ea1612e9d8383611093565b5490565b612eab60006104bb565b81811015612f2157612ec9611b4482612ec48787611093565b611aef565b8514612edd57612ed8906123d5565b612eab565b6102609450916112ed6102769361219e612f16611b448896612f10612f056123159b89611093565b9161222660016104bb565b90611aef565b91612ec48686611093565b5050505050565b610260906008612bdb601192612f46612b926001612b8484886104c8565b6001936104c8565b15612f5557565b60405162461bcd60e51b815260206004820152600860248201526714dbdb190813dd5d60c21b6044820152606490fd5b90505190610260826102af565b9060208282031261024e5761027691612f85565b15612fad57565b60405162461bcd60e51b8152602060048201526011602482015270105b1b1bddd85b98d9481b9bdd081cd95d607a1b6044820152606490fd5b61027990610fb4565b6001600160a01b039091168152606081019392610260929091604091613019906020830190612fe6565b0152565b1561302457565b60405162461bcd60e51b815260206004820152600f60248201526e151c985b9cd9995c8819985a5b1959608a1b6044820152606490fd5b6130696102768260116104c8565b6014916130796110d582856104c8565b6130966007840191613090611972610276856104e7565b10612f4e565b61311860088401926130b76130aa85612944565b612e83612bbc60016106ce565b6130cc611910600c546001600160a01b031690565b94602063dd62ed3e33976130f96130e230610fb4565b926130ec60405190565b9788948593849360e01b90565b83526001600160a01b03808e1660048501521660248301526044820190565b03915afa9283156127bb57600093613296575b5060066020910161316861313e826104e7565b94613161611972610276670de0b6b3a76400009861315b8a6104bb565b90612d89565b1015612fa6565b61317d611910600c546001600160a01b031690565b6131c960006131af6323b872dd9761315b6131a96131a3600e546001600160a01b031690565b976104e7565b916104bb565b966131d56131bc60405190565b9889968795869460e01b90565b84528d60048501612fef565b03925af19081156127bb5761322b6110d5610276926132036119729561323197600091613278575b5061301d565b61320c8161337e565b99611a7361321a83836104c8565b611696613226826104e7565b6123d5565b936104e7565b1015613266575b50611b94611b8a7fdbd06c5b09e89a22b08c07aa17dfc71d3f3741d98ad99285be427c36017340e692610fb4565b61327290600290612585565b38613238565b613290915060203d81116127b4576127a681836105d5565b386131fd565b60209193506132bc600691833d81116132c4575b6132b481836105d5565b810190612f92565b93915061312b565b503d6132aa565b610276610100610971565b610260919061336e9060e0906007906132f181611696875190565b61330c600182016125d360208801516001600160a01b031690565b61331e600282016125eb604088015190565b613330600382016125eb606088015190565b613342600482016125eb608088015190565b613354600582016125eb60a088015190565b6133666006820161169660c088015190565b01920161255e565b90612568565b90610260916132d6565b6133899060116104c8565b61339290612a43565b61339c60106104e7565b906133a6826123d5565b6133b19060106115c5565b60208101516001600160a01b0316906040810151906060810151608082015160a08301519160c084016133e2905190565b93610100016133f09061255e565b946133f96132cb565b96613402898952565b6001600160a01b0316602088015260408701526060860152608085015260a084015260c08301526134369060e083016123ef565b806134428360136104c8565b9061344c91613374565b6134568233613538565b60208101516001600160a01b031690604081015190606081015160808201519060a08301519260e0016134889061255e565b93613492956137ce565b6102769082613613565b156134a357565b60405162461bcd60e51b815280610eb0600482016020808252818101527f4552433732313a206d696e7420746f20746865207a65726f2061646472657373604082015260600190565b156134f357565b60405162461bcd60e51b815260206004820152601c60248201527f4552433732313a20746f6b656e20616c7265616479206d696e746564000000006044820152606490fd5b906135436000610e3d565b916135626001600160a01b0384166001600160a01b038316141561349c565b61357a61357561357184611843565b1590565b6134ec565b6116a661358760016104bb565b61359381858588612010565b6135a261357561357186611843565b61169661169c846003611093565b156135b757565b60405162461bcd60e51b815260206004820152602e60248201527f45524337323155524953746f726167653a2055524920736574206f66206e6f6e60448201526d32bc34b9ba32b73a103a37b5b2b760911b6064820152608490fd5b906136399061362961362484611843565b6135b0565b6136348360066104c8565b612554565b6136677ff8e1a15aba9398e019f0b49df1a4fde98ee17ae345cb5f6b5e2c27f5033e8ce7916102f560405190565b0390a1565b610279906001600160a01b031660601b90565b61368b610279916106d8565b60f81b90565b61371861379196611ca5613755613718600199611ca56137406137186102769f9c611ca56137256137186136f69f61378a9f6137719f6014611ca5926136f66136ef613704946b3d9131b932b0ba37b9111d1160a11b8152600c0190565b809261366c565b01601160f91b815260010190565b67113730b6b2911d1160c11b815260080190565b601160f91b815260010190565b6e113232b9b1b934b83a34b7b7111d1160891b8152600f0190565b681134b6b0b3b2911d1160b91b815260090190565b6f1132bc3a32b93730b62fbab936111d1160811b815260100190565b6c1136b2b234b0aa3cb832911d1160991b8152600d0190565b809261367f565b607d60f81b815260010190565b7f646174613a6170706c69636174696f6e2f6a736f6e3b6261736536342c00000081526102769190601d01611ca5565b611d27610276966137fd966137f895966137e6606090565b50604051978896602088019687613691565b61388f565b61027661380960405190565b8092611d2760208301918261379e565b6138236040611376565b7f4142434445464748494a4b4c4d4e4f505152535455565758595a61626364656660208201527f6768696a6b6c6d6e6f707172737475767778797a303132333435363738392b2f604082015290565b610276613819565b610276613872565b919082018092116121eb57565b805161389e61197260006104bb565b14611d8a576138ab61387a565b9060046138b6825190565b9060016138f16138ec6138d46002956138ce876104bb565b90613882565b936138e76131a9600396611e45886104bb565b612d89565b611d98565b9401926020850193819082518301915b82811061393c575050505106908160011461392c5750600214613922575090565b6001603d91035390565b905081603d600181940353035390565b84600191979293970191603f828080865194848660121c168901518153018385600c1c16880151815301828460061c168701518153019116840151815301959190613901565b906102609161398f610eb4565b613a2d565b6001600160a01b0390911681526040810192916102609160200152565b6001600160a01b039182168152911660208201526060810192916102609160400152565b156139dc57565b60405162461bcd60e51b8152602060048201526024808201527f496e73756666696369656e74204554482062616c616e636520696e20636f6e746044820152631c9858dd60e21b6064820152608490fd5b906000613a3c6103a082610e3d565b6001600160a01b03841603613ad557613a61613a5730610fb4565b83903110156139d5565b80808084613a7d611910611910600b546001600160a01b031690565b828215613acc575bf1156127bb577ffff3b3844276f57024e0b42afec1a37f75db36511e43819a4f2a63ab7862b64890613ab633610fb4565b92611b94613ac360405190565b92839283613994565b506108fc613a85565b816020613ae461191086610fb4565b63a9059cbb90613b1a85613b00600b546001600160a01b031690565b93613b25613b0d60405190565b9788968795869460e01b90565b845260048401613994565b03925af19081613c84575b50158114613c5857613b4461191084610fb4565b6342842e0e613b5230610fb4565b600b546001600160a01b031692803b1561024e57613b86858094613b9189613b7960405190565b9889978896879560e01b90565b8552600485016139b1565b03925af19081613c2c575b501514613c015760405162461bcd60e51b815260206004820152603060248201527f546f6b656e2074797065206e6f7420737570706f72746564206f7220696e737560448201526f6666696369656e742062616c616e636560801b6064820152608490fd5b7ffff3b3844276f57024e0b42afec1a37f75db36511e43819a4f2a63ab7862b64890613ab633610fb4565b613c4b90833d8511613c51575b613c4381836105d5565b810190610302565b38613b9c565b503d613c39565b507ffff3b3844276f57024e0b42afec1a37f75db36511e43819a4f2a63ab7862b64890613ab633610fb4565b613c9b9060203d81116127b4576127a681836105d5565b613b30565b906102609161398256fea2646970667358221220d64f05aea987d335bcddad37e55a18eddeeaaaee7f227cbb0ed14aeaa54556d564736f6c63430008130033",
  "linkReferences": {},
  "deployedLinkReferences": {}
}