{
  "_format": "hh-sol-artifact-1",
  "contractName": "CreatorsNFT",
  "sourceName": "contracts/CreatorsNFT.sol",
  "abi": [
    {
      "inputs": [],
      "stateMutability": "nonpayable",
      "type": "constructor"
    },
    {
      "anonymous": false,
      "inputs": [
        {
          "indexed": true,
          "internalType": "address",
          "name": "owner",
          "type": "address"
        },
        {
          "indexed": true,
          "internalType": "address",
          "name": "approved",
          "type": "address"
        },
        {
          "indexed": true,
          "internalType": "uint256",
          "name": "tokenId",
          "type": "uint256"
        }
      ],
      "name": "Approval",
      "type": "event"
    },
    {
      "anonymous": false,
      "inputs": [
        {
          "indexed": true,
          "internalType": "address",
          "name": "owner",
          "type": "address"
        },
        {
          "indexed": true,
          "internalType": "address",
          "name": "operator",
          "type": "address"
        },
        {
          "indexed": false,
          "internalType": "bool",
          "name": "approved",
          "type": "bool"
        }
      ],
      "name": "ApprovalForAll",
      "type": "event"
    },
    {
      "anonymous": false,
      "inputs": [
        {
          "indexed": false,
          "internalType": "uint256",
          "name": "_fromTokenId",
          "type": "uint256"
        },
        {
          "indexed": false,
          "internalType": "uint256",
          "name": "_toTokenId",
          "type": "uint256"
        }
      ],
      "name": "BatchMetadataUpdate",
      "type": "event"
    },
    {
      "anonymous": false,
      "inputs": [
        {
          "indexed": false,
          "internalType": "uint256",
          "name": "_tokenId",
          "type": "uint256"
        }
      ],
      "name": "MetadataUpdate",
      "type": "event"
    },
    {
      "anonymous": false,
      "inputs": [
        {
          "indexed": true,
          "internalType": "address",
          "name": "buyer",
          "type": "address"
        },
        {
          "indexed": false,
          "internalType": "uint256",
          "name": "nftId",
          "type": "uint256"
        }
      ],
      "name": "NFTTransferred",
      "type": "event"
    },
    {
      "anonymous": false,
      "inputs": [
        {
          "indexed": true,
          "internalType": "address",
          "name": "previousOwner",
          "type": "address"
        },
        {
          "indexed": true,
          "internalType": "address",
          "name": "newOwner",
          "type": "address"
        }
      ],
      "name": "OwnershipTransferred",
      "type": "event"
    },
    {
      "anonymous": false,
      "inputs": [
        {
          "indexed": true,
          "internalType": "address",
          "name": "from",
          "type": "address"
        },
        {
          "indexed": false,
          "internalType": "uint256",
          "name": "amount",
          "type": "uint256"
        }
      ],
      "name": "Received",
      "type": "event"
    },
    {
      "anonymous": false,
      "inputs": [
        {
          "indexed": true,
          "internalType": "address",
          "name": "sender",
          "type": "address"
        },
        {
          "indexed": false,
          "internalType": "address",
          "name": "tokenAddress",
          "type": "address"
        },
        {
          "indexed": false,
          "internalType": "uint256",
          "name": "amountOrTokenId",
          "type": "uint256"
        }
      ],
      "name": "Recovered",
      "type": "event"
    },
    {
      "anonymous": false,
      "inputs": [
        {
          "indexed": true,
          "internalType": "address",
          "name": "from",
          "type": "address"
        },
        {
          "indexed": true,
          "internalType": "address",
          "name": "to",
          "type": "address"
        },
        {
          "indexed": true,
          "internalType": "uint256",
          "name": "tokenId",
          "type": "uint256"
        }
      ],
      "name": "Transfer",
      "type": "event"
    },
    {
      "stateMutability": "payable",
      "type": "fallback"
    },
    {
      "inputs": [
        {
          "internalType": "address",
          "name": "to",
          "type": "address"
        },
        {
          "internalType": "uint256",
          "name": "tokenId",
          "type": "uint256"
        }
      ],
      "name": "approve",
      "outputs": [],
      "stateMutability": "nonpayable",
      "type": "function"
    },
    {
      "inputs": [
        {
          "internalType": "address",
          "name": "owner",
          "type": "address"
        }
      ],
      "name": "balanceOf",
      "outputs": [
        {
          "internalType": "uint256",
          "name": "",
          "type": "uint256"
        }
      ],
      "stateMutability": "view",
      "type": "function"
    },
    {
      "inputs": [
        {
          "internalType": "uint256",
          "name": "sourceId",
          "type": "uint256"
        }
      ],
      "name": "buyNFT",
      "outputs": [],
      "stateMutability": "nonpayable",
      "type": "function"
    },
    {
      "inputs": [
        {
          "internalType": "uint256",
          "name": "sourceId",
          "type": "uint256"
        }
      ],
      "name": "deleteNFTSource",
      "outputs": [],
      "stateMutability": "nonpayable",
      "type": "function"
    },
    {
      "inputs": [
        {
          "internalType": "uint256",
          "name": "tokenId",
          "type": "uint256"
        }
      ],
      "name": "getApproved",
      "outputs": [
        {
          "internalType": "address",
          "name": "",
          "type": "address"
        }
      ],
      "stateMutability": "view",
      "type": "function"
    },
    {
      "inputs": [
        {
          "internalType": "address",
          "name": "creator",
          "type": "address"
        }
      ],
      "name": "getNFTDetailsByCreator",
      "outputs": [
        {
          "components": [
            {
              "internalType": "uint256",
              "name": "sourceId",
              "type": "uint256"
            },
            {
              "internalType": "address",
              "name": "creator",
              "type": "address"
            },
            {
              "internalType": "string",
              "name": "name",
              "type": "string"
            },
            {
              "internalType": "string",
              "name": "description",
              "type": "string"
            },
            {
              "internalType": "string",
              "name": "image",
              "type": "string"
            },
            {
              "internalType": "string",
              "name": "external_url",
              "type": "string"
            },
            {
              "internalType": "uint256",
              "name": "price",
              "type": "uint256"
            },
            {
              "internalType": "uint256",
              "name": "units",
              "type": "uint256"
            },
            {
              "internalType": "enum NFTSource.MediaType",
              "name": "mediaType",
              "type": "uint8"
            },
            {
              "internalType": "enum NFTSource.Status",
              "name": "status",
              "type": "uint8"
            }
          ],
          "internalType": "struct NFTSource.Detail[]",
          "name": "",
          "type": "tuple[]"
        }
      ],
      "stateMutability": "view",
      "type": "function"
    },
    {
      "inputs": [
        {
          "internalType": "address",
          "name": "creator",
          "type": "address"
        }
      ],
      "name": "getNFTsByCreator",
      "outputs": [
        {
          "internalType": "uint256[]",
          "name": "",
          "type": "uint256[]"
        }
      ],
      "stateMutability": "view",
      "type": "function"
    },
    {
      "inputs": [
        {
          "internalType": "uint256",
          "name": "tokenId",
          "type": "uint256"
        }
      ],
      "name": "getSoldUnitsPerSource",
      "outputs": [
        {
          "internalType": "uint256",
          "name": "",
          "type": "uint256"
        }
      ],
      "stateMutability": "view",
      "type": "function"
    },
    {
      "inputs": [
        {
          "internalType": "address",
          "name": "owner",
          "type": "address"
        },
        {
          "internalType": "address",
          "name": "operator",
          "type": "address"
        }
      ],
      "name": "isApprovedForAll",
      "outputs": [
        {
          "internalType": "bool",
          "name": "",
          "type": "bool"
        }
      ],
      "stateMutability": "view",
      "type": "function"
    },
    {
      "inputs": [],
      "name": "name",
      "outputs": [
        {
          "internalType": "string",
          "name": "",
          "type": "string"
        }
      ],
      "stateMutability": "view",
      "type": "function"
    },
    {
      "inputs": [],
      "name": "nextNFTId",
      "outputs": [
        {
          "internalType": "uint256",
          "name": "",
          "type": "uint256"
        }
      ],
      "stateMutability": "view",
      "type": "function"
    },
    {
      "inputs": [],
      "name": "nextSourceId",
      "outputs": [
        {
          "internalType": "uint256",
          "name": "",
          "type": "uint256"
        }
      ],
      "stateMutability": "view",
      "type": "function"
    },
    {
      "inputs": [
        {
          "internalType": "uint256",
          "name": "",
          "type": "uint256"
        }
      ],
      "name": "nfts",
      "outputs": [
        {
          "internalType": "uint256",
          "name": "tokenId",
          "type": "uint256"
        },
        {
          "internalType": "address",
          "name": "creator",
          "type": "address"
        },
        {
          "internalType": "string",
          "name": "name",
          "type": "string"
        },
        {
          "internalType": "string",
          "name": "description",
          "type": "string"
        },
        {
          "internalType": "string",
          "name": "image",
          "type": "string"
        },
        {
          "internalType": "string",
          "name": "external_url",
          "type": "string"
        },
        {
          "internalType": "uint256",
          "name": "price",
          "type": "uint256"
        },
        {
          "internalType": "enum NFTSource.MediaType",
          "name": "mediaType",
          "type": "uint8"
        }
      ],
      "stateMutability": "view",
      "type": "function"
    },
    {
      "inputs": [],
      "name": "owner",
      "outputs": [
        {
          "internalType": "address",
          "name": "",
          "type": "address"
        }
      ],
      "stateMutability": "view",
      "type": "function"
    },
    {
      "inputs": [
        {
          "internalType": "uint256",
          "name": "tokenId",
          "type": "uint256"
        }
      ],
      "name": "ownerOf",
      "outputs": [
        {
          "internalType": "address",
          "name": "",
          "type": "address"
        }
      ],
      "stateMutability": "view",
      "type": "function"
    },
    {
      "inputs": [],
      "name": "renounceOwnership",
      "outputs": [],
      "stateMutability": "nonpayable",
      "type": "function"
    },
    {
      "inputs": [
        {
          "internalType": "address",
          "name": "from",
          "type": "address"
        },
        {
          "internalType": "address",
          "name": "to",
          "type": "address"
        },
        {
          "internalType": "uint256",
          "name": "tokenId",
          "type": "uint256"
        }
      ],
      "name": "safeTransferFrom",
      "outputs": [],
      "stateMutability": "nonpayable",
      "type": "function"
    },
    {
      "inputs": [
        {
          "internalType": "address",
          "name": "from",
          "type": "address"
        },
        {
          "internalType": "address",
          "name": "to",
          "type": "address"
        },
        {
          "internalType": "uint256",
          "name": "tokenId",
          "type": "uint256"
        },
        {
          "internalType": "bytes",
          "name": "data",
          "type": "bytes"
        }
      ],
      "name": "safeTransferFrom",
      "outputs": [],
      "stateMutability": "nonpayable",
      "type": "function"
    },
    {
      "inputs": [
        {
          "internalType": "address",
          "name": "operator",
          "type": "address"
        },
        {
          "internalType": "bool",
          "name": "approved",
          "type": "bool"
        }
      ],
      "name": "setApprovalForAll",
      "outputs": [],
      "stateMutability": "nonpayable",
      "type": "function"
    },
    {
      "inputs": [
        {
          "internalType": "address",
          "name": "blockFans",
          "type": "address"
        }
      ],
      "name": "setBlockFans",
      "outputs": [],
      "stateMutability": "nonpayable",
      "type": "function"
    },
    {
      "inputs": [
        {
          "internalType": "address",
          "name": "creatorsAddress",
          "type": "address"
        }
      ],
      "name": "setCreators",
      "outputs": [],
      "stateMutability": "nonpayable",
      "type": "function"
    },
    {
      "inputs": [
        {
          "internalType": "string",
          "name": "name",
          "type": "string"
        },
        {
          "internalType": "string",
          "name": "description",
          "type": "string"
        },
        {
          "internalType": "string",
          "name": "image",
          "type": "string"
        },
        {
          "internalType": "string",
          "name": "external_url",
          "type": "string"
        },
        {
          "internalType": "uint256",
          "name": "price",
          "type": "uint256"
        },
        {
          "internalType": "uint256",
          "name": "units",
          "type": "uint256"
        },
        {
          "internalType": "enum NFTSource.MediaType",
          "name": "mediaType",
          "type": "uint8"
        }
      ],
      "name": "setNFTSource",
      "outputs": [],
      "stateMutability": "nonpayable",
      "type": "function"
    },
    {
      "inputs": [
        {
          "internalType": "bytes4",
          "name": "interfaceId",
          "type": "bytes4"
        }
      ],
      "name": "supportsInterface",
      "outputs": [
        {
          "internalType": "bool",
          "name": "",
          "type": "bool"
        }
      ],
      "stateMutability": "view",
      "type": "function"
    },
    {
      "inputs": [],
      "name": "symbol",
      "outputs": [
        {
          "internalType": "string",
          "name": "",
          "type": "string"
        }
      ],
      "stateMutability": "view",
      "type": "function"
    },
    {
      "inputs": [
        {
          "internalType": "uint256",
          "name": "index",
          "type": "uint256"
        }
      ],
      "name": "tokenByIndex",
      "outputs": [
        {
          "internalType": "uint256",
          "name": "",
          "type": "uint256"
        }
      ],
      "stateMutability": "view",
      "type": "function"
    },
    {
      "inputs": [
        {
          "internalType": "address",
          "name": "owner",
          "type": "address"
        },
        {
          "internalType": "uint256",
          "name": "index",
          "type": "uint256"
        }
      ],
      "name": "tokenOfOwnerByIndex",
      "outputs": [
        {
          "internalType": "uint256",
          "name": "",
          "type": "uint256"
        }
      ],
      "stateMutability": "view",
      "type": "function"
    },
    {
      "inputs": [
        {
          "internalType": "uint256",
          "name": "tokenId",
          "type": "uint256"
        }
      ],
      "name": "tokenURI",
      "outputs": [
        {
          "internalType": "string",
          "name": "",
          "type": "string"
        }
      ],
      "stateMutability": "view",
      "type": "function"
    },
    {
      "inputs": [],
      "name": "totalSupply",
      "outputs": [
        {
          "internalType": "uint256",
          "name": "",
          "type": "uint256"
        }
      ],
      "stateMutability": "view",
      "type": "function"
    },
    {
      "inputs": [
        {
          "internalType": "address",
          "name": "from",
          "type": "address"
        },
        {
          "internalType": "address",
          "name": "to",
          "type": "address"
        },
        {
          "internalType": "uint256",
          "name": "tokenId",
          "type": "uint256"
        }
      ],
      "name": "transferFrom",
      "outputs": [],
      "stateMutability": "nonpayable",
      "type": "function"
    },
    {
      "inputs": [
        {
          "internalType": "address",
          "name": "newOwner",
          "type": "address"
        }
      ],
      "name": "transferOwnership",
      "outputs": [],
      "stateMutability": "nonpayable",
      "type": "function"
    },
    {
      "inputs": [
        {
          "internalType": "address",
          "name": "tokenAddress",
          "type": "address"
        },
        {
          "internalType": "uint256",
          "name": "amountOrTokenId",
          "type": "uint256"
        }
      ],
      "name": "withdraw",
      "outputs": [],
      "stateMutability": "nonpayable",
      "type": "function"
    },
    {
      "stateMutability": "payable",
      "type": "receive"
    }
  ],
  "bytecode": "0x608060405234620000265762000014620001cf565b604051613b66620005008239613b6690f35b600080fd5b634e487b7160e01b600052604160045260246000fd5b90601f01601f191681019081106001600160401b038211176200006357604052565b6200002b565b90620000806200007860405190565b928362000041565b565b6001600160401b0381116200006357602090601f01601f19160190565b90620000b5620000af8362000082565b62000069565b918252565b620000c6600c6200009f565b6b109b1bd8dad9985b9cd3919560a21b602082015290565b620000e8620000ba565b90565b620000f760036200009f565b6221232760e91b602082015290565b620000e8620000eb565b90600019905b9181191691161790565b620000e8620000e8620000e89290565b9062000144620000e86200014c9262000120565b825462000110565b9055565b62000160620000e8620000e89290565b6001600160a01b031690565b620000e89062000150565b620000e89062000160906001600160a01b031682565b620000e89062000177565b620000e8906200018d565b906001600160a01b039062000116565b90620001c7620000e86200014c9262000198565b8254620001a3565b620001ee620001dd620000de565b620001e762000106565b9062000259565b6200020960016200020181600f62000130565b601062000130565b62000080620002516200021d60006200016c565b620002346200022c8262000198565b600e620001b3565b6200024b620002438262000198565b600c620001b3565b62000198565b600d620001b3565b6200008091620002699162000274565b62000080336200049d565b620000809182918291906200046c565b634e487b7160e01b600052602260045260246000fd5b9060016002830492168015620002bd575b6020831014620002b757565b62000284565b91607f1691620002ab565b9160001960089290920291821b911b62000116565b9190620002f2620000e86200014c9362000120565b908354620002c8565b6200008091600091620002dd565b81811062000315575050565b80620003256000600193620002fb565b0162000309565b9190601f81116200033c57505050565b620003506200008093600052602060002090565b906020601f84018190048301931062000374575b6020601f90910104019062000309565b909150819062000364565b9062000389815190565b906001600160401b0382116200006357620003b182620003aa85546200029a565b856200032c565b602090601f8311600114620003f0576200014c929160009183620003e4575b5050600019600883021c1916906002021790565b015190503880620003d0565b601f198316916200040685600052602060002090565b9260005b81811062000447575091600293918560019694106200042d575b50505002019055565b01516000196008601f8516021c1916905538808062000424565b919360206001819287870151815501950192016200040a565b9062000080916200037f565b906200047e6200008092600062000460565b600162000460565b620000e89062000160565b620000e8905462000486565b620004a9600b62000491565b90620004b781600b620001b3565b620004ee620004e77f8be0079c531659141344cd1fd0a4f28419497f9722a3daafe3b4186f6b6457e09362000198565b9162000198565b91620004f960405190565b600090a356fe60806040526004361015610026575b361561001e5761001c611b32565b005b61001c611b32565b60003560e01c806301ffc9a71461021657806306b177fc1461021157806306fdde031461020c578063081812fc14610207578063095ea7b31461020257806315b684cf146101fd57806318160ddd146101f857806323b872dd146101f3578063265aa621146101ee5780632f745c59146101e957806342842e0e146101e45780634f6ccce7146101df57806351ed8288146101da5780636352211e146101d557806370a08231146101d0578063715018a6146101cb5780638da5cb5b146101c6578063926061f0146101c157806395d89b41146101bc578063a22cb465146101b7578063abd48199146101b2578063af2217cd146101ad578063b88d4fde146101a8578063ba908b45146101a3578063c87b56dd1461019e578063c909adc014610199578063e985e9c514610194578063f2fde38b1461018f578063f3fef3a31461018a578063fa3157d5146101855763ffa038210361000e57610dcf565b610d50565b610d37565b610d1f565b610d03565b610cc5565b610c9e565b610c86565b610c6a565b610bf3565b610a71565b610908565b6108b5565b61089a565b610853565b61083b565b610820565b6107f1565b6107d9565b6107be565b6107a5565b610789565b610752565b610482565b610436565b61041e565b610400565b61038c565b610359565b6102b6565b61025d565b6001600160e01b031981165b0361022e57565b600080fd5b905035906102408261021b565b565b9060208282031261022e5761025691610233565b90565b9052565b3461022e5761028b610278610273366004610242565b611b6f565b6040515b91829182901515815260200190565b0390f35b80610227565b905035906102408261028f565b9060208282031261022e5761025691610295565b3461022e5761028b6102d16102cc3660046102a2565b612abf565b6040515b9182918290815260200190565b600091031261022e57565b60005b8381106103005750506000910152565b81810151838201526020016102f0565b61033161033a60209361034493610325815190565b80835293849260200190565b958691016102ed565b601f01601f191690565b0190565b602080825261025692910190610310565b3461022e576103693660046102e2565b61028b610374611133565b60405191829182610348565b6001600160a01b031690565b3461022e5761028b6103a76103a23660046102a2565b611270565b604051918291826001600160a01b03909116815260200190565b6001600160a01b038116610227565b90503590610240826103c1565b919060408382031261022e57610256906103f781856103d0565b93602001610295565b3461022e576104196104133660046103dd565b9061120f565b604051005b3461022e576104196104313660046102a2565b612d42565b3461022e576104463660046102e2565b61028b6102d160095490565b909160608284031261022e5761025661046b84846103d0565b9361047981602086016103d0565b93604001610295565b3461022e57610419610495366004610452565b9161132f565b6102566102566102569290565b906104b29061049b565b600052602052604060002090565b6102569081565b61025690546104c0565b634e487b7160e01b600052602260045260246000fd5b9060016002830492168015610507575b602083101461050257565b6104d1565b91607f16916104f7565b8054600093929161052e610524836104e7565b8085529360200190565b9160018116908115610580575060011461054757505050565b61055a9192939450600052602060002090565b916000925b81841061056c5750500190565b80548484015260209093019260010161055f565b92949550505060ff1916825215156020020190565b9061025691610511565b634e487b7160e01b600052604160045260246000fd5b90601f01601f1916810190811067ffffffffffffffff8211176105d757604052565b61059f565b906102406105f6926105ed60405190565b93848092610595565b03836105b5565b610256905b60ff1690565b61025690546105fd565b61061d9060136104a8565b90610627826104c7565b9161063c60018201546001600160a01b031690565b91610649600283016105dc565b91610656600382016105dc565b91610663600483016105dc565b91610670600582016105dc565b916102566007610682600685016104c7565b9301610608565b634e487b7160e01b600052602160045260246000fd5b600611156106a957565b610689565b906102408261069f565b610256906106ae565b610259906106b8565b9360e095610727610735926107198861074b986102409d9f9e9c97610743996106fc61070c9260006101008701960152565b6001600160a01b031660208d0152565b8a820360408c0152610310565b9088820360608a0152610310565b908682036080880152610310565b9084820360a0860152610310565b9660c0830152565b01906106c1565b3461022e5761028b61076d6107683660046102a2565b610612565b9461078098969894919493929360405190565b988998896106ca565b3461022e5761028b6102d161079f3660046103dd565b90611a18565b3461022e576104196107b8366004610452565b91611370565b3461022e5761028b6102d16107d43660046102a2565b611aed565b3461022e576104196107ec3660046102a2565b612f36565b3461022e5761028b6103a76108073660046102a2565b6110fc565b9060208282031261022e57610256916103d0565b3461022e5761028b6102d161083636600461080c565b611073565b3461022e5761084b3660046102e2565b610419610e2e565b3461022e576108633660046102e2565b61028b6103a7600b546001600160a01b031690565b610256916008021c81565b906102569154610878565b6102566000600f610883565b3461022e576108aa3660046102e2565b61028b6102d161088e565b3461022e576108c53660046102e2565b61028b61037461113d565b801515610227565b90503590610240826108d0565b919060408382031261022e57610256906108ff81856103d0565b936020016108d8565b3461022e5761041961091b3660046108e5565b9061129d565b9061024061092e60405190565b92836105b5565b67ffffffffffffffff81116105d757602090601f01601f19160190565b90826000939282370152565b9092919261097361096e82610935565b610921565b9381855260208501908284011161022e5761024092610952565b9080601f8301121561022e578160206102569335910161095e565b6006111561022e57565b90503590610240826109a8565b60e08183031261022e57803567ffffffffffffffff811161022e57826109e691830161098d565b92602082013567ffffffffffffffff811161022e5783610a0791840161098d565b92604083013567ffffffffffffffff811161022e5781610a2891850161098d565b92606081013567ffffffffffffffff811161022e5782610a4991830161098d565b92610256610a5a8460808501610295565b93610a688160a08601610295565b9360c0016109b2565b3461022e57610419610a843660046109bf565b95949094939193612663565b600511156106a957565b9061024082610a90565b61025690610a9a565b61025990610aa4565b805182526020808201516001600160a01b031690830152906102569061012080610b2f610b1d610b0b610af9610140870160408a015188820360408a0152610310565b60608901518782036060890152610310565b60808801518682036080880152610310565b60a087015185820360a0870152610310565b94610b3f60c082015160c0860152565b610b4e60e082015160e0860152565b610b626101008201516101008601906106c1565b0151910190610aad565b9061025691610ab6565b90610b8c610b82835190565b8083529160200190565b9081610b9e6020830284019460200190565b926000915b838310610bb257505050505090565b90919293946020610bd5610bce83856001950387528951610b6c565b9760200190565b9301930191939290610ba3565b602080825261025692910190610b76565b3461022e5761028b610c0e610c0936600461080c565b612a36565b60405191829182610be2565b9060808282031261022e57610c2f81836103d0565b92610c3d82602085016103d0565b92610c4b8360408301610295565b92606082013567ffffffffffffffff811161022e57610256920161098d565b3461022e57610419610c7d366004610c1a565b92919091611380565b3461022e57610419610c9936600461080c565b61231d565b3461022e5761028b610374610cb43660046102a2565b611c43565b61025660006010610883565b3461022e57610cd53660046102e2565b61028b6102d1610cb9565b919060408382031261022e5761025690610cfa81856103d0565b936020016103d0565b3461022e5761028b610278610d19366004610ce0565b906112a8565b3461022e57610419610d3236600461080c565b610f4f565b3461022e57610419610d4a3660046103dd565b90613b26565b3461022e57610419610d6336600461080c565b612345565b90610d88610d81610d77845190565b8084529260200190565b9260200190565b9060005b818110610d995750505090565b909192610db6610daf6001928651815260200190565b9460200190565b929101610d8c565b602080825261025692910190610d68565b3461022e5761028b610dea610de536600461080c565b61282f565b60405191829182610dbe565b610dfe610e8a565b610240610e1c565b6103806102566102569290565b61025690610e06565b610240610e296000610e13565b610fae565b610240610df6565b15610e3d57565b60405162461bcd60e51b815280610e86600482016020808252818101527f4f776e61626c653a2063616c6c6572206973206e6f7420746865206f776e6572604082015260600190565b0390fd5b610240610e9f600b546001600160a01b031690565b610eb8610eab33610380565b916001600160a01b031690565b14610e36565b61024090610eca610e8a565b610f2a565b15610ed657565b60405162461bcd60e51b815260206004820152602660248201527f4f776e61626c653a206e6577206f776e657220697320746865207a65726f206160448201526564647265737360d01b6064820152608490fd5b61024090610e29610f3e6103806000610e13565b6001600160a01b0383161415610ecf565b61024090610ebe565b906001600160a01b03905b9181191691161790565b61025690610380906001600160a01b031682565b61025690610f6d565b61025690610f81565b90610fa3610256610faa92610f8a565b8254610f58565b9055565b600b546001600160a01b031690610fc681600b610f93565b610ff9610ff37f8be0079c531659141344cd1fd0a4f28419497f9722a3daafe3b4186f6b6457e093610f8a565b91610f8a565b9161100360405190565b80805b0390a3565b1561101257565b60405162461bcd60e51b815260206004820152602960248201527f4552433732313a2061646472657373207a65726f206973206e6f7420612076616044820152683634b21037bbb732b960b91b6064820152608490fd5b906104b290610f8a565b6110ab61025691611082600090565b506110a46110936103806000610e13565b6001600160a01b038316141561100b565b6003611069565b6104c7565b156110b757565b60405162461bcd60e51b815260206004820152601860248201527f4552433732313a20696e76616c696420746f6b656e20494400000000000000006044820152606490fd5b6111099060005b50611420565b6102566111196103806000610e13565b6001600160a01b03831614156110b0565b610256906105dc565b610256600061112a565b610256600161112a565b1561114e57565b60405162461bcd60e51b815260206004820152602160248201527f4552433732313a20617070726f76616c20746f2063757272656e74206f776e656044820152603960f91b6064820152608490fd5b156111a457565b60405162461bcd60e51b815260206004820152603d60248201527f4552433732313a20617070726f76652063616c6c6572206973206e6f7420746f60448201527f6b656e206f776e6572206f7220617070726f76656420666f7220616c6c0000006064820152608490fd5b906102409161125a611220836110fc565b61123e6001600160a01b0382166001600160a01b0385161415611147565b336001600160a01b038216811491821561125f575b505061119d565b6116dc565b61126992506112a8565b3880611253565b6112906102569161127f600090565b5061128981611808565b60046104a8565b546001600160a01b031690565b610240919033611792565b610256916112c36112c8926112bb600090565b506005611069565b611069565b610608565b156112d457565b60405162461bcd60e51b815260206004820152602d60248201527f4552433732313a2063616c6c6572206973206e6f7420746f6b656e206f776e6560448201526c1c881bdc88185c1c1c9bdd9959609a1b6064820152608490fd5b6102409291906113476113428433611437565b6112cd565b6115b2565b9061135961096e83610935565b918252565b610256600061134c565b61025661135e565b90916102409261137e611368565b925b610240939291906113946113428433611437565b611401565b156113a057565b6040515b62461bcd60e51b815260206004820152603260248201527f4552433732313a207472616e7366657220746f206e6f6e20455243373231526560448201527131b2b4bb32b91034b6b83632b6b2b73a32b960711b6064820152608490fd5b91610240939161141b936114168383836115b2565b6118b6565b611399565b6112906102569161142f600090565b5060026104a8565b611440826110fc565b916001600160a01b0383166001600160a01b0383161492831561148d575b50821561146a57505090565b61148991925061147c610eab91611270565b926001600160a01b031690565b1490565b61149a91935082906112a8565b913861145e565b156114a857565b60405162461bcd60e51b815260206004820152602560248201527f4552433732313a207472616e736665722066726f6d20696e636f72726563742060448201526437bbb732b960d91b6064820152608490fd5b1561150257565b60405162461bcd60e51b8152602060048201526024808201527f4552433732313a207472616e7366657220746f20746865207a65726f206164646044820152637265737360e01b6064820152608490fd5b916001600160a01b0360089290920291821b911b610f63565b919061157d610256610faa93610f8a565b908354611553565b6102409160009161156c565b9060001990610f63565b906115ab610256610faa9261049b565b8254611591565b91906115d86115c0836110fc565b6115d26001600160a01b038616610eab565b146114a1565b61167c60006115fd6115ec61038083610e13565b6001600160a01b03851614156114fb565b61164561160a600161049b565b916116178387878a611fe6565b611635611623876110fc565b6115d26001600160a01b038a16610eab565b6116408660046104a8565b611585565b61166c6116728460036112c361165b8a83611069565b61166c87611668836104c7565b0390565b9061159b565b91610344836104c7565b6116908161168b8460026104a8565b610f93565b6116cc6116c66116c07fddf252ad1be2c89b69c2b068fc378daa952ba7f163c4a11628f55a4df523b3ef95610f8a565b92610f8a565b9261049b565b926116d660405190565b600090a4565b906116ec8261168b8360046104a8565b6116f5816110fc565b916116cc6116c66116c07f8c5be1e5ebec7d5bd14f71427d1e84f3dd0314c0f7b2291e5b200ac8c7c3b92595610f8a565b1561172d57565b60405162461bcd60e51b815260206004820152601960248201527f4552433732313a20617070726f766520746f2063616c6c6572000000000000006044820152606490fd5b9060ff90610f63565b9061178b610256610faa92151590565b8254611772565b6117b06001600160a01b0383166001600160a01b0383161415611726565b6117c8836117c3846112c3856005611069565b61177b565b6110066117fe6117f87f17307eab39ab6107e8899845ad3d59bd9653f200f220920489ca2b5937696c3193610f8a565b93610f8a565b9361027c60405190565b61181461024091611819565b6110b0565b611824906000611103565b611834610eab6103806000610e13565b141590565b905051906102408261021b565b9060208282031261022e5761025691611839565b6001600160a01b03918216815291166020820152604081019190915260806060820181905261025692910190610310565b6040513d6000823e3d90fd5b3d156118b1576118a63d61134c565b903d6000602084013e565b606090565b919093926118c2600090565b946118cc81611b20565b156119ae579061191360006118eb6118e660209695610f8a565b610f8a565b9261191e63150b7a02916118fc3390565b9661190660405190565b998a988997889660e01b90565b86526004860161185a565b03925af16000918161197e575b506119615750611939611897565b805161194c611948600061049b565b9190565b03611959576040516113a4565b805190602001fd5b909150611489630a85bd0160e11b5b916001600160e01b03191690565b6119a091925060203d81116119a7575b61199881836105b5565b810190611846565b903861192b565b503d61198e565b5060019450505050565b156119bf57565b60405162461bcd60e51b815260206004820152602b60248201527f455243373231456e756d657261626c653a206f776e657220696e646578206f7560448201526a74206f6620626f756e647360a81b6064820152608490fd5b61025691611a496110ab92611a2b600090565b50611a42611a3b61025683611073565b84106119b8565b6007611069565b6104a8565b15611a5557565b60405162461bcd60e51b815260206004820152602c60248201527f455243373231456e756d657261626c653a20676c6f62616c20696e646578206f60448201526b7574206f6620626f756e647360a01b6064820152608490fd5b634e487b7160e01b600052603260045260246000fd5b8054821015611ae857611adf600191600052602060002090565b91020190600090565b611aaf565b611b1a61025691611afc600090565b50611b13611b0c61025660095490565b8210611a4e565b6009611ac5565b90610883565b3b611b2e611948600061049b565b1190565b347f88a5966d370b9919b20f3e2c13ff65706f196a4e32cc2c12bf57088f88525874611b6a611b6033610f8a565b926102d560405190565b0390a2565b6102569063780e9d6360e01b6001600160e01b0319821614908115611b92575090565b6102569150611bbc565b611baf611ba96102569290565b60e01b90565b6001600160e01b03191690565b611bcc611baf6349064906611b9c565b6001600160e01b0319821614908115611be3575090565b61025691506380ac58cd60e01b6001600160e01b0319821614908115611c18575b8115611c0e575090565b6102569150611c33565b6001600160e01b03198116635b5e139f60e01b149150611c04565b6114896301ffc9a760e01b611970565b61025690611c81565b610344611c6492602092611c5e815190565b94859290565b938491016102ed565b611c7b906102569392611c4c565b90611c4c565b611c8a81611808565b611c9d611c988260066104a8565b61112a565b611ca5611d5d565b8051600090611cb66119488361049b565b14611d0957611cc96119486116c6855190565b11611cd957505061025690611d10565b6102569250611cfd9161025691611cef60405190565b938492602084019283611c6d565b908103825203826105b5565b5050905090565b611d1981611808565b611d21611d5d565b8051611d30611948600061049b565b1115611d5357610256611cfd91611d4961025694611db6565b90611cef60405190565b5050610256611368565b60605b50610256611368565b369037565b90610240611d84611d7e8461134c565b93610935565b601f190160208401611d69565b634e487b7160e01b600052601260045260246000fd5b8115611db1570490565b611d91565b611dbf81611e42565b90611dcf6001926103448461049b565b9180611dda84611d6e565b936020018401905b611ded575b50505090565b611e219060001901926f181899199a1a9b1b9c1cb0b131b232b360811b600a82061a8453611e1b600a61049b565b90611da7565b9081611e30611948600061049b565b14611e3d57909181611de2565b611de7565b611e4c600061049b565b907a184f03e93ff9f4daa797ed6e38ed64bf6a1f010000000000000000611e728161049b565b821015611fc4575b506d04ee2d6d415b85acef8100000000611e938161049b565b821015611fa2575b50662386f26fc10000611ead8161049b565b821015611f80575b506305f5e100611ec48161049b565b821015611f5e575b50612710611ed98161049b565b821015611f3c575b506064611eed8161049b565b821015611f1a575b50611f03611948600a61049b565b1015611f0c5790565b61025690610344600161049b565b611f3591611e1b611f2a9261049b565b91610344600261049b565b9038611ef5565b611f5791611e1b611f4c9261049b565b91610344600461049b565b9038611ee1565b611f7991611e1b611f6e9261049b565b91610344600861049b565b9038611ecc565b611f9b91611e1b611f909261049b565b91610344601061049b565b9038611eb5565b611fbd91611e1b611fb29261049b565b91610344602061049b565b9038611e9b565b611fdf91611e1b611fd49261049b565b91610344604061049b565b9038611e7a565b61024093919291611ffa611948600161049b565b116120905761202e61200c6000610e13565b6001600160a01b0381166001600160a01b0384160361206d576103808461217a565b6001600160a01b038416036120485750610240915061229d565b6001600160a01b03166001600160a01b03831603612064575050565b610240916120f3565b6001600160a01b0385166001600160a01b038416146103805761038084846121d2565b60405162461bcd60e51b815260206004820152603560248201527f455243373231456e756d657261626c653a20636f6e7365637574697665207472604482015274185b9cd9995c9cc81b9bdd081cdd5c1c1bdc9d1959605a1b6064820152608490fd5b6121188261211d61024094612118611a499561210e81611073565b9687916007611069565b61159b565b60086104a8565b9160001960089290920291821b911b610f63565b9190612149610256610faa9361049b565b908354612124565b90815491600160401b8310156105d7578261217491600161024095018155611ac5565b90612138565b61024090612199600961025661218e825490565b61211885600a6104a8565b612151565b634e487b7160e01b600052601160045260246000fd5b919082039182116121c157565b61219e565b61024091600091612138565b61222061024092611a49600093611a42856122206122026121f285611073565b6121fc600161049b565b906121b4565b9560086122126110ab83836104a8565b888103612225575b506104a8565b6121c6565b80612118886122538c61211861225996611a4961224b6110ab600795611a498988611069565b958694611069565b846104a8565b3861221a565b634e487b7160e01b600052603160045260246000fd5b8054801561229857600019019061229561228f8383611ac5565b906121c6565b55565b61225f565b6122eb6102409161025660006122206009936122ba6121f2865490565b611a49600a916121186122dd611b1a6122d66110ab88886104a8565b938b611ac5565b61225381612174858d611ac5565b612275565b610240906122fc610e8a565b612316610240916118e661230f82610f8a565b600e610f93565b600c610f93565b610240906122f0565b61024090612332610e8a565b61233e61024091610f8a565b600d610f93565b61024090612326565b90505190610240826108d0565b9060208282031261022e576102569161234e565b1561237657565b60405162461bcd60e51b815260206004820152600d60248201526c2737ba10309031b932b0ba37b960991b6044820152606490fd5b60001981146121c15760010190565b610256610140610921565b90610259906106ae565b9061025990610a9a565b634e487b7160e01b600052600060045260246000fd5b8181106123fa575050565b8061240860006001936121c6565b016123ef565b9190601f811161241d57505050565b61242f61024093600052602060002090565b906020601f840181900483019310612452575b6020601f909101045b01906123ef565b9091508190612442565b600019600883021c1916906002021790565b90612477815190565b9067ffffffffffffffff82116105d75761249b8261249585546104e7565b8561240e565b602090601f83116001146124c957610faa9291600091836124be575b505061245c565b0151905038806124b7565b601f198316916124de85600052602060002090565b9260005b81811061251c57509160029391856001969410612503575b50505002019055565b01516000196008601f8516021c191690553880806124fa565b919360206001819287870151815501950192016124e2565b906102409161246e565b61025690516106ae565b9061178b610256610faa926106b8565b6102569051610a9a565b9061ff009060081b610f63565b9061257f610256610faa92610aa4565b8254612562565b610240919061265390610120906008906125a28161166c875190565b6125c3600182016125bd60208801516001600160a01b031690565b90610f93565b6125db600282016125d5604088015190565b90612534565b6125ed600382016125d5606088015190565b6125ff600482016125d5608088015190565b612611600582016125d560a088015190565b6126236006820161166c60c088015190565b6126356007820161166c60e088015190565b019261264d612647610100830161253e565b85612548565b01612558565b9061256f565b9061024091612586565b93959195949092946126806118e6600d546001600160a01b031690565b9561269f602063efd46065339961269660405190565b93849260e01b90565b82526001600160a01b038b16600483015260249082905afa80156127a5576126cf91600091612777575b5061236f565b6126d9600f6104c7565b976126e3896123ab565b6126ee90600f61159b565b6000956126f96123ba565b976127048b898b0152565b6001600160a01b038a1660208a015260408901526060880152608087015260a086015260c085015260e084015261273f9061010084016123c5565b61274d9061012083016123cf565b6127588360116104a8565b9061276291612659565b61276d906012611069565b9061024091612151565b612798915060203d811161279e575b61279081836105b5565b81019061235b565b386126c9565b503d612786565b61188b565b906127c56127b9610d77845490565b92600052602060002090565b9060005b8181106127d65750505090565b9091926127fa6127f36001926127eb876104c7565b815260200190565b9460010190565b9291016127c9565b90610256916127aa565b906102406105f69261281d60405190565b93848092612802565b6102569061280c565b6128466102569161283e606090565b506012611069565b612826565b67ffffffffffffffff81116105d75760208091020190565b9061135961096e8361284b565b6128786123ba565b906000825260208080808080808080808b01600081520160608152016060815201606081520160608152016000815201600081520160008152016000905250565b610256612870565b60005b8281106128d057505050565b6020906128db6128b9565b81840152016128c4565b906102406128fb6128f584612863565b9361284b565b601f1901602084016128c1565b90612911825190565b811015611ae8576020809102010190565b6102569060081c610602565b6102569054612922565b90610240612a2360086129496123ba565b9461295a612956826104c7565b8752565b61298161297160018301546001600160a01b031690565b6001600160a01b03166020880152565b612997612990600283016105dc565b6040880152565b6129ad6129a6600383016105dc565b6060880152565b6129c36129bc600483016105dc565b6080880152565b6129d96129d2600583016105dc565b60a0880152565b6129ef6129e8600683016104c7565b60c0880152565b612a056129fe600783016104c7565b60e0880152565b612a1d612a13838301610608565b61010088016123c5565b0161292e565b61012084016123cf565b61025690612938565b612846612a459161283e606090565b612a55612a50825190565b6128e5565b90612a60600061049b565b612a6b610256835190565b811015612aba57612ab590612a9a612a956011612a8f612a8b8588612908565b5190565b906104a8565b612a2d565b612aa48286612908565b52612aaf8185612908565b506123ab565b612a60565b505090565b6110ab61025691612ace600090565b5060146104a8565b15612add57565b60405162461bcd60e51b815260206004820152600f60248201526e2737ba103a34329031b932b0ba37b960891b6044820152606490fd5b90612b2790600019906020036008021c90565b8154169055565b90600091612b4c612b4482600052602060002090565b92835461245c565b905555565b9192906020821015612ba957601f8411600114612b7357610faa92935061245c565b5090612ba4610240936001612b9b612b9085600052602060002090565b92601f602091010490565b820191016123ef565b612b2e565b50612be28293612bc0600194600052602060002090565b61244b6020601f860104820192601f861680612bea575b50601f602091010490565b600202179055565b612bf690888603612b14565b38612bd7565b929091600160401b82116105d75760201115612c43576020811015612c2457610faa9161245c565b60019160ff1916612c3a84600052602060002090565b55600202019055565b60019150600202019055565b908154612c5b816104e7565b90818311612c84575b818310612c72575b50505050565b612c7b93612b51565b38808080612c6c565b612c9083838387612bfc565b612c64565b818102929181159184041417156121c157565b600061024091612c4f565b90600003612cc45761024090612ca8565b6123d9565b600090600890612cd983826121c6565b826001820155612cec8360028301612cb3565b612cf98360038301612cb3565b612d068360048301612cb3565b612d138360058301612cb3565b612d2083600683016121c6565b612d2d83600783016121c6565b0155565b90600003612cc45761024090612cc9565b610240906011612d896000612d8484612d6e6001612d6083886104a8565b01546001600160a01b031690565b339590611a4990612d7e88610eab565b14612ad6565b612d31565b6012612d9c612d988383611069565b5490565b612da6600061049b565b81811015612e1c57612dc4611b1a82612dbf8787611069565b611ac5565b8514612dd857612dd3906123ab565b612da6565b6102409450916112c361025693612174612e11611b1a8896612e0b612e006122eb9b89611069565b916121fc600161049b565b90611ac5565b91612dbf8686611069565b5050505050565b15612e2a57565b60405162461bcd60e51b815260206004820152600e60248201526d13585e081d5b9a5d1cc81cdbdb1960921b6044820152606490fd5b905051906102408261028f565b9060208282031261022e5761025691612e60565b15612e8857565b60405162461bcd60e51b8152602060048201526011602482015270105b1b1bddd85b98d9481b9bdd081cd95d607a1b6044820152606490fd5b61025990610f8a565b6001600160a01b039091168152606081019392610240929091604091612ef4906020830190612ec1565b0152565b15612eff57565b60405162461bcd60e51b815260206004820152600f60248201526e151c985b9cd9995c8819985a5b1959608a1b6044820152606490fd5b612f44612a958260116104a8565b612fd2601492612f71612f5a6110ab83876104a8565b612f6b61194861025660e088015190565b10612e23565b612f866118e6600c546001600160a01b031690565b92602063dd62ed3e3395612fb3612f9c30610f8a565b92612fa660405190565b9788948593849360e01b90565b83526001600160a01b03808c1660048501521660248301526044820190565b03915afa9283156127a55760009361311c575b5060c060209101613021612ff7825190565b9461301a611948610256670de0b6b3a7640000986130148a61049b565b90612c95565b1015612e81565b6130366118e6600c546001600160a01b031690565b61308160006130676323b872dd9761301461306161305c600e546001600160a01b031690565b975190565b9161049b565b9661308d61307460405190565b9889968795869460e01b90565b84528b60048501612eca565b03925af19081156127a5576130b16130c0926130d1946000916130fe575b50612ef8565b6130ba81613204565b946104a8565b61166c6130cc826104c7565b6123ab565b611b6a611b607fdbd06c5b09e89a22b08c07aa17dfc71d3f3741d98ad99285be427c36017340e692610f8a565b613116915060203d811161279e5761279081836105b5565b386130ab565b602091935061314260c091833d811161314a575b61313a81836105b5565b810190612e6d565b939150612fe5565b503d613130565b610256610100610921565b61024091906131f49060e0906007906131778161166c875190565b613192600182016125bd60208801516001600160a01b031690565b6131a4600282016125d5604088015190565b6131b6600382016125d5606088015190565b6131c8600482016125d5608088015190565b6131da600582016125d560a088015190565b6131ec6006820161166c60c088015190565b01920161253e565b90612548565b906102409161315c565b61320f9060116104a8565b61321890612a2d565b61322260106104c7565b9061322c826123ab565b61323790601061159b565b60208101516001600160a01b0316906040810151906060810151608082015160a08301519160c08401613268905190565b93610100016132769061253e565b9461327f613151565b96613288898952565b6001600160a01b0316602088015260408701526060860152608085015260a084015260c08301526132bc9060e083016123c5565b806132c88360136104a8565b906132d2916131fa565b6132dc82336133be565b60208101516001600160a01b031690604081015190606081015160808201519060a08301519260e00161330e9061253e565b9361331895613654565b6102569082613499565b1561332957565b60405162461bcd60e51b815280610e86600482016020808252818101527f4552433732313a206d696e7420746f20746865207a65726f2061646472657373604082015260600190565b1561337957565b60405162461bcd60e51b815260206004820152601c60248201527f4552433732313a20746f6b656e20616c7265616479206d696e746564000000006044820152606490fd5b906133c96000610e13565b916133e86001600160a01b0384166001600160a01b0383161415613322565b6134006133fb6133f784611819565b1590565b613372565b61167c61340d600161049b565b61341981858588611fe6565b6134286133fb6133f786611819565b61166c611672846003611069565b1561343d57565b60405162461bcd60e51b815260206004820152602e60248201527f45524337323155524953746f726167653a2055524920736574206f66206e6f6e60448201526d32bc34b9ba32b73a103a37b5b2b760911b6064820152608490fd5b906134bf906134af6134aa84611819565b613436565b6134ba8360066104a8565b612534565b6134ed7ff8e1a15aba9398e019f0b49df1a4fde98ee17ae345cb5f6b5e2c27f5033e8ce7916102d560405190565b0390a1565b610259906001600160a01b031660601b90565b613511610259916106b8565b60f81b90565b61359e61361796611c7b6135db61359e600199611c7b6135c661359e6102569f9c611c7b6135ab61359e61357c9f6136109f6135f79f6014611c7b9261357c61357561358a946b3d9131b932b0ba37b9111d1160a11b8152600c0190565b80926134f2565b01601160f91b815260010190565b67113730b6b2911d1160c11b815260080190565b601160f91b815260010190565b6e113232b9b1b934b83a34b7b7111d1160891b8152600f0190565b681134b6b0b3b2911d1160b91b815260090190565b6f1132bc3a32b93730b62fbab936111d1160811b815260100190565b6c1136b2b234b0aa3cb832911d1160991b8152600d0190565b8092613505565b607d60f81b815260010190565b7f646174613a6170706c69636174696f6e2f6a736f6e3b6261736536342c00000081526102569190601d01611c7b565b611cfd610256966136839661367e959661366c606090565b50604051978896602088019687613517565b613715565b61025661368f60405190565b8092611cfd602083019182613624565b6136a9604061134c565b7f4142434445464748494a4b4c4d4e4f505152535455565758595a61626364656660208201527f6768696a6b6c6d6e6f707172737475767778797a303132333435363738392b2f604082015290565b61025661369f565b6102566136f8565b919082018092116121c157565b8051613724611948600061049b565b14611d6057613731613700565b90600461373c825190565b90600161377761377261375a6002956137548761049b565b90613708565b9361376d613061600396611e1b8861049b565b612c95565b611d6e565b9401926020850193819082518301915b8281106137c257505050510690816001146137b257506002146137a8575090565b6001603d91035390565b905081603d600181940353035390565b84600191979293970191603f828080865194848660121c168901518153018385600c1c16880151815301828460061c168701518153019116840151815301959190613787565b9061024091613815610e8a565b6138b3565b6001600160a01b0390911681526040810192916102409160200152565b6001600160a01b039182168152911660208201526060810192916102409160400152565b1561386257565b60405162461bcd60e51b8152602060048201526024808201527f496e73756666696369656e74204554482062616c616e636520696e20636f6e746044820152631c9858dd60e21b6064820152608490fd5b9060006138c261038082610e13565b6001600160a01b0384160361395b576138e76138dd30610f8a565b839031101561385b565b808080846139036118e66118e6600b546001600160a01b031690565b828215613952575bf1156127a5577ffff3b3844276f57024e0b42afec1a37f75db36511e43819a4f2a63ab7862b6489061393c33610f8a565b92611b6a61394960405190565b9283928361381a565b506108fc61390b565b81602061396a6118e686610f8a565b63a9059cbb906139a085613986600b546001600160a01b031690565b936139ab61399360405190565b9788968795869460e01b90565b84526004840161381a565b03925af19081613b0a575b50158114613ade576139ca6118e684610f8a565b6342842e0e6139d830610f8a565b600b546001600160a01b031692803b1561022e57613a0c858094613a17896139ff60405190565b9889978896879560e01b90565b855260048501613837565b03925af19081613ab2575b501514613a875760405162461bcd60e51b815260206004820152603060248201527f546f6b656e2074797065206e6f7420737570706f72746564206f7220696e737560448201526f6666696369656e742062616c616e636560801b6064820152608490fd5b7ffff3b3844276f57024e0b42afec1a37f75db36511e43819a4f2a63ab7862b6489061393c33610f8a565b613ad190833d8511613ad7575b613ac981836105b5565b8101906102e2565b38613a22565b503d613abf565b507ffff3b3844276f57024e0b42afec1a37f75db36511e43819a4f2a63ab7862b6489061393c33610f8a565b613b219060203d811161279e5761279081836105b5565b6139b6565b906102409161380856fea2646970667358221220f43fc569dc500d1a516a4ae0ba53969a2ff74d00336f1a22125fcc191819d0d864736f6c63430008130033",
  "linkReferences": {},
  "deployedLinkReferences": {}
}