{
  "_format": "hh-sol-artifact-1",
  "contractName": "CreatorsNFT",
  "sourceName": "contracts/CreatorsNFT.sol",
  "abi": [
    {
      "inputs": [],
      "stateMutability": "nonpayable",
      "type": "constructor"
    },
    {
      "anonymous": false,
      "inputs": [
        {
          "indexed": true,
          "internalType": "address",
          "name": "owner",
          "type": "address"
        },
        {
          "indexed": true,
          "internalType": "address",
          "name": "approved",
          "type": "address"
        },
        {
          "indexed": true,
          "internalType": "uint256",
          "name": "tokenId",
          "type": "uint256"
        }
      ],
      "name": "Approval",
      "type": "event"
    },
    {
      "anonymous": false,
      "inputs": [
        {
          "indexed": true,
          "internalType": "address",
          "name": "owner",
          "type": "address"
        },
        {
          "indexed": true,
          "internalType": "address",
          "name": "operator",
          "type": "address"
        },
        {
          "indexed": false,
          "internalType": "bool",
          "name": "approved",
          "type": "bool"
        }
      ],
      "name": "ApprovalForAll",
      "type": "event"
    },
    {
      "anonymous": false,
      "inputs": [
        {
          "indexed": false,
          "internalType": "uint256",
          "name": "_fromTokenId",
          "type": "uint256"
        },
        {
          "indexed": false,
          "internalType": "uint256",
          "name": "_toTokenId",
          "type": "uint256"
        }
      ],
      "name": "BatchMetadataUpdate",
      "type": "event"
    },
    {
      "anonymous": false,
      "inputs": [
        {
          "indexed": false,
          "internalType": "uint256",
          "name": "_tokenId",
          "type": "uint256"
        }
      ],
      "name": "MetadataUpdate",
      "type": "event"
    },
    {
      "anonymous": false,
      "inputs": [
        {
          "indexed": true,
          "internalType": "address",
          "name": "buyer",
          "type": "address"
        },
        {
          "indexed": false,
          "internalType": "uint256",
          "name": "nftId",
          "type": "uint256"
        }
      ],
      "name": "NFTTransferred",
      "type": "event"
    },
    {
      "anonymous": false,
      "inputs": [
        {
          "indexed": true,
          "internalType": "address",
          "name": "previousOwner",
          "type": "address"
        },
        {
          "indexed": true,
          "internalType": "address",
          "name": "newOwner",
          "type": "address"
        }
      ],
      "name": "OwnershipTransferred",
      "type": "event"
    },
    {
      "anonymous": false,
      "inputs": [
        {
          "indexed": true,
          "internalType": "address",
          "name": "from",
          "type": "address"
        },
        {
          "indexed": false,
          "internalType": "uint256",
          "name": "amount",
          "type": "uint256"
        }
      ],
      "name": "Received",
      "type": "event"
    },
    {
      "anonymous": false,
      "inputs": [
        {
          "indexed": true,
          "internalType": "address",
          "name": "sender",
          "type": "address"
        },
        {
          "indexed": false,
          "internalType": "address",
          "name": "tokenAddress",
          "type": "address"
        },
        {
          "indexed": false,
          "internalType": "uint256",
          "name": "amountOrTokenId",
          "type": "uint256"
        }
      ],
      "name": "Recovered",
      "type": "event"
    },
    {
      "anonymous": false,
      "inputs": [
        {
          "indexed": true,
          "internalType": "address",
          "name": "from",
          "type": "address"
        },
        {
          "indexed": true,
          "internalType": "address",
          "name": "to",
          "type": "address"
        },
        {
          "indexed": true,
          "internalType": "uint256",
          "name": "tokenId",
          "type": "uint256"
        }
      ],
      "name": "Transfer",
      "type": "event"
    },
    {
      "stateMutability": "payable",
      "type": "fallback"
    },
    {
      "inputs": [
        {
          "internalType": "address",
          "name": "to",
          "type": "address"
        },
        {
          "internalType": "uint256",
          "name": "tokenId",
          "type": "uint256"
        }
      ],
      "name": "approve",
      "outputs": [],
      "stateMutability": "nonpayable",
      "type": "function"
    },
    {
      "inputs": [
        {
          "internalType": "address",
          "name": "owner",
          "type": "address"
        }
      ],
      "name": "balanceOf",
      "outputs": [
        {
          "internalType": "uint256",
          "name": "",
          "type": "uint256"
        }
      ],
      "stateMutability": "view",
      "type": "function"
    },
    {
      "inputs": [
        {
          "internalType": "uint256",
          "name": "sourceId",
          "type": "uint256"
        }
      ],
      "name": "buyNFT",
      "outputs": [],
      "stateMutability": "nonpayable",
      "type": "function"
    },
    {
      "inputs": [
        {
          "internalType": "uint256",
          "name": "sourceId",
          "type": "uint256"
        }
      ],
      "name": "deleteNFTSource",
      "outputs": [],
      "stateMutability": "nonpayable",
      "type": "function"
    },
    {
      "inputs": [
        {
          "internalType": "uint256",
          "name": "tokenId",
          "type": "uint256"
        }
      ],
      "name": "getApproved",
      "outputs": [
        {
          "internalType": "address",
          "name": "",
          "type": "address"
        }
      ],
      "stateMutability": "view",
      "type": "function"
    },
    {
      "inputs": [],
      "name": "getNFTDetailsByCreator",
      "outputs": [
        {
          "components": [
            {
              "internalType": "uint256",
              "name": "sourceId",
              "type": "uint256"
            },
            {
              "internalType": "address",
              "name": "creator",
              "type": "address"
            },
            {
              "internalType": "string",
              "name": "name",
              "type": "string"
            },
            {
              "internalType": "string",
              "name": "description",
              "type": "string"
            },
            {
              "internalType": "string",
              "name": "image",
              "type": "string"
            },
            {
              "internalType": "string",
              "name": "external_url",
              "type": "string"
            },
            {
              "internalType": "uint256",
              "name": "price",
              "type": "uint256"
            },
            {
              "internalType": "uint256",
              "name": "units",
              "type": "uint256"
            },
            {
              "internalType": "enum NFTSource.MediaType",
              "name": "mediaType",
              "type": "uint8"
            },
            {
              "internalType": "enum NFTSource.Status",
              "name": "status",
              "type": "uint8"
            }
          ],
          "internalType": "struct NFTSource.Detail[]",
          "name": "",
          "type": "tuple[]"
        }
      ],
      "stateMutability": "view",
      "type": "function"
    },
    {
      "inputs": [],
      "name": "getNFTsByCreator",
      "outputs": [
        {
          "internalType": "uint256[]",
          "name": "",
          "type": "uint256[]"
        }
      ],
      "stateMutability": "view",
      "type": "function"
    },
    {
      "inputs": [
        {
          "internalType": "address",
          "name": "creator",
          "type": "address"
        }
      ],
      "name": "getPublicNFTDetailsByCreator",
      "outputs": [
        {
          "components": [
            {
              "internalType": "uint256",
              "name": "sourceId",
              "type": "uint256"
            },
            {
              "internalType": "address",
              "name": "creator",
              "type": "address"
            },
            {
              "internalType": "string",
              "name": "name",
              "type": "string"
            },
            {
              "internalType": "string",
              "name": "description",
              "type": "string"
            },
            {
              "internalType": "string",
              "name": "image",
              "type": "string"
            },
            {
              "internalType": "string",
              "name": "external_url",
              "type": "string"
            },
            {
              "internalType": "uint256",
              "name": "price",
              "type": "uint256"
            },
            {
              "internalType": "uint256",
              "name": "units",
              "type": "uint256"
            },
            {
              "internalType": "enum NFTSource.MediaType",
              "name": "mediaType",
              "type": "uint8"
            },
            {
              "internalType": "enum NFTSource.Status",
              "name": "status",
              "type": "uint8"
            }
          ],
          "internalType": "struct NFTSource.Detail[]",
          "name": "",
          "type": "tuple[]"
        }
      ],
      "stateMutability": "view",
      "type": "function"
    },
    {
      "inputs": [
        {
          "internalType": "address",
          "name": "creator",
          "type": "address"
        }
      ],
      "name": "getPublicNFTsByCreator",
      "outputs": [
        {
          "internalType": "uint256[]",
          "name": "",
          "type": "uint256[]"
        }
      ],
      "stateMutability": "view",
      "type": "function"
    },
    {
      "inputs": [
        {
          "internalType": "uint256",
          "name": "tokenId",
          "type": "uint256"
        }
      ],
      "name": "getSoldUnitsPerSource",
      "outputs": [
        {
          "internalType": "uint256",
          "name": "",
          "type": "uint256"
        }
      ],
      "stateMutability": "view",
      "type": "function"
    },
    {
      "inputs": [
        {
          "internalType": "address",
          "name": "owner",
          "type": "address"
        },
        {
          "internalType": "address",
          "name": "operator",
          "type": "address"
        }
      ],
      "name": "isApprovedForAll",
      "outputs": [
        {
          "internalType": "bool",
          "name": "",
          "type": "bool"
        }
      ],
      "stateMutability": "view",
      "type": "function"
    },
    {
      "inputs": [],
      "name": "name",
      "outputs": [
        {
          "internalType": "string",
          "name": "",
          "type": "string"
        }
      ],
      "stateMutability": "view",
      "type": "function"
    },
    {
      "inputs": [],
      "name": "nextNFTId",
      "outputs": [
        {
          "internalType": "uint256",
          "name": "",
          "type": "uint256"
        }
      ],
      "stateMutability": "view",
      "type": "function"
    },
    {
      "inputs": [],
      "name": "nextSourceId",
      "outputs": [
        {
          "internalType": "uint256",
          "name": "",
          "type": "uint256"
        }
      ],
      "stateMutability": "view",
      "type": "function"
    },
    {
      "inputs": [
        {
          "internalType": "uint256",
          "name": "",
          "type": "uint256"
        }
      ],
      "name": "nfts",
      "outputs": [
        {
          "internalType": "uint256",
          "name": "tokenId",
          "type": "uint256"
        },
        {
          "internalType": "address",
          "name": "creator",
          "type": "address"
        },
        {
          "internalType": "string",
          "name": "name",
          "type": "string"
        },
        {
          "internalType": "string",
          "name": "description",
          "type": "string"
        },
        {
          "internalType": "string",
          "name": "image",
          "type": "string"
        },
        {
          "internalType": "string",
          "name": "external_url",
          "type": "string"
        },
        {
          "internalType": "uint256",
          "name": "price",
          "type": "uint256"
        },
        {
          "internalType": "enum NFTSource.MediaType",
          "name": "mediaType",
          "type": "uint8"
        }
      ],
      "stateMutability": "view",
      "type": "function"
    },
    {
      "inputs": [],
      "name": "owner",
      "outputs": [
        {
          "internalType": "address",
          "name": "",
          "type": "address"
        }
      ],
      "stateMutability": "view",
      "type": "function"
    },
    {
      "inputs": [
        {
          "internalType": "uint256",
          "name": "tokenId",
          "type": "uint256"
        }
      ],
      "name": "ownerOf",
      "outputs": [
        {
          "internalType": "address",
          "name": "",
          "type": "address"
        }
      ],
      "stateMutability": "view",
      "type": "function"
    },
    {
      "inputs": [
        {
          "internalType": "uint256",
          "name": "sourceId",
          "type": "uint256"
        }
      ],
      "name": "permanentDeleteNFTSource",
      "outputs": [],
      "stateMutability": "nonpayable",
      "type": "function"
    },
    {
      "inputs": [],
      "name": "renounceOwnership",
      "outputs": [],
      "stateMutability": "nonpayable",
      "type": "function"
    },
    {
      "inputs": [
        {
          "internalType": "uint256",
          "name": "sourceId",
          "type": "uint256"
        }
      ],
      "name": "restoreNFTSource",
      "outputs": [],
      "stateMutability": "nonpayable",
      "type": "function"
    },
    {
      "inputs": [
        {
          "internalType": "address",
          "name": "from",
          "type": "address"
        },
        {
          "internalType": "address",
          "name": "to",
          "type": "address"
        },
        {
          "internalType": "uint256",
          "name": "tokenId",
          "type": "uint256"
        }
      ],
      "name": "safeTransferFrom",
      "outputs": [],
      "stateMutability": "nonpayable",
      "type": "function"
    },
    {
      "inputs": [
        {
          "internalType": "address",
          "name": "from",
          "type": "address"
        },
        {
          "internalType": "address",
          "name": "to",
          "type": "address"
        },
        {
          "internalType": "uint256",
          "name": "tokenId",
          "type": "uint256"
        },
        {
          "internalType": "bytes",
          "name": "data",
          "type": "bytes"
        }
      ],
      "name": "safeTransferFrom",
      "outputs": [],
      "stateMutability": "nonpayable",
      "type": "function"
    },
    {
      "inputs": [
        {
          "internalType": "address",
          "name": "operator",
          "type": "address"
        },
        {
          "internalType": "bool",
          "name": "approved",
          "type": "bool"
        }
      ],
      "name": "setApprovalForAll",
      "outputs": [],
      "stateMutability": "nonpayable",
      "type": "function"
    },
    {
      "inputs": [
        {
          "internalType": "address",
          "name": "blockFans",
          "type": "address"
        }
      ],
      "name": "setBlockFans",
      "outputs": [],
      "stateMutability": "nonpayable",
      "type": "function"
    },
    {
      "inputs": [
        {
          "internalType": "address",
          "name": "creatorsAddress",
          "type": "address"
        }
      ],
      "name": "setCreators",
      "outputs": [],
      "stateMutability": "nonpayable",
      "type": "function"
    },
    {
      "inputs": [
        {
          "internalType": "string",
          "name": "name",
          "type": "string"
        },
        {
          "internalType": "string",
          "name": "description",
          "type": "string"
        },
        {
          "internalType": "string",
          "name": "image",
          "type": "string"
        },
        {
          "internalType": "string",
          "name": "external_url",
          "type": "string"
        },
        {
          "internalType": "uint256",
          "name": "price",
          "type": "uint256"
        },
        {
          "internalType": "uint256",
          "name": "units",
          "type": "uint256"
        },
        {
          "internalType": "enum NFTSource.MediaType",
          "name": "mediaType",
          "type": "uint8"
        }
      ],
      "name": "setNFTSource",
      "outputs": [],
      "stateMutability": "nonpayable",
      "type": "function"
    },
    {
      "inputs": [
        {
          "internalType": "bytes4",
          "name": "interfaceId",
          "type": "bytes4"
        }
      ],
      "name": "supportsInterface",
      "outputs": [
        {
          "internalType": "bool",
          "name": "",
          "type": "bool"
        }
      ],
      "stateMutability": "view",
      "type": "function"
    },
    {
      "inputs": [],
      "name": "symbol",
      "outputs": [
        {
          "internalType": "string",
          "name": "",
          "type": "string"
        }
      ],
      "stateMutability": "view",
      "type": "function"
    },
    {
      "inputs": [
        {
          "internalType": "uint256",
          "name": "index",
          "type": "uint256"
        }
      ],
      "name": "tokenByIndex",
      "outputs": [
        {
          "internalType": "uint256",
          "name": "",
          "type": "uint256"
        }
      ],
      "stateMutability": "view",
      "type": "function"
    },
    {
      "inputs": [
        {
          "internalType": "address",
          "name": "owner",
          "type": "address"
        },
        {
          "internalType": "uint256",
          "name": "index",
          "type": "uint256"
        }
      ],
      "name": "tokenOfOwnerByIndex",
      "outputs": [
        {
          "internalType": "uint256",
          "name": "",
          "type": "uint256"
        }
      ],
      "stateMutability": "view",
      "type": "function"
    },
    {
      "inputs": [
        {
          "internalType": "uint256",
          "name": "tokenId",
          "type": "uint256"
        }
      ],
      "name": "tokenURI",
      "outputs": [
        {
          "internalType": "string",
          "name": "",
          "type": "string"
        }
      ],
      "stateMutability": "view",
      "type": "function"
    },
    {
      "inputs": [],
      "name": "totalSupply",
      "outputs": [
        {
          "internalType": "uint256",
          "name": "",
          "type": "uint256"
        }
      ],
      "stateMutability": "view",
      "type": "function"
    },
    {
      "inputs": [
        {
          "internalType": "address",
          "name": "from",
          "type": "address"
        },
        {
          "internalType": "address",
          "name": "to",
          "type": "address"
        },
        {
          "internalType": "uint256",
          "name": "tokenId",
          "type": "uint256"
        }
      ],
      "name": "transferFrom",
      "outputs": [],
      "stateMutability": "nonpayable",
      "type": "function"
    },
    {
      "inputs": [
        {
          "internalType": "address",
          "name": "newOwner",
          "type": "address"
        }
      ],
      "name": "transferOwnership",
      "outputs": [],
      "stateMutability": "nonpayable",
      "type": "function"
    },
    {
      "inputs": [
        {
          "internalType": "address",
          "name": "tokenAddress",
          "type": "address"
        },
        {
          "internalType": "uint256",
          "name": "amountOrTokenId",
          "type": "uint256"
        }
      ],
      "name": "withdraw",
      "outputs": [],
      "stateMutability": "nonpayable",
      "type": "function"
    },
    {
      "stateMutability": "payable",
      "type": "receive"
    }
  ],
  "bytecode": "0x608060405234620000265762000014620001cf565b604051613e23620005008239613e2390f35b600080fd5b634e487b7160e01b600052604160045260246000fd5b90601f01601f191681019081106001600160401b038211176200006357604052565b6200002b565b90620000806200007860405190565b928362000041565b565b6001600160401b0381116200006357602090601f01601f19160190565b90620000b5620000af8362000082565b62000069565b918252565b620000c6600c6200009f565b6b109b1bd8dad9985b9cd3919560a21b602082015290565b620000e8620000ba565b90565b620000f760036200009f565b6221232760e91b602082015290565b620000e8620000eb565b90600019905b9181191691161790565b620000e8620000e8620000e89290565b9062000144620000e86200014c9262000120565b825462000110565b9055565b62000160620000e8620000e89290565b6001600160a01b031690565b620000e89062000150565b620000e89062000160906001600160a01b031682565b620000e89062000177565b620000e8906200018d565b906001600160a01b039062000116565b90620001c7620000e86200014c9262000198565b8254620001a3565b620001ee620001dd620000de565b620001e762000106565b9062000259565b6200020960016200020181600f62000130565b601062000130565b62000080620002516200021d60006200016c565b620002346200022c8262000198565b600e620001b3565b6200024b620002438262000198565b600c620001b3565b62000198565b600d620001b3565b6200008091620002699162000274565b62000080336200049d565b620000809182918291906200046c565b634e487b7160e01b600052602260045260246000fd5b9060016002830492168015620002bd575b6020831014620002b757565b62000284565b91607f1691620002ab565b9160001960089290920291821b911b62000116565b9190620002f2620000e86200014c9362000120565b908354620002c8565b6200008091600091620002dd565b81811062000315575050565b80620003256000600193620002fb565b0162000309565b9190601f81116200033c57505050565b620003506200008093600052602060002090565b906020601f84018190048301931062000374575b6020601f90910104019062000309565b909150819062000364565b9062000389815190565b906001600160401b0382116200006357620003b182620003aa85546200029a565b856200032c565b602090601f8311600114620003f0576200014c929160009183620003e4575b5050600019600883021c1916906002021790565b015190503880620003d0565b601f198316916200040685600052602060002090565b9260005b81811062000447575091600293918560019694106200042d575b50505002019055565b01516000196008601f8516021c1916905538808062000424565b919360206001819287870151815501950192016200040a565b9062000080916200037f565b906200047e6200008092600062000460565b600162000460565b620000e89062000160565b620000e8905462000486565b620004a9600b62000491565b90620004b781600b620001b3565b620004ee620004e77f8be0079c531659141344cd1fd0a4f28419497f9722a3daafe3b4186f6b6457e09362000198565b9162000198565b91620004f960405190565b600090a356fe60806040526004361015610026575b361561001e5761001c611bb1565b005b61001c611bb1565b60003560e01c8062d39dc81461025557806301ffc9a71461025057806306b177fc1461024b57806306fdde0314610246578063081812fc14610241578063095ea7b31461023c57806315b684cf1461023757806318160ddd1461023257806323b872dd1461022d578063265aa621146102285780632f745c59146102235780633617d7cd1461021e578063426dd46d1461021957806342842e0e146102145780634f6ccce71461020f57806351ed82881461020a5780636352211e1461020557806366e39e8f1461020057806370a08231146101fb578063715018a6146101f65780638af462cc146101f15780638da5cb5b146101ec578063926061f0146101e757806395d89b41146101e2578063a22cb465146101dd578063abd48199146101d8578063b88d4fde146101d3578063ba908b45146101ce578063c87b56dd146101c9578063c909adc0146101c4578063de3278e5146101bf578063e985e9c5146101ba578063f2fde38b146101b5578063f3fef3a3146101b05763fa3157d50361000e57610e5d565b610e44565b610e2c565b610e10565b610dd2565b610db7565b610d90565b610d78565b610d5c565b610ced565b610b84565b610b31565b610b16565b610acf565b610ab7565b610a9f565b610a84565b610a5d565b6109db565b6109c3565b6109a8565b61098f565b610974565b61095c565b610940565b610909565b61067a565b61062e565b610616565b6105f8565b6105a0565b610579565b610531565b6104dc565b610480565b6001600160a01b031690565b90565b6001600160a01b0381165b0361027b57565b600080fd5b9050359061028d82610269565b565b9060208282031261027b5761026691610280565b9052565b60005b8381106102ba5750506000910152565b81810151838201526020016102aa565b6102eb6102f46020936102fe936102df815190565b80835293849260200190565b958691016102a7565b601f01601f191690565b0190565b634e487b7160e01b600052602160045260246000fd5b6006111561032257565b610302565b9061028d82610318565b61026690610327565b6102a390610331565b805182526020808201516001600160a01b0316908301529061026690610120806103bc6103aa610398610386610140870160408a015188820360408a01526102ca565b606089015187820360608901526102ca565b608088015186820360808801526102ca565b60a087015185820360a08701526102ca565b946103cc60c082015160c0860152565b6103db60e082015160e0860152565b6103ef61010082015161010086019061033a565b015191019061033a565b9061026691610343565b9061041961040f835190565b8083529160200190565b908161042b6020830284019460200190565b926000915b83831061043f57505050505090565b9091929394602061046261045b838560019503875289516103f9565b9760200190565b9301930191939290610430565b602080825261026692910190610403565b3461027b576104a761049b61049636600461028f565b612b4d565b6040519182918261046f565b0390f35b6001600160e01b03198116610274565b9050359061028d826104ab565b9060208282031261027b57610266916104bb565b3461027b576104a76104f76104f23660046104c8565b611bee565b6040515b91829182901515815260200190565b80610274565b9050359061028d8261050a565b9060208282031261027b5761026691610510565b3461027b576104a761054c61054736600461051d565b612ba2565b6040515b9182918290815260200190565b600091031261027b57565b6020808252610266929101906102ca565b3461027b5761058936600461055d565b6104a76105946111b2565b60405191829182610568565b3461027b576104a76105bb6105b636600461051d565b6112ef565b604051918291826001600160a01b03909116815260200190565b919060408382031261027b57610266906105ef8185610280565b93602001610510565b3461027b5761061161060b3660046105d5565b9061128e565b604051005b3461027b5761061161062936600461051d565b612c33565b3461027b5761063e36600461055d565b6104a761054c60095490565b909160608284031261027b576102666106638484610280565b936106718160208601610280565b93604001610510565b3461027b5761061161068d36600461064a565b916113ae565b6102666102666102669290565b906106aa90610693565b600052602052604060002090565b6102669081565b61026690546106b8565b634e487b7160e01b600052602260045260246000fd5b90600160028304921680156106ff575b60208310146106fa57565b6106c9565b91607f16916106ef565b8054600093929161072661071c836106df565b8085529360200190565b9160018116908115610778575060011461073f57505050565b6107529192939450600052602060002090565b916000925b8184106107645750500190565b805484840152602090930192600101610757565b92949550505060ff1916825215156020020190565b9061026691610709565b634e487b7160e01b600052604160045260246000fd5b90601f01601f1916810190811067ffffffffffffffff8211176107cf57604052565b610797565b9061028d6107ee926107e560405190565b9384809261078d565b03836107ad565b610266905b60ff1690565b61026690546107f5565b6108159060146106a0565b9061081f826106bf565b9161083460018201546001600160a01b031690565b91610841600283016107d4565b9161084e600382016107d4565b9161085b600483016107d4565b91610868600582016107d4565b91610266600761087a600685016106bf565b9301610800565b9360e0956108de6108ec926108d0886109029861028d9d9f9e9c976108fa996108b36108c39260006101008701960152565b6001600160a01b031660208d0152565b8a820360408c01526102ca565b9088820360608a01526102ca565b9086820360808801526102ca565b9084820360a08601526102ca565b9660c0830152565b019061033a565b3461027b576104a761092461091f36600461051d565b61080a565b9461093798969894919493929360405190565b98899889610881565b3461027b576104a761054c6109563660046105d5565b90611a97565b3461027b5761061161096f36600461051d565b61304e565b3461027b5761098436600461055d565b6104a761049b612aae565b3461027b576106116109a236600461064a565b916113ef565b3461027b576104a761054c6109be36600461051d565b611b6c565b3461027b576106116109d636600461051d565b61319e565b3461027b576104a76105bb6109f136600461051d565b61117b565b90610a16610a0f610a05845190565b8084529260200190565b9260200190565b9060005b818110610a275750505090565b909192610a44610a3d6001928651815260200190565b9460200190565b929101610a1a565b6020808252610266929101906109f6565b3461027b576104a7610a78610a7336600461028f565b612b36565b60405191829182610a4c565b3461027b576104a761054c610a9a36600461028f565b6110f2565b3461027b57610aaf36600461055d565b610611610ead565b3461027b57610611610aca36600461051d565b612fab565b3461027b57610adf36600461055d565b6104a76105bb600b546001600160a01b031690565b610266916008021c81565b906102669154610af4565b6102666000600f610aff565b3461027b57610b2636600461055d565b6104a761054c610b0a565b3461027b57610b4136600461055d565b6104a76105946111bc565b801515610274565b9050359061028d82610b4c565b919060408382031261027b5761026690610b7b8185610280565b93602001610b54565b3461027b57610611610b97366004610b61565b9061131c565b9061028d610baa60405190565b92836107ad565b67ffffffffffffffff81116107cf57602090601f01601f19160190565b90826000939282370152565b90929192610bef610bea82610bb1565b610b9d565b9381855260208501908284011161027b5761028d92610bce565b9080601f8301121561027b5781602061026693359101610bda565b6006111561027b57565b9050359061028d82610c24565b60e08183031261027b57803567ffffffffffffffff811161027b5782610c62918301610c09565b92602082013567ffffffffffffffff811161027b5783610c83918401610c09565b92604083013567ffffffffffffffff811161027b5781610ca4918501610c09565b92606081013567ffffffffffffffff811161027b5782610cc5918301610c09565b92610266610cd68460808501610510565b93610ce48160a08601610510565b9360c001610c2e565b3461027b57610611610d00366004610c3b565b959490949391936126ce565b9060808282031261027b57610d218183610280565b92610d2f8260208501610280565b92610d3d8360408301610510565b92606082013567ffffffffffffffff811161027b576102669201610c09565b3461027b57610611610d6f366004610d0c565b929190916113ff565b3461027b57610611610d8b36600461028f565b61239c565b3461027b576104a7610594610da636600461051d565b611cc2565b61026660006010610aff565b3461027b57610dc736600461055d565b6104a761054c610dab565b3461027b57610de236600461055d565b6104a7610a786128b0565b919060408382031261027b5761026690610e078185610280565b93602001610280565b3461027b576104a76104f7610e26366004610ded565b90611327565b3461027b57610611610e3f36600461028f565b610fce565b3461027b57610611610e573660046105d5565b90613de3565b3461027b57610611610e7036600461028f565b6123c4565b610e7d610f09565b61028d610e9b565b61025a6102666102669290565b61026690610e85565b61028d610ea86000610e92565b61102d565b61028d610e75565b15610ebc57565b60405162461bcd60e51b815280610f05600482016020808252818101527f4f776e61626c653a2063616c6c6572206973206e6f7420746865206f776e6572604082015260600190565b0390fd5b61028d610f1e600b546001600160a01b031690565b610f37610f2a3361025a565b916001600160a01b031690565b14610eb5565b61028d90610f49610f09565b610fa9565b15610f5557565b60405162461bcd60e51b815260206004820152602660248201527f4f776e61626c653a206e6577206f776e657220697320746865207a65726f206160448201526564647265737360d01b6064820152608490fd5b61028d90610ea8610fbd61025a6000610e92565b6001600160a01b0383161415610f4e565b61028d90610f3d565b906001600160a01b03905b9181191691161790565b6102669061025a906001600160a01b031682565b61026690610fec565b61026690611000565b9061102261026661102992611009565b8254610fd7565b9055565b600b546001600160a01b03169061104581600b611012565b6110786110727f8be0079c531659141344cd1fd0a4f28419497f9722a3daafe3b4186f6b6457e093611009565b91611009565b9161108260405190565b80805b0390a3565b1561109157565b60405162461bcd60e51b815260206004820152602960248201527f4552433732313a2061646472657373207a65726f206973206e6f7420612076616044820152683634b21037bbb732b960b91b6064820152608490fd5b906106aa90611009565b61112a61026691611101600090565b5061112361111261025a6000610e92565b6001600160a01b038316141561108a565b60036110e8565b6106bf565b1561113657565b60405162461bcd60e51b815260206004820152601860248201527f4552433732313a20696e76616c696420746f6b656e20494400000000000000006044820152606490fd5b6111889060005b5061149f565b61026661119861025a6000610e92565b6001600160a01b038316141561112f565b610266906107d4565b61026660006111a9565b61026660016111a9565b156111cd57565b60405162461bcd60e51b815260206004820152602160248201527f4552433732313a20617070726f76616c20746f2063757272656e74206f776e656044820152603960f91b6064820152608490fd5b1561122357565b60405162461bcd60e51b815260206004820152603d60248201527f4552433732313a20617070726f76652063616c6c6572206973206e6f7420746f60448201527f6b656e206f776e6572206f7220617070726f76656420666f7220616c6c0000006064820152608490fd5b9061028d916112d961129f8361117b565b6112bd6001600160a01b0382166001600160a01b03851614156111c6565b336001600160a01b03821681149182156112de575b505061121c565b61175b565b6112e89250611327565b38806112d2565b61130f610266916112fe600090565b5061130881611887565b60046106a0565b546001600160a01b031690565b61028d919033611811565b610266916113426113479261133a600090565b5060056110e8565b6110e8565b610800565b1561135357565b60405162461bcd60e51b815260206004820152602d60248201527f4552433732313a2063616c6c6572206973206e6f7420746f6b656e206f776e6560448201526c1c881bdc88185c1c1c9bdd9959609a1b6064820152608490fd5b61028d9291906113c66113c184336114b6565b61134c565b611631565b906113d8610bea83610bb1565b918252565b61026660006113cb565b6102666113dd565b909161028d926113fd6113e7565b925b61028d939291906114136113c184336114b6565b611480565b1561141f57565b6040515b62461bcd60e51b815260206004820152603260248201527f4552433732313a207472616e7366657220746f206e6f6e20455243373231526560448201527131b2b4bb32b91034b6b83632b6b2b73a32b960711b6064820152608490fd5b9161028d939161149a93611495838383611631565b611935565b611418565b61130f610266916114ae600090565b5060026106a0565b6114bf8261117b565b916001600160a01b0383166001600160a01b0383161492831561150c575b5082156114e957505090565b6115089192506114fb610f2a916112ef565b926001600160a01b031690565b1490565b6115199193508290611327565b91386114dd565b1561152757565b60405162461bcd60e51b815260206004820152602560248201527f4552433732313a207472616e736665722066726f6d20696e636f72726563742060448201526437bbb732b960d91b6064820152608490fd5b1561158157565b60405162461bcd60e51b8152602060048201526024808201527f4552433732313a207472616e7366657220746f20746865207a65726f206164646044820152637265737360e01b6064820152608490fd5b916001600160a01b0360089290920291821b911b610fe2565b91906115fc61026661102993611009565b9083546115d2565b61028d916000916115eb565b9060001990610fe2565b9061162a61026661102992610693565b8254611610565b919061165761163f8361117b565b6116516001600160a01b038616610f2a565b14611520565b6116fb600061167c61166b61025a83610e92565b6001600160a01b038516141561157a565b6116c46116896001610693565b916116968387878a612065565b6116b46116a28761117b565b6116516001600160a01b038a16610f2a565b6116bf8660046106a0565b611604565b6116eb6116f18460036113426116da8a836110e8565b6116eb876116e7836106bf565b0390565b9061161a565b916102fe836106bf565b61170f8161170a8460026106a0565b611012565b61174b61174561173f7fddf252ad1be2c89b69c2b068fc378daa952ba7f163c4a11628f55a4df523b3ef95611009565b92611009565b92610693565b9261175560405190565b600090a4565b9061176b8261170a8360046106a0565b6117748161117b565b9161174b61174561173f7f8c5be1e5ebec7d5bd14f71427d1e84f3dd0314c0f7b2291e5b200ac8c7c3b92595611009565b156117ac57565b60405162461bcd60e51b815260206004820152601960248201527f4552433732313a20617070726f766520746f2063616c6c6572000000000000006044820152606490fd5b9060ff90610fe2565b9061180a61026661102992151590565b82546117f1565b61182f6001600160a01b0383166001600160a01b03831614156117a5565b61184783611842846113428560056110e8565b6117fa565b61108561187d6118777f17307eab39ab6107e8899845ad3d59bd9653f200f220920489ca2b5937696c3193611009565b93611009565b936104fb60405190565b61189361028d91611898565b61112f565b6118a3906000611182565b6118b3610f2a61025a6000610e92565b141590565b9050519061028d826104ab565b9060208282031261027b57610266916118b8565b6001600160a01b039182168152911660208201526040810191909152608060608201819052610266929101906102ca565b6040513d6000823e3d90fd5b3d15611930576119253d6113cb565b903d6000602084013e565b606090565b91909392611941600090565b9461194b81611b9f565b15611a2d5790611992600061196a61196560209695611009565b611009565b9261199d63150b7a029161197b3390565b9661198560405190565b998a988997889660e01b90565b8652600486016118d9565b03925af1600091816119fd575b506119e057506119b8611916565b80516119cb6119c76000610693565b9190565b036119d857604051611423565b805190602001fd5b909150611508630a85bd0160e11b5b916001600160e01b03191690565b611a1f91925060203d8111611a26575b611a1781836107ad565b8101906118c5565b90386119aa565b503d611a0d565b5060019450505050565b15611a3e57565b60405162461bcd60e51b815260206004820152602b60248201527f455243373231456e756d657261626c653a206f776e657220696e646578206f7560448201526a74206f6620626f756e647360a81b6064820152608490fd5b61026691611ac861112a92611aaa600090565b50611ac1611aba610266836110f2565b8410611a37565b60076110e8565b6106a0565b15611ad457565b60405162461bcd60e51b815260206004820152602c60248201527f455243373231456e756d657261626c653a20676c6f62616c20696e646578206f60448201526b7574206f6620626f756e647360a01b6064820152608490fd5b634e487b7160e01b600052603260045260246000fd5b8054821015611b6757611b5e600191600052602060002090565b91020190600090565b611b2e565b611b9961026691611b7b600090565b50611b92611b8b61026660095490565b8210611acd565b6009611b44565b90610aff565b3b611bad6119c76000610693565b1190565b347f88a5966d370b9919b20f3e2c13ff65706f196a4e32cc2c12bf57088f88525874611be9611bdf33611009565b9261055060405190565b0390a2565b6102669063780e9d6360e01b6001600160e01b0319821614908115611c11575090565b6102669150611c3b565b611c2e611c286102669290565b60e01b90565b6001600160e01b03191690565b611c4b611c2e6349064906611c1b565b6001600160e01b0319821614908115611c62575090565b61026691506380ac58cd60e01b6001600160e01b0319821614908115611c97575b8115611c8d575090565b6102669150611cb2565b6001600160e01b03198116635b5e139f60e01b149150611c83565b6115086301ffc9a760e01b6119ef565b61026690611d00565b6102fe611ce392602092611cdd815190565b94859290565b938491016102a7565b611cfa906102669392611ccb565b90611ccb565b611d0981611887565b611d1c611d178260066106a0565b6111a9565b611d24611ddc565b8051600090611d356119c783610693565b14611d8857611d486119c7611745855190565b11611d5857505061026690611d8f565b6102669250611d7c9161026691611d6e60405190565b938492602084019283611cec565b908103825203826107ad565b5050905090565b611d9881611887565b611da0611ddc565b8051611daf6119c76000610693565b1115611dd257610266611d7c91611dc861026694611e35565b90611d6e60405190565b50506102666113e7565b60605b506102666113e7565b369037565b9061028d611e03611dfd846113cb565b93610bb1565b601f190160208401611de8565b634e487b7160e01b600052601260045260246000fd5b8115611e30570490565b611e10565b611e3e81611ec1565b90611e4e6001926102fe84610693565b9180611e5984611ded565b936020018401905b611e6c575b50505090565b611ea09060001901926f181899199a1a9b1b9c1cb0b131b232b360811b600a82061a8453611e9a600a610693565b90611e26565b9081611eaf6119c76000610693565b14611ebc57909181611e61565b611e66565b611ecb6000610693565b907a184f03e93ff9f4daa797ed6e38ed64bf6a1f010000000000000000611ef181610693565b821015612043575b506d04ee2d6d415b85acef8100000000611f1281610693565b821015612021575b50662386f26fc10000611f2c81610693565b821015611fff575b506305f5e100611f4381610693565b821015611fdd575b50612710611f5881610693565b821015611fbb575b506064611f6c81610693565b821015611f99575b50611f826119c7600a610693565b1015611f8b5790565b610266906102fe6001610693565b611fb491611e9a611fa992610693565b916102fe6002610693565b9038611f74565b611fd691611e9a611fcb92610693565b916102fe6004610693565b9038611f60565b611ff891611e9a611fed92610693565b916102fe6008610693565b9038611f4b565b61201a91611e9a61200f92610693565b916102fe6010610693565b9038611f34565b61203c91611e9a61203192610693565b916102fe6020610693565b9038611f1a565b61205e91611e9a61205392610693565b916102fe6040610693565b9038611ef9565b61028d939192916120796119c76001610693565b1161210f576120ad61208b6000610e92565b6001600160a01b0381166001600160a01b038416036120ec5761025a846121f9565b6001600160a01b038416036120c7575061028d915061231c565b6001600160a01b03166001600160a01b038316036120e3575050565b61028d91612172565b6001600160a01b0385166001600160a01b0384161461025a5761025a8484612251565b60405162461bcd60e51b815260206004820152603560248201527f455243373231456e756d657261626c653a20636f6e7365637574697665207472604482015274185b9cd9995c9cc81b9bdd081cdd5c1c1bdc9d1959605a1b6064820152608490fd5b6121978261219c61028d94612197611ac89561218d816110f2565b96879160076110e8565b61161a565b60086106a0565b9160001960089290920291821b911b610fe2565b91906121c861026661102993610693565b9083546121a3565b90815491600160401b8310156107cf57826121f391600161028d95018155611b44565b906121b7565b61028d90612218600961026661220d825490565b61219785600a6106a0565b6121d0565b634e487b7160e01b600052601160045260246000fd5b9190820391821161224057565b61221d565b61028d916000916121b7565b61229f61028d92611ac8600093611ac18561229f612281612271856110f2565b61227b6001610693565b90612233565b95600861229161112a83836106a0565b8881036122a4575b506106a0565b612245565b80612197886122d28c6121976122d896611ac86122ca61112a600795611ac889886110e8565b9586946110e8565b846106a0565b38612299565b634e487b7160e01b600052603160045260246000fd5b8054801561231757600019019061231461230e8383611b44565b90612245565b55565b6122de565b61236a61028d91610266600061229f600993612339612271865490565b611ac8600a9161219761235c611b9961235561112a88886106a0565b938b611b44565b6122d2816121f3858d611b44565b6122f4565b61028d9061237b610f09565b61239561028d9161196561238e82611009565b600e611012565b600c611012565b61028d9061236f565b61028d906123b1610f09565b6123bd61028d91611009565b600d611012565b61028d906123a5565b9050519061028d82610b4c565b9060208282031261027b57610266916123cd565b156123f557565b60405162461bcd60e51b815260206004820152600d60248201526c2737ba10309031b932b0ba37b960991b6044820152606490fd5b60001981146122405760010190565b610266610140610b9d565b906102a390610327565b634e487b7160e01b600052600060045260246000fd5b81811061246f575050565b8061247d6000600193612245565b01612464565b9190601f811161249257505050565b6124a461028d93600052602060002090565b906020601f8401819004830193106124c7575b6020601f909101045b0190612464565b90915081906124b7565b600019600883021c1916906002021790565b906124ec815190565b9067ffffffffffffffff82116107cf576125108261250a85546106df565b85612483565b602090601f831160011461253e57611029929160009183612533575b50506124d1565b01519050388061252c565b601f1983169161255385600052602060002090565b9260005b81811061259157509160029391856001969410612578575b50505002019055565b01516000196008601f8516021c1916905538808061256f565b91936020600181928787015181550195019201612557565b9061028d916124e3565b6102669051610327565b9061180a61026661102992610331565b9061ff009060081b610fe2565b906125ea61026661102992610331565b82546125cd565b61028d91906126be906101209060089061260d816116eb875190565b61262e6001820161262860208801516001600160a01b031690565b90611012565b61264660028201612640604088015190565b906125a9565b61265860038201612640606088015190565b61266a60048201612640608088015190565b61267c6005820161264060a088015190565b61268e600682016116eb60c088015190565b6126a0600782016116eb60e088015190565b01926126b86126b261010083016125b3565b856125bd565b016125b3565b906125da565b9061028d916125f1565b93959195949092946126eb611965600d546001600160a01b031690565b9561270a602063efd46065339961270160405190565b93849260e01b90565b82526001600160a01b038b16600483015260249082905afa80156128265761273a916000916127f8575b506123ee565b612744600f6106bf565b9761274e8961242a565b61275990600f61161a565b600095612764612439565b9761276f8b898b0152565b6001600160a01b038a1660208a015260408901526060880152608087015260a086015260c085015260e08401526127aa906101008401612444565b6127b8906101208301612444565b6127c38360116106a0565b906127cd916126c4565b816127d98260126110e8565b906127e3916121d0565b6127ee9060136110e8565b9061028d916121d0565b612819915060203d811161281f575b61281181836107ad565b8101906123da565b38612734565b503d612807565b61190a565b9061284661283a610a05845490565b92600052602060002090565b9060005b8181106128575750505090565b90919261287b61287460019261286c876106bf565b815260200190565b9460010190565b92910161284a565b906102669161282b565b9061028d6107ee9261289e60405190565b93848092612883565b6102669061288d565b6102666128be3360126110e8565b6128a7565b67ffffffffffffffff81116107cf5760208091020190565b906113d8610bea836128c3565b6128f0612439565b906000825260208080808080808080808b01600081520160608152016060815201606081520160608152016000815201600081520160008152016000905250565b6102666128e8565b60005b82811061294857505050565b602090612953612931565b818401520161293c565b9061028d61297361296d846128db565b936128c3565b601f190160208401612939565b90612989825190565b811015611b67576020809102010190565b6102669060081c6107fa565b610266905461299a565b9061028d612a9b60086129c1612439565b946129d26129ce826106bf565b8752565b6129f96129e960018301546001600160a01b031690565b6001600160a01b03166020880152565b612a0f612a08600283016107d4565b6040880152565b612a25612a1e600383016107d4565b6060880152565b612a3b612a34600483016107d4565b6080880152565b612a51612a4a600583016107d4565b60a0880152565b612a67612a60600683016106bf565b60c0880152565b612a7d612a76600783016106bf565b60e0880152565b612a95612a8b838301610800565b6101008801612444565b016129a6565b6101208401612444565b610266906129b0565b612abc6128be3360126110e8565b612acc612ac7825190565b61295d565b90612ad76000610693565b612ae2610266835190565b811015612b3157612b2c90612b11612b0c6011612b06612b028588612980565b5190565b906106a0565b612aa5565b612b1b8286612980565b52612b268185612980565b5061242a565b612ad7565b505090565b6128be61026691612b45606090565b5060136110e8565b6128be612b5c91612b45606090565b612b67612ac7825190565b90612b726000610693565b612b7d610266835190565b811015612b3157612b9d90612b11612b0c6011612b06612b028588612980565b612b72565b61112a61026691612bb1600090565b5060156106a0565b15612bc057565b60405162461bcd60e51b815260206004820152600f60248201526e2737ba103a34329031b932b0ba37b960891b6044820152606490fd5b15612bfe57565b60405162461bcd60e51b815260206004820152600d60248201526c4e6f7420417661696c61626c6560981b6044820152606490fd5b61028d906011612cb6612c596001612c4b85856106a0565b01546001600160a01b031690565b339290612c6f90612c6985610f2a565b14612bb9565b612c7e6008612a9586846106a0565b612c91612c8b6000610327565b91610327565b148015612cbb575b612ca290612bf7565b6008612cb0856003936106a0565b016125da565b612ce3565b50612ca2612cce6008612a9587856106a0565b612cdb612c8b6001610327565b149050612c99565b6013612cf6612cf283836110e8565b5490565b612d006000610693565b81811015612d7657612d1e611b9982612d1987876110e8565b611b44565b8514612d3257612d2d9061242a565b612d00565b61028d945091611342610266936121f3612d6b611b998896612d65612d5a61236a9b896110e8565b9161227b6001610693565b90611b44565b91612d1986866110e8565b5050505050565b90612d9090600019906020036008021c90565b8154169055565b90600091612db5612dad82600052602060002090565b9283546124d1565b905555565b9192906020821015612e1257601f8411600114612ddc576110299293506124d1565b5090612e0d61028d936001612e04612df985600052602060002090565b92601f602091010490565b82019101612464565b612d97565b50612e4b8293612e29600194600052602060002090565b6124c06020601f860104820192601f861680612e53575b50601f602091010490565b600202179055565b612e5f90888603612d7d565b38612e40565b929091600160401b82116107cf5760201115612eac576020811015612e8d57611029916124d1565b60019160ff1916612ea384600052602060002090565b55600202019055565b60019150600202019055565b908154612ec4816106df565b90818311612eed575b818310612edb575b50505050565b612ee493612dba565b38808080612ed5565b612ef983838387612e65565b612ecd565b8181029291811591840414171561224057565b600061028d91612eb8565b90600003612f2d5761028d90612f11565b61244e565b600090600890612f428382612245565b826001820155612f558360028301612f1c565b612f628360038301612f1c565b612f6f8360048301612f1c565b612f7c8360058301612f1c565b612f898360068301612245565b612f968360078301612245565b0155565b90600003612f2d5761028d90612f32565b61028d9060116130036000612ffe84612fc96001612c4b83886106a0565b339590612fd990612c6988610f2a565b611ac8612feb6008612a9585856106a0565b612ff8612c8b6003610327565b14612bf7565b612f9a565b612cb682826012613017612cf283836110e8565b6130216000610693565b81811015612d765761303a611b9982612d1987876110e8565b8514612d32576130499061242a565b613021565b61028d90612218610266601161308a61306c6001612c4b87856106a0565b33929061307c90612c6985610f2a565b6008612cb0876001936106a0565b60136110e8565b1561309857565b60405162461bcd60e51b815260206004820152600860248201526714dbdb190813dd5d60c21b6044820152606490fd5b9050519061028d8261050a565b9060208282031261027b57610266916130c8565b156130f057565b60405162461bcd60e51b8152602060048201526011602482015270105b1b1bddd85b98d9481b9bdd081cd95d607a1b6044820152606490fd5b6102a390611009565b6001600160a01b03909116815260608101939261028d92909160409161315c906020830190613129565b0152565b1561316757565b60405162461bcd60e51b815260206004820152600f60248201526e151c985b9cd9995c8819985a5b1959608a1b6044820152606490fd5b6131ac6102668260116106a0565b6015916131bc61112a82856106a0565b6131d960078401916131d36119c7610266856106bf565b10613091565b61325b60088401926131fa6131ed856129a6565b612ff8612c8b6001610327565b61320f611965600c546001600160a01b031690565b94602063dd62ed3e339761323c61322530611009565b9261322f60405190565b9788948593849360e01b90565b83526001600160a01b03808e1660048501521660248301526044820190565b03915afa928315612826576000936133d9575b506006602091016132ab613281826106bf565b946132a46119c7610266670de0b6b3a76400009861329e8a610693565b90612efe565b10156130e9565b6132c0611965600c546001600160a01b031690565b61330c60006132f26323b872dd9761329e6132ec6132e6600e546001600160a01b031690565b976106bf565b91610693565b966133186132ff60405190565b9889968795869460e01b90565b84528d60048501613132565b03925af19081156128265761336e61112a610266926133466119c795613374976000916133bb575b50613160565b61334f816134c1565b99611ac861335d83836106a0565b6116eb613369826106bf565b61242a565b936106bf565b10156133a9575b50611be9611bdf7fdbd06c5b09e89a22b08c07aa17dfc71d3f3741d98ad99285be427c36017340e692611009565b6133b5906002906125da565b3861337b565b6133d3915060203d811161281f5761281181836107ad565b38613340565b60209193506133ff600691833d8111613407575b6133f781836107ad565b8101906130d5565b93915061326e565b503d6133ed565b610266610100610b9d565b61028d91906134b19060e090600790613434816116eb875190565b61344f6001820161262860208801516001600160a01b031690565b61346160028201612640604088015190565b61347360038201612640606088015190565b61348560048201612640608088015190565b6134976005820161264060a088015190565b6134a9600682016116eb60c088015190565b0192016125b3565b906125bd565b9061028d91613419565b6134cc9060116106a0565b6134d590612aa5565b6134df60106106bf565b906134e98261242a565b6134f490601061161a565b60208101516001600160a01b0316906040810151906060810151608082015160a08301519160c08401613525905190565b9361010001613533906125b3565b9461353c61340e565b96613545898952565b6001600160a01b0316602088015260408701526060860152608085015260a084015260c08301526135799060e08301612444565b806135858360146106a0565b9061358f916134b7565b613599823361367b565b60208101516001600160a01b031690604081015190606081015160808201519060a08301519260e0016135cb906125b3565b936135d595613911565b6102669082613756565b156135e657565b60405162461bcd60e51b815280610f05600482016020808252818101527f4552433732313a206d696e7420746f20746865207a65726f2061646472657373604082015260600190565b1561363657565b60405162461bcd60e51b815260206004820152601c60248201527f4552433732313a20746f6b656e20616c7265616479206d696e746564000000006044820152606490fd5b906136866000610e92565b916136a56001600160a01b0384166001600160a01b03831614156135df565b6136bd6136b86136b484611898565b1590565b61362f565b6116fb6136ca6001610693565b6136d681858588612065565b6136e56136b86136b486611898565b6116eb6116f18460036110e8565b156136fa57565b60405162461bcd60e51b815260206004820152602e60248201527f45524337323155524953746f726167653a2055524920736574206f66206e6f6e60448201526d32bc34b9ba32b73a103a37b5b2b760911b6064820152608490fd5b9061377c9061376c61376784611898565b6136f3565b6137778360066106a0565b6125a9565b6137aa7ff8e1a15aba9398e019f0b49df1a4fde98ee17ae345cb5f6b5e2c27f5033e8ce79161055060405190565b0390a1565b6102a3906001600160a01b031660601b90565b6137ce6102a391610331565b60f81b90565b61385b6138d496611cfa61389861385b600199611cfa61388361385b6102669f9c611cfa61386861385b6138399f6138cd9f6138b49f6014611cfa92613839613832613847946b3d9131b932b0ba37b9111d1160a11b8152600c0190565b80926137af565b01601160f91b815260010190565b67113730b6b2911d1160c11b815260080190565b601160f91b815260010190565b6e113232b9b1b934b83a34b7b7111d1160891b8152600f0190565b681134b6b0b3b2911d1160b91b815260090190565b6f1132bc3a32b93730b62fbab936111d1160811b815260100190565b6c1136b2b234b0aa3cb832911d1160991b8152600d0190565b80926137c2565b607d60f81b815260010190565b7f646174613a6170706c69636174696f6e2f6a736f6e3b6261736536342c00000081526102669190601d01611cfa565b611d7c610266966139409661393b9596613929606090565b506040519788966020880196876137d4565b6139d2565b61026661394c60405190565b8092611d7c6020830191826138e1565b61396660406113cb565b7f4142434445464748494a4b4c4d4e4f505152535455565758595a61626364656660208201527f6768696a6b6c6d6e6f707172737475767778797a303132333435363738392b2f604082015290565b61026661395c565b6102666139b5565b9190820180921161224057565b80516139e16119c76000610693565b14611ddf576139ee6139bd565b9060046139f9825190565b906001613a34613a2f613a17600295613a1187610693565b906139c5565b93613a2a6132ec600396611e9a88610693565b612efe565b611ded565b9401926020850193819082518301915b828110613a7f5750505051069081600114613a6f5750600214613a65575090565b6001603d91035390565b905081603d600181940353035390565b84600191979293970191603f828080865194848660121c168901518153018385600c1c16880151815301828460061c168701518153019116840151815301959190613a44565b9061028d91613ad2610f09565b613b70565b6001600160a01b03909116815260408101929161028d9160200152565b6001600160a01b0391821681529116602082015260608101929161028d9160400152565b15613b1f57565b60405162461bcd60e51b8152602060048201526024808201527f496e73756666696369656e74204554482062616c616e636520696e20636f6e746044820152631c9858dd60e21b6064820152608490fd5b906000613b7f61025a82610e92565b6001600160a01b03841603613c1857613ba4613b9a30611009565b8390311015613b18565b80808084613bc0611965611965600b546001600160a01b031690565b828215613c0f575bf115612826577ffff3b3844276f57024e0b42afec1a37f75db36511e43819a4f2a63ab7862b64890613bf933611009565b92611be9613c0660405190565b92839283613ad7565b506108fc613bc8565b816020613c2761196586611009565b63a9059cbb90613c5d85613c43600b546001600160a01b031690565b93613c68613c5060405190565b9788968795869460e01b90565b845260048401613ad7565b03925af19081613dc7575b50158114613d9b57613c8761196584611009565b6342842e0e613c9530611009565b600b546001600160a01b031692803b1561027b57613cc9858094613cd489613cbc60405190565b9889978896879560e01b90565b855260048501613af4565b03925af19081613d6f575b501514613d445760405162461bcd60e51b815260206004820152603060248201527f546f6b656e2074797065206e6f7420737570706f72746564206f7220696e737560448201526f6666696369656e742062616c616e636560801b6064820152608490fd5b7ffff3b3844276f57024e0b42afec1a37f75db36511e43819a4f2a63ab7862b64890613bf933611009565b613d8e90833d8511613d94575b613d8681836107ad565b81019061055d565b38613cdf565b503d613d7c565b507ffff3b3844276f57024e0b42afec1a37f75db36511e43819a4f2a63ab7862b64890613bf933611009565b613dde9060203d811161281f5761281181836107ad565b613c73565b9061028d91613ac556fea26469706673582212209bae74542872fa4589ac033fafcb6ebcb268513dbb7958e9cbb4b105979890b264736f6c63430008130033",
  "linkReferences": {},
  "deployedLinkReferences": {}
}