{
  "_format": "hh-sol-artifact-1",
  "contractName": "Creators",
  "sourceName": "contracts/Creators.sol",
  "abi": [
    {
      "inputs": [],
      "stateMutability": "nonpayable",
      "type": "constructor"
    },
    {
      "anonymous": false,
      "inputs": [
        {
          "indexed": true,
          "internalType": "address",
          "name": "previousOwner",
          "type": "address"
        },
        {
          "indexed": true,
          "internalType": "address",
          "name": "newOwner",
          "type": "address"
        }
      ],
      "name": "OwnershipTransferred",
      "type": "event"
    },
    {
      "anonymous": false,
      "inputs": [
        {
          "indexed": true,
          "internalType": "address",
          "name": "from",
          "type": "address"
        },
        {
          "indexed": false,
          "internalType": "uint256",
          "name": "amount",
          "type": "uint256"
        }
      ],
      "name": "Received",
      "type": "event"
    },
    {
      "anonymous": false,
      "inputs": [
        {
          "indexed": false,
          "internalType": "address",
          "name": "sender",
          "type": "address"
        },
        {
          "indexed": false,
          "internalType": "address",
          "name": "tokenAddress",
          "type": "address"
        },
        {
          "indexed": false,
          "internalType": "uint256",
          "name": "amountOrTokenId",
          "type": "uint256"
        }
      ],
      "name": "Recovered",
      "type": "event"
    },
    {
      "stateMutability": "payable",
      "type": "fallback"
    },
    {
      "inputs": [
        {
          "internalType": "address",
          "name": "creatorAddress",
          "type": "address"
        },
        {
          "internalType": "string",
          "name": "name",
          "type": "string"
        },
        {
          "internalType": "string",
          "name": "description",
          "type": "string"
        },
        {
          "internalType": "string",
          "name": "location",
          "type": "string"
        },
        {
          "internalType": "enum Creator.Rating",
          "name": "rating",
          "type": "uint8"
        },
        {
          "internalType": "enum Creator.Status",
          "name": "status",
          "type": "uint8"
        }
      ],
      "name": "addCreator",
      "outputs": [],
      "stateMutability": "nonpayable",
      "type": "function"
    },
    {
      "inputs": [
        {
          "internalType": "address",
          "name": "creatorAddress",
          "type": "address"
        },
        {
          "internalType": "enum Creator.Status",
          "name": "newStatus",
          "type": "uint8"
        }
      ],
      "name": "changeCreatorStatus",
      "outputs": [],
      "stateMutability": "nonpayable",
      "type": "function"
    },
    {
      "inputs": [],
      "name": "getCreators",
      "outputs": [
        {
          "internalType": "address[]",
          "name": "",
          "type": "address[]"
        }
      ],
      "stateMutability": "view",
      "type": "function"
    },
    {
      "inputs": [
        {
          "internalType": "address",
          "name": "user",
          "type": "address"
        }
      ],
      "name": "isCreator",
      "outputs": [
        {
          "internalType": "bool",
          "name": "",
          "type": "bool"
        }
      ],
      "stateMutability": "view",
      "type": "function"
    },
    {
      "inputs": [],
      "name": "owner",
      "outputs": [
        {
          "internalType": "address",
          "name": "",
          "type": "address"
        }
      ],
      "stateMutability": "view",
      "type": "function"
    },
    {
      "inputs": [],
      "name": "renounceOwnership",
      "outputs": [],
      "stateMutability": "nonpayable",
      "type": "function"
    },
    {
      "inputs": [
        {
          "internalType": "address",
          "name": "creatorsNFTAddress",
          "type": "address"
        }
      ],
      "name": "setCreatorsNFT",
      "outputs": [],
      "stateMutability": "nonpayable",
      "type": "function"
    },
    {
      "inputs": [
        {
          "internalType": "address",
          "name": "LockeekAddress",
          "type": "address"
        }
      ],
      "name": "setLockeek",
      "outputs": [],
      "stateMutability": "nonpayable",
      "type": "function"
    },
    {
      "inputs": [
        {
          "internalType": "address",
          "name": "newOwner",
          "type": "address"
        }
      ],
      "name": "transferOwnership",
      "outputs": [],
      "stateMutability": "nonpayable",
      "type": "function"
    },
    {
      "inputs": [
        {
          "internalType": "address",
          "name": "tokenAddress",
          "type": "address"
        },
        {
          "internalType": "uint256",
          "name": "amountOrTokenId",
          "type": "uint256"
        }
      ],
      "name": "withdraw",
      "outputs": [],
      "stateMutability": "nonpayable",
      "type": "function"
    },
    {
      "stateMutability": "payable",
      "type": "receive"
    }
  ],
  "bytecode": "0x608060405234620000265762000014620000b5565b60405161132062000180823961132090f35b600080fd5b6200003e6200003b6200003b9290565b90565b6001600160a01b031690565b6200003b906200002b565b6200003b906200003e906001600160a01b031682565b6200003b9062000055565b6200003b906200006b565b90620000956200003b620000b19262000076565b82546001600160a01b0319166001600160a01b03919091161790565b9055565b620000bf620000fa565b620000f8620000f0620000d360006200004a565b620000ea620000e28262000076565b600162000081565b62000076565b600262000081565b565b620000f880336200011d565b6200003b906200003e565b6200003b905462000106565b62000129600062000111565b906200013781600062000081565b6200016e620001677f8be0079c531659141344cd1fd0a4f28419497f9722a3daafe3b4186f6b6457e09362000076565b9162000076565b916200017960405190565b600090a356fe60806040526004361015610026575b361561001e5761001c6106d1565b005b61001c6106d1565b60003560e01c80635cfac830146100c657806364f00320146100c1578063715018a6146100bc5780638da5cb5b146100b7578063a6d9fdf1146100b2578063ae587f9f146100ad578063e6adc1ee146100a8578063efd46065146100a3578063f2fde38b1461009e5763f3fef3a30361000e576104a5565b610457565b61042a565b610403565b61037b565b610363565b610310565b6102f4565b6102ca565b61013a565b6001600160a01b031690565b90565b6001600160a01b0381165b036100ec57565b600080fd5b905035906100fe826100da565b565b600611156100ec57565b905035906100fe82610100565b91906040838203126100ec576100d79061013181856100f1565b9360200161010a565b346100ec5761015361014d366004610117565b90610d0c565b604051005b0390f35b634e487b7160e01b600052604160045260246000fd5b90601f01601f1916810190811067ffffffffffffffff82111761019457604052565b61015c565b906100fe6101a660405190565b9283610172565b67ffffffffffffffff811161019457602090601f01601f19160190565b90826000939282370152565b909291926101eb6101e6826101ad565b610199565b938185526020850190828401116100ec576100fe926101ca565b9080601f830112156100ec578160206100d7933591016101d6565b600511156100ec57565b905035906100fe82610220565b909160c0828403126100ec5761024d83836100f1565b92602083013567ffffffffffffffff81116100ec578161026e918501610205565b92604081013567ffffffffffffffff81116100ec578261028f918301610205565b92606082013567ffffffffffffffff81116100ec576102b3846100d7928501610205565b936102c1816080860161022a565b9360a00161010a565b346100ec576101536102dd366004610237565b94939093929192610bc1565b60009103126100ec57565b346100ec576103043660046102e9565b6101536104f6565b9052565b346100ec576103203660046102e9565b6101586103356000546001600160a01b031690565b604051918291826001600160a01b03909116815260200190565b906020828203126100ec576100d7916100f1565b346100ec5761015361037636600461034f565b61073a565b346100ec5761015361038e36600461034f565b610762565b906103b36103ac6103a2845190565b8084529260200190565b9260200190565b9060005b8181106103c45750505090565b9091926103ea6103e360019286516001600160a01b0316815260200190565b9460200190565b9291016103b7565b60208082526100d792910190610393565b346100ec576104133660046102e9565b61015861041e610f3c565b604051918291826103f2565b346100ec5761015861044561044036600461034f565b610f46565b60405191829182901515815260200190565b346100ec5761015361046a36600461034f565b610617565b806100e5565b905035906100fe8261046f565b91906040838203126100ec576100d79061049c81856100f1565b93602001610475565b346100ec576101536104b8366004610482565b906112e0565b6104c6610552565b6100fe6104e4565b6100cb6100d76100d79290565b6100d7906104ce565b6100fe6104f160006104db565b610676565b6100fe6104be565b1561050557565b60405162461bcd60e51b81528061054e600482016020808252818101527f4f776e61626c653a2063616c6c6572206973206e6f7420746865206f776e6572604082015260600190565b0390fd5b6100fe6105676000546001600160a01b031690565b610580610573336100cb565b916001600160a01b031690565b146104fe565b6100fe90610592610552565b6105f2565b1561059e57565b60405162461bcd60e51b815260206004820152602660248201527f4f776e61626c653a206e6577206f776e657220697320746865207a65726f206160448201526564647265737360d01b6064820152608490fd5b6100fe906104f16106066100cb60006104db565b6001600160a01b0383161415610597565b6100fe90610586565b906001600160a01b03905b9181191691161790565b6100d7906100cb906001600160a01b031682565b6100d790610635565b6100d790610649565b9061066b6100d761067292610652565b8254610620565b9055565b6000546001600160a01b03169061068e81600061065b565b6106c16106bb7f8be0079c531659141344cd1fd0a4f28419497f9722a3daafe3b4186f6b6457e093610652565b91610652565b916106cb60405190565b600090a3565b347f88a5966d370b9919b20f3e2c13ff65706f196a4e32cc2c12bf57088f885258746107166106ff33610652565b9261070960405190565b9182918290815260200190565b0390a2565b6100fe90610727610552565b6107336100fe91610652565b600161065b565b6100fe9061071b565b6100fe9061074f610552565b61075b6100fe91610652565b600261065b565b6100fe90610743565b906100fe959493929161077c610552565b610b46565b6100d760a0610199565b634e487b7160e01b600052602160045260246000fd5b600511156107ab57565b61078b565b906100fe826107a1565b9061030c906107b0565b600611156107ab57565b906100fe826107c4565b9061030c906107ce565b906107ec90610652565b600052602052604060002090565b634e487b7160e01b600052602260045260246000fd5b9060016002830492168015610830575b602083101461082b57565b6107fa565b91607f1691610820565b9160001960089290920291821b911b61062b565b6100d76100d76100d79290565b919061086c6100d76106729361084e565b90835461083a565b6100fe9160009161085b565b81811061088b575050565b806108996000600193610874565b01610880565b9190601f81116108ae57505050565b6108c06100fe93600052602060002090565b906020601f8401819004830193106108e2575b6020601f909101040190610880565b90915081906108d3565b906108f5815190565b9067ffffffffffffffff821161019457610919826109138554610810565b8561089f565b602090601f831160011461095457610672929160009183610949575b5050600019600883021c1916906002021790565b015190503880610935565b601f1983169161096985600052602060002090565b9260005b8181106109a75750916002939185600196941061098e575b50505002019055565b01516000196008601f8516021c19169055388080610985565b9193602060018192878701518155019501920161096d565b906100fe916108ec565b6100d790516107b0565b9060ff9061062b565b6100d7906107b0565b906109f56100d7610672926109dc565b82546109d3565b6100d790516107ce565b9061ff009060081b61062b565b6100d7906107ce565b90610a2c6100d761067292610a13565b8254610a06565b90610a98608060036100fe94610a5760008201610a51600088015190565b906109bf565b610a6960018201610a51602088015190565b610a7b60028201610a51604088015190565b0192610a92610a8c606083016109c9565b856109e5565b016109fc565b90610a1c565b906100fe91610a33565b634e487b7160e01b600052603260045260246000fd5b8054821015610ae157610ad8600191600052602060002090565b91020190600090565b610aa8565b916001600160a01b0360089290920291821b911b61062b565b9190610b106100d761067293610652565b908354610ae6565b90815491680100000000000000008310156101945782610b409160016100fe95018155610abe565b90610aff565b9493610b75610b9b94610b6e610b7e9495610b67610b62610781565b978852565b6020870152565b6040850152565b606083016107ba565b610b8b83608083016107d8565b610b968460046107e2565b610a9e565b610bae610ba860026107ce565b916107ce565b14610bb65750565b6100fe906003610b18565b906100fe959493929161076b565b906100fe91610bdc610552565b610c4f565b6100d79060081c60ff1690565b6100d79054610be1565b610c056100d76100d79290565b6107ce565b15610c1157565b60405162461bcd60e51b815260206004820152601660248201527510dc99585d1bdc88191bd95cc81b9bdd08195e1a5cdd60521b6044820152606490fd5b906003610cb96100fe936004610c89610c7285610c6c85856107e2565b01610bee565b610c82610ba8610c056000610bf8565b1415610c0a565b6002610c94816107ce565b610c9d876107ce565b1480610cf6575b15610cbf5750610cb48285610b18565b6107e2565b01610a1c565b610cc8906107ce565b610cd1866107ce565b141580610ce7575b156107e257610cb482610e15565b50610cf182610d58565b610cd9565b50610d07610d0384610d58565b1590565b610ca4565b906100fe91610bcf565b634e487b7160e01b600052601160045260246000fd5b6000198114610d3b5760010190565b610d16565b6100d7916008021c6100cb565b906100d79154610d40565b600090610d648261084e565b6003610d716100d7825490565b821015610db857610d8582610d8b92610abe565b90610d4d565b610d9d6001600160a01b038416610573565b14610db057610dab90610d2c565b610d64565b505050600190565b50505090565b91908203918211610d3b57565b634e487b7160e01b600052603160045260246000fd5b6100fe91600091610aff565b80548015610e10576000190190610e0d610e078383610abe565b90610de1565b55565b610dcb565b60038054610e23600061084e565b81811015610e9957610e38610d858285610abe565b610e4a6001600160a01b038616610573565b14610e5d57610e5890610d2c565b610e23565b6100fe93506100d790610b40610e8d610d85610e87610e949796610e81600161084e565b90610dbe565b86610abe565b9184610abe565b610ded565b50505050565b90610eba610eae6103a2845490565b92600052602060002090565b9060005b818110610ecb5750505090565b909192610f00610ef9600192610ee887546001600160a01b031690565b6001600160a01b0316815260200190565b9460010190565b929101610ebe565b906100d791610e9f565b906100fe610f2c92610f2360405190565b93848092610f08565b0383610172565b6100d790610f12565b6100d76003610f33565b6003610c6c610f5f92610f57600090565b5060046107e2565b610f6c610ba860026107ce565b1490565b906100fe91610f7d610552565b611050565b8015156100e5565b905051906100fe82610f82565b906020828203126100ec576100d791610f8a565b6001600160a01b0390911681526040810192916100fe9160200152565b6040513d6000823e3d90fd5b6001600160a01b039182168152911660208201526060810192916100fe9160400152565b15610fff57565b60405162461bcd60e51b8152602060048201526024808201527f496e73756666696369656e74204554482062616c616e636520696e20636f6e746044820152631c9858dd60e21b6064820152608490fd5b600061105e6100cb826104db565b6001600160a01b038316036110fd5761108361107930610652565b8490311015610ff8565b808080856110a461109f61109f6000546001600160a01b031690565b610652565b8282156110f4575bf1156110ef57336110ea7ffff3b3844276f57024e0b42afec1a37f75db36511e43819a4f2a63ab7862b648936110e160405190565b93849384610fd4565b0390a1565b610fc8565b506108fc6110ac565b82602061110c61109f85610652565b63a9059cbb90611142856111286000546001600160a01b031690565b9361114d61113560405190565b9788968795869460e01b90565b845260048401610fab565b03925af190816112b4575b501581146112845761116c61109f83610652565b6342842e0e61117a30610652565b6000546001600160a01b031692803b156100ec576111ae8580946111b98a6111a160405190565b9889978896879560e01b90565b855260048501610fd4565b03925af19081611258575b5015146112295760405162461bcd60e51b815260206004820152603060248201527f546f6b656e2074797065206e6f7420737570706f72746564206f7220696e737560448201526f6666696369656e742062616c616e636560801b6064820152608490fd5b336110ea7ffff3b3844276f57024e0b42afec1a37f75db36511e43819a4f2a63ab7862b648936110e160405190565b61127790833d851161127d575b61126f8183610172565b8101906102e9565b386111c4565b503d611265565b50336110ea7ffff3b3844276f57024e0b42afec1a37f75db36511e43819a4f2a63ab7862b648936110e160405190565b6112d49060203d81116112d9575b6112cc8183610172565b810190610f97565b611158565b503d6112c2565b906100fe91610f7056fea2646970667358221220c1ca93b0a0303e0a9b1226610384696dea9a29dfc904e7561ecf9bb526c04eb064736f6c63430008130033",
  "linkReferences": {},
  "deployedLinkReferences": {}
}