{
  "_format": "hh-sol-artifact-1",
  "contractName": "CreatorsNFT",
  "sourceName": "contracts/CreatorsNFT.sol",
  "abi": [
    {
      "inputs": [],
      "stateMutability": "nonpayable",
      "type": "constructor"
    },
    {
      "anonymous": false,
      "inputs": [
        {
          "indexed": true,
          "internalType": "address",
          "name": "owner",
          "type": "address"
        },
        {
          "indexed": true,
          "internalType": "address",
          "name": "approved",
          "type": "address"
        },
        {
          "indexed": true,
          "internalType": "uint256",
          "name": "tokenId",
          "type": "uint256"
        }
      ],
      "name": "Approval",
      "type": "event"
    },
    {
      "anonymous": false,
      "inputs": [
        {
          "indexed": true,
          "internalType": "address",
          "name": "owner",
          "type": "address"
        },
        {
          "indexed": true,
          "internalType": "address",
          "name": "operator",
          "type": "address"
        },
        {
          "indexed": false,
          "internalType": "bool",
          "name": "approved",
          "type": "bool"
        }
      ],
      "name": "ApprovalForAll",
      "type": "event"
    },
    {
      "anonymous": false,
      "inputs": [
        {
          "indexed": false,
          "internalType": "uint256",
          "name": "_fromTokenId",
          "type": "uint256"
        },
        {
          "indexed": false,
          "internalType": "uint256",
          "name": "_toTokenId",
          "type": "uint256"
        }
      ],
      "name": "BatchMetadataUpdate",
      "type": "event"
    },
    {
      "anonymous": false,
      "inputs": [
        {
          "indexed": false,
          "internalType": "uint256",
          "name": "_tokenId",
          "type": "uint256"
        }
      ],
      "name": "MetadataUpdate",
      "type": "event"
    },
    {
      "anonymous": false,
      "inputs": [
        {
          "indexed": true,
          "internalType": "address",
          "name": "buyer",
          "type": "address"
        },
        {
          "indexed": false,
          "internalType": "uint256",
          "name": "nftId",
          "type": "uint256"
        }
      ],
      "name": "NFTTransferred",
      "type": "event"
    },
    {
      "anonymous": false,
      "inputs": [
        {
          "indexed": true,
          "internalType": "address",
          "name": "previousOwner",
          "type": "address"
        },
        {
          "indexed": true,
          "internalType": "address",
          "name": "newOwner",
          "type": "address"
        }
      ],
      "name": "OwnershipTransferred",
      "type": "event"
    },
    {
      "anonymous": false,
      "inputs": [
        {
          "indexed": true,
          "internalType": "address",
          "name": "from",
          "type": "address"
        },
        {
          "indexed": false,
          "internalType": "uint256",
          "name": "amount",
          "type": "uint256"
        }
      ],
      "name": "Received",
      "type": "event"
    },
    {
      "anonymous": false,
      "inputs": [
        {
          "indexed": true,
          "internalType": "address",
          "name": "sender",
          "type": "address"
        },
        {
          "indexed": false,
          "internalType": "address",
          "name": "tokenAddress",
          "type": "address"
        },
        {
          "indexed": false,
          "internalType": "uint256",
          "name": "amountOrTokenId",
          "type": "uint256"
        }
      ],
      "name": "Recovered",
      "type": "event"
    },
    {
      "anonymous": false,
      "inputs": [
        {
          "indexed": true,
          "internalType": "address",
          "name": "from",
          "type": "address"
        },
        {
          "indexed": true,
          "internalType": "address",
          "name": "to",
          "type": "address"
        },
        {
          "indexed": true,
          "internalType": "uint256",
          "name": "tokenId",
          "type": "uint256"
        }
      ],
      "name": "Transfer",
      "type": "event"
    },
    {
      "stateMutability": "payable",
      "type": "fallback"
    },
    {
      "inputs": [
        {
          "internalType": "address",
          "name": "to",
          "type": "address"
        },
        {
          "internalType": "uint256",
          "name": "tokenId",
          "type": "uint256"
        }
      ],
      "name": "approve",
      "outputs": [],
      "stateMutability": "nonpayable",
      "type": "function"
    },
    {
      "inputs": [
        {
          "internalType": "address",
          "name": "owner",
          "type": "address"
        }
      ],
      "name": "balanceOf",
      "outputs": [
        {
          "internalType": "uint256",
          "name": "",
          "type": "uint256"
        }
      ],
      "stateMutability": "view",
      "type": "function"
    },
    {
      "inputs": [
        {
          "internalType": "uint256",
          "name": "sourceId",
          "type": "uint256"
        }
      ],
      "name": "buyNFT",
      "outputs": [],
      "stateMutability": "nonpayable",
      "type": "function"
    },
    {
      "inputs": [
        {
          "internalType": "uint256",
          "name": "tokenId",
          "type": "uint256"
        }
      ],
      "name": "getApproved",
      "outputs": [
        {
          "internalType": "address",
          "name": "",
          "type": "address"
        }
      ],
      "stateMutability": "view",
      "type": "function"
    },
    {
      "inputs": [
        {
          "internalType": "address",
          "name": "owner",
          "type": "address"
        },
        {
          "internalType": "address",
          "name": "operator",
          "type": "address"
        }
      ],
      "name": "isApprovedForAll",
      "outputs": [
        {
          "internalType": "bool",
          "name": "",
          "type": "bool"
        }
      ],
      "stateMutability": "view",
      "type": "function"
    },
    {
      "inputs": [],
      "name": "name",
      "outputs": [
        {
          "internalType": "string",
          "name": "",
          "type": "string"
        }
      ],
      "stateMutability": "view",
      "type": "function"
    },
    {
      "inputs": [],
      "name": "nextNFTId",
      "outputs": [
        {
          "internalType": "uint256",
          "name": "",
          "type": "uint256"
        }
      ],
      "stateMutability": "view",
      "type": "function"
    },
    {
      "inputs": [],
      "name": "nextSourceId",
      "outputs": [
        {
          "internalType": "uint256",
          "name": "",
          "type": "uint256"
        }
      ],
      "stateMutability": "view",
      "type": "function"
    },
    {
      "inputs": [
        {
          "internalType": "uint256",
          "name": "",
          "type": "uint256"
        }
      ],
      "name": "nftSources",
      "outputs": [
        {
          "internalType": "uint256",
          "name": "modelId",
          "type": "uint256"
        },
        {
          "internalType": "address",
          "name": "creator",
          "type": "address"
        },
        {
          "internalType": "string",
          "name": "name",
          "type": "string"
        },
        {
          "internalType": "string",
          "name": "description",
          "type": "string"
        },
        {
          "internalType": "string",
          "name": "image",
          "type": "string"
        },
        {
          "internalType": "string",
          "name": "external_url",
          "type": "string"
        },
        {
          "internalType": "uint256",
          "name": "price",
          "type": "uint256"
        },
        {
          "internalType": "uint256",
          "name": "units",
          "type": "uint256"
        },
        {
          "internalType": "enum NFTSource.MediaType",
          "name": "mediaType",
          "type": "uint8"
        },
        {
          "internalType": "enum NFTSource.Status",
          "name": "status",
          "type": "uint8"
        }
      ],
      "stateMutability": "view",
      "type": "function"
    },
    {
      "inputs": [
        {
          "internalType": "uint256",
          "name": "",
          "type": "uint256"
        }
      ],
      "name": "nfts",
      "outputs": [
        {
          "internalType": "uint256",
          "name": "tokenId",
          "type": "uint256"
        },
        {
          "internalType": "address",
          "name": "creator",
          "type": "address"
        },
        {
          "internalType": "string",
          "name": "name",
          "type": "string"
        },
        {
          "internalType": "string",
          "name": "description",
          "type": "string"
        },
        {
          "internalType": "string",
          "name": "image",
          "type": "string"
        },
        {
          "internalType": "string",
          "name": "external_url",
          "type": "string"
        },
        {
          "internalType": "uint256",
          "name": "price",
          "type": "uint256"
        },
        {
          "internalType": "enum NFTSource.MediaType",
          "name": "mediaType",
          "type": "uint8"
        }
      ],
      "stateMutability": "view",
      "type": "function"
    },
    {
      "inputs": [],
      "name": "owner",
      "outputs": [
        {
          "internalType": "address",
          "name": "",
          "type": "address"
        }
      ],
      "stateMutability": "view",
      "type": "function"
    },
    {
      "inputs": [
        {
          "internalType": "uint256",
          "name": "tokenId",
          "type": "uint256"
        }
      ],
      "name": "ownerOf",
      "outputs": [
        {
          "internalType": "address",
          "name": "",
          "type": "address"
        }
      ],
      "stateMutability": "view",
      "type": "function"
    },
    {
      "inputs": [],
      "name": "renounceOwnership",
      "outputs": [],
      "stateMutability": "nonpayable",
      "type": "function"
    },
    {
      "inputs": [
        {
          "internalType": "address",
          "name": "from",
          "type": "address"
        },
        {
          "internalType": "address",
          "name": "to",
          "type": "address"
        },
        {
          "internalType": "uint256",
          "name": "tokenId",
          "type": "uint256"
        }
      ],
      "name": "safeTransferFrom",
      "outputs": [],
      "stateMutability": "nonpayable",
      "type": "function"
    },
    {
      "inputs": [
        {
          "internalType": "address",
          "name": "from",
          "type": "address"
        },
        {
          "internalType": "address",
          "name": "to",
          "type": "address"
        },
        {
          "internalType": "uint256",
          "name": "tokenId",
          "type": "uint256"
        },
        {
          "internalType": "bytes",
          "name": "data",
          "type": "bytes"
        }
      ],
      "name": "safeTransferFrom",
      "outputs": [],
      "stateMutability": "nonpayable",
      "type": "function"
    },
    {
      "inputs": [
        {
          "internalType": "address",
          "name": "operator",
          "type": "address"
        },
        {
          "internalType": "bool",
          "name": "approved",
          "type": "bool"
        }
      ],
      "name": "setApprovalForAll",
      "outputs": [],
      "stateMutability": "nonpayable",
      "type": "function"
    },
    {
      "inputs": [
        {
          "internalType": "address",
          "name": "blockFans",
          "type": "address"
        }
      ],
      "name": "setBlockFans",
      "outputs": [],
      "stateMutability": "nonpayable",
      "type": "function"
    },
    {
      "inputs": [
        {
          "internalType": "address",
          "name": "creatorsAddress",
          "type": "address"
        }
      ],
      "name": "setCreators",
      "outputs": [],
      "stateMutability": "nonpayable",
      "type": "function"
    },
    {
      "inputs": [
        {
          "internalType": "string",
          "name": "name",
          "type": "string"
        },
        {
          "internalType": "string",
          "name": "description",
          "type": "string"
        },
        {
          "internalType": "string",
          "name": "image",
          "type": "string"
        },
        {
          "internalType": "string",
          "name": "external_url",
          "type": "string"
        },
        {
          "internalType": "uint256",
          "name": "price",
          "type": "uint256"
        },
        {
          "internalType": "uint256",
          "name": "units",
          "type": "uint256"
        },
        {
          "internalType": "enum NFTSource.MediaType",
          "name": "mediaType",
          "type": "uint8"
        }
      ],
      "name": "setNFTSource",
      "outputs": [],
      "stateMutability": "nonpayable",
      "type": "function"
    },
    {
      "inputs": [
        {
          "internalType": "bytes4",
          "name": "interfaceId",
          "type": "bytes4"
        }
      ],
      "name": "supportsInterface",
      "outputs": [
        {
          "internalType": "bool",
          "name": "",
          "type": "bool"
        }
      ],
      "stateMutability": "view",
      "type": "function"
    },
    {
      "inputs": [],
      "name": "symbol",
      "outputs": [
        {
          "internalType": "string",
          "name": "",
          "type": "string"
        }
      ],
      "stateMutability": "view",
      "type": "function"
    },
    {
      "inputs": [
        {
          "internalType": "uint256",
          "name": "index",
          "type": "uint256"
        }
      ],
      "name": "tokenByIndex",
      "outputs": [
        {
          "internalType": "uint256",
          "name": "",
          "type": "uint256"
        }
      ],
      "stateMutability": "view",
      "type": "function"
    },
    {
      "inputs": [
        {
          "internalType": "address",
          "name": "owner",
          "type": "address"
        },
        {
          "internalType": "uint256",
          "name": "index",
          "type": "uint256"
        }
      ],
      "name": "tokenOfOwnerByIndex",
      "outputs": [
        {
          "internalType": "uint256",
          "name": "",
          "type": "uint256"
        }
      ],
      "stateMutability": "view",
      "type": "function"
    },
    {
      "inputs": [
        {
          "internalType": "uint256",
          "name": "tokenId",
          "type": "uint256"
        }
      ],
      "name": "tokenURI",
      "outputs": [
        {
          "internalType": "string",
          "name": "",
          "type": "string"
        }
      ],
      "stateMutability": "view",
      "type": "function"
    },
    {
      "inputs": [],
      "name": "totalSupply",
      "outputs": [
        {
          "internalType": "uint256",
          "name": "",
          "type": "uint256"
        }
      ],
      "stateMutability": "view",
      "type": "function"
    },
    {
      "inputs": [
        {
          "internalType": "address",
          "name": "from",
          "type": "address"
        },
        {
          "internalType": "address",
          "name": "to",
          "type": "address"
        },
        {
          "internalType": "uint256",
          "name": "tokenId",
          "type": "uint256"
        }
      ],
      "name": "transferFrom",
      "outputs": [],
      "stateMutability": "nonpayable",
      "type": "function"
    },
    {
      "inputs": [
        {
          "internalType": "address",
          "name": "newOwner",
          "type": "address"
        }
      ],
      "name": "transferOwnership",
      "outputs": [],
      "stateMutability": "nonpayable",
      "type": "function"
    },
    {
      "inputs": [
        {
          "internalType": "address",
          "name": "tokenAddress",
          "type": "address"
        },
        {
          "internalType": "uint256",
          "name": "amountOrTokenId",
          "type": "uint256"
        }
      ],
      "name": "withdraw",
      "outputs": [],
      "stateMutability": "nonpayable",
      "type": "function"
    },
    {
      "stateMutability": "payable",
      "type": "receive"
    }
  ],
  "bytecode": "0x608060405234620000265762000014620001cf565b6040516133d16200050082396133d190f35b600080fd5b634e487b7160e01b600052604160045260246000fd5b90601f01601f191681019081106001600160401b038211176200006357604052565b6200002b565b90620000806200007860405190565b928362000041565b565b6001600160401b0381116200006357602090601f01601f19160190565b90620000b5620000af8362000082565b62000069565b918252565b620000c6600c6200009f565b6b109b1bd8dad9985b9cd3919560a21b602082015290565b620000e8620000ba565b90565b620000f760036200009f565b6221232760e91b602082015290565b620000e8620000eb565b90600019905b9181191691161790565b620000e8620000e8620000e89290565b9062000144620000e86200014c9262000120565b825462000110565b9055565b62000160620000e8620000e89290565b6001600160a01b031690565b620000e89062000150565b620000e89062000160906001600160a01b031682565b620000e89062000177565b620000e8906200018d565b906001600160a01b039062000116565b90620001c7620000e86200014c9262000198565b8254620001a3565b620001ee620001dd620000de565b620001e762000106565b9062000259565b6200020960016200020181600f62000130565b601062000130565b62000080620002516200021d60006200016c565b620002346200022c8262000198565b600e620001b3565b6200024b620002438262000198565b600c620001b3565b62000198565b600d620001b3565b6200008091620002699162000274565b62000080336200049d565b620000809182918291906200046c565b634e487b7160e01b600052602260045260246000fd5b9060016002830492168015620002bd575b6020831014620002b757565b62000284565b91607f1691620002ab565b9160001960089290920291821b911b62000116565b9190620002f2620000e86200014c9362000120565b908354620002c8565b6200008091600091620002dd565b81811062000315575050565b80620003256000600193620002fb565b0162000309565b9190601f81116200033c57505050565b620003506200008093600052602060002090565b906020601f84018190048301931062000374575b6020601f90910104019062000309565b909150819062000364565b9062000389815190565b906001600160401b0382116200006357620003b182620003aa85546200029a565b856200032c565b602090601f8311600114620003f0576200014c929160009183620003e4575b5050600019600883021c1916906002021790565b015190503880620003d0565b601f198316916200040685600052602060002090565b9260005b81811062000447575091600293918560019694106200042d575b50505002019055565b01516000196008601f8516021c1916905538808062000424565b919360206001819287870151815501950192016200040a565b9062000080916200037f565b906200047e6200008092600062000460565b600162000460565b620000e89062000160565b620000e8905462000486565b620004a9600b62000491565b90620004b781600b620001b3565b620004ee620004e77f8be0079c531659141344cd1fd0a4f28419497f9722a3daafe3b4186f6b6457e09362000198565b9162000198565b91620004f960405190565b600090a356fe60806040526004361015610026575b361561001e5761001c611a62565b005b61001c611a62565b60003560e01c806301ffc9a7146101e657806306fdde03146101e1578063081812fc146101dc578063095ea7b3146101d757806318160ddd146101d257806323b872dd146101cd578063265aa621146101c85780632f745c59146101c357806342842e0e146101be5780634f6ccce7146101b957806351ed8288146101b45780636352211e146101af57806370a08231146101aa578063715018a6146101a55780638da5cb5b146101a0578063926061f01461019b57806395d89b4114610196578063a22cb46514610191578063abd481991461018c578063b88d4fde14610187578063ba908b4514610182578063c87b56dd1461017d578063c909adc014610178578063e0189dee14610173578063e985e9c51461016e578063f2fde38b14610169578063f3fef3a3146101645763fa3157d50361000e57610d0e565b610cf5565b610cdd565b610cc1565b610c64565b610ad8565b610ab1565b610a99565b610a7d565b610a0e565b6108a5565b610852565b610837565b6107f0565b6107d8565b6107bd565b61078e565b610776565b61075b565b610742565b610726565b6106ef565b61041f565b6103c2565b6103a4565b610330565b6102d6565b61022d565b6001600160e01b031981165b036101fe57565b600080fd5b90503590610210826101eb565b565b906020828203126101fe5761022691610203565b90565b9052565b346101fe5761025b610248610243366004610212565b611a9f565b6040515b91829182901515815260200190565b0390f35b60009103126101fe57565b60005b83811061027d5750506000910152565b818101518382015260200161026d565b6102ae6102b76020936102c1936102a2815190565b80835293849260200190565b9586910161026a565b601f01601f191690565b0190565b60208082526102269291019061028d565b346101fe576102e636600461025f565b61025b6102f1611063565b604051918291826102c5565b806101f7565b90503590610210826102fd565b906020828203126101fe5761022691610303565b6001600160a01b031690565b346101fe5761025b61034b610346366004610310565b6111a0565b604051918291826001600160a01b03909116815260200190565b6001600160a01b0381166101f7565b9050359061021082610365565b91906040838203126101fe576102269061039b8185610374565b93602001610303565b346101fe576103bd6103b7366004610381565b9061113f565b604051005b346101fe576103d236600461025f565b61025b6103de60095490565b6040515b9182918290815260200190565b90916060828403126101fe576102266104088484610374565b936104168160208601610374565b93604001610303565b346101fe576103bd6104323660046103ef565b9161125f565b6102266102266102269290565b9061044f90610438565b600052602052604060002090565b6102269081565b610226905461045d565b634e487b7160e01b600052602260045260246000fd5b90600160028304921680156104a4575b602083101461049f57565b61046e565b91607f1691610494565b805460009392916104cb6104c183610484565b8085529360200190565b916001811690811561051d57506001146104e457505050565b6104f79192939450600052602060002090565b916000925b8184106105095750500190565b8054848401526020909301926001016104fc565b92949550505060ff1916825215156020020190565b90610226916104ae565b634e487b7160e01b600052604160045260246000fd5b90601f01601f1916810190811067ffffffffffffffff82111761057457604052565b61053c565b906102106105939261058a60405190565b93848092610532565b0383610552565b610226905b60ff1690565b610226905461059a565b6105ba906012610445565b906105c482610464565b916105d960018201546001600160a01b031690565b916105e660028301610579565b916105f360038201610579565b9161060060048301610579565b9161060d60058201610579565b91610226600761061f60068501610464565b93016105a5565b634e487b7160e01b600052602160045260246000fd5b6006111561064657565b610626565b906102108261063c565b6102269061064b565b61022990610655565b9360e0956106c46106d2926106b6886106e8986102109d9f9e9c976106e0996106996106a99260006101008701960152565b6001600160a01b031660208d0152565b8a820360408c015261028d565b9088820360608a015261028d565b90868203608088015261028d565b9084820360a086015261028d565b9660c0830152565b019061065e565b346101fe5761025b61070a610705366004610310565b6105af565b9461071d98969894919493929360405190565b98899889610667565b346101fe5761025b6103de61073c366004610381565b90611948565b346101fe576103bd6107553660046103ef565b916112a0565b346101fe5761025b6103de610771366004610310565b611a1d565b346101fe576103bd610789366004610310565b6127c2565b346101fe5761025b61034b6107a4366004610310565b61102c565b906020828203126101fe5761022691610374565b346101fe5761025b6103de6107d33660046107a9565b610fa3565b346101fe576107e836600461025f565b6103bd610d5e565b346101fe5761080036600461025f565b61025b61034b600b546001600160a01b031690565b610226916008021c81565b906102269154610815565b6102266000600f610820565b346101fe5761084736600461025f565b61025b6103de61082b565b346101fe5761086236600461025f565b61025b6102f161106d565b8015156101f7565b905035906102108261086d565b91906040838203126101fe576102269061089c8185610374565b93602001610875565b346101fe576103bd6108b8366004610882565b906111cd565b906102106108cb60405190565b9283610552565b67ffffffffffffffff811161057457602090601f01601f19160190565b90826000939282370152565b9092919261091061090b826108d2565b6108be565b938185526020850190828401116101fe57610210926108ef565b9080601f830112156101fe57816020610226933591016108fb565b600611156101fe57565b9050359061021082610945565b60e0818303126101fe57803567ffffffffffffffff81116101fe578261098391830161092a565b92602082013567ffffffffffffffff81116101fe57836109a491840161092a565b92604083013567ffffffffffffffff81116101fe57816109c591850161092a565b92606081013567ffffffffffffffff81116101fe57826109e691830161092a565b926102266109f78460808501610303565b93610a058160a08601610303565b9360c00161094f565b346101fe576103bd610a2136600461095c565b9594909493919361251f565b906080828203126101fe57610a428183610374565b92610a508260208501610374565b92610a5e8360408301610303565b92606082013567ffffffffffffffff81116101fe57610226920161092a565b346101fe576103bd610a90366004610a2d565b929190916112b0565b346101fe576103bd610aac3660046107a9565b612252565b346101fe5761025b6102f1610ac7366004610310565b611b73565b61022660006010610820565b346101fe57610ae836600461025f565b61025b6103de610acc565b6102269060081c61059f565b6102269054610af3565b610b14906013610445565b90610b1e82610464565b91610b3360018201546001600160a01b031690565b91610b4060028301610579565b91610b4d60038201610579565b91610b5a60048301610579565b91610b6760058201610579565b91610b7460068301610464565b91610b8160078201610464565b916102266008610b928185016105a5565b9301610aff565b6005111561064657565b9061021082610b99565b61022690610ba3565b61022990610bad565b95610c4390610c35610c5d97610c276101209b9f9e9c9698610c196102109f9a97610c529a8e610c0c610c4b9b610bfc6101408401956000850152565b6001600160a01b03166020830152565b604081840391015261028d565b8c810360608e01529061028d565b908a820360808c015261028d565b9088820360a08a015261028d565b9a60c0870152565b60e0850152565b61010083019061065e565b0190610bb6565b346101fe5761025b610c7f610c7a366004610310565b610b09565b96610c959a989a96919695929594939460405190565b9a8b9a8b610bbf565b91906040838203126101fe5761022690610cb88185610374565b93602001610374565b346101fe5761025b610248610cd7366004610c9e565b906111d8565b346101fe576103bd610cf03660046107a9565b610e7f565b346101fe576103bd610d08366004610381565b90613391565b346101fe576103bd610d213660046107a9565b61227a565b610d2e610dba565b610210610d4c565b6103246102266102269290565b61022690610d36565b610210610d596000610d43565b610ede565b610210610d26565b15610d6d57565b60405162461bcd60e51b815280610db6600482016020808252818101527f4f776e61626c653a2063616c6c6572206973206e6f7420746865206f776e6572604082015260600190565b0390fd5b610210610dcf600b546001600160a01b031690565b610de8610ddb33610324565b916001600160a01b031690565b14610d66565b61021090610dfa610dba565b610e5a565b15610e0657565b60405162461bcd60e51b815260206004820152602660248201527f4f776e61626c653a206e6577206f776e657220697320746865207a65726f206160448201526564647265737360d01b6064820152608490fd5b61021090610d59610e6e6103246000610d43565b6001600160a01b0383161415610dff565b61021090610dee565b906001600160a01b03905b9181191691161790565b61022690610324906001600160a01b031682565b61022690610e9d565b61022690610eb1565b90610ed3610226610eda92610eba565b8254610e88565b9055565b600b546001600160a01b031690610ef681600b610ec3565b610f29610f237f8be0079c531659141344cd1fd0a4f28419497f9722a3daafe3b4186f6b6457e093610eba565b91610eba565b91610f3360405190565b80805b0390a3565b15610f4257565b60405162461bcd60e51b815260206004820152602960248201527f4552433732313a2061646472657373207a65726f206973206e6f7420612076616044820152683634b21037bbb732b960b91b6064820152608490fd5b9061044f90610eba565b610fdb61022691610fb2600090565b50610fd4610fc36103246000610d43565b6001600160a01b0383161415610f3b565b6003610f99565b610464565b15610fe757565b60405162461bcd60e51b815260206004820152601860248201527f4552433732313a20696e76616c696420746f6b656e20494400000000000000006044820152606490fd5b6110399060005b50611350565b6102266110496103246000610d43565b6001600160a01b0383161415610fe0565b61022690610579565b610226600061105a565b610226600161105a565b1561107e57565b60405162461bcd60e51b815260206004820152602160248201527f4552433732313a20617070726f76616c20746f2063757272656e74206f776e656044820152603960f91b6064820152608490fd5b156110d457565b60405162461bcd60e51b815260206004820152603d60248201527f4552433732313a20617070726f76652063616c6c6572206973206e6f7420746f60448201527f6b656e206f776e6572206f7220617070726f76656420666f7220616c6c0000006064820152608490fd5b906102109161118a6111508361102c565b61116e6001600160a01b0382166001600160a01b0385161415611077565b336001600160a01b038216811491821561118f575b50506110cd565b61160c565b61119992506111d8565b3880611183565b6111c0610226916111af600090565b506111b981611738565b6004610445565b546001600160a01b031690565b6102109190336116c2565b610226916111f36111f8926111eb600090565b506005610f99565b610f99565b6105a5565b1561120457565b60405162461bcd60e51b815260206004820152602d60248201527f4552433732313a2063616c6c6572206973206e6f7420746f6b656e206f776e6560448201526c1c881bdc88185c1c1c9bdd9959609a1b6064820152608490fd5b6102109291906112776112728433611367565b6111fd565b6114e2565b9061128961090b836108d2565b918252565b610226600061127c565b61022661128e565b9091610210926112ae611298565b925b610210939291906112c46112728433611367565b611331565b156112d057565b6040515b62461bcd60e51b815260206004820152603260248201527f4552433732313a207472616e7366657220746f206e6f6e20455243373231526560448201527131b2b4bb32b91034b6b83632b6b2b73a32b960711b6064820152608490fd5b91610210939161134b936113468383836114e2565b6117e6565b6112c9565b6111c06102269161135f600090565b506002610445565b6113708261102c565b916001600160a01b0383166001600160a01b038316149283156113bd575b50821561139a57505090565b6113b99192506113ac610ddb916111a0565b926001600160a01b031690565b1490565b6113ca91935082906111d8565b913861138e565b156113d857565b60405162461bcd60e51b815260206004820152602560248201527f4552433732313a207472616e736665722066726f6d20696e636f72726563742060448201526437bbb732b960d91b6064820152608490fd5b1561143257565b60405162461bcd60e51b8152602060048201526024808201527f4552433732313a207472616e7366657220746f20746865207a65726f206164646044820152637265737360e01b6064820152608490fd5b916001600160a01b0360089290920291821b911b610e93565b91906114ad610226610eda93610eba565b908354611483565b6102109160009161149c565b9060001990610e93565b906114db610226610eda92610438565b82546114c1565b91906115086114f08361102c565b6115026001600160a01b038616610ddb565b146113d1565b6115ac600061152d61151c61032483610d43565b6001600160a01b038516141561142b565b61157561153a6001610438565b916115478387878a611f16565b6115656115538761102c565b6115026001600160a01b038a16610ddb565b611570866004610445565b6114b5565b61159c6115a28460036111f361158b8a83610f99565b61159c8761159883610464565b0390565b906114cb565b916102c183610464565b6115c0816115bb846002610445565b610ec3565b6115fc6115f66115f07fddf252ad1be2c89b69c2b068fc378daa952ba7f163c4a11628f55a4df523b3ef95610eba565b92610eba565b92610438565b9261160660405190565b600090a4565b9061161c826115bb836004610445565b6116258161102c565b916115fc6115f66115f07f8c5be1e5ebec7d5bd14f71427d1e84f3dd0314c0f7b2291e5b200ac8c7c3b92595610eba565b1561165d57565b60405162461bcd60e51b815260206004820152601960248201527f4552433732313a20617070726f766520746f2063616c6c6572000000000000006044820152606490fd5b9060ff90610e93565b906116bb610226610eda92151590565b82546116a2565b6116e06001600160a01b0383166001600160a01b0383161415611656565b6116f8836116f3846111f3856005610f99565b6116ab565b610f3661172e6117287f17307eab39ab6107e8899845ad3d59bd9653f200f220920489ca2b5937696c3193610eba565b93610eba565b9361024c60405190565b61174461021091611749565b610fe0565b611754906000611033565b611764610ddb6103246000610d43565b141590565b90505190610210826101eb565b906020828203126101fe5761022691611769565b6001600160a01b0391821681529116602082015260408101919091526080606082018190526102269291019061028d565b6040513d6000823e3d90fd5b3d156117e1576117d63d61127c565b903d6000602084013e565b606090565b919093926117f2600090565b946117fc81611a50565b156118de5790611843600061181b61181660209695610eba565b610eba565b9261184e63150b7a029161182c3390565b9661183660405190565b998a988997889660e01b90565b86526004860161178a565b03925af1600091816118ae575b5061189157506118696117c7565b805161187c6118786000610438565b9190565b03611889576040516112d4565b805190602001fd5b9091506113b9630a85bd0160e11b5b916001600160e01b03191690565b6118d091925060203d81116118d7575b6118c88183610552565b810190611776565b903861185b565b503d6118be565b5060019450505050565b156118ef57565b60405162461bcd60e51b815260206004820152602b60248201527f455243373231456e756d657261626c653a206f776e657220696e646578206f7560448201526a74206f6620626f756e647360a81b6064820152608490fd5b61022691611979610fdb9261195b600090565b5061197261196b61022683610fa3565b84106118e8565b6007610f99565b610445565b1561198557565b60405162461bcd60e51b815260206004820152602c60248201527f455243373231456e756d657261626c653a20676c6f62616c20696e646578206f60448201526b7574206f6620626f756e647360a01b6064820152608490fd5b634e487b7160e01b600052603260045260246000fd5b8054821015611a1857611a0f600191600052602060002090565b91020190600090565b6119df565b611a4a61022691611a2c600090565b50611a43611a3c61022660095490565b821061197e565b60096119f5565b90610820565b3b611a5e6118786000610438565b1190565b347f88a5966d370b9919b20f3e2c13ff65706f196a4e32cc2c12bf57088f88525874611a9a611a9033610eba565b926103e260405190565b0390a2565b6102269063780e9d6360e01b6001600160e01b0319821614908115611ac2575090565b6102269150611aec565b611adf611ad96102269290565b60e01b90565b6001600160e01b03191690565b611afc611adf6349064906611acc565b6001600160e01b0319821614908115611b13575090565b61022691506380ac58cd60e01b6001600160e01b0319821614908115611b48575b8115611b3e575090565b6102269150611b63565b6001600160e01b03198116635b5e139f60e01b149150611b34565b6113b96301ffc9a760e01b6118a0565b61022690611bb1565b6102c1611b9492602092611b8e815190565b94859290565b9384910161026a565b611bab906102269392611b7c565b90611b7c565b611bba81611738565b611bcd611bc8826006610445565b61105a565b611bd5611c8d565b8051600090611be661187883610438565b14611c3957611bf96118786115f6855190565b11611c0957505061022690611c40565b6102269250611c2d9161022691611c1f60405190565b938492602084019283611b9d565b90810382520382610552565b5050905090565b611c4981611738565b611c51611c8d565b8051611c606118786000610438565b1115611c8357610226611c2d91611c7961022694611ce6565b90611c1f60405190565b5050610226611298565b60605b50610226611298565b369037565b90610210611cb4611cae8461127c565b936108d2565b601f190160208401611c99565b634e487b7160e01b600052601260045260246000fd5b8115611ce1570490565b611cc1565b611cef81611d72565b90611cff6001926102c184610438565b9180611d0a84611c9e565b936020018401905b611d1d575b50505090565b611d519060001901926f181899199a1a9b1b9c1cb0b131b232b360811b600a82061a8453611d4b600a610438565b90611cd7565b9081611d606118786000610438565b14611d6d57909181611d12565b611d17565b611d7c6000610438565b907a184f03e93ff9f4daa797ed6e38ed64bf6a1f010000000000000000611da281610438565b821015611ef4575b506d04ee2d6d415b85acef8100000000611dc381610438565b821015611ed2575b50662386f26fc10000611ddd81610438565b821015611eb0575b506305f5e100611df481610438565b821015611e8e575b50612710611e0981610438565b821015611e6c575b506064611e1d81610438565b821015611e4a575b50611e33611878600a610438565b1015611e3c5790565b610226906102c16001610438565b611e6591611d4b611e5a92610438565b916102c16002610438565b9038611e25565b611e8791611d4b611e7c92610438565b916102c16004610438565b9038611e11565b611ea991611d4b611e9e92610438565b916102c16008610438565b9038611dfc565b611ecb91611d4b611ec092610438565b916102c16010610438565b9038611de5565b611eed91611d4b611ee292610438565b916102c16020610438565b9038611dcb565b611f0f91611d4b611f0492610438565b916102c16040610438565b9038611daa565b61021093919291611f2a6118786001610438565b11611fc057611f5e611f3c6000610d43565b6001600160a01b0381166001600160a01b03841603611f9d57610324846120af565b6001600160a01b03841603611f78575061021091506121d2565b6001600160a01b03166001600160a01b03831603611f94575050565b61021091612023565b6001600160a01b0385166001600160a01b03841614610324576103248484612107565b60405162461bcd60e51b815260206004820152603560248201527f455243373231456e756d657261626c653a20636f6e7365637574697665207472604482015274185b9cd9995c9cc81b9bdd081cdd5c1c1bdc9d1959605a1b6064820152608490fd5b6120488261204d610210946120486119799561203e81610fa3565b9687916007610f99565b6114cb565b6008610445565b9160001960089290920291821b911b610e93565b9190612079610226610eda93610438565b908354612054565b908154916801000000000000000083101561057457826120a9916001610210950181556119f5565b90612068565b610210906120ce60096102266120c3825490565b61204885600a610445565b612081565b634e487b7160e01b600052601160045260246000fd5b919082039182116120f657565b6120d3565b61021091600091612068565b612155610210926119796000936119728561215561213761212785610fa3565b6121316001610438565b906120e9565b956008612147610fdb8383610445565b88810361215a575b50610445565b6120fb565b80612048886121888c61204861218e96611979612180610fdb6007956119798988610f99565b958694610f99565b84610445565b3861214f565b634e487b7160e01b600052603160045260246000fd5b805480156121cd5760001901906121ca6121c483836119f5565b906120fb565b55565b612194565b6122206102109161022660006121556009936121ef612127865490565b611979600a91612048612212611a4a61220b610fdb8888610445565b938b6119f5565b612188816120a9858d6119f5565b6121aa565b61021090612231610dba565b61224b6102109161181661224482610eba565b600e610ec3565b600c610ec3565b61021090612225565b61021090612267610dba565b61227361021091610eba565b600d610ec3565b6102109061225b565b60001981146120f65760010190565b6102266101406108be565b906102299061064b565b9061022990610ba3565b8181106122bc575050565b806122ca60006001936120fb565b016122b1565b9190601f81116122df57505050565b6122f161021093600052602060002090565b906020601f840181900483019310612313575b6020601f9091010401906122b1565b9091508190612304565b90612326815190565b9067ffffffffffffffff82116105745761234a826123448554610484565b856122d0565b602090601f831160011461238557610eda92916000918361237a575b5050600019600883021c1916906002021790565b015190503880612366565b601f1983169161239a85600052602060002090565b9260005b8181106123d8575091600293918560019694106123bf575b50505002019055565b01516000196008601f8516021c191690553880806123b6565b9193602060018192878701518155019501920161239e565b906102109161231d565b610226905161064b565b906116bb610226610eda92610655565b6102269051610ba3565b9061ff009060081b610e93565b9061243b610226610eda92610bad565b825461241e565b610210919061250f906101209060089061245e8161159c875190565b61247f6001820161247960208801516001600160a01b031690565b90610ec3565b61249760028201612491604088015190565b906123f0565b6124a960038201612491606088015190565b6124bb60048201612491608088015190565b6124cd6005820161249160a088015190565b6124df6006820161159c60c088015190565b6124f16007820161159c60e088015190565b019261250961250361010083016123fa565b85612404565b01612414565b9061242b565b9061021091612442565b93909592949194612530600f610464565b9561253a87612283565b61254590600f6114cb565b3397600096612552612292565b9961255d8a8a8d0152565b6001600160a01b031660208b015260408a01526060890152608088015260a087015260c086015260e085015261259790610100850161229d565b6125a59061012084016122a7565b6125b0906013610445565b9061021091612515565b906102106126a560086125cb612292565b946125dc6125d882610464565b8752565b6126036125f360018301546001600160a01b031690565b6001600160a01b03166020880152565b61261961261260028301610579565b6040880152565b61262f61262860038301610579565b6060880152565b61264561263e60048301610579565b6080880152565b61265b61265460058301610579565b60a0880152565b61267161266a60068301610464565b60c0880152565b61268761268060078301610464565b60e0880152565b61269f6126958383016105a5565b610100880161229d565b01610aff565b61012084016122a7565b610226906125ba565b90505190610210826102fd565b906020828203126101fe57610226916126b8565b818102929181159184041417156120f657565b156126f357565b60405162461bcd60e51b8152602060048201526011602482015270105b1b1bddd85b98d9481b9bdd081cd95d607a1b6044820152606490fd5b905051906102108261086d565b906020828203126101fe576102269161272c565b61022990610eba565b6001600160a01b03909116815260608101939261021092909160409161278090602083019061274d565b0152565b1561278b57565b60405162461bcd60e51b815260206004820152600f60248201526e151c985b9cd9995c8819985a5b1959608a1b6044820152606490fd5b6127d56127d0826013610445565b6126af565b906128136127ee611816600c546001600160a01b031690565b3393602063dd62ed3e61280030610eba565b9361280a60405190565b95869260e01b90565b82526001600160a01b0388811660048401528516602483015260449082905afa9283156129775760009361297c575b5060c06020910161287e612854825190565b94612877611878610226670de0b6b3a7640000986128718a610438565b906126d9565b10156126ec565b612893611816600c546001600160a01b031690565b6128de60006128c46323b872dd976128716128be6128b9600e546001600160a01b031690565b975190565b91610438565b966128ea6128d160405190565b9889968795869460e01b90565b84528c60048501612756565b03925af1801561297757849361290f6129149261291c95600091612949575b50612784565b612a64565b9384916114e2565b611a9a611a907fdbd06c5b09e89a22b08c07aa17dfc71d3f3741d98ad99285be427c36017340e692610eba565b61296a915060203d8111612970575b6129628183610552565b810190612739565b38612909565b503d612958565b6117bb565b60209193506129a260c091833d81116129aa575b61299a8183610552565b8101906126c5565b939150612842565b503d612990565b6102266101006108be565b6102109190612a549060e0906007906129d78161159c875190565b6129f26001820161247960208801516001600160a01b031690565b612a0460028201612491604088015190565b612a1660038201612491606088015190565b612a2860048201612491608088015190565b612a3a6005820161249160a088015190565b612a4c6006820161159c60c088015190565b0192016123fa565b90612404565b90610210916129bc565b612a6f906013610445565b612a78906126af565b612a826010610464565b90612a8c82612283565b612a979060106114cb565b60208101516001600160a01b0316906040810151906060810151608082015160a08301519160c08401612ac8905190565b9361010001612ad6906123fa565b94612adf6129b1565b96612ae8898952565b6001600160a01b0316602088015260408701526060860152608085015260a084015260c0830152612b1c9060e0830161229d565b80612b28836012610445565b90612b3291612a5a565b81612b3c30610eba565b90612b4691612c28565b60208101516001600160a01b031690604081015190606081015160808201519060a08301519260e001612b78906123fa565b93612b8295612ebe565b6102269082612d03565b15612b9357565b60405162461bcd60e51b815280610db6600482016020808252818101527f4552433732313a206d696e7420746f20746865207a65726f2061646472657373604082015260600190565b15612be357565b60405162461bcd60e51b815260206004820152601c60248201527f4552433732313a20746f6b656e20616c7265616479206d696e746564000000006044820152606490fd5b90612c336000610d43565b91612c526001600160a01b0384166001600160a01b0383161415612b8c565b612c6a612c65612c6184611749565b1590565b612bdc565b6115ac612c776001610438565b612c8381858588611f16565b612c92612c65612c6186611749565b61159c6115a2846003610f99565b15612ca757565b60405162461bcd60e51b815260206004820152602e60248201527f45524337323155524953746f726167653a2055524920736574206f66206e6f6e60448201526d32bc34b9ba32b73a103a37b5b2b760911b6064820152608490fd5b90612d2990612d19612d1484611749565b612ca0565b612d24836006610445565b6123f0565b612d577ff8e1a15aba9398e019f0b49df1a4fde98ee17ae345cb5f6b5e2c27f5033e8ce7916103e260405190565b0390a1565b610229906001600160a01b031660601b90565b612d7b61022991610655565b60f81b90565b612e08612e8196611bab612e45612e08600199611bab612e30612e086102269f9c611bab612e15612e08612de69f612e7a9f612e619f6014611bab92612de6612ddf612df4946b3d9131b932b0ba37b9111d1160a11b8152600c0190565b8092612d5c565b01601160f91b815260010190565b67113730b6b2911d1160c11b815260080190565b601160f91b815260010190565b6e113232b9b1b934b83a34b7b7111d1160891b8152600f0190565b681134b6b0b3b2911d1160b91b815260090190565b6f1132bc3a32b93730b62fbab936111d1160811b815260100190565b6c1136b2b234b0aa3cb832911d1160991b8152600d0190565b8092612d6f565b607d60f81b815260010190565b7f646174613a6170706c69636174696f6e2f6a736f6e3b6261736536342c00000081526102269190601d01611bab565b611c2d61022696612eed96612ee89596612ed6606090565b50604051978896602088019687612d81565b612f7f565b610226612ef960405190565b8092611c2d602083019182612e8e565b612f13604061127c565b7f4142434445464748494a4b4c4d4e4f505152535455565758595a61626364656660208201527f6768696a6b6c6d6e6f707172737475767778797a303132333435363738392b2f604082015290565b610226612f09565b610226612f62565b919082018092116120f657565b8051612f8e6118786000610438565b14611c9057612f9b612f6a565b906004612fa6825190565b906001612fe1612fdc612fc4600295612fbe87610438565b90612f72565b93612fd76128be600396611d4b88610438565b6126d9565b611c9e565b9401926020850193819082518301915b82811061302c575050505106908160011461301c5750600214613012575090565b6001603d91035390565b905081603d600181940353035390565b84600191979293970191603f828080865194848660121c168901518153018385600c1c16880151815301828460061c168701518153019116840151815301959190612ff1565b906102109161307f610dba565b61311e565b6001600160a01b0390911681526040810192916102109160200152565b6001600160a01b03909116815260608101939261021092909160409161278090610bfc565b156130cd57565b60405162461bcd60e51b8152602060048201526024808201527f496e73756666696369656e74204554482062616c616e636520696e20636f6e746044820152631c9858dd60e21b6064820152608490fd5b90600061312d61032482610d43565b6001600160a01b038416036131c65761315261314830610eba565b83903110156130c6565b8080808461316e611816611816600b546001600160a01b031690565b8282156131bd575bf115612977577ffff3b3844276f57024e0b42afec1a37f75db36511e43819a4f2a63ab7862b648906131a733610eba565b92611a9a6131b460405190565b92839283613084565b506108fc613176565b8160206131d561181686610eba565b63a9059cbb9061320b856131f1600b546001600160a01b031690565b936132166131fe60405190565b9788968795869460e01b90565b845260048401613084565b03925af19081613375575b501581146133495761323561181684610eba565b6342842e0e61324330610eba565b600b546001600160a01b031692803b156101fe576132778580946132828961326a60405190565b9889978896879560e01b90565b8552600485016130a1565b03925af1908161331d575b5015146132f25760405162461bcd60e51b815260206004820152603060248201527f546f6b656e2074797065206e6f7420737570706f72746564206f7220696e737560448201526f6666696369656e742062616c616e636560801b6064820152608490fd5b7ffff3b3844276f57024e0b42afec1a37f75db36511e43819a4f2a63ab7862b648906131a733610eba565b61333c90833d8511613342575b6133348183610552565b81019061025f565b3861328d565b503d61332a565b507ffff3b3844276f57024e0b42afec1a37f75db36511e43819a4f2a63ab7862b648906131a733610eba565b61338c9060203d8111612970576129628183610552565b613221565b906102109161307256fea26469706673582212206aeddfe080a3055e87085cde073aebbce2274804605a2d3f81c5d274d864e02264736f6c63430008130033",
  "linkReferences": {},
  "deployedLinkReferences": {}
}