{
  "_format": "hh-sol-artifact-1",
  "contractName": "CreatorsPlans",
  "sourceName": "contracts/CreatorsPlans.sol",
  "abi": [
    {
      "inputs": [],
      "stateMutability": "nonpayable",
      "type": "constructor"
    },
    {
      "anonymous": false,
      "inputs": [
        {
          "indexed": true,
          "internalType": "address",
          "name": "previousOwner",
          "type": "address"
        },
        {
          "indexed": true,
          "internalType": "address",
          "name": "newOwner",
          "type": "address"
        }
      ],
      "name": "OwnershipTransferred",
      "type": "event"
    },
    {
      "anonymous": false,
      "inputs": [
        {
          "indexed": true,
          "internalType": "address",
          "name": "from",
          "type": "address"
        },
        {
          "indexed": false,
          "internalType": "uint256",
          "name": "amount",
          "type": "uint256"
        }
      ],
      "name": "Received",
      "type": "event"
    },
    {
      "anonymous": false,
      "inputs": [
        {
          "indexed": true,
          "internalType": "address",
          "name": "sender",
          "type": "address"
        },
        {
          "indexed": false,
          "internalType": "address",
          "name": "tokenAddress",
          "type": "address"
        },
        {
          "indexed": false,
          "internalType": "uint256",
          "name": "amountOrTokenId",
          "type": "uint256"
        }
      ],
      "name": "Recovered",
      "type": "event"
    },
    {
      "anonymous": false,
      "inputs": [
        {
          "indexed": true,
          "internalType": "address",
          "name": "from",
          "type": "address"
        },
        {
          "indexed": false,
          "internalType": "uint256",
          "name": "amount",
          "type": "uint256"
        }
      ],
      "name": "Subscribe",
      "type": "event"
    },
    {
      "stateMutability": "payable",
      "type": "fallback"
    },
    {
      "inputs": [
        {
          "internalType": "uint256",
          "name": "planId",
          "type": "uint256"
        }
      ],
      "name": "buyPlan",
      "outputs": [],
      "stateMutability": "nonpayable",
      "type": "function"
    },
    {
      "inputs": [
        {
          "internalType": "uint256",
          "name": "planId",
          "type": "uint256"
        }
      ],
      "name": "deletePlan",
      "outputs": [],
      "stateMutability": "nonpayable",
      "type": "function"
    },
    {
      "inputs": [],
      "name": "getPlanDetailsByCreator",
      "outputs": [
        {
          "components": [
            {
              "internalType": "uint256",
              "name": "planId",
              "type": "uint256"
            },
            {
              "internalType": "address",
              "name": "creator",
              "type": "address"
            },
            {
              "internalType": "string",
              "name": "name",
              "type": "string"
            },
            {
              "internalType": "string",
              "name": "description",
              "type": "string"
            },
            {
              "internalType": "string",
              "name": "external_url",
              "type": "string"
            },
            {
              "internalType": "uint256",
              "name": "duration",
              "type": "uint256"
            },
            {
              "internalType": "uint256",
              "name": "price",
              "type": "uint256"
            },
            {
              "internalType": "uint256",
              "name": "units",
              "type": "uint256"
            },
            {
              "internalType": "enum Plan.Status",
              "name": "status",
              "type": "uint8"
            }
          ],
          "internalType": "struct Plan.Detail[]",
          "name": "",
          "type": "tuple[]"
        }
      ],
      "stateMutability": "view",
      "type": "function"
    },
    {
      "inputs": [],
      "name": "getPlansByCreator",
      "outputs": [
        {
          "internalType": "uint256[]",
          "name": "",
          "type": "uint256[]"
        }
      ],
      "stateMutability": "view",
      "type": "function"
    },
    {
      "inputs": [
        {
          "internalType": "address",
          "name": "creator",
          "type": "address"
        }
      ],
      "name": "getPublicPlanDetailsByCreator",
      "outputs": [
        {
          "components": [
            {
              "internalType": "uint256",
              "name": "planId",
              "type": "uint256"
            },
            {
              "internalType": "address",
              "name": "creator",
              "type": "address"
            },
            {
              "internalType": "string",
              "name": "name",
              "type": "string"
            },
            {
              "internalType": "string",
              "name": "description",
              "type": "string"
            },
            {
              "internalType": "string",
              "name": "external_url",
              "type": "string"
            },
            {
              "internalType": "uint256",
              "name": "duration",
              "type": "uint256"
            },
            {
              "internalType": "uint256",
              "name": "price",
              "type": "uint256"
            },
            {
              "internalType": "uint256",
              "name": "units",
              "type": "uint256"
            },
            {
              "internalType": "enum Plan.Status",
              "name": "status",
              "type": "uint8"
            }
          ],
          "internalType": "struct Plan.Detail[]",
          "name": "",
          "type": "tuple[]"
        }
      ],
      "stateMutability": "view",
      "type": "function"
    },
    {
      "inputs": [
        {
          "internalType": "address",
          "name": "creator",
          "type": "address"
        }
      ],
      "name": "getPublicPlansByCreator",
      "outputs": [
        {
          "internalType": "uint256[]",
          "name": "",
          "type": "uint256[]"
        }
      ],
      "stateMutability": "view",
      "type": "function"
    },
    {
      "inputs": [
        {
          "internalType": "uint256",
          "name": "planId",
          "type": "uint256"
        }
      ],
      "name": "getSoldUnitsPerPlan",
      "outputs": [
        {
          "internalType": "uint256",
          "name": "",
          "type": "uint256"
        }
      ],
      "stateMutability": "view",
      "type": "function"
    },
    {
      "inputs": [],
      "name": "nextPlanId",
      "outputs": [
        {
          "internalType": "uint256",
          "name": "",
          "type": "uint256"
        }
      ],
      "stateMutability": "view",
      "type": "function"
    },
    {
      "inputs": [],
      "name": "nextSubscriptionId",
      "outputs": [
        {
          "internalType": "uint256",
          "name": "",
          "type": "uint256"
        }
      ],
      "stateMutability": "view",
      "type": "function"
    },
    {
      "inputs": [],
      "name": "owner",
      "outputs": [
        {
          "internalType": "address",
          "name": "",
          "type": "address"
        }
      ],
      "stateMutability": "view",
      "type": "function"
    },
    {
      "inputs": [
        {
          "internalType": "uint256",
          "name": "planId",
          "type": "uint256"
        }
      ],
      "name": "permanentDeletePlan",
      "outputs": [],
      "stateMutability": "nonpayable",
      "type": "function"
    },
    {
      "inputs": [],
      "name": "renounceOwnership",
      "outputs": [],
      "stateMutability": "nonpayable",
      "type": "function"
    },
    {
      "inputs": [
        {
          "internalType": "uint256",
          "name": "planId",
          "type": "uint256"
        }
      ],
      "name": "restorePlan",
      "outputs": [],
      "stateMutability": "nonpayable",
      "type": "function"
    },
    {
      "inputs": [
        {
          "internalType": "address",
          "name": "blockFans",
          "type": "address"
        }
      ],
      "name": "setBlockFans",
      "outputs": [],
      "stateMutability": "nonpayable",
      "type": "function"
    },
    {
      "inputs": [
        {
          "internalType": "address",
          "name": "creatorsAddress",
          "type": "address"
        }
      ],
      "name": "setCreators",
      "outputs": [],
      "stateMutability": "nonpayable",
      "type": "function"
    },
    {
      "inputs": [
        {
          "internalType": "string",
          "name": "name",
          "type": "string"
        },
        {
          "internalType": "string",
          "name": "description",
          "type": "string"
        },
        {
          "internalType": "string",
          "name": "external_url",
          "type": "string"
        },
        {
          "internalType": "uint256",
          "name": "duration",
          "type": "uint256"
        },
        {
          "internalType": "uint256",
          "name": "price",
          "type": "uint256"
        },
        {
          "internalType": "uint256",
          "name": "units",
          "type": "uint256"
        }
      ],
      "name": "setPlan",
      "outputs": [],
      "stateMutability": "nonpayable",
      "type": "function"
    },
    {
      "inputs": [
        {
          "internalType": "uint256",
          "name": "",
          "type": "uint256"
        }
      ],
      "name": "subscriptions",
      "outputs": [
        {
          "internalType": "uint256",
          "name": "subscriptionId",
          "type": "uint256"
        },
        {
          "internalType": "uint256",
          "name": "planId",
          "type": "uint256"
        },
        {
          "internalType": "uint256",
          "name": "startDate",
          "type": "uint256"
        },
        {
          "internalType": "uint256",
          "name": "duration",
          "type": "uint256"
        }
      ],
      "stateMutability": "view",
      "type": "function"
    },
    {
      "inputs": [
        {
          "internalType": "address",
          "name": "newOwner",
          "type": "address"
        }
      ],
      "name": "transferOwnership",
      "outputs": [],
      "stateMutability": "nonpayable",
      "type": "function"
    },
    {
      "inputs": [
        {
          "internalType": "address",
          "name": "tokenAddress",
          "type": "address"
        },
        {
          "internalType": "uint256",
          "name": "amountOrTokenId",
          "type": "uint256"
        }
      ],
      "name": "withdraw",
      "outputs": [],
      "stateMutability": "nonpayable",
      "type": "function"
    },
    {
      "stateMutability": "payable",
      "type": "receive"
    }
  ],
  "bytecode": "0x608060405234620000265762000014620000ed565b60405161222e620001eb823961222e90f35b600080fd5b90600019905b9181191691161790565b6200004b6200004b6200004b9290565b90565b90620000626200004b6200006a926200003b565b82546200002b565b9055565b6200007e6200004b6200004b9290565b6001600160a01b031690565b6200004b906200006e565b6200004b906200007e906001600160a01b031682565b6200004b9062000095565b6200004b90620000ab565b906001600160a01b039062000031565b90620000e56200004b6200006a92620000b6565b8254620000c1565b620000f762000165565b620001636200015b60016200010e8160046200004e565b6200011b8160056200004e565b620001556200012b60006200008a565b91620001436200013b84620000b6565b6003620000d1565b6200014e83620000b6565b90620000d1565b620000b6565b6002620000d1565b565b62000163803362000188565b6200004b906200007e565b6200004b905462000171565b6200019460006200017c565b90620001a2816000620000d1565b620001d9620001d27f8be0079c531659141344cd1fd0a4f28419497f9722a3daafe3b4186f6b6457e093620000b6565b91620000b6565b91620001e460405190565b600090a356fe60806040526004361015610026575b361561001e5761001c610ab4565b005b61001c610ab4565b60003560e01c80631282d2f2146101565780632d5bbf60146101515780633fe3a9861461014c57806352a7c9f1146101475780635f8d26b2146101425780636c60014d1461013d578063715018a6146101385780638da5cb5b14610133578063925a06c61461012e578063a80b223b14610129578063aa80a12d14610124578063afeece811461011f578063ba908b451461011a578063d348f42414610115578063da58935f14610110578063f142bdd51461010b578063f2fde38b14610106578063f3fef3a3146101015763fa3157d50361000e57610889565b610870565b610835565b61081a565b6107ff565b6107d8565b6107c0565b6107a8565b610790565b610778565b610760565b610721565b610709565b6106e2565b61050c565b6104bb565b610338565b610307565b610213565b6001600160a01b031690565b90565b6001600160a01b0381165b0361017c57565b600080fd5b9050359061018e8261016a565b565b9060208282031261017c5761016791610181565b9052565b0190565b906101cc6101c56101bb845190565b8084529260200190565b9260200190565b9060005b8181106101dd5750505090565b9091926101fa6101f36001928651815260200190565b9460200190565b9291016101d0565b6020808252610167929101906101ac565b3461017c5761023a61022e610229366004610190565b611443565b60405191829182610202565b0390f35b80610175565b9050359061018e8261023e565b9060208282031261017c5761016791610244565b6101676101676101679290565b9061027c90610265565b600052602052604060002090565b6101679081565b610167905461028a565b6102a6906009610272565b906102b082610291565b916102bd60018201610291565b9161016760036102cf60028501610291565b9301610291565b61030361018e946102fc6060949897956102f5608086019a6000870152565b6020850152565b6040830152565b0152565b3461017c5761023a61032261031d366004610251565b61029b565b9061032f94929460405190565b948594856102d6565b3461017c5761023a61035361034e366004610251565b6114af565b6040515b9182918290815260200190565b634e487b7160e01b600052604160045260246000fd5b90601f01601f1916810190811067ffffffffffffffff82111761039c57604052565b610364565b9061018e6103ae60405190565b928361037a565b67ffffffffffffffff811161039c57602090601f01601f19160190565b90826000939282370152565b909291926103f36103ee826103b5565b6103a1565b9381855260208501908284011161017c5761018e926103d2565b9080601f8301121561017c57816020610167933591016103de565b909160c08284031261017c57813567ffffffffffffffff811161017c578361045191840161040d565b92602083013567ffffffffffffffff811161017c578161047291850161040d565b92604081013567ffffffffffffffff811161017c578261049391830161040d565b926101676104a48460608501610244565b936104b28160808601610244565b9360a001610244565b3461017c576104da6104ce366004610428565b94939093929192610f6b565b604051005b600091031261017c57565b610167916008021c81565b9061016791546104ea565b610167600060046104f5565b3461017c5761051c3660046104df565b61023a610353610500565b60005b83811061053a5750506000910152565b818101518382015260200161052a565b61056b6105746020936101a89361055f815190565b80835293849260200190565b95869101610527565b601f01601f191690565b634e487b7160e01b600052602160045260246000fd5b6006111561059e57565b61057e565b9061018e82610594565b610167906105a3565b6101a4906105ad565b805182526020808201516001600160a01b0316908301529061016790610100806106236106116105ff61012086016040890151878203604089015261054a565b6060880151868203606088015261054a565b6080870151858203608087015261054a565b9461063360a082015160a0860152565b61064260c082015160c0860152565b61065160e082015160e0860152565b01519101906105b6565b90610167916105bf565b9061067b610671835190565b8083529160200190565b908161068d6020830284019460200190565b926000915b8383106106a157505050505090565b909192939460206106c46106bd8385600195038752895161065b565b9760200190565b9301930191939290610692565b602080825261016792910190610665565b3461017c5761023a6106fd6106f8366004610190565b61145a565b604051918291826106d1565b3461017c576107193660046104df565b6104da6108d9565b3461017c576107313660046104df565b61023a6107466000546001600160a01b031690565b604051918291826001600160a01b03909116815260200190565b3461017c576104da610773366004610251565b611545565b3461017c576104da61078b366004610251565b611b21565b3461017c576104da6107a3366004610251565b611928565b3461017c576104da6107bb366004610251565b6119d0565b3461017c576104da6107d3366004610190565b610b23565b3461017c576107e83660046104df565b61023a6106fd6113bb565b610167600060056104f5565b3461017c5761080f3660046104df565b61023a6103536107f3565b3461017c5761082a3660046104df565b61023a61022e611142565b3461017c576104da610848366004610190565b6109fa565b919060408382031261017c57610167906108678185610181565b93602001610244565b3461017c576104da61088336600461084d565b906121ee565b3461017c576104da61089c366004610190565b610b4b565b6108a9610935565b61018e6108c7565b61015b6101676101679290565b610167906108b1565b61018e6108d460006108be565b610a59565b61018e6108a1565b156108e857565b60405162461bcd60e51b815280610931600482016020808252818101527f4f776e61626c653a2063616c6c6572206973206e6f7420746865206f776e6572604082015260600190565b0390fd5b61018e61094a6000546001600160a01b031690565b6109636109563361015b565b916001600160a01b031690565b146108e1565b61018e90610975610935565b6109d5565b1561098157565b60405162461bcd60e51b815260206004820152602660248201527f4f776e61626c653a206e6577206f776e657220697320746865207a65726f206160448201526564647265737360d01b6064820152608490fd5b61018e906108d46109e961015b60006108be565b6001600160a01b038316141561097a565b61018e90610969565b906001600160a01b03905b9181191691161790565b6101679061015b906001600160a01b031682565b61016790610a18565b61016790610a2c565b90610a4e610167610a5592610a35565b8254610a03565b9055565b6000546001600160a01b031690610a71816000610a3e565b610aa4610a9e7f8be0079c531659141344cd1fd0a4f28419497f9722a3daafe3b4186f6b6457e093610a35565b91610a35565b91610aae60405190565b600090a3565b347f88a5966d370b9919b20f3e2c13ff65706f196a4e32cc2c12bf57088f88525874610aec610ae233610a35565b9261035760405190565b0390a2565b61018e90610afd610935565b610b1c61018e91610b17610b1082610a35565b6003610a3e565b610a35565b6001610a3e565b61018e90610af1565b61018e90610b38610935565b610b4461018e91610a35565b6002610a3e565b61018e90610b2c565b801515610175565b9050519061018e82610b54565b9060208282031261017c5761016791610b5c565b6040513d6000823e3d90fd5b15610b9057565b60405162461bcd60e51b815260206004820152600d60248201526c2737ba10309031b932b0ba37b960991b6044820152606490fd5b634e487b7160e01b600052601160045260246000fd5b6000198114610bea5760010190565b610bc5565b9060001990610a0e565b90610c09610167610a5592610265565b8254610bef565b6101676101206103a1565b906101a4906105a3565b634e487b7160e01b600052600060045260246000fd5b634e487b7160e01b600052602260045260246000fd5b9060016002830492168015610c71575b6020831014610c6c57565b610c3b565b91607f1691610c61565b9160001960089290920291821b911b610a0e565b9190610ca0610167610a5593610265565b908354610c7b565b61018e91600091610c8f565b818110610cbf575050565b80610ccd6000600193610ca8565b01610cb4565b9190601f8111610ce257505050565b610cf461018e93600052602060002090565b906020601f840181900483019310610d17575b6020601f909101045b0190610cb4565b9091508190610d07565b600019600883021c1916906002021790565b90610d3c815190565b9067ffffffffffffffff821161039c57610d6082610d5a8554610c51565b85610cd3565b602090601f8311600114610d8e57610a55929160009183610d83575b5050610d21565b015190503880610d7c565b601f19831691610da385600052602060002090565b9260005b818110610de157509160029391856001969410610dc8575b50505002019055565b01516000196008601f8516021c19169055388080610dbf565b91936020600181928787015181550195019201610da7565b9061018e91610d33565b61016790516105a3565b9060ff90610a0e565b90610e26610167610a55926105ad565b8254610e0d565b61018e9190610eea9061010090600890610e4f81610e49875190565b90610bf9565b610e7060018201610e6a60208801516001600160a01b031690565b90610a3e565b610e8860028201610e82604088015190565b90610df9565b610e9a60038201610e82606088015190565b610eac60048201610e82608088015190565b610ebe60058201610e4960a088015190565b610ed060068201610e4960c088015190565b610ee260078201610e4960e088015190565b019201610e03565b90610e16565b9061018e91610e2d565b9061027c90610a35565b634e487b7160e01b600052603260045260246000fd5b8054821015610f3d57610f34600191600052602060002090565b91020190600090565b610f04565b90815491600160401b83101561039c5782610f6591600161018e95018155610f1a565b90610c8f565b929394909194610f86610b176002546001600160a01b031690565b94610fa5602063efd460653398610f9c60405190565b93849260e01b90565b82526001600160a01b038a16600483015260249082905afa80156110b157610fd591600091611083575b50610b89565b610fdf6004610291565b96610fe988610bdb565b610ff4906004610bf9565b600194610fff610c10565b966110088a8952565b6001600160a01b038916602089015260408801526060870152608086015260a085015260c084015260e0830152611043906101008301610c1b565b61104e836006610272565b9061105891610ef0565b81611064826007610efa565b9061106e91610f42565b611079906008610efa565b9061018e91610f42565b6110a4915060203d81116110aa575b61109c818361037a565b810190610b69565b38610fcf565b503d611092565b610b7d565b906110d16110c56101bb845490565b92600052602060002090565b9060005b8181106110e25750505090565b9091926111066110ff6001926110f787610291565b815260200190565b9460010190565b9291016110d5565b90610167916110b6565b9061018e6111329261112960405190565b9384809261110e565b038361037a565b61016790611118565b610167611150336007610efa565b611139565b67ffffffffffffffff811161039c5760208091020190565b9061117a6103ee83611155565b918252565b611187610c10565b9060008252602080808080808080808a0160008152016060815201606081520160608152016000815201600081520160008152016000905250565b61016761117f565b60005b8281106111d957505050565b6020906111e46111c2565b81840152016111cd565b9061018e6112046111fe8461116d565b93611155565b601f1901602084016111ca565b9061121a825190565b811015610f3d576020809102010190565b8054600093929161124861123e83610c51565b8085529360200190565b916001811690811561129a575060011461126157505050565b6112749192939450600052602060002090565b916000925b8184106112865750500190565b805484840152602090930192600101611279565b92949550505060ff1916825215156020020190565b906101679161122b565b9061018e611132926112ca60405190565b938480926112af565b9061018e6113a860086112e4610c10565b946112f56112f182610291565b8752565b61131c61130c60018301546001600160a01b031690565b6001600160a01b03166020880152565b61133261132b600283016112b9565b6040880152565b611348611341600383016112b9565b6060880152565b61135e611357600483016112b9565b6080880152565b61137461136d60058301610291565b60a0880152565b61138a61138360068301610291565b60c0880152565b6113a061139960078301610291565b60e0880152565b015460ff1690565b6101008401610c1b565b610167906112d3565b6113c9611150336007610efa565b6113d96113d4825190565b6111ee565b906113e46000610265565b6113ef610167835190565b81101561143e576114399061141e611419600661141361140f8588611211565b5190565b90610272565b6113b2565b6114288286611211565b526114338185611211565b50610bdb565b6113e4565b505090565b61115061016791611452606090565b506008610efa565b61115061146991611452606090565b6114746113d4825190565b9061147f6000610265565b61148a610167835190565b81101561143e576114aa9061141e611419600661141361140f8588611211565b61147f565b6114c6610167916114be600090565b50600a610272565b610291565b156114d257565b60405162461bcd60e51b815260206004820152600f60248201526e2737ba103a34329031b932b0ba37b960891b6044820152606490fd5b1561151057565b60405162461bcd60e51b815260206004820152600d60248201526c4e6f7420417661696c61626c6560981b6044820152606490fd5b61018e9060066115c861156b600161155d8585610272565b01546001600160a01b031690565b3392906115819061157b85610956565b146114cb565b61159060086113a08684610272565b6115a361159d60006105a3565b916105a3565b1480156115cd575b6115b490611509565b60086115c285600393610272565b01610e16565b611640565b506115b46115e060086113a08785610272565b6115ed61159d60016105a3565b1490506115ab565b91908203918211610bea57565b634e487b7160e01b600052603160045260246000fd5b8054801561163b5760001901906116386116328383610f1a565b90610ca8565b55565b611602565b600861165361164f8383610efa565b5490565b61165d6000610265565b818110156116f35761168161167b826116768787610efa565b610f1a565b906104f5565b859061168c565b9190565b1461169f5761169a90610bdb565b61165d565b61018e9450916116e961016793610f656116de61167b88966116d86116c76116ee9b89610efa565b916116d26001610265565b906115f5565b90610f1a565b916116768686610efa565b610efa565b611618565b5050505050565b9061170d90600019906020036008021c90565b8154169055565b9060009161173261172a82600052602060002090565b928354610d21565b905555565b919290602082101561178f57601f841160011461175957610a55929350610d21565b509061178a61018e93600161178161177685600052602060002090565b92601f602091010490565b82019101610cb4565b611714565b506117c882936117a6600194600052602060002090565b610d106020601f860104820192601f8616806117d0575b50601f602091010490565b600202179055565b6117dc908886036116fa565b386117bd565b929091600160401b821161039c576020111561182957602081101561180a57610a5591610d21565b60019160ff191661182084600052602060002090565b55600202019055565b60019150600202019055565b90815461184181610c51565b9081831161186a575b818310611858575b50505050565b61186193611737565b38808080611852565b611876838383876117e2565b61184a565b81810292918115918404141715610bea57565b600061018e91611835565b906000036118aa5761018e9061188e565b610c25565b6000906008906118bf8382610ca8565b8260018201556118d28360028301611899565b6118df8360038301611899565b6118ec8360048301611899565b6118f98360058301610ca8565b6119068360068301610ca8565b6119138360078301610ca8565b0155565b906000036118aa5761018e906118af565b61018e906006611985600061198084611946600161155d8388610272565b3395906119569061157b88610956565b61197b61196860086113a08585610272565b61197561159d60036105a3565b14611509565b610272565b611917565b6115c88282600761199961164f8383610efa565b6119a36000610265565b818110156116f3576119bc61167b826116768787610efa565b851461169f576119cb90610bdb565b6119a3565b61018e90611a136101676006611a0c6119ee600161155d8785610272565b3392906119fe9061157b85610956565b60086115c287600193610272565b6008610efa565b610f42565b15611a1f57565b60405162461bcd60e51b815260206004820152600860248201526714dbdb190813dd5d60c21b6044820152606490fd5b9050519061018e8261023e565b9060208282031261017c5761016791611a4f565b15611a7757565b60405162461bcd60e51b8152602060048201526011602482015270105b1b1bddd85b98d9481b9bdd081cd95d607a1b6044820152606490fd5b6101a490610a35565b6001600160a01b03909116815260608101939261018e929091604091610303906020830190611ab0565b15611aea57565b60405162461bcd60e51b815260206004820152600f60248201526e151c985b9cd9995c8819985a5b1959608a1b6044820152606490fd5b6006611b306101678383610272565b60078101611b3d81610291565b90600091611b4d61168884610265565b148015611dcf575b611b5e90611a18565b6008830192611b6e845460ff1690565b94611b8160019661197561159d896105a3565b611b95610b1787546001600160a01b031690565b9563dd62ed3e916020338099611bc7611bad30610a35565b96611be6611bba60405190565b9889958694859460e01b90565b84526001600160a01b0390811660048501521660248301526044820190565b03915afa9283156110b157600093611d95575b50610b17611c4a91602094950192611c3d611c1385610291565b96611c36611688610167670de0b6b3a76400009a611c308c610265565b9061187b565b1015611a70565b546001600160a01b031690565b611c9586611c7b6323b872dd96611c30611c75611c6f6003546001600160a01b031690565b97610291565b91610265565b95611ca1611c8860405190565b9788968795869460e01b90565b84528d60048501611ab9565b03925af180156110b157611cbd91600091611d77575b50611ae3565b611cc685611e50565b94600a92611ce8611cd78386610272565b610e49611ce382610291565b610bdb565b611cfd611688611cf785610291565b92610265565b14159283611d4e575b505050611d3c575b50610aec610ae27f6d9501d4c8596b2602660e3aa7db27655be4177db6b3d3eddaefedd8c631fa7192610a35565b611d4890600290610e16565b38611d0e565b611d6d929350611d676114c66116889361016793610272565b93610291565b1015388080611d06565b611d8f915060203d81116110aa5761109c818361037a565b38611cb7565b60209350611c4a91611dbf610b1792863d8111611dc8575b611db7818361037a565b810190611a5c565b94509150611bf9565b503d611dad565b50611b5e611de16114c687600a610272565b611df061168861016785610291565b109050611b55565b61016760806103a1565b61018e9190610e4990606090600390611e1b8185875190565b611e2d60018201610e49602088015190565b611e3f60028201610e49604088015190565b0192015190565b9061018e91611e02565b611419611e6791611e5f600090565b506006610272565b610167611e746005610291565b91611e88611e8184610bdb565b6005610bf9565b611ecd611e93825190565b91611ec6611ea360a04293015190565b91611ebf611eaf611df8565b95611eb8898852565b6020870152565b6040850152565b6060830152565b611ed8836009610272565b611e46565b9061018e91611eea610935565b611f88565b6001600160a01b03909116815260408101929161018e9160200152565b6001600160a01b0391821681529116602082015260608101929161018e9160400152565b15611f3757565b60405162461bcd60e51b8152602060048201526024808201527f496e73756666696369656e74204554482062616c616e636520696e20636f6e746044820152631c9858dd60e21b6064820152608490fd5b906000611f9761015b826108be565b6001600160a01b0384160361203057611fbc611fb230610a35565b8390311015611f30565b80808084611fd8610b17610b176000546001600160a01b031690565b828215612027575bf1156110b1577ffff3b3844276f57024e0b42afec1a37f75db36511e43819a4f2a63ab7862b6489061201133610a35565b92610aec61201e60405190565b92839283611eef565b506108fc611fe0565b81602061203f610b1786610a35565b63a9059cbb906120688561205b6000546001600160a01b031690565b93612073611c8860405190565b845260048401611eef565b03925af190816121d2575b501581146121a657612092610b1784610a35565b6342842e0e6120a030610a35565b6000546001600160a01b031692803b1561017c576120d48580946120df896120c760405190565b9889978896879560e01b90565b855260048501611f0c565b03925af1908161217a575b50151461214f5760405162461bcd60e51b815260206004820152603060248201527f546f6b656e2074797065206e6f7420737570706f72746564206f7220696e737560448201526f6666696369656e742062616c616e636560801b6064820152608490fd5b7ffff3b3844276f57024e0b42afec1a37f75db36511e43819a4f2a63ab7862b6489061201133610a35565b61219990833d851161219f575b612191818361037a565b8101906104df565b386120ea565b503d612187565b507ffff3b3844276f57024e0b42afec1a37f75db36511e43819a4f2a63ab7862b6489061201133610a35565b6121e99060203d81116110aa5761109c818361037a565b61207e565b9061018e91611edd56fea26469706673582212209094a0013a56c356eedf8c152758c2af8ab55bc5c4303dcd9422a2f450c6233364736f6c63430008130033",
  "linkReferences": {},
  "deployedLinkReferences": {}
}