{
  "_format": "hh-sol-artifact-1",
  "contractName": "Creators",
  "sourceName": "contracts/Creators.sol",
  "abi": [
    {
      "inputs": [],
      "stateMutability": "nonpayable",
      "type": "constructor"
    },
    {
      "anonymous": false,
      "inputs": [
        {
          "indexed": true,
          "internalType": "address",
          "name": "previousOwner",
          "type": "address"
        },
        {
          "indexed": true,
          "internalType": "address",
          "name": "newOwner",
          "type": "address"
        }
      ],
      "name": "OwnershipTransferred",
      "type": "event"
    },
    {
      "anonymous": false,
      "inputs": [
        {
          "indexed": true,
          "internalType": "address",
          "name": "from",
          "type": "address"
        },
        {
          "indexed": false,
          "internalType": "uint256",
          "name": "amount",
          "type": "uint256"
        }
      ],
      "name": "Received",
      "type": "event"
    },
    {
      "anonymous": false,
      "inputs": [
        {
          "indexed": false,
          "internalType": "address",
          "name": "sender",
          "type": "address"
        },
        {
          "indexed": false,
          "internalType": "address",
          "name": "tokenAddress",
          "type": "address"
        },
        {
          "indexed": false,
          "internalType": "uint256",
          "name": "amountOrTokenId",
          "type": "uint256"
        }
      ],
      "name": "Recovered",
      "type": "event"
    },
    {
      "stateMutability": "payable",
      "type": "fallback"
    },
    {
      "inputs": [
        {
          "internalType": "address",
          "name": "creatorAddress",
          "type": "address"
        },
        {
          "internalType": "enum Creator.Status",
          "name": "status",
          "type": "uint8"
        }
      ],
      "name": "addCreator",
      "outputs": [],
      "stateMutability": "nonpayable",
      "type": "function"
    },
    {
      "inputs": [
        {
          "internalType": "address",
          "name": "creatorAddress",
          "type": "address"
        },
        {
          "internalType": "enum Creator.Status",
          "name": "newStatus",
          "type": "uint8"
        }
      ],
      "name": "changeCreatorStatus",
      "outputs": [],
      "stateMutability": "nonpayable",
      "type": "function"
    },
    {
      "inputs": [],
      "name": "owner",
      "outputs": [
        {
          "internalType": "address",
          "name": "",
          "type": "address"
        }
      ],
      "stateMutability": "view",
      "type": "function"
    },
    {
      "inputs": [],
      "name": "renounceOwnership",
      "outputs": [],
      "stateMutability": "nonpayable",
      "type": "function"
    },
    {
      "inputs": [
        {
          "internalType": "address",
          "name": "blockFansAddress",
          "type": "address"
        }
      ],
      "name": "setBlockFans",
      "outputs": [],
      "stateMutability": "nonpayable",
      "type": "function"
    },
    {
      "inputs": [
        {
          "internalType": "address",
          "name": "creatorsNFTAddress",
          "type": "address"
        }
      ],
      "name": "setCreatorsNFT",
      "outputs": [],
      "stateMutability": "nonpayable",
      "type": "function"
    },
    {
      "inputs": [
        {
          "internalType": "address",
          "name": "newOwner",
          "type": "address"
        }
      ],
      "name": "transferOwnership",
      "outputs": [],
      "stateMutability": "nonpayable",
      "type": "function"
    },
    {
      "inputs": [
        {
          "internalType": "address",
          "name": "tokenAddress",
          "type": "address"
        },
        {
          "internalType": "uint256",
          "name": "amountOrTokenId",
          "type": "uint256"
        }
      ],
      "name": "withdraw",
      "outputs": [],
      "stateMutability": "nonpayable",
      "type": "function"
    },
    {
      "stateMutability": "payable",
      "type": "receive"
    }
  ],
  "bytecode": "0x608060405234620000265762000014620000b5565b604051610ac3620001808239610ac390f35b600080fd5b6200003e6200003b6200003b9290565b90565b6001600160a01b031690565b6200003b906200002b565b6200003b906200003e906001600160a01b031682565b6200003b9062000055565b6200003b906200006b565b90620000956200003b620000b19262000076565b82546001600160a01b0319166001600160a01b03919091161790565b9055565b620000bf620000fa565b620000f8620000f0620000d360006200004a565b620000ea620000e28262000076565b600162000081565b62000076565b600262000081565b565b620000f880336200011d565b6200003b906200003e565b6200003b905462000106565b62000129600062000111565b906200013781600062000081565b6200016e620001677f8be0079c531659141344cd1fd0a4f28419497f9722a3daafe3b4186f6b6457e09362000076565b9162000076565b916200017960405190565b600090a356fe60806040526004361015610026575b361561001e5761001c610478565b005b61001c610478565b60003560e01c80625360e7146100a55780635cfac830146100a0578063715018a61461009b5780638da5cb5b14610096578063ae587f9f14610091578063ba908b451461008c578063f2fde38b146100875763f3fef3a30361000e5761024c565b6101fe565b6101e6565b6101ce565b61017b565b61015f565b61013b565b610119565b6001600160a01b031690565b90565b6001600160a01b0381165b036100cb57565b600080fd5b905035906100dd826100b9565b565b600611156100cb57565b905035906100dd826100df565b91906040838203126100cb576100b69061011081856100d0565b936020016100e9565b346100cb5761013261012c3660046100f6565b90610646565b604051005b0390f35b346100cb5761013261014e3660046100f6565b90610709565b60009103126100cb57565b346100cb5761016f366004610154565b61013261029d565b9052565b346100cb5761018b366004610154565b6101376101a06000546001600160a01b031690565b604051918291826001600160a01b03909116815260200190565b906020828203126100cb576100b6916100d0565b346100cb576101326101e13660046101ba565b610509565b346100cb576101326101f93660046101ba565b6104e1565b346100cb576101326102113660046101ba565b6103be565b806100c4565b905035906100dd82610216565b91906040838203126100cb576100b69061024381856100d0565b9360200161021c565b346100cb5761013261025f366004610229565b90610a83565b61026d6102f9565b6100dd61028b565b6100aa6100b66100b69290565b6100b690610275565b6100dd6102986000610282565b61041d565b6100dd610265565b156102ac57565b60405162461bcd60e51b8152806102f5600482016020808252818101527f4f776e61626c653a2063616c6c6572206973206e6f7420746865206f776e6572604082015260600190565b0390fd5b6100dd61030e6000546001600160a01b031690565b61032761031a336100aa565b916001600160a01b031690565b146102a5565b6100dd906103396102f9565b610399565b1561034557565b60405162461bcd60e51b815260206004820152602660248201527f4f776e61626c653a206e6577206f776e657220697320746865207a65726f206160448201526564647265737360d01b6064820152608490fd5b6100dd906102986103ad6100aa6000610282565b6001600160a01b038316141561033e565b6100dd9061032d565b906001600160a01b03905b9181191691161790565b6100b6906100aa906001600160a01b031682565b6100b6906103dc565b6100b6906103f0565b906104126100b6610419926103f9565b82546103c7565b9055565b6000546001600160a01b031690610435816000610402565b6104686104627f8be0079c531659141344cd1fd0a4f28419497f9722a3daafe3b4186f6b6457e0936103f9565b916103f9565b9161047260405190565b600090a3565b347f88a5966d370b9919b20f3e2c13ff65706f196a4e32cc2c12bf57088f885258746104bd6104a6336103f9565b926104b060405190565b9182918290815260200190565b0390a2565b6100dd906104ce6102f9565b6104da6100dd916103f9565b6001610402565b6100dd906104c2565b6100dd906104f66102f9565b6105026100dd916103f9565b6002610402565b6100dd906104ea565b906100dd9161051f6102f9565b610620565b634e487b7160e01b600052604160045260246000fd5b90601f01601f1916810190811067ffffffffffffffff82111761055c57604052565b610524565b906100dd61056e60405190565b928361053a565b6100b66020610561565b634e487b7160e01b600052602160045260246000fd5b6006111561059f57565b61057f565b906100dd82610595565b90610177906105a4565b906105c2906103f9565b600052602052604060002090565b6100b690516105a4565b9060ff906103d2565b6100b6906105a4565b906105fc6100b6610419926105e3565b82546105da565b6100dd91610610906105d0565b906105ec565b906100dd91610603565b906106416100dd9261063a610633610575565b93846105ae565b60036105b8565b610616565b906100dd91610512565b906100dd9161065d6102f9565b6106b9565b61066f6100b66100b69290565b6105a4565b1561067b57565b60405162461bcd60e51b815260206004820152601660248201527510dc99585d1bdc88191bd95cc81b9bdd08195e1a5cdd60521b6044820152606490fd5b906100dd916107036003916106db60006106d383866105b8565b015460ff1690565b926106fe6000946106f76106f161066f88610662565b916105a4565b1415610674565b6105b8565b016105ec565b906100dd91610650565b906100dd916107206102f9565b6107f3565b8015156100c4565b905051906100dd82610725565b906020828203126100cb576100b69161072d565b6001600160a01b0390911681526040810192916100dd9160200152565b6040513d6000823e3d90fd5b6001600160a01b039182168152911660208201526060810192916100dd9160400152565b156107a257565b60405162461bcd60e51b8152602060048201526024808201527f496e73756666696369656e74204554482062616c616e636520696e20636f6e746044820152631c9858dd60e21b6064820152608490fd5b60006108016100aa82610282565b6001600160a01b038316036108a05761082661081c306103f9565b849031101561079b565b808080856108476108426108426000546001600160a01b031690565b6103f9565b828215610897575bf115610892573361088d7ffff3b3844276f57024e0b42afec1a37f75db36511e43819a4f2a63ab7862b6489361088460405190565b93849384610777565b0390a1565b61076b565b506108fc61084f565b8260206108af610842856103f9565b63a9059cbb906108e5856108cb6000546001600160a01b031690565b936108f06108d860405190565b9788968795869460e01b90565b84526004840161074e565b03925af19081610a57575b50158114610a275761090f610842836103f9565b6342842e0e61091d306103f9565b6000546001600160a01b031692803b156100cb5761095185809461095c8a61094460405190565b9889978896879560e01b90565b855260048501610777565b03925af190816109fb575b5015146109cc5760405162461bcd60e51b815260206004820152603060248201527f546f6b656e2074797065206e6f7420737570706f72746564206f7220696e737560448201526f6666696369656e742062616c616e636560801b6064820152608490fd5b3361088d7ffff3b3844276f57024e0b42afec1a37f75db36511e43819a4f2a63ab7862b6489361088460405190565b610a1a90833d8511610a20575b610a12818361053a565b810190610154565b38610967565b503d610a08565b503361088d7ffff3b3844276f57024e0b42afec1a37f75db36511e43819a4f2a63ab7862b6489361088460405190565b610a779060203d8111610a7c575b610a6f818361053a565b81019061073a565b6108fb565b503d610a65565b906100dd9161071356fea2646970667358221220ae3b4f82f0e8e2657e283bec760c5479fca9202f01ccbcd7156e8892b0e4cc0c64736f6c63430008130033",
  "linkReferences": {},
  "deployedLinkReferences": {}
}