{
  "_format": "hh-sol-artifact-1",
  "contractName": "Creators",
  "sourceName": "contracts/Creators.sol",
  "abi": [
    {
      "inputs": [],
      "stateMutability": "nonpayable",
      "type": "constructor"
    },
    {
      "anonymous": false,
      "inputs": [
        {
          "indexed": true,
          "internalType": "address",
          "name": "previousOwner",
          "type": "address"
        },
        {
          "indexed": true,
          "internalType": "address",
          "name": "newOwner",
          "type": "address"
        }
      ],
      "name": "OwnershipTransferred",
      "type": "event"
    },
    {
      "anonymous": false,
      "inputs": [
        {
          "indexed": true,
          "internalType": "address",
          "name": "from",
          "type": "address"
        },
        {
          "indexed": false,
          "internalType": "uint256",
          "name": "amount",
          "type": "uint256"
        }
      ],
      "name": "Received",
      "type": "event"
    },
    {
      "anonymous": false,
      "inputs": [
        {
          "indexed": false,
          "internalType": "address",
          "name": "sender",
          "type": "address"
        },
        {
          "indexed": false,
          "internalType": "address",
          "name": "tokenAddress",
          "type": "address"
        },
        {
          "indexed": false,
          "internalType": "uint256",
          "name": "amountOrTokenId",
          "type": "uint256"
        }
      ],
      "name": "Recovered",
      "type": "event"
    },
    {
      "stateMutability": "payable",
      "type": "fallback"
    },
    {
      "inputs": [
        {
          "internalType": "address",
          "name": "creatorAddress",
          "type": "address"
        },
        {
          "internalType": "enum Creator.Status",
          "name": "status",
          "type": "uint8"
        }
      ],
      "name": "addCreator",
      "outputs": [],
      "stateMutability": "nonpayable",
      "type": "function"
    },
    {
      "inputs": [
        {
          "internalType": "address",
          "name": "creatorAddress",
          "type": "address"
        },
        {
          "internalType": "enum Creator.Status",
          "name": "newStatus",
          "type": "uint8"
        }
      ],
      "name": "changeCreatorStatus",
      "outputs": [],
      "stateMutability": "nonpayable",
      "type": "function"
    },
    {
      "inputs": [],
      "name": "getCreators",
      "outputs": [
        {
          "internalType": "address[]",
          "name": "",
          "type": "address[]"
        }
      ],
      "stateMutability": "view",
      "type": "function"
    },
    {
      "inputs": [],
      "name": "owner",
      "outputs": [
        {
          "internalType": "address",
          "name": "",
          "type": "address"
        }
      ],
      "stateMutability": "view",
      "type": "function"
    },
    {
      "inputs": [],
      "name": "renounceOwnership",
      "outputs": [],
      "stateMutability": "nonpayable",
      "type": "function"
    },
    {
      "inputs": [
        {
          "internalType": "address",
          "name": "blockFansAddress",
          "type": "address"
        }
      ],
      "name": "setBlockFans",
      "outputs": [],
      "stateMutability": "nonpayable",
      "type": "function"
    },
    {
      "inputs": [
        {
          "internalType": "address",
          "name": "creatorsNFTAddress",
          "type": "address"
        }
      ],
      "name": "setCreatorsNFT",
      "outputs": [],
      "stateMutability": "nonpayable",
      "type": "function"
    },
    {
      "inputs": [
        {
          "internalType": "address",
          "name": "newOwner",
          "type": "address"
        }
      ],
      "name": "transferOwnership",
      "outputs": [],
      "stateMutability": "nonpayable",
      "type": "function"
    },
    {
      "inputs": [
        {
          "internalType": "address",
          "name": "tokenAddress",
          "type": "address"
        },
        {
          "internalType": "uint256",
          "name": "amountOrTokenId",
          "type": "uint256"
        }
      ],
      "name": "withdraw",
      "outputs": [],
      "stateMutability": "nonpayable",
      "type": "function"
    },
    {
      "stateMutability": "payable",
      "type": "receive"
    }
  ],
  "bytecode": "0x608060405234620000265762000014620000b5565b604051610ede620001808239610ede90f35b600080fd5b6200003e6200003b6200003b9290565b90565b6001600160a01b031690565b6200003b906200002b565b6200003b906200003e906001600160a01b031682565b6200003b9062000055565b6200003b906200006b565b90620000956200003b620000b19262000076565b82546001600160a01b0319166001600160a01b03919091161790565b9055565b620000bf620000fa565b620000f8620000f0620000d360006200004a565b620000ea620000e28262000076565b600162000081565b62000076565b600262000081565b565b620000f880336200011d565b6200003b906200003e565b6200003b905462000106565b62000129600062000111565b906200013781600062000081565b6200016e620001677f8be0079c531659141344cd1fd0a4f28419497f9722a3daafe3b4186f6b6457e09362000076565b9162000076565b916200017960405190565b600090a356fe60806040526004361015610026575b361561001e5761001c61051f565b005b61001c61051f565b60003560e01c80625360e7146100b55780635cfac830146100b0578063715018a6146100ab5780638da5cb5b146100a6578063ae587f9f146100a1578063ba908b451461009c578063e6adc1ee14610097578063f2fde38b146100925763f3fef3a30361000e576102f3565b6102a5565b61027e565b6101f6565b6101de565b61018b565b61016f565b61014b565b610129565b6001600160a01b031690565b90565b6001600160a01b0381165b036100db57565b600080fd5b905035906100ed826100c9565b565b600611156100db57565b905035906100ed826100ef565b91906040838203126100db576100c69061012081856100e0565b936020016100f9565b346100db5761014261013c366004610106565b906107b1565b604051005b0390f35b346100db5761014261015e366004610106565b906108e7565b60009103126100db57565b346100db5761017f366004610164565b610142610344565b9052565b346100db5761019b366004610164565b6101476101b06000546001600160a01b031690565b604051918291826001600160a01b03909116815260200190565b906020828203126100db576100c6916100e0565b346100db576101426101f13660046101ca565b6105b0565b346100db576101426102093660046101ca565b610588565b9061022e61022761021d845190565b8084529260200190565b9260200190565b9060005b81811061023f5750505090565b90919261026561025e60019286516001600160a01b0316815260200190565b9460200190565b929101610232565b60208082526100c69291019061020e565b346100db5761028e366004610164565b610147610299610b24565b6040519182918261026d565b346100db576101426102b83660046101ca565b610465565b806100d4565b905035906100ed826102bd565b91906040838203126100db576100c6906102ea81856100e0565b936020016102c3565b346100db576101426103063660046102d0565b90610e9e565b6103146103a0565b6100ed610332565b6100ba6100c66100c69290565b6100c69061031c565b6100ed61033f6000610329565b6104c4565b6100ed61030c565b1561035357565b60405162461bcd60e51b81528061039c600482016020808252818101527f4f776e61626c653a2063616c6c6572206973206e6f7420746865206f776e6572604082015260600190565b0390fd5b6100ed6103b56000546001600160a01b031690565b6103ce6103c1336100ba565b916001600160a01b031690565b1461034c565b6100ed906103e06103a0565b610440565b156103ec57565b60405162461bcd60e51b815260206004820152602660248201527f4f776e61626c653a206e6577206f776e657220697320746865207a65726f206160448201526564647265737360d01b6064820152608490fd5b6100ed9061033f6104546100ba6000610329565b6001600160a01b03831614156103e5565b6100ed906103d4565b906001600160a01b03905b9181191691161790565b6100c6906100ba906001600160a01b031682565b6100c690610483565b6100c690610497565b906104b96100c66104c0926104a0565b825461046e565b9055565b6000546001600160a01b0316906104dc8160006104a9565b61050f6105097f8be0079c531659141344cd1fd0a4f28419497f9722a3daafe3b4186f6b6457e0936104a0565b916104a0565b9161051960405190565b600090a3565b347f88a5966d370b9919b20f3e2c13ff65706f196a4e32cc2c12bf57088f8852587461056461054d336104a0565b9261055760405190565b9182918290815260200190565b0390a2565b6100ed906105756103a0565b6105816100ed916104a0565b60016104a9565b6100ed90610569565b6100ed9061059d6103a0565b6105a96100ed916104a0565b60026104a9565b6100ed90610591565b906100ed916105c66103a0565b610765565b634e487b7160e01b600052604160045260246000fd5b90601f01601f1916810190811067ffffffffffffffff82111761060357604052565b6105cb565b906100ed61061560405190565b92836105e1565b6100c66020610608565b634e487b7160e01b600052602160045260246000fd5b6006111561064657565b610626565b906100ed8261063c565b906101879061064b565b90610669906104a0565b600052602052604060002090565b6100c6905161064b565b9060ff90610479565b6100c69061064b565b906106a36100c66104c09261068a565b8254610681565b6100ed916106b790610677565b90610693565b906100ed916106aa565b634e487b7160e01b600052603260045260246000fd5b8054821015610700576106f7600191600052602060002090565b91020190600090565b6106c7565b916001600160a01b0360089290920291821b911b610479565b919061072f6100c66104c0936104a0565b908354610705565b9081549168010000000000000000831015610603578261075f9160016100ed950181556106dd565b9061071e565b9061078b61077161061c565b61077b8382610655565b61078684600461065f565b6106bd565b61079e610798600261064b565b9161064b565b146107a65750565b6100ed906003610737565b906100ed916105b9565b906100ed916107c86103a0565b610824565b6107da6100c66100c69290565b61064b565b156107e657565b60405162461bcd60e51b815260206004820152601660248201527510dc99585d1bdc88191bd95cc81b9bdd08195e1a5cdd60521b6044820152606490fd5b906100ed91610894600491610846600061083e838661065f565b015460ff1690565b9261086360009461085c6107986107da886107cd565b14156107df565b600261086e8161064b565b6108778761064b565b14806108d1575b1561089a575061088f826003610737565b61065f565b01610693565b6108a39061064b565b6108ac8661064b565b1415806108c2575b1561065f5761088f826109fd565b506108cc82610940565b6108b4565b506108e26108de84610940565b1590565b61087e565b906100ed916107bb565b6100c66100c66100c69290565b634e487b7160e01b600052601160045260246000fd5b60001981146109235760010190565b6108fe565b6100c6916008021c6100ba565b906100c69154610928565b60009061094c826108f1565b60036109596100c6825490565b8210156109a05761096d82610973926106dd565b90610935565b6109856001600160a01b0384166103c1565b146109985761099390610914565b61094c565b505050600190565b50505090565b9190820391821161092357565b634e487b7160e01b600052603160045260246000fd5b6100ed9160009161071e565b805480156109f85760001901906109f56109ef83836106dd565b906109c9565b55565b6109b3565b60038054610a0b60006108f1565b81811015610a8157610a2061096d82856106dd565b610a326001600160a01b0386166103c1565b14610a4557610a4090610914565b610a0b565b6100ed93506100c69061075f610a7561096d610a6f610a7c9796610a6960016108f1565b906109a6565b866106dd565b91846106dd565b6109d5565b50505050565b90610aa2610a9661021d845490565b92600052602060002090565b9060005b818110610ab35750505090565b909192610ae8610ae1600192610ad087546001600160a01b031690565b6001600160a01b0316815260200190565b9460010190565b929101610aa6565b906100c691610a87565b906100ed610b1492610b0b60405190565b93848092610af0565b03836105e1565b6100c690610afa565b6100c66003610b1b565b906100ed91610b3b6103a0565b610c0e565b8015156100d4565b905051906100ed82610b40565b906020828203126100db576100c691610b48565b6001600160a01b0390911681526040810192916100ed9160200152565b6040513d6000823e3d90fd5b6001600160a01b039182168152911660208201526060810192916100ed9160400152565b15610bbd57565b60405162461bcd60e51b8152602060048201526024808201527f496e73756666696369656e74204554482062616c616e636520696e20636f6e746044820152631c9858dd60e21b6064820152608490fd5b6000610c1c6100ba82610329565b6001600160a01b03831603610cbb57610c41610c37306104a0565b8490311015610bb6565b80808085610c62610c5d610c5d6000546001600160a01b031690565b6104a0565b828215610cb2575bf115610cad5733610ca87ffff3b3844276f57024e0b42afec1a37f75db36511e43819a4f2a63ab7862b64893610c9f60405190565b93849384610b92565b0390a1565b610b86565b506108fc610c6a565b826020610cca610c5d856104a0565b63a9059cbb90610d0085610ce66000546001600160a01b031690565b93610d0b610cf360405190565b9788968795869460e01b90565b845260048401610b69565b03925af19081610e72575b50158114610e4257610d2a610c5d836104a0565b6342842e0e610d38306104a0565b6000546001600160a01b031692803b156100db57610d6c858094610d778a610d5f60405190565b9889978896879560e01b90565b855260048501610b92565b03925af19081610e16575b501514610de75760405162461bcd60e51b815260206004820152603060248201527f546f6b656e2074797065206e6f7420737570706f72746564206f7220696e737560448201526f6666696369656e742062616c616e636560801b6064820152608490fd5b33610ca87ffff3b3844276f57024e0b42afec1a37f75db36511e43819a4f2a63ab7862b64893610c9f60405190565b610e3590833d8511610e3b575b610e2d81836105e1565b810190610164565b38610d82565b503d610e23565b5033610ca87ffff3b3844276f57024e0b42afec1a37f75db36511e43819a4f2a63ab7862b64893610c9f60405190565b610e929060203d8111610e97575b610e8a81836105e1565b810190610b55565b610d16565b503d610e80565b906100ed91610b2e56fea26469706673582212200227fe21f3b6faa82419bcc9b25f212a7bb91a6f4752bc6b5d1fc1371ac2ec5464736f6c63430008130033",
  "linkReferences": {},
  "deployedLinkReferences": {}
}