{
  "_format": "hh-sol-artifact-1",
  "contractName": "Blockfans",
  "sourceName": "contracts/Blockfans.sol",
  "abi": [
    {
      "inputs": [],
      "stateMutability": "nonpayable",
      "type": "constructor"
    },
    {
      "anonymous": false,
      "inputs": [
        {
          "indexed": true,
          "internalType": "address",
          "name": "owner",
          "type": "address"
        },
        {
          "indexed": true,
          "internalType": "address",
          "name": "spender",
          "type": "address"
        },
        {
          "indexed": false,
          "internalType": "uint256",
          "name": "value",
          "type": "uint256"
        }
      ],
      "name": "Approval",
      "type": "event"
    },
    {
      "anonymous": false,
      "inputs": [
        {
          "indexed": true,
          "internalType": "address",
          "name": "previousOwner",
          "type": "address"
        },
        {
          "indexed": true,
          "internalType": "address",
          "name": "newOwner",
          "type": "address"
        }
      ],
      "name": "OwnershipTransferred",
      "type": "event"
    },
    {
      "anonymous": false,
      "inputs": [
        {
          "indexed": true,
          "internalType": "address",
          "name": "from",
          "type": "address"
        },
        {
          "indexed": false,
          "internalType": "uint256",
          "name": "amount",
          "type": "uint256"
        }
      ],
      "name": "Received",
      "type": "event"
    },
    {
      "anonymous": false,
      "inputs": [
        {
          "indexed": false,
          "internalType": "address",
          "name": "sender",
          "type": "address"
        },
        {
          "indexed": false,
          "internalType": "address",
          "name": "tokenAddress",
          "type": "address"
        },
        {
          "indexed": false,
          "internalType": "uint256",
          "name": "amountOrTokenId",
          "type": "uint256"
        }
      ],
      "name": "Recovered",
      "type": "event"
    },
    {
      "anonymous": false,
      "inputs": [
        {
          "indexed": true,
          "internalType": "address",
          "name": "from",
          "type": "address"
        },
        {
          "indexed": true,
          "internalType": "address",
          "name": "to",
          "type": "address"
        },
        {
          "indexed": false,
          "internalType": "uint256",
          "name": "value",
          "type": "uint256"
        }
      ],
      "name": "Transfer",
      "type": "event"
    },
    {
      "stateMutability": "payable",
      "type": "fallback"
    },
    {
      "inputs": [
        {
          "internalType": "address",
          "name": "owner",
          "type": "address"
        },
        {
          "internalType": "address",
          "name": "spender",
          "type": "address"
        }
      ],
      "name": "allowance",
      "outputs": [
        {
          "internalType": "uint256",
          "name": "",
          "type": "uint256"
        }
      ],
      "stateMutability": "view",
      "type": "function"
    },
    {
      "inputs": [
        {
          "internalType": "address",
          "name": "spender",
          "type": "address"
        },
        {
          "internalType": "uint256",
          "name": "amount",
          "type": "uint256"
        }
      ],
      "name": "approve",
      "outputs": [
        {
          "internalType": "bool",
          "name": "",
          "type": "bool"
        }
      ],
      "stateMutability": "nonpayable",
      "type": "function"
    },
    {
      "inputs": [
        {
          "internalType": "address",
          "name": "account",
          "type": "address"
        }
      ],
      "name": "balanceOf",
      "outputs": [
        {
          "internalType": "uint256",
          "name": "",
          "type": "uint256"
        }
      ],
      "stateMutability": "view",
      "type": "function"
    },
    {
      "inputs": [],
      "name": "companyAddress",
      "outputs": [
        {
          "internalType": "address payable",
          "name": "",
          "type": "address"
        }
      ],
      "stateMutability": "view",
      "type": "function"
    },
    {
      "inputs": [],
      "name": "companyPercentage",
      "outputs": [
        {
          "internalType": "uint256",
          "name": "",
          "type": "uint256"
        }
      ],
      "stateMutability": "view",
      "type": "function"
    },
    {
      "inputs": [],
      "name": "decimals",
      "outputs": [
        {
          "internalType": "uint8",
          "name": "",
          "type": "uint8"
        }
      ],
      "stateMutability": "view",
      "type": "function"
    },
    {
      "inputs": [
        {
          "internalType": "address",
          "name": "spender",
          "type": "address"
        },
        {
          "internalType": "uint256",
          "name": "subtractedValue",
          "type": "uint256"
        }
      ],
      "name": "decreaseAllowance",
      "outputs": [
        {
          "internalType": "bool",
          "name": "",
          "type": "bool"
        }
      ],
      "stateMutability": "nonpayable",
      "type": "function"
    },
    {
      "inputs": [],
      "name": "getHolders",
      "outputs": [
        {
          "internalType": "address[]",
          "name": "",
          "type": "address[]"
        },
        {
          "internalType": "uint256[]",
          "name": "",
          "type": "uint256[]"
        }
      ],
      "stateMutability": "view",
      "type": "function"
    },
    {
      "inputs": [
        {
          "internalType": "address",
          "name": "spender",
          "type": "address"
        },
        {
          "internalType": "uint256",
          "name": "addedValue",
          "type": "uint256"
        }
      ],
      "name": "increaseAllowance",
      "outputs": [
        {
          "internalType": "bool",
          "name": "",
          "type": "bool"
        }
      ],
      "stateMutability": "nonpayable",
      "type": "function"
    },
    {
      "inputs": [],
      "name": "name",
      "outputs": [
        {
          "internalType": "string",
          "name": "",
          "type": "string"
        }
      ],
      "stateMutability": "view",
      "type": "function"
    },
    {
      "inputs": [],
      "name": "owner",
      "outputs": [
        {
          "internalType": "address",
          "name": "",
          "type": "address"
        }
      ],
      "stateMutability": "view",
      "type": "function"
    },
    {
      "inputs": [],
      "name": "renounceOwnership",
      "outputs": [],
      "stateMutability": "nonpayable",
      "type": "function"
    },
    {
      "inputs": [
        {
          "internalType": "address",
          "name": "_companyAddress",
          "type": "address"
        }
      ],
      "name": "setCompanyAddress",
      "outputs": [],
      "stateMutability": "nonpayable",
      "type": "function"
    },
    {
      "inputs": [
        {
          "internalType": "uint256",
          "name": "_companyTax",
          "type": "uint256"
        }
      ],
      "name": "setCompanyTax",
      "outputs": [],
      "stateMutability": "nonpayable",
      "type": "function"
    },
    {
      "inputs": [],
      "name": "symbol",
      "outputs": [
        {
          "internalType": "string",
          "name": "",
          "type": "string"
        }
      ],
      "stateMutability": "view",
      "type": "function"
    },
    {
      "inputs": [],
      "name": "totalSupply",
      "outputs": [
        {
          "internalType": "uint256",
          "name": "",
          "type": "uint256"
        }
      ],
      "stateMutability": "view",
      "type": "function"
    },
    {
      "inputs": [
        {
          "internalType": "address",
          "name": "recipient",
          "type": "address"
        },
        {
          "internalType": "uint256",
          "name": "amount",
          "type": "uint256"
        }
      ],
      "name": "transfer",
      "outputs": [
        {
          "internalType": "bool",
          "name": "",
          "type": "bool"
        }
      ],
      "stateMutability": "nonpayable",
      "type": "function"
    },
    {
      "inputs": [
        {
          "internalType": "address",
          "name": "sender",
          "type": "address"
        },
        {
          "internalType": "address",
          "name": "recipient",
          "type": "address"
        },
        {
          "internalType": "uint256",
          "name": "amount",
          "type": "uint256"
        }
      ],
      "name": "transferFrom",
      "outputs": [
        {
          "internalType": "bool",
          "name": "",
          "type": "bool"
        }
      ],
      "stateMutability": "nonpayable",
      "type": "function"
    },
    {
      "inputs": [
        {
          "internalType": "address",
          "name": "newOwner",
          "type": "address"
        }
      ],
      "name": "transferOwnership",
      "outputs": [],
      "stateMutability": "nonpayable",
      "type": "function"
    },
    {
      "inputs": [
        {
          "internalType": "address",
          "name": "tokenAddress",
          "type": "address"
        },
        {
          "internalType": "uint256",
          "name": "amountOrTokenId",
          "type": "uint256"
        }
      ],
      "name": "withdraw",
      "outputs": [],
      "stateMutability": "nonpayable",
      "type": "function"
    },
    {
      "stateMutability": "payable",
      "type": "receive"
    }
  ],
  "bytecode": "0x6080604052346200002657620000146200014d565b60405161193462000630823961193490f35b600080fd5b634e487b7160e01b600052604160045260246000fd5b90601f01601f191681019081106001600160401b038211176200006357604052565b6200002b565b90620000806200007860405190565b928362000041565b565b6001600160401b0381116200006357602090601f01601f19160190565b90620000b5620000af8362000082565b62000069565b918252565b620000c660096200009f565b68426c6f636b66616e7360b81b602082015290565b620000e5620000ba565b90565b620000f460036200009f565b622320a760e91b602082015290565b620000e5620000e8565b620000e5620000e5620000e59290565b90600019905b9181191691161790565b9062000141620000e562000149926200010d565b82546200011d565b9055565b6200016c6200015b620000db565b6200016562000103565b90620001a8565b6200019033620001896c0c9f2c9cd04674edea400000006200010d565b906200055f565b62000080620001a060056200010d565b600a6200012d565b6200008091620001b891620003ab565b62000080336200043b565b634e487b7160e01b600052602260045260246000fd5b9060016002830492168015620001fc575b6020831014620001f657565b620001c3565b91607f1691620001ea565b9160001960089290920291821b911b62000123565b919062000231620000e562000149936200010d565b90835462000207565b62000080916000916200021c565b81811062000254575050565b806200026460006001936200023a565b0162000248565b9190601f81116200027b57505050565b6200028f6200008093600052602060002090565b906020601f840181900483019310620002b3575b6020601f90910104019062000248565b9091508190620002a3565b90620002c8815190565b906001600160401b0382116200006357620002f082620002e98554620001d9565b856200026b565b602090601f83116001146200032f576200014992916000918362000323575b5050600019600883021c1916906002021790565b0151905038806200030f565b601f198316916200034585600052602060002090565b9260005b81811062000386575091600293918560019694106200036c575b50505002019055565b01516000196008601f8516021c1916905538808062000363565b9193602060018192878701518155019501920162000349565b906200008091620002be565b90620003bd620000809260036200039f565b60046200039f565b620000e5905b6001600160a01b031690565b620000e59054620003c5565b906001600160a01b039062000123565b620000e590620003cb906001600160a01b031682565b620000e590620003f3565b620000e59062000409565b9062000433620000e5620001499262000414565b8254620003e3565b620004476005620003d7565b90620004558160056200041f565b6200048c620004857f8be0079c531659141344cd1fd0a4f28419497f9722a3daafe3b4186f6b6457e09362000414565b9162000414565b916200049760405190565b80805b0390a3565b620003cb620000e5620000e59290565b620000e5906200049f565b15620004c257565b60405162461bcd60e51b815260206004820152601f60248201527f45524332303a206d696e7420746f20746865207a65726f2061646472657373006044820152606490fd5b620000e59081565b620000e5905462000507565b634e487b7160e01b600052601160045260246000fd5b919082018092116200053f57565b6200051b565b90620005519062000414565b600052602052604060002090565b6000620005dc620005c1836200057584620004af565b93620005986200058586620003cb565b6200059084620003cb565b1415620004ba565b620005bb620005b388620005ad60026200050f565b62000531565b60026200012d565b62000545565b620005d585620005d1836200050f565b0190565b906200012d565b6200049a62000617620006107fddf252ad1be2c89b69c2b068fc378daa952ba7f163c4a11628f55a4df523b3ef9362000414565b9362000414565b936200062260405190565b918291829081526020019056fe60806040526004361015610026575b361561001e5761001c610ca8565b005b61001c610ca8565b60003560e01c806306fdde0314610166578063095ea7b314610161578063106f09f21461015c57806318160ddd1461015757806323b872dd14610152578063313ce5671461014d57806339509351146101485780634f63a7721461014357806353e1ead91461013e5780635fe8e7cc1461013957806370a0823114610134578063715018a61461012f5780638da5cb5b1461012a57806395d89b4114610125578063a457c2d714610120578063a9059cbb1461011b578063dae64f4014610116578063dd62ed3e14610111578063f2fde38b1461010c5763f3fef3a30361000e5761064b565b610633565b610617565b6105dc565b6105ac565b610590565b610575565b61055a565b610542565b610527565b6104f9565b610402565b6103ba565b61038a565b61035b565b61033f565b6102f4565b6102c8565b610278565b6101ea565b600091031261017657565b600080fd5b60005b83811061018e5750506000910152565b818101518382015260200161017e565b6101bf6101c86020936101d2936101b3815190565b80835293849260200190565b9586910161017b565b601f01601f191690565b0190565b60208082526101e79291019061019e565b90565b34610176576101fa36600461016b565b6102116102056109bf565b604051918291826101d6565b0390f35b6001600160a01b031690565b6001600160a01b0381165b0361017657565b9050359061024082610221565b565b8061022c565b9050359061024082610242565b9190604083820312610176576101e79061026f8185610233565b93602001610248565b346101765761021161029461028e366004610255565b90610a5f565b60405191829182901515815260200190565b6101e7916008021c81565b906101e791546102a6565b6101e76000600a6102b1565b34610176576102d836600461016b565b6102116102e36102bc565b6040515b9182918290815260200190565b346101765761030436600461016b565b6102116102e3610a01565b9091606082840312610176576101e76103288484610233565b936103368160208601610233565b93604001610248565b346101765761021161029461035536600461030f565b91611499565b346101765761036b36600461016b565b6102116103766109e6565b6040519182918260ff909116815260200190565b34610176576102116102946103a0366004610255565b90610a97565b90602082820312610176576101e791610233565b34610176576103d26103cd3660046103a6565b610d04565b604051005b6101e7916008021c6001600160a01b031690565b906101e791546103d7565b6101e7600060096103eb565b346101765761041236600461016b565b61021161041d6103f6565b604051918291826001600160a01b03909116815260200190565b90610457610450610446845190565b8084529260200190565b9260200190565b9060005b8181106104685750505090565b90919261048e61048760019286516001600160a01b0316815260200190565b9460200190565b92910161045b565b906104a5610450610446845190565b9060005b8181106104b65750505090565b9091926104cc6104876001928651815260200190565b9291016104a9565b60408082526101e79391926104eb91840190610437565b916020818403910152610496565b346101765761050936600461016b565b610511610ddc565b9061021161051e60405190565b928392836104d4565b34610176576102116102e361053d3660046103a6565b610a23565b346101765761055236600461016b565b6103d26106b9565b346101765761056a36600461016b565b61021161041d610677565b346101765761058536600461016b565b6102116102056109c9565b34610176576102116102946105a6366004610255565b90610b10565b34610176576102116102946105c2366004610255565b90610f57565b90602082820312610176576101e791610248565b34610176576103d26105ef3660046105c8565b610d24565b9190604083820312610176576101e79061060e8185610233565b93602001610233565b34610176576102116102e361062d3660046105f4565b90610a3f565b34610176576103d26106463660046103a6565b6107d0565b34610176576103d261065e366004610255565b906118f4565b6101e790610215565b6101e79054610664565b6101e7600561066d565b610689610715565b6102406106a7565b6102156101e76101e79290565b6101e790610691565b6102406106b4600061069e565b61082f565b610240610681565b156106c857565b60405162461bcd60e51b815280610711600482016020808252818101527f4f776e61626c653a2063616c6c6572206973206e6f7420746865206f776e6572604082015260600190565b0390fd5b610240610720610677565b61073961072c33610215565b916001600160a01b031690565b146106c1565b6102409061074b610715565b6107ab565b1561075757565b60405162461bcd60e51b815260206004820152602660248201527f4f776e61626c653a206e6577206f776e657220697320746865207a65726f206160448201526564647265737360d01b6064820152608490fd5b610240906106b46107bf610215600061069e565b6001600160a01b0383161415610750565b6102409061073f565b906001600160a01b03905b9181191691161790565b6101e790610215906001600160a01b031682565b6101e7906107ee565b6101e790610802565b906108246101e761082b9261080b565b82546107d9565b9055565b610839600561066d565b90610845816005610814565b6108786108727f8be0079c531659141344cd1fd0a4f28419497f9722a3daafe3b4186f6b6457e09361080b565b9161080b565b9161088260405190565b80805b0390a3565b634e487b7160e01b600052602260045260246000fd5b90600160028304921680156108c0575b60208310146108bb57565b61088a565b91607f16916108b0565b805460009392916108e76108dd836108a0565b8085529360200190565b9160018116908115610939575060011461090057505050565b6109139192939450600052602060002090565b916000925b8184106109255750500190565b805484840152602090930192600101610918565b92949550505060ff1916825215156020020190565b906101e7916108ca565b634e487b7160e01b600052604160045260246000fd5b90601f01601f1916810190811067ffffffffffffffff82111761099057604052565b610958565b906102406109af926109a660405190565b9384809261094e565b038361096e565b6101e790610995565b6101e760036109b6565b6101e760046109b6565b6109e06101e76101e79290565b60ff1690565b6101e760126109d3565b6101e79081565b6101e790546109f0565b6101e760026109f7565b90610a159061080b565b600052602052604060002090565b610a3a6101e791610a32600090565b506000610a0b565b6109f7565b6101e791610a5a610a3a92610a52600090565b506001610a0b565b610a0b565b610a6a919033610c11565b600190565b634e487b7160e01b600052601160045260246000fd5b91908201809211610a9257565b610a6f565b610a6a9190610ab03392610aab8385610a3f565b610a85565b91610c11565b15610abd57565b60405162461bcd60e51b815260206004820152602560248201527f45524332303a2064656372656173656420616c6c6f77616e63652062656c6f77604482015264207a65726f60d81b6064820152608490fd5b610a6a9190610ab03392610b248385610a3f565b610b3082821015610ab6565b0390565b15610b3b57565b60405162461bcd60e51b8152602060048201526024808201527f45524332303a20617070726f76652066726f6d20746865207a65726f206164646044820152637265737360e01b6064820152608490fd5b15610b9357565b60405162461bcd60e51b815260206004820152602260248201527f45524332303a20617070726f766520746f20746865207a65726f206164647265604482015261737360f01b6064820152608490fd5b90600019906107e4565b6101e76101e76101e79290565b90610c0a6101e761082b92610bed565b8254610be3565b610c50610c3f610c21600061069e565b6102156001600160a01b0382166001600160a01b0386161415610b34565b6001600160a01b0384161415610b8c565b610c6883610c6384610a5a856001610a0b565b610bfa565b610885610c9e610c987f8c5be1e5ebec7d5bd14f71427d1e84f3dd0314c0f7b2291e5b200ac8c7c3b9259361080b565b9361080b565b936102e760405190565b347f88a5966d370b9919b20f3e2c13ff65706f196a4e32cc2c12bf57088f88525874610ce0610cd63361080b565b926102e760405190565b0390a2565b61024090610cf1610715565b610cfd6102409161080b565b6009610814565b61024090610ce5565b61024090610d19610715565b61024090600a610bfa565b61024090610d0d565b90610240610d3a60405190565b928361096e565b67ffffffffffffffff81116109905760208091020190565b90610d6b610d6683610d41565b610d2d565b918252565b369037565b90610240610d8b610d8584610d59565b93610d41565b601f190160208401610d70565b6000198114610a925760010190565b634e487b7160e01b600052603260045260246000fd5b90610dc6825190565b811015610dd7576020809102010190565b610da7565b6006610de781610e63565b90610df182610d75565b90610dfb83610d75565b93610e066000610bed565b845b811015610e5b57610e5481610e4f610e42610e26610e089588610e96565b61053d81610e34868c610dbd565b906001600160a01b03169052565b610e4c838b610dbd565b52565b610d98565b9050610e06565b509250509190565b610e7960006101e792610e74600090565b500190565b60006101e791610e87600090565b50015490565b6101e790610bed565b610ebb610eb66101e793610eb16000610ec095610e74600090565b610ee8565b610e8d565b610691565b610802565b8054821015610dd757610edf600191600052602060002090565b91020190600090565b6101e7916000610f0192610efa600090565b5001610ec5565b906102b1565b15610f0e57565b60405162461bcd60e51b8152602060048201526014602482015273496e73756666696369656e742062616c616e636560601b6044820152606490fd5b91908203918211610a9257565b610a6a919033610f7b610f6982610a23565b8490610f74565b9190565b1015610f07565b610f8482610a23565b600090610f93610f7083610bed565b1480610fe4575b610fd3575b610fbd610f70610fb786610fb286610a23565b610f4a565b92610bed565b0361110257610fcd8160066112c4565b50611102565b610fde8360066111c8565b50610f9f565b50610fee81610bed565b8411610f9a565b15610ffc57565b60405162461bcd60e51b815260206004820152602560248201527f45524332303a207472616e736665722066726f6d20746865207a65726f206164604482015264647265737360d81b6064820152608490fd5b1561105657565b60405162461bcd60e51b815260206004820152602360248201527f45524332303a207472616e7366657220746f20746865207a65726f206164647260448201526265737360e81b6064820152608490fd5b156110ae57565b60405162461bcd60e51b815260206004820152602660248201527f45524332303a207472616e7366657220616d6f756e7420657863656564732062604482015265616c616e636560d01b6064820152608490fd5b61118661117383600061114961113861111a8361069e565b6102156001600160a01b0382166001600160a01b038a161415610ff5565b6001600160a01b038416141561104f565b610a5a6111698861115d610a3a8986610a0b565b610b30828210156110a7565b610c638784610a0b565b611180856101d2836109f7565b90610bfa565b610885610c9e610c987fddf252ad1be2c89b69c2b068fc378daa952ba7f163c4a11628f55a4df523b3ef9361080b565b6101e79081906001600160a01b031681565b906111f5610f706111f06111eb60006101e7966111e3600090565b500194610802565b6111b6565b610bed565b611259565b9160001960089290920291821b911b6107e4565b919061121d6101e761082b9390565b9083546111fa565b9081549168010000000000000000831015610990578261124d91600161024095018155610ec5565b9061120e565b90610a15565b61126a6112668383611299565b1590565b1561129257610a6a91610c6390600161128b846112878482611225565b5490565b9301611253565b5050600090565b6112b2916001610a3a926112ab600090565b5001611253565b6112bf610f706000610bed565b141590565b906112df610f706111f06111eb60006101e7966111e3600090565b61134b565b634e487b7160e01b600052603160045260246000fd5b6102409160009161120e565b805480156113295760001901906113266113208383610ec5565b906112fa565b55565b6112e4565b919061121d6101e761082b93610bed565b6102409160009161132e565b9061135c610a3a8260018501611253565b60009261136884610bed565b82146113bb576101e7926113c194926113cc926113c6600197889361139561138f86610bed565b82610f4a565b888501916113b36113a4845490565b6113ad89610bed565b90610f4a565b8281036113d1575b50505090565b611306565b01611253565b61133f565b61124d6113f46113fc946113eb610f01610c639589610ec5565b92839188610ec5565b888801611253565b3880806113bb565b1561140b57565b60405162461bcd60e51b815260206004820152602860248201527f45524332303a207472616e7366657220616d6f756e74206578636565647320616044820152676c6c6f77616e636560c01b6064820152608490fd5b81810292918115918404141715610a9257565b634e487b7160e01b600052601260045260246000fd5b8115611494570490565b611474565b610a6a9291906114cd336114b86114b08285610a3f565b861115611404565b6114c685610fb28386610a3f565b9083610c11565b6115696114f66114e66114e0600a6109f7565b86611461565b6114f06064610bed565b9061148a565b6115008186610f4a565b9461151461150d85610a23565b8290610f74565b61154b610f70610fb761152688610a23565b93600094611536610f7087610bed565b1480611590575b61157f575b610fb288610a23565b1461156e575b61156361155e600961066d565b61080b565b83611102565b611102565b6115798360066112c4565b50611551565b61158a8960066111c8565b50611542565b5061159a85610bed565b811161153d565b90610240916115ae610715565b611681565b80151561022c565b90505190610240826115b3565b90602082820312610176576101e7916115bb565b6001600160a01b0390911681526040810192916102409160200152565b6040513d6000823e3d90fd5b6001600160a01b039182168152911660208201526060810192916102409160400152565b1561163057565b60405162461bcd60e51b8152602060048201526024808201527f496e73756666696369656e74204554482062616c616e636520696e20636f6e746044820152631c9858dd60e21b6064820152608490fd5b600061168f6102158261069e565b6001600160a01b0383160361171f576116b46116aa3061080b565b8490311015611629565b808080856116c661155e61155e610677565b828215611716575bf115611711573361170c7ffff3b3844276f57024e0b42afec1a37f75db36511e43819a4f2a63ab7862b6489361170360405190565b93849384611605565b0390a1565b6115f9565b506108fc6116ce565b82602061172e61155e8561080b565b63a9059cbb9061175a85611740610677565b9361176561174d60405190565b9788968795869460e01b90565b8452600484016115dc565b03925af190816118c8575b501581146118985761178461155e8361080b565b6342842e0e6117923061080b565b61179a610677565b92803b15610176576117c28580946117cd8a6117b560405190565b9889978896879560e01b90565b855260048501611605565b03925af1908161186c575b50151461183d5760405162461bcd60e51b815260206004820152603060248201527f546f6b656e2074797065206e6f7420737570706f72746564206f7220696e737560448201526f6666696369656e742062616c616e636560801b6064820152608490fd5b3361170c7ffff3b3844276f57024e0b42afec1a37f75db36511e43819a4f2a63ab7862b6489361170360405190565b61188b90833d8511611891575b611883818361096e565b81019061016b565b386117d8565b503d611879565b503361170c7ffff3b3844276f57024e0b42afec1a37f75db36511e43819a4f2a63ab7862b6489361170360405190565b6118e89060203d81116118ed575b6118e0818361096e565b8101906115c8565b611770565b503d6118d6565b90610240916115a156fea2646970667358221220528016b7dd4efa89a59ff0c23cbb01b0f5522d797a1786feed743e397751b1da64736f6c63430008130033",
  "linkReferences": {},
  "deployedLinkReferences": {}
}