{
  "_format": "hh-sol-artifact-1",
  "contractName": "CreatorsPlans",
  "sourceName": "contracts/CreatorsPlans.sol",
  "abi": [
    {
      "inputs": [],
      "stateMutability": "nonpayable",
      "type": "constructor"
    },
    {
      "anonymous": false,
      "inputs": [
        {
          "indexed": true,
          "internalType": "address",
          "name": "previousOwner",
          "type": "address"
        },
        {
          "indexed": true,
          "internalType": "address",
          "name": "newOwner",
          "type": "address"
        }
      ],
      "name": "OwnershipTransferred",
      "type": "event"
    },
    {
      "anonymous": false,
      "inputs": [
        {
          "indexed": true,
          "internalType": "address",
          "name": "from",
          "type": "address"
        },
        {
          "indexed": false,
          "internalType": "uint256",
          "name": "amount",
          "type": "uint256"
        }
      ],
      "name": "Received",
      "type": "event"
    },
    {
      "anonymous": false,
      "inputs": [
        {
          "indexed": true,
          "internalType": "address",
          "name": "sender",
          "type": "address"
        },
        {
          "indexed": false,
          "internalType": "address",
          "name": "tokenAddress",
          "type": "address"
        },
        {
          "indexed": false,
          "internalType": "uint256",
          "name": "amountOrTokenId",
          "type": "uint256"
        }
      ],
      "name": "Recovered",
      "type": "event"
    },
    {
      "anonymous": false,
      "inputs": [
        {
          "indexed": true,
          "internalType": "address",
          "name": "from",
          "type": "address"
        },
        {
          "indexed": false,
          "internalType": "uint256",
          "name": "amount",
          "type": "uint256"
        }
      ],
      "name": "Subscribe",
      "type": "event"
    },
    {
      "stateMutability": "payable",
      "type": "fallback"
    },
    {
      "inputs": [
        {
          "internalType": "uint256",
          "name": "planId",
          "type": "uint256"
        }
      ],
      "name": "buyPlan",
      "outputs": [],
      "stateMutability": "nonpayable",
      "type": "function"
    },
    {
      "inputs": [
        {
          "internalType": "uint256",
          "name": "planId",
          "type": "uint256"
        }
      ],
      "name": "deletePlan",
      "outputs": [],
      "stateMutability": "nonpayable",
      "type": "function"
    },
    {
      "inputs": [],
      "name": "getPlanDetailsByCreator",
      "outputs": [
        {
          "components": [
            {
              "internalType": "uint256",
              "name": "planId",
              "type": "uint256"
            },
            {
              "internalType": "address",
              "name": "creator",
              "type": "address"
            },
            {
              "internalType": "string",
              "name": "name",
              "type": "string"
            },
            {
              "internalType": "string",
              "name": "description",
              "type": "string"
            },
            {
              "internalType": "string",
              "name": "external_url",
              "type": "string"
            },
            {
              "internalType": "uint256",
              "name": "duration",
              "type": "uint256"
            },
            {
              "internalType": "uint256",
              "name": "price",
              "type": "uint256"
            },
            {
              "internalType": "uint256",
              "name": "units",
              "type": "uint256"
            },
            {
              "internalType": "enum Plan.Status",
              "name": "status",
              "type": "uint8"
            }
          ],
          "internalType": "struct Plan.Detail[]",
          "name": "",
          "type": "tuple[]"
        }
      ],
      "stateMutability": "view",
      "type": "function"
    },
    {
      "inputs": [],
      "name": "getPlansByCreator",
      "outputs": [
        {
          "internalType": "uint256[]",
          "name": "",
          "type": "uint256[]"
        }
      ],
      "stateMutability": "view",
      "type": "function"
    },
    {
      "inputs": [
        {
          "internalType": "address",
          "name": "creator",
          "type": "address"
        }
      ],
      "name": "getPublicPlanDetailsByCreator",
      "outputs": [
        {
          "components": [
            {
              "internalType": "uint256",
              "name": "planId",
              "type": "uint256"
            },
            {
              "internalType": "address",
              "name": "creator",
              "type": "address"
            },
            {
              "internalType": "string",
              "name": "name",
              "type": "string"
            },
            {
              "internalType": "string",
              "name": "description",
              "type": "string"
            },
            {
              "internalType": "string",
              "name": "external_url",
              "type": "string"
            },
            {
              "internalType": "uint256",
              "name": "duration",
              "type": "uint256"
            },
            {
              "internalType": "uint256",
              "name": "price",
              "type": "uint256"
            },
            {
              "internalType": "uint256",
              "name": "units",
              "type": "uint256"
            },
            {
              "internalType": "enum Plan.Status",
              "name": "status",
              "type": "uint8"
            }
          ],
          "internalType": "struct Plan.Detail[]",
          "name": "",
          "type": "tuple[]"
        }
      ],
      "stateMutability": "view",
      "type": "function"
    },
    {
      "inputs": [
        {
          "internalType": "address",
          "name": "creator",
          "type": "address"
        }
      ],
      "name": "getPublicPlansByCreator",
      "outputs": [
        {
          "internalType": "uint256[]",
          "name": "",
          "type": "uint256[]"
        }
      ],
      "stateMutability": "view",
      "type": "function"
    },
    {
      "inputs": [
        {
          "internalType": "uint256",
          "name": "planId",
          "type": "uint256"
        }
      ],
      "name": "getSoldUnitsPerPlan",
      "outputs": [
        {
          "internalType": "uint256",
          "name": "",
          "type": "uint256"
        }
      ],
      "stateMutability": "view",
      "type": "function"
    },
    {
      "inputs": [],
      "name": "nextPlanId",
      "outputs": [
        {
          "internalType": "uint256",
          "name": "",
          "type": "uint256"
        }
      ],
      "stateMutability": "view",
      "type": "function"
    },
    {
      "inputs": [],
      "name": "nextSubscriptionId",
      "outputs": [
        {
          "internalType": "uint256",
          "name": "",
          "type": "uint256"
        }
      ],
      "stateMutability": "view",
      "type": "function"
    },
    {
      "inputs": [],
      "name": "owner",
      "outputs": [
        {
          "internalType": "address",
          "name": "",
          "type": "address"
        }
      ],
      "stateMutability": "view",
      "type": "function"
    },
    {
      "inputs": [
        {
          "internalType": "uint256",
          "name": "planId",
          "type": "uint256"
        }
      ],
      "name": "permanentDeletePlan",
      "outputs": [],
      "stateMutability": "nonpayable",
      "type": "function"
    },
    {
      "inputs": [],
      "name": "renounceOwnership",
      "outputs": [],
      "stateMutability": "nonpayable",
      "type": "function"
    },
    {
      "inputs": [
        {
          "internalType": "uint256",
          "name": "planId",
          "type": "uint256"
        }
      ],
      "name": "restorePlan",
      "outputs": [],
      "stateMutability": "nonpayable",
      "type": "function"
    },
    {
      "inputs": [
        {
          "internalType": "address",
          "name": "blockFans",
          "type": "address"
        }
      ],
      "name": "setBlockFans",
      "outputs": [],
      "stateMutability": "nonpayable",
      "type": "function"
    },
    {
      "inputs": [
        {
          "internalType": "address",
          "name": "creatorsAddress",
          "type": "address"
        }
      ],
      "name": "setCreators",
      "outputs": [],
      "stateMutability": "nonpayable",
      "type": "function"
    },
    {
      "inputs": [
        {
          "internalType": "string",
          "name": "name",
          "type": "string"
        },
        {
          "internalType": "string",
          "name": "description",
          "type": "string"
        },
        {
          "internalType": "string",
          "name": "external_url",
          "type": "string"
        },
        {
          "internalType": "uint256",
          "name": "duration",
          "type": "uint256"
        },
        {
          "internalType": "uint256",
          "name": "price",
          "type": "uint256"
        },
        {
          "internalType": "uint256",
          "name": "units",
          "type": "uint256"
        }
      ],
      "name": "setPlan",
      "outputs": [],
      "stateMutability": "nonpayable",
      "type": "function"
    },
    {
      "inputs": [
        {
          "internalType": "uint256",
          "name": "",
          "type": "uint256"
        }
      ],
      "name": "subscriptions",
      "outputs": [
        {
          "internalType": "uint256",
          "name": "subscriptionId",
          "type": "uint256"
        },
        {
          "internalType": "uint256",
          "name": "planId",
          "type": "uint256"
        },
        {
          "internalType": "uint256",
          "name": "startDate",
          "type": "uint256"
        },
        {
          "internalType": "uint256",
          "name": "duration",
          "type": "uint256"
        }
      ],
      "stateMutability": "view",
      "type": "function"
    },
    {
      "inputs": [
        {
          "internalType": "address",
          "name": "newOwner",
          "type": "address"
        }
      ],
      "name": "transferOwnership",
      "outputs": [],
      "stateMutability": "nonpayable",
      "type": "function"
    },
    {
      "inputs": [
        {
          "internalType": "address",
          "name": "tokenAddress",
          "type": "address"
        },
        {
          "internalType": "uint256",
          "name": "amountOrTokenId",
          "type": "uint256"
        }
      ],
      "name": "withdraw",
      "outputs": [],
      "stateMutability": "nonpayable",
      "type": "function"
    },
    {
      "stateMutability": "payable",
      "type": "receive"
    }
  ],
  "bytecode": "0x608060405234620000265762000014620000ed565b604051612234620001eb823961223490f35b600080fd5b90600019905b9181191691161790565b6200004b6200004b6200004b9290565b90565b90620000626200004b6200006a926200003b565b82546200002b565b9055565b6200007e6200004b6200004b9290565b6001600160a01b031690565b6200004b906200006e565b6200004b906200007e906001600160a01b031682565b6200004b9062000095565b6200004b90620000ab565b906001600160a01b039062000031565b90620000e56200004b6200006a92620000b6565b8254620000c1565b620000f762000165565b620001636200015b60016200010e8160046200004e565b6200011b8160056200004e565b620001556200012b60006200008a565b91620001436200013b84620000b6565b6003620000d1565b6200014e83620000b6565b90620000d1565b620000b6565b6002620000d1565b565b62000163803362000188565b6200004b906200007e565b6200004b905462000171565b6200019460006200017c565b90620001a2816000620000d1565b620001d9620001d27f8be0079c531659141344cd1fd0a4f28419497f9722a3daafe3b4186f6b6457e093620000b6565b91620000b6565b91620001e460405190565b600090a356fe60806040526004361015610026575b361561001e5761001c610ab4565b005b61001c610ab4565b60003560e01c80631282d2f2146101565780632d5bbf60146101515780633fe3a9861461014c57806352a7c9f1146101475780635f8d26b2146101425780636c60014d1461013d578063715018a6146101385780638da5cb5b14610133578063925a06c61461012e578063a80b223b14610129578063aa80a12d14610124578063afeece811461011f578063ba908b451461011a578063d348f42414610115578063da58935f14610110578063f142bdd51461010b578063f2fde38b14610106578063f3fef3a3146101015763fa3157d50361000e57610889565b610870565b610835565b61081a565b6107ff565b6107d8565b6107c0565b6107a8565b610790565b610778565b610760565b610721565b610709565b6106e2565b61050c565b6104bb565b610338565b610307565b610213565b6001600160a01b031690565b90565b6001600160a01b0381165b0361017c57565b600080fd5b9050359061018e8261016a565b565b9060208282031261017c5761016791610181565b9052565b0190565b906101cc6101c56101bb845190565b8084529260200190565b9260200190565b9060005b8181106101dd5750505090565b9091926101fa6101f36001928651815260200190565b9460200190565b9291016101d0565b6020808252610167929101906101ac565b3461017c5761023a61022e610229366004610190565b611445565b60405191829182610202565b0390f35b80610175565b9050359061018e8261023e565b9060208282031261017c5761016791610244565b6101676101676101679290565b9061027c90610265565b600052602052604060002090565b6101679081565b610167905461028a565b6102a6906009610272565b906102b082610291565b916102bd60018201610291565b9161016760036102cf60028501610291565b9301610291565b61030361018e946102fc6060949897956102f5608086019a6000870152565b6020850152565b6040830152565b0152565b3461017c5761023a61032261031d366004610251565b61029b565b9061032f94929460405190565b948594856102d6565b3461017c5761023a61035361034e366004610251565b6114b1565b6040515b9182918290815260200190565b634e487b7160e01b600052604160045260246000fd5b90601f01601f1916810190811067ffffffffffffffff82111761039c57604052565b610364565b9061018e6103ae60405190565b928361037a565b67ffffffffffffffff811161039c57602090601f01601f19160190565b90826000939282370152565b909291926103f36103ee826103b5565b6103a1565b9381855260208501908284011161017c5761018e926103d2565b9080601f8301121561017c57816020610167933591016103de565b909160c08284031261017c57813567ffffffffffffffff811161017c578361045191840161040d565b92602083013567ffffffffffffffff811161017c578161047291850161040d565b92604081013567ffffffffffffffff811161017c578261049391830161040d565b926101676104a48460608501610244565b936104b28160808601610244565b9360a001610244565b3461017c576104da6104ce366004610428565b94939093929192610f6b565b604051005b600091031261017c57565b610167916008021c81565b9061016791546104ea565b610167600060046104f5565b3461017c5761051c3660046104df565b61023a610353610500565b60005b83811061053a5750506000910152565b818101518382015260200161052a565b61056b6105746020936101a89361055f815190565b80835293849260200190565b95869101610527565b601f01601f191690565b634e487b7160e01b600052602160045260246000fd5b6006111561059e57565b61057e565b9061018e82610594565b610167906105a3565b6101a4906105ad565b805182526020808201516001600160a01b0316908301529061016790610100806106236106116105ff61012086016040890151878203604089015261054a565b6060880151868203606088015261054a565b6080870151858203608087015261054a565b9461063360a082015160a0860152565b61064260c082015160c0860152565b61065160e082015160e0860152565b01519101906105b6565b90610167916105bf565b9061067b610671835190565b8083529160200190565b908161068d6020830284019460200190565b926000915b8383106106a157505050505090565b909192939460206106c46106bd8385600195038752895161065b565b9760200190565b9301930191939290610692565b602080825261016792910190610665565b3461017c5761023a6106fd6106f8366004610190565b61145c565b604051918291826106d1565b3461017c576107193660046104df565b6104da6108d9565b3461017c576107313660046104df565b61023a6107466000546001600160a01b031690565b604051918291826001600160a01b03909116815260200190565b3461017c576104da610773366004610251565b611547565b3461017c576104da61078b366004610251565b611b23565b3461017c576104da6107a3366004610251565b61192a565b3461017c576104da6107bb366004610251565b6119d2565b3461017c576104da6107d3366004610190565b610b23565b3461017c576107e83660046104df565b61023a6106fd6113bd565b610167600060056104f5565b3461017c5761080f3660046104df565b61023a6103536107f3565b3461017c5761082a3660046104df565b61023a61022e611144565b3461017c576104da610848366004610190565b6109fa565b919060408382031261017c57610167906108678185610181565b93602001610244565b3461017c576104da61088336600461084d565b906121f4565b3461017c576104da61089c366004610190565b610b4b565b6108a9610935565b61018e6108c7565b61015b6101676101679290565b610167906108b1565b61018e6108d460006108be565b610a59565b61018e6108a1565b156108e857565b60405162461bcd60e51b815280610931600482016020808252818101527f4f776e61626c653a2063616c6c6572206973206e6f7420746865206f776e6572604082015260600190565b0390fd5b61018e61094a6000546001600160a01b031690565b6109636109563361015b565b916001600160a01b031690565b146108e1565b61018e90610975610935565b6109d5565b1561098157565b60405162461bcd60e51b815260206004820152602660248201527f4f776e61626c653a206e6577206f776e657220697320746865207a65726f206160448201526564647265737360d01b6064820152608490fd5b61018e906108d46109e961015b60006108be565b6001600160a01b038316141561097a565b61018e90610969565b906001600160a01b03905b9181191691161790565b6101679061015b906001600160a01b031682565b61016790610a18565b61016790610a2c565b90610a4e610167610a5592610a35565b8254610a03565b9055565b6000546001600160a01b031690610a71816000610a3e565b610aa4610a9e7f8be0079c531659141344cd1fd0a4f28419497f9722a3daafe3b4186f6b6457e093610a35565b91610a35565b91610aae60405190565b600090a3565b347f88a5966d370b9919b20f3e2c13ff65706f196a4e32cc2c12bf57088f88525874610aec610ae233610a35565b9261035760405190565b0390a2565b61018e90610afd610935565b610b1c61018e91610b17610b1082610a35565b6003610a3e565b610a35565b6001610a3e565b61018e90610af1565b61018e90610b38610935565b610b4461018e91610a35565b6002610a3e565b61018e90610b2c565b801515610175565b9050519061018e82610b54565b9060208282031261017c5761016791610b5c565b6040513d6000823e3d90fd5b15610b9057565b60405162461bcd60e51b815260206004820152600d60248201526c2737ba10309031b932b0ba37b960991b6044820152606490fd5b634e487b7160e01b600052601160045260246000fd5b6000198114610bea5760010190565b610bc5565b9060001990610a0e565b90610c09610167610a5592610265565b8254610bef565b6101676101206103a1565b906101a4906105a3565b634e487b7160e01b600052600060045260246000fd5b634e487b7160e01b600052602260045260246000fd5b9060016002830492168015610c71575b6020831014610c6c57565b610c3b565b91607f1691610c61565b9160001960089290920291821b911b610a0e565b9190610ca0610167610a5593610265565b908354610c7b565b61018e91600091610c8f565b818110610cbf575050565b80610ccd6000600193610ca8565b01610cb4565b9190601f8111610ce257505050565b610cf461018e93600052602060002090565b906020601f840181900483019310610d17575b6020601f909101045b0190610cb4565b9091508190610d07565b600019600883021c1916906002021790565b90610d3c815190565b9067ffffffffffffffff821161039c57610d6082610d5a8554610c51565b85610cd3565b602090601f8311600114610d8e57610a55929160009183610d83575b5050610d21565b015190503880610d7c565b601f19831691610da385600052602060002090565b9260005b818110610de157509160029391856001969410610dc8575b50505002019055565b01516000196008601f8516021c19169055388080610dbf565b91936020600181928787015181550195019201610da7565b9061018e91610d33565b61016790516105a3565b9060ff90610a0e565b90610e26610167610a55926105ad565b8254610e0d565b61018e9190610eea9061010090600890610e4f81610e49875190565b90610bf9565b610e7060018201610e6a60208801516001600160a01b031690565b90610a3e565b610e8860028201610e82604088015190565b90610df9565b610e9a60038201610e82606088015190565b610eac60048201610e82608088015190565b610ebe60058201610e4960a088015190565b610ed060068201610e4960c088015190565b610ee260078201610e4960e088015190565b019201610e03565b90610e16565b9061018e91610e2d565b9061027c90610a35565b634e487b7160e01b600052603260045260246000fd5b8054821015610f3d57610f34600191600052602060002090565b91020190600090565b610f04565b90815491600160401b83101561039c5782610f6591600161018e95018155610f1a565b90610c8f565b929394909194610f86610b176002546001600160a01b031690565b94610fa5602063efd460653398610f9c60405190565b93849260e01b90565b82526001600160a01b038a16600483015260249082905afa80156110b357610fd591600091611085575b50610b89565b610fdf6004610291565b96610fe988610bdb565b610ff4906004610bf9565b600094610fff610c10565b9661100a8a888a0152565b6001600160a01b038916602089015260408801526060870152608086015260a085015260c084015260e0830152611045906101008301610c1b565b611050836006610272565b9061105a91610ef0565b81611066826007610efa565b9061107091610f42565b61107b906008610efa565b9061018e91610f42565b6110a6915060203d81116110ac575b61109e818361037a565b810190610b69565b38610fcf565b503d611094565b610b7d565b906110d36110c76101bb845490565b92600052602060002090565b9060005b8181106110e45750505090565b9091926111086111016001926110f987610291565b815260200190565b9460010190565b9291016110d7565b90610167916110b8565b9061018e6111349261112b60405190565b93848092611110565b038361037a565b6101679061111a565b610167611152336007610efa565b61113b565b67ffffffffffffffff811161039c5760208091020190565b9061117c6103ee83611157565b918252565b611189610c10565b9060008252602080808080808080808a0160008152016060815201606081520160608152016000815201600081520160008152016000905250565b610167611181565b60005b8281106111db57505050565b6020906111e66111c4565b81840152016111cf565b9061018e6112066112008461116f565b93611157565b601f1901602084016111cc565b9061121c825190565b811015610f3d576020809102010190565b8054600093929161124a61124083610c51565b8085529360200190565b916001811690811561129c575060011461126357505050565b6112769192939450600052602060002090565b916000925b8184106112885750500190565b80548484015260209093019260010161127b565b92949550505060ff1916825215156020020190565b906101679161122d565b9061018e611134926112cc60405190565b938480926112b1565b9061018e6113aa60086112e6610c10565b946112f76112f382610291565b8752565b61131e61130e60018301546001600160a01b031690565b6001600160a01b03166020880152565b61133461132d600283016112bb565b6040880152565b61134a611343600383016112bb565b6060880152565b611360611359600483016112bb565b6080880152565b61137661136f60058301610291565b60a0880152565b61138c61138560068301610291565b60c0880152565b6113a261139b60078301610291565b60e0880152565b015460ff1690565b6101008401610c1b565b610167906112d5565b6113cb611152336007610efa565b6113db6113d6825190565b6111f0565b906113e66000610265565b6113f1610167835190565b8110156114405761143b9061142061141b60066114156114118588611213565b5190565b90610272565b6113b4565b61142a8286611213565b526114358185611213565b50610bdb565b6113e6565b505090565b61115261016791611454606090565b506008610efa565b61115261146b91611454606090565b6114766113d6825190565b906114816000610265565b61148c610167835190565b811015611440576114ac9061142061141b60066114156114118588611213565b611481565b6114c8610167916114c0600090565b50600a610272565b610291565b156114d457565b60405162461bcd60e51b815260206004820152600f60248201526e2737ba103a34329031b932b0ba37b960891b6044820152606490fd5b1561151257565b60405162461bcd60e51b815260206004820152600d60248201526c4e6f7420417661696c61626c6560981b6044820152606490fd5b61018e9060066115ca61156d600161155f8585610272565b01546001600160a01b031690565b3392906115839061157d85610956565b146114cd565b61159260086113a28684610272565b6115a561159f60006105a3565b916105a3565b1480156115cf575b6115b69061150b565b60086115c485600393610272565b01610e16565b611642565b506115b66115e260086113a28785610272565b6115ef61159f60016105a3565b1490506115ad565b91908203918211610bea57565b634e487b7160e01b600052603160045260246000fd5b8054801561163d57600019019061163a6116348383610f1a565b90610ca8565b55565b611604565b60086116556116518383610efa565b5490565b61165f6000610265565b818110156116f55761168361167d826116788787610efa565b610f1a565b906104f5565b859061168e565b9190565b146116a15761169c90610bdb565b61165f565b61018e9450916116eb61016793610f656116e061167d88966116da6116c96116f09b89610efa565b916116d46001610265565b906115f7565b90610f1a565b916116788686610efa565b610efa565b61161a565b5050505050565b9061170f90600019906020036008021c90565b8154169055565b9060009161173461172c82600052602060002090565b928354610d21565b905555565b919290602082101561179157601f841160011461175b57610a55929350610d21565b509061178c61018e93600161178361177885600052602060002090565b92601f602091010490565b82019101610cb4565b611716565b506117ca82936117a8600194600052602060002090565b610d106020601f860104820192601f8616806117d2575b50601f602091010490565b600202179055565b6117de908886036116fc565b386117bf565b929091600160401b821161039c576020111561182b57602081101561180c57610a5591610d21565b60019160ff191661182284600052602060002090565b55600202019055565b60019150600202019055565b90815461184381610c51565b9081831161186c575b81831061185a575b50505050565b61186393611739565b38808080611854565b611878838383876117e4565b61184c565b81810292918115918404141715610bea57565b600061018e91611837565b906000036118ac5761018e90611890565b610c25565b6000906008906118c18382610ca8565b8260018201556118d4836002830161189b565b6118e1836003830161189b565b6118ee836004830161189b565b6118fb8360058301610ca8565b6119088360068301610ca8565b6119158360078301610ca8565b0155565b906000036118ac5761018e906118b1565b61018e906006611987600061198284611948600161155f8388610272565b3395906119589061157d88610956565b61197d61196a60086113a28585610272565b61197761159f60036105a3565b1461150b565b610272565b611919565b6115ca8282600761199b6116518383610efa565b6119a56000610265565b818110156116f5576119be61167d826116788787610efa565b85146116a1576119cd90610bdb565b6119a5565b61018e90611a156101676006611a0e6119f0600161155f8785610272565b339290611a009061157d85610956565b60086115c487600193610272565b6008610efa565b610f42565b15611a2157565b60405162461bcd60e51b815260206004820152600860248201526714dbdb190813dd5d60c21b6044820152606490fd5b9050519061018e8261023e565b9060208282031261017c5761016791611a51565b15611a7957565b60405162461bcd60e51b8152602060048201526011602482015270105b1b1bddd85b98d9481b9bdd081cd95d607a1b6044820152606490fd5b6101a490610a35565b6001600160a01b03909116815260608101939261018e929091604091610303906020830190611ab2565b15611aec57565b60405162461bcd60e51b815260206004820152600f60248201526e151c985b9cd9995c8819985a5b1959608a1b6044820152606490fd5b6006611b326101678383610272565b91600a92611b436114c88386610272565b906007810191611b5861168a61016785610291565b1080611dcf575b611b6890611a1a565b6008810192611b78845460ff1690565b611b8a60019161197761159f846105a3565b611b9e610b1782546001600160a01b031690565b9563dd62ed3e936020338099611bd0611bb630610a35565b98611bef611bc360405190565b9a8b958694859460e01b90565b84526001600160a01b0390811660048501521660248301526044820190565b03915afa9485156110b357600095611d91575b50610b1760209392611c53920192611c46611c1c85610291565b97611c3f61168a610167670de0b6b3a76400009b611c398d610265565b9061187d565b1015611a72565b546001600160a01b031690565b611c9f6000611c856323b872dd97611c39611c7f611c796003546001600160a01b031690565b97610291565b91610265565b96611cab611c9260405190565b9889968795869460e01b90565b84528d60048501611abb565b03925af19081156110b357611ccf6114c892611cf794600091611d73575b50611ae5565b611cd881611e49565b9661197d611ce68383610272565b610e49611cf282610291565b610bdb565b611d0661168a61016784610291565b10159081611d55575b50611d43575b50610aec610ae27f6d9501d4c8596b2602660e3aa7db27655be4177db6b3d3eddaefedd8c631fa7192610a35565b611d4f90600290610e16565b38611d15565b611d5f9150610291565b611d6c61168a6000610265565b1138611d0f565b611d8b915060203d81116110ac5761109e818361037a565b38611cc9565b611c5391955060209392611dbd610b1792863d8111611dc8575b611db5818361037a565b810190611a5e565b969250929350611c02565b503d611dab565b50611b68611ddc83610291565b611de961168a6000610265565b119050611b5f565b61016760806103a1565b61018e9190610e4990606090600390611e148185875190565b611e2660018201610e49602088015190565b611e3860028201610e49604088015190565b0192015190565b9061018e91611dfb565b61141b611e6091611e58600090565b506006610272565b610167611e6d6005610291565b91611e81611e7a84610bdb565b6005610bf9565b611ec6611e8c825190565b91611ebf611e9c60a04293015190565b91611eb8611ea8611df1565b95611eb1898852565b6020870152565b6040850152565b6060830152565b611ed1836009610272565b611e3f565b9061018e91611ee3610935565b611f81565b6001600160a01b03909116815260408101929161018e9160200152565b6001600160a01b0391821681529116602082015260608101929161018e9160400152565b15611f3057565b60405162461bcd60e51b8152602060048201526024808201527f496e73756666696369656e74204554482062616c616e636520696e20636f6e746044820152631c9858dd60e21b6064820152608490fd5b906000611f9061015b826108be565b6001600160a01b0384160361202957611fb5611fab30610a35565b8390311015611f29565b80808084611fd1610b17610b176000546001600160a01b031690565b828215612020575bf1156110b3577ffff3b3844276f57024e0b42afec1a37f75db36511e43819a4f2a63ab7862b6489061200a33610a35565b92610aec61201760405190565b92839283611ee8565b506108fc611fd9565b816020612038610b1786610a35565b63a9059cbb9061206e856120546000546001600160a01b031690565b9361207961206160405190565b9788968795869460e01b90565b845260048401611ee8565b03925af190816121d8575b501581146121ac57612098610b1784610a35565b6342842e0e6120a630610a35565b6000546001600160a01b031692803b1561017c576120da8580946120e5896120cd60405190565b9889978896879560e01b90565b855260048501611f05565b03925af19081612180575b5015146121555760405162461bcd60e51b815260206004820152603060248201527f546f6b656e2074797065206e6f7420737570706f72746564206f7220696e737560448201526f6666696369656e742062616c616e636560801b6064820152608490fd5b7ffff3b3844276f57024e0b42afec1a37f75db36511e43819a4f2a63ab7862b6489061200a33610a35565b61219f90833d85116121a5575b612197818361037a565b8101906104df565b386120f0565b503d61218d565b507ffff3b3844276f57024e0b42afec1a37f75db36511e43819a4f2a63ab7862b6489061200a33610a35565b6121ef9060203d81116110ac5761109e818361037a565b612084565b9061018e91611ed656fea2646970667358221220a7b88e0c8702b56b7f739355658a47d589a0b608176b860a7da9df33bd684cce64736f6c63430008130033",
  "linkReferences": {},
  "deployedLinkReferences": {}
}