{
  "_format": "hh-sol-artifact-1",
  "contractName": "ERC721",
  "sourceName": "@openzeppelin/contracts/token/ERC721/ERC721.sol",
  "abi": [
    {
      "inputs": [
        {
          "internalType": "string",
          "name": "name_",
          "type": "string"
        },
        {
          "internalType": "string",
          "name": "symbol_",
          "type": "string"
        }
      ],
      "stateMutability": "nonpayable",
      "type": "constructor"
    },
    {
      "anonymous": false,
      "inputs": [
        {
          "indexed": true,
          "internalType": "address",
          "name": "owner",
          "type": "address"
        },
        {
          "indexed": true,
          "internalType": "address",
          "name": "approved",
          "type": "address"
        },
        {
          "indexed": true,
          "internalType": "uint256",
          "name": "tokenId",
          "type": "uint256"
        }
      ],
      "name": "Approval",
      "type": "event"
    },
    {
      "anonymous": false,
      "inputs": [
        {
          "indexed": true,
          "internalType": "address",
          "name": "owner",
          "type": "address"
        },
        {
          "indexed": true,
          "internalType": "address",
          "name": "operator",
          "type": "address"
        },
        {
          "indexed": false,
          "internalType": "bool",
          "name": "approved",
          "type": "bool"
        }
      ],
      "name": "ApprovalForAll",
      "type": "event"
    },
    {
      "anonymous": false,
      "inputs": [
        {
          "indexed": true,
          "internalType": "address",
          "name": "from",
          "type": "address"
        },
        {
          "indexed": true,
          "internalType": "address",
          "name": "to",
          "type": "address"
        },
        {
          "indexed": true,
          "internalType": "uint256",
          "name": "tokenId",
          "type": "uint256"
        }
      ],
      "name": "Transfer",
      "type": "event"
    },
    {
      "inputs": [
        {
          "internalType": "address",
          "name": "to",
          "type": "address"
        },
        {
          "internalType": "uint256",
          "name": "tokenId",
          "type": "uint256"
        }
      ],
      "name": "approve",
      "outputs": [],
      "stateMutability": "nonpayable",
      "type": "function"
    },
    {
      "inputs": [
        {
          "internalType": "address",
          "name": "owner",
          "type": "address"
        }
      ],
      "name": "balanceOf",
      "outputs": [
        {
          "internalType": "uint256",
          "name": "",
          "type": "uint256"
        }
      ],
      "stateMutability": "view",
      "type": "function"
    },
    {
      "inputs": [
        {
          "internalType": "uint256",
          "name": "tokenId",
          "type": "uint256"
        }
      ],
      "name": "getApproved",
      "outputs": [
        {
          "internalType": "address",
          "name": "",
          "type": "address"
        }
      ],
      "stateMutability": "view",
      "type": "function"
    },
    {
      "inputs": [
        {
          "internalType": "address",
          "name": "owner",
          "type": "address"
        },
        {
          "internalType": "address",
          "name": "operator",
          "type": "address"
        }
      ],
      "name": "isApprovedForAll",
      "outputs": [
        {
          "internalType": "bool",
          "name": "",
          "type": "bool"
        }
      ],
      "stateMutability": "view",
      "type": "function"
    },
    {
      "inputs": [],
      "name": "name",
      "outputs": [
        {
          "internalType": "string",
          "name": "",
          "type": "string"
        }
      ],
      "stateMutability": "view",
      "type": "function"
    },
    {
      "inputs": [
        {
          "internalType": "uint256",
          "name": "tokenId",
          "type": "uint256"
        }
      ],
      "name": "ownerOf",
      "outputs": [
        {
          "internalType": "address",
          "name": "",
          "type": "address"
        }
      ],
      "stateMutability": "view",
      "type": "function"
    },
    {
      "inputs": [
        {
          "internalType": "address",
          "name": "from",
          "type": "address"
        },
        {
          "internalType": "address",
          "name": "to",
          "type": "address"
        },
        {
          "internalType": "uint256",
          "name": "tokenId",
          "type": "uint256"
        }
      ],
      "name": "safeTransferFrom",
      "outputs": [],
      "stateMutability": "nonpayable",
      "type": "function"
    },
    {
      "inputs": [
        {
          "internalType": "address",
          "name": "from",
          "type": "address"
        },
        {
          "internalType": "address",
          "name": "to",
          "type": "address"
        },
        {
          "internalType": "uint256",
          "name": "tokenId",
          "type": "uint256"
        },
        {
          "internalType": "bytes",
          "name": "data",
          "type": "bytes"
        }
      ],
      "name": "safeTransferFrom",
      "outputs": [],
      "stateMutability": "nonpayable",
      "type": "function"
    },
    {
      "inputs": [
        {
          "internalType": "address",
          "name": "operator",
          "type": "address"
        },
        {
          "internalType": "bool",
          "name": "approved",
          "type": "bool"
        }
      ],
      "name": "setApprovalForAll",
      "outputs": [],
      "stateMutability": "nonpayable",
      "type": "function"
    },
    {
      "inputs": [
        {
          "internalType": "bytes4",
          "name": "interfaceId",
          "type": "bytes4"
        }
      ],
      "name": "supportsInterface",
      "outputs": [
        {
          "internalType": "bool",
          "name": "",
          "type": "bool"
        }
      ],
      "stateMutability": "view",
      "type": "function"
    },
    {
      "inputs": [],
      "name": "symbol",
      "outputs": [
        {
          "internalType": "string",
          "name": "",
          "type": "string"
        }
      ],
      "stateMutability": "view",
      "type": "function"
    },
    {
      "inputs": [
        {
          "internalType": "uint256",
          "name": "tokenId",
          "type": "uint256"
        }
      ],
      "name": "tokenURI",
      "outputs": [
        {
          "internalType": "string",
          "name": "",
          "type": "string"
        }
      ],
      "stateMutability": "view",
      "type": "function"
    },
    {
      "inputs": [
        {
          "internalType": "address",
          "name": "from",
          "type": "address"
        },
        {
          "internalType": "address",
          "name": "to",
          "type": "address"
        },
        {
          "internalType": "uint256",
          "name": "tokenId",
          "type": "uint256"
        }
      ],
      "name": "transferFrom",
      "outputs": [],
      "stateMutability": "nonpayable",
      "type": "function"
    }
  ],
  "bytecode": "0x60806040523462000031576200001f6200001862000175565b9062000392565b604051611474620003ad823961147490f35b600080fd5b634e487b7160e01b600052604160045260246000fd5b90601f01601f191681019081106001600160401b038211176200006e57604052565b62000036565b906200008b6200008360405190565b92836200004c565b565b6001600160401b0381116200006e57602090601f01601f19160190565b60005b838110620000be5750506000910152565b8181015183820152602001620000ad565b90929192620000e8620000e2826200008d565b62000074565b9381855260208501908284011162000031576200008b92620000aa565b9080601f83011215620000315781516200012292602001620000cf565b90565b919091604081840312620000315780516001600160401b0381116200003157836200015291830162000105565b60208201519093906001600160401b038111620000315762000122920162000105565b6200019862001821803803806200018c8162000074565b92833981019062000125565b9091565b634e487b7160e01b600052602260045260246000fd5b9060016002830492168015620001d5575b6020831014620001cf57565b6200019c565b91607f1691620001c3565b6200012262000122620001229290565b919062000205620001226200021d93620001e0565b90835460001960089290920291821b191691901b1790565b9055565b6200008b91600091620001f0565b8181106200023b575050565b806200024b600060019362000221565b016200022f565b9190601f81116200026257505050565b620002766200008b93600052602060002090565b906020601f8401819004830193106200029a575b6020601f9091010401906200022f565b90915081906200028a565b90620002af815190565b906001600160401b0382116200006e57620002d782620002d08554620001b2565b8562000252565b602090601f831160011462000316576200021d9291600091836200030a575b5050600019600883021c1916906002021790565b015190503880620002f6565b601f198316916200032c85600052602060002090565b9260005b8181106200036d5750916002939185600196941062000353575b50505002019055565b01516000196008601f8516021c191690553880806200034a565b9193602060018192878701518155019501920162000330565b906200008b91620002a5565b90620003a46200008b92600062000386565b60016200038656fe6080604052600436101561001257600080fd5b60003560e01c806301ffc9a7146100e257806306fdde03146100dd578063081812fc146100d8578063095ea7b3146100d357806323b872dd146100ce57806342842e0e146100c95780636352211e146100c457806370a08231146100bf57806395d89b41146100ba578063a22cb465146100b5578063b88d4fde146100b0578063c87b56dd146100ab5763e985e9c5036100fa57610550565b610512565b6104f6565b6103c9565b610376565b61034b565b61031c565b610303565b6102ea565b61029c565b610228565b6101ce565b610125565b6001600160e01b031981165b036100fa57565b600080fd5b9050359061010c826100e7565b565b906020828203126100fa57610122916100ff565b90565b346100fa5761015361014061013b36600461010e565b61056c565b6040515b91829182901515815260200190565b0390f35b60009103126100fa57565b60005b8381106101755750506000910152565b8181015183820152602001610165565b6101a66101af6020936101b99361019a815190565b80835293849260200190565b95869101610162565b601f01601f191690565b0190565b602080825261012292910190610185565b346100fa576101de366004610157565b6101536101e9610829565b604051918291826101bd565b806100f3565b9050359061010c826101f5565b906020828203126100fa57610122916101fb565b6001600160a01b031690565b346100fa5761015361024361023e366004610208565b610a5c565b604051918291826001600160a01b03909116815260200190565b6001600160a01b0381166100f3565b9050359061010c8261025d565b91906040838203126100fa5761012290610293818561026c565b936020016101fb565b346100fa576102b56102af366004610279565b906109de565b604051005b90916060828403126100fa576101226102d3848461026c565b936102e1816020860161026c565b936040016101fb565b346100fa576102b56102fd3660046102ba565b91610b15565b346100fa576102b56103163660046102ba565b91610b32565b346100fa57610153610243610332366004610208565b610703565b906020828203126100fa576101229161026c565b346100fa57610153610366610361366004610337565b61067a565b6040519182918290815260200190565b346100fa57610386366004610157565b6101536101e9610833565b8015156100f3565b9050359061010c82610391565b91906040838203126100fa57610122906103c0818561026c565b93602001610399565b346100fa576102b56103dc3660046103a6565b90610a81565b634e487b7160e01b600052604160045260246000fd5b90601f01601f1916810190811067ffffffffffffffff82111761041a57604052565b6103e2565b9061010c61042c60405190565b92836103f8565b67ffffffffffffffff811161041a57602090601f01601f19160190565b90826000939282370152565b9092919261047161046c82610433565b61041f565b938185526020850190828401116100fa5761010c92610450565b9080601f830112156100fa578160206101229335910161045c565b906080828203126100fa576104bb818361026c565b926104c9826020850161026c565b926104d783604083016101fb565b92606082013567ffffffffffffffff81116100fa57610122920161048b565b346100fa576102b56105093660046104a6565b92919091610b42565b346100fa576101536101e9610528366004610208565b6108a3565b91906040838203126100fa5761012290610547818561026c565b9360200161026c565b346100fa5761015361014061056636600461052d565b90610a8c565b6380ac58cd60e01b6001600160e01b031982161490811561059c575b8115610592575090565b610122915061128a565b6001600160e01b03198116635b5e139f60e01b149150610588565b61021c6101226101229290565b610122906105b7565b156105d457565b60405162461bcd60e51b815260206004820152602960248201527f4552433732313a2061646472657373207a65726f206973206e6f7420612076616044820152683634b21037bbb732b960b91b6064820152608490fd5b6101229061021c906001600160a01b031682565b6101229061062b565b6101229061063f565b9061065b90610648565b600052602052604060002090565b6101229081565b6101229054610669565b6106b261012291610689600090565b506106ab61069a61021c60006105c4565b6001600160a01b03831614156105cd565b6003610651565b610670565b156106be57565b60405162461bcd60e51b815260206004820152601860248201527f4552433732313a20696e76616c696420746f6b656e20494400000000000000006044820152606490fd5b6107109060005b50610be2565b61012261072061021c60006105c4565b6001600160a01b03831614156106b7565b634e487b7160e01b600052602260045260246000fd5b9060016002830492168015610767575b602083101461076257565b610731565b91607f1691610757565b8054600093929161078e61078483610747565b8085529360200190565b91600181169081156107e057506001146107a757505050565b6107ba9192939450600052602060002090565b916000925b8184106107cc5750500190565b8054848401526020909301926001016107bf565b92949550505060ff1916825215156020020190565b9061012291610771565b9061010c6108199261081060405190565b938480926107f5565b03836103f8565b610122906107ff565b6101226000610820565b6101226001610820565b6101226101226101229290565b9061085761046c83610433565b918252565b610122600061084a565b61012261085c565b6101b961088692602092610880815190565b94859290565b93849101610162565b61089d90610122939261086e565b9061086e565b6108ac81610fff565b6108b461090e565b80516108c76108c3600061083d565b9190565b1115610904576101226108f8916108e0610122946111fe565b906108ea60405190565b93849260208401928361088f565b908103825203826103f8565b5050610122610866565b610122610866565b1561091d57565b60405162461bcd60e51b815260206004820152602160248201527f4552433732313a20617070726f76616c20746f2063757272656e74206f776e656044820152603960f91b6064820152608490fd5b1561097357565b60405162461bcd60e51b815260206004820152603d60248201527f4552433732313a20617070726f76652063616c6c6572206973206e6f7420746f60448201527f6b656e206f776e6572206f7220617070726f76656420666f7220616c6c0000006064820152608490fd5b9061010c91610a296109ef83610703565b610a0d6001600160a01b0382166001600160a01b0385161415610916565b336001600160a01b0382168114918215610a2e575b505061096c565b610ece565b610a389250610a8c565b3880610a22565b9061065b9061083d565b6101229061021c565b6101229054610a49565b610a7c61012291610a6b600090565b50610a7581610fff565b6004610a3f565b610a52565b61010c919033610f84565b61012291610aa7610aac92610a9f600090565b506005610651565b610651565b5460ff1690565b15610aba57565b60405162461bcd60e51b815260206004820152602d60248201527f4552433732313a2063616c6c6572206973206e6f7420746f6b656e206f776e6560448201526c1c881bdc88185c1c1c9bdd9959609a1b6064820152608490fd5b61010c929190610b2d610b288433610bf9565b610ab3565b610db1565b909161010c92610b40610866565b925b61010c93929190610b56610b288433610bf9565b610bc3565b15610b6257565b6040515b62461bcd60e51b815260206004820152603260248201527f4552433732313a207472616e7366657220746f206e6f6e20455243373231526560448201527131b2b4bb32b91034b6b83632b6b2b73a32b960711b6064820152608490fd5b9161010c9391610bdd93610bd8838383610db1565b6110a1565b610b5b565b610a7c61012291610bf1600090565b506002610a3f565b610c0282610703565b916001600160a01b0383166001600160a01b03831614928315610c5c575b508215610c2c57505090565b610c58919250610c3e610c4b91610a5c565b926001600160a01b031690565b916001600160a01b031690565b1490565b610c699193508290610a8c565b9138610c20565b15610c7757565b60405162461bcd60e51b815260206004820152602560248201527f4552433732313a207472616e736665722066726f6d20696e636f72726563742060448201526437bbb732b960d91b6064820152608490fd5b15610cd157565b60405162461bcd60e51b8152602060048201526024808201527f4552433732313a207472616e7366657220746f20746865207a65726f206164646044820152637265737360e01b6064820152608490fd5b916001600160a01b0360089290920291821b911b5b9181191691161790565b9190610d52610122610d5a93610648565b908354610d22565b9055565b61010c91600091610d41565b9060001990610d37565b90610d84610122610d5a9261083d565b8254610d6a565b906001600160a01b0390610d37565b90610daa610122610d5a92610648565b8254610d8b565b9190610dd7610dbf83610703565b610dd16001600160a01b038616610c4b565b14610c70565b610e2a6000610dfc610deb61021c836105c4565b6001600160a01b0385161415610cca565b610e1a610e0885610703565b610dd16001600160a01b038816610c4b565b610e25846004610a3f565b610d5e565b610e6e610e37600161083d565b610e5e610e64846003610aa7610e4d8a83610651565b610e5e87610e5a83610670565b0390565b90610d74565b916101b983610670565b610e8281610e7d846002610a3f565b610d9a565b610ebe610eb8610eb27fddf252ad1be2c89b69c2b068fc378daa952ba7f163c4a11628f55a4df523b3ef95610648565b92610648565b9261083d565b92610ec860405190565b600090a4565b90610ede82610e7d836004610a3f565b610ee781610703565b91610ebe610eb8610eb27f8c5be1e5ebec7d5bd14f71427d1e84f3dd0314c0f7b2291e5b200ac8c7c3b92595610648565b15610f1f57565b60405162461bcd60e51b815260206004820152601960248201527f4552433732313a20617070726f766520746f2063616c6c6572000000000000006044820152606490fd5b9060ff90610d37565b90610f7d610122610d5a92151590565b8254610f64565b610fa26001600160a01b0383166001600160a01b0383161415610f18565b610fba83610fb584610aa7856005610651565b610f6d565b610ffa610ff0610fea7f17307eab39ab6107e8899845ad3d59bd9653f200f220920489ca2b5937696c3193610648565b93610648565b9361014460405190565b0390a3565b61100b61010c91611010565b6106b7565b61101b90600061070a565b61102b610c4b61021c60006105c4565b141590565b9050519061010c826100e7565b906020828203126100fa5761012291611030565b6001600160a01b03918216815291166020820152604081019190915260806060820181905261012292910190610185565b3d1561109c576110913d61084a565b903d6000602084013e565b606090565b919093926110ad600090565b946110b78161119f565b1561119557906110fe60006110d66110d160209695610648565b610648565b9261110963150b7a02916110e73390565b966110f160405190565b998a988997889660e01b90565b865260048601611051565b03925af160009181611165575b506111485750611124611082565b80516111336108c3600061083d565b0361114057604051610b66565b805190602001fd5b909150610c58630a85bd0160e11b5b916001600160e01b03191690565b61118791925060203d811161118e575b61117f81836103f8565b81019061103d565b9038611116565b503d611175565b5060019450505050565b3b6111ad6108c3600061083d565b1190565b369037565b9061010c6111cc6111c68461084a565b93610433565b601f1901602084016111b1565b634e487b7160e01b600052601260045260246000fd5b81156111f9570490565b6111d9565b6112078161129a565b906112176001926101b98461083d565b9180611222846111b6565b936020018401905b611235575b50505090565b6112699060001901926f181899199a1a9b1b9c1cb0b131b232b360811b600a82061a8453611263600a61083d565b906111ef565b90816112786108c3600061083d565b146112855790918161122a565b61122f565b610c586301ffc9a760e01b611157565b6112a4600061083d565b907a184f03e93ff9f4daa797ed6e38ed64bf6a1f0100000000000000006112ca8161083d565b82101561141c575b506d04ee2d6d415b85acef81000000006112eb8161083d565b8210156113fa575b50662386f26fc100006113058161083d565b8210156113d8575b506305f5e10061131c8161083d565b8210156113b6575b506127106113318161083d565b821015611394575b5060646113458161083d565b821015611372575b5061135b6108c3600a61083d565b10156113645790565b610122906101b9600161083d565b61138d916112636113829261083d565b916101b9600261083d565b903861134d565b6113af916112636113a49261083d565b916101b9600461083d565b9038611339565b6113d1916112636113c69261083d565b916101b9600861083d565b9038611324565b6113f3916112636113e89261083d565b916101b9601061083d565b903861130d565b6114159161126361140a9261083d565b916101b9602061083d565b90386112f3565b6114379161126361142c9261083d565b916101b9604061083d565b90386112d256fea26469706673582212200aed2af1062aaec5e2464ffb40e98a5bd2baf5b2aeddac318a3472f5bd9b9fe064736f6c63430008130033",
  "linkReferences": {},
  "deployedLinkReferences": {}
}