{"contracts/Creators.sol":{"Creators":{"abi":[{"inputs":[],"stateMutability":"nonpayable","type":"constructor"},{"anonymous":false,"inputs":[{"indexed":true,"internalType":"address","name":"previousOwner","type":"address"},{"indexed":true,"internalType":"address","name":"newOwner","type":"address"}],"name":"OwnershipTransferred","type":"event"},{"anonymous":false,"inputs":[{"indexed":true,"internalType":"address","name":"from","type":"address"},{"indexed":false,"internalType":"uint256","name":"amount","type":"uint256"}],"name":"Received","type":"event"},{"anonymous":false,"inputs":[{"indexed":false,"internalType":"address","name":"sender","type":"address"},{"indexed":false,"internalType":"address","name":"tokenAddress","type":"address"},{"indexed":false,"internalType":"uint256","name":"amountOrTokenId","type":"uint256"}],"name":"Recovered","type":"event"},{"stateMutability":"payable","type":"fallback"},{"inputs":[{"internalType":"address","name":"creatorAddress","type":"address"},{"internalType":"string","name":"name","type":"string"},{"internalType":"string","name":"description","type":"string"},{"internalType":"string","name":"location","type":"string"},{"internalType":"enum Creator.Rating","name":"rating","type":"uint8"},{"internalType":"enum Creator.Status","name":"status","type":"uint8"}],"name":"addCreator","outputs":[],"stateMutability":"nonpayable","type":"function"},{"inputs":[{"internalType":"address","name":"creatorAddress","type":"address"},{"internalType":"enum Creator.Status","name":"newStatus","type":"uint8"}],"name":"changeCreatorStatus","outputs":[],"stateMutability":"nonpayable","type":"function"},{"inputs":[],"name":"getCreators","outputs":[{"internalType":"address[]","name":"","type":"address[]"}],"stateMutability":"view","type":"function"},{"inputs":[{"internalType":"address","name":"user","type":"address"}],"name":"isCreator","outputs":[{"internalType":"bool","name":"","type":"bool"}],"stateMutability":"view","type":"function"},{"inputs":[],"name":"owner","outputs":[{"internalType":"address","name":"","type":"address"}],"stateMutability":"view","type":"function"},{"inputs":[],"name":"renounceOwnership","outputs":[],"stateMutability":"nonpayable","type":"function"},{"inputs":[{"internalType":"address","name":"blockFansAddress","type":"address"}],"name":"setBlockFans","outputs":[],"stateMutability":"nonpayable","type":"function"},{"inputs":[{"internalType":"address","name":"creatorsNFTAddress","type":"address"}],"name":"setCreatorsNFT","outputs":[],"stateMutability":"nonpayable","type":"function"},{"inputs":[{"internalType":"address","name":"newOwner","type":"address"}],"name":"transferOwnership","outputs":[],"stateMutability":"nonpayable","type":"function"},{"inputs":[{"internalType":"address","name":"tokenAddress","type":"address"},{"internalType":"uint256","name":"amountOrTokenId","type":"uint256"}],"name":"withdraw","outputs":[],"stateMutability":"nonpayable","type":"function"},{"stateMutability":"payable","type":"receive"}],"evm":{"bytecode":{"linkReferences":{},"object":"608060405234620000265762000014620000b5565b60405161132062000180823961132090f35b600080fd5b6200003e6200003b6200003b9290565b90565b6001600160a01b031690565b6200003b906200002b565b6200003b906200003e906001600160a01b031682565b6200003b9062000055565b6200003b906200006b565b90620000956200003b620000b19262000076565b82546001600160a01b0319166001600160a01b03919091161790565b9055565b620000bf620000fa565b620000f8620000f0620000d360006200004a565b620000ea620000e28262000076565b600162000081565b62000076565b600262000081565b565b620000f880336200011d565b6200003b906200003e565b6200003b905462000106565b62000129600062000111565b906200013781600062000081565b6200016e620001677f8be0079c531659141344cd1fd0a4f28419497f9722a3daafe3b4186f6b6457e09362000076565b9162000076565b916200017960405190565b600090a356fe60806040526004361015610026575b361561001e5761001c6106d1565b005b61001c6106d1565b60003560e01c80635cfac830146100c657806364f00320146100c1578063715018a6146100bc5780638da5cb5b146100b7578063ae587f9f146100b2578063ba908b45146100ad578063e6adc1ee146100a8578063efd46065146100a3578063f2fde38b1461009e5763f3fef3a30361000e576104a5565b610457565b61042a565b610403565b61037b565b610363565b610310565b6102f4565b6102ca565b61013a565b6001600160a01b031690565b90565b6001600160a01b0381165b036100ec57565b600080fd5b905035906100fe826100da565b565b600611156100ec57565b905035906100fe82610100565b91906040838203126100ec576100d79061013181856100f1565b9360200161010a565b346100ec5761015361014d366004610117565b90610d0c565b604051005b0390f35b634e487b7160e01b600052604160045260246000fd5b90601f01601f1916810190811067ffffffffffffffff82111761019457604052565b61015c565b906100fe6101a660405190565b9283610172565b67ffffffffffffffff811161019457602090601f01601f19160190565b90826000939282370152565b909291926101eb6101e6826101ad565b610199565b938185526020850190828401116100ec576100fe926101ca565b9080601f830112156100ec578160206100d7933591016101d6565b600511156100ec57565b905035906100fe82610220565b909160c0828403126100ec5761024d83836100f1565b92602083013567ffffffffffffffff81116100ec578161026e918501610205565b92604081013567ffffffffffffffff81116100ec578261028f918301610205565b92606082013567ffffffffffffffff81116100ec576102b3846100d7928501610205565b936102c1816080860161022a565b9360a00161010a565b346100ec576101536102dd366004610237565b94939093929192610bc1565b60009103126100ec57565b346100ec576103043660046102e9565b6101536104f6565b9052565b346100ec576103203660046102e9565b6101586103356000546001600160a01b031690565b604051918291826001600160a01b03909116815260200190565b906020828203126100ec576100d7916100f1565b346100ec5761015361037636600461034f565b610762565b346100ec5761015361038e36600461034f565b61073a565b906103b36103ac6103a2845190565b8084529260200190565b9260200190565b9060005b8181106103c45750505090565b9091926103ea6103e360019286516001600160a01b0316815260200190565b9460200190565b9291016103b7565b60208082526100d792910190610393565b346100ec576104133660046102e9565b61015861041e610f3c565b604051918291826103f2565b346100ec5761015861044561044036600461034f565b610f46565b60405191829182901515815260200190565b346100ec5761015361046a36600461034f565b610617565b806100e5565b905035906100fe8261046f565b91906040838203126100ec576100d79061049c81856100f1565b93602001610475565b346100ec576101536104b8366004610482565b906112e0565b6104c6610552565b6100fe6104e4565b6100cb6100d76100d79290565b6100d7906104ce565b6100fe6104f160006104db565b610676565b6100fe6104be565b1561050557565b60405162461bcd60e51b81528061054e600482016020808252818101527f4f776e61626c653a2063616c6c6572206973206e6f7420746865206f776e6572604082015260600190565b0390fd5b6100fe6105676000546001600160a01b031690565b610580610573336100cb565b916001600160a01b031690565b146104fe565b6100fe90610592610552565b6105f2565b1561059e57565b60405162461bcd60e51b815260206004820152602660248201527f4f776e61626c653a206e6577206f776e657220697320746865207a65726f206160448201526564647265737360d01b6064820152608490fd5b6100fe906104f16106066100cb60006104db565b6001600160a01b0383161415610597565b6100fe90610586565b906001600160a01b03905b9181191691161790565b6100d7906100cb906001600160a01b031682565b6100d790610635565b6100d790610649565b9061066b6100d761067292610652565b8254610620565b9055565b6000546001600160a01b03169061068e81600061065b565b6106c16106bb7f8be0079c531659141344cd1fd0a4f28419497f9722a3daafe3b4186f6b6457e093610652565b91610652565b916106cb60405190565b600090a3565b347f88a5966d370b9919b20f3e2c13ff65706f196a4e32cc2c12bf57088f885258746107166106ff33610652565b9261070960405190565b9182918290815260200190565b0390a2565b6100fe90610727610552565b6107336100fe91610652565b600161065b565b6100fe9061071b565b6100fe9061074f610552565b61075b6100fe91610652565b600261065b565b6100fe90610743565b906100fe959493929161077c610552565b610b46565b6100d760a0610199565b634e487b7160e01b600052602160045260246000fd5b600511156107ab57565b61078b565b906100fe826107a1565b9061030c906107b0565b600611156107ab57565b906100fe826107c4565b9061030c906107ce565b906107ec90610652565b600052602052604060002090565b634e487b7160e01b600052602260045260246000fd5b9060016002830492168015610830575b602083101461082b57565b6107fa565b91607f1691610820565b9160001960089290920291821b911b61062b565b6100d76100d76100d79290565b919061086c6100d76106729361084e565b90835461083a565b6100fe9160009161085b565b81811061088b575050565b806108996000600193610874565b01610880565b9190601f81116108ae57505050565b6108c06100fe93600052602060002090565b906020601f8401819004830193106108e2575b6020601f909101040190610880565b90915081906108d3565b906108f5815190565b9067ffffffffffffffff821161019457610919826109138554610810565b8561089f565b602090601f831160011461095457610672929160009183610949575b5050600019600883021c1916906002021790565b015190503880610935565b601f1983169161096985600052602060002090565b9260005b8181106109a75750916002939185600196941061098e575b50505002019055565b01516000196008601f8516021c19169055388080610985565b9193602060018192878701518155019501920161096d565b906100fe916108ec565b6100d790516107b0565b9060ff9061062b565b6100d7906107b0565b906109f56100d7610672926109dc565b82546109d3565b6100d790516107ce565b9061ff009060081b61062b565b6100d7906107ce565b90610a2c6100d761067292610a13565b8254610a06565b90610a98608060036100fe94610a5760008201610a51600088015190565b906109bf565b610a6960018201610a51602088015190565b610a7b60028201610a51604088015190565b0192610a92610a8c606083016109c9565b856109e5565b016109fc565b90610a1c565b906100fe91610a33565b634e487b7160e01b600052603260045260246000fd5b8054821015610ae157610ad8600191600052602060002090565b91020190600090565b610aa8565b916001600160a01b0360089290920291821b911b61062b565b9190610b106100d761067293610652565b908354610ae6565b90815491680100000000000000008310156101945782610b409160016100fe95018155610abe565b90610aff565b9493610b75610b9b94610b6e610b7e9495610b67610b62610781565b978852565b6020870152565b6040850152565b606083016107ba565b610b8b83608083016107d8565b610b968460046107e2565b610a9e565b610bae610ba860026107ce565b916107ce565b14610bb65750565b6100fe906003610b18565b906100fe959493929161076b565b906100fe91610bdc610552565b610c4f565b6100d79060081c60ff1690565b6100d79054610be1565b610c056100d76100d79290565b6107ce565b15610c1157565b60405162461bcd60e51b815260206004820152601660248201527510dc99585d1bdc88191bd95cc81b9bdd08195e1a5cdd60521b6044820152606490fd5b906003610cb96100fe936004610c89610c7285610c6c85856107e2565b01610bee565b610c82610ba8610c056000610bf8565b1415610c0a565b6002610c94816107ce565b610c9d876107ce565b1480610cf6575b15610cbf5750610cb48285610b18565b6107e2565b01610a1c565b610cc8906107ce565b610cd1866107ce565b141580610ce7575b156107e257610cb482610e15565b50610cf182610d58565b610cd9565b50610d07610d0384610d58565b1590565b610ca4565b906100fe91610bcf565b634e487b7160e01b600052601160045260246000fd5b6000198114610d3b5760010190565b610d16565b6100d7916008021c6100cb565b906100d79154610d40565b600090610d648261084e565b6003610d716100d7825490565b821015610db857610d8582610d8b92610abe565b90610d4d565b610d9d6001600160a01b038416610573565b14610db057610dab90610d2c565b610d64565b505050600190565b50505090565b91908203918211610d3b57565b634e487b7160e01b600052603160045260246000fd5b6100fe91600091610aff565b80548015610e10576000190190610e0d610e078383610abe565b90610de1565b55565b610dcb565b60038054610e23600061084e565b81811015610e9957610e38610d858285610abe565b610e4a6001600160a01b038616610573565b14610e5d57610e5890610d2c565b610e23565b6100fe93506100d790610b40610e8d610d85610e87610e949796610e81600161084e565b90610dbe565b86610abe565b9184610abe565b610ded565b50505050565b90610eba610eae6103a2845490565b92600052602060002090565b9060005b818110610ecb5750505090565b909192610f00610ef9600192610ee887546001600160a01b031690565b6001600160a01b0316815260200190565b9460010190565b929101610ebe565b906100d791610e9f565b906100fe610f2c92610f2360405190565b93848092610f08565b0383610172565b6100d790610f12565b6100d76003610f33565b6003610c6c610f5f92610f57600090565b5060046107e2565b610f6c610ba860026107ce565b1490565b906100fe91610f7d610552565b611050565b8015156100e5565b905051906100fe82610f82565b906020828203126100ec576100d791610f8a565b6001600160a01b0390911681526040810192916100fe9160200152565b6040513d6000823e3d90fd5b6001600160a01b039182168152911660208201526060810192916100fe9160400152565b15610fff57565b60405162461bcd60e51b8152602060048201526024808201527f496e73756666696369656e74204554482062616c616e636520696e20636f6e746044820152631c9858dd60e21b6064820152608490fd5b600061105e6100cb826104db565b6001600160a01b038316036110fd5761108361107930610652565b8490311015610ff8565b808080856110a461109f61109f6000546001600160a01b031690565b610652565b8282156110f4575bf1156110ef57336110ea7ffff3b3844276f57024e0b42afec1a37f75db36511e43819a4f2a63ab7862b648936110e160405190565b93849384610fd4565b0390a1565b610fc8565b506108fc6110ac565b82602061110c61109f85610652565b63a9059cbb90611142856111286000546001600160a01b031690565b9361114d61113560405190565b9788968795869460e01b90565b845260048401610fab565b03925af190816112b4575b501581146112845761116c61109f83610652565b6342842e0e61117a30610652565b6000546001600160a01b031692803b156100ec576111ae8580946111b98a6111a160405190565b9889978896879560e01b90565b855260048501610fd4565b03925af19081611258575b5015146112295760405162461bcd60e51b815260206004820152603060248201527f546f6b656e2074797065206e6f7420737570706f72746564206f7220696e737560448201526f6666696369656e742062616c616e636560801b6064820152608490fd5b336110ea7ffff3b3844276f57024e0b42afec1a37f75db36511e43819a4f2a63ab7862b648936110e160405190565b61127790833d851161127d575b61126f8183610172565b8101906102e9565b386111c4565b503d611265565b50336110ea7ffff3b3844276f57024e0b42afec1a37f75db36511e43819a4f2a63ab7862b648936110e160405190565b6112d49060203d81116112d9575b6112cc8183610172565b810190610f97565b611158565b503d6112c2565b906100fe91610f7056fea26469706673582212200466a37c382c5842b58d5f26022fc03b699cf3da010369c984ac2ef550d17df464736f6c63430008130033","opcodes":"PUSH1 0x80 PUSH1 0x40 MSTORE CALLVALUE PUSH3 0x26 JUMPI PUSH3 0x14 PUSH3 0xB5 JUMP JUMPDEST PUSH1 0x40 MLOAD PUSH2 0x1320 PUSH3 0x180 DUP3 CODECOPY PUSH2 0x1320 SWAP1 RETURN JUMPDEST PUSH1 0x0 DUP1 REVERT JUMPDEST PUSH3 0x3E PUSH3 0x3B PUSH3 0x3B SWAP3 SWAP1 JUMP JUMPDEST SWAP1 JUMP JUMPDEST PUSH1 0x1 PUSH1 0x1 PUSH1 0xA0 SHL SUB AND SWAP1 JUMP JUMPDEST PUSH3 0x3B SWAP1 PUSH3 0x2B JUMP JUMPDEST PUSH3 0x3B SWAP1 PUSH3 0x3E SWAP1 PUSH1 0x1 PUSH1 0x1 PUSH1 0xA0 SHL SUB AND DUP3 JUMP JUMPDEST PUSH3 0x3B SWAP1 PUSH3 0x55 JUMP JUMPDEST PUSH3 0x3B SWAP1 PUSH3 0x6B JUMP JUMPDEST SWAP1 PUSH3 0x95 PUSH3 0x3B PUSH3 0xB1 SWAP3 PUSH3 0x76 JUMP JUMPDEST DUP3 SLOAD PUSH1 0x1 PUSH1 0x1 PUSH1 0xA0 SHL SUB NOT AND PUSH1 0x1 PUSH1 0x1 PUSH1 0xA0 SHL SUB SWAP2 SWAP1 SWAP2 AND OR SWAP1 JUMP JUMPDEST SWAP1 SSTORE JUMP JUMPDEST PUSH3 0xBF PUSH3 0xFA JUMP JUMPDEST PUSH3 0xF8 PUSH3 0xF0 PUSH3 0xD3 PUSH1 0x0 PUSH3 0x4A JUMP JUMPDEST PUSH3 0xEA PUSH3 0xE2 DUP3 PUSH3 0x76 JUMP JUMPDEST PUSH1 0x1 PUSH3 0x81 JUMP JUMPDEST PUSH3 0x76 JUMP JUMPDEST PUSH1 0x2 PUSH3 0x81 JUMP JUMPDEST JUMP JUMPDEST PUSH3 0xF8 DUP1 CALLER PUSH3 0x11D JUMP JUMPDEST PUSH3 0x3B SWAP1 PUSH3 0x3E JUMP JUMPDEST PUSH3 0x3B SWAP1 SLOAD PUSH3 0x106 JUMP JUMPDEST PUSH3 0x129 PUSH1 0x0 PUSH3 0x111 JUMP JUMPDEST SWAP1 PUSH3 0x137 DUP2 PUSH1 0x0 PUSH3 0x81 JUMP JUMPDEST PUSH3 0x16E PUSH3 0x167 PUSH32 0x8BE0079C531659141344CD1FD0A4F28419497F9722A3DAAFE3B4186F6B6457E0 SWAP4 PUSH3 0x76 JUMP JUMPDEST SWAP2 PUSH3 0x76 JUMP JUMPDEST SWAP2 PUSH3 0x179 PUSH1 0x40 MLOAD SWAP1 JUMP JUMPDEST PUSH1 0x0 SWAP1 LOG3 JUMP INVALID PUSH1 0x80 PUSH1 0x40 MSTORE PUSH1 0x4 CALLDATASIZE LT ISZERO PUSH2 0x26 JUMPI JUMPDEST CALLDATASIZE ISZERO PUSH2 0x1E JUMPI PUSH2 0x1C PUSH2 0x6D1 JUMP JUMPDEST STOP JUMPDEST PUSH2 0x1C PUSH2 0x6D1 JUMP JUMPDEST PUSH1 0x0 CALLDATALOAD PUSH1 0xE0 SHR DUP1 PUSH4 0x5CFAC830 EQ PUSH2 0xC6 JUMPI DUP1 PUSH4 0x64F00320 EQ PUSH2 0xC1 JUMPI DUP1 PUSH4 0x715018A6 EQ PUSH2 0xBC JUMPI DUP1 PUSH4 0x8DA5CB5B EQ PUSH2 0xB7 JUMPI DUP1 PUSH4 0xAE587F9F EQ PUSH2 0xB2 JUMPI DUP1 PUSH4 0xBA908B45 EQ PUSH2 0xAD JUMPI DUP1 PUSH4 0xE6ADC1EE EQ PUSH2 0xA8 JUMPI DUP1 PUSH4 0xEFD46065 EQ PUSH2 0xA3 JUMPI DUP1 PUSH4 0xF2FDE38B EQ PUSH2 0x9E JUMPI PUSH4 0xF3FEF3A3 SUB PUSH2 0xE JUMPI PUSH2 0x4A5 JUMP JUMPDEST PUSH2 0x457 JUMP JUMPDEST PUSH2 0x42A JUMP JUMPDEST PUSH2 0x403 JUMP JUMPDEST PUSH2 0x37B JUMP JUMPDEST PUSH2 0x363 JUMP JUMPDEST PUSH2 0x310 JUMP JUMPDEST PUSH2 0x2F4 JUMP JUMPDEST PUSH2 0x2CA JUMP JUMPDEST PUSH2 0x13A JUMP JUMPDEST PUSH1 0x1 PUSH1 0x1 PUSH1 0xA0 SHL SUB AND SWAP1 JUMP JUMPDEST SWAP1 JUMP JUMPDEST PUSH1 0x1 PUSH1 0x1 PUSH1 0xA0 SHL SUB DUP2 AND JUMPDEST SUB PUSH2 0xEC JUMPI JUMP JUMPDEST PUSH1 0x0 DUP1 REVERT JUMPDEST SWAP1 POP CALLDATALOAD SWAP1 PUSH2 0xFE DUP3 PUSH2 0xDA JUMP JUMPDEST JUMP JUMPDEST PUSH1 0x6 GT ISZERO PUSH2 0xEC JUMPI JUMP JUMPDEST SWAP1 POP CALLDATALOAD SWAP1 PUSH2 0xFE DUP3 PUSH2 0x100 JUMP JUMPDEST SWAP2 SWAP1 PUSH1 0x40 DUP4 DUP3 SUB SLT PUSH2 0xEC JUMPI PUSH2 0xD7 SWAP1 PUSH2 0x131 DUP2 DUP6 PUSH2 0xF1 JUMP JUMPDEST SWAP4 PUSH1 0x20 ADD PUSH2 0x10A JUMP JUMPDEST CALLVALUE PUSH2 0xEC JUMPI PUSH2 0x153 PUSH2 0x14D CALLDATASIZE PUSH1 0x4 PUSH2 0x117 JUMP JUMPDEST SWAP1 PUSH2 0xD0C JUMP JUMPDEST PUSH1 0x40 MLOAD STOP JUMPDEST SUB SWAP1 RETURN JUMPDEST PUSH4 0x4E487B71 PUSH1 0xE0 SHL PUSH1 0x0 MSTORE PUSH1 0x41 PUSH1 0x4 MSTORE PUSH1 0x24 PUSH1 0x0 REVERT JUMPDEST SWAP1 PUSH1 0x1F ADD PUSH1 0x1F NOT AND DUP2 ADD SWAP1 DUP2 LT PUSH8 0xFFFFFFFFFFFFFFFF DUP3 GT OR PUSH2 0x194 JUMPI PUSH1 0x40 MSTORE JUMP JUMPDEST PUSH2 0x15C JUMP JUMPDEST SWAP1 PUSH2 0xFE PUSH2 0x1A6 PUSH1 0x40 MLOAD SWAP1 JUMP JUMPDEST SWAP3 DUP4 PUSH2 0x172 JUMP JUMPDEST PUSH8 0xFFFFFFFFFFFFFFFF DUP2 GT PUSH2 0x194 JUMPI PUSH1 0x20 SWAP1 PUSH1 0x1F ADD PUSH1 0x1F NOT AND ADD SWAP1 JUMP JUMPDEST SWAP1 DUP3 PUSH1 0x0 SWAP4 SWAP3 DUP3 CALLDATACOPY ADD MSTORE JUMP JUMPDEST SWAP1 SWAP3 SWAP2 SWAP3 PUSH2 0x1EB PUSH2 0x1E6 DUP3 PUSH2 0x1AD JUMP JUMPDEST PUSH2 0x199 JUMP JUMPDEST SWAP4 DUP2 DUP6 MSTORE PUSH1 0x20 DUP6 ADD SWAP1 DUP3 DUP5 ADD GT PUSH2 0xEC JUMPI PUSH2 0xFE SWAP3 PUSH2 0x1CA JUMP JUMPDEST SWAP1 DUP1 PUSH1 0x1F DUP4 ADD SLT ISZERO PUSH2 0xEC JUMPI DUP2 PUSH1 0x20 PUSH2 0xD7 SWAP4 CALLDATALOAD SWAP2 ADD PUSH2 0x1D6 JUMP JUMPDEST PUSH1 0x5 GT ISZERO PUSH2 0xEC JUMPI JUMP JUMPDEST SWAP1 POP CALLDATALOAD SWAP1 PUSH2 0xFE DUP3 PUSH2 0x220 JUMP JUMPDEST SWAP1 SWAP2 PUSH1 0xC0 DUP3 DUP5 SUB SLT PUSH2 0xEC JUMPI PUSH2 0x24D DUP4 DUP4 PUSH2 0xF1 JUMP JUMPDEST SWAP3 PUSH1 0x20 DUP4 ADD CALLDATALOAD PUSH8 0xFFFFFFFFFFFFFFFF DUP2 GT PUSH2 0xEC JUMPI DUP2 PUSH2 0x26E SWAP2 DUP6 ADD PUSH2 0x205 JUMP JUMPDEST SWAP3 PUSH1 0x40 DUP2 ADD CALLDATALOAD PUSH8 0xFFFFFFFFFFFFFFFF DUP2 GT PUSH2 0xEC JUMPI DUP3 PUSH2 0x28F SWAP2 DUP4 ADD PUSH2 0x205 JUMP JUMPDEST SWAP3 PUSH1 0x60 DUP3 ADD CALLDATALOAD PUSH8 0xFFFFFFFFFFFFFFFF DUP2 GT PUSH2 0xEC JUMPI PUSH2 0x2B3 DUP5 PUSH2 0xD7 SWAP3 DUP6 ADD PUSH2 0x205 JUMP JUMPDEST SWAP4 PUSH2 0x2C1 DUP2 PUSH1 0x80 DUP7 ADD PUSH2 0x22A JUMP JUMPDEST SWAP4 PUSH1 0xA0 ADD PUSH2 0x10A JUMP JUMPDEST CALLVALUE PUSH2 0xEC JUMPI PUSH2 0x153 PUSH2 0x2DD CALLDATASIZE PUSH1 0x4 PUSH2 0x237 JUMP JUMPDEST SWAP5 SWAP4 SWAP1 SWAP4 SWAP3 SWAP2 SWAP3 PUSH2 0xBC1 JUMP JUMPDEST PUSH1 0x0 SWAP2 SUB SLT PUSH2 0xEC JUMPI JUMP JUMPDEST CALLVALUE PUSH2 0xEC JUMPI PUSH2 0x304 CALLDATASIZE PUSH1 0x4 PUSH2 0x2E9 JUMP JUMPDEST PUSH2 0x153 PUSH2 0x4F6 JUMP JUMPDEST SWAP1 MSTORE JUMP JUMPDEST CALLVALUE PUSH2 0xEC JUMPI PUSH2 0x320 CALLDATASIZE PUSH1 0x4 PUSH2 0x2E9 JUMP JUMPDEST PUSH2 0x158 PUSH2 0x335 PUSH1 0x0 SLOAD PUSH1 0x1 PUSH1 0x1 PUSH1 0xA0 SHL SUB AND SWAP1 JUMP JUMPDEST PUSH1 0x40 MLOAD SWAP2 DUP3 SWAP2 DUP3 PUSH1 0x1 PUSH1 0x1 PUSH1 0xA0 SHL SUB SWAP1 SWAP2 AND DUP2 MSTORE PUSH1 0x20 ADD SWAP1 JUMP JUMPDEST SWAP1 PUSH1 0x20 DUP3 DUP3 SUB SLT PUSH2 0xEC JUMPI PUSH2 0xD7 SWAP2 PUSH2 0xF1 JUMP JUMPDEST CALLVALUE PUSH2 0xEC JUMPI PUSH2 0x153 PUSH2 0x376 CALLDATASIZE PUSH1 0x4 PUSH2 0x34F JUMP JUMPDEST PUSH2 0x762 JUMP JUMPDEST CALLVALUE PUSH2 0xEC JUMPI PUSH2 0x153 PUSH2 0x38E CALLDATASIZE PUSH1 0x4 PUSH2 0x34F JUMP JUMPDEST PUSH2 0x73A JUMP JUMPDEST SWAP1 PUSH2 0x3B3 PUSH2 0x3AC PUSH2 0x3A2 DUP5 MLOAD SWAP1 JUMP JUMPDEST DUP1 DUP5 MSTORE SWAP3 PUSH1 0x20 ADD SWAP1 JUMP JUMPDEST SWAP3 PUSH1 0x20 ADD SWAP1 JUMP JUMPDEST SWAP1 PUSH1 0x0 JUMPDEST DUP2 DUP2 LT PUSH2 0x3C4 JUMPI POP POP POP SWAP1 JUMP JUMPDEST SWAP1 SWAP2 SWAP3 PUSH2 0x3EA PUSH2 0x3E3 PUSH1 0x1 SWAP3 DUP7 MLOAD PUSH1 0x1 PUSH1 0x1 PUSH1 0xA0 SHL SUB AND DUP2 MSTORE PUSH1 0x20 ADD SWAP1 JUMP JUMPDEST SWAP5 PUSH1 0x20 ADD SWAP1 JUMP JUMPDEST SWAP3 SWAP2 ADD PUSH2 0x3B7 JUMP JUMPDEST PUSH1 0x20 DUP1 DUP3 MSTORE PUSH2 0xD7 SWAP3 SWAP2 ADD SWAP1 PUSH2 0x393 JUMP JUMPDEST CALLVALUE PUSH2 0xEC JUMPI PUSH2 0x413 CALLDATASIZE PUSH1 0x4 PUSH2 0x2E9 JUMP JUMPDEST PUSH2 0x158 PUSH2 0x41E PUSH2 0xF3C JUMP JUMPDEST PUSH1 0x40 MLOAD SWAP2 DUP3 SWAP2 DUP3 PUSH2 0x3F2 JUMP JUMPDEST CALLVALUE PUSH2 0xEC JUMPI PUSH2 0x158 PUSH2 0x445 PUSH2 0x440 CALLDATASIZE PUSH1 0x4 PUSH2 0x34F JUMP JUMPDEST PUSH2 0xF46 JUMP JUMPDEST PUSH1 0x40 MLOAD SWAP2 DUP3 SWAP2 DUP3 SWAP1 ISZERO ISZERO DUP2 MSTORE PUSH1 0x20 ADD SWAP1 JUMP JUMPDEST CALLVALUE PUSH2 0xEC JUMPI PUSH2 0x153 PUSH2 0x46A CALLDATASIZE PUSH1 0x4 PUSH2 0x34F JUMP JUMPDEST PUSH2 0x617 JUMP JUMPDEST DUP1 PUSH2 0xE5 JUMP JUMPDEST SWAP1 POP CALLDATALOAD SWAP1 PUSH2 0xFE DUP3 PUSH2 0x46F JUMP JUMPDEST SWAP2 SWAP1 PUSH1 0x40 DUP4 DUP3 SUB SLT PUSH2 0xEC JUMPI PUSH2 0xD7 SWAP1 PUSH2 0x49C DUP2 DUP6 PUSH2 0xF1 JUMP JUMPDEST SWAP4 PUSH1 0x20 ADD PUSH2 0x475 JUMP JUMPDEST CALLVALUE PUSH2 0xEC JUMPI PUSH2 0x153 PUSH2 0x4B8 CALLDATASIZE PUSH1 0x4 PUSH2 0x482 JUMP JUMPDEST SWAP1 PUSH2 0x12E0 JUMP JUMPDEST PUSH2 0x4C6 PUSH2 0x552 JUMP JUMPDEST PUSH2 0xFE PUSH2 0x4E4 JUMP JUMPDEST PUSH2 0xCB PUSH2 0xD7 PUSH2 0xD7 SWAP3 SWAP1 JUMP JUMPDEST PUSH2 0xD7 SWAP1 PUSH2 0x4CE JUMP JUMPDEST PUSH2 0xFE PUSH2 0x4F1 PUSH1 0x0 PUSH2 0x4DB JUMP JUMPDEST PUSH2 0x676 JUMP JUMPDEST PUSH2 0xFE PUSH2 0x4BE JUMP JUMPDEST ISZERO PUSH2 0x505 JUMPI JUMP JUMPDEST PUSH1 0x40 MLOAD PUSH3 0x461BCD PUSH1 0xE5 SHL DUP2 MSTORE DUP1 PUSH2 0x54E PUSH1 0x4 DUP3 ADD PUSH1 0x20 DUP1 DUP3 MSTORE DUP2 DUP2 ADD MSTORE PUSH32 0x4F776E61626C653A2063616C6C6572206973206E6F7420746865206F776E6572 PUSH1 0x40 DUP3 ADD MSTORE PUSH1 0x60 ADD SWAP1 JUMP JUMPDEST SUB SWAP1 REVERT JUMPDEST PUSH2 0xFE PUSH2 0x567 PUSH1 0x0 SLOAD PUSH1 0x1 PUSH1 0x1 PUSH1 0xA0 SHL SUB AND SWAP1 JUMP JUMPDEST PUSH2 0x580 PUSH2 0x573 CALLER PUSH2 0xCB JUMP JUMPDEST SWAP2 PUSH1 0x1 PUSH1 0x1 PUSH1 0xA0 SHL SUB AND SWAP1 JUMP JUMPDEST EQ PUSH2 0x4FE JUMP JUMPDEST PUSH2 0xFE SWAP1 PUSH2 0x592 PUSH2 0x552 JUMP JUMPDEST PUSH2 0x5F2 JUMP JUMPDEST ISZERO PUSH2 0x59E JUMPI JUMP JUMPDEST PUSH1 0x40 MLOAD PUSH3 0x461BCD PUSH1 0xE5 SHL DUP2 MSTORE PUSH1 0x20 PUSH1 0x4 DUP3 ADD MSTORE PUSH1 0x26 PUSH1 0x24 DUP3 ADD MSTORE PUSH32 0x4F776E61626C653A206E6577206F776E657220697320746865207A65726F2061 PUSH1 0x44 DUP3 ADD MSTORE PUSH6 0x646472657373 PUSH1 0xD0 SHL PUSH1 0x64 DUP3 ADD MSTORE PUSH1 0x84 SWAP1 REVERT JUMPDEST PUSH2 0xFE SWAP1 PUSH2 0x4F1 PUSH2 0x606 PUSH2 0xCB PUSH1 0x0 PUSH2 0x4DB JUMP JUMPDEST PUSH1 0x1 PUSH1 0x1 PUSH1 0xA0 SHL SUB DUP4 AND EQ ISZERO PUSH2 0x597 JUMP JUMPDEST PUSH2 0xFE SWAP1 PUSH2 0x586 JUMP JUMPDEST SWAP1 PUSH1 0x1 PUSH1 0x1 PUSH1 0xA0 SHL SUB SWAP1 JUMPDEST SWAP2 DUP2 NOT AND SWAP2 AND OR SWAP1 JUMP JUMPDEST PUSH2 0xD7 SWAP1 PUSH2 0xCB SWAP1 PUSH1 0x1 PUSH1 0x1 PUSH1 0xA0 SHL SUB AND DUP3 JUMP JUMPDEST PUSH2 0xD7 SWAP1 PUSH2 0x635 JUMP JUMPDEST PUSH2 0xD7 SWAP1 PUSH2 0x649 JUMP JUMPDEST SWAP1 PUSH2 0x66B PUSH2 0xD7 PUSH2 0x672 SWAP3 PUSH2 0x652 JUMP JUMPDEST DUP3 SLOAD PUSH2 0x620 JUMP JUMPDEST SWAP1 SSTORE JUMP JUMPDEST PUSH1 0x0 SLOAD PUSH1 0x1 PUSH1 0x1 PUSH1 0xA0 SHL SUB AND SWAP1 PUSH2 0x68E DUP2 PUSH1 0x0 PUSH2 0x65B JUMP JUMPDEST PUSH2 0x6C1 PUSH2 0x6BB PUSH32 0x8BE0079C531659141344CD1FD0A4F28419497F9722A3DAAFE3B4186F6B6457E0 SWAP4 PUSH2 0x652 JUMP JUMPDEST SWAP2 PUSH2 0x652 JUMP JUMPDEST SWAP2 PUSH2 0x6CB PUSH1 0x40 MLOAD SWAP1 JUMP JUMPDEST PUSH1 0x0 SWAP1 LOG3 JUMP JUMPDEST CALLVALUE PUSH32 0x88A5966D370B9919B20F3E2C13FF65706F196A4E32CC2C12BF57088F88525874 PUSH2 0x716 PUSH2 0x6FF CALLER PUSH2 0x652 JUMP JUMPDEST SWAP3 PUSH2 0x709 PUSH1 0x40 MLOAD SWAP1 JUMP JUMPDEST SWAP2 DUP3 SWAP2 DUP3 SWAP1 DUP2 MSTORE PUSH1 0x20 ADD SWAP1 JUMP JUMPDEST SUB SWAP1 LOG2 JUMP JUMPDEST PUSH2 0xFE SWAP1 PUSH2 0x727 PUSH2 0x552 JUMP JUMPDEST PUSH2 0x733 PUSH2 0xFE SWAP2 PUSH2 0x652 JUMP JUMPDEST PUSH1 0x1 PUSH2 0x65B JUMP JUMPDEST PUSH2 0xFE SWAP1 PUSH2 0x71B JUMP JUMPDEST PUSH2 0xFE SWAP1 PUSH2 0x74F PUSH2 0x552 JUMP JUMPDEST PUSH2 0x75B PUSH2 0xFE SWAP2 PUSH2 0x652 JUMP JUMPDEST PUSH1 0x2 PUSH2 0x65B JUMP JUMPDEST PUSH2 0xFE SWAP1 PUSH2 0x743 JUMP JUMPDEST SWAP1 PUSH2 0xFE SWAP6 SWAP5 SWAP4 SWAP3 SWAP2 PUSH2 0x77C PUSH2 0x552 JUMP JUMPDEST PUSH2 0xB46 JUMP JUMPDEST PUSH2 0xD7 PUSH1 0xA0 PUSH2 0x199 JUMP JUMPDEST PUSH4 0x4E487B71 PUSH1 0xE0 SHL PUSH1 0x0 MSTORE PUSH1 0x21 PUSH1 0x4 MSTORE PUSH1 0x24 PUSH1 0x0 REVERT JUMPDEST PUSH1 0x5 GT ISZERO PUSH2 0x7AB JUMPI JUMP JUMPDEST PUSH2 0x78B JUMP JUMPDEST SWAP1 PUSH2 0xFE DUP3 PUSH2 0x7A1 JUMP JUMPDEST SWAP1 PUSH2 0x30C SWAP1 PUSH2 0x7B0 JUMP JUMPDEST PUSH1 0x6 GT ISZERO PUSH2 0x7AB JUMPI JUMP JUMPDEST SWAP1 PUSH2 0xFE DUP3 PUSH2 0x7C4 JUMP JUMPDEST SWAP1 PUSH2 0x30C SWAP1 PUSH2 0x7CE JUMP JUMPDEST SWAP1 PUSH2 0x7EC SWAP1 PUSH2 0x652 JUMP JUMPDEST PUSH1 0x0 MSTORE PUSH1 0x20 MSTORE PUSH1 0x40 PUSH1 0x0 KECCAK256 SWAP1 JUMP JUMPDEST PUSH4 0x4E487B71 PUSH1 0xE0 SHL PUSH1 0x0 MSTORE PUSH1 0x22 PUSH1 0x4 MSTORE PUSH1 0x24 PUSH1 0x0 REVERT JUMPDEST SWAP1 PUSH1 0x1 PUSH1 0x2 DUP4 DIV SWAP3 AND DUP1 ISZERO PUSH2 0x830 JUMPI JUMPDEST PUSH1 0x20 DUP4 LT EQ PUSH2 0x82B JUMPI JUMP JUMPDEST PUSH2 0x7FA JUMP JUMPDEST SWAP2 PUSH1 0x7F AND SWAP2 PUSH2 0x820 JUMP JUMPDEST SWAP2 PUSH1 0x0 NOT PUSH1 0x8 SWAP3 SWAP1 SWAP3 MUL SWAP2 DUP3 SHL SWAP2 SHL PUSH2 0x62B JUMP JUMPDEST PUSH2 0xD7 PUSH2 0xD7 PUSH2 0xD7 SWAP3 SWAP1 JUMP JUMPDEST SWAP2 SWAP1 PUSH2 0x86C PUSH2 0xD7 PUSH2 0x672 SWAP4 PUSH2 0x84E JUMP JUMPDEST SWAP1 DUP4 SLOAD PUSH2 0x83A JUMP JUMPDEST PUSH2 0xFE SWAP2 PUSH1 0x0 SWAP2 PUSH2 0x85B JUMP JUMPDEST DUP2 DUP2 LT PUSH2 0x88B JUMPI POP POP JUMP JUMPDEST DUP1 PUSH2 0x899 PUSH1 0x0 PUSH1 0x1 SWAP4 PUSH2 0x874 JUMP JUMPDEST ADD PUSH2 0x880 JUMP JUMPDEST SWAP2 SWAP1 PUSH1 0x1F DUP2 GT PUSH2 0x8AE JUMPI POP POP POP JUMP JUMPDEST PUSH2 0x8C0 PUSH2 0xFE SWAP4 PUSH1 0x0 MSTORE PUSH1 0x20 PUSH1 0x0 KECCAK256 SWAP1 JUMP JUMPDEST SWAP1 PUSH1 0x20 PUSH1 0x1F DUP5 ADD DUP2 SWAP1 DIV DUP4 ADD SWAP4 LT PUSH2 0x8E2 JUMPI JUMPDEST PUSH1 0x20 PUSH1 0x1F SWAP1 SWAP2 ADD DIV ADD SWAP1 PUSH2 0x880 JUMP JUMPDEST SWAP1 SWAP2 POP DUP2 SWAP1 PUSH2 0x8D3 JUMP JUMPDEST SWAP1 PUSH2 0x8F5 DUP2 MLOAD SWAP1 JUMP JUMPDEST SWAP1 PUSH8 0xFFFFFFFFFFFFFFFF DUP3 GT PUSH2 0x194 JUMPI PUSH2 0x919 DUP3 PUSH2 0x913 DUP6 SLOAD PUSH2 0x810 JUMP JUMPDEST DUP6 PUSH2 0x89F JUMP JUMPDEST PUSH1 0x20 SWAP1 PUSH1 0x1F DUP4 GT PUSH1 0x1 EQ PUSH2 0x954 JUMPI PUSH2 0x672 SWAP3 SWAP2 PUSH1 0x0 SWAP2 DUP4 PUSH2 0x949 JUMPI JUMPDEST POP POP PUSH1 0x0 NOT PUSH1 0x8 DUP4 MUL SHR NOT AND SWAP1 PUSH1 0x2 MUL OR SWAP1 JUMP JUMPDEST ADD MLOAD SWAP1 POP CODESIZE DUP1 PUSH2 0x935 JUMP JUMPDEST PUSH1 0x1F NOT DUP4 AND SWAP2 PUSH2 0x969 DUP6 PUSH1 0x0 MSTORE PUSH1 0x20 PUSH1 0x0 KECCAK256 SWAP1 JUMP JUMPDEST SWAP3 PUSH1 0x0 JUMPDEST DUP2 DUP2 LT PUSH2 0x9A7 JUMPI POP SWAP2 PUSH1 0x2 SWAP4 SWAP2 DUP6 PUSH1 0x1 SWAP7 SWAP5 LT PUSH2 0x98E JUMPI JUMPDEST POP POP POP MUL ADD SWAP1 SSTORE JUMP JUMPDEST ADD MLOAD PUSH1 0x0 NOT PUSH1 0x8 PUSH1 0x1F DUP6 AND MUL SHR NOT AND SWAP1 SSTORE CODESIZE DUP1 DUP1 PUSH2 0x985 JUMP JUMPDEST SWAP2 SWAP4 PUSH1 0x20 PUSH1 0x1 DUP2 SWAP3 DUP8 DUP8 ADD MLOAD DUP2 SSTORE ADD SWAP6 ADD SWAP3 ADD PUSH2 0x96D JUMP JUMPDEST SWAP1 PUSH2 0xFE SWAP2 PUSH2 0x8EC JUMP JUMPDEST PUSH2 0xD7 SWAP1 MLOAD PUSH2 0x7B0 JUMP JUMPDEST SWAP1 PUSH1 0xFF SWAP1 PUSH2 0x62B JUMP JUMPDEST PUSH2 0xD7 SWAP1 PUSH2 0x7B0 JUMP JUMPDEST SWAP1 PUSH2 0x9F5 PUSH2 0xD7 PUSH2 0x672 SWAP3 PUSH2 0x9DC JUMP JUMPDEST DUP3 SLOAD PUSH2 0x9D3 JUMP JUMPDEST PUSH2 0xD7 SWAP1 MLOAD PUSH2 0x7CE JUMP JUMPDEST SWAP1 PUSH2 0xFF00 SWAP1 PUSH1 0x8 SHL PUSH2 0x62B JUMP JUMPDEST PUSH2 0xD7 SWAP1 PUSH2 0x7CE JUMP JUMPDEST SWAP1 PUSH2 0xA2C PUSH2 0xD7 PUSH2 0x672 SWAP3 PUSH2 0xA13 JUMP JUMPDEST DUP3 SLOAD PUSH2 0xA06 JUMP JUMPDEST SWAP1 PUSH2 0xA98 PUSH1 0x80 PUSH1 0x3 PUSH2 0xFE SWAP5 PUSH2 0xA57 PUSH1 0x0 DUP3 ADD PUSH2 0xA51 PUSH1 0x0 DUP9 ADD MLOAD SWAP1 JUMP JUMPDEST SWAP1 PUSH2 0x9BF JUMP JUMPDEST PUSH2 0xA69 PUSH1 0x1 DUP3 ADD PUSH2 0xA51 PUSH1 0x20 DUP9 ADD MLOAD SWAP1 JUMP JUMPDEST PUSH2 0xA7B PUSH1 0x2 DUP3 ADD PUSH2 0xA51 PUSH1 0x40 DUP9 ADD MLOAD SWAP1 JUMP JUMPDEST ADD SWAP3 PUSH2 0xA92 PUSH2 0xA8C PUSH1 0x60 DUP4 ADD PUSH2 0x9C9 JUMP JUMPDEST DUP6 PUSH2 0x9E5 JUMP JUMPDEST ADD PUSH2 0x9FC JUMP JUMPDEST SWAP1 PUSH2 0xA1C JUMP JUMPDEST SWAP1 PUSH2 0xFE SWAP2 PUSH2 0xA33 JUMP JUMPDEST PUSH4 0x4E487B71 PUSH1 0xE0 SHL PUSH1 0x0 MSTORE PUSH1 0x32 PUSH1 0x4 MSTORE PUSH1 0x24 PUSH1 0x0 REVERT JUMPDEST DUP1 SLOAD DUP3 LT ISZERO PUSH2 0xAE1 JUMPI PUSH2 0xAD8 PUSH1 0x1 SWAP2 PUSH1 0x0 MSTORE PUSH1 0x20 PUSH1 0x0 KECCAK256 SWAP1 JUMP JUMPDEST SWAP2 MUL ADD SWAP1 PUSH1 0x0 SWAP1 JUMP JUMPDEST PUSH2 0xAA8 JUMP JUMPDEST SWAP2 PUSH1 0x1 PUSH1 0x1 PUSH1 0xA0 SHL SUB PUSH1 0x8 SWAP3 SWAP1 SWAP3 MUL SWAP2 DUP3 SHL SWAP2 SHL PUSH2 0x62B JUMP JUMPDEST SWAP2 SWAP1 PUSH2 0xB10 PUSH2 0xD7 PUSH2 0x672 SWAP4 PUSH2 0x652 JUMP JUMPDEST SWAP1 DUP4 SLOAD PUSH2 0xAE6 JUMP JUMPDEST SWAP1 DUP2 SLOAD SWAP2 PUSH9 0x10000000000000000 DUP4 LT ISZERO PUSH2 0x194 JUMPI DUP3 PUSH2 0xB40 SWAP2 PUSH1 0x1 PUSH2 0xFE SWAP6 ADD DUP2 SSTORE PUSH2 0xABE JUMP JUMPDEST SWAP1 PUSH2 0xAFF JUMP JUMPDEST SWAP5 SWAP4 PUSH2 0xB75 PUSH2 0xB9B SWAP5 PUSH2 0xB6E PUSH2 0xB7E SWAP5 SWAP6 PUSH2 0xB67 PUSH2 0xB62 PUSH2 0x781 JUMP JUMPDEST SWAP8 DUP9 MSTORE JUMP JUMPDEST PUSH1 0x20 DUP8 ADD MSTORE JUMP JUMPDEST PUSH1 0x40 DUP6 ADD MSTORE JUMP JUMPDEST PUSH1 0x60 DUP4 ADD PUSH2 0x7BA JUMP JUMPDEST PUSH2 0xB8B DUP4 PUSH1 0x80 DUP4 ADD PUSH2 0x7D8 JUMP JUMPDEST PUSH2 0xB96 DUP5 PUSH1 0x4 PUSH2 0x7E2 JUMP JUMPDEST PUSH2 0xA9E JUMP JUMPDEST PUSH2 0xBAE PUSH2 0xBA8 PUSH1 0x2 PUSH2 0x7CE JUMP JUMPDEST SWAP2 PUSH2 0x7CE JUMP JUMPDEST EQ PUSH2 0xBB6 JUMPI POP JUMP JUMPDEST PUSH2 0xFE SWAP1 PUSH1 0x3 PUSH2 0xB18 JUMP JUMPDEST SWAP1 PUSH2 0xFE SWAP6 SWAP5 SWAP4 SWAP3 SWAP2 PUSH2 0x76B JUMP JUMPDEST SWAP1 PUSH2 0xFE SWAP2 PUSH2 0xBDC PUSH2 0x552 JUMP JUMPDEST PUSH2 0xC4F JUMP JUMPDEST PUSH2 0xD7 SWAP1 PUSH1 0x8 SHR PUSH1 0xFF AND SWAP1 JUMP JUMPDEST PUSH2 0xD7 SWAP1 SLOAD PUSH2 0xBE1 JUMP JUMPDEST PUSH2 0xC05 PUSH2 0xD7 PUSH2 0xD7 SWAP3 SWAP1 JUMP JUMPDEST PUSH2 0x7CE JUMP JUMPDEST ISZERO PUSH2 0xC11 JUMPI JUMP JUMPDEST PUSH1 0x40 MLOAD PUSH3 0x461BCD PUSH1 0xE5 SHL DUP2 MSTORE PUSH1 0x20 PUSH1 0x4 DUP3 ADD MSTORE PUSH1 0x16 PUSH1 0x24 DUP3 ADD MSTORE PUSH22 0x10DC99585D1BDC88191BD95CC81B9BDD08195E1A5CDD PUSH1 0x52 SHL PUSH1 0x44 DUP3 ADD MSTORE PUSH1 0x64 SWAP1 REVERT JUMPDEST SWAP1 PUSH1 0x3 PUSH2 0xCB9 PUSH2 0xFE SWAP4 PUSH1 0x4 PUSH2 0xC89 PUSH2 0xC72 DUP6 PUSH2 0xC6C DUP6 DUP6 PUSH2 0x7E2 JUMP JUMPDEST ADD PUSH2 0xBEE JUMP JUMPDEST PUSH2 0xC82 PUSH2 0xBA8 PUSH2 0xC05 PUSH1 0x0 PUSH2 0xBF8 JUMP JUMPDEST EQ ISZERO PUSH2 0xC0A JUMP JUMPDEST PUSH1 0x2 PUSH2 0xC94 DUP2 PUSH2 0x7CE JUMP JUMPDEST PUSH2 0xC9D DUP8 PUSH2 0x7CE JUMP JUMPDEST EQ DUP1 PUSH2 0xCF6 JUMPI JUMPDEST ISZERO PUSH2 0xCBF JUMPI POP PUSH2 0xCB4 DUP3 DUP6 PUSH2 0xB18 JUMP JUMPDEST PUSH2 0x7E2 JUMP JUMPDEST ADD PUSH2 0xA1C JUMP JUMPDEST PUSH2 0xCC8 SWAP1 PUSH2 0x7CE JUMP JUMPDEST PUSH2 0xCD1 DUP7 PUSH2 0x7CE JUMP JUMPDEST EQ ISZERO DUP1 PUSH2 0xCE7 JUMPI JUMPDEST ISZERO PUSH2 0x7E2 JUMPI PUSH2 0xCB4 DUP3 PUSH2 0xE15 JUMP JUMPDEST POP PUSH2 0xCF1 DUP3 PUSH2 0xD58 JUMP JUMPDEST PUSH2 0xCD9 JUMP JUMPDEST POP PUSH2 0xD07 PUSH2 0xD03 DUP5 PUSH2 0xD58 JUMP JUMPDEST ISZERO SWAP1 JUMP JUMPDEST PUSH2 0xCA4 JUMP JUMPDEST SWAP1 PUSH2 0xFE SWAP2 PUSH2 0xBCF JUMP JUMPDEST PUSH4 0x4E487B71 PUSH1 0xE0 SHL PUSH1 0x0 MSTORE PUSH1 0x11 PUSH1 0x4 MSTORE PUSH1 0x24 PUSH1 0x0 REVERT JUMPDEST PUSH1 0x0 NOT DUP2 EQ PUSH2 0xD3B JUMPI PUSH1 0x1 ADD SWAP1 JUMP JUMPDEST PUSH2 0xD16 JUMP JUMPDEST PUSH2 0xD7 SWAP2 PUSH1 0x8 MUL SHR PUSH2 0xCB JUMP JUMPDEST SWAP1 PUSH2 0xD7 SWAP2 SLOAD PUSH2 0xD40 JUMP JUMPDEST PUSH1 0x0 SWAP1 PUSH2 0xD64 DUP3 PUSH2 0x84E JUMP JUMPDEST PUSH1 0x3 PUSH2 0xD71 PUSH2 0xD7 DUP3 SLOAD SWAP1 JUMP JUMPDEST DUP3 LT ISZERO PUSH2 0xDB8 JUMPI PUSH2 0xD85 DUP3 PUSH2 0xD8B SWAP3 PUSH2 0xABE JUMP JUMPDEST SWAP1 PUSH2 0xD4D JUMP JUMPDEST PUSH2 0xD9D PUSH1 0x1 PUSH1 0x1 PUSH1 0xA0 SHL SUB DUP5 AND PUSH2 0x573 JUMP JUMPDEST EQ PUSH2 0xDB0 JUMPI PUSH2 0xDAB SWAP1 PUSH2 0xD2C JUMP JUMPDEST PUSH2 0xD64 JUMP JUMPDEST POP POP POP PUSH1 0x1 SWAP1 JUMP JUMPDEST POP POP POP SWAP1 JUMP JUMPDEST SWAP2 SWAP1 DUP3 SUB SWAP2 DUP3 GT PUSH2 0xD3B JUMPI JUMP JUMPDEST PUSH4 0x4E487B71 PUSH1 0xE0 SHL PUSH1 0x0 MSTORE PUSH1 0x31 PUSH1 0x4 MSTORE PUSH1 0x24 PUSH1 0x0 REVERT JUMPDEST PUSH2 0xFE SWAP2 PUSH1 0x0 SWAP2 PUSH2 0xAFF JUMP JUMPDEST DUP1 SLOAD DUP1 ISZERO PUSH2 0xE10 JUMPI PUSH1 0x0 NOT ADD SWAP1 PUSH2 0xE0D PUSH2 0xE07 DUP4 DUP4 PUSH2 0xABE JUMP JUMPDEST SWAP1 PUSH2 0xDE1 JUMP JUMPDEST SSTORE JUMP JUMPDEST PUSH2 0xDCB JUMP JUMPDEST PUSH1 0x3 DUP1 SLOAD PUSH2 0xE23 PUSH1 0x0 PUSH2 0x84E JUMP JUMPDEST DUP2 DUP2 LT ISZERO PUSH2 0xE99 JUMPI PUSH2 0xE38 PUSH2 0xD85 DUP3 DUP6 PUSH2 0xABE JUMP JUMPDEST PUSH2 0xE4A PUSH1 0x1 PUSH1 0x1 PUSH1 0xA0 SHL SUB DUP7 AND PUSH2 0x573 JUMP JUMPDEST EQ PUSH2 0xE5D JUMPI PUSH2 0xE58 SWAP1 PUSH2 0xD2C JUMP JUMPDEST PUSH2 0xE23 JUMP JUMPDEST PUSH2 0xFE SWAP4 POP PUSH2 0xD7 SWAP1 PUSH2 0xB40 PUSH2 0xE8D PUSH2 0xD85 PUSH2 0xE87 PUSH2 0xE94 SWAP8 SWAP7 PUSH2 0xE81 PUSH1 0x1 PUSH2 0x84E JUMP JUMPDEST SWAP1 PUSH2 0xDBE JUMP JUMPDEST DUP7 PUSH2 0xABE JUMP JUMPDEST SWAP2 DUP5 PUSH2 0xABE JUMP JUMPDEST PUSH2 0xDED JUMP JUMPDEST POP POP POP POP JUMP JUMPDEST SWAP1 PUSH2 0xEBA PUSH2 0xEAE PUSH2 0x3A2 DUP5 SLOAD SWAP1 JUMP JUMPDEST SWAP3 PUSH1 0x0 MSTORE PUSH1 0x20 PUSH1 0x0 KECCAK256 SWAP1 JUMP JUMPDEST SWAP1 PUSH1 0x0 JUMPDEST DUP2 DUP2 LT PUSH2 0xECB JUMPI POP POP POP SWAP1 JUMP JUMPDEST SWAP1 SWAP2 SWAP3 PUSH2 0xF00 PUSH2 0xEF9 PUSH1 0x1 SWAP3 PUSH2 0xEE8 DUP8 SLOAD PUSH1 0x1 PUSH1 0x1 PUSH1 0xA0 SHL SUB AND SWAP1 JUMP JUMPDEST PUSH1 0x1 PUSH1 0x1 PUSH1 0xA0 SHL SUB AND DUP2 MSTORE PUSH1 0x20 ADD SWAP1 JUMP JUMPDEST SWAP5 PUSH1 0x1 ADD SWAP1 JUMP JUMPDEST SWAP3 SWAP2 ADD PUSH2 0xEBE JUMP JUMPDEST SWAP1 PUSH2 0xD7 SWAP2 PUSH2 0xE9F JUMP JUMPDEST SWAP1 PUSH2 0xFE PUSH2 0xF2C SWAP3 PUSH2 0xF23 PUSH1 0x40 MLOAD SWAP1 JUMP JUMPDEST SWAP4 DUP5 DUP1 SWAP3 PUSH2 0xF08 JUMP JUMPDEST SUB DUP4 PUSH2 0x172 JUMP JUMPDEST PUSH2 0xD7 SWAP1 PUSH2 0xF12 JUMP JUMPDEST PUSH2 0xD7 PUSH1 0x3 PUSH2 0xF33 JUMP JUMPDEST PUSH1 0x3 PUSH2 0xC6C PUSH2 0xF5F SWAP3 PUSH2 0xF57 PUSH1 0x0 SWAP1 JUMP JUMPDEST POP PUSH1 0x4 PUSH2 0x7E2 JUMP JUMPDEST PUSH2 0xF6C PUSH2 0xBA8 PUSH1 0x2 PUSH2 0x7CE JUMP JUMPDEST EQ SWAP1 JUMP JUMPDEST SWAP1 PUSH2 0xFE SWAP2 PUSH2 0xF7D PUSH2 0x552 JUMP JUMPDEST PUSH2 0x1050 JUMP JUMPDEST DUP1 ISZERO ISZERO PUSH2 0xE5 JUMP JUMPDEST SWAP1 POP MLOAD SWAP1 PUSH2 0xFE DUP3 PUSH2 0xF82 JUMP JUMPDEST SWAP1 PUSH1 0x20 DUP3 DUP3 SUB SLT PUSH2 0xEC JUMPI PUSH2 0xD7 SWAP2 PUSH2 0xF8A JUMP JUMPDEST PUSH1 0x1 PUSH1 0x1 PUSH1 0xA0 SHL SUB SWAP1 SWAP2 AND DUP2 MSTORE PUSH1 0x40 DUP2 ADD SWAP3 SWAP2 PUSH2 0xFE SWAP2 PUSH1 0x20 ADD MSTORE JUMP JUMPDEST PUSH1 0x40 MLOAD RETURNDATASIZE PUSH1 0x0 DUP3 RETURNDATACOPY RETURNDATASIZE SWAP1 REVERT JUMPDEST PUSH1 0x1 PUSH1 0x1 PUSH1 0xA0 SHL SUB SWAP2 DUP3 AND DUP2 MSTORE SWAP2 AND PUSH1 0x20 DUP3 ADD MSTORE PUSH1 0x60 DUP2 ADD SWAP3 SWAP2 PUSH2 0xFE SWAP2 PUSH1 0x40 ADD MSTORE JUMP JUMPDEST ISZERO PUSH2 0xFFF JUMPI JUMP JUMPDEST PUSH1 0x40 MLOAD PUSH3 0x461BCD PUSH1 0xE5 SHL DUP2 MSTORE PUSH1 0x20 PUSH1 0x4 DUP3 ADD MSTORE PUSH1 0x24 DUP1 DUP3 ADD MSTORE PUSH32 0x496E73756666696369656E74204554482062616C616E636520696E20636F6E74 PUSH1 0x44 DUP3 ADD MSTORE PUSH4 0x1C9858DD PUSH1 0xE2 SHL PUSH1 0x64 DUP3 ADD MSTORE PUSH1 0x84 SWAP1 REVERT JUMPDEST PUSH1 0x0 PUSH2 0x105E PUSH2 0xCB DUP3 PUSH2 0x4DB JUMP JUMPDEST PUSH1 0x1 PUSH1 0x1 PUSH1 0xA0 SHL SUB DUP4 AND SUB PUSH2 0x10FD JUMPI PUSH2 0x1083 PUSH2 0x1079 ADDRESS PUSH2 0x652 JUMP JUMPDEST DUP5 SWAP1 BALANCE LT ISZERO PUSH2 0xFF8 JUMP JUMPDEST DUP1 DUP1 DUP1 DUP6 PUSH2 0x10A4 PUSH2 0x109F PUSH2 0x109F PUSH1 0x0 SLOAD PUSH1 0x1 PUSH1 0x1 PUSH1 0xA0 SHL SUB AND SWAP1 JUMP JUMPDEST PUSH2 0x652 JUMP JUMPDEST DUP3 DUP3 ISZERO PUSH2 0x10F4 JUMPI JUMPDEST CALL ISZERO PUSH2 0x10EF JUMPI CALLER PUSH2 0x10EA PUSH32 0xFFF3B3844276F57024E0B42AFEC1A37F75DB36511E43819A4F2A63AB7862B648 SWAP4 PUSH2 0x10E1 PUSH1 0x40 MLOAD SWAP1 JUMP JUMPDEST SWAP4 DUP5 SWAP4 DUP5 PUSH2 0xFD4 JUMP JUMPDEST SUB SWAP1 LOG1 JUMP JUMPDEST PUSH2 0xFC8 JUMP JUMPDEST POP PUSH2 0x8FC PUSH2 0x10AC JUMP JUMPDEST DUP3 PUSH1 0x20 PUSH2 0x110C PUSH2 0x109F DUP6 PUSH2 0x652 JUMP JUMPDEST PUSH4 0xA9059CBB SWAP1 PUSH2 0x1142 DUP6 PUSH2 0x1128 PUSH1 0x0 SLOAD PUSH1 0x1 PUSH1 0x1 PUSH1 0xA0 SHL SUB AND SWAP1 JUMP JUMPDEST SWAP4 PUSH2 0x114D PUSH2 0x1135 PUSH1 0x40 MLOAD SWAP1 JUMP JUMPDEST SWAP8 DUP9 SWAP7 DUP8 SWAP6 DUP7 SWAP5 PUSH1 0xE0 SHL SWAP1 JUMP JUMPDEST DUP5 MSTORE PUSH1 0x4 DUP5 ADD PUSH2 0xFAB JUMP JUMPDEST SUB SWAP3 GAS CALL SWAP1 DUP2 PUSH2 0x12B4 JUMPI JUMPDEST POP ISZERO DUP2 EQ PUSH2 0x1284 JUMPI PUSH2 0x116C PUSH2 0x109F DUP4 PUSH2 0x652 JUMP JUMPDEST PUSH4 0x42842E0E PUSH2 0x117A ADDRESS PUSH2 0x652 JUMP JUMPDEST PUSH1 0x0 SLOAD PUSH1 0x1 PUSH1 0x1 PUSH1 0xA0 SHL SUB AND SWAP3 DUP1 EXTCODESIZE ISZERO PUSH2 0xEC JUMPI PUSH2 0x11AE DUP6 DUP1 SWAP5 PUSH2 0x11B9 DUP11 PUSH2 0x11A1 PUSH1 0x40 MLOAD SWAP1 JUMP JUMPDEST SWAP9 DUP10 SWAP8 DUP9 SWAP7 DUP8 SWAP6 PUSH1 0xE0 SHL SWAP1 JUMP JUMPDEST DUP6 MSTORE PUSH1 0x4 DUP6 ADD PUSH2 0xFD4 JUMP JUMPDEST SUB SWAP3 GAS CALL SWAP1 DUP2 PUSH2 0x1258 JUMPI JUMPDEST POP ISZERO EQ PUSH2 0x1229 JUMPI PUSH1 0x40 MLOAD PUSH3 0x461BCD PUSH1 0xE5 SHL DUP2 MSTORE PUSH1 0x20 PUSH1 0x4 DUP3 ADD MSTORE PUSH1 0x30 PUSH1 0x24 DUP3 ADD MSTORE PUSH32 0x546F6B656E2074797065206E6F7420737570706F72746564206F7220696E7375 PUSH1 0x44 DUP3 ADD MSTORE PUSH16 0x6666696369656E742062616C616E6365 PUSH1 0x80 SHL PUSH1 0x64 DUP3 ADD MSTORE PUSH1 0x84 SWAP1 REVERT JUMPDEST CALLER PUSH2 0x10EA PUSH32 0xFFF3B3844276F57024E0B42AFEC1A37F75DB36511E43819A4F2A63AB7862B648 SWAP4 PUSH2 0x10E1 PUSH1 0x40 MLOAD SWAP1 JUMP JUMPDEST PUSH2 0x1277 SWAP1 DUP4 RETURNDATASIZE DUP6 GT PUSH2 0x127D JUMPI JUMPDEST PUSH2 0x126F DUP2 DUP4 PUSH2 0x172 JUMP JUMPDEST DUP2 ADD SWAP1 PUSH2 0x2E9 JUMP JUMPDEST CODESIZE PUSH2 0x11C4 JUMP JUMPDEST POP RETURNDATASIZE PUSH2 0x1265 JUMP JUMPDEST POP CALLER PUSH2 0x10EA PUSH32 0xFFF3B3844276F57024E0B42AFEC1A37F75DB36511E43819A4F2A63AB7862B648 SWAP4 PUSH2 0x10E1 PUSH1 0x40 MLOAD SWAP1 JUMP JUMPDEST PUSH2 0x12D4 SWAP1 PUSH1 0x20 RETURNDATASIZE DUP2 GT PUSH2 0x12D9 JUMPI JUMPDEST PUSH2 0x12CC DUP2 DUP4 PUSH2 0x172 JUMP JUMPDEST DUP2 ADD SWAP1 PUSH2 0xF97 JUMP JUMPDEST PUSH2 0x1158 JUMP JUMPDEST POP RETURNDATASIZE PUSH2 0x12C2 JUMP JUMPDEST SWAP1 PUSH2 0xFE SWAP2 PUSH2 0xF70 JUMP INVALID LOG2 PUSH5 0x6970667358 0x22 SLT KECCAK256 DIV PUSH7 0xA37C382C5842B5 DUP14 0x5F 0x26 MUL 0x2F 0xC0 EXTCODESIZE PUSH10 0x9CF3DA010369C984AC2E CREATE2 POP 0xD1 PUSH30 0xF464736F6C63430008130033000000000000000000000000000000000000 "},"methodIdentifiers":{"addCreator(address,string,string,string,uint8,uint8)":"64f00320","changeCreatorStatus(address,uint8)":"5cfac830","getCreators()":"e6adc1ee","isCreator(address)":"efd46065","owner()":"8da5cb5b","renounceOwnership()":"715018a6","setBlockFans(address)":"ba908b45","setCreatorsNFT(address)":"ae587f9f","transferOwnership(address)":"f2fde38b","withdraw(address,uint256)":"f3fef3a3"}}}}}