{"contracts/CreatorsNFT.sol":{"CreatorsNFT":{"abi":[{"inputs":[],"stateMutability":"nonpayable","type":"constructor"},{"anonymous":false,"inputs":[{"indexed":true,"internalType":"address","name":"owner","type":"address"},{"indexed":true,"internalType":"address","name":"approved","type":"address"},{"indexed":true,"internalType":"uint256","name":"tokenId","type":"uint256"}],"name":"Approval","type":"event"},{"anonymous":false,"inputs":[{"indexed":true,"internalType":"address","name":"owner","type":"address"},{"indexed":true,"internalType":"address","name":"operator","type":"address"},{"indexed":false,"internalType":"bool","name":"approved","type":"bool"}],"name":"ApprovalForAll","type":"event"},{"anonymous":false,"inputs":[{"indexed":false,"internalType":"uint256","name":"_fromTokenId","type":"uint256"},{"indexed":false,"internalType":"uint256","name":"_toTokenId","type":"uint256"}],"name":"BatchMetadataUpdate","type":"event"},{"anonymous":false,"inputs":[{"indexed":false,"internalType":"uint256","name":"_tokenId","type":"uint256"}],"name":"MetadataUpdate","type":"event"},{"anonymous":false,"inputs":[{"indexed":true,"internalType":"address","name":"buyer","type":"address"},{"indexed":false,"internalType":"uint256","name":"nftId","type":"uint256"}],"name":"NFTTransferred","type":"event"},{"anonymous":false,"inputs":[{"indexed":true,"internalType":"address","name":"previousOwner","type":"address"},{"indexed":true,"internalType":"address","name":"newOwner","type":"address"}],"name":"OwnershipTransferred","type":"event"},{"anonymous":false,"inputs":[{"indexed":true,"internalType":"address","name":"from","type":"address"},{"indexed":false,"internalType":"uint256","name":"amount","type":"uint256"}],"name":"Received","type":"event"},{"anonymous":false,"inputs":[{"indexed":true,"internalType":"address","name":"sender","type":"address"},{"indexed":false,"internalType":"address","name":"tokenAddress","type":"address"},{"indexed":false,"internalType":"uint256","name":"amountOrTokenId","type":"uint256"}],"name":"Recovered","type":"event"},{"anonymous":false,"inputs":[{"indexed":true,"internalType":"address","name":"from","type":"address"},{"indexed":true,"internalType":"address","name":"to","type":"address"},{"indexed":true,"internalType":"uint256","name":"tokenId","type":"uint256"}],"name":"Transfer","type":"event"},{"stateMutability":"payable","type":"fallback"},{"inputs":[{"internalType":"address","name":"to","type":"address"},{"internalType":"uint256","name":"tokenId","type":"uint256"}],"name":"approve","outputs":[],"stateMutability":"nonpayable","type":"function"},{"inputs":[{"internalType":"address","name":"owner","type":"address"}],"name":"balanceOf","outputs":[{"internalType":"uint256","name":"","type":"uint256"}],"stateMutability":"view","type":"function"},{"inputs":[{"internalType":"uint256","name":"sourceId","type":"uint256"}],"name":"buyNFT","outputs":[],"stateMutability":"nonpayable","type":"function"},{"inputs":[{"internalType":"uint256","name":"sourceId","type":"uint256"}],"name":"deleteNFTSource","outputs":[],"stateMutability":"nonpayable","type":"function"},{"inputs":[{"internalType":"uint256","name":"tokenId","type":"uint256"}],"name":"getApproved","outputs":[{"internalType":"address","name":"","type":"address"}],"stateMutability":"view","type":"function"},{"inputs":[{"internalType":"address","name":"creator","type":"address"}],"name":"getNFTDetailsByCreator","outputs":[{"components":[{"internalType":"uint256","name":"sourceId","type":"uint256"},{"internalType":"address","name":"creator","type":"address"},{"internalType":"string","name":"name","type":"string"},{"internalType":"string","name":"description","type":"string"},{"internalType":"string","name":"image","type":"string"},{"internalType":"string","name":"external_url","type":"string"},{"internalType":"uint256","name":"price","type":"uint256"},{"internalType":"uint256","name":"units","type":"uint256"},{"internalType":"enum NFTSource.MediaType","name":"mediaType","type":"uint8"},{"internalType":"enum NFTSource.Status","name":"status","type":"uint8"}],"internalType":"struct NFTSource.Detail[]","name":"","type":"tuple[]"}],"stateMutability":"view","type":"function"},{"inputs":[{"internalType":"address","name":"creator","type":"address"}],"name":"getNFTsByCreator","outputs":[{"internalType":"uint256[]","name":"","type":"uint256[]"}],"stateMutability":"view","type":"function"},{"inputs":[{"internalType":"uint256","name":"tokenId","type":"uint256"}],"name":"getSoldUnitsPerSource","outputs":[{"internalType":"uint256","name":"","type":"uint256"}],"stateMutability":"view","type":"function"},{"inputs":[{"internalType":"address","name":"owner","type":"address"},{"internalType":"address","name":"operator","type":"address"}],"name":"isApprovedForAll","outputs":[{"internalType":"bool","name":"","type":"bool"}],"stateMutability":"view","type":"function"},{"inputs":[],"name":"name","outputs":[{"internalType":"string","name":"","type":"string"}],"stateMutability":"view","type":"function"},{"inputs":[],"name":"nextNFTId","outputs":[{"internalType":"uint256","name":"","type":"uint256"}],"stateMutability":"view","type":"function"},{"inputs":[],"name":"nextSourceId","outputs":[{"internalType":"uint256","name":"","type":"uint256"}],"stateMutability":"view","type":"function"},{"inputs":[{"internalType":"uint256","name":"","type":"uint256"}],"name":"nfts","outputs":[{"internalType":"uint256","name":"tokenId","type":"uint256"},{"internalType":"address","name":"creator","type":"address"},{"internalType":"string","name":"name","type":"string"},{"internalType":"string","name":"description","type":"string"},{"internalType":"string","name":"image","type":"string"},{"internalType":"string","name":"external_url","type":"string"},{"internalType":"uint256","name":"price","type":"uint256"},{"internalType":"enum NFTSource.MediaType","name":"mediaType","type":"uint8"}],"stateMutability":"view","type":"function"},{"inputs":[],"name":"owner","outputs":[{"internalType":"address","name":"","type":"address"}],"stateMutability":"view","type":"function"},{"inputs":[{"internalType":"uint256","name":"tokenId","type":"uint256"}],"name":"ownerOf","outputs":[{"internalType":"address","name":"","type":"address"}],"stateMutability":"view","type":"function"},{"inputs":[{"internalType":"uint256","name":"sourceId","type":"uint256"}],"name":"permanentDeleteNFTSource","outputs":[],"stateMutability":"nonpayable","type":"function"},{"inputs":[],"name":"renounceOwnership","outputs":[],"stateMutability":"nonpayable","type":"function"},{"inputs":[{"internalType":"address","name":"from","type":"address"},{"internalType":"address","name":"to","type":"address"},{"internalType":"uint256","name":"tokenId","type":"uint256"}],"name":"safeTransferFrom","outputs":[],"stateMutability":"nonpayable","type":"function"},{"inputs":[{"internalType":"address","name":"from","type":"address"},{"internalType":"address","name":"to","type":"address"},{"internalType":"uint256","name":"tokenId","type":"uint256"},{"internalType":"bytes","name":"data","type":"bytes"}],"name":"safeTransferFrom","outputs":[],"stateMutability":"nonpayable","type":"function"},{"inputs":[{"internalType":"address","name":"operator","type":"address"},{"internalType":"bool","name":"approved","type":"bool"}],"name":"setApprovalForAll","outputs":[],"stateMutability":"nonpayable","type":"function"},{"inputs":[{"internalType":"address","name":"blockFans","type":"address"}],"name":"setBlockFans","outputs":[],"stateMutability":"nonpayable","type":"function"},{"inputs":[{"internalType":"address","name":"creatorsAddress","type":"address"}],"name":"setCreators","outputs":[],"stateMutability":"nonpayable","type":"function"},{"inputs":[{"internalType":"string","name":"name","type":"string"},{"internalType":"string","name":"description","type":"string"},{"internalType":"string","name":"image","type":"string"},{"internalType":"string","name":"external_url","type":"string"},{"internalType":"uint256","name":"price","type":"uint256"},{"internalType":"uint256","name":"units","type":"uint256"},{"internalType":"enum NFTSource.MediaType","name":"mediaType","type":"uint8"}],"name":"setNFTSource","outputs":[],"stateMutability":"nonpayable","type":"function"},{"inputs":[{"internalType":"bytes4","name":"interfaceId","type":"bytes4"}],"name":"supportsInterface","outputs":[{"internalType":"bool","name":"","type":"bool"}],"stateMutability":"view","type":"function"},{"inputs":[],"name":"symbol","outputs":[{"internalType":"string","name":"","type":"string"}],"stateMutability":"view","type":"function"},{"inputs":[{"internalType":"uint256","name":"index","type":"uint256"}],"name":"tokenByIndex","outputs":[{"internalType":"uint256","name":"","type":"uint256"}],"stateMutability":"view","type":"function"},{"inputs":[{"internalType":"address","name":"owner","type":"address"},{"internalType":"uint256","name":"index","type":"uint256"}],"name":"tokenOfOwnerByIndex","outputs":[{"internalType":"uint256","name":"","type":"uint256"}],"stateMutability":"view","type":"function"},{"inputs":[{"internalType":"uint256","name":"tokenId","type":"uint256"}],"name":"tokenURI","outputs":[{"internalType":"string","name":"","type":"string"}],"stateMutability":"view","type":"function"},{"inputs":[],"name":"totalSupply","outputs":[{"internalType":"uint256","name":"","type":"uint256"}],"stateMutability":"view","type":"function"},{"inputs":[{"internalType":"address","name":"from","type":"address"},{"internalType":"address","name":"to","type":"address"},{"internalType":"uint256","name":"tokenId","type":"uint256"}],"name":"transferFrom","outputs":[],"stateMutability":"nonpayable","type":"function"},{"inputs":[{"internalType":"address","name":"newOwner","type":"address"}],"name":"transferOwnership","outputs":[],"stateMutability":"nonpayable","type":"function"},{"inputs":[{"internalType":"address","name":"tokenAddress","type":"address"},{"internalType":"uint256","name":"amountOrTokenId","type":"uint256"}],"name":"withdraw","outputs":[],"stateMutability":"nonpayable","type":"function"},{"stateMutability":"payable","type":"receive"}],"evm":{"bytecode":{"linkReferences":{},"object":"608060405234620000265762000014620001cf565b604051613c27620005008239613c2790f35b600080fd5b634e487b7160e01b600052604160045260246000fd5b90601f01601f191681019081106001600160401b038211176200006357604052565b6200002b565b90620000806200007860405190565b928362000041565b565b6001600160401b0381116200006357602090601f01601f19160190565b90620000b5620000af8362000082565b62000069565b918252565b620000c6600c6200009f565b6b109b1bd8dad9985b9cd3919560a21b602082015290565b620000e8620000ba565b90565b620000f760036200009f565b6221232760e91b602082015290565b620000e8620000eb565b90600019905b9181191691161790565b620000e8620000e8620000e89290565b9062000144620000e86200014c9262000120565b825462000110565b9055565b62000160620000e8620000e89290565b6001600160a01b031690565b620000e89062000150565b620000e89062000160906001600160a01b031682565b620000e89062000177565b620000e8906200018d565b906001600160a01b039062000116565b90620001c7620000e86200014c9262000198565b8254620001a3565b620001ee620001dd620000de565b620001e762000106565b9062000259565b6200020960016200020181600f62000130565b601062000130565b62000080620002516200021d60006200016c565b620002346200022c8262000198565b600e620001b3565b6200024b620002438262000198565b600c620001b3565b62000198565b600d620001b3565b6200008091620002699162000274565b62000080336200049d565b620000809182918291906200046c565b634e487b7160e01b600052602260045260246000fd5b9060016002830492168015620002bd575b6020831014620002b757565b62000284565b91607f1691620002ab565b9160001960089290920291821b911b62000116565b9190620002f2620000e86200014c9362000120565b908354620002c8565b6200008091600091620002dd565b81811062000315575050565b80620003256000600193620002fb565b0162000309565b9190601f81116200033c57505050565b620003506200008093600052602060002090565b906020601f84018190048301931062000374575b6020601f90910104019062000309565b909150819062000364565b9062000389815190565b906001600160401b0382116200006357620003b182620003aa85546200029a565b856200032c565b602090601f8311600114620003f0576200014c929160009183620003e4575b5050600019600883021c1916906002021790565b015190503880620003d0565b601f198316916200040685600052602060002090565b9260005b81811062000447575091600293918560019694106200042d575b50505002019055565b01516000196008601f8516021c1916905538808062000424565b919360206001819287870151815501950192016200040a565b9062000080916200037f565b906200047e6200008092600062000460565b600162000460565b620000e89062000160565b620000e8905462000486565b620004a9600b62000491565b90620004b781600b620001b3565b620004ee620004e77f8be0079c531659141344cd1fd0a4f28419497f9722a3daafe3b4186f6b6457e09362000198565b9162000198565b91620004f960405190565b600090a356fe60806040526004361015610026575b361561001e5761001c611b34565b005b61001c611b34565b60003560e01c806301ffc9a71461022657806306b177fc1461022157806306fdde031461021c578063081812fc14610217578063095ea7b31461021257806315b684cf1461020d57806318160ddd1461020857806323b872dd14610203578063265aa621146101fe5780632f745c59146101f957806342842e0e146101f45780634f6ccce7146101ef57806351ed8288146101ea5780636352211e146101e557806370a08231146101e0578063715018a6146101db5780638af462cc146101d65780638da5cb5b146101d1578063926061f0146101cc57806395d89b41146101c7578063a22cb465146101c2578063abd48199146101bd578063af2217cd146101b8578063b88d4fde146101b3578063ba908b45146101ae578063c87b56dd146101a9578063c909adc0146101a4578063e985e9c51461019f578063f2fde38b1461019a578063f3fef3a314610195578063fa3157d5146101905763ffa038210361000e57610dd1565b610d52565b610d39565b610d21565b610d05565b610cc7565b610ca0565b610c88565b610c6c565b610bf5565b610a99565b610930565b6108dd565b6108c2565b61087b565b610863565b61084b565b610830565b610801565b6107e9565b6107ce565b6107b5565b610799565b610762565b610492565b610446565b61042e565b610410565b61039c565b610369565b6102c6565b61026d565b6001600160e01b031981165b0361023e57565b600080fd5b905035906102508261022b565b565b9060208282031261023e5761026691610243565b90565b9052565b3461023e5761029b610288610283366004610252565b611b71565b6040515b91829182901515815260200190565b0390f35b80610237565b905035906102508261029f565b9060208282031261023e57610266916102a5565b3461023e5761029b6102e16102dc3660046102b2565b612aad565b6040515b9182918290815260200190565b600091031261023e57565b60005b8381106103105750506000910152565b8181015183820152602001610300565b61034161034a60209361035493610335815190565b80835293849260200190565b958691016102fd565b601f01601f191690565b0190565b602080825261026692910190610320565b3461023e576103793660046102f2565b61029b610384611135565b60405191829182610358565b6001600160a01b031690565b3461023e5761029b6103b76103b23660046102b2565b611272565b604051918291826001600160a01b03909116815260200190565b6001600160a01b038116610237565b90503590610250826103d1565b919060408382031261023e576102669061040781856103e0565b936020016102a5565b3461023e576104296104233660046103ed565b90611211565b604051005b3461023e576104296104413660046102b2565b612b02565b3461023e576104563660046102f2565b61029b6102e160095490565b909160608284031261023e5761026661047b84846103e0565b9361048981602086016103e0565b936040016102a5565b3461023e576104296104a5366004610462565b91611331565b6102666102666102669290565b906104c2906104ab565b600052602052604060002090565b6102669081565b61026690546104d0565b634e487b7160e01b600052602260045260246000fd5b9060016002830492168015610517575b602083101461051257565b6104e1565b91607f1691610507565b8054600093929161053e610534836104f7565b8085529360200190565b9160018116908115610590575060011461055757505050565b61056a9192939450600052602060002090565b916000925b81841061057c5750500190565b80548484015260209093019260010161056f565b92949550505060ff1916825215156020020190565b9061026691610521565b634e487b7160e01b600052604160045260246000fd5b90601f01601f1916810190811067ffffffffffffffff8211176105e757604052565b6105af565b90610250610606926105fd60405190565b938480926105a5565b03836105c5565b610266905b60ff1690565b610266905461060d565b61062d9060136104b8565b90610637826104d7565b9161064c60018201546001600160a01b031690565b91610659600283016105ec565b91610666600382016105ec565b91610673600483016105ec565b91610680600582016105ec565b916102666007610692600685016104d7565b9301610618565b634e487b7160e01b600052602160045260246000fd5b600611156106b957565b610699565b90610250826106af565b610266906106be565b610269906106c8565b9360e095610737610745926107298861075b986102509d9f9e9c976107539961070c61071c9260006101008701960152565b6001600160a01b031660208d0152565b8a820360408c0152610320565b9088820360608a0152610320565b908682036080880152610320565b9084820360a0860152610320565b9660c0830152565b01906106d1565b3461023e5761029b61077d6107783660046102b2565b610622565b9461079098969894919493929360405190565b988998896106da565b3461023e5761029b6102e16107af3660046103ed565b90611a1a565b3461023e576104296107c8366004610462565b91611372565b3461023e5761029b6102e16107e43660046102b2565b611aef565b3461023e576104296107fc3660046102b2565b612f96565b3461023e5761029b6103b76108173660046102b2565b6110fe565b9060208282031261023e57610266916103e0565b3461023e5761029b6102e161084636600461081c565b611075565b3461023e5761085b3660046102f2565b610429610e30565b3461023e576104296108763660046102b2565b612e1a565b3461023e5761088b3660046102f2565b61029b6103b7600b546001600160a01b031690565b610266916008021c81565b9061026691546108a0565b6102666000600f6108ab565b3461023e576108d23660046102f2565b61029b6102e16108b6565b3461023e576108ed3660046102f2565b61029b61038461113f565b801515610237565b90503590610250826108f8565b919060408382031261023e576102669061092781856103e0565b93602001610900565b3461023e5761042961094336600461090d565b9061129f565b9061025061095660405190565b92836105c5565b67ffffffffffffffff81116105e757602090601f01601f19160190565b90826000939282370152565b9092919261099b6109968261095d565b610949565b9381855260208501908284011161023e576102509261097a565b9080601f8301121561023e5781602061026693359101610986565b6006111561023e57565b90503590610250826109d0565b60e08183031261023e57803567ffffffffffffffff811161023e5782610a0e9183016109b5565b92602082013567ffffffffffffffff811161023e5783610a2f9184016109b5565b92604083013567ffffffffffffffff811161023e5781610a509185016109b5565b92606081013567ffffffffffffffff811161023e5782610a719183016109b5565b92610266610a8284608085016102a5565b93610a908160a086016102a5565b9360c0016109da565b3461023e57610429610aac3660046109e7565b95949094939193612651565b805182526020808201516001600160a01b031690830152906102669061012080610b31610b1f610b0d610afb610140870160408a015188820360408a0152610320565b60608901518782036060890152610320565b60808801518682036080880152610320565b60a087015185820360a0870152610320565b94610b4160c082015160c0860152565b610b5060e082015160e0860152565b610b646101008201516101008601906106d1565b01519101906106d1565b9061026691610ab8565b90610b8e610b84835190565b8083529160200190565b9081610ba06020830284019460200190565b926000915b838310610bb457505050505090565b90919293946020610bd7610bd083856001950387528951610b6e565b9760200190565b9301930191939290610ba5565b602080825261026692910190610b78565b3461023e5761029b610c10610c0b36600461081c565b612a24565b60405191829182610be4565b9060808282031261023e57610c3181836103e0565b92610c3f82602085016103e0565b92610c4d83604083016102a5565b92606082013567ffffffffffffffff811161023e5761026692016109b5565b3461023e57610429610c7f366004610c1c565b92919091611382565b3461023e57610429610c9b36600461081c565b61231f565b3461023e5761029b610384610cb63660046102b2565b611c45565b610266600060106108ab565b3461023e57610cd73660046102f2565b61029b6102e1610cbb565b919060408382031261023e5761026690610cfc81856103e0565b936020016103e0565b3461023e5761029b610288610d1b366004610ce2565b906112aa565b3461023e57610429610d3436600461081c565b610f51565b3461023e57610429610d4c3660046103ed565b90613be7565b3461023e57610429610d6536600461081c565b612347565b90610d8a610d83610d79845190565b8084529260200190565b9260200190565b9060005b818110610d9b5750505090565b909192610db8610db16001928651815260200190565b9460200190565b929101610d8e565b602080825261026692910190610d6a565b3461023e5761029b610dec610de736600461081c565b61281d565b60405191829182610dc0565b610e00610e8c565b610250610e1e565b6103906102666102669290565b61026690610e08565b610250610e2b6000610e15565b610fb0565b610250610df8565b15610e3f57565b60405162461bcd60e51b815280610e88600482016020808252818101527f4f776e61626c653a2063616c6c6572206973206e6f7420746865206f776e6572604082015260600190565b0390fd5b610250610ea1600b546001600160a01b031690565b610eba610ead33610390565b916001600160a01b031690565b14610e38565b61025090610ecc610e8c565b610f2c565b15610ed857565b60405162461bcd60e51b815260206004820152602660248201527f4f776e61626c653a206e6577206f776e657220697320746865207a65726f206160448201526564647265737360d01b6064820152608490fd5b61025090610e2b610f406103906000610e15565b6001600160a01b0383161415610ed1565b61025090610ec0565b906001600160a01b03905b9181191691161790565b61026690610390906001600160a01b031682565b61026690610f6f565b61026690610f83565b90610fa5610266610fac92610f8c565b8254610f5a565b9055565b600b546001600160a01b031690610fc881600b610f95565b610ffb610ff57f8be0079c531659141344cd1fd0a4f28419497f9722a3daafe3b4186f6b6457e093610f8c565b91610f8c565b9161100560405190565b80805b0390a3565b1561101457565b60405162461bcd60e51b815260206004820152602960248201527f4552433732313a2061646472657373207a65726f206973206e6f7420612076616044820152683634b21037bbb732b960b91b6064820152608490fd5b906104c290610f8c565b6110ad61026691611084600090565b506110a66110956103906000610e15565b6001600160a01b038316141561100d565b600361106b565b6104d7565b156110b957565b60405162461bcd60e51b815260206004820152601860248201527f4552433732313a20696e76616c696420746f6b656e20494400000000000000006044820152606490fd5b61110b9060005b50611422565b61026661111b6103906000610e15565b6001600160a01b03831614156110b2565b610266906105ec565b610266600061112c565b610266600161112c565b1561115057565b60405162461bcd60e51b815260206004820152602160248201527f4552433732313a20617070726f76616c20746f2063757272656e74206f776e656044820152603960f91b6064820152608490fd5b156111a657565b60405162461bcd60e51b815260206004820152603d60248201527f4552433732313a20617070726f76652063616c6c6572206973206e6f7420746f60448201527f6b656e206f776e6572206f7220617070726f76656420666f7220616c6c0000006064820152608490fd5b906102509161125c611222836110fe565b6112406001600160a01b0382166001600160a01b0385161415611149565b336001600160a01b0382168114918215611261575b505061119f565b6116de565b61126b92506112aa565b3880611255565b61129261026691611281600090565b5061128b8161180a565b60046104b8565b546001600160a01b031690565b610250919033611794565b610266916112c56112ca926112bd600090565b50600561106b565b61106b565b610618565b156112d657565b60405162461bcd60e51b815260206004820152602d60248201527f4552433732313a2063616c6c6572206973206e6f7420746f6b656e206f776e6560448201526c1c881bdc88185c1c1c9bdd9959609a1b6064820152608490fd5b6102509291906113496113448433611439565b6112cf565b6115b4565b9061135b6109968361095d565b918252565b610266600061134e565b610266611360565b90916102509261138061136a565b925b610250939291906113966113448433611439565b611403565b156113a257565b6040515b62461bcd60e51b815260206004820152603260248201527f4552433732313a207472616e7366657220746f206e6f6e20455243373231526560448201527131b2b4bb32b91034b6b83632b6b2b73a32b960711b6064820152608490fd5b91610250939161141d936114188383836115b4565b6118b8565b61139b565b61129261026691611431600090565b5060026104b8565b611442826110fe565b916001600160a01b0383166001600160a01b0383161492831561148f575b50821561146c57505090565b61148b91925061147e610ead91611272565b926001600160a01b031690565b1490565b61149c91935082906112aa565b9138611460565b156114aa57565b60405162461bcd60e51b815260206004820152602560248201527f4552433732313a207472616e736665722066726f6d20696e636f72726563742060448201526437bbb732b960d91b6064820152608490fd5b1561150457565b60405162461bcd60e51b8152602060048201526024808201527f4552433732313a207472616e7366657220746f20746865207a65726f206164646044820152637265737360e01b6064820152608490fd5b916001600160a01b0360089290920291821b911b610f65565b919061157f610266610fac93610f8c565b908354611555565b6102509160009161156e565b9060001990610f65565b906115ad610266610fac926104ab565b8254611593565b91906115da6115c2836110fe565b6115d46001600160a01b038616610ead565b146114a3565b61167e60006115ff6115ee61039083610e15565b6001600160a01b03851614156114fd565b61164761160c60016104ab565b916116198387878a611fe8565b611637611625876110fe565b6115d46001600160a01b038a16610ead565b6116428660046104b8565b611587565b61166e6116748460036112c561165d8a8361106b565b61166e8761166a836104d7565b0390565b9061159d565b91610354836104d7565b6116928161168d8460026104b8565b610f95565b6116ce6116c86116c27fddf252ad1be2c89b69c2b068fc378daa952ba7f163c4a11628f55a4df523b3ef95610f8c565b92610f8c565b926104ab565b926116d860405190565b600090a4565b906116ee8261168d8360046104b8565b6116f7816110fe565b916116ce6116c86116c27f8c5be1e5ebec7d5bd14f71427d1e84f3dd0314c0f7b2291e5b200ac8c7c3b92595610f8c565b1561172f57565b60405162461bcd60e51b815260206004820152601960248201527f4552433732313a20617070726f766520746f2063616c6c6572000000000000006044820152606490fd5b9060ff90610f65565b9061178d610266610fac92151590565b8254611774565b6117b26001600160a01b0383166001600160a01b0383161415611728565b6117ca836117c5846112c585600561106b565b61177d565b6110086118006117fa7f17307eab39ab6107e8899845ad3d59bd9653f200f220920489ca2b5937696c3193610f8c565b93610f8c565b9361028c60405190565b6118166102509161181b565b6110b2565b611826906000611105565b611836610ead6103906000610e15565b141590565b905051906102508261022b565b9060208282031261023e576102669161183b565b6001600160a01b03918216815291166020820152604081019190915260806060820181905261026692910190610320565b6040513d6000823e3d90fd5b3d156118b3576118a83d61134e565b903d6000602084013e565b606090565b919093926118c4600090565b946118ce81611b22565b156119b0579061191560006118ed6118e860209695610f8c565b610f8c565b9261192063150b7a02916118fe3390565b9661190860405190565b998a988997889660e01b90565b86526004860161185c565b03925af160009181611980575b50611963575061193b611899565b805161194e61194a60006104ab565b9190565b0361195b576040516113a6565b805190602001fd5b90915061148b630a85bd0160e11b5b916001600160e01b03191690565b6119a291925060203d81116119a9575b61199a81836105c5565b810190611848565b903861192d565b503d611990565b5060019450505050565b156119c157565b60405162461bcd60e51b815260206004820152602b60248201527f455243373231456e756d657261626c653a206f776e657220696e646578206f7560448201526a74206f6620626f756e647360a81b6064820152608490fd5b61026691611a4b6110ad92611a2d600090565b50611a44611a3d61026683611075565b84106119ba565b600761106b565b6104b8565b15611a5757565b60405162461bcd60e51b815260206004820152602c60248201527f455243373231456e756d657261626c653a20676c6f62616c20696e646578206f60448201526b7574206f6620626f756e647360a01b6064820152608490fd5b634e487b7160e01b600052603260045260246000fd5b8054821015611aea57611ae1600191600052602060002090565b91020190600090565b611ab1565b611b1c61026691611afe600090565b50611b15611b0e61026660095490565b8210611a50565b6009611ac7565b906108ab565b3b611b3061194a60006104ab565b1190565b347f88a5966d370b9919b20f3e2c13ff65706f196a4e32cc2c12bf57088f88525874611b6c611b6233610f8c565b926102e560405190565b0390a2565b6102669063780e9d6360e01b6001600160e01b0319821614908115611b94575090565b6102669150611bbe565b611bb1611bab6102669290565b60e01b90565b6001600160e01b03191690565b611bce611bb16349064906611b9e565b6001600160e01b0319821614908115611be5575090565b61026691506380ac58cd60e01b6001600160e01b0319821614908115611c1a575b8115611c10575090565b6102669150611c35565b6001600160e01b03198116635b5e139f60e01b149150611c06565b61148b6301ffc9a760e01b611972565b61026690611c83565b610354611c6692602092611c60815190565b94859290565b938491016102fd565b611c7d906102669392611c4e565b90611c4e565b611c8c8161180a565b611c9f611c9a8260066104b8565b61112c565b611ca7611d5f565b8051600090611cb861194a836104ab565b14611d0b57611ccb61194a6116c8855190565b11611cdb57505061026690611d12565b6102669250611cff9161026691611cf160405190565b938492602084019283611c6f565b908103825203826105c5565b5050905090565b611d1b8161180a565b611d23611d5f565b8051611d3261194a60006104ab565b1115611d5557610266611cff91611d4b61026694611db8565b90611cf160405190565b505061026661136a565b60605b5061026661136a565b369037565b90610250611d86611d808461134e565b9361095d565b601f190160208401611d6b565b634e487b7160e01b600052601260045260246000fd5b8115611db3570490565b611d93565b611dc181611e44565b90611dd1600192610354846104ab565b9180611ddc84611d70565b936020018401905b611def575b50505090565b611e239060001901926f181899199a1a9b1b9c1cb0b131b232b360811b600a82061a8453611e1d600a6104ab565b90611da9565b9081611e3261194a60006104ab565b14611e3f57909181611de4565b611de9565b611e4e60006104ab565b907a184f03e93ff9f4daa797ed6e38ed64bf6a1f010000000000000000611e74816104ab565b821015611fc6575b506d04ee2d6d415b85acef8100000000611e95816104ab565b821015611fa4575b50662386f26fc10000611eaf816104ab565b821015611f82575b506305f5e100611ec6816104ab565b821015611f60575b50612710611edb816104ab565b821015611f3e575b506064611eef816104ab565b821015611f1c575b50611f0561194a600a6104ab565b1015611f0e5790565b6102669061035460016104ab565b611f3791611e1d611f2c926104ab565b9161035460026104ab565b9038611ef7565b611f5991611e1d611f4e926104ab565b9161035460046104ab565b9038611ee3565b611f7b91611e1d611f70926104ab565b9161035460086104ab565b9038611ece565b611f9d91611e1d611f92926104ab565b9161035460106104ab565b9038611eb7565b611fbf91611e1d611fb4926104ab565b9161035460206104ab565b9038611e9d565b611fe191611e1d611fd6926104ab565b9161035460406104ab565b9038611e7c565b61025093919291611ffc61194a60016104ab565b116120925761203061200e6000610e15565b6001600160a01b0381166001600160a01b0384160361206f576103908461217c565b6001600160a01b0384160361204a5750610250915061229f565b6001600160a01b03166001600160a01b03831603612066575050565b610250916120f5565b6001600160a01b0385166001600160a01b038416146103905761039084846121d4565b60405162461bcd60e51b815260206004820152603560248201527f455243373231456e756d657261626c653a20636f6e7365637574697665207472604482015274185b9cd9995c9cc81b9bdd081cdd5c1c1bdc9d1959605a1b6064820152608490fd5b61211a8261211f6102509461211a611a4b9561211081611075565b968791600761106b565b61159d565b60086104b8565b9160001960089290920291821b911b610f65565b919061214b610266610fac936104ab565b908354612126565b90815491600160401b8310156105e7578261217691600161025095018155611ac7565b9061213a565b6102509061219b6009610266612190825490565b61211a85600a6104b8565b612153565b634e487b7160e01b600052601160045260246000fd5b919082039182116121c357565b6121a0565b6102509160009161213a565b61222261025092611a4b600093611a44856122226122046121f485611075565b6121fe60016104ab565b906121b6565b9560086122146110ad83836104b8565b888103612227575b506104b8565b6121c8565b8061211a886122558c61211a61225b96611a4b61224d6110ad600795611a4b898861106b565b95869461106b565b846104b8565b3861221c565b634e487b7160e01b600052603160045260246000fd5b8054801561229a5760001901906122976122918383611ac7565b906121c8565b55565b612261565b6122ed6102509161026660006122226009936122bc6121f4865490565b611a4b600a9161211a6122df611b1c6122d86110ad88886104b8565b938b611ac7565b61225581612176858d611ac7565b612277565b610250906122fe610e8c565b612318610250916118e861231182610f8c565b600e610f95565b600c610f95565b610250906122f2565b61025090612334610e8c565b61234061025091610f8c565b600d610f95565b61025090612328565b90505190610250826108f8565b9060208282031261023e5761026691612350565b1561237857565b60405162461bcd60e51b815260206004820152600d60248201526c2737ba10309031b932b0ba37b960991b6044820152606490fd5b60001981146121c35760010190565b610266610140610949565b90610269906106be565b634e487b7160e01b600052600060045260246000fd5b8181106123f2575050565b8061240060006001936121c8565b016123e7565b9190601f811161241557505050565b61242761025093600052602060002090565b906020601f84018190048301931061244a575b6020601f909101045b01906123e7565b909150819061243a565b600019600883021c1916906002021790565b9061246f815190565b9067ffffffffffffffff82116105e7576124938261248d85546104f7565b85612406565b602090601f83116001146124c157610fac9291600091836124b6575b5050612454565b0151905038806124af565b601f198316916124d685600052602060002090565b9260005b818110612514575091600293918560019694106124fb575b50505002019055565b01516000196008601f8516021c191690553880806124f2565b919360206001819287870151815501950192016124da565b9061025091612466565b61026690516106be565b9061178d610266610fac926106c8565b9061ff009060081b610f65565b9061256d610266610fac926106c8565b8254612550565b610250919061264190610120906008906125908161166e875190565b6125b1600182016125ab60208801516001600160a01b031690565b90610f95565b6125c9600282016125c3604088015190565b9061252c565b6125db600382016125c3606088015190565b6125ed600482016125c3608088015190565b6125ff600582016125c360a088015190565b6126116006820161166e60c088015190565b6126236007820161166e60e088015190565b019261263b6126356101008301612536565b85612540565b01612536565b9061255d565b9061025091612574565b939591959490929461266e6118e8600d546001600160a01b031690565b9561268d602063efd46065339961268460405190565b93849260e01b90565b82526001600160a01b038b16600483015260249082905afa8015612793576126bd91600091612765575b50612371565b6126c7600f6104d7565b976126d1896123ad565b6126dc90600f61159d565b6000956126e76123bc565b976126f28b898b0152565b6001600160a01b038a1660208a015260408901526060880152608087015260a086015260c085015260e084015261272d9061010084016123c7565b61273b9061012083016123c7565b6127468360116104b8565b9061275091612647565b61275b90601261106b565b9061025091612153565b612786915060203d811161278c575b61277e81836105c5565b81019061235d565b386126b7565b503d612774565b61188d565b906127b36127a7610d79845490565b92600052602060002090565b9060005b8181106127c45750505090565b9091926127e86127e16001926127d9876104d7565b815260200190565b9460010190565b9291016127b7565b9061026691612798565b906102506106069261280b60405190565b938480926127f0565b610266906127fa565b6128346102669161282c606090565b50601261106b565b612814565b67ffffffffffffffff81116105e75760208091020190565b9061135b61099683612839565b6128666123bc565b906000825260208080808080808080808b01600081520160608152016060815201606081520160608152016000815201600081520160008152016000905250565b61026661285e565b60005b8281106128be57505050565b6020906128c96128a7565b81840152016128b2565b906102506128e96128e384612851565b93612839565b601f1901602084016128af565b906128ff825190565b811015611aea576020809102010190565b6102669060081c610612565b6102669054612910565b90610250612a1160086129376123bc565b94612948612944826104d7565b8752565b61296f61295f60018301546001600160a01b031690565b6001600160a01b03166020880152565b61298561297e600283016105ec565b6040880152565b61299b612994600383016105ec565b6060880152565b6129b16129aa600483016105ec565b6080880152565b6129c76129c0600583016105ec565b60a0880152565b6129dd6129d6600683016104d7565b60c0880152565b6129f36129ec600783016104d7565b60e0880152565b612a0b612a01838301610618565b61010088016123c7565b0161291c565b61012084016123c7565b61026690612926565b612834612a339161282c606090565b612a43612a3e825190565b6128d3565b90612a4e60006104ab565b612a59610266835190565b811015612aa857612aa390612a88612a836011612a7d612a7985886128f6565b5190565b906104b8565b612a1b565b612a9282866128f6565b52612a9d81856128f6565b506123ad565b612a4e565b505090565b6110ad61026691612abc600090565b5060146104b8565b15612acb57565b60405162461bcd60e51b815260206004820152600f60248201526e2737ba103a34329031b932b0ba37b960891b6044820152606490fd5b610250906011612b52612b286001612b1a85856104b8565b01546001600160a01b031690565b339290612b3e90612b3885610ead565b14612ac4565b6008612b4c856003936104b8565b0161255d565b6012612b65612b61838361106b565b5490565b612b6f60006104ab565b81811015612be557612b8d611b1c82612b88878761106b565b611ac7565b8514612ba157612b9c906123ad565b612b6f565b6102509450916112c561026693612176612bda611b1c8896612bd4612bc96122ed9b8961106b565b916121fe60016104ab565b90611ac7565b91612b88868661106b565b5050505050565b90612bff90600019906020036008021c90565b8154169055565b90600091612c24612c1c82600052602060002090565b928354612454565b905555565b9192906020821015612c8157601f8411600114612c4b57610fac929350612454565b5090612c7c610250936001612c73612c6885600052602060002090565b92601f602091010490565b820191016123e7565b612c06565b50612cba8293612c98600194600052602060002090565b6124436020601f860104820192601f861680612cc2575b50601f602091010490565b600202179055565b612cce90888603612bec565b38612caf565b929091600160401b82116105e75760201115612d1b576020811015612cfc57610fac91612454565b60019160ff1916612d1284600052602060002090565b55600202019055565b60019150600202019055565b908154612d33816104f7565b90818311612d5c575b818310612d4a575b50505050565b612d5393612c29565b38808080612d44565b612d6883838387612cd4565b612d3c565b818102929181159184041417156121c357565b600061025091612d27565b90600003612d9c5761025090612d80565b6123d1565b600090600890612db183826121c8565b826001820155612dc48360028301612d8b565b612dd18360038301612d8b565b612dde8360048301612d8b565b612deb8360058301612d8b565b612df883600683016121c8565b612e0583600783016121c8565b0155565b90600003612d9c5761025090612da1565b610250906011612b526000612e4884612e386001612b1a83886104b8565b339590611a4b90612b3888610ead565b612e09565b15612e5457565b60405162461bcd60e51b815260206004820152600860248201526714dbdb190813dd5d60c21b6044820152606490fd5b15612e8b57565b60405162461bcd60e51b815260206004820152600d60248201526c4e6f7420417661696c61626c6560981b6044820152606490fd5b905051906102508261029f565b9060208282031261023e5761026691612ec0565b15612ee857565b60405162461bcd60e51b8152602060048201526011602482015270105b1b1bddd85b98d9481b9bdd081cd95d607a1b6044820152606490fd5b61026990610f8c565b6001600160a01b039091168152606081019392610250929091604091612f54906020830190612f21565b0152565b15612f5f57565b60405162461bcd60e51b815260206004820152600f60248201526e151c985b9cd9995c8819985a5b1959608a1b6044820152606490fd5b612fa46102668260116104b8565b601491612fb46110ad82856104b8565b612fd16007840191612fcb61194a610266856104d7565b10612e4d565b61305f6008840192612ffe612fe58561291c565b612ff8612ff260016106be565b916106be565b14612e84565b6130136118e8600c546001600160a01b031690565b94602063dd62ed3e339761304061302930610f8c565b9261303360405190565b9788948593849360e01b90565b83526001600160a01b03808e1660048501521660248301526044820190565b03915afa928315612793576000936131dd575b506006602091016130af613085826104d7565b946130a861194a610266670de0b6b3a7640000986130a28a6104ab565b90612d6d565b1015612ee1565b6130c46118e8600c546001600160a01b031690565b61311060006130f66323b872dd976130a26130f06130ea600e546001600160a01b031690565b976104d7565b916104ab565b9661311c61310360405190565b9889968795869460e01b90565b84528d60048501612f2a565b03925af1908115612793576131726110ad6102669261314a61194a95613178976000916131bf575b50612f58565b613153816132c5565b99611a4b61316183836104b8565b61166e61316d826104d7565b6123ad565b936104d7565b10156131ad575b50611b6c611b627fdbd06c5b09e89a22b08c07aa17dfc71d3f3741d98ad99285be427c36017340e692610f8c565b6131b99060029061255d565b3861317f565b6131d7915060203d811161278c5761277e81836105c5565b38613144565b6020919350613203600691833d811161320b575b6131fb81836105c5565b810190612ecd565b939150613072565b503d6131f1565b610266610100610949565b61025091906132b59060e0906007906132388161166e875190565b613253600182016125ab60208801516001600160a01b031690565b613265600282016125c3604088015190565b613277600382016125c3606088015190565b613289600482016125c3608088015190565b61329b600582016125c360a088015190565b6132ad6006820161166e60c088015190565b019201612536565b90612540565b906102509161321d565b6132d09060116104b8565b6132d990612a1b565b6132e360106104d7565b906132ed826123ad565b6132f890601061159d565b60208101516001600160a01b0316906040810151906060810151608082015160a08301519160c08401613329905190565b936101000161333790612536565b94613340613212565b96613349898952565b6001600160a01b0316602088015260408701526060860152608085015260a084015260c083015261337d9060e083016123c7565b806133898360136104b8565b90613393916132bb565b61339d823361347f565b60208101516001600160a01b031690604081015190606081015160808201519060a08301519260e0016133cf90612536565b936133d995613715565b610266908261355a565b156133ea57565b60405162461bcd60e51b815280610e88600482016020808252818101527f4552433732313a206d696e7420746f20746865207a65726f2061646472657373604082015260600190565b1561343a57565b60405162461bcd60e51b815260206004820152601c60248201527f4552433732313a20746f6b656e20616c7265616479206d696e746564000000006044820152606490fd5b9061348a6000610e15565b916134a96001600160a01b0384166001600160a01b03831614156133e3565b6134c16134bc6134b88461181b565b1590565b613433565b61167e6134ce60016104ab565b6134da81858588611fe8565b6134e96134bc6134b88661181b565b61166e61167484600361106b565b156134fe57565b60405162461bcd60e51b815260206004820152602e60248201527f45524337323155524953746f726167653a2055524920736574206f66206e6f6e60448201526d32bc34b9ba32b73a103a37b5b2b760911b6064820152608490fd5b906135809061357061356b8461181b565b6134f7565b61357b8360066104b8565b61252c565b6135ae7ff8e1a15aba9398e019f0b49df1a4fde98ee17ae345cb5f6b5e2c27f5033e8ce7916102e560405190565b0390a1565b610269906001600160a01b031660601b90565b6135d2610269916106c8565b60f81b90565b61365f6136d896611c7d61369c61365f600199611c7d61368761365f6102669f9c611c7d61366c61365f61363d9f6136d19f6136b89f6014611c7d9261363d61363661364b946b3d9131b932b0ba37b9111d1160a11b8152600c0190565b80926135b3565b01601160f91b815260010190565b67113730b6b2911d1160c11b815260080190565b601160f91b815260010190565b6e113232b9b1b934b83a34b7b7111d1160891b8152600f0190565b681134b6b0b3b2911d1160b91b815260090190565b6f1132bc3a32b93730b62fbab936111d1160811b815260100190565b6c1136b2b234b0aa3cb832911d1160991b8152600d0190565b80926135c6565b607d60f81b815260010190565b7f646174613a6170706c69636174696f6e2f6a736f6e3b6261736536342c00000081526102669190601d01611c7d565b611cff610266966137449661373f959661372d606090565b506040519788966020880196876135d8565b6137d6565b61026661375060405190565b8092611cff6020830191826136e5565b61376a604061134e565b7f4142434445464748494a4b4c4d4e4f505152535455565758595a61626364656660208201527f6768696a6b6c6d6e6f707172737475767778797a303132333435363738392b2f604082015290565b610266613760565b6102666137b9565b919082018092116121c357565b80516137e561194a60006104ab565b14611d62576137f26137c1565b9060046137fd825190565b90600161383861383361381b600295613815876104ab565b906137c9565b9361382e6130f0600396611e1d886104ab565b612d6d565b611d70565b9401926020850193819082518301915b82811061388357505050510690816001146138735750600214613869575090565b6001603d91035390565b905081603d600181940353035390565b84600191979293970191603f828080865194848660121c168901518153018385600c1c16880151815301828460061c168701518153019116840151815301959190613848565b90610250916138d6610e8c565b613974565b6001600160a01b0390911681526040810192916102509160200152565b6001600160a01b039182168152911660208201526060810192916102509160400152565b1561392357565b60405162461bcd60e51b8152602060048201526024808201527f496e73756666696369656e74204554482062616c616e636520696e20636f6e746044820152631c9858dd60e21b6064820152608490fd5b90600061398361039082610e15565b6001600160a01b03841603613a1c576139a861399e30610f8c565b839031101561391c565b808080846139c46118e86118e8600b546001600160a01b031690565b828215613a13575bf115612793577ffff3b3844276f57024e0b42afec1a37f75db36511e43819a4f2a63ab7862b648906139fd33610f8c565b92611b6c613a0a60405190565b928392836138db565b506108fc6139cc565b816020613a2b6118e886610f8c565b63a9059cbb90613a6185613a47600b546001600160a01b031690565b93613a6c613a5460405190565b9788968795869460e01b90565b8452600484016138db565b03925af19081613bcb575b50158114613b9f57613a8b6118e884610f8c565b6342842e0e613a9930610f8c565b600b546001600160a01b031692803b1561023e57613acd858094613ad889613ac060405190565b9889978896879560e01b90565b8552600485016138f8565b03925af19081613b73575b501514613b485760405162461bcd60e51b815260206004820152603060248201527f546f6b656e2074797065206e6f7420737570706f72746564206f7220696e737560448201526f6666696369656e742062616c616e636560801b6064820152608490fd5b7ffff3b3844276f57024e0b42afec1a37f75db36511e43819a4f2a63ab7862b648906139fd33610f8c565b613b9290833d8511613b98575b613b8a81836105c5565b8101906102f2565b38613ae3565b503d613b80565b507ffff3b3844276f57024e0b42afec1a37f75db36511e43819a4f2a63ab7862b648906139fd33610f8c565b613be29060203d811161278c5761277e81836105c5565b613a77565b90610250916138c956fea264697066735822122045a7ce616aa6d2d7a9717ddc1e43482668d2fd94c11a069b69bae659d4f83dff64736f6c63430008130033","opcodes":"PUSH1 0x80 PUSH1 0x40 MSTORE CALLVALUE PUSH3 0x26 JUMPI PUSH3 0x14 PUSH3 0x1CF JUMP JUMPDEST PUSH1 0x40 MLOAD PUSH2 0x3C27 PUSH3 0x500 DUP3 CODECOPY PUSH2 0x3C27 SWAP1 RETURN JUMPDEST PUSH1 0x0 DUP1 REVERT JUMPDEST PUSH4 0x4E487B71 PUSH1 0xE0 SHL PUSH1 0x0 MSTORE PUSH1 0x41 PUSH1 0x4 MSTORE PUSH1 0x24 PUSH1 0x0 REVERT JUMPDEST SWAP1 PUSH1 0x1F ADD PUSH1 0x1F NOT AND DUP2 ADD SWAP1 DUP2 LT PUSH1 0x1 PUSH1 0x1 PUSH1 0x40 SHL SUB DUP3 GT OR PUSH3 0x63 JUMPI PUSH1 0x40 MSTORE JUMP JUMPDEST PUSH3 0x2B JUMP JUMPDEST SWAP1 PUSH3 0x80 PUSH3 0x78 PUSH1 0x40 MLOAD SWAP1 JUMP JUMPDEST SWAP3 DUP4 PUSH3 0x41 JUMP JUMPDEST JUMP JUMPDEST PUSH1 0x1 PUSH1 0x1 PUSH1 0x40 SHL SUB DUP2 GT PUSH3 0x63 JUMPI PUSH1 0x20 SWAP1 PUSH1 0x1F ADD PUSH1 0x1F NOT AND ADD SWAP1 JUMP JUMPDEST SWAP1 PUSH3 0xB5 PUSH3 0xAF DUP4 PUSH3 0x82 JUMP JUMPDEST PUSH3 0x69 JUMP JUMPDEST SWAP2 DUP3 MSTORE JUMP JUMPDEST PUSH3 0xC6 PUSH1 0xC PUSH3 0x9F JUMP JUMPDEST PUSH12 0x109B1BD8DAD9985B9CD39195 PUSH1 0xA2 SHL PUSH1 0x20 DUP3 ADD MSTORE SWAP1 JUMP JUMPDEST PUSH3 0xE8 PUSH3 0xBA JUMP JUMPDEST SWAP1 JUMP JUMPDEST PUSH3 0xF7 PUSH1 0x3 PUSH3 0x9F JUMP JUMPDEST PUSH3 0x212327 PUSH1 0xE9 SHL PUSH1 0x20 DUP3 ADD MSTORE SWAP1 JUMP JUMPDEST PUSH3 0xE8 PUSH3 0xEB JUMP JUMPDEST SWAP1 PUSH1 0x0 NOT SWAP1 JUMPDEST SWAP2 DUP2 NOT AND SWAP2 AND OR SWAP1 JUMP JUMPDEST PUSH3 0xE8 PUSH3 0xE8 PUSH3 0xE8 SWAP3 SWAP1 JUMP JUMPDEST SWAP1 PUSH3 0x144 PUSH3 0xE8 PUSH3 0x14C SWAP3 PUSH3 0x120 JUMP JUMPDEST DUP3 SLOAD PUSH3 0x110 JUMP JUMPDEST SWAP1 SSTORE JUMP JUMPDEST PUSH3 0x160 PUSH3 0xE8 PUSH3 0xE8 SWAP3 SWAP1 JUMP JUMPDEST PUSH1 0x1 PUSH1 0x1 PUSH1 0xA0 SHL SUB AND SWAP1 JUMP JUMPDEST PUSH3 0xE8 SWAP1 PUSH3 0x150 JUMP JUMPDEST PUSH3 0xE8 SWAP1 PUSH3 0x160 SWAP1 PUSH1 0x1 PUSH1 0x1 PUSH1 0xA0 SHL SUB AND DUP3 JUMP JUMPDEST PUSH3 0xE8 SWAP1 PUSH3 0x177 JUMP JUMPDEST PUSH3 0xE8 SWAP1 PUSH3 0x18D JUMP JUMPDEST SWAP1 PUSH1 0x1 PUSH1 0x1 PUSH1 0xA0 SHL SUB SWAP1 PUSH3 0x116 JUMP JUMPDEST SWAP1 PUSH3 0x1C7 PUSH3 0xE8 PUSH3 0x14C SWAP3 PUSH3 0x198 JUMP JUMPDEST DUP3 SLOAD PUSH3 0x1A3 JUMP JUMPDEST PUSH3 0x1EE PUSH3 0x1DD PUSH3 0xDE JUMP JUMPDEST PUSH3 0x1E7 PUSH3 0x106 JUMP JUMPDEST SWAP1 PUSH3 0x259 JUMP JUMPDEST PUSH3 0x209 PUSH1 0x1 PUSH3 0x201 DUP2 PUSH1 0xF PUSH3 0x130 JUMP JUMPDEST PUSH1 0x10 PUSH3 0x130 JUMP JUMPDEST PUSH3 0x80 PUSH3 0x251 PUSH3 0x21D PUSH1 0x0 PUSH3 0x16C JUMP JUMPDEST PUSH3 0x234 PUSH3 0x22C DUP3 PUSH3 0x198 JUMP JUMPDEST PUSH1 0xE PUSH3 0x1B3 JUMP JUMPDEST PUSH3 0x24B PUSH3 0x243 DUP3 PUSH3 0x198 JUMP JUMPDEST PUSH1 0xC PUSH3 0x1B3 JUMP JUMPDEST PUSH3 0x198 JUMP JUMPDEST PUSH1 0xD PUSH3 0x1B3 JUMP JUMPDEST PUSH3 0x80 SWAP2 PUSH3 0x269 SWAP2 PUSH3 0x274 JUMP JUMPDEST PUSH3 0x80 CALLER PUSH3 0x49D JUMP JUMPDEST PUSH3 0x80 SWAP2 DUP3 SWAP2 DUP3 SWAP2 SWAP1 PUSH3 0x46C JUMP JUMPDEST PUSH4 0x4E487B71 PUSH1 0xE0 SHL PUSH1 0x0 MSTORE PUSH1 0x22 PUSH1 0x4 MSTORE PUSH1 0x24 PUSH1 0x0 REVERT JUMPDEST SWAP1 PUSH1 0x1 PUSH1 0x2 DUP4 DIV SWAP3 AND DUP1 ISZERO PUSH3 0x2BD JUMPI JUMPDEST PUSH1 0x20 DUP4 LT EQ PUSH3 0x2B7 JUMPI JUMP JUMPDEST PUSH3 0x284 JUMP JUMPDEST SWAP2 PUSH1 0x7F AND SWAP2 PUSH3 0x2AB JUMP JUMPDEST SWAP2 PUSH1 0x0 NOT PUSH1 0x8 SWAP3 SWAP1 SWAP3 MUL SWAP2 DUP3 SHL SWAP2 SHL PUSH3 0x116 JUMP JUMPDEST SWAP2 SWAP1 PUSH3 0x2F2 PUSH3 0xE8 PUSH3 0x14C SWAP4 PUSH3 0x120 JUMP JUMPDEST SWAP1 DUP4 SLOAD PUSH3 0x2C8 JUMP JUMPDEST PUSH3 0x80 SWAP2 PUSH1 0x0 SWAP2 PUSH3 0x2DD JUMP JUMPDEST DUP2 DUP2 LT PUSH3 0x315 JUMPI POP POP JUMP JUMPDEST DUP1 PUSH3 0x325 PUSH1 0x0 PUSH1 0x1 SWAP4 PUSH3 0x2FB JUMP JUMPDEST ADD PUSH3 0x309 JUMP JUMPDEST SWAP2 SWAP1 PUSH1 0x1F DUP2 GT PUSH3 0x33C JUMPI POP POP POP JUMP JUMPDEST PUSH3 0x350 PUSH3 0x80 SWAP4 PUSH1 0x0 MSTORE PUSH1 0x20 PUSH1 0x0 KECCAK256 SWAP1 JUMP JUMPDEST SWAP1 PUSH1 0x20 PUSH1 0x1F DUP5 ADD DUP2 SWAP1 DIV DUP4 ADD SWAP4 LT PUSH3 0x374 JUMPI JUMPDEST PUSH1 0x20 PUSH1 0x1F SWAP1 SWAP2 ADD DIV ADD SWAP1 PUSH3 0x309 JUMP JUMPDEST SWAP1 SWAP2 POP DUP2 SWAP1 PUSH3 0x364 JUMP JUMPDEST SWAP1 PUSH3 0x389 DUP2 MLOAD SWAP1 JUMP JUMPDEST SWAP1 PUSH1 0x1 PUSH1 0x1 PUSH1 0x40 SHL SUB DUP3 GT PUSH3 0x63 JUMPI PUSH3 0x3B1 DUP3 PUSH3 0x3AA DUP6 SLOAD PUSH3 0x29A JUMP JUMPDEST DUP6 PUSH3 0x32C JUMP JUMPDEST PUSH1 0x20 SWAP1 PUSH1 0x1F DUP4 GT PUSH1 0x1 EQ PUSH3 0x3F0 JUMPI PUSH3 0x14C SWAP3 SWAP2 PUSH1 0x0 SWAP2 DUP4 PUSH3 0x3E4 JUMPI JUMPDEST POP POP PUSH1 0x0 NOT PUSH1 0x8 DUP4 MUL SHR NOT AND SWAP1 PUSH1 0x2 MUL OR SWAP1 JUMP JUMPDEST ADD MLOAD SWAP1 POP CODESIZE DUP1 PUSH3 0x3D0 JUMP JUMPDEST PUSH1 0x1F NOT DUP4 AND SWAP2 PUSH3 0x406 DUP6 PUSH1 0x0 MSTORE PUSH1 0x20 PUSH1 0x0 KECCAK256 SWAP1 JUMP JUMPDEST SWAP3 PUSH1 0x0 JUMPDEST DUP2 DUP2 LT PUSH3 0x447 JUMPI POP SWAP2 PUSH1 0x2 SWAP4 SWAP2 DUP6 PUSH1 0x1 SWAP7 SWAP5 LT PUSH3 0x42D JUMPI JUMPDEST POP POP POP MUL ADD SWAP1 SSTORE JUMP JUMPDEST ADD MLOAD PUSH1 0x0 NOT PUSH1 0x8 PUSH1 0x1F DUP6 AND MUL SHR NOT AND SWAP1 SSTORE CODESIZE DUP1 DUP1 PUSH3 0x424 JUMP JUMPDEST SWAP2 SWAP4 PUSH1 0x20 PUSH1 0x1 DUP2 SWAP3 DUP8 DUP8 ADD MLOAD DUP2 SSTORE ADD SWAP6 ADD SWAP3 ADD PUSH3 0x40A JUMP JUMPDEST SWAP1 PUSH3 0x80 SWAP2 PUSH3 0x37F JUMP JUMPDEST SWAP1 PUSH3 0x47E PUSH3 0x80 SWAP3 PUSH1 0x0 PUSH3 0x460 JUMP JUMPDEST PUSH1 0x1 PUSH3 0x460 JUMP JUMPDEST PUSH3 0xE8 SWAP1 PUSH3 0x160 JUMP JUMPDEST PUSH3 0xE8 SWAP1 SLOAD PUSH3 0x486 JUMP JUMPDEST PUSH3 0x4A9 PUSH1 0xB PUSH3 0x491 JUMP JUMPDEST SWAP1 PUSH3 0x4B7 DUP2 PUSH1 0xB PUSH3 0x1B3 JUMP JUMPDEST PUSH3 0x4EE PUSH3 0x4E7 PUSH32 0x8BE0079C531659141344CD1FD0A4F28419497F9722A3DAAFE3B4186F6B6457E0 SWAP4 PUSH3 0x198 JUMP JUMPDEST SWAP2 PUSH3 0x198 JUMP JUMPDEST SWAP2 PUSH3 0x4F9 PUSH1 0x40 MLOAD SWAP1 JUMP JUMPDEST PUSH1 0x0 SWAP1 LOG3 JUMP INVALID PUSH1 0x80 PUSH1 0x40 MSTORE PUSH1 0x4 CALLDATASIZE LT ISZERO PUSH2 0x26 JUMPI JUMPDEST CALLDATASIZE ISZERO PUSH2 0x1E JUMPI PUSH2 0x1C PUSH2 0x1B34 JUMP JUMPDEST STOP JUMPDEST PUSH2 0x1C PUSH2 0x1B34 JUMP JUMPDEST PUSH1 0x0 CALLDATALOAD PUSH1 0xE0 SHR DUP1 PUSH4 0x1FFC9A7 EQ PUSH2 0x226 JUMPI DUP1 PUSH4 0x6B177FC EQ PUSH2 0x221 JUMPI DUP1 PUSH4 0x6FDDE03 EQ PUSH2 0x21C JUMPI DUP1 PUSH4 0x81812FC EQ PUSH2 0x217 JUMPI DUP1 PUSH4 0x95EA7B3 EQ PUSH2 0x212 JUMPI DUP1 PUSH4 0x15B684CF EQ PUSH2 0x20D JUMPI DUP1 PUSH4 0x18160DDD EQ PUSH2 0x208 JUMPI DUP1 PUSH4 0x23B872DD EQ PUSH2 0x203 JUMPI DUP1 PUSH4 0x265AA621 EQ PUSH2 0x1FE JUMPI DUP1 PUSH4 0x2F745C59 EQ PUSH2 0x1F9 JUMPI DUP1 PUSH4 0x42842E0E EQ PUSH2 0x1F4 JUMPI DUP1 PUSH4 0x4F6CCCE7 EQ PUSH2 0x1EF JUMPI DUP1 PUSH4 0x51ED8288 EQ PUSH2 0x1EA JUMPI DUP1 PUSH4 0x6352211E EQ PUSH2 0x1E5 JUMPI DUP1 PUSH4 0x70A08231 EQ PUSH2 0x1E0 JUMPI DUP1 PUSH4 0x715018A6 EQ PUSH2 0x1DB JUMPI DUP1 PUSH4 0x8AF462CC EQ PUSH2 0x1D6 JUMPI DUP1 PUSH4 0x8DA5CB5B EQ PUSH2 0x1D1 JUMPI DUP1 PUSH4 0x926061F0 EQ PUSH2 0x1CC JUMPI DUP1 PUSH4 0x95D89B41 EQ PUSH2 0x1C7 JUMPI DUP1 PUSH4 0xA22CB465 EQ PUSH2 0x1C2 JUMPI DUP1 PUSH4 0xABD48199 EQ PUSH2 0x1BD JUMPI DUP1 PUSH4 0xAF2217CD EQ PUSH2 0x1B8 JUMPI DUP1 PUSH4 0xB88D4FDE EQ PUSH2 0x1B3 JUMPI DUP1 PUSH4 0xBA908B45 EQ PUSH2 0x1AE JUMPI DUP1 PUSH4 0xC87B56DD EQ PUSH2 0x1A9 JUMPI DUP1 PUSH4 0xC909ADC0 EQ PUSH2 0x1A4 JUMPI DUP1 PUSH4 0xE985E9C5 EQ PUSH2 0x19F JUMPI DUP1 PUSH4 0xF2FDE38B EQ PUSH2 0x19A JUMPI DUP1 PUSH4 0xF3FEF3A3 EQ PUSH2 0x195 JUMPI DUP1 PUSH4 0xFA3157D5 EQ PUSH2 0x190 JUMPI PUSH4 0xFFA03821 SUB PUSH2 0xE JUMPI PUSH2 0xDD1 JUMP JUMPDEST PUSH2 0xD52 JUMP JUMPDEST PUSH2 0xD39 JUMP JUMPDEST PUSH2 0xD21 JUMP JUMPDEST PUSH2 0xD05 JUMP JUMPDEST PUSH2 0xCC7 JUMP JUMPDEST PUSH2 0xCA0 JUMP JUMPDEST PUSH2 0xC88 JUMP JUMPDEST PUSH2 0xC6C JUMP JUMPDEST PUSH2 0xBF5 JUMP JUMPDEST PUSH2 0xA99 JUMP JUMPDEST PUSH2 0x930 JUMP JUMPDEST PUSH2 0x8DD JUMP JUMPDEST PUSH2 0x8C2 JUMP JUMPDEST PUSH2 0x87B JUMP JUMPDEST PUSH2 0x863 JUMP JUMPDEST PUSH2 0x84B JUMP JUMPDEST PUSH2 0x830 JUMP JUMPDEST PUSH2 0x801 JUMP JUMPDEST PUSH2 0x7E9 JUMP JUMPDEST PUSH2 0x7CE JUMP JUMPDEST PUSH2 0x7B5 JUMP JUMPDEST PUSH2 0x799 JUMP JUMPDEST PUSH2 0x762 JUMP JUMPDEST PUSH2 0x492 JUMP JUMPDEST PUSH2 0x446 JUMP JUMPDEST PUSH2 0x42E JUMP JUMPDEST PUSH2 0x410 JUMP JUMPDEST PUSH2 0x39C JUMP JUMPDEST PUSH2 0x369 JUMP JUMPDEST PUSH2 0x2C6 JUMP JUMPDEST PUSH2 0x26D JUMP JUMPDEST PUSH1 0x1 PUSH1 0x1 PUSH1 0xE0 SHL SUB NOT DUP2 AND JUMPDEST SUB PUSH2 0x23E JUMPI JUMP JUMPDEST PUSH1 0x0 DUP1 REVERT JUMPDEST SWAP1 POP CALLDATALOAD SWAP1 PUSH2 0x250 DUP3 PUSH2 0x22B JUMP JUMPDEST JUMP JUMPDEST SWAP1 PUSH1 0x20 DUP3 DUP3 SUB SLT PUSH2 0x23E JUMPI PUSH2 0x266 SWAP2 PUSH2 0x243 JUMP JUMPDEST SWAP1 JUMP JUMPDEST SWAP1 MSTORE JUMP JUMPDEST CALLVALUE PUSH2 0x23E JUMPI PUSH2 0x29B PUSH2 0x288 PUSH2 0x283 CALLDATASIZE PUSH1 0x4 PUSH2 0x252 JUMP JUMPDEST PUSH2 0x1B71 JUMP JUMPDEST PUSH1 0x40 MLOAD JUMPDEST SWAP2 DUP3 SWAP2 DUP3 SWAP1 ISZERO ISZERO DUP2 MSTORE PUSH1 0x20 ADD SWAP1 JUMP JUMPDEST SUB SWAP1 RETURN JUMPDEST DUP1 PUSH2 0x237 JUMP JUMPDEST SWAP1 POP CALLDATALOAD SWAP1 PUSH2 0x250 DUP3 PUSH2 0x29F JUMP JUMPDEST SWAP1 PUSH1 0x20 DUP3 DUP3 SUB SLT PUSH2 0x23E JUMPI PUSH2 0x266 SWAP2 PUSH2 0x2A5 JUMP JUMPDEST CALLVALUE PUSH2 0x23E JUMPI PUSH2 0x29B PUSH2 0x2E1 PUSH2 0x2DC CALLDATASIZE PUSH1 0x4 PUSH2 0x2B2 JUMP JUMPDEST PUSH2 0x2AAD JUMP JUMPDEST PUSH1 0x40 MLOAD JUMPDEST SWAP2 DUP3 SWAP2 DUP3 SWAP1 DUP2 MSTORE PUSH1 0x20 ADD SWAP1 JUMP JUMPDEST PUSH1 0x0 SWAP2 SUB SLT PUSH2 0x23E JUMPI JUMP JUMPDEST PUSH1 0x0 JUMPDEST DUP4 DUP2 LT PUSH2 0x310 JUMPI POP POP PUSH1 0x0 SWAP2 ADD MSTORE JUMP JUMPDEST DUP2 DUP2 ADD MLOAD DUP4 DUP3 ADD MSTORE PUSH1 0x20 ADD PUSH2 0x300 JUMP JUMPDEST PUSH2 0x341 PUSH2 0x34A PUSH1 0x20 SWAP4 PUSH2 0x354 SWAP4 PUSH2 0x335 DUP2 MLOAD SWAP1 JUMP JUMPDEST DUP1 DUP4 MSTORE SWAP4 DUP5 SWAP3 PUSH1 0x20 ADD SWAP1 JUMP JUMPDEST SWAP6 DUP7 SWAP2 ADD PUSH2 0x2FD JUMP JUMPDEST PUSH1 0x1F ADD PUSH1 0x1F NOT AND SWAP1 JUMP JUMPDEST ADD SWAP1 JUMP JUMPDEST PUSH1 0x20 DUP1 DUP3 MSTORE PUSH2 0x266 SWAP3 SWAP2 ADD SWAP1 PUSH2 0x320 JUMP JUMPDEST CALLVALUE PUSH2 0x23E JUMPI PUSH2 0x379 CALLDATASIZE PUSH1 0x4 PUSH2 0x2F2 JUMP JUMPDEST PUSH2 0x29B PUSH2 0x384 PUSH2 0x1135 JUMP JUMPDEST PUSH1 0x40 MLOAD SWAP2 DUP3 SWAP2 DUP3 PUSH2 0x358 JUMP JUMPDEST PUSH1 0x1 PUSH1 0x1 PUSH1 0xA0 SHL SUB AND SWAP1 JUMP JUMPDEST CALLVALUE PUSH2 0x23E JUMPI PUSH2 0x29B PUSH2 0x3B7 PUSH2 0x3B2 CALLDATASIZE PUSH1 0x4 PUSH2 0x2B2 JUMP JUMPDEST PUSH2 0x1272 JUMP JUMPDEST PUSH1 0x40 MLOAD SWAP2 DUP3 SWAP2 DUP3 PUSH1 0x1 PUSH1 0x1 PUSH1 0xA0 SHL SUB SWAP1 SWAP2 AND DUP2 MSTORE PUSH1 0x20 ADD SWAP1 JUMP JUMPDEST PUSH1 0x1 PUSH1 0x1 PUSH1 0xA0 SHL SUB DUP2 AND PUSH2 0x237 JUMP JUMPDEST SWAP1 POP CALLDATALOAD SWAP1 PUSH2 0x250 DUP3 PUSH2 0x3D1 JUMP JUMPDEST SWAP2 SWAP1 PUSH1 0x40 DUP4 DUP3 SUB SLT PUSH2 0x23E JUMPI PUSH2 0x266 SWAP1 PUSH2 0x407 DUP2 DUP6 PUSH2 0x3E0 JUMP JUMPDEST SWAP4 PUSH1 0x20 ADD PUSH2 0x2A5 JUMP JUMPDEST CALLVALUE PUSH2 0x23E JUMPI PUSH2 0x429 PUSH2 0x423 CALLDATASIZE PUSH1 0x4 PUSH2 0x3ED JUMP JUMPDEST SWAP1 PUSH2 0x1211 JUMP JUMPDEST PUSH1 0x40 MLOAD STOP JUMPDEST CALLVALUE PUSH2 0x23E JUMPI PUSH2 0x429 PUSH2 0x441 CALLDATASIZE PUSH1 0x4 PUSH2 0x2B2 JUMP JUMPDEST PUSH2 0x2B02 JUMP JUMPDEST CALLVALUE PUSH2 0x23E JUMPI PUSH2 0x456 CALLDATASIZE PUSH1 0x4 PUSH2 0x2F2 JUMP JUMPDEST PUSH2 0x29B PUSH2 0x2E1 PUSH1 0x9 SLOAD SWAP1 JUMP JUMPDEST SWAP1 SWAP2 PUSH1 0x60 DUP3 DUP5 SUB SLT PUSH2 0x23E JUMPI PUSH2 0x266 PUSH2 0x47B DUP5 DUP5 PUSH2 0x3E0 JUMP JUMPDEST SWAP4 PUSH2 0x489 DUP2 PUSH1 0x20 DUP7 ADD PUSH2 0x3E0 JUMP JUMPDEST SWAP4 PUSH1 0x40 ADD PUSH2 0x2A5 JUMP JUMPDEST CALLVALUE PUSH2 0x23E JUMPI PUSH2 0x429 PUSH2 0x4A5 CALLDATASIZE PUSH1 0x4 PUSH2 0x462 JUMP JUMPDEST SWAP2 PUSH2 0x1331 JUMP JUMPDEST PUSH2 0x266 PUSH2 0x266 PUSH2 0x266 SWAP3 SWAP1 JUMP JUMPDEST SWAP1 PUSH2 0x4C2 SWAP1 PUSH2 0x4AB JUMP JUMPDEST PUSH1 0x0 MSTORE PUSH1 0x20 MSTORE PUSH1 0x40 PUSH1 0x0 KECCAK256 SWAP1 JUMP JUMPDEST PUSH2 0x266 SWAP1 DUP2 JUMP JUMPDEST PUSH2 0x266 SWAP1 SLOAD PUSH2 0x4D0 JUMP JUMPDEST PUSH4 0x4E487B71 PUSH1 0xE0 SHL PUSH1 0x0 MSTORE PUSH1 0x22 PUSH1 0x4 MSTORE PUSH1 0x24 PUSH1 0x0 REVERT JUMPDEST SWAP1 PUSH1 0x1 PUSH1 0x2 DUP4 DIV SWAP3 AND DUP1 ISZERO PUSH2 0x517 JUMPI JUMPDEST PUSH1 0x20 DUP4 LT EQ PUSH2 0x512 JUMPI JUMP JUMPDEST PUSH2 0x4E1 JUMP JUMPDEST SWAP2 PUSH1 0x7F AND SWAP2 PUSH2 0x507 JUMP JUMPDEST DUP1 SLOAD PUSH1 0x0 SWAP4 SWAP3 SWAP2 PUSH2 0x53E PUSH2 0x534 DUP4 PUSH2 0x4F7 JUMP JUMPDEST DUP1 DUP6 MSTORE SWAP4 PUSH1 0x20 ADD SWAP1 JUMP JUMPDEST SWAP2 PUSH1 0x1 DUP2 AND SWAP1 DUP2 ISZERO PUSH2 0x590 JUMPI POP PUSH1 0x1 EQ PUSH2 0x557 JUMPI POP POP POP JUMP JUMPDEST PUSH2 0x56A SWAP2 SWAP3 SWAP4 SWAP5 POP PUSH1 0x0 MSTORE PUSH1 0x20 PUSH1 0x0 KECCAK256 SWAP1 JUMP JUMPDEST SWAP2 PUSH1 0x0 SWAP3 JUMPDEST DUP2 DUP5 LT PUSH2 0x57C JUMPI POP POP ADD SWAP1 JUMP JUMPDEST DUP1 SLOAD DUP5 DUP5 ADD MSTORE PUSH1 0x20 SWAP1 SWAP4 ADD SWAP3 PUSH1 0x1 ADD PUSH2 0x56F JUMP JUMPDEST SWAP3 SWAP5 SWAP6 POP POP POP PUSH1 0xFF NOT AND DUP3 MSTORE ISZERO ISZERO PUSH1 0x20 MUL ADD SWAP1 JUMP JUMPDEST SWAP1 PUSH2 0x266 SWAP2 PUSH2 0x521 JUMP JUMPDEST PUSH4 0x4E487B71 PUSH1 0xE0 SHL PUSH1 0x0 MSTORE PUSH1 0x41 PUSH1 0x4 MSTORE PUSH1 0x24 PUSH1 0x0 REVERT JUMPDEST SWAP1 PUSH1 0x1F ADD PUSH1 0x1F NOT AND DUP2 ADD SWAP1 DUP2 LT PUSH8 0xFFFFFFFFFFFFFFFF DUP3 GT OR PUSH2 0x5E7 JUMPI PUSH1 0x40 MSTORE JUMP JUMPDEST PUSH2 0x5AF JUMP JUMPDEST SWAP1 PUSH2 0x250 PUSH2 0x606 SWAP3 PUSH2 0x5FD PUSH1 0x40 MLOAD SWAP1 JUMP JUMPDEST SWAP4 DUP5 DUP1 SWAP3 PUSH2 0x5A5 JUMP JUMPDEST SUB DUP4 PUSH2 0x5C5 JUMP JUMPDEST PUSH2 0x266 SWAP1 JUMPDEST PUSH1 0xFF AND SWAP1 JUMP JUMPDEST PUSH2 0x266 SWAP1 SLOAD PUSH2 0x60D JUMP JUMPDEST PUSH2 0x62D SWAP1 PUSH1 0x13 PUSH2 0x4B8 JUMP JUMPDEST SWAP1 PUSH2 0x637 DUP3 PUSH2 0x4D7 JUMP JUMPDEST SWAP2 PUSH2 0x64C PUSH1 0x1 DUP3 ADD SLOAD PUSH1 0x1 PUSH1 0x1 PUSH1 0xA0 SHL SUB AND SWAP1 JUMP JUMPDEST SWAP2 PUSH2 0x659 PUSH1 0x2 DUP4 ADD PUSH2 0x5EC JUMP JUMPDEST SWAP2 PUSH2 0x666 PUSH1 0x3 DUP3 ADD PUSH2 0x5EC JUMP JUMPDEST SWAP2 PUSH2 0x673 PUSH1 0x4 DUP4 ADD PUSH2 0x5EC JUMP JUMPDEST SWAP2 PUSH2 0x680 PUSH1 0x5 DUP3 ADD PUSH2 0x5EC JUMP JUMPDEST SWAP2 PUSH2 0x266 PUSH1 0x7 PUSH2 0x692 PUSH1 0x6 DUP6 ADD PUSH2 0x4D7 JUMP JUMPDEST SWAP4 ADD PUSH2 0x618 JUMP JUMPDEST PUSH4 0x4E487B71 PUSH1 0xE0 SHL PUSH1 0x0 MSTORE PUSH1 0x21 PUSH1 0x4 MSTORE PUSH1 0x24 PUSH1 0x0 REVERT JUMPDEST PUSH1 0x6 GT ISZERO PUSH2 0x6B9 JUMPI JUMP JUMPDEST PUSH2 0x699 JUMP JUMPDEST SWAP1 PUSH2 0x250 DUP3 PUSH2 0x6AF JUMP JUMPDEST PUSH2 0x266 SWAP1 PUSH2 0x6BE JUMP JUMPDEST PUSH2 0x269 SWAP1 PUSH2 0x6C8 JUMP JUMPDEST SWAP4 PUSH1 0xE0 SWAP6 PUSH2 0x737 PUSH2 0x745 SWAP3 PUSH2 0x729 DUP9 PUSH2 0x75B SWAP9 PUSH2 0x250 SWAP14 SWAP16 SWAP15 SWAP13 SWAP8 PUSH2 0x753 SWAP10 PUSH2 0x70C PUSH2 0x71C SWAP3 PUSH1 0x0 PUSH2 0x100 DUP8 ADD SWAP7 ADD MSTORE JUMP JUMPDEST PUSH1 0x1 PUSH1 0x1 PUSH1 0xA0 SHL SUB AND PUSH1 0x20 DUP14 ADD MSTORE JUMP JUMPDEST DUP11 DUP3 SUB PUSH1 0x40 DUP13 ADD MSTORE PUSH2 0x320 JUMP JUMPDEST SWAP1 DUP9 DUP3 SUB PUSH1 0x60 DUP11 ADD MSTORE PUSH2 0x320 JUMP JUMPDEST SWAP1 DUP7 DUP3 SUB PUSH1 0x80 DUP9 ADD MSTORE PUSH2 0x320 JUMP JUMPDEST SWAP1 DUP5 DUP3 SUB PUSH1 0xA0 DUP7 ADD MSTORE PUSH2 0x320 JUMP JUMPDEST SWAP7 PUSH1 0xC0 DUP4 ADD MSTORE JUMP JUMPDEST ADD SWAP1 PUSH2 0x6D1 JUMP JUMPDEST CALLVALUE PUSH2 0x23E JUMPI PUSH2 0x29B PUSH2 0x77D PUSH2 0x778 CALLDATASIZE PUSH1 0x4 PUSH2 0x2B2 JUMP JUMPDEST PUSH2 0x622 JUMP JUMPDEST SWAP5 PUSH2 0x790 SWAP9 SWAP7 SWAP9 SWAP5 SWAP2 SWAP5 SWAP4 SWAP3 SWAP4 PUSH1 0x40 MLOAD SWAP1 JUMP JUMPDEST SWAP9 DUP10 SWAP9 DUP10 PUSH2 0x6DA JUMP JUMPDEST CALLVALUE PUSH2 0x23E JUMPI PUSH2 0x29B PUSH2 0x2E1 PUSH2 0x7AF CALLDATASIZE PUSH1 0x4 PUSH2 0x3ED JUMP JUMPDEST SWAP1 PUSH2 0x1A1A JUMP JUMPDEST CALLVALUE PUSH2 0x23E JUMPI PUSH2 0x429 PUSH2 0x7C8 CALLDATASIZE PUSH1 0x4 PUSH2 0x462 JUMP JUMPDEST SWAP2 PUSH2 0x1372 JUMP JUMPDEST CALLVALUE PUSH2 0x23E JUMPI PUSH2 0x29B PUSH2 0x2E1 PUSH2 0x7E4 CALLDATASIZE PUSH1 0x4 PUSH2 0x2B2 JUMP JUMPDEST PUSH2 0x1AEF JUMP JUMPDEST CALLVALUE PUSH2 0x23E JUMPI PUSH2 0x429 PUSH2 0x7FC CALLDATASIZE PUSH1 0x4 PUSH2 0x2B2 JUMP JUMPDEST PUSH2 0x2F96 JUMP JUMPDEST CALLVALUE PUSH2 0x23E JUMPI PUSH2 0x29B PUSH2 0x3B7 PUSH2 0x817 CALLDATASIZE PUSH1 0x4 PUSH2 0x2B2 JUMP JUMPDEST PUSH2 0x10FE JUMP JUMPDEST SWAP1 PUSH1 0x20 DUP3 DUP3 SUB SLT PUSH2 0x23E JUMPI PUSH2 0x266 SWAP2 PUSH2 0x3E0 JUMP JUMPDEST CALLVALUE PUSH2 0x23E JUMPI PUSH2 0x29B PUSH2 0x2E1 PUSH2 0x846 CALLDATASIZE PUSH1 0x4 PUSH2 0x81C JUMP JUMPDEST PUSH2 0x1075 JUMP JUMPDEST CALLVALUE PUSH2 0x23E JUMPI PUSH2 0x85B CALLDATASIZE PUSH1 0x4 PUSH2 0x2F2 JUMP JUMPDEST PUSH2 0x429 PUSH2 0xE30 JUMP JUMPDEST CALLVALUE PUSH2 0x23E JUMPI PUSH2 0x429 PUSH2 0x876 CALLDATASIZE PUSH1 0x4 PUSH2 0x2B2 JUMP JUMPDEST PUSH2 0x2E1A JUMP JUMPDEST CALLVALUE PUSH2 0x23E JUMPI PUSH2 0x88B CALLDATASIZE PUSH1 0x4 PUSH2 0x2F2 JUMP JUMPDEST PUSH2 0x29B PUSH2 0x3B7 PUSH1 0xB SLOAD PUSH1 0x1 PUSH1 0x1 PUSH1 0xA0 SHL SUB AND SWAP1 JUMP JUMPDEST PUSH2 0x266 SWAP2 PUSH1 0x8 MUL SHR DUP2 JUMP JUMPDEST SWAP1 PUSH2 0x266 SWAP2 SLOAD PUSH2 0x8A0 JUMP JUMPDEST PUSH2 0x266 PUSH1 0x0 PUSH1 0xF PUSH2 0x8AB JUMP JUMPDEST CALLVALUE PUSH2 0x23E JUMPI PUSH2 0x8D2 CALLDATASIZE PUSH1 0x4 PUSH2 0x2F2 JUMP JUMPDEST PUSH2 0x29B PUSH2 0x2E1 PUSH2 0x8B6 JUMP JUMPDEST CALLVALUE PUSH2 0x23E JUMPI PUSH2 0x8ED CALLDATASIZE PUSH1 0x4 PUSH2 0x2F2 JUMP JUMPDEST PUSH2 0x29B PUSH2 0x384 PUSH2 0x113F JUMP JUMPDEST DUP1 ISZERO ISZERO PUSH2 0x237 JUMP JUMPDEST SWAP1 POP CALLDATALOAD SWAP1 PUSH2 0x250 DUP3 PUSH2 0x8F8 JUMP JUMPDEST SWAP2 SWAP1 PUSH1 0x40 DUP4 DUP3 SUB SLT PUSH2 0x23E JUMPI PUSH2 0x266 SWAP1 PUSH2 0x927 DUP2 DUP6 PUSH2 0x3E0 JUMP JUMPDEST SWAP4 PUSH1 0x20 ADD PUSH2 0x900 JUMP JUMPDEST CALLVALUE PUSH2 0x23E JUMPI PUSH2 0x429 PUSH2 0x943 CALLDATASIZE PUSH1 0x4 PUSH2 0x90D JUMP JUMPDEST SWAP1 PUSH2 0x129F JUMP JUMPDEST SWAP1 PUSH2 0x250 PUSH2 0x956 PUSH1 0x40 MLOAD SWAP1 JUMP JUMPDEST SWAP3 DUP4 PUSH2 0x5C5 JUMP JUMPDEST PUSH8 0xFFFFFFFFFFFFFFFF DUP2 GT PUSH2 0x5E7 JUMPI PUSH1 0x20 SWAP1 PUSH1 0x1F ADD PUSH1 0x1F NOT AND ADD SWAP1 JUMP JUMPDEST SWAP1 DUP3 PUSH1 0x0 SWAP4 SWAP3 DUP3 CALLDATACOPY ADD MSTORE JUMP JUMPDEST SWAP1 SWAP3 SWAP2 SWAP3 PUSH2 0x99B PUSH2 0x996 DUP3 PUSH2 0x95D JUMP JUMPDEST PUSH2 0x949 JUMP JUMPDEST SWAP4 DUP2 DUP6 MSTORE PUSH1 0x20 DUP6 ADD SWAP1 DUP3 DUP5 ADD GT PUSH2 0x23E JUMPI PUSH2 0x250 SWAP3 PUSH2 0x97A JUMP JUMPDEST SWAP1 DUP1 PUSH1 0x1F DUP4 ADD SLT ISZERO PUSH2 0x23E JUMPI DUP2 PUSH1 0x20 PUSH2 0x266 SWAP4 CALLDATALOAD SWAP2 ADD PUSH2 0x986 JUMP JUMPDEST PUSH1 0x6 GT ISZERO PUSH2 0x23E JUMPI JUMP JUMPDEST SWAP1 POP CALLDATALOAD SWAP1 PUSH2 0x250 DUP3 PUSH2 0x9D0 JUMP JUMPDEST PUSH1 0xE0 DUP2 DUP4 SUB SLT PUSH2 0x23E JUMPI DUP1 CALLDATALOAD PUSH8 0xFFFFFFFFFFFFFFFF DUP2 GT PUSH2 0x23E JUMPI DUP3 PUSH2 0xA0E SWAP2 DUP4 ADD PUSH2 0x9B5 JUMP JUMPDEST SWAP3 PUSH1 0x20 DUP3 ADD CALLDATALOAD PUSH8 0xFFFFFFFFFFFFFFFF DUP2 GT PUSH2 0x23E JUMPI DUP4 PUSH2 0xA2F SWAP2 DUP5 ADD PUSH2 0x9B5 JUMP JUMPDEST SWAP3 PUSH1 0x40 DUP4 ADD CALLDATALOAD PUSH8 0xFFFFFFFFFFFFFFFF DUP2 GT PUSH2 0x23E JUMPI DUP2 PUSH2 0xA50 SWAP2 DUP6 ADD PUSH2 0x9B5 JUMP JUMPDEST SWAP3 PUSH1 0x60 DUP2 ADD CALLDATALOAD PUSH8 0xFFFFFFFFFFFFFFFF DUP2 GT PUSH2 0x23E JUMPI DUP3 PUSH2 0xA71 SWAP2 DUP4 ADD PUSH2 0x9B5 JUMP JUMPDEST SWAP3 PUSH2 0x266 PUSH2 0xA82 DUP5 PUSH1 0x80 DUP6 ADD PUSH2 0x2A5 JUMP JUMPDEST SWAP4 PUSH2 0xA90 DUP2 PUSH1 0xA0 DUP7 ADD PUSH2 0x2A5 JUMP JUMPDEST SWAP4 PUSH1 0xC0 ADD PUSH2 0x9DA JUMP JUMPDEST CALLVALUE PUSH2 0x23E JUMPI PUSH2 0x429 PUSH2 0xAAC CALLDATASIZE PUSH1 0x4 PUSH2 0x9E7 JUMP JUMPDEST SWAP6 SWAP5 SWAP1 SWAP5 SWAP4 SWAP2 SWAP4 PUSH2 0x2651 JUMP JUMPDEST DUP1 MLOAD DUP3 MSTORE PUSH1 0x20 DUP1 DUP3 ADD MLOAD PUSH1 0x1 PUSH1 0x1 PUSH1 0xA0 SHL SUB AND SWAP1 DUP4 ADD MSTORE SWAP1 PUSH2 0x266 SWAP1 PUSH2 0x120 DUP1 PUSH2 0xB31 PUSH2 0xB1F PUSH2 0xB0D PUSH2 0xAFB PUSH2 0x140 DUP8 ADD PUSH1 0x40 DUP11 ADD MLOAD DUP9 DUP3 SUB PUSH1 0x40 DUP11 ADD MSTORE PUSH2 0x320 JUMP JUMPDEST PUSH1 0x60 DUP10 ADD MLOAD DUP8 DUP3 SUB PUSH1 0x60 DUP10 ADD MSTORE PUSH2 0x320 JUMP JUMPDEST PUSH1 0x80 DUP9 ADD MLOAD DUP7 DUP3 SUB PUSH1 0x80 DUP9 ADD MSTORE PUSH2 0x320 JUMP JUMPDEST PUSH1 0xA0 DUP8 ADD MLOAD DUP6 DUP3 SUB PUSH1 0xA0 DUP8 ADD MSTORE PUSH2 0x320 JUMP JUMPDEST SWAP5 PUSH2 0xB41 PUSH1 0xC0 DUP3 ADD MLOAD PUSH1 0xC0 DUP7 ADD MSTORE JUMP JUMPDEST PUSH2 0xB50 PUSH1 0xE0 DUP3 ADD MLOAD PUSH1 0xE0 DUP7 ADD MSTORE JUMP JUMPDEST PUSH2 0xB64 PUSH2 0x100 DUP3 ADD MLOAD PUSH2 0x100 DUP7 ADD SWAP1 PUSH2 0x6D1 JUMP JUMPDEST ADD MLOAD SWAP2 ADD SWAP1 PUSH2 0x6D1 JUMP JUMPDEST SWAP1 PUSH2 0x266 SWAP2 PUSH2 0xAB8 JUMP JUMPDEST SWAP1 PUSH2 0xB8E PUSH2 0xB84 DUP4 MLOAD SWAP1 JUMP JUMPDEST DUP1 DUP4 MSTORE SWAP2 PUSH1 0x20 ADD SWAP1 JUMP JUMPDEST SWAP1 DUP2 PUSH2 0xBA0 PUSH1 0x20 DUP4 MUL DUP5 ADD SWAP5 PUSH1 0x20 ADD SWAP1 JUMP JUMPDEST SWAP3 PUSH1 0x0 SWAP2 JUMPDEST DUP4 DUP4 LT PUSH2 0xBB4 JUMPI POP POP POP POP POP SWAP1 JUMP JUMPDEST SWAP1 SWAP2 SWAP3 SWAP4 SWAP5 PUSH1 0x20 PUSH2 0xBD7 PUSH2 0xBD0 DUP4 DUP6 PUSH1 0x1 SWAP6 SUB DUP8 MSTORE DUP10 MLOAD PUSH2 0xB6E JUMP JUMPDEST SWAP8 PUSH1 0x20 ADD SWAP1 JUMP JUMPDEST SWAP4 ADD SWAP4 ADD SWAP2 SWAP4 SWAP3 SWAP1 PUSH2 0xBA5 JUMP JUMPDEST PUSH1 0x20 DUP1 DUP3 MSTORE PUSH2 0x266 SWAP3 SWAP2 ADD SWAP1 PUSH2 0xB78 JUMP JUMPDEST CALLVALUE PUSH2 0x23E JUMPI PUSH2 0x29B PUSH2 0xC10 PUSH2 0xC0B CALLDATASIZE PUSH1 0x4 PUSH2 0x81C JUMP JUMPDEST PUSH2 0x2A24 JUMP JUMPDEST PUSH1 0x40 MLOAD SWAP2 DUP3 SWAP2 DUP3 PUSH2 0xBE4 JUMP JUMPDEST SWAP1 PUSH1 0x80 DUP3 DUP3 SUB SLT PUSH2 0x23E JUMPI PUSH2 0xC31 DUP2 DUP4 PUSH2 0x3E0 JUMP JUMPDEST SWAP3 PUSH2 0xC3F DUP3 PUSH1 0x20 DUP6 ADD PUSH2 0x3E0 JUMP JUMPDEST SWAP3 PUSH2 0xC4D DUP4 PUSH1 0x40 DUP4 ADD PUSH2 0x2A5 JUMP JUMPDEST SWAP3 PUSH1 0x60 DUP3 ADD CALLDATALOAD PUSH8 0xFFFFFFFFFFFFFFFF DUP2 GT PUSH2 0x23E JUMPI PUSH2 0x266 SWAP3 ADD PUSH2 0x9B5 JUMP JUMPDEST CALLVALUE PUSH2 0x23E JUMPI PUSH2 0x429 PUSH2 0xC7F CALLDATASIZE PUSH1 0x4 PUSH2 0xC1C JUMP JUMPDEST SWAP3 SWAP2 SWAP1 SWAP2 PUSH2 0x1382 JUMP JUMPDEST CALLVALUE PUSH2 0x23E JUMPI PUSH2 0x429 PUSH2 0xC9B CALLDATASIZE PUSH1 0x4 PUSH2 0x81C JUMP JUMPDEST PUSH2 0x231F JUMP JUMPDEST CALLVALUE PUSH2 0x23E JUMPI PUSH2 0x29B PUSH2 0x384 PUSH2 0xCB6 CALLDATASIZE PUSH1 0x4 PUSH2 0x2B2 JUMP JUMPDEST PUSH2 0x1C45 JUMP JUMPDEST PUSH2 0x266 PUSH1 0x0 PUSH1 0x10 PUSH2 0x8AB JUMP JUMPDEST CALLVALUE PUSH2 0x23E JUMPI PUSH2 0xCD7 CALLDATASIZE PUSH1 0x4 PUSH2 0x2F2 JUMP JUMPDEST PUSH2 0x29B PUSH2 0x2E1 PUSH2 0xCBB JUMP JUMPDEST SWAP2 SWAP1 PUSH1 0x40 DUP4 DUP3 SUB SLT PUSH2 0x23E JUMPI PUSH2 0x266 SWAP1 PUSH2 0xCFC DUP2 DUP6 PUSH2 0x3E0 JUMP JUMPDEST SWAP4 PUSH1 0x20 ADD PUSH2 0x3E0 JUMP JUMPDEST CALLVALUE PUSH2 0x23E JUMPI PUSH2 0x29B PUSH2 0x288 PUSH2 0xD1B CALLDATASIZE PUSH1 0x4 PUSH2 0xCE2 JUMP JUMPDEST SWAP1 PUSH2 0x12AA JUMP JUMPDEST CALLVALUE PUSH2 0x23E JUMPI PUSH2 0x429 PUSH2 0xD34 CALLDATASIZE PUSH1 0x4 PUSH2 0x81C JUMP JUMPDEST PUSH2 0xF51 JUMP JUMPDEST CALLVALUE PUSH2 0x23E JUMPI PUSH2 0x429 PUSH2 0xD4C CALLDATASIZE PUSH1 0x4 PUSH2 0x3ED JUMP JUMPDEST SWAP1 PUSH2 0x3BE7 JUMP JUMPDEST CALLVALUE PUSH2 0x23E JUMPI PUSH2 0x429 PUSH2 0xD65 CALLDATASIZE PUSH1 0x4 PUSH2 0x81C JUMP JUMPDEST PUSH2 0x2347 JUMP JUMPDEST SWAP1 PUSH2 0xD8A PUSH2 0xD83 PUSH2 0xD79 DUP5 MLOAD SWAP1 JUMP JUMPDEST DUP1 DUP5 MSTORE SWAP3 PUSH1 0x20 ADD SWAP1 JUMP JUMPDEST SWAP3 PUSH1 0x20 ADD SWAP1 JUMP JUMPDEST SWAP1 PUSH1 0x0 JUMPDEST DUP2 DUP2 LT PUSH2 0xD9B JUMPI POP POP POP SWAP1 JUMP JUMPDEST SWAP1 SWAP2 SWAP3 PUSH2 0xDB8 PUSH2 0xDB1 PUSH1 0x1 SWAP3 DUP7 MLOAD DUP2 MSTORE PUSH1 0x20 ADD SWAP1 JUMP JUMPDEST SWAP5 PUSH1 0x20 ADD SWAP1 JUMP JUMPDEST SWAP3 SWAP2 ADD PUSH2 0xD8E JUMP JUMPDEST PUSH1 0x20 DUP1 DUP3 MSTORE PUSH2 0x266 SWAP3 SWAP2 ADD SWAP1 PUSH2 0xD6A JUMP JUMPDEST CALLVALUE PUSH2 0x23E JUMPI PUSH2 0x29B PUSH2 0xDEC PUSH2 0xDE7 CALLDATASIZE PUSH1 0x4 PUSH2 0x81C JUMP JUMPDEST PUSH2 0x281D JUMP JUMPDEST PUSH1 0x40 MLOAD SWAP2 DUP3 SWAP2 DUP3 PUSH2 0xDC0 JUMP JUMPDEST PUSH2 0xE00 PUSH2 0xE8C JUMP JUMPDEST PUSH2 0x250 PUSH2 0xE1E JUMP JUMPDEST PUSH2 0x390 PUSH2 0x266 PUSH2 0x266 SWAP3 SWAP1 JUMP JUMPDEST PUSH2 0x266 SWAP1 PUSH2 0xE08 JUMP JUMPDEST PUSH2 0x250 PUSH2 0xE2B PUSH1 0x0 PUSH2 0xE15 JUMP JUMPDEST PUSH2 0xFB0 JUMP JUMPDEST PUSH2 0x250 PUSH2 0xDF8 JUMP JUMPDEST ISZERO PUSH2 0xE3F JUMPI JUMP JUMPDEST PUSH1 0x40 MLOAD PUSH3 0x461BCD PUSH1 0xE5 SHL DUP2 MSTORE DUP1 PUSH2 0xE88 PUSH1 0x4 DUP3 ADD PUSH1 0x20 DUP1 DUP3 MSTORE DUP2 DUP2 ADD MSTORE PUSH32 0x4F776E61626C653A2063616C6C6572206973206E6F7420746865206F776E6572 PUSH1 0x40 DUP3 ADD MSTORE PUSH1 0x60 ADD SWAP1 JUMP JUMPDEST SUB SWAP1 REVERT JUMPDEST PUSH2 0x250 PUSH2 0xEA1 PUSH1 0xB SLOAD PUSH1 0x1 PUSH1 0x1 PUSH1 0xA0 SHL SUB AND SWAP1 JUMP JUMPDEST PUSH2 0xEBA PUSH2 0xEAD CALLER PUSH2 0x390 JUMP JUMPDEST SWAP2 PUSH1 0x1 PUSH1 0x1 PUSH1 0xA0 SHL SUB AND SWAP1 JUMP JUMPDEST EQ PUSH2 0xE38 JUMP JUMPDEST PUSH2 0x250 SWAP1 PUSH2 0xECC PUSH2 0xE8C JUMP JUMPDEST PUSH2 0xF2C JUMP JUMPDEST ISZERO PUSH2 0xED8 JUMPI JUMP JUMPDEST PUSH1 0x40 MLOAD PUSH3 0x461BCD PUSH1 0xE5 SHL DUP2 MSTORE PUSH1 0x20 PUSH1 0x4 DUP3 ADD MSTORE PUSH1 0x26 PUSH1 0x24 DUP3 ADD MSTORE PUSH32 0x4F776E61626C653A206E6577206F776E657220697320746865207A65726F2061 PUSH1 0x44 DUP3 ADD MSTORE PUSH6 0x646472657373 PUSH1 0xD0 SHL PUSH1 0x64 DUP3 ADD MSTORE PUSH1 0x84 SWAP1 REVERT JUMPDEST PUSH2 0x250 SWAP1 PUSH2 0xE2B PUSH2 0xF40 PUSH2 0x390 PUSH1 0x0 PUSH2 0xE15 JUMP JUMPDEST PUSH1 0x1 PUSH1 0x1 PUSH1 0xA0 SHL SUB DUP4 AND EQ ISZERO PUSH2 0xED1 JUMP JUMPDEST PUSH2 0x250 SWAP1 PUSH2 0xEC0 JUMP JUMPDEST SWAP1 PUSH1 0x1 PUSH1 0x1 PUSH1 0xA0 SHL SUB SWAP1 JUMPDEST SWAP2 DUP2 NOT AND SWAP2 AND OR SWAP1 JUMP JUMPDEST PUSH2 0x266 SWAP1 PUSH2 0x390 SWAP1 PUSH1 0x1 PUSH1 0x1 PUSH1 0xA0 SHL SUB AND DUP3 JUMP JUMPDEST PUSH2 0x266 SWAP1 PUSH2 0xF6F JUMP JUMPDEST PUSH2 0x266 SWAP1 PUSH2 0xF83 JUMP JUMPDEST SWAP1 PUSH2 0xFA5 PUSH2 0x266 PUSH2 0xFAC SWAP3 PUSH2 0xF8C JUMP JUMPDEST DUP3 SLOAD PUSH2 0xF5A JUMP JUMPDEST SWAP1 SSTORE JUMP JUMPDEST PUSH1 0xB SLOAD PUSH1 0x1 PUSH1 0x1 PUSH1 0xA0 SHL SUB AND SWAP1 PUSH2 0xFC8 DUP2 PUSH1 0xB PUSH2 0xF95 JUMP JUMPDEST PUSH2 0xFFB PUSH2 0xFF5 PUSH32 0x8BE0079C531659141344CD1FD0A4F28419497F9722A3DAAFE3B4186F6B6457E0 SWAP4 PUSH2 0xF8C JUMP JUMPDEST SWAP2 PUSH2 0xF8C JUMP JUMPDEST SWAP2 PUSH2 0x1005 PUSH1 0x40 MLOAD SWAP1 JUMP JUMPDEST DUP1 DUP1 JUMPDEST SUB SWAP1 LOG3 JUMP JUMPDEST ISZERO PUSH2 0x1014 JUMPI JUMP JUMPDEST PUSH1 0x40 MLOAD PUSH3 0x461BCD PUSH1 0xE5 SHL DUP2 MSTORE PUSH1 0x20 PUSH1 0x4 DUP3 ADD MSTORE PUSH1 0x29 PUSH1 0x24 DUP3 ADD MSTORE PUSH32 0x4552433732313A2061646472657373207A65726F206973206E6F742061207661 PUSH1 0x44 DUP3 ADD MSTORE PUSH9 0x3634B21037BBB732B9 PUSH1 0xB9 SHL PUSH1 0x64 DUP3 ADD MSTORE PUSH1 0x84 SWAP1 REVERT JUMPDEST SWAP1 PUSH2 0x4C2 SWAP1 PUSH2 0xF8C JUMP JUMPDEST PUSH2 0x10AD PUSH2 0x266 SWAP2 PUSH2 0x1084 PUSH1 0x0 SWAP1 JUMP JUMPDEST POP PUSH2 0x10A6 PUSH2 0x1095 PUSH2 0x390 PUSH1 0x0 PUSH2 0xE15 JUMP JUMPDEST PUSH1 0x1 PUSH1 0x1 PUSH1 0xA0 SHL SUB DUP4 AND EQ ISZERO PUSH2 0x100D JUMP JUMPDEST PUSH1 0x3 PUSH2 0x106B JUMP JUMPDEST PUSH2 0x4D7 JUMP JUMPDEST ISZERO PUSH2 0x10B9 JUMPI JUMP JUMPDEST PUSH1 0x40 MLOAD PUSH3 0x461BCD PUSH1 0xE5 SHL DUP2 MSTORE PUSH1 0x20 PUSH1 0x4 DUP3 ADD MSTORE PUSH1 0x18 PUSH1 0x24 DUP3 ADD MSTORE PUSH32 0x4552433732313A20696E76616C696420746F6B656E2049440000000000000000 PUSH1 0x44 DUP3 ADD MSTORE PUSH1 0x64 SWAP1 REVERT JUMPDEST PUSH2 0x110B SWAP1 PUSH1 0x0 JUMPDEST POP PUSH2 0x1422 JUMP JUMPDEST PUSH2 0x266 PUSH2 0x111B PUSH2 0x390 PUSH1 0x0 PUSH2 0xE15 JUMP JUMPDEST PUSH1 0x1 PUSH1 0x1 PUSH1 0xA0 SHL SUB DUP4 AND EQ ISZERO PUSH2 0x10B2 JUMP JUMPDEST PUSH2 0x266 SWAP1 PUSH2 0x5EC JUMP JUMPDEST PUSH2 0x266 PUSH1 0x0 PUSH2 0x112C JUMP JUMPDEST PUSH2 0x266 PUSH1 0x1 PUSH2 0x112C JUMP JUMPDEST ISZERO PUSH2 0x1150 JUMPI JUMP JUMPDEST PUSH1 0x40 MLOAD PUSH3 0x461BCD PUSH1 0xE5 SHL DUP2 MSTORE PUSH1 0x20 PUSH1 0x4 DUP3 ADD MSTORE PUSH1 0x21 PUSH1 0x24 DUP3 ADD MSTORE PUSH32 0x4552433732313A20617070726F76616C20746F2063757272656E74206F776E65 PUSH1 0x44 DUP3 ADD MSTORE PUSH1 0x39 PUSH1 0xF9 SHL PUSH1 0x64 DUP3 ADD MSTORE PUSH1 0x84 SWAP1 REVERT JUMPDEST ISZERO PUSH2 0x11A6 JUMPI JUMP JUMPDEST PUSH1 0x40 MLOAD PUSH3 0x461BCD PUSH1 0xE5 SHL DUP2 MSTORE PUSH1 0x20 PUSH1 0x4 DUP3 ADD MSTORE PUSH1 0x3D PUSH1 0x24 DUP3 ADD MSTORE PUSH32 0x4552433732313A20617070726F76652063616C6C6572206973206E6F7420746F PUSH1 0x44 DUP3 ADD MSTORE PUSH32 0x6B656E206F776E6572206F7220617070726F76656420666F7220616C6C000000 PUSH1 0x64 DUP3 ADD MSTORE PUSH1 0x84 SWAP1 REVERT JUMPDEST SWAP1 PUSH2 0x250 SWAP2 PUSH2 0x125C PUSH2 0x1222 DUP4 PUSH2 0x10FE JUMP JUMPDEST PUSH2 0x1240 PUSH1 0x1 PUSH1 0x1 PUSH1 0xA0 SHL SUB DUP3 AND PUSH1 0x1 PUSH1 0x1 PUSH1 0xA0 SHL SUB DUP6 AND EQ ISZERO PUSH2 0x1149 JUMP JUMPDEST CALLER PUSH1 0x1 PUSH1 0x1 PUSH1 0xA0 SHL SUB DUP3 AND DUP2 EQ SWAP2 DUP3 ISZERO PUSH2 0x1261 JUMPI JUMPDEST POP POP PUSH2 0x119F JUMP JUMPDEST PUSH2 0x16DE JUMP JUMPDEST PUSH2 0x126B SWAP3 POP PUSH2 0x12AA JUMP JUMPDEST CODESIZE DUP1 PUSH2 0x1255 JUMP JUMPDEST PUSH2 0x1292 PUSH2 0x266 SWAP2 PUSH2 0x1281 PUSH1 0x0 SWAP1 JUMP JUMPDEST POP PUSH2 0x128B DUP2 PUSH2 0x180A JUMP JUMPDEST PUSH1 0x4 PUSH2 0x4B8 JUMP JUMPDEST SLOAD PUSH1 0x1 PUSH1 0x1 PUSH1 0xA0 SHL SUB AND SWAP1 JUMP JUMPDEST PUSH2 0x250 SWAP2 SWAP1 CALLER PUSH2 0x1794 JUMP JUMPDEST PUSH2 0x266 SWAP2 PUSH2 0x12C5 PUSH2 0x12CA SWAP3 PUSH2 0x12BD PUSH1 0x0 SWAP1 JUMP JUMPDEST POP PUSH1 0x5 PUSH2 0x106B JUMP JUMPDEST PUSH2 0x106B JUMP JUMPDEST PUSH2 0x618 JUMP JUMPDEST ISZERO PUSH2 0x12D6 JUMPI JUMP JUMPDEST PUSH1 0x40 MLOAD PUSH3 0x461BCD PUSH1 0xE5 SHL DUP2 MSTORE PUSH1 0x20 PUSH1 0x4 DUP3 ADD MSTORE PUSH1 0x2D PUSH1 0x24 DUP3 ADD MSTORE PUSH32 0x4552433732313A2063616C6C6572206973206E6F7420746F6B656E206F776E65 PUSH1 0x44 DUP3 ADD MSTORE PUSH13 0x1C881BDC88185C1C1C9BDD9959 PUSH1 0x9A SHL PUSH1 0x64 DUP3 ADD MSTORE PUSH1 0x84 SWAP1 REVERT JUMPDEST PUSH2 0x250 SWAP3 SWAP2 SWAP1 PUSH2 0x1349 PUSH2 0x1344 DUP5 CALLER PUSH2 0x1439 JUMP JUMPDEST PUSH2 0x12CF JUMP JUMPDEST PUSH2 0x15B4 JUMP JUMPDEST SWAP1 PUSH2 0x135B PUSH2 0x996 DUP4 PUSH2 0x95D JUMP JUMPDEST SWAP2 DUP3 MSTORE JUMP JUMPDEST PUSH2 0x266 PUSH1 0x0 PUSH2 0x134E JUMP JUMPDEST PUSH2 0x266 PUSH2 0x1360 JUMP JUMPDEST SWAP1 SWAP2 PUSH2 0x250 SWAP3 PUSH2 0x1380 PUSH2 0x136A JUMP JUMPDEST SWAP3 JUMPDEST PUSH2 0x250 SWAP4 SWAP3 SWAP2 SWAP1 PUSH2 0x1396 PUSH2 0x1344 DUP5 CALLER PUSH2 0x1439 JUMP JUMPDEST PUSH2 0x1403 JUMP JUMPDEST ISZERO PUSH2 0x13A2 JUMPI JUMP JUMPDEST PUSH1 0x40 MLOAD JUMPDEST PUSH3 0x461BCD PUSH1 0xE5 SHL DUP2 MSTORE PUSH1 0x20 PUSH1 0x4 DUP3 ADD MSTORE PUSH1 0x32 PUSH1 0x24 DUP3 ADD MSTORE PUSH32 0x4552433732313A207472616E7366657220746F206E6F6E204552433732315265 PUSH1 0x44 DUP3 ADD MSTORE PUSH18 0x31B2B4BB32B91034B6B83632B6B2B73A32B9 PUSH1 0x71 SHL PUSH1 0x64 DUP3 ADD MSTORE PUSH1 0x84 SWAP1 REVERT JUMPDEST SWAP2 PUSH2 0x250 SWAP4 SWAP2 PUSH2 0x141D SWAP4 PUSH2 0x1418 DUP4 DUP4 DUP4 PUSH2 0x15B4 JUMP JUMPDEST PUSH2 0x18B8 JUMP JUMPDEST PUSH2 0x139B JUMP JUMPDEST PUSH2 0x1292 PUSH2 0x266 SWAP2 PUSH2 0x1431 PUSH1 0x0 SWAP1 JUMP JUMPDEST POP PUSH1 0x2 PUSH2 0x4B8 JUMP JUMPDEST PUSH2 0x1442 DUP3 PUSH2 0x10FE JUMP JUMPDEST SWAP2 PUSH1 0x1 PUSH1 0x1 PUSH1 0xA0 SHL SUB DUP4 AND PUSH1 0x1 PUSH1 0x1 PUSH1 0xA0 SHL SUB DUP4 AND EQ SWAP3 DUP4 ISZERO PUSH2 0x148F JUMPI JUMPDEST POP DUP3 ISZERO PUSH2 0x146C JUMPI POP POP SWAP1 JUMP JUMPDEST PUSH2 0x148B SWAP2 SWAP3 POP PUSH2 0x147E PUSH2 0xEAD SWAP2 PUSH2 0x1272 JUMP JUMPDEST SWAP3 PUSH1 0x1 PUSH1 0x1 PUSH1 0xA0 SHL SUB AND SWAP1 JUMP JUMPDEST EQ SWAP1 JUMP JUMPDEST PUSH2 0x149C SWAP2 SWAP4 POP DUP3 SWAP1 PUSH2 0x12AA JUMP JUMPDEST SWAP2 CODESIZE PUSH2 0x1460 JUMP JUMPDEST ISZERO PUSH2 0x14AA JUMPI JUMP JUMPDEST PUSH1 0x40 MLOAD PUSH3 0x461BCD PUSH1 0xE5 SHL DUP2 MSTORE PUSH1 0x20 PUSH1 0x4 DUP3 ADD MSTORE PUSH1 0x25 PUSH1 0x24 DUP3 ADD MSTORE PUSH32 0x4552433732313A207472616E736665722066726F6D20696E636F727265637420 PUSH1 0x44 DUP3 ADD MSTORE PUSH5 0x37BBB732B9 PUSH1 0xD9 SHL PUSH1 0x64 DUP3 ADD MSTORE PUSH1 0x84 SWAP1 REVERT JUMPDEST ISZERO PUSH2 0x1504 JUMPI JUMP JUMPDEST PUSH1 0x40 MLOAD PUSH3 0x461BCD PUSH1 0xE5 SHL DUP2 MSTORE PUSH1 0x20 PUSH1 0x4 DUP3 ADD MSTORE PUSH1 0x24 DUP1 DUP3 ADD MSTORE PUSH32 0x4552433732313A207472616E7366657220746F20746865207A65726F20616464 PUSH1 0x44 DUP3 ADD MSTORE PUSH4 0x72657373 PUSH1 0xE0 SHL PUSH1 0x64 DUP3 ADD MSTORE PUSH1 0x84 SWAP1 REVERT JUMPDEST SWAP2 PUSH1 0x1 PUSH1 0x1 PUSH1 0xA0 SHL SUB PUSH1 0x8 SWAP3 SWAP1 SWAP3 MUL SWAP2 DUP3 SHL SWAP2 SHL PUSH2 0xF65 JUMP JUMPDEST SWAP2 SWAP1 PUSH2 0x157F PUSH2 0x266 PUSH2 0xFAC SWAP4 PUSH2 0xF8C JUMP JUMPDEST SWAP1 DUP4 SLOAD PUSH2 0x1555 JUMP JUMPDEST PUSH2 0x250 SWAP2 PUSH1 0x0 SWAP2 PUSH2 0x156E JUMP JUMPDEST SWAP1 PUSH1 0x0 NOT SWAP1 PUSH2 0xF65 JUMP JUMPDEST SWAP1 PUSH2 0x15AD PUSH2 0x266 PUSH2 0xFAC SWAP3 PUSH2 0x4AB JUMP JUMPDEST DUP3 SLOAD PUSH2 0x1593 JUMP JUMPDEST SWAP2 SWAP1 PUSH2 0x15DA PUSH2 0x15C2 DUP4 PUSH2 0x10FE JUMP JUMPDEST PUSH2 0x15D4 PUSH1 0x1 PUSH1 0x1 PUSH1 0xA0 SHL SUB DUP7 AND PUSH2 0xEAD JUMP JUMPDEST EQ PUSH2 0x14A3 JUMP JUMPDEST PUSH2 0x167E PUSH1 0x0 PUSH2 0x15FF PUSH2 0x15EE PUSH2 0x390 DUP4 PUSH2 0xE15 JUMP JUMPDEST PUSH1 0x1 PUSH1 0x1 PUSH1 0xA0 SHL SUB DUP6 AND EQ ISZERO PUSH2 0x14FD JUMP JUMPDEST PUSH2 0x1647 PUSH2 0x160C PUSH1 0x1 PUSH2 0x4AB JUMP JUMPDEST SWAP2 PUSH2 0x1619 DUP4 DUP8 DUP8 DUP11 PUSH2 0x1FE8 JUMP JUMPDEST PUSH2 0x1637 PUSH2 0x1625 DUP8 PUSH2 0x10FE JUMP JUMPDEST PUSH2 0x15D4 PUSH1 0x1 PUSH1 0x1 PUSH1 0xA0 SHL SUB DUP11 AND PUSH2 0xEAD JUMP JUMPDEST PUSH2 0x1642 DUP7 PUSH1 0x4 PUSH2 0x4B8 JUMP JUMPDEST PUSH2 0x1587 JUMP JUMPDEST PUSH2 0x166E PUSH2 0x1674 DUP5 PUSH1 0x3 PUSH2 0x12C5 PUSH2 0x165D DUP11 DUP4 PUSH2 0x106B JUMP JUMPDEST PUSH2 0x166E DUP8 PUSH2 0x166A DUP4 PUSH2 0x4D7 JUMP JUMPDEST SUB SWAP1 JUMP JUMPDEST SWAP1 PUSH2 0x159D JUMP JUMPDEST SWAP2 PUSH2 0x354 DUP4 PUSH2 0x4D7 JUMP JUMPDEST PUSH2 0x1692 DUP2 PUSH2 0x168D DUP5 PUSH1 0x2 PUSH2 0x4B8 JUMP JUMPDEST PUSH2 0xF95 JUMP JUMPDEST PUSH2 0x16CE PUSH2 0x16C8 PUSH2 0x16C2 PUSH32 0xDDF252AD1BE2C89B69C2B068FC378DAA952BA7F163C4A11628F55A4DF523B3EF SWAP6 PUSH2 0xF8C JUMP JUMPDEST SWAP3 PUSH2 0xF8C JUMP JUMPDEST SWAP3 PUSH2 0x4AB JUMP JUMPDEST SWAP3 PUSH2 0x16D8 PUSH1 0x40 MLOAD SWAP1 JUMP JUMPDEST PUSH1 0x0 SWAP1 LOG4 JUMP JUMPDEST SWAP1 PUSH2 0x16EE DUP3 PUSH2 0x168D DUP4 PUSH1 0x4 PUSH2 0x4B8 JUMP JUMPDEST PUSH2 0x16F7 DUP2 PUSH2 0x10FE JUMP JUMPDEST SWAP2 PUSH2 0x16CE PUSH2 0x16C8 PUSH2 0x16C2 PUSH32 0x8C5BE1E5EBEC7D5BD14F71427D1E84F3DD0314C0F7B2291E5B200AC8C7C3B925 SWAP6 PUSH2 0xF8C JUMP JUMPDEST ISZERO PUSH2 0x172F JUMPI JUMP JUMPDEST PUSH1 0x40 MLOAD PUSH3 0x461BCD PUSH1 0xE5 SHL DUP2 MSTORE PUSH1 0x20 PUSH1 0x4 DUP3 ADD MSTORE PUSH1 0x19 PUSH1 0x24 DUP3 ADD MSTORE PUSH32 0x4552433732313A20617070726F766520746F2063616C6C657200000000000000 PUSH1 0x44 DUP3 ADD MSTORE PUSH1 0x64 SWAP1 REVERT JUMPDEST SWAP1 PUSH1 0xFF SWAP1 PUSH2 0xF65 JUMP JUMPDEST SWAP1 PUSH2 0x178D PUSH2 0x266 PUSH2 0xFAC SWAP3 ISZERO ISZERO SWAP1 JUMP JUMPDEST DUP3 SLOAD PUSH2 0x1774 JUMP JUMPDEST PUSH2 0x17B2 PUSH1 0x1 PUSH1 0x1 PUSH1 0xA0 SHL SUB DUP4 AND PUSH1 0x1 PUSH1 0x1 PUSH1 0xA0 SHL SUB DUP4 AND EQ ISZERO PUSH2 0x1728 JUMP JUMPDEST PUSH2 0x17CA DUP4 PUSH2 0x17C5 DUP5 PUSH2 0x12C5 DUP6 PUSH1 0x5 PUSH2 0x106B JUMP JUMPDEST PUSH2 0x177D JUMP JUMPDEST PUSH2 0x1008 PUSH2 0x1800 PUSH2 0x17FA PUSH32 0x17307EAB39AB6107E8899845AD3D59BD9653F200F220920489CA2B5937696C31 SWAP4 PUSH2 0xF8C JUMP JUMPDEST SWAP4 PUSH2 0xF8C JUMP JUMPDEST SWAP4 PUSH2 0x28C PUSH1 0x40 MLOAD SWAP1 JUMP JUMPDEST PUSH2 0x1816 PUSH2 0x250 SWAP2 PUSH2 0x181B JUMP JUMPDEST PUSH2 0x10B2 JUMP JUMPDEST PUSH2 0x1826 SWAP1 PUSH1 0x0 PUSH2 0x1105 JUMP JUMPDEST PUSH2 0x1836 PUSH2 0xEAD PUSH2 0x390 PUSH1 0x0 PUSH2 0xE15 JUMP JUMPDEST EQ ISZERO SWAP1 JUMP JUMPDEST SWAP1 POP MLOAD SWAP1 PUSH2 0x250 DUP3 PUSH2 0x22B JUMP JUMPDEST SWAP1 PUSH1 0x20 DUP3 DUP3 SUB SLT PUSH2 0x23E JUMPI PUSH2 0x266 SWAP2 PUSH2 0x183B JUMP JUMPDEST PUSH1 0x1 PUSH1 0x1 PUSH1 0xA0 SHL SUB SWAP2 DUP3 AND DUP2 MSTORE SWAP2 AND PUSH1 0x20 DUP3 ADD MSTORE PUSH1 0x40 DUP2 ADD SWAP2 SWAP1 SWAP2 MSTORE PUSH1 0x80 PUSH1 0x60 DUP3 ADD DUP2 SWAP1 MSTORE PUSH2 0x266 SWAP3 SWAP2 ADD SWAP1 PUSH2 0x320 JUMP JUMPDEST PUSH1 0x40 MLOAD RETURNDATASIZE PUSH1 0x0 DUP3 RETURNDATACOPY RETURNDATASIZE SWAP1 REVERT JUMPDEST RETURNDATASIZE ISZERO PUSH2 0x18B3 JUMPI PUSH2 0x18A8 RETURNDATASIZE PUSH2 0x134E JUMP JUMPDEST SWAP1 RETURNDATASIZE PUSH1 0x0 PUSH1 0x20 DUP5 ADD RETURNDATACOPY JUMP JUMPDEST PUSH1 0x60 SWAP1 JUMP JUMPDEST SWAP2 SWAP1 SWAP4 SWAP3 PUSH2 0x18C4 PUSH1 0x0 SWAP1 JUMP JUMPDEST SWAP5 PUSH2 0x18CE DUP2 PUSH2 0x1B22 JUMP JUMPDEST ISZERO PUSH2 0x19B0 JUMPI SWAP1 PUSH2 0x1915 PUSH1 0x0 PUSH2 0x18ED PUSH2 0x18E8 PUSH1 0x20 SWAP7 SWAP6 PUSH2 0xF8C JUMP JUMPDEST PUSH2 0xF8C JUMP JUMPDEST SWAP3 PUSH2 0x1920 PUSH4 0x150B7A02 SWAP2 PUSH2 0x18FE CALLER SWAP1 JUMP JUMPDEST SWAP7 PUSH2 0x1908 PUSH1 0x40 MLOAD SWAP1 JUMP JUMPDEST SWAP10 DUP11 SWAP9 DUP10 SWAP8 DUP9 SWAP7 PUSH1 0xE0 SHL SWAP1 JUMP JUMPDEST DUP7 MSTORE PUSH1 0x4 DUP7 ADD PUSH2 0x185C JUMP JUMPDEST SUB SWAP3 GAS CALL PUSH1 0x0 SWAP2 DUP2 PUSH2 0x1980 JUMPI JUMPDEST POP PUSH2 0x1963 JUMPI POP PUSH2 0x193B PUSH2 0x1899 JUMP JUMPDEST DUP1 MLOAD PUSH2 0x194E PUSH2 0x194A PUSH1 0x0 PUSH2 0x4AB JUMP JUMPDEST SWAP2 SWAP1 JUMP JUMPDEST SUB PUSH2 0x195B JUMPI PUSH1 0x40 MLOAD PUSH2 0x13A6 JUMP JUMPDEST DUP1 MLOAD SWAP1 PUSH1 0x20 ADD REVERT JUMPDEST SWAP1 SWAP2 POP PUSH2 0x148B PUSH4 0xA85BD01 PUSH1 0xE1 SHL JUMPDEST SWAP2 PUSH1 0x1 PUSH1 0x1 PUSH1 0xE0 SHL SUB NOT AND SWAP1 JUMP JUMPDEST PUSH2 0x19A2 SWAP2 SWAP3 POP PUSH1 0x20 RETURNDATASIZE DUP2 GT PUSH2 0x19A9 JUMPI JUMPDEST PUSH2 0x199A DUP2 DUP4 PUSH2 0x5C5 JUMP JUMPDEST DUP2 ADD SWAP1 PUSH2 0x1848 JUMP JUMPDEST SWAP1 CODESIZE PUSH2 0x192D JUMP JUMPDEST POP RETURNDATASIZE PUSH2 0x1990 JUMP JUMPDEST POP PUSH1 0x1 SWAP5 POP POP POP POP JUMP JUMPDEST ISZERO PUSH2 0x19C1 JUMPI JUMP JUMPDEST PUSH1 0x40 MLOAD PUSH3 0x461BCD PUSH1 0xE5 SHL DUP2 MSTORE PUSH1 0x20 PUSH1 0x4 DUP3 ADD MSTORE PUSH1 0x2B PUSH1 0x24 DUP3 ADD MSTORE PUSH32 0x455243373231456E756D657261626C653A206F776E657220696E646578206F75 PUSH1 0x44 DUP3 ADD MSTORE PUSH11 0x74206F6620626F756E6473 PUSH1 0xA8 SHL PUSH1 0x64 DUP3 ADD MSTORE PUSH1 0x84 SWAP1 REVERT JUMPDEST PUSH2 0x266 SWAP2 PUSH2 0x1A4B PUSH2 0x10AD SWAP3 PUSH2 0x1A2D PUSH1 0x0 SWAP1 JUMP JUMPDEST POP PUSH2 0x1A44 PUSH2 0x1A3D PUSH2 0x266 DUP4 PUSH2 0x1075 JUMP JUMPDEST DUP5 LT PUSH2 0x19BA JUMP JUMPDEST PUSH1 0x7 PUSH2 0x106B JUMP JUMPDEST PUSH2 0x4B8 JUMP JUMPDEST ISZERO PUSH2 0x1A57 JUMPI JUMP JUMPDEST PUSH1 0x40 MLOAD PUSH3 0x461BCD PUSH1 0xE5 SHL DUP2 MSTORE PUSH1 0x20 PUSH1 0x4 DUP3 ADD MSTORE PUSH1 0x2C PUSH1 0x24 DUP3 ADD MSTORE PUSH32 0x455243373231456E756D657261626C653A20676C6F62616C20696E646578206F PUSH1 0x44 DUP3 ADD MSTORE PUSH12 0x7574206F6620626F756E6473 PUSH1 0xA0 SHL PUSH1 0x64 DUP3 ADD MSTORE PUSH1 0x84 SWAP1 REVERT JUMPDEST PUSH4 0x4E487B71 PUSH1 0xE0 SHL PUSH1 0x0 MSTORE PUSH1 0x32 PUSH1 0x4 MSTORE PUSH1 0x24 PUSH1 0x0 REVERT JUMPDEST DUP1 SLOAD DUP3 LT ISZERO PUSH2 0x1AEA JUMPI PUSH2 0x1AE1 PUSH1 0x1 SWAP2 PUSH1 0x0 MSTORE PUSH1 0x20 PUSH1 0x0 KECCAK256 SWAP1 JUMP JUMPDEST SWAP2 MUL ADD SWAP1 PUSH1 0x0 SWAP1 JUMP JUMPDEST PUSH2 0x1AB1 JUMP JUMPDEST PUSH2 0x1B1C PUSH2 0x266 SWAP2 PUSH2 0x1AFE PUSH1 0x0 SWAP1 JUMP JUMPDEST POP PUSH2 0x1B15 PUSH2 0x1B0E PUSH2 0x266 PUSH1 0x9 SLOAD SWAP1 JUMP JUMPDEST DUP3 LT PUSH2 0x1A50 JUMP JUMPDEST PUSH1 0x9 PUSH2 0x1AC7 JUMP JUMPDEST SWAP1 PUSH2 0x8AB JUMP JUMPDEST EXTCODESIZE PUSH2 0x1B30 PUSH2 0x194A PUSH1 0x0 PUSH2 0x4AB JUMP JUMPDEST GT SWAP1 JUMP JUMPDEST CALLVALUE PUSH32 0x88A5966D370B9919B20F3E2C13FF65706F196A4E32CC2C12BF57088F88525874 PUSH2 0x1B6C PUSH2 0x1B62 CALLER PUSH2 0xF8C JUMP JUMPDEST SWAP3 PUSH2 0x2E5 PUSH1 0x40 MLOAD SWAP1 JUMP JUMPDEST SUB SWAP1 LOG2 JUMP JUMPDEST PUSH2 0x266 SWAP1 PUSH4 0x780E9D63 PUSH1 0xE0 SHL PUSH1 0x1 PUSH1 0x1 PUSH1 0xE0 SHL SUB NOT DUP3 AND EQ SWAP1 DUP2 ISZERO PUSH2 0x1B94 JUMPI POP SWAP1 JUMP JUMPDEST PUSH2 0x266 SWAP2 POP PUSH2 0x1BBE JUMP JUMPDEST PUSH2 0x1BB1 PUSH2 0x1BAB PUSH2 0x266 SWAP3 SWAP1 JUMP JUMPDEST PUSH1 0xE0 SHL SWAP1 JUMP JUMPDEST PUSH1 0x1 PUSH1 0x1 PUSH1 0xE0 SHL SUB NOT AND SWAP1 JUMP JUMPDEST PUSH2 0x1BCE PUSH2 0x1BB1 PUSH4 0x49064906 PUSH2 0x1B9E JUMP JUMPDEST PUSH1 0x1 PUSH1 0x1 PUSH1 0xE0 SHL SUB NOT DUP3 AND EQ SWAP1 DUP2 ISZERO PUSH2 0x1BE5 JUMPI POP SWAP1 JUMP JUMPDEST PUSH2 0x266 SWAP2 POP PUSH4 0x80AC58CD PUSH1 0xE0 SHL PUSH1 0x1 PUSH1 0x1 PUSH1 0xE0 SHL SUB NOT DUP3 AND EQ SWAP1 DUP2 ISZERO PUSH2 0x1C1A JUMPI JUMPDEST DUP2 ISZERO PUSH2 0x1C10 JUMPI POP SWAP1 JUMP JUMPDEST PUSH2 0x266 SWAP2 POP PUSH2 0x1C35 JUMP JUMPDEST PUSH1 0x1 PUSH1 0x1 PUSH1 0xE0 SHL SUB NOT DUP2 AND PUSH4 0x5B5E139F PUSH1 0xE0 SHL EQ SWAP2 POP PUSH2 0x1C06 JUMP JUMPDEST PUSH2 0x148B PUSH4 0x1FFC9A7 PUSH1 0xE0 SHL PUSH2 0x1972 JUMP JUMPDEST PUSH2 0x266 SWAP1 PUSH2 0x1C83 JUMP JUMPDEST PUSH2 0x354 PUSH2 0x1C66 SWAP3 PUSH1 0x20 SWAP3 PUSH2 0x1C60 DUP2 MLOAD SWAP1 JUMP JUMPDEST SWAP5 DUP6 SWAP3 SWAP1 JUMP JUMPDEST SWAP4 DUP5 SWAP2 ADD PUSH2 0x2FD JUMP JUMPDEST PUSH2 0x1C7D SWAP1 PUSH2 0x266 SWAP4 SWAP3 PUSH2 0x1C4E JUMP JUMPDEST SWAP1 PUSH2 0x1C4E JUMP JUMPDEST PUSH2 0x1C8C DUP2 PUSH2 0x180A JUMP JUMPDEST PUSH2 0x1C9F PUSH2 0x1C9A DUP3 PUSH1 0x6 PUSH2 0x4B8 JUMP JUMPDEST PUSH2 0x112C JUMP JUMPDEST PUSH2 0x1CA7 PUSH2 0x1D5F JUMP JUMPDEST DUP1 MLOAD PUSH1 0x0 SWAP1 PUSH2 0x1CB8 PUSH2 0x194A DUP4 PUSH2 0x4AB JUMP JUMPDEST EQ PUSH2 0x1D0B JUMPI PUSH2 0x1CCB PUSH2 0x194A PUSH2 0x16C8 DUP6 MLOAD SWAP1 JUMP JUMPDEST GT PUSH2 0x1CDB JUMPI POP POP PUSH2 0x266 SWAP1 PUSH2 0x1D12 JUMP JUMPDEST PUSH2 0x266 SWAP3 POP PUSH2 0x1CFF SWAP2 PUSH2 0x266 SWAP2 PUSH2 0x1CF1 PUSH1 0x40 MLOAD SWAP1 JUMP JUMPDEST SWAP4 DUP5 SWAP3 PUSH1 0x20 DUP5 ADD SWAP3 DUP4 PUSH2 0x1C6F JUMP JUMPDEST SWAP1 DUP2 SUB DUP3 MSTORE SUB DUP3 PUSH2 0x5C5 JUMP JUMPDEST POP POP SWAP1 POP SWAP1 JUMP JUMPDEST PUSH2 0x1D1B DUP2 PUSH2 0x180A JUMP JUMPDEST PUSH2 0x1D23 PUSH2 0x1D5F JUMP JUMPDEST DUP1 MLOAD PUSH2 0x1D32 PUSH2 0x194A PUSH1 0x0 PUSH2 0x4AB JUMP JUMPDEST GT ISZERO PUSH2 0x1D55 JUMPI PUSH2 0x266 PUSH2 0x1CFF SWAP2 PUSH2 0x1D4B PUSH2 0x266 SWAP5 PUSH2 0x1DB8 JUMP JUMPDEST SWAP1 PUSH2 0x1CF1 PUSH1 0x40 MLOAD SWAP1 JUMP JUMPDEST POP POP PUSH2 0x266 PUSH2 0x136A JUMP JUMPDEST PUSH1 0x60 JUMPDEST POP PUSH2 0x266 PUSH2 0x136A JUMP JUMPDEST CALLDATASIZE SWAP1 CALLDATACOPY JUMP JUMPDEST SWAP1 PUSH2 0x250 PUSH2 0x1D86 PUSH2 0x1D80 DUP5 PUSH2 0x134E JUMP JUMPDEST SWAP4 PUSH2 0x95D JUMP JUMPDEST PUSH1 0x1F NOT ADD PUSH1 0x20 DUP5 ADD PUSH2 0x1D6B JUMP JUMPDEST PUSH4 0x4E487B71 PUSH1 0xE0 SHL PUSH1 0x0 MSTORE PUSH1 0x12 PUSH1 0x4 MSTORE PUSH1 0x24 PUSH1 0x0 REVERT JUMPDEST DUP2 ISZERO PUSH2 0x1DB3 JUMPI DIV SWAP1 JUMP JUMPDEST PUSH2 0x1D93 JUMP JUMPDEST PUSH2 0x1DC1 DUP2 PUSH2 0x1E44 JUMP JUMPDEST SWAP1 PUSH2 0x1DD1 PUSH1 0x1 SWAP3 PUSH2 0x354 DUP5 PUSH2 0x4AB JUMP JUMPDEST SWAP2 DUP1 PUSH2 0x1DDC DUP5 PUSH2 0x1D70 JUMP JUMPDEST SWAP4 PUSH1 0x20 ADD DUP5 ADD SWAP1 JUMPDEST PUSH2 0x1DEF JUMPI JUMPDEST POP POP POP SWAP1 JUMP JUMPDEST PUSH2 0x1E23 SWAP1 PUSH1 0x0 NOT ADD SWAP3 PUSH16 0x181899199A1A9B1B9C1CB0B131B232B3 PUSH1 0x81 SHL PUSH1 0xA DUP3 MOD BYTE DUP5 MSTORE8 PUSH2 0x1E1D PUSH1 0xA PUSH2 0x4AB JUMP JUMPDEST SWAP1 PUSH2 0x1DA9 JUMP JUMPDEST SWAP1 DUP2 PUSH2 0x1E32 PUSH2 0x194A PUSH1 0x0 PUSH2 0x4AB JUMP JUMPDEST EQ PUSH2 0x1E3F JUMPI SWAP1 SWAP2 DUP2 PUSH2 0x1DE4 JUMP JUMPDEST PUSH2 0x1DE9 JUMP JUMPDEST PUSH2 0x1E4E PUSH1 0x0 PUSH2 0x4AB JUMP JUMPDEST SWAP1 PUSH27 0x184F03E93FF9F4DAA797ED6E38ED64BF6A1F010000000000000000 PUSH2 0x1E74 DUP2 PUSH2 0x4AB JUMP JUMPDEST DUP3 LT ISZERO PUSH2 0x1FC6 JUMPI JUMPDEST POP PUSH14 0x4EE2D6D415B85ACEF8100000000 PUSH2 0x1E95 DUP2 PUSH2 0x4AB JUMP JUMPDEST DUP3 LT ISZERO PUSH2 0x1FA4 JUMPI JUMPDEST POP PUSH7 0x2386F26FC10000 PUSH2 0x1EAF DUP2 PUSH2 0x4AB JUMP JUMPDEST DUP3 LT ISZERO PUSH2 0x1F82 JUMPI JUMPDEST POP PUSH4 0x5F5E100 PUSH2 0x1EC6 DUP2 PUSH2 0x4AB JUMP JUMPDEST DUP3 LT ISZERO PUSH2 0x1F60 JUMPI JUMPDEST POP PUSH2 0x2710 PUSH2 0x1EDB DUP2 PUSH2 0x4AB JUMP JUMPDEST DUP3 LT ISZERO PUSH2 0x1F3E JUMPI JUMPDEST POP PUSH1 0x64 PUSH2 0x1EEF DUP2 PUSH2 0x4AB JUMP JUMPDEST DUP3 LT ISZERO PUSH2 0x1F1C JUMPI JUMPDEST POP PUSH2 0x1F05 PUSH2 0x194A PUSH1 0xA PUSH2 0x4AB JUMP JUMPDEST LT ISZERO PUSH2 0x1F0E JUMPI SWAP1 JUMP JUMPDEST PUSH2 0x266 SWAP1 PUSH2 0x354 PUSH1 0x1 PUSH2 0x4AB JUMP JUMPDEST PUSH2 0x1F37 SWAP2 PUSH2 0x1E1D PUSH2 0x1F2C SWAP3 PUSH2 0x4AB JUMP JUMPDEST SWAP2 PUSH2 0x354 PUSH1 0x2 PUSH2 0x4AB JUMP JUMPDEST SWAP1 CODESIZE PUSH2 0x1EF7 JUMP JUMPDEST PUSH2 0x1F59 SWAP2 PUSH2 0x1E1D PUSH2 0x1F4E SWAP3 PUSH2 0x4AB JUMP JUMPDEST SWAP2 PUSH2 0x354 PUSH1 0x4 PUSH2 0x4AB JUMP JUMPDEST SWAP1 CODESIZE PUSH2 0x1EE3 JUMP JUMPDEST PUSH2 0x1F7B SWAP2 PUSH2 0x1E1D PUSH2 0x1F70 SWAP3 PUSH2 0x4AB JUMP JUMPDEST SWAP2 PUSH2 0x354 PUSH1 0x8 PUSH2 0x4AB JUMP JUMPDEST SWAP1 CODESIZE PUSH2 0x1ECE JUMP JUMPDEST PUSH2 0x1F9D SWAP2 PUSH2 0x1E1D PUSH2 0x1F92 SWAP3 PUSH2 0x4AB JUMP JUMPDEST SWAP2 PUSH2 0x354 PUSH1 0x10 PUSH2 0x4AB JUMP JUMPDEST SWAP1 CODESIZE PUSH2 0x1EB7 JUMP JUMPDEST PUSH2 0x1FBF SWAP2 PUSH2 0x1E1D PUSH2 0x1FB4 SWAP3 PUSH2 0x4AB JUMP JUMPDEST SWAP2 PUSH2 0x354 PUSH1 0x20 PUSH2 0x4AB JUMP JUMPDEST SWAP1 CODESIZE PUSH2 0x1E9D JUMP JUMPDEST PUSH2 0x1FE1 SWAP2 PUSH2 0x1E1D PUSH2 0x1FD6 SWAP3 PUSH2 0x4AB JUMP JUMPDEST SWAP2 PUSH2 0x354 PUSH1 0x40 PUSH2 0x4AB JUMP JUMPDEST SWAP1 CODESIZE PUSH2 0x1E7C JUMP JUMPDEST PUSH2 0x250 SWAP4 SWAP2 SWAP3 SWAP2 PUSH2 0x1FFC PUSH2 0x194A PUSH1 0x1 PUSH2 0x4AB JUMP JUMPDEST GT PUSH2 0x2092 JUMPI PUSH2 0x2030 PUSH2 0x200E PUSH1 0x0 PUSH2 0xE15 JUMP JUMPDEST PUSH1 0x1 PUSH1 0x1 PUSH1 0xA0 SHL SUB DUP2 AND PUSH1 0x1 PUSH1 0x1 PUSH1 0xA0 SHL SUB DUP5 AND SUB PUSH2 0x206F JUMPI PUSH2 0x390 DUP5 PUSH2 0x217C JUMP JUMPDEST PUSH1 0x1 PUSH1 0x1 PUSH1 0xA0 SHL SUB DUP5 AND SUB PUSH2 0x204A JUMPI POP PUSH2 0x250 SWAP2 POP PUSH2 0x229F JUMP JUMPDEST PUSH1 0x1 PUSH1 0x1 PUSH1 0xA0 SHL SUB AND PUSH1 0x1 PUSH1 0x1 PUSH1 0xA0 SHL SUB DUP4 AND SUB PUSH2 0x2066 JUMPI POP POP JUMP JUMPDEST PUSH2 0x250 SWAP2 PUSH2 0x20F5 JUMP JUMPDEST PUSH1 0x1 PUSH1 0x1 PUSH1 0xA0 SHL SUB DUP6 AND PUSH1 0x1 PUSH1 0x1 PUSH1 0xA0 SHL SUB DUP5 AND EQ PUSH2 0x390 JUMPI PUSH2 0x390 DUP5 DUP5 PUSH2 0x21D4 JUMP JUMPDEST PUSH1 0x40 MLOAD PUSH3 0x461BCD PUSH1 0xE5 SHL DUP2 MSTORE PUSH1 0x20 PUSH1 0x4 DUP3 ADD MSTORE PUSH1 0x35 PUSH1 0x24 DUP3 ADD MSTORE PUSH32 0x455243373231456E756D657261626C653A20636F6E7365637574697665207472 PUSH1 0x44 DUP3 ADD MSTORE PUSH21 0x185B9CD9995C9CC81B9BDD081CDD5C1C1BDC9D1959 PUSH1 0x5A SHL PUSH1 0x64 DUP3 ADD MSTORE PUSH1 0x84 SWAP1 REVERT JUMPDEST PUSH2 0x211A DUP3 PUSH2 0x211F PUSH2 0x250 SWAP5 PUSH2 0x211A PUSH2 0x1A4B SWAP6 PUSH2 0x2110 DUP2 PUSH2 0x1075 JUMP JUMPDEST SWAP7 DUP8 SWAP2 PUSH1 0x7 PUSH2 0x106B JUMP JUMPDEST PUSH2 0x159D JUMP JUMPDEST PUSH1 0x8 PUSH2 0x4B8 JUMP JUMPDEST SWAP2 PUSH1 0x0 NOT PUSH1 0x8 SWAP3 SWAP1 SWAP3 MUL SWAP2 DUP3 SHL SWAP2 SHL PUSH2 0xF65 JUMP JUMPDEST SWAP2 SWAP1 PUSH2 0x214B PUSH2 0x266 PUSH2 0xFAC SWAP4 PUSH2 0x4AB JUMP JUMPDEST SWAP1 DUP4 SLOAD PUSH2 0x2126 JUMP JUMPDEST SWAP1 DUP2 SLOAD SWAP2 PUSH1 0x1 PUSH1 0x40 SHL DUP4 LT ISZERO PUSH2 0x5E7 JUMPI DUP3 PUSH2 0x2176 SWAP2 PUSH1 0x1 PUSH2 0x250 SWAP6 ADD DUP2 SSTORE PUSH2 0x1AC7 JUMP JUMPDEST SWAP1 PUSH2 0x213A JUMP JUMPDEST PUSH2 0x250 SWAP1 PUSH2 0x219B PUSH1 0x9 PUSH2 0x266 PUSH2 0x2190 DUP3 SLOAD SWAP1 JUMP JUMPDEST PUSH2 0x211A DUP6 PUSH1 0xA PUSH2 0x4B8 JUMP JUMPDEST PUSH2 0x2153 JUMP JUMPDEST PUSH4 0x4E487B71 PUSH1 0xE0 SHL PUSH1 0x0 MSTORE PUSH1 0x11 PUSH1 0x4 MSTORE PUSH1 0x24 PUSH1 0x0 REVERT JUMPDEST SWAP2 SWAP1 DUP3 SUB SWAP2 DUP3 GT PUSH2 0x21C3 JUMPI JUMP JUMPDEST PUSH2 0x21A0 JUMP JUMPDEST PUSH2 0x250 SWAP2 PUSH1 0x0 SWAP2 PUSH2 0x213A JUMP JUMPDEST PUSH2 0x2222 PUSH2 0x250 SWAP3 PUSH2 0x1A4B PUSH1 0x0 SWAP4 PUSH2 0x1A44 DUP6 PUSH2 0x2222 PUSH2 0x2204 PUSH2 0x21F4 DUP6 PUSH2 0x1075 JUMP JUMPDEST PUSH2 0x21FE PUSH1 0x1 PUSH2 0x4AB JUMP JUMPDEST SWAP1 PUSH2 0x21B6 JUMP JUMPDEST SWAP6 PUSH1 0x8 PUSH2 0x2214 PUSH2 0x10AD DUP4 DUP4 PUSH2 0x4B8 JUMP JUMPDEST DUP9 DUP2 SUB PUSH2 0x2227 JUMPI JUMPDEST POP PUSH2 0x4B8 JUMP JUMPDEST PUSH2 0x21C8 JUMP JUMPDEST DUP1 PUSH2 0x211A DUP9 PUSH2 0x2255 DUP13 PUSH2 0x211A PUSH2 0x225B SWAP7 PUSH2 0x1A4B PUSH2 0x224D PUSH2 0x10AD PUSH1 0x7 SWAP6 PUSH2 0x1A4B DUP10 DUP9 PUSH2 0x106B JUMP JUMPDEST SWAP6 DUP7 SWAP5 PUSH2 0x106B JUMP JUMPDEST DUP5 PUSH2 0x4B8 JUMP JUMPDEST CODESIZE PUSH2 0x221C JUMP JUMPDEST PUSH4 0x4E487B71 PUSH1 0xE0 SHL PUSH1 0x0 MSTORE PUSH1 0x31 PUSH1 0x4 MSTORE PUSH1 0x24 PUSH1 0x0 REVERT JUMPDEST DUP1 SLOAD DUP1 ISZERO PUSH2 0x229A JUMPI PUSH1 0x0 NOT ADD SWAP1 PUSH2 0x2297 PUSH2 0x2291 DUP4 DUP4 PUSH2 0x1AC7 JUMP JUMPDEST SWAP1 PUSH2 0x21C8 JUMP JUMPDEST SSTORE JUMP JUMPDEST PUSH2 0x2261 JUMP JUMPDEST PUSH2 0x22ED PUSH2 0x250 SWAP2 PUSH2 0x266 PUSH1 0x0 PUSH2 0x2222 PUSH1 0x9 SWAP4 PUSH2 0x22BC PUSH2 0x21F4 DUP7 SLOAD SWAP1 JUMP JUMPDEST PUSH2 0x1A4B PUSH1 0xA SWAP2 PUSH2 0x211A PUSH2 0x22DF PUSH2 0x1B1C PUSH2 0x22D8 PUSH2 0x10AD DUP9 DUP9 PUSH2 0x4B8 JUMP JUMPDEST SWAP4 DUP12 PUSH2 0x1AC7 JUMP JUMPDEST PUSH2 0x2255 DUP2 PUSH2 0x2176 DUP6 DUP14 PUSH2 0x1AC7 JUMP JUMPDEST PUSH2 0x2277 JUMP JUMPDEST PUSH2 0x250 SWAP1 PUSH2 0x22FE PUSH2 0xE8C JUMP JUMPDEST PUSH2 0x2318 PUSH2 0x250 SWAP2 PUSH2 0x18E8 PUSH2 0x2311 DUP3 PUSH2 0xF8C JUMP JUMPDEST PUSH1 0xE PUSH2 0xF95 JUMP JUMPDEST PUSH1 0xC PUSH2 0xF95 JUMP JUMPDEST PUSH2 0x250 SWAP1 PUSH2 0x22F2 JUMP JUMPDEST PUSH2 0x250 SWAP1 PUSH2 0x2334 PUSH2 0xE8C JUMP JUMPDEST PUSH2 0x2340 PUSH2 0x250 SWAP2 PUSH2 0xF8C JUMP JUMPDEST PUSH1 0xD PUSH2 0xF95 JUMP JUMPDEST PUSH2 0x250 SWAP1 PUSH2 0x2328 JUMP JUMPDEST SWAP1 POP MLOAD SWAP1 PUSH2 0x250 DUP3 PUSH2 0x8F8 JUMP JUMPDEST SWAP1 PUSH1 0x20 DUP3 DUP3 SUB SLT PUSH2 0x23E JUMPI PUSH2 0x266 SWAP2 PUSH2 0x2350 JUMP JUMPDEST ISZERO PUSH2 0x2378 JUMPI JUMP JUMPDEST PUSH1 0x40 MLOAD PUSH3 0x461BCD PUSH1 0xE5 SHL DUP2 MSTORE PUSH1 0x20 PUSH1 0x4 DUP3 ADD MSTORE PUSH1 0xD PUSH1 0x24 DUP3 ADD MSTORE PUSH13 0x2737BA10309031B932B0BA37B9 PUSH1 0x99 SHL PUSH1 0x44 DUP3 ADD MSTORE PUSH1 0x64 SWAP1 REVERT JUMPDEST PUSH1 0x0 NOT DUP2 EQ PUSH2 0x21C3 JUMPI PUSH1 0x1 ADD SWAP1 JUMP JUMPDEST PUSH2 0x266 PUSH2 0x140 PUSH2 0x949 JUMP JUMPDEST SWAP1 PUSH2 0x269 SWAP1 PUSH2 0x6BE JUMP JUMPDEST PUSH4 0x4E487B71 PUSH1 0xE0 SHL PUSH1 0x0 MSTORE PUSH1 0x0 PUSH1 0x4 MSTORE PUSH1 0x24 PUSH1 0x0 REVERT JUMPDEST DUP2 DUP2 LT PUSH2 0x23F2 JUMPI POP POP JUMP JUMPDEST DUP1 PUSH2 0x2400 PUSH1 0x0 PUSH1 0x1 SWAP4 PUSH2 0x21C8 JUMP JUMPDEST ADD PUSH2 0x23E7 JUMP JUMPDEST SWAP2 SWAP1 PUSH1 0x1F DUP2 GT PUSH2 0x2415 JUMPI POP POP POP JUMP JUMPDEST PUSH2 0x2427 PUSH2 0x250 SWAP4 PUSH1 0x0 MSTORE PUSH1 0x20 PUSH1 0x0 KECCAK256 SWAP1 JUMP JUMPDEST SWAP1 PUSH1 0x20 PUSH1 0x1F DUP5 ADD DUP2 SWAP1 DIV DUP4 ADD SWAP4 LT PUSH2 0x244A JUMPI JUMPDEST PUSH1 0x20 PUSH1 0x1F SWAP1 SWAP2 ADD DIV JUMPDEST ADD SWAP1 PUSH2 0x23E7 JUMP JUMPDEST SWAP1 SWAP2 POP DUP2 SWAP1 PUSH2 0x243A JUMP JUMPDEST PUSH1 0x0 NOT PUSH1 0x8 DUP4 MUL SHR NOT AND SWAP1 PUSH1 0x2 MUL OR SWAP1 JUMP JUMPDEST SWAP1 PUSH2 0x246F DUP2 MLOAD SWAP1 JUMP JUMPDEST SWAP1 PUSH8 0xFFFFFFFFFFFFFFFF DUP3 GT PUSH2 0x5E7 JUMPI PUSH2 0x2493 DUP3 PUSH2 0x248D DUP6 SLOAD PUSH2 0x4F7 JUMP JUMPDEST DUP6 PUSH2 0x2406 JUMP JUMPDEST PUSH1 0x20 SWAP1 PUSH1 0x1F DUP4 GT PUSH1 0x1 EQ PUSH2 0x24C1 JUMPI PUSH2 0xFAC SWAP3 SWAP2 PUSH1 0x0 SWAP2 DUP4 PUSH2 0x24B6 JUMPI JUMPDEST POP POP PUSH2 0x2454 JUMP JUMPDEST ADD MLOAD SWAP1 POP CODESIZE DUP1 PUSH2 0x24AF JUMP JUMPDEST PUSH1 0x1F NOT DUP4 AND SWAP2 PUSH2 0x24D6 DUP6 PUSH1 0x0 MSTORE PUSH1 0x20 PUSH1 0x0 KECCAK256 SWAP1 JUMP JUMPDEST SWAP3 PUSH1 0x0 JUMPDEST DUP2 DUP2 LT PUSH2 0x2514 JUMPI POP SWAP2 PUSH1 0x2 SWAP4 SWAP2 DUP6 PUSH1 0x1 SWAP7 SWAP5 LT PUSH2 0x24FB JUMPI JUMPDEST POP POP POP MUL ADD SWAP1 SSTORE JUMP JUMPDEST ADD MLOAD PUSH1 0x0 NOT PUSH1 0x8 PUSH1 0x1F DUP6 AND MUL SHR NOT AND SWAP1 SSTORE CODESIZE DUP1 DUP1 PUSH2 0x24F2 JUMP JUMPDEST SWAP2 SWAP4 PUSH1 0x20 PUSH1 0x1 DUP2 SWAP3 DUP8 DUP8 ADD MLOAD DUP2 SSTORE ADD SWAP6 ADD SWAP3 ADD PUSH2 0x24DA JUMP JUMPDEST SWAP1 PUSH2 0x250 SWAP2 PUSH2 0x2466 JUMP JUMPDEST PUSH2 0x266 SWAP1 MLOAD PUSH2 0x6BE JUMP JUMPDEST SWAP1 PUSH2 0x178D PUSH2 0x266 PUSH2 0xFAC SWAP3 PUSH2 0x6C8 JUMP JUMPDEST SWAP1 PUSH2 0xFF00 SWAP1 PUSH1 0x8 SHL PUSH2 0xF65 JUMP JUMPDEST SWAP1 PUSH2 0x256D PUSH2 0x266 PUSH2 0xFAC SWAP3 PUSH2 0x6C8 JUMP JUMPDEST DUP3 SLOAD PUSH2 0x2550 JUMP JUMPDEST PUSH2 0x250 SWAP2 SWAP1 PUSH2 0x2641 SWAP1 PUSH2 0x120 SWAP1 PUSH1 0x8 SWAP1 PUSH2 0x2590 DUP2 PUSH2 0x166E DUP8 MLOAD SWAP1 JUMP JUMPDEST PUSH2 0x25B1 PUSH1 0x1 DUP3 ADD PUSH2 0x25AB PUSH1 0x20 DUP9 ADD MLOAD PUSH1 0x1 PUSH1 0x1 PUSH1 0xA0 SHL SUB AND SWAP1 JUMP JUMPDEST SWAP1 PUSH2 0xF95 JUMP JUMPDEST PUSH2 0x25C9 PUSH1 0x2 DUP3 ADD PUSH2 0x25C3 PUSH1 0x40 DUP9 ADD MLOAD SWAP1 JUMP JUMPDEST SWAP1 PUSH2 0x252C JUMP JUMPDEST PUSH2 0x25DB PUSH1 0x3 DUP3 ADD PUSH2 0x25C3 PUSH1 0x60 DUP9 ADD MLOAD SWAP1 JUMP JUMPDEST PUSH2 0x25ED PUSH1 0x4 DUP3 ADD PUSH2 0x25C3 PUSH1 0x80 DUP9 ADD MLOAD SWAP1 JUMP JUMPDEST PUSH2 0x25FF PUSH1 0x5 DUP3 ADD PUSH2 0x25C3 PUSH1 0xA0 DUP9 ADD MLOAD SWAP1 JUMP JUMPDEST PUSH2 0x2611 PUSH1 0x6 DUP3 ADD PUSH2 0x166E PUSH1 0xC0 DUP9 ADD MLOAD SWAP1 JUMP JUMPDEST PUSH2 0x2623 PUSH1 0x7 DUP3 ADD PUSH2 0x166E PUSH1 0xE0 DUP9 ADD MLOAD SWAP1 JUMP JUMPDEST ADD SWAP3 PUSH2 0x263B PUSH2 0x2635 PUSH2 0x100 DUP4 ADD PUSH2 0x2536 JUMP JUMPDEST DUP6 PUSH2 0x2540 JUMP JUMPDEST ADD PUSH2 0x2536 JUMP JUMPDEST SWAP1 PUSH2 0x255D JUMP JUMPDEST SWAP1 PUSH2 0x250 SWAP2 PUSH2 0x2574 JUMP JUMPDEST SWAP4 SWAP6 SWAP2 SWAP6 SWAP5 SWAP1 SWAP3 SWAP5 PUSH2 0x266E PUSH2 0x18E8 PUSH1 0xD SLOAD PUSH1 0x1 PUSH1 0x1 PUSH1 0xA0 SHL SUB AND SWAP1 JUMP JUMPDEST SWAP6 PUSH2 0x268D PUSH1 0x20 PUSH4 0xEFD46065 CALLER SWAP10 PUSH2 0x2684 PUSH1 0x40 MLOAD SWAP1 JUMP JUMPDEST SWAP4 DUP5 SWAP3 PUSH1 0xE0 SHL SWAP1 JUMP JUMPDEST DUP3 MSTORE PUSH1 0x1 PUSH1 0x1 PUSH1 0xA0 SHL SUB DUP12 AND PUSH1 0x4 DUP4 ADD MSTORE PUSH1 0x24 SWAP1 DUP3 SWAP1 GAS STATICCALL DUP1 ISZERO PUSH2 0x2793 JUMPI PUSH2 0x26BD SWAP2 PUSH1 0x0 SWAP2 PUSH2 0x2765 JUMPI JUMPDEST POP PUSH2 0x2371 JUMP JUMPDEST PUSH2 0x26C7 PUSH1 0xF PUSH2 0x4D7 JUMP JUMPDEST SWAP8 PUSH2 0x26D1 DUP10 PUSH2 0x23AD JUMP JUMPDEST PUSH2 0x26DC SWAP1 PUSH1 0xF PUSH2 0x159D JUMP JUMPDEST PUSH1 0x0 SWAP6 PUSH2 0x26E7 PUSH2 0x23BC JUMP JUMPDEST SWAP8 PUSH2 0x26F2 DUP12 DUP10 DUP12 ADD MSTORE JUMP JUMPDEST PUSH1 0x1 PUSH1 0x1 PUSH1 0xA0 SHL SUB DUP11 AND PUSH1 0x20 DUP11 ADD MSTORE PUSH1 0x40 DUP10 ADD MSTORE PUSH1 0x60 DUP9 ADD MSTORE PUSH1 0x80 DUP8 ADD MSTORE PUSH1 0xA0 DUP7 ADD MSTORE PUSH1 0xC0 DUP6 ADD MSTORE PUSH1 0xE0 DUP5 ADD MSTORE PUSH2 0x272D SWAP1 PUSH2 0x100 DUP5 ADD PUSH2 0x23C7 JUMP JUMPDEST PUSH2 0x273B SWAP1 PUSH2 0x120 DUP4 ADD PUSH2 0x23C7 JUMP JUMPDEST PUSH2 0x2746 DUP4 PUSH1 0x11 PUSH2 0x4B8 JUMP JUMPDEST SWAP1 PUSH2 0x2750 SWAP2 PUSH2 0x2647 JUMP JUMPDEST PUSH2 0x275B SWAP1 PUSH1 0x12 PUSH2 0x106B JUMP JUMPDEST SWAP1 PUSH2 0x250 SWAP2 PUSH2 0x2153 JUMP JUMPDEST PUSH2 0x2786 SWAP2 POP PUSH1 0x20 RETURNDATASIZE DUP2 GT PUSH2 0x278C JUMPI JUMPDEST PUSH2 0x277E DUP2 DUP4 PUSH2 0x5C5 JUMP JUMPDEST DUP2 ADD SWAP1 PUSH2 0x235D JUMP JUMPDEST CODESIZE PUSH2 0x26B7 JUMP JUMPDEST POP RETURNDATASIZE PUSH2 0x2774 JUMP JUMPDEST PUSH2 0x188D JUMP JUMPDEST SWAP1 PUSH2 0x27B3 PUSH2 0x27A7 PUSH2 0xD79 DUP5 SLOAD SWAP1 JUMP JUMPDEST SWAP3 PUSH1 0x0 MSTORE PUSH1 0x20 PUSH1 0x0 KECCAK256 SWAP1 JUMP JUMPDEST SWAP1 PUSH1 0x0 JUMPDEST DUP2 DUP2 LT PUSH2 0x27C4 JUMPI POP POP POP SWAP1 JUMP JUMPDEST SWAP1 SWAP2 SWAP3 PUSH2 0x27E8 PUSH2 0x27E1 PUSH1 0x1 SWAP3 PUSH2 0x27D9 DUP8 PUSH2 0x4D7 JUMP JUMPDEST DUP2 MSTORE PUSH1 0x20 ADD SWAP1 JUMP JUMPDEST SWAP5 PUSH1 0x1 ADD SWAP1 JUMP JUMPDEST SWAP3 SWAP2 ADD PUSH2 0x27B7 JUMP JUMPDEST SWAP1 PUSH2 0x266 SWAP2 PUSH2 0x2798 JUMP JUMPDEST SWAP1 PUSH2 0x250 PUSH2 0x606 SWAP3 PUSH2 0x280B PUSH1 0x40 MLOAD SWAP1 JUMP JUMPDEST SWAP4 DUP5 DUP1 SWAP3 PUSH2 0x27F0 JUMP JUMPDEST PUSH2 0x266 SWAP1 PUSH2 0x27FA JUMP JUMPDEST PUSH2 0x2834 PUSH2 0x266 SWAP2 PUSH2 0x282C PUSH1 0x60 SWAP1 JUMP JUMPDEST POP PUSH1 0x12 PUSH2 0x106B JUMP JUMPDEST PUSH2 0x2814 JUMP JUMPDEST PUSH8 0xFFFFFFFFFFFFFFFF DUP2 GT PUSH2 0x5E7 JUMPI PUSH1 0x20 DUP1 SWAP2 MUL ADD SWAP1 JUMP JUMPDEST SWAP1 PUSH2 0x135B PUSH2 0x996 DUP4 PUSH2 0x2839 JUMP JUMPDEST PUSH2 0x2866 PUSH2 0x23BC JUMP JUMPDEST SWAP1 PUSH1 0x0 DUP3 MSTORE PUSH1 0x20 DUP1 DUP1 DUP1 DUP1 DUP1 DUP1 DUP1 DUP1 DUP1 DUP12 ADD PUSH1 0x0 DUP2 MSTORE ADD PUSH1 0x60 DUP2 MSTORE ADD PUSH1 0x60 DUP2 MSTORE ADD PUSH1 0x60 DUP2 MSTORE ADD PUSH1 0x60 DUP2 MSTORE ADD PUSH1 0x0 DUP2 MSTORE ADD PUSH1 0x0 DUP2 MSTORE ADD PUSH1 0x0 DUP2 MSTORE ADD PUSH1 0x0 SWAP1 MSTORE POP JUMP JUMPDEST PUSH2 0x266 PUSH2 0x285E JUMP JUMPDEST PUSH1 0x0 JUMPDEST DUP3 DUP2 LT PUSH2 0x28BE JUMPI POP POP POP JUMP JUMPDEST PUSH1 0x20 SWAP1 PUSH2 0x28C9 PUSH2 0x28A7 JUMP JUMPDEST DUP2 DUP5 ADD MSTORE ADD PUSH2 0x28B2 JUMP JUMPDEST SWAP1 PUSH2 0x250 PUSH2 0x28E9 PUSH2 0x28E3 DUP5 PUSH2 0x2851 JUMP JUMPDEST SWAP4 PUSH2 0x2839 JUMP JUMPDEST PUSH1 0x1F NOT ADD PUSH1 0x20 DUP5 ADD PUSH2 0x28AF JUMP JUMPDEST SWAP1 PUSH2 0x28FF DUP3 MLOAD SWAP1 JUMP JUMPDEST DUP2 LT ISZERO PUSH2 0x1AEA JUMPI PUSH1 0x20 DUP1 SWAP2 MUL ADD ADD SWAP1 JUMP JUMPDEST PUSH2 0x266 SWAP1 PUSH1 0x8 SHR PUSH2 0x612 JUMP JUMPDEST PUSH2 0x266 SWAP1 SLOAD PUSH2 0x2910 JUMP JUMPDEST SWAP1 PUSH2 0x250 PUSH2 0x2A11 PUSH1 0x8 PUSH2 0x2937 PUSH2 0x23BC JUMP JUMPDEST SWAP5 PUSH2 0x2948 PUSH2 0x2944 DUP3 PUSH2 0x4D7 JUMP JUMPDEST DUP8 MSTORE JUMP JUMPDEST PUSH2 0x296F PUSH2 0x295F PUSH1 0x1 DUP4 ADD SLOAD PUSH1 0x1 PUSH1 0x1 PUSH1 0xA0 SHL SUB AND SWAP1 JUMP JUMPDEST PUSH1 0x1 PUSH1 0x1 PUSH1 0xA0 SHL SUB AND PUSH1 0x20 DUP9 ADD MSTORE JUMP JUMPDEST PUSH2 0x2985 PUSH2 0x297E PUSH1 0x2 DUP4 ADD PUSH2 0x5EC JUMP JUMPDEST PUSH1 0x40 DUP9 ADD MSTORE JUMP JUMPDEST PUSH2 0x299B PUSH2 0x2994 PUSH1 0x3 DUP4 ADD PUSH2 0x5EC JUMP JUMPDEST PUSH1 0x60 DUP9 ADD MSTORE JUMP JUMPDEST PUSH2 0x29B1 PUSH2 0x29AA PUSH1 0x4 DUP4 ADD PUSH2 0x5EC JUMP JUMPDEST PUSH1 0x80 DUP9 ADD MSTORE JUMP JUMPDEST PUSH2 0x29C7 PUSH2 0x29C0 PUSH1 0x5 DUP4 ADD PUSH2 0x5EC JUMP JUMPDEST PUSH1 0xA0 DUP9 ADD MSTORE JUMP JUMPDEST PUSH2 0x29DD PUSH2 0x29D6 PUSH1 0x6 DUP4 ADD PUSH2 0x4D7 JUMP JUMPDEST PUSH1 0xC0 DUP9 ADD MSTORE JUMP JUMPDEST PUSH2 0x29F3 PUSH2 0x29EC PUSH1 0x7 DUP4 ADD PUSH2 0x4D7 JUMP JUMPDEST PUSH1 0xE0 DUP9 ADD MSTORE JUMP JUMPDEST PUSH2 0x2A0B PUSH2 0x2A01 DUP4 DUP4 ADD PUSH2 0x618 JUMP JUMPDEST PUSH2 0x100 DUP9 ADD PUSH2 0x23C7 JUMP JUMPDEST ADD PUSH2 0x291C JUMP JUMPDEST PUSH2 0x120 DUP5 ADD PUSH2 0x23C7 JUMP JUMPDEST PUSH2 0x266 SWAP1 PUSH2 0x2926 JUMP JUMPDEST PUSH2 0x2834 PUSH2 0x2A33 SWAP2 PUSH2 0x282C PUSH1 0x60 SWAP1 JUMP JUMPDEST PUSH2 0x2A43 PUSH2 0x2A3E DUP3 MLOAD SWAP1 JUMP JUMPDEST PUSH2 0x28D3 JUMP JUMPDEST SWAP1 PUSH2 0x2A4E PUSH1 0x0 PUSH2 0x4AB JUMP JUMPDEST PUSH2 0x2A59 PUSH2 0x266 DUP4 MLOAD SWAP1 JUMP JUMPDEST DUP2 LT ISZERO PUSH2 0x2AA8 JUMPI PUSH2 0x2AA3 SWAP1 PUSH2 0x2A88 PUSH2 0x2A83 PUSH1 0x11 PUSH2 0x2A7D PUSH2 0x2A79 DUP6 DUP9 PUSH2 0x28F6 JUMP JUMPDEST MLOAD SWAP1 JUMP JUMPDEST SWAP1 PUSH2 0x4B8 JUMP JUMPDEST PUSH2 0x2A1B JUMP JUMPDEST PUSH2 0x2A92 DUP3 DUP7 PUSH2 0x28F6 JUMP JUMPDEST MSTORE PUSH2 0x2A9D DUP2 DUP6 PUSH2 0x28F6 JUMP JUMPDEST POP PUSH2 0x23AD JUMP JUMPDEST PUSH2 0x2A4E JUMP JUMPDEST POP POP SWAP1 JUMP JUMPDEST PUSH2 0x10AD PUSH2 0x266 SWAP2 PUSH2 0x2ABC PUSH1 0x0 SWAP1 JUMP JUMPDEST POP PUSH1 0x14 PUSH2 0x4B8 JUMP JUMPDEST ISZERO PUSH2 0x2ACB JUMPI JUMP JUMPDEST PUSH1 0x40 MLOAD PUSH3 0x461BCD PUSH1 0xE5 SHL DUP2 MSTORE PUSH1 0x20 PUSH1 0x4 DUP3 ADD MSTORE PUSH1 0xF PUSH1 0x24 DUP3 ADD MSTORE PUSH15 0x2737BA103A34329031B932B0BA37B9 PUSH1 0x89 SHL PUSH1 0x44 DUP3 ADD MSTORE PUSH1 0x64 SWAP1 REVERT JUMPDEST PUSH2 0x250 SWAP1 PUSH1 0x11 PUSH2 0x2B52 PUSH2 0x2B28 PUSH1 0x1 PUSH2 0x2B1A DUP6 DUP6 PUSH2 0x4B8 JUMP JUMPDEST ADD SLOAD PUSH1 0x1 PUSH1 0x1 PUSH1 0xA0 SHL SUB AND SWAP1 JUMP JUMPDEST CALLER SWAP3 SWAP1 PUSH2 0x2B3E SWAP1 PUSH2 0x2B38 DUP6 PUSH2 0xEAD JUMP JUMPDEST EQ PUSH2 0x2AC4 JUMP JUMPDEST PUSH1 0x8 PUSH2 0x2B4C DUP6 PUSH1 0x3 SWAP4 PUSH2 0x4B8 JUMP JUMPDEST ADD PUSH2 0x255D JUMP JUMPDEST PUSH1 0x12 PUSH2 0x2B65 PUSH2 0x2B61 DUP4 DUP4 PUSH2 0x106B JUMP JUMPDEST SLOAD SWAP1 JUMP JUMPDEST PUSH2 0x2B6F PUSH1 0x0 PUSH2 0x4AB JUMP JUMPDEST DUP2 DUP2 LT ISZERO PUSH2 0x2BE5 JUMPI PUSH2 0x2B8D PUSH2 0x1B1C DUP3 PUSH2 0x2B88 DUP8 DUP8 PUSH2 0x106B JUMP JUMPDEST PUSH2 0x1AC7 JUMP JUMPDEST DUP6 EQ PUSH2 0x2BA1 JUMPI PUSH2 0x2B9C SWAP1 PUSH2 0x23AD JUMP JUMPDEST PUSH2 0x2B6F JUMP JUMPDEST PUSH2 0x250 SWAP5 POP SWAP2 PUSH2 0x12C5 PUSH2 0x266 SWAP4 PUSH2 0x2176 PUSH2 0x2BDA PUSH2 0x1B1C DUP9 SWAP7 PUSH2 0x2BD4 PUSH2 0x2BC9 PUSH2 0x22ED SWAP12 DUP10 PUSH2 0x106B JUMP JUMPDEST SWAP2 PUSH2 0x21FE PUSH1 0x1 PUSH2 0x4AB JUMP JUMPDEST SWAP1 PUSH2 0x1AC7 JUMP JUMPDEST SWAP2 PUSH2 0x2B88 DUP7 DUP7 PUSH2 0x106B JUMP JUMPDEST POP POP POP POP POP JUMP JUMPDEST SWAP1 PUSH2 0x2BFF SWAP1 PUSH1 0x0 NOT SWAP1 PUSH1 0x20 SUB PUSH1 0x8 MUL SHR SWAP1 JUMP JUMPDEST DUP2 SLOAD AND SWAP1 SSTORE JUMP JUMPDEST SWAP1 PUSH1 0x0 SWAP2 PUSH2 0x2C24 PUSH2 0x2C1C DUP3 PUSH1 0x0 MSTORE PUSH1 0x20 PUSH1 0x0 KECCAK256 SWAP1 JUMP JUMPDEST SWAP3 DUP4 SLOAD PUSH2 0x2454 JUMP JUMPDEST SWAP1 SSTORE SSTORE JUMP JUMPDEST SWAP2 SWAP3 SWAP1 PUSH1 0x20 DUP3 LT ISZERO PUSH2 0x2C81 JUMPI PUSH1 0x1F DUP5 GT PUSH1 0x1 EQ PUSH2 0x2C4B JUMPI PUSH2 0xFAC SWAP3 SWAP4 POP PUSH2 0x2454 JUMP JUMPDEST POP SWAP1 PUSH2 0x2C7C PUSH2 0x250 SWAP4 PUSH1 0x1 PUSH2 0x2C73 PUSH2 0x2C68 DUP6 PUSH1 0x0 MSTORE PUSH1 0x20 PUSH1 0x0 KECCAK256 SWAP1 JUMP JUMPDEST SWAP3 PUSH1 0x1F PUSH1 0x20 SWAP2 ADD DIV SWAP1 JUMP JUMPDEST DUP3 ADD SWAP2 ADD PUSH2 0x23E7 JUMP JUMPDEST PUSH2 0x2C06 JUMP JUMPDEST POP PUSH2 0x2CBA DUP3 SWAP4 PUSH2 0x2C98 PUSH1 0x1 SWAP5 PUSH1 0x0 MSTORE PUSH1 0x20 PUSH1 0x0 KECCAK256 SWAP1 JUMP JUMPDEST PUSH2 0x2443 PUSH1 0x20 PUSH1 0x1F DUP7 ADD DIV DUP3 ADD SWAP3 PUSH1 0x1F DUP7 AND DUP1 PUSH2 0x2CC2 JUMPI JUMPDEST POP PUSH1 0x1F PUSH1 0x20 SWAP2 ADD DIV SWAP1 JUMP JUMPDEST PUSH1 0x2 MUL OR SWAP1 SSTORE JUMP JUMPDEST PUSH2 0x2CCE SWAP1 DUP9 DUP7 SUB PUSH2 0x2BEC JUMP JUMPDEST CODESIZE PUSH2 0x2CAF JUMP JUMPDEST SWAP3 SWAP1 SWAP2 PUSH1 0x1 PUSH1 0x40 SHL DUP3 GT PUSH2 0x5E7 JUMPI PUSH1 0x20 GT ISZERO PUSH2 0x2D1B JUMPI PUSH1 0x20 DUP2 LT ISZERO PUSH2 0x2CFC JUMPI PUSH2 0xFAC SWAP2 PUSH2 0x2454 JUMP JUMPDEST PUSH1 0x1 SWAP2 PUSH1 0xFF NOT AND PUSH2 0x2D12 DUP5 PUSH1 0x0 MSTORE PUSH1 0x20 PUSH1 0x0 KECCAK256 SWAP1 JUMP JUMPDEST SSTORE PUSH1 0x2 MUL ADD SWAP1 SSTORE JUMP JUMPDEST PUSH1 0x1 SWAP2 POP PUSH1 0x2 MUL ADD SWAP1 SSTORE JUMP JUMPDEST SWAP1 DUP2 SLOAD PUSH2 0x2D33 DUP2 PUSH2 0x4F7 JUMP JUMPDEST SWAP1 DUP2 DUP4 GT PUSH2 0x2D5C JUMPI JUMPDEST DUP2 DUP4 LT PUSH2 0x2D4A JUMPI JUMPDEST POP POP POP POP JUMP JUMPDEST PUSH2 0x2D53 SWAP4 PUSH2 0x2C29 JUMP JUMPDEST CODESIZE DUP1 DUP1 DUP1 PUSH2 0x2D44 JUMP JUMPDEST PUSH2 0x2D68 DUP4 DUP4 DUP4 DUP8 PUSH2 0x2CD4 JUMP JUMPDEST PUSH2 0x2D3C JUMP JUMPDEST DUP2 DUP2 MUL SWAP3 SWAP2 DUP2 ISZERO SWAP2 DUP5 DIV EQ OR ISZERO PUSH2 0x21C3 JUMPI JUMP JUMPDEST PUSH1 0x0 PUSH2 0x250 SWAP2 PUSH2 0x2D27 JUMP JUMPDEST SWAP1 PUSH1 0x0 SUB PUSH2 0x2D9C JUMPI PUSH2 0x250 SWAP1 PUSH2 0x2D80 JUMP JUMPDEST PUSH2 0x23D1 JUMP JUMPDEST PUSH1 0x0 SWAP1 PUSH1 0x8 SWAP1 PUSH2 0x2DB1 DUP4 DUP3 PUSH2 0x21C8 JUMP JUMPDEST DUP3 PUSH1 0x1 DUP3 ADD SSTORE PUSH2 0x2DC4 DUP4 PUSH1 0x2 DUP4 ADD PUSH2 0x2D8B JUMP JUMPDEST PUSH2 0x2DD1 DUP4 PUSH1 0x3 DUP4 ADD PUSH2 0x2D8B JUMP JUMPDEST PUSH2 0x2DDE DUP4 PUSH1 0x4 DUP4 ADD PUSH2 0x2D8B JUMP JUMPDEST PUSH2 0x2DEB DUP4 PUSH1 0x5 DUP4 ADD PUSH2 0x2D8B JUMP JUMPDEST PUSH2 0x2DF8 DUP4 PUSH1 0x6 DUP4 ADD PUSH2 0x21C8 JUMP JUMPDEST PUSH2 0x2E05 DUP4 PUSH1 0x7 DUP4 ADD PUSH2 0x21C8 JUMP JUMPDEST ADD SSTORE JUMP JUMPDEST SWAP1 PUSH1 0x0 SUB PUSH2 0x2D9C JUMPI PUSH2 0x250 SWAP1 PUSH2 0x2DA1 JUMP JUMPDEST PUSH2 0x250 SWAP1 PUSH1 0x11 PUSH2 0x2B52 PUSH1 0x0 PUSH2 0x2E48 DUP5 PUSH2 0x2E38 PUSH1 0x1 PUSH2 0x2B1A DUP4 DUP9 PUSH2 0x4B8 JUMP JUMPDEST CALLER SWAP6 SWAP1 PUSH2 0x1A4B SWAP1 PUSH2 0x2B38 DUP9 PUSH2 0xEAD JUMP JUMPDEST PUSH2 0x2E09 JUMP JUMPDEST ISZERO PUSH2 0x2E54 JUMPI JUMP JUMPDEST PUSH1 0x40 MLOAD PUSH3 0x461BCD PUSH1 0xE5 SHL DUP2 MSTORE PUSH1 0x20 PUSH1 0x4 DUP3 ADD MSTORE PUSH1 0x8 PUSH1 0x24 DUP3 ADD MSTORE PUSH8 0x14DBDB190813DD5D PUSH1 0xC2 SHL PUSH1 0x44 DUP3 ADD MSTORE PUSH1 0x64 SWAP1 REVERT JUMPDEST ISZERO PUSH2 0x2E8B JUMPI JUMP JUMPDEST PUSH1 0x40 MLOAD PUSH3 0x461BCD PUSH1 0xE5 SHL DUP2 MSTORE PUSH1 0x20 PUSH1 0x4 DUP3 ADD MSTORE PUSH1 0xD PUSH1 0x24 DUP3 ADD MSTORE PUSH13 0x4E6F7420417661696C61626C65 PUSH1 0x98 SHL PUSH1 0x44 DUP3 ADD MSTORE PUSH1 0x64 SWAP1 REVERT JUMPDEST SWAP1 POP MLOAD SWAP1 PUSH2 0x250 DUP3 PUSH2 0x29F JUMP JUMPDEST SWAP1 PUSH1 0x20 DUP3 DUP3 SUB SLT PUSH2 0x23E JUMPI PUSH2 0x266 SWAP2 PUSH2 0x2EC0 JUMP JUMPDEST ISZERO PUSH2 0x2EE8 JUMPI JUMP JUMPDEST PUSH1 0x40 MLOAD PUSH3 0x461BCD PUSH1 0xE5 SHL DUP2 MSTORE PUSH1 0x20 PUSH1 0x4 DUP3 ADD MSTORE PUSH1 0x11 PUSH1 0x24 DUP3 ADD MSTORE PUSH17 0x105B1B1BDDD85B98D9481B9BDD081CD95D PUSH1 0x7A SHL PUSH1 0x44 DUP3 ADD MSTORE PUSH1 0x64 SWAP1 REVERT JUMPDEST PUSH2 0x269 SWAP1 PUSH2 0xF8C JUMP JUMPDEST PUSH1 0x1 PUSH1 0x1 PUSH1 0xA0 SHL SUB SWAP1 SWAP2 AND DUP2 MSTORE PUSH1 0x60 DUP2 ADD SWAP4 SWAP3 PUSH2 0x250 SWAP3 SWAP1 SWAP2 PUSH1 0x40 SWAP2 PUSH2 0x2F54 SWAP1 PUSH1 0x20 DUP4 ADD SWAP1 PUSH2 0x2F21 JUMP JUMPDEST ADD MSTORE JUMP JUMPDEST ISZERO PUSH2 0x2F5F JUMPI JUMP JUMPDEST PUSH1 0x40 MLOAD PUSH3 0x461BCD PUSH1 0xE5 SHL DUP2 MSTORE PUSH1 0x20 PUSH1 0x4 DUP3 ADD MSTORE PUSH1 0xF PUSH1 0x24 DUP3 ADD MSTORE PUSH15 0x151C985B9CD9995C8819985A5B1959 PUSH1 0x8A SHL PUSH1 0x44 DUP3 ADD MSTORE PUSH1 0x64 SWAP1 REVERT JUMPDEST PUSH2 0x2FA4 PUSH2 0x266 DUP3 PUSH1 0x11 PUSH2 0x4B8 JUMP JUMPDEST PUSH1 0x14 SWAP2 PUSH2 0x2FB4 PUSH2 0x10AD DUP3 DUP6 PUSH2 0x4B8 JUMP JUMPDEST PUSH2 0x2FD1 PUSH1 0x7 DUP5 ADD SWAP2 PUSH2 0x2FCB PUSH2 0x194A PUSH2 0x266 DUP6 PUSH2 0x4D7 JUMP JUMPDEST LT PUSH2 0x2E4D JUMP JUMPDEST PUSH2 0x305F PUSH1 0x8 DUP5 ADD SWAP3 PUSH2 0x2FFE PUSH2 0x2FE5 DUP6 PUSH2 0x291C JUMP JUMPDEST PUSH2 0x2FF8 PUSH2 0x2FF2 PUSH1 0x1 PUSH2 0x6BE JUMP JUMPDEST SWAP2 PUSH2 0x6BE JUMP JUMPDEST EQ PUSH2 0x2E84 JUMP JUMPDEST PUSH2 0x3013 PUSH2 0x18E8 PUSH1 0xC SLOAD PUSH1 0x1 PUSH1 0x1 PUSH1 0xA0 SHL SUB AND SWAP1 JUMP JUMPDEST SWAP5 PUSH1 0x20 PUSH4 0xDD62ED3E CALLER SWAP8 PUSH2 0x3040 PUSH2 0x3029 ADDRESS PUSH2 0xF8C JUMP JUMPDEST SWAP3 PUSH2 0x3033 PUSH1 0x40 MLOAD SWAP1 JUMP JUMPDEST SWAP8 DUP9 SWAP5 DUP6 SWAP4 DUP5 SWAP4 PUSH1 0xE0 SHL SWAP1 JUMP JUMPDEST DUP4 MSTORE PUSH1 0x1 PUSH1 0x1 PUSH1 0xA0 SHL SUB DUP1 DUP15 AND PUSH1 0x4 DUP6 ADD MSTORE AND PUSH1 0x24 DUP4 ADD MSTORE PUSH1 0x44 DUP3 ADD SWAP1 JUMP JUMPDEST SUB SWAP2 GAS STATICCALL SWAP3 DUP4 ISZERO PUSH2 0x2793 JUMPI PUSH1 0x0 SWAP4 PUSH2 0x31DD JUMPI JUMPDEST POP PUSH1 0x6 PUSH1 0x20 SWAP2 ADD PUSH2 0x30AF PUSH2 0x3085 DUP3 PUSH2 0x4D7 JUMP JUMPDEST SWAP5 PUSH2 0x30A8 PUSH2 0x194A PUSH2 0x266 PUSH8 0xDE0B6B3A7640000 SWAP9 PUSH2 0x30A2 DUP11 PUSH2 0x4AB JUMP JUMPDEST SWAP1 PUSH2 0x2D6D JUMP JUMPDEST LT ISZERO PUSH2 0x2EE1 JUMP JUMPDEST PUSH2 0x30C4 PUSH2 0x18E8 PUSH1 0xC SLOAD PUSH1 0x1 PUSH1 0x1 PUSH1 0xA0 SHL SUB AND SWAP1 JUMP JUMPDEST PUSH2 0x3110 PUSH1 0x0 PUSH2 0x30F6 PUSH4 0x23B872DD SWAP8 PUSH2 0x30A2 PUSH2 0x30F0 PUSH2 0x30EA PUSH1 0xE SLOAD PUSH1 0x1 PUSH1 0x1 PUSH1 0xA0 SHL SUB AND SWAP1 JUMP JUMPDEST SWAP8 PUSH2 0x4D7 JUMP JUMPDEST SWAP2 PUSH2 0x4AB JUMP JUMPDEST SWAP7 PUSH2 0x311C PUSH2 0x3103 PUSH1 0x40 MLOAD SWAP1 JUMP JUMPDEST SWAP9 DUP10 SWAP7 DUP8 SWAP6 DUP7 SWAP5 PUSH1 0xE0 SHL SWAP1 JUMP JUMPDEST DUP5 MSTORE DUP14 PUSH1 0x4 DUP6 ADD PUSH2 0x2F2A JUMP JUMPDEST SUB SWAP3 GAS CALL SWAP1 DUP2 ISZERO PUSH2 0x2793 JUMPI PUSH2 0x3172 PUSH2 0x10AD PUSH2 0x266 SWAP3 PUSH2 0x314A PUSH2 0x194A SWAP6 PUSH2 0x3178 SWAP8 PUSH1 0x0 SWAP2 PUSH2 0x31BF JUMPI JUMPDEST POP PUSH2 0x2F58 JUMP JUMPDEST PUSH2 0x3153 DUP2 PUSH2 0x32C5 JUMP JUMPDEST SWAP10 PUSH2 0x1A4B PUSH2 0x3161 DUP4 DUP4 PUSH2 0x4B8 JUMP JUMPDEST PUSH2 0x166E PUSH2 0x316D DUP3 PUSH2 0x4D7 JUMP JUMPDEST PUSH2 0x23AD JUMP JUMPDEST SWAP4 PUSH2 0x4D7 JUMP JUMPDEST LT ISZERO PUSH2 0x31AD JUMPI JUMPDEST POP PUSH2 0x1B6C PUSH2 0x1B62 PUSH32 0xDBD06C5B09E89A22B08C07AA17DFC71D3F3741D98AD99285BE427C36017340E6 SWAP3 PUSH2 0xF8C JUMP JUMPDEST PUSH2 0x31B9 SWAP1 PUSH1 0x2 SWAP1 PUSH2 0x255D JUMP JUMPDEST CODESIZE PUSH2 0x317F JUMP JUMPDEST PUSH2 0x31D7 SWAP2 POP PUSH1 0x20 RETURNDATASIZE DUP2 GT PUSH2 0x278C JUMPI PUSH2 0x277E DUP2 DUP4 PUSH2 0x5C5 JUMP JUMPDEST CODESIZE PUSH2 0x3144 JUMP JUMPDEST PUSH1 0x20 SWAP2 SWAP4 POP PUSH2 0x3203 PUSH1 0x6 SWAP2 DUP4 RETURNDATASIZE DUP2 GT PUSH2 0x320B JUMPI JUMPDEST PUSH2 0x31FB DUP2 DUP4 PUSH2 0x5C5 JUMP JUMPDEST DUP2 ADD SWAP1 PUSH2 0x2ECD JUMP JUMPDEST SWAP4 SWAP2 POP PUSH2 0x3072 JUMP JUMPDEST POP RETURNDATASIZE PUSH2 0x31F1 JUMP JUMPDEST PUSH2 0x266 PUSH2 0x100 PUSH2 0x949 JUMP JUMPDEST PUSH2 0x250 SWAP2 SWAP1 PUSH2 0x32B5 SWAP1 PUSH1 0xE0 SWAP1 PUSH1 0x7 SWAP1 PUSH2 0x3238 DUP2 PUSH2 0x166E DUP8 MLOAD SWAP1 JUMP JUMPDEST PUSH2 0x3253 PUSH1 0x1 DUP3 ADD PUSH2 0x25AB PUSH1 0x20 DUP9 ADD MLOAD PUSH1 0x1 PUSH1 0x1 PUSH1 0xA0 SHL SUB AND SWAP1 JUMP JUMPDEST PUSH2 0x3265 PUSH1 0x2 DUP3 ADD PUSH2 0x25C3 PUSH1 0x40 DUP9 ADD MLOAD SWAP1 JUMP JUMPDEST PUSH2 0x3277 PUSH1 0x3 DUP3 ADD PUSH2 0x25C3 PUSH1 0x60 DUP9 ADD MLOAD SWAP1 JUMP JUMPDEST PUSH2 0x3289 PUSH1 0x4 DUP3 ADD PUSH2 0x25C3 PUSH1 0x80 DUP9 ADD MLOAD SWAP1 JUMP JUMPDEST PUSH2 0x329B PUSH1 0x5 DUP3 ADD PUSH2 0x25C3 PUSH1 0xA0 DUP9 ADD MLOAD SWAP1 JUMP JUMPDEST PUSH2 0x32AD PUSH1 0x6 DUP3 ADD PUSH2 0x166E PUSH1 0xC0 DUP9 ADD MLOAD SWAP1 JUMP JUMPDEST ADD SWAP3 ADD PUSH2 0x2536 JUMP JUMPDEST SWAP1 PUSH2 0x2540 JUMP JUMPDEST SWAP1 PUSH2 0x250 SWAP2 PUSH2 0x321D JUMP JUMPDEST PUSH2 0x32D0 SWAP1 PUSH1 0x11 PUSH2 0x4B8 JUMP JUMPDEST PUSH2 0x32D9 SWAP1 PUSH2 0x2A1B JUMP JUMPDEST PUSH2 0x32E3 PUSH1 0x10 PUSH2 0x4D7 JUMP JUMPDEST SWAP1 PUSH2 0x32ED DUP3 PUSH2 0x23AD JUMP JUMPDEST PUSH2 0x32F8 SWAP1 PUSH1 0x10 PUSH2 0x159D JUMP JUMPDEST PUSH1 0x20 DUP2 ADD MLOAD PUSH1 0x1 PUSH1 0x1 PUSH1 0xA0 SHL SUB AND SWAP1 PUSH1 0x40 DUP2 ADD MLOAD SWAP1 PUSH1 0x60 DUP2 ADD MLOAD PUSH1 0x80 DUP3 ADD MLOAD PUSH1 0xA0 DUP4 ADD MLOAD SWAP2 PUSH1 0xC0 DUP5 ADD PUSH2 0x3329 SWAP1 MLOAD SWAP1 JUMP JUMPDEST SWAP4 PUSH2 0x100 ADD PUSH2 0x3337 SWAP1 PUSH2 0x2536 JUMP JUMPDEST SWAP5 PUSH2 0x3340 PUSH2 0x3212 JUMP JUMPDEST SWAP7 PUSH2 0x3349 DUP10 DUP10 MSTORE JUMP JUMPDEST PUSH1 0x1 PUSH1 0x1 PUSH1 0xA0 SHL SUB AND PUSH1 0x20 DUP9 ADD MSTORE PUSH1 0x40 DUP8 ADD MSTORE PUSH1 0x60 DUP7 ADD MSTORE PUSH1 0x80 DUP6 ADD MSTORE PUSH1 0xA0 DUP5 ADD MSTORE PUSH1 0xC0 DUP4 ADD MSTORE PUSH2 0x337D SWAP1 PUSH1 0xE0 DUP4 ADD PUSH2 0x23C7 JUMP JUMPDEST DUP1 PUSH2 0x3389 DUP4 PUSH1 0x13 PUSH2 0x4B8 JUMP JUMPDEST SWAP1 PUSH2 0x3393 SWAP2 PUSH2 0x32BB JUMP JUMPDEST PUSH2 0x339D DUP3 CALLER PUSH2 0x347F JUMP JUMPDEST PUSH1 0x20 DUP2 ADD MLOAD PUSH1 0x1 PUSH1 0x1 PUSH1 0xA0 SHL SUB AND SWAP1 PUSH1 0x40 DUP2 ADD MLOAD SWAP1 PUSH1 0x60 DUP2 ADD MLOAD PUSH1 0x80 DUP3 ADD MLOAD SWAP1 PUSH1 0xA0 DUP4 ADD MLOAD SWAP3 PUSH1 0xE0 ADD PUSH2 0x33CF SWAP1 PUSH2 0x2536 JUMP JUMPDEST SWAP4 PUSH2 0x33D9 SWAP6 PUSH2 0x3715 JUMP JUMPDEST PUSH2 0x266 SWAP1 DUP3 PUSH2 0x355A JUMP JUMPDEST ISZERO PUSH2 0x33EA JUMPI JUMP JUMPDEST PUSH1 0x40 MLOAD PUSH3 0x461BCD PUSH1 0xE5 SHL DUP2 MSTORE DUP1 PUSH2 0xE88 PUSH1 0x4 DUP3 ADD PUSH1 0x20 DUP1 DUP3 MSTORE DUP2 DUP2 ADD MSTORE PUSH32 0x4552433732313A206D696E7420746F20746865207A65726F2061646472657373 PUSH1 0x40 DUP3 ADD MSTORE PUSH1 0x60 ADD SWAP1 JUMP JUMPDEST ISZERO PUSH2 0x343A JUMPI JUMP JUMPDEST PUSH1 0x40 MLOAD PUSH3 0x461BCD PUSH1 0xE5 SHL DUP2 MSTORE PUSH1 0x20 PUSH1 0x4 DUP3 ADD MSTORE PUSH1 0x1C PUSH1 0x24 DUP3 ADD MSTORE PUSH32 0x4552433732313A20746F6B656E20616C7265616479206D696E74656400000000 PUSH1 0x44 DUP3 ADD MSTORE PUSH1 0x64 SWAP1 REVERT JUMPDEST SWAP1 PUSH2 0x348A PUSH1 0x0 PUSH2 0xE15 JUMP JUMPDEST SWAP2 PUSH2 0x34A9 PUSH1 0x1 PUSH1 0x1 PUSH1 0xA0 SHL SUB DUP5 AND PUSH1 0x1 PUSH1 0x1 PUSH1 0xA0 SHL SUB DUP4 AND EQ ISZERO PUSH2 0x33E3 JUMP JUMPDEST PUSH2 0x34C1 PUSH2 0x34BC PUSH2 0x34B8 DUP5 PUSH2 0x181B JUMP JUMPDEST ISZERO SWAP1 JUMP JUMPDEST PUSH2 0x3433 JUMP JUMPDEST PUSH2 0x167E PUSH2 0x34CE PUSH1 0x1 PUSH2 0x4AB JUMP JUMPDEST PUSH2 0x34DA DUP2 DUP6 DUP6 DUP9 PUSH2 0x1FE8 JUMP JUMPDEST PUSH2 0x34E9 PUSH2 0x34BC PUSH2 0x34B8 DUP7 PUSH2 0x181B JUMP JUMPDEST PUSH2 0x166E PUSH2 0x1674 DUP5 PUSH1 0x3 PUSH2 0x106B JUMP JUMPDEST ISZERO PUSH2 0x34FE JUMPI JUMP JUMPDEST PUSH1 0x40 MLOAD PUSH3 0x461BCD PUSH1 0xE5 SHL DUP2 MSTORE PUSH1 0x20 PUSH1 0x4 DUP3 ADD MSTORE PUSH1 0x2E PUSH1 0x24 DUP3 ADD MSTORE PUSH32 0x45524337323155524953746F726167653A2055524920736574206F66206E6F6E PUSH1 0x44 DUP3 ADD MSTORE PUSH14 0x32BC34B9BA32B73A103A37B5B2B7 PUSH1 0x91 SHL PUSH1 0x64 DUP3 ADD MSTORE PUSH1 0x84 SWAP1 REVERT JUMPDEST SWAP1 PUSH2 0x3580 SWAP1 PUSH2 0x3570 PUSH2 0x356B DUP5 PUSH2 0x181B JUMP JUMPDEST PUSH2 0x34F7 JUMP JUMPDEST PUSH2 0x357B DUP4 PUSH1 0x6 PUSH2 0x4B8 JUMP JUMPDEST PUSH2 0x252C JUMP JUMPDEST PUSH2 0x35AE PUSH32 0xF8E1A15ABA9398E019F0B49DF1A4FDE98EE17AE345CB5F6B5E2C27F5033E8CE7 SWAP2 PUSH2 0x2E5 PUSH1 0x40 MLOAD SWAP1 JUMP JUMPDEST SUB SWAP1 LOG1 JUMP JUMPDEST PUSH2 0x269 SWAP1 PUSH1 0x1 PUSH1 0x1 PUSH1 0xA0 SHL SUB AND PUSH1 0x60 SHL SWAP1 JUMP JUMPDEST PUSH2 0x35D2 PUSH2 0x269 SWAP2 PUSH2 0x6C8 JUMP JUMPDEST PUSH1 0xF8 SHL SWAP1 JUMP JUMPDEST PUSH2 0x365F PUSH2 0x36D8 SWAP7 PUSH2 0x1C7D PUSH2 0x369C PUSH2 0x365F PUSH1 0x1 SWAP10 PUSH2 0x1C7D PUSH2 0x3687 PUSH2 0x365F PUSH2 0x266 SWAP16 SWAP13 PUSH2 0x1C7D PUSH2 0x366C PUSH2 0x365F PUSH2 0x363D SWAP16 PUSH2 0x36D1 SWAP16 PUSH2 0x36B8 SWAP16 PUSH1 0x14 PUSH2 0x1C7D SWAP3 PUSH2 0x363D PUSH2 0x3636 PUSH2 0x364B SWAP5 PUSH12 0x3D9131B932B0BA37B9111D11 PUSH1 0xA1 SHL DUP2 MSTORE PUSH1 0xC ADD SWAP1 JUMP JUMPDEST DUP1 SWAP3 PUSH2 0x35B3 JUMP JUMPDEST ADD PUSH1 0x11 PUSH1 0xF9 SHL DUP2 MSTORE PUSH1 0x1 ADD SWAP1 JUMP JUMPDEST PUSH8 0x113730B6B2911D11 PUSH1 0xC1 SHL DUP2 MSTORE PUSH1 0x8 ADD SWAP1 JUMP JUMPDEST PUSH1 0x11 PUSH1 0xF9 SHL DUP2 MSTORE PUSH1 0x1 ADD SWAP1 JUMP JUMPDEST PUSH15 0x113232B9B1B934B83A34B7B7111D11 PUSH1 0x89 SHL DUP2 MSTORE PUSH1 0xF ADD SWAP1 JUMP JUMPDEST PUSH9 0x1134B6B0B3B2911D11 PUSH1 0xB9 SHL DUP2 MSTORE PUSH1 0x9 ADD SWAP1 JUMP JUMPDEST PUSH16 0x1132BC3A32B93730B62FBAB936111D11 PUSH1 0x81 SHL DUP2 MSTORE PUSH1 0x10 ADD SWAP1 JUMP JUMPDEST PUSH13 0x1136B2B234B0AA3CB832911D11 PUSH1 0x99 SHL DUP2 MSTORE PUSH1 0xD ADD SWAP1 JUMP JUMPDEST DUP1 SWAP3 PUSH2 0x35C6 JUMP JUMPDEST PUSH1 0x7D PUSH1 0xF8 SHL DUP2 MSTORE PUSH1 0x1 ADD SWAP1 JUMP JUMPDEST PUSH32 0x646174613A6170706C69636174696F6E2F6A736F6E3B6261736536342C000000 DUP2 MSTORE PUSH2 0x266 SWAP2 SWAP1 PUSH1 0x1D ADD PUSH2 0x1C7D JUMP JUMPDEST PUSH2 0x1CFF PUSH2 0x266 SWAP7 PUSH2 0x3744 SWAP7 PUSH2 0x373F SWAP6 SWAP7 PUSH2 0x372D PUSH1 0x60 SWAP1 JUMP JUMPDEST POP PUSH1 0x40 MLOAD SWAP8 DUP9 SWAP7 PUSH1 0x20 DUP9 ADD SWAP7 DUP8 PUSH2 0x35D8 JUMP JUMPDEST PUSH2 0x37D6 JUMP JUMPDEST PUSH2 0x266 PUSH2 0x3750 PUSH1 0x40 MLOAD SWAP1 JUMP JUMPDEST DUP1 SWAP3 PUSH2 0x1CFF PUSH1 0x20 DUP4 ADD SWAP2 DUP3 PUSH2 0x36E5 JUMP JUMPDEST PUSH2 0x376A PUSH1 0x40 PUSH2 0x134E JUMP JUMPDEST PUSH32 0x4142434445464748494A4B4C4D4E4F505152535455565758595A616263646566 PUSH1 0x20 DUP3 ADD MSTORE PUSH32 0x6768696A6B6C6D6E6F707172737475767778797A303132333435363738392B2F PUSH1 0x40 DUP3 ADD MSTORE SWAP1 JUMP JUMPDEST PUSH2 0x266 PUSH2 0x3760 JUMP JUMPDEST PUSH2 0x266 PUSH2 0x37B9 JUMP JUMPDEST SWAP2 SWAP1 DUP3 ADD DUP1 SWAP3 GT PUSH2 0x21C3 JUMPI JUMP JUMPDEST DUP1 MLOAD PUSH2 0x37E5 PUSH2 0x194A PUSH1 0x0 PUSH2 0x4AB JUMP JUMPDEST EQ PUSH2 0x1D62 JUMPI PUSH2 0x37F2 PUSH2 0x37C1 JUMP JUMPDEST SWAP1 PUSH1 0x4 PUSH2 0x37FD DUP3 MLOAD SWAP1 JUMP JUMPDEST SWAP1 PUSH1 0x1 PUSH2 0x3838 PUSH2 0x3833 PUSH2 0x381B PUSH1 0x2 SWAP6 PUSH2 0x3815 DUP8 PUSH2 0x4AB JUMP JUMPDEST SWAP1 PUSH2 0x37C9 JUMP JUMPDEST SWAP4 PUSH2 0x382E PUSH2 0x30F0 PUSH1 0x3 SWAP7 PUSH2 0x1E1D DUP9 PUSH2 0x4AB JUMP JUMPDEST PUSH2 0x2D6D JUMP JUMPDEST PUSH2 0x1D70 JUMP JUMPDEST SWAP5 ADD SWAP3 PUSH1 0x20 DUP6 ADD SWAP4 DUP2 SWAP1 DUP3 MLOAD DUP4 ADD SWAP2 JUMPDEST DUP3 DUP2 LT PUSH2 0x3883 JUMPI POP POP POP MLOAD MOD SWAP1 DUP2 PUSH1 0x1 EQ PUSH2 0x3873 JUMPI POP PUSH1 0x2 EQ PUSH2 0x3869 JUMPI POP SWAP1 JUMP JUMPDEST PUSH1 0x1 PUSH1 0x3D SWAP2 SUB MSTORE8 SWAP1 JUMP JUMPDEST SWAP1 POP DUP2 PUSH1 0x3D PUSH1 0x1 DUP2 SWAP5 SUB MSTORE8 SUB MSTORE8 SWAP1 JUMP JUMPDEST DUP5 PUSH1 0x1 SWAP2 SWAP8 SWAP3 SWAP4 SWAP8 ADD SWAP2 PUSH1 0x3F DUP3 DUP1 DUP1 DUP7 MLOAD SWAP5 DUP5 DUP7 PUSH1 0x12 SHR AND DUP10 ADD MLOAD DUP2 MSTORE8 ADD DUP4 DUP6 PUSH1 0xC SHR AND DUP9 ADD MLOAD DUP2 MSTORE8 ADD DUP3 DUP5 PUSH1 0x6 SHR AND DUP8 ADD MLOAD DUP2 MSTORE8 ADD SWAP2 AND DUP5 ADD MLOAD DUP2 MSTORE8 ADD SWAP6 SWAP2 SWAP1 PUSH2 0x3848 JUMP JUMPDEST SWAP1 PUSH2 0x250 SWAP2 PUSH2 0x38D6 PUSH2 0xE8C JUMP JUMPDEST PUSH2 0x3974 JUMP JUMPDEST PUSH1 0x1 PUSH1 0x1 PUSH1 0xA0 SHL SUB SWAP1 SWAP2 AND DUP2 MSTORE PUSH1 0x40 DUP2 ADD SWAP3 SWAP2 PUSH2 0x250 SWAP2 PUSH1 0x20 ADD MSTORE JUMP JUMPDEST PUSH1 0x1 PUSH1 0x1 PUSH1 0xA0 SHL SUB SWAP2 DUP3 AND DUP2 MSTORE SWAP2 AND PUSH1 0x20 DUP3 ADD MSTORE PUSH1 0x60 DUP2 ADD SWAP3 SWAP2 PUSH2 0x250 SWAP2 PUSH1 0x40 ADD MSTORE JUMP JUMPDEST ISZERO PUSH2 0x3923 JUMPI JUMP JUMPDEST PUSH1 0x40 MLOAD PUSH3 0x461BCD PUSH1 0xE5 SHL DUP2 MSTORE PUSH1 0x20 PUSH1 0x4 DUP3 ADD MSTORE PUSH1 0x24 DUP1 DUP3 ADD MSTORE PUSH32 0x496E73756666696369656E74204554482062616C616E636520696E20636F6E74 PUSH1 0x44 DUP3 ADD MSTORE PUSH4 0x1C9858DD PUSH1 0xE2 SHL PUSH1 0x64 DUP3 ADD MSTORE PUSH1 0x84 SWAP1 REVERT JUMPDEST SWAP1 PUSH1 0x0 PUSH2 0x3983 PUSH2 0x390 DUP3 PUSH2 0xE15 JUMP JUMPDEST PUSH1 0x1 PUSH1 0x1 PUSH1 0xA0 SHL SUB DUP5 AND SUB PUSH2 0x3A1C JUMPI PUSH2 0x39A8 PUSH2 0x399E ADDRESS PUSH2 0xF8C JUMP JUMPDEST DUP4 SWAP1 BALANCE LT ISZERO PUSH2 0x391C JUMP JUMPDEST DUP1 DUP1 DUP1 DUP5 PUSH2 0x39C4 PUSH2 0x18E8 PUSH2 0x18E8 PUSH1 0xB SLOAD PUSH1 0x1 PUSH1 0x1 PUSH1 0xA0 SHL SUB AND SWAP1 JUMP JUMPDEST DUP3 DUP3 ISZERO PUSH2 0x3A13 JUMPI JUMPDEST CALL ISZERO PUSH2 0x2793 JUMPI PUSH32 0xFFF3B3844276F57024E0B42AFEC1A37F75DB36511E43819A4F2A63AB7862B648 SWAP1 PUSH2 0x39FD CALLER PUSH2 0xF8C JUMP JUMPDEST SWAP3 PUSH2 0x1B6C PUSH2 0x3A0A PUSH1 0x40 MLOAD SWAP1 JUMP JUMPDEST SWAP3 DUP4 SWAP3 DUP4 PUSH2 0x38DB JUMP JUMPDEST POP PUSH2 0x8FC PUSH2 0x39CC JUMP JUMPDEST DUP2 PUSH1 0x20 PUSH2 0x3A2B PUSH2 0x18E8 DUP7 PUSH2 0xF8C JUMP JUMPDEST PUSH4 0xA9059CBB SWAP1 PUSH2 0x3A61 DUP6 PUSH2 0x3A47 PUSH1 0xB SLOAD PUSH1 0x1 PUSH1 0x1 PUSH1 0xA0 SHL SUB AND SWAP1 JUMP JUMPDEST SWAP4 PUSH2 0x3A6C PUSH2 0x3A54 PUSH1 0x40 MLOAD SWAP1 JUMP JUMPDEST SWAP8 DUP9 SWAP7 DUP8 SWAP6 DUP7 SWAP5 PUSH1 0xE0 SHL SWAP1 JUMP JUMPDEST DUP5 MSTORE PUSH1 0x4 DUP5 ADD PUSH2 0x38DB JUMP JUMPDEST SUB SWAP3 GAS CALL SWAP1 DUP2 PUSH2 0x3BCB JUMPI JUMPDEST POP ISZERO DUP2 EQ PUSH2 0x3B9F JUMPI PUSH2 0x3A8B PUSH2 0x18E8 DUP5 PUSH2 0xF8C JUMP JUMPDEST PUSH4 0x42842E0E PUSH2 0x3A99 ADDRESS PUSH2 0xF8C JUMP JUMPDEST PUSH1 0xB SLOAD PUSH1 0x1 PUSH1 0x1 PUSH1 0xA0 SHL SUB AND SWAP3 DUP1 EXTCODESIZE ISZERO PUSH2 0x23E JUMPI PUSH2 0x3ACD DUP6 DUP1 SWAP5 PUSH2 0x3AD8 DUP10 PUSH2 0x3AC0 PUSH1 0x40 MLOAD SWAP1 JUMP JUMPDEST SWAP9 DUP10 SWAP8 DUP9 SWAP7 DUP8 SWAP6 PUSH1 0xE0 SHL SWAP1 JUMP JUMPDEST DUP6 MSTORE PUSH1 0x4 DUP6 ADD PUSH2 0x38F8 JUMP JUMPDEST SUB SWAP3 GAS CALL SWAP1 DUP2 PUSH2 0x3B73 JUMPI JUMPDEST POP ISZERO EQ PUSH2 0x3B48 JUMPI PUSH1 0x40 MLOAD PUSH3 0x461BCD PUSH1 0xE5 SHL DUP2 MSTORE PUSH1 0x20 PUSH1 0x4 DUP3 ADD MSTORE PUSH1 0x30 PUSH1 0x24 DUP3 ADD MSTORE PUSH32 0x546F6B656E2074797065206E6F7420737570706F72746564206F7220696E7375 PUSH1 0x44 DUP3 ADD MSTORE PUSH16 0x6666696369656E742062616C616E6365 PUSH1 0x80 SHL PUSH1 0x64 DUP3 ADD MSTORE PUSH1 0x84 SWAP1 REVERT JUMPDEST PUSH32 0xFFF3B3844276F57024E0B42AFEC1A37F75DB36511E43819A4F2A63AB7862B648 SWAP1 PUSH2 0x39FD CALLER PUSH2 0xF8C JUMP JUMPDEST PUSH2 0x3B92 SWAP1 DUP4 RETURNDATASIZE DUP6 GT PUSH2 0x3B98 JUMPI JUMPDEST PUSH2 0x3B8A DUP2 DUP4 PUSH2 0x5C5 JUMP JUMPDEST DUP2 ADD SWAP1 PUSH2 0x2F2 JUMP JUMPDEST CODESIZE PUSH2 0x3AE3 JUMP JUMPDEST POP RETURNDATASIZE PUSH2 0x3B80 JUMP JUMPDEST POP PUSH32 0xFFF3B3844276F57024E0B42AFEC1A37F75DB36511E43819A4F2A63AB7862B648 SWAP1 PUSH2 0x39FD CALLER PUSH2 0xF8C JUMP JUMPDEST PUSH2 0x3BE2 SWAP1 PUSH1 0x20 RETURNDATASIZE DUP2 GT PUSH2 0x278C JUMPI PUSH2 0x277E DUP2 DUP4 PUSH2 0x5C5 JUMP JUMPDEST PUSH2 0x3A77 JUMP JUMPDEST SWAP1 PUSH2 0x250 SWAP2 PUSH2 0x38C9 JUMP INVALID LOG2 PUSH5 0x6970667358 0x22 SLT KECCAK256 GASLIMIT 0xA7 0xCE PUSH2 0x6AA6 0xD2 0xD7 0xA9 PUSH18 0x7DDC1E43482668D2FD94C11A069B69BAE659 0xD4 0xF8 RETURNDATASIZE SELFDESTRUCT PUSH5 0x736F6C6343 STOP ADDMOD SGT STOP CALLER "},"methodIdentifiers":{"approve(address,uint256)":"095ea7b3","balanceOf(address)":"70a08231","buyNFT(uint256)":"51ed8288","deleteNFTSource(uint256)":"15b684cf","getApproved(uint256)":"081812fc","getNFTDetailsByCreator(address)":"af2217cd","getNFTsByCreator(address)":"ffa03821","getSoldUnitsPerSource(uint256)":"06b177fc","isApprovedForAll(address,address)":"e985e9c5","name()":"06fdde03","nextNFTId()":"c909adc0","nextSourceId()":"926061f0","nfts(uint256)":"265aa621","owner()":"8da5cb5b","ownerOf(uint256)":"6352211e","permanentDeleteNFTSource(uint256)":"8af462cc","renounceOwnership()":"715018a6","safeTransferFrom(address,address,uint256)":"42842e0e","safeTransferFrom(address,address,uint256,bytes)":"b88d4fde","setApprovalForAll(address,bool)":"a22cb465","setBlockFans(address)":"ba908b45","setCreators(address)":"fa3157d5","setNFTSource(string,string,string,string,uint256,uint256,uint8)":"abd48199","supportsInterface(bytes4)":"01ffc9a7","symbol()":"95d89b41","tokenByIndex(uint256)":"4f6ccce7","tokenOfOwnerByIndex(address,uint256)":"2f745c59","tokenURI(uint256)":"c87b56dd","totalSupply()":"18160ddd","transferFrom(address,address,uint256)":"23b872dd","transferOwnership(address)":"f2fde38b","withdraw(address,uint256)":"f3fef3a3"}}}}}