{"contracts/Blockfans.sol":{"Blockfans":{"abi":[{"inputs":[],"stateMutability":"nonpayable","type":"constructor"},{"anonymous":false,"inputs":[{"indexed":true,"internalType":"address","name":"owner","type":"address"},{"indexed":true,"internalType":"address","name":"spender","type":"address"},{"indexed":false,"internalType":"uint256","name":"value","type":"uint256"}],"name":"Approval","type":"event"},{"anonymous":false,"inputs":[{"indexed":true,"internalType":"address","name":"previousOwner","type":"address"},{"indexed":true,"internalType":"address","name":"newOwner","type":"address"}],"name":"OwnershipTransferred","type":"event"},{"anonymous":false,"inputs":[{"indexed":true,"internalType":"address","name":"from","type":"address"},{"indexed":false,"internalType":"uint256","name":"amount","type":"uint256"}],"name":"Received","type":"event"},{"anonymous":false,"inputs":[{"indexed":false,"internalType":"address","name":"sender","type":"address"},{"indexed":false,"internalType":"address","name":"tokenAddress","type":"address"},{"indexed":false,"internalType":"uint256","name":"amountOrTokenId","type":"uint256"}],"name":"Recovered","type":"event"},{"anonymous":false,"inputs":[{"indexed":true,"internalType":"address","name":"from","type":"address"},{"indexed":true,"internalType":"address","name":"to","type":"address"},{"indexed":false,"internalType":"uint256","name":"value","type":"uint256"}],"name":"Transfer","type":"event"},{"stateMutability":"payable","type":"fallback"},{"inputs":[{"internalType":"address","name":"owner","type":"address"},{"internalType":"address","name":"spender","type":"address"}],"name":"allowance","outputs":[{"internalType":"uint256","name":"","type":"uint256"}],"stateMutability":"view","type":"function"},{"inputs":[{"internalType":"address","name":"spender","type":"address"},{"internalType":"uint256","name":"amount","type":"uint256"}],"name":"approve","outputs":[{"internalType":"bool","name":"","type":"bool"}],"stateMutability":"nonpayable","type":"function"},{"inputs":[{"internalType":"address","name":"account","type":"address"}],"name":"balanceOf","outputs":[{"internalType":"uint256","name":"","type":"uint256"}],"stateMutability":"view","type":"function"},{"inputs":[],"name":"companyAddress","outputs":[{"internalType":"address payable","name":"","type":"address"}],"stateMutability":"view","type":"function"},{"inputs":[],"name":"companyPercentage","outputs":[{"internalType":"uint256","name":"","type":"uint256"}],"stateMutability":"view","type":"function"},{"inputs":[],"name":"decimals","outputs":[{"internalType":"uint8","name":"","type":"uint8"}],"stateMutability":"view","type":"function"},{"inputs":[{"internalType":"address","name":"spender","type":"address"},{"internalType":"uint256","name":"subtractedValue","type":"uint256"}],"name":"decreaseAllowance","outputs":[{"internalType":"bool","name":"","type":"bool"}],"stateMutability":"nonpayable","type":"function"},{"inputs":[],"name":"getHolders","outputs":[{"internalType":"address[]","name":"","type":"address[]"},{"internalType":"uint256[]","name":"","type":"uint256[]"}],"stateMutability":"view","type":"function"},{"inputs":[{"internalType":"address","name":"spender","type":"address"},{"internalType":"uint256","name":"addedValue","type":"uint256"}],"name":"increaseAllowance","outputs":[{"internalType":"bool","name":"","type":"bool"}],"stateMutability":"nonpayable","type":"function"},{"inputs":[],"name":"name","outputs":[{"internalType":"string","name":"","type":"string"}],"stateMutability":"view","type":"function"},{"inputs":[],"name":"owner","outputs":[{"internalType":"address","name":"","type":"address"}],"stateMutability":"view","type":"function"},{"inputs":[],"name":"renounceOwnership","outputs":[],"stateMutability":"nonpayable","type":"function"},{"inputs":[{"internalType":"address","name":"_companyAddress","type":"address"}],"name":"setCompanyAddress","outputs":[],"stateMutability":"nonpayable","type":"function"},{"inputs":[{"internalType":"uint256","name":"_companyTax","type":"uint256"}],"name":"setCompanyTax","outputs":[],"stateMutability":"nonpayable","type":"function"},{"inputs":[],"name":"symbol","outputs":[{"internalType":"string","name":"","type":"string"}],"stateMutability":"view","type":"function"},{"inputs":[],"name":"totalSupply","outputs":[{"internalType":"uint256","name":"","type":"uint256"}],"stateMutability":"view","type":"function"},{"inputs":[{"internalType":"address","name":"recipient","type":"address"},{"internalType":"uint256","name":"amount","type":"uint256"}],"name":"transfer","outputs":[{"internalType":"bool","name":"","type":"bool"}],"stateMutability":"nonpayable","type":"function"},{"inputs":[{"internalType":"address","name":"sender","type":"address"},{"internalType":"address","name":"recipient","type":"address"},{"internalType":"uint256","name":"amount","type":"uint256"}],"name":"transferFrom","outputs":[{"internalType":"bool","name":"","type":"bool"}],"stateMutability":"nonpayable","type":"function"},{"inputs":[{"internalType":"address","name":"newOwner","type":"address"}],"name":"transferOwnership","outputs":[],"stateMutability":"nonpayable","type":"function"},{"inputs":[{"internalType":"address","name":"tokenAddress","type":"address"},{"internalType":"uint256","name":"amountOrTokenId","type":"uint256"}],"name":"withdraw","outputs":[],"stateMutability":"nonpayable","type":"function"},{"stateMutability":"payable","type":"receive"}],"evm":{"bytecode":{"linkReferences":{},"object":"6080604052346200002657620000146200014d565b60405161193462000630823961193490f35b600080fd5b634e487b7160e01b600052604160045260246000fd5b90601f01601f191681019081106001600160401b038211176200006357604052565b6200002b565b90620000806200007860405190565b928362000041565b565b6001600160401b0381116200006357602090601f01601f19160190565b90620000b5620000af8362000082565b62000069565b918252565b620000c660096200009f565b68426c6f636b66616e7360b81b602082015290565b620000e5620000ba565b90565b620000f460036200009f565b622320a760e91b602082015290565b620000e5620000e8565b620000e5620000e5620000e59290565b90600019905b9181191691161790565b9062000141620000e562000149926200010d565b82546200011d565b9055565b6200016c6200015b620000db565b6200016562000103565b90620001a8565b6200019033620001896c0c9f2c9cd04674edea400000006200010d565b906200055f565b62000080620001a060056200010d565b600a6200012d565b6200008091620001b891620003ab565b62000080336200043b565b634e487b7160e01b600052602260045260246000fd5b9060016002830492168015620001fc575b6020831014620001f657565b620001c3565b91607f1691620001ea565b9160001960089290920291821b911b62000123565b919062000231620000e562000149936200010d565b90835462000207565b62000080916000916200021c565b81811062000254575050565b806200026460006001936200023a565b0162000248565b9190601f81116200027b57505050565b6200028f6200008093600052602060002090565b906020601f840181900483019310620002b3575b6020601f90910104019062000248565b9091508190620002a3565b90620002c8815190565b906001600160401b0382116200006357620002f082620002e98554620001d9565b856200026b565b602090601f83116001146200032f576200014992916000918362000323575b5050600019600883021c1916906002021790565b0151905038806200030f565b601f198316916200034585600052602060002090565b9260005b81811062000386575091600293918560019694106200036c575b50505002019055565b01516000196008601f8516021c1916905538808062000363565b9193602060018192878701518155019501920162000349565b906200008091620002be565b90620003bd620000809260036200039f565b60046200039f565b620000e5905b6001600160a01b031690565b620000e59054620003c5565b906001600160a01b039062000123565b620000e590620003cb906001600160a01b031682565b620000e590620003f3565b620000e59062000409565b9062000433620000e5620001499262000414565b8254620003e3565b620004476005620003d7565b90620004558160056200041f565b6200048c620004857f8be0079c531659141344cd1fd0a4f28419497f9722a3daafe3b4186f6b6457e09362000414565b9162000414565b916200049760405190565b80805b0390a3565b620003cb620000e5620000e59290565b620000e5906200049f565b15620004c257565b60405162461bcd60e51b815260206004820152601f60248201527f45524332303a206d696e7420746f20746865207a65726f2061646472657373006044820152606490fd5b620000e59081565b620000e5905462000507565b634e487b7160e01b600052601160045260246000fd5b919082018092116200053f57565b6200051b565b90620005519062000414565b600052602052604060002090565b6000620005dc620005c1836200057584620004af565b93620005986200058586620003cb565b6200059084620003cb565b1415620004ba565b620005bb620005b388620005ad60026200050f565b62000531565b60026200012d565b62000545565b620005d585620005d1836200050f565b0190565b906200012d565b6200049a62000617620006107fddf252ad1be2c89b69c2b068fc378daa952ba7f163c4a11628f55a4df523b3ef9362000414565b9362000414565b936200062260405190565b918291829081526020019056fe60806040526004361015610026575b361561001e5761001c610ca8565b005b61001c610ca8565b60003560e01c806306fdde0314610166578063095ea7b314610161578063106f09f21461015c57806318160ddd1461015757806323b872dd14610152578063313ce5671461014d57806339509351146101485780634f63a7721461014357806353e1ead91461013e5780635fe8e7cc1461013957806370a0823114610134578063715018a61461012f5780638da5cb5b1461012a57806395d89b4114610125578063a457c2d714610120578063a9059cbb1461011b578063dae64f4014610116578063dd62ed3e14610111578063f2fde38b1461010c5763f3fef3a30361000e5761064b565b610633565b610617565b6105dc565b6105ac565b610590565b610575565b61055a565b610542565b610527565b6104f9565b610402565b6103ba565b61038a565b61035b565b61033f565b6102f4565b6102c8565b610278565b6101ea565b600091031261017657565b600080fd5b60005b83811061018e5750506000910152565b818101518382015260200161017e565b6101bf6101c86020936101d2936101b3815190565b80835293849260200190565b9586910161017b565b601f01601f191690565b0190565b60208082526101e79291019061019e565b90565b34610176576101fa36600461016b565b6102116102056109bf565b604051918291826101d6565b0390f35b6001600160a01b031690565b6001600160a01b0381165b0361017657565b9050359061024082610221565b565b8061022c565b9050359061024082610242565b9190604083820312610176576101e79061026f8185610233565b93602001610248565b346101765761021161029461028e366004610255565b90610a5f565b60405191829182901515815260200190565b6101e7916008021c81565b906101e791546102a6565b6101e76000600a6102b1565b34610176576102d836600461016b565b6102116102e36102bc565b6040515b9182918290815260200190565b346101765761030436600461016b565b6102116102e3610a01565b9091606082840312610176576101e76103288484610233565b936103368160208601610233565b93604001610248565b346101765761021161029461035536600461030f565b91611499565b346101765761036b36600461016b565b6102116103766109e6565b6040519182918260ff909116815260200190565b34610176576102116102946103a0366004610255565b90610a97565b90602082820312610176576101e791610233565b34610176576103d26103cd3660046103a6565b610d04565b604051005b6101e7916008021c6001600160a01b031690565b906101e791546103d7565b6101e7600060096103eb565b346101765761041236600461016b565b61021161041d6103f6565b604051918291826001600160a01b03909116815260200190565b90610457610450610446845190565b8084529260200190565b9260200190565b9060005b8181106104685750505090565b90919261048e61048760019286516001600160a01b0316815260200190565b9460200190565b92910161045b565b906104a5610450610446845190565b9060005b8181106104b65750505090565b9091926104cc6104876001928651815260200190565b9291016104a9565b60408082526101e79391926104eb91840190610437565b916020818403910152610496565b346101765761050936600461016b565b610511610ddc565b9061021161051e60405190565b928392836104d4565b34610176576102116102e361053d3660046103a6565b610a23565b346101765761055236600461016b565b6103d26106b9565b346101765761056a36600461016b565b61021161041d610677565b346101765761058536600461016b565b6102116102056109c9565b34610176576102116102946105a6366004610255565b90610b10565b34610176576102116102946105c2366004610255565b90610f57565b90602082820312610176576101e791610248565b34610176576103d26105ef3660046105c8565b610d24565b9190604083820312610176576101e79061060e8185610233565b93602001610233565b34610176576102116102e361062d3660046105f4565b90610a3f565b34610176576103d26106463660046103a6565b6107d0565b34610176576103d261065e366004610255565b906118f4565b6101e790610215565b6101e79054610664565b6101e7600561066d565b610689610715565b6102406106a7565b6102156101e76101e79290565b6101e790610691565b6102406106b4600061069e565b61082f565b610240610681565b156106c857565b60405162461bcd60e51b815280610711600482016020808252818101527f4f776e61626c653a2063616c6c6572206973206e6f7420746865206f776e6572604082015260600190565b0390fd5b610240610720610677565b61073961072c33610215565b916001600160a01b031690565b146106c1565b6102409061074b610715565b6107ab565b1561075757565b60405162461bcd60e51b815260206004820152602660248201527f4f776e61626c653a206e6577206f776e657220697320746865207a65726f206160448201526564647265737360d01b6064820152608490fd5b610240906106b46107bf610215600061069e565b6001600160a01b0383161415610750565b6102409061073f565b906001600160a01b03905b9181191691161790565b6101e790610215906001600160a01b031682565b6101e7906107ee565b6101e790610802565b906108246101e761082b9261080b565b82546107d9565b9055565b610839600561066d565b90610845816005610814565b6108786108727f8be0079c531659141344cd1fd0a4f28419497f9722a3daafe3b4186f6b6457e09361080b565b9161080b565b9161088260405190565b80805b0390a3565b634e487b7160e01b600052602260045260246000fd5b90600160028304921680156108c0575b60208310146108bb57565b61088a565b91607f16916108b0565b805460009392916108e76108dd836108a0565b8085529360200190565b9160018116908115610939575060011461090057505050565b6109139192939450600052602060002090565b916000925b8184106109255750500190565b805484840152602090930192600101610918565b92949550505060ff1916825215156020020190565b906101e7916108ca565b634e487b7160e01b600052604160045260246000fd5b90601f01601f1916810190811067ffffffffffffffff82111761099057604052565b610958565b906102406109af926109a660405190565b9384809261094e565b038361096e565b6101e790610995565b6101e760036109b6565b6101e760046109b6565b6109e06101e76101e79290565b60ff1690565b6101e760126109d3565b6101e79081565b6101e790546109f0565b6101e760026109f7565b90610a159061080b565b600052602052604060002090565b610a3a6101e791610a32600090565b506000610a0b565b6109f7565b6101e791610a5a610a3a92610a52600090565b506001610a0b565b610a0b565b610a6a919033610c11565b600190565b634e487b7160e01b600052601160045260246000fd5b91908201809211610a9257565b610a6f565b610a6a9190610ab03392610aab8385610a3f565b610a85565b91610c11565b15610abd57565b60405162461bcd60e51b815260206004820152602560248201527f45524332303a2064656372656173656420616c6c6f77616e63652062656c6f77604482015264207a65726f60d81b6064820152608490fd5b610a6a9190610ab03392610b248385610a3f565b610b3082821015610ab6565b0390565b15610b3b57565b60405162461bcd60e51b8152602060048201526024808201527f45524332303a20617070726f76652066726f6d20746865207a65726f206164646044820152637265737360e01b6064820152608490fd5b15610b9357565b60405162461bcd60e51b815260206004820152602260248201527f45524332303a20617070726f766520746f20746865207a65726f206164647265604482015261737360f01b6064820152608490fd5b90600019906107e4565b6101e76101e76101e79290565b90610c0a6101e761082b92610bed565b8254610be3565b610c50610c3f610c21600061069e565b6102156001600160a01b0382166001600160a01b0386161415610b34565b6001600160a01b0384161415610b8c565b610c6883610c6384610a5a856001610a0b565b610bfa565b610885610c9e610c987f8c5be1e5ebec7d5bd14f71427d1e84f3dd0314c0f7b2291e5b200ac8c7c3b9259361080b565b9361080b565b936102e760405190565b347f88a5966d370b9919b20f3e2c13ff65706f196a4e32cc2c12bf57088f88525874610ce0610cd63361080b565b926102e760405190565b0390a2565b61024090610cf1610715565b610cfd6102409161080b565b6009610814565b61024090610ce5565b61024090610d19610715565b61024090600a610bfa565b61024090610d0d565b90610240610d3a60405190565b928361096e565b67ffffffffffffffff81116109905760208091020190565b90610d6b610d6683610d41565b610d2d565b918252565b369037565b90610240610d8b610d8584610d59565b93610d41565b601f190160208401610d70565b6000198114610a925760010190565b634e487b7160e01b600052603260045260246000fd5b90610dc6825190565b811015610dd7576020809102010190565b610da7565b6006610de781610e63565b90610df182610d75565b90610dfb83610d75565b93610e066000610bed565b845b811015610e5b57610e5481610e4f610e42610e26610e089588610e96565b61053d81610e34868c610dbd565b906001600160a01b03169052565b610e4c838b610dbd565b52565b610d98565b9050610e06565b509250509190565b610e7960006101e792610e74600090565b500190565b60006101e791610e87600090565b50015490565b6101e790610bed565b610ebb610eb66101e793610eb16000610ec095610e74600090565b610ee8565b610e8d565b610691565b610802565b8054821015610dd757610edf600191600052602060002090565b91020190600090565b6101e7916000610f0192610efa600090565b5001610ec5565b906102b1565b15610f0e57565b60405162461bcd60e51b8152602060048201526014602482015273496e73756666696369656e742062616c616e636560601b6044820152606490fd5b91908203918211610a9257565b610a6a919033610f7b610f6982610a23565b8490610f74565b9190565b1015610f07565b610f8482610a23565b600090610f93610f7083610bed565b1480610fe4575b610fd3575b610fbd610f70610fb786610fb286610a23565b610f4a565b92610bed565b0361110257610fcd8160066112c4565b50611102565b610fde8360066111c8565b50610f9f565b50610fee81610bed565b8411610f9a565b15610ffc57565b60405162461bcd60e51b815260206004820152602560248201527f45524332303a207472616e736665722066726f6d20746865207a65726f206164604482015264647265737360d81b6064820152608490fd5b1561105657565b60405162461bcd60e51b815260206004820152602360248201527f45524332303a207472616e7366657220746f20746865207a65726f206164647260448201526265737360e81b6064820152608490fd5b156110ae57565b60405162461bcd60e51b815260206004820152602660248201527f45524332303a207472616e7366657220616d6f756e7420657863656564732062604482015265616c616e636560d01b6064820152608490fd5b61118661117383600061114961113861111a8361069e565b6102156001600160a01b0382166001600160a01b038a161415610ff5565b6001600160a01b038416141561104f565b610a5a6111698861115d610a3a8986610a0b565b610b30828210156110a7565b610c638784610a0b565b611180856101d2836109f7565b90610bfa565b610885610c9e610c987fddf252ad1be2c89b69c2b068fc378daa952ba7f163c4a11628f55a4df523b3ef9361080b565b6101e79081906001600160a01b031681565b906111f5610f706111f06111eb60006101e7966111e3600090565b500194610802565b6111b6565b610bed565b611259565b9160001960089290920291821b911b6107e4565b919061121d6101e761082b9390565b9083546111fa565b9081549168010000000000000000831015610990578261124d91600161024095018155610ec5565b9061120e565b90610a15565b61126a6112668383611299565b1590565b1561129257610a6a91610c6390600161128b846112878482611225565b5490565b9301611253565b5050600090565b6112b2916001610a3a926112ab600090565b5001611253565b6112bf610f706000610bed565b141590565b906112df610f706111f06111eb60006101e7966111e3600090565b61134b565b634e487b7160e01b600052603160045260246000fd5b6102409160009161120e565b805480156113295760001901906113266113208383610ec5565b906112fa565b55565b6112e4565b919061121d6101e761082b93610bed565b6102409160009161132e565b9061135c610a3a8260018501611253565b60009261136884610bed565b82146113bb576101e7926113c194926113cc926113c6600197889361139561138f86610bed565b82610f4a565b888501916113b36113a4845490565b6113ad89610bed565b90610f4a565b8281036113d1575b50505090565b611306565b01611253565b61133f565b61124d6113f46113fc946113eb610f01610c639589610ec5565b92839188610ec5565b888801611253565b3880806113bb565b1561140b57565b60405162461bcd60e51b815260206004820152602860248201527f45524332303a207472616e7366657220616d6f756e74206578636565647320616044820152676c6c6f77616e636560c01b6064820152608490fd5b81810292918115918404141715610a9257565b634e487b7160e01b600052601260045260246000fd5b8115611494570490565b611474565b610a6a9291906114cd336114b86114b08285610a3f565b861115611404565b6114c685610fb28386610a3f565b9083610c11565b6115696114f66114e66114e0600a6109f7565b86611461565b6114f06064610bed565b9061148a565b6115008186610f4a565b9461151461150d85610a23565b8290610f74565b61154b610f70610fb761152688610a23565b93600094611536610f7087610bed565b1480611590575b61157f575b610fb288610a23565b1461156e575b61156361155e600961066d565b61080b565b83611102565b611102565b6115798360066112c4565b50611551565b61158a8960066111c8565b50611542565b5061159a85610bed565b811161153d565b90610240916115ae610715565b611681565b80151561022c565b90505190610240826115b3565b90602082820312610176576101e7916115bb565b6001600160a01b0390911681526040810192916102409160200152565b6040513d6000823e3d90fd5b6001600160a01b039182168152911660208201526060810192916102409160400152565b1561163057565b60405162461bcd60e51b8152602060048201526024808201527f496e73756666696369656e74204554482062616c616e636520696e20636f6e746044820152631c9858dd60e21b6064820152608490fd5b600061168f6102158261069e565b6001600160a01b0383160361171f576116b46116aa3061080b565b8490311015611629565b808080856116c661155e61155e610677565b828215611716575bf115611711573361170c7ffff3b3844276f57024e0b42afec1a37f75db36511e43819a4f2a63ab7862b6489361170360405190565b93849384611605565b0390a1565b6115f9565b506108fc6116ce565b82602061172e61155e8561080b565b63a9059cbb9061175a85611740610677565b9361176561174d60405190565b9788968795869460e01b90565b8452600484016115dc565b03925af190816118c8575b501581146118985761178461155e8361080b565b6342842e0e6117923061080b565b61179a610677565b92803b15610176576117c28580946117cd8a6117b560405190565b9889978896879560e01b90565b855260048501611605565b03925af1908161186c575b50151461183d5760405162461bcd60e51b815260206004820152603060248201527f546f6b656e2074797065206e6f7420737570706f72746564206f7220696e737560448201526f6666696369656e742062616c616e636560801b6064820152608490fd5b3361170c7ffff3b3844276f57024e0b42afec1a37f75db36511e43819a4f2a63ab7862b6489361170360405190565b61188b90833d8511611891575b611883818361096e565b81019061016b565b386117d8565b503d611879565b503361170c7ffff3b3844276f57024e0b42afec1a37f75db36511e43819a4f2a63ab7862b6489361170360405190565b6118e89060203d81116118ed575b6118e0818361096e565b8101906115c8565b611770565b503d6118d6565b90610240916115a156fea264697066735822122060896665394b231498a243608ec88681a215cec22d93481f71af0ebc164fe3d964736f6c63430008130033","opcodes":"PUSH1 0x80 PUSH1 0x40 MSTORE CALLVALUE PUSH3 0x26 JUMPI PUSH3 0x14 PUSH3 0x14D JUMP JUMPDEST PUSH1 0x40 MLOAD PUSH2 0x1934 PUSH3 0x630 DUP3 CODECOPY PUSH2 0x1934 SWAP1 RETURN JUMPDEST PUSH1 0x0 DUP1 REVERT JUMPDEST PUSH4 0x4E487B71 PUSH1 0xE0 SHL PUSH1 0x0 MSTORE PUSH1 0x41 PUSH1 0x4 MSTORE PUSH1 0x24 PUSH1 0x0 REVERT JUMPDEST SWAP1 PUSH1 0x1F ADD PUSH1 0x1F NOT AND DUP2 ADD SWAP1 DUP2 LT PUSH1 0x1 PUSH1 0x1 PUSH1 0x40 SHL SUB DUP3 GT OR PUSH3 0x63 JUMPI PUSH1 0x40 MSTORE JUMP JUMPDEST PUSH3 0x2B JUMP JUMPDEST SWAP1 PUSH3 0x80 PUSH3 0x78 PUSH1 0x40 MLOAD SWAP1 JUMP JUMPDEST SWAP3 DUP4 PUSH3 0x41 JUMP JUMPDEST JUMP JUMPDEST PUSH1 0x1 PUSH1 0x1 PUSH1 0x40 SHL SUB DUP2 GT PUSH3 0x63 JUMPI PUSH1 0x20 SWAP1 PUSH1 0x1F ADD PUSH1 0x1F NOT AND ADD SWAP1 JUMP JUMPDEST SWAP1 PUSH3 0xB5 PUSH3 0xAF DUP4 PUSH3 0x82 JUMP JUMPDEST PUSH3 0x69 JUMP JUMPDEST SWAP2 DUP3 MSTORE JUMP JUMPDEST PUSH3 0xC6 PUSH1 0x9 PUSH3 0x9F JUMP JUMPDEST PUSH9 0x426C6F636B66616E73 PUSH1 0xB8 SHL PUSH1 0x20 DUP3 ADD MSTORE SWAP1 JUMP JUMPDEST PUSH3 0xE5 PUSH3 0xBA JUMP JUMPDEST SWAP1 JUMP JUMPDEST PUSH3 0xF4 PUSH1 0x3 PUSH3 0x9F JUMP JUMPDEST PUSH3 0x2320A7 PUSH1 0xE9 SHL PUSH1 0x20 DUP3 ADD MSTORE SWAP1 JUMP JUMPDEST PUSH3 0xE5 PUSH3 0xE8 JUMP JUMPDEST PUSH3 0xE5 PUSH3 0xE5 PUSH3 0xE5 SWAP3 SWAP1 JUMP JUMPDEST SWAP1 PUSH1 0x0 NOT SWAP1 JUMPDEST SWAP2 DUP2 NOT AND SWAP2 AND OR SWAP1 JUMP JUMPDEST SWAP1 PUSH3 0x141 PUSH3 0xE5 PUSH3 0x149 SWAP3 PUSH3 0x10D JUMP JUMPDEST DUP3 SLOAD PUSH3 0x11D JUMP JUMPDEST SWAP1 SSTORE JUMP JUMPDEST PUSH3 0x16C PUSH3 0x15B PUSH3 0xDB JUMP JUMPDEST PUSH3 0x165 PUSH3 0x103 JUMP JUMPDEST SWAP1 PUSH3 0x1A8 JUMP JUMPDEST PUSH3 0x190 CALLER PUSH3 0x189 PUSH13 0xC9F2C9CD04674EDEA40000000 PUSH3 0x10D JUMP JUMPDEST SWAP1 PUSH3 0x55F JUMP JUMPDEST PUSH3 0x80 PUSH3 0x1A0 PUSH1 0x5 PUSH3 0x10D JUMP JUMPDEST PUSH1 0xA PUSH3 0x12D JUMP JUMPDEST PUSH3 0x80 SWAP2 PUSH3 0x1B8 SWAP2 PUSH3 0x3AB JUMP JUMPDEST PUSH3 0x80 CALLER PUSH3 0x43B JUMP JUMPDEST PUSH4 0x4E487B71 PUSH1 0xE0 SHL PUSH1 0x0 MSTORE PUSH1 0x22 PUSH1 0x4 MSTORE PUSH1 0x24 PUSH1 0x0 REVERT JUMPDEST SWAP1 PUSH1 0x1 PUSH1 0x2 DUP4 DIV SWAP3 AND DUP1 ISZERO PUSH3 0x1FC JUMPI JUMPDEST PUSH1 0x20 DUP4 LT EQ PUSH3 0x1F6 JUMPI JUMP JUMPDEST PUSH3 0x1C3 JUMP JUMPDEST SWAP2 PUSH1 0x7F AND SWAP2 PUSH3 0x1EA JUMP JUMPDEST SWAP2 PUSH1 0x0 NOT PUSH1 0x8 SWAP3 SWAP1 SWAP3 MUL SWAP2 DUP3 SHL SWAP2 SHL PUSH3 0x123 JUMP JUMPDEST SWAP2 SWAP1 PUSH3 0x231 PUSH3 0xE5 PUSH3 0x149 SWAP4 PUSH3 0x10D JUMP JUMPDEST SWAP1 DUP4 SLOAD PUSH3 0x207 JUMP JUMPDEST PUSH3 0x80 SWAP2 PUSH1 0x0 SWAP2 PUSH3 0x21C JUMP JUMPDEST DUP2 DUP2 LT PUSH3 0x254 JUMPI POP POP JUMP JUMPDEST DUP1 PUSH3 0x264 PUSH1 0x0 PUSH1 0x1 SWAP4 PUSH3 0x23A JUMP JUMPDEST ADD PUSH3 0x248 JUMP JUMPDEST SWAP2 SWAP1 PUSH1 0x1F DUP2 GT PUSH3 0x27B JUMPI POP POP POP JUMP JUMPDEST PUSH3 0x28F PUSH3 0x80 SWAP4 PUSH1 0x0 MSTORE PUSH1 0x20 PUSH1 0x0 KECCAK256 SWAP1 JUMP JUMPDEST SWAP1 PUSH1 0x20 PUSH1 0x1F DUP5 ADD DUP2 SWAP1 DIV DUP4 ADD SWAP4 LT PUSH3 0x2B3 JUMPI JUMPDEST PUSH1 0x20 PUSH1 0x1F SWAP1 SWAP2 ADD DIV ADD SWAP1 PUSH3 0x248 JUMP JUMPDEST SWAP1 SWAP2 POP DUP2 SWAP1 PUSH3 0x2A3 JUMP JUMPDEST SWAP1 PUSH3 0x2C8 DUP2 MLOAD SWAP1 JUMP JUMPDEST SWAP1 PUSH1 0x1 PUSH1 0x1 PUSH1 0x40 SHL SUB DUP3 GT PUSH3 0x63 JUMPI PUSH3 0x2F0 DUP3 PUSH3 0x2E9 DUP6 SLOAD PUSH3 0x1D9 JUMP JUMPDEST DUP6 PUSH3 0x26B JUMP JUMPDEST PUSH1 0x20 SWAP1 PUSH1 0x1F DUP4 GT PUSH1 0x1 EQ PUSH3 0x32F JUMPI PUSH3 0x149 SWAP3 SWAP2 PUSH1 0x0 SWAP2 DUP4 PUSH3 0x323 JUMPI JUMPDEST POP POP PUSH1 0x0 NOT PUSH1 0x8 DUP4 MUL SHR NOT AND SWAP1 PUSH1 0x2 MUL OR SWAP1 JUMP JUMPDEST ADD MLOAD SWAP1 POP CODESIZE DUP1 PUSH3 0x30F JUMP JUMPDEST PUSH1 0x1F NOT DUP4 AND SWAP2 PUSH3 0x345 DUP6 PUSH1 0x0 MSTORE PUSH1 0x20 PUSH1 0x0 KECCAK256 SWAP1 JUMP JUMPDEST SWAP3 PUSH1 0x0 JUMPDEST DUP2 DUP2 LT PUSH3 0x386 JUMPI POP SWAP2 PUSH1 0x2 SWAP4 SWAP2 DUP6 PUSH1 0x1 SWAP7 SWAP5 LT PUSH3 0x36C JUMPI JUMPDEST POP POP POP MUL ADD SWAP1 SSTORE JUMP JUMPDEST ADD MLOAD PUSH1 0x0 NOT PUSH1 0x8 PUSH1 0x1F DUP6 AND MUL SHR NOT AND SWAP1 SSTORE CODESIZE DUP1 DUP1 PUSH3 0x363 JUMP JUMPDEST SWAP2 SWAP4 PUSH1 0x20 PUSH1 0x1 DUP2 SWAP3 DUP8 DUP8 ADD MLOAD DUP2 SSTORE ADD SWAP6 ADD SWAP3 ADD PUSH3 0x349 JUMP JUMPDEST SWAP1 PUSH3 0x80 SWAP2 PUSH3 0x2BE JUMP JUMPDEST SWAP1 PUSH3 0x3BD PUSH3 0x80 SWAP3 PUSH1 0x3 PUSH3 0x39F JUMP JUMPDEST PUSH1 0x4 PUSH3 0x39F JUMP JUMPDEST PUSH3 0xE5 SWAP1 JUMPDEST PUSH1 0x1 PUSH1 0x1 PUSH1 0xA0 SHL SUB AND SWAP1 JUMP JUMPDEST PUSH3 0xE5 SWAP1 SLOAD PUSH3 0x3C5 JUMP JUMPDEST SWAP1 PUSH1 0x1 PUSH1 0x1 PUSH1 0xA0 SHL SUB SWAP1 PUSH3 0x123 JUMP JUMPDEST PUSH3 0xE5 SWAP1 PUSH3 0x3CB SWAP1 PUSH1 0x1 PUSH1 0x1 PUSH1 0xA0 SHL SUB AND DUP3 JUMP JUMPDEST PUSH3 0xE5 SWAP1 PUSH3 0x3F3 JUMP JUMPDEST PUSH3 0xE5 SWAP1 PUSH3 0x409 JUMP JUMPDEST SWAP1 PUSH3 0x433 PUSH3 0xE5 PUSH3 0x149 SWAP3 PUSH3 0x414 JUMP JUMPDEST DUP3 SLOAD PUSH3 0x3E3 JUMP JUMPDEST PUSH3 0x447 PUSH1 0x5 PUSH3 0x3D7 JUMP JUMPDEST SWAP1 PUSH3 0x455 DUP2 PUSH1 0x5 PUSH3 0x41F JUMP JUMPDEST PUSH3 0x48C PUSH3 0x485 PUSH32 0x8BE0079C531659141344CD1FD0A4F28419497F9722A3DAAFE3B4186F6B6457E0 SWAP4 PUSH3 0x414 JUMP JUMPDEST SWAP2 PUSH3 0x414 JUMP JUMPDEST SWAP2 PUSH3 0x497 PUSH1 0x40 MLOAD SWAP1 JUMP JUMPDEST DUP1 DUP1 JUMPDEST SUB SWAP1 LOG3 JUMP JUMPDEST PUSH3 0x3CB PUSH3 0xE5 PUSH3 0xE5 SWAP3 SWAP1 JUMP JUMPDEST PUSH3 0xE5 SWAP1 PUSH3 0x49F JUMP JUMPDEST ISZERO PUSH3 0x4C2 JUMPI JUMP JUMPDEST PUSH1 0x40 MLOAD PUSH3 0x461BCD PUSH1 0xE5 SHL DUP2 MSTORE PUSH1 0x20 PUSH1 0x4 DUP3 ADD MSTORE PUSH1 0x1F PUSH1 0x24 DUP3 ADD MSTORE PUSH32 0x45524332303A206D696E7420746F20746865207A65726F206164647265737300 PUSH1 0x44 DUP3 ADD MSTORE PUSH1 0x64 SWAP1 REVERT JUMPDEST PUSH3 0xE5 SWAP1 DUP2 JUMP JUMPDEST PUSH3 0xE5 SWAP1 SLOAD PUSH3 0x507 JUMP JUMPDEST PUSH4 0x4E487B71 PUSH1 0xE0 SHL PUSH1 0x0 MSTORE PUSH1 0x11 PUSH1 0x4 MSTORE PUSH1 0x24 PUSH1 0x0 REVERT JUMPDEST SWAP2 SWAP1 DUP3 ADD DUP1 SWAP3 GT PUSH3 0x53F JUMPI JUMP JUMPDEST PUSH3 0x51B JUMP JUMPDEST SWAP1 PUSH3 0x551 SWAP1 PUSH3 0x414 JUMP JUMPDEST PUSH1 0x0 MSTORE PUSH1 0x20 MSTORE PUSH1 0x40 PUSH1 0x0 KECCAK256 SWAP1 JUMP JUMPDEST PUSH1 0x0 PUSH3 0x5DC PUSH3 0x5C1 DUP4 PUSH3 0x575 DUP5 PUSH3 0x4AF JUMP JUMPDEST SWAP4 PUSH3 0x598 PUSH3 0x585 DUP7 PUSH3 0x3CB JUMP JUMPDEST PUSH3 0x590 DUP5 PUSH3 0x3CB JUMP JUMPDEST EQ ISZERO PUSH3 0x4BA JUMP JUMPDEST PUSH3 0x5BB PUSH3 0x5B3 DUP9 PUSH3 0x5AD PUSH1 0x2 PUSH3 0x50F JUMP JUMPDEST PUSH3 0x531 JUMP JUMPDEST PUSH1 0x2 PUSH3 0x12D JUMP JUMPDEST PUSH3 0x545 JUMP JUMPDEST PUSH3 0x5D5 DUP6 PUSH3 0x5D1 DUP4 PUSH3 0x50F JUMP JUMPDEST ADD SWAP1 JUMP JUMPDEST SWAP1 PUSH3 0x12D JUMP JUMPDEST PUSH3 0x49A PUSH3 0x617 PUSH3 0x610 PUSH32 0xDDF252AD1BE2C89B69C2B068FC378DAA952BA7F163C4A11628F55A4DF523B3EF SWAP4 PUSH3 0x414 JUMP JUMPDEST SWAP4 PUSH3 0x414 JUMP JUMPDEST SWAP4 PUSH3 0x622 PUSH1 0x40 MLOAD SWAP1 JUMP JUMPDEST SWAP2 DUP3 SWAP2 DUP3 SWAP1 DUP2 MSTORE PUSH1 0x20 ADD SWAP1 JUMP INVALID PUSH1 0x80 PUSH1 0x40 MSTORE PUSH1 0x4 CALLDATASIZE LT ISZERO PUSH2 0x26 JUMPI JUMPDEST CALLDATASIZE ISZERO PUSH2 0x1E JUMPI PUSH2 0x1C PUSH2 0xCA8 JUMP JUMPDEST STOP JUMPDEST PUSH2 0x1C PUSH2 0xCA8 JUMP JUMPDEST PUSH1 0x0 CALLDATALOAD PUSH1 0xE0 SHR DUP1 PUSH4 0x6FDDE03 EQ PUSH2 0x166 JUMPI DUP1 PUSH4 0x95EA7B3 EQ PUSH2 0x161 JUMPI DUP1 PUSH4 0x106F09F2 EQ PUSH2 0x15C JUMPI DUP1 PUSH4 0x18160DDD EQ PUSH2 0x157 JUMPI DUP1 PUSH4 0x23B872DD EQ PUSH2 0x152 JUMPI DUP1 PUSH4 0x313CE567 EQ PUSH2 0x14D JUMPI DUP1 PUSH4 0x39509351 EQ PUSH2 0x148 JUMPI DUP1 PUSH4 0x4F63A772 EQ PUSH2 0x143 JUMPI DUP1 PUSH4 0x53E1EAD9 EQ PUSH2 0x13E JUMPI DUP1 PUSH4 0x5FE8E7CC EQ PUSH2 0x139 JUMPI DUP1 PUSH4 0x70A08231 EQ PUSH2 0x134 JUMPI DUP1 PUSH4 0x715018A6 EQ PUSH2 0x12F JUMPI DUP1 PUSH4 0x8DA5CB5B EQ PUSH2 0x12A JUMPI DUP1 PUSH4 0x95D89B41 EQ PUSH2 0x125 JUMPI DUP1 PUSH4 0xA457C2D7 EQ PUSH2 0x120 JUMPI DUP1 PUSH4 0xA9059CBB EQ PUSH2 0x11B JUMPI DUP1 PUSH4 0xDAE64F40 EQ PUSH2 0x116 JUMPI DUP1 PUSH4 0xDD62ED3E EQ PUSH2 0x111 JUMPI DUP1 PUSH4 0xF2FDE38B EQ PUSH2 0x10C JUMPI PUSH4 0xF3FEF3A3 SUB PUSH2 0xE JUMPI PUSH2 0x64B JUMP JUMPDEST PUSH2 0x633 JUMP JUMPDEST PUSH2 0x617 JUMP JUMPDEST PUSH2 0x5DC JUMP JUMPDEST PUSH2 0x5AC JUMP JUMPDEST PUSH2 0x590 JUMP JUMPDEST PUSH2 0x575 JUMP JUMPDEST PUSH2 0x55A JUMP JUMPDEST PUSH2 0x542 JUMP JUMPDEST PUSH2 0x527 JUMP JUMPDEST PUSH2 0x4F9 JUMP JUMPDEST PUSH2 0x402 JUMP JUMPDEST PUSH2 0x3BA JUMP JUMPDEST PUSH2 0x38A JUMP JUMPDEST PUSH2 0x35B JUMP JUMPDEST PUSH2 0x33F JUMP JUMPDEST PUSH2 0x2F4 JUMP JUMPDEST PUSH2 0x2C8 JUMP JUMPDEST PUSH2 0x278 JUMP JUMPDEST PUSH2 0x1EA JUMP JUMPDEST PUSH1 0x0 SWAP2 SUB SLT PUSH2 0x176 JUMPI JUMP JUMPDEST PUSH1 0x0 DUP1 REVERT JUMPDEST PUSH1 0x0 JUMPDEST DUP4 DUP2 LT PUSH2 0x18E JUMPI POP POP PUSH1 0x0 SWAP2 ADD MSTORE JUMP JUMPDEST DUP2 DUP2 ADD MLOAD DUP4 DUP3 ADD MSTORE PUSH1 0x20 ADD PUSH2 0x17E JUMP JUMPDEST PUSH2 0x1BF PUSH2 0x1C8 PUSH1 0x20 SWAP4 PUSH2 0x1D2 SWAP4 PUSH2 0x1B3 DUP2 MLOAD SWAP1 JUMP JUMPDEST DUP1 DUP4 MSTORE SWAP4 DUP5 SWAP3 PUSH1 0x20 ADD SWAP1 JUMP JUMPDEST SWAP6 DUP7 SWAP2 ADD PUSH2 0x17B JUMP JUMPDEST PUSH1 0x1F ADD PUSH1 0x1F NOT AND SWAP1 JUMP JUMPDEST ADD SWAP1 JUMP JUMPDEST PUSH1 0x20 DUP1 DUP3 MSTORE PUSH2 0x1E7 SWAP3 SWAP2 ADD SWAP1 PUSH2 0x19E JUMP JUMPDEST SWAP1 JUMP JUMPDEST CALLVALUE PUSH2 0x176 JUMPI PUSH2 0x1FA CALLDATASIZE PUSH1 0x4 PUSH2 0x16B JUMP JUMPDEST PUSH2 0x211 PUSH2 0x205 PUSH2 0x9BF JUMP JUMPDEST PUSH1 0x40 MLOAD SWAP2 DUP3 SWAP2 DUP3 PUSH2 0x1D6 JUMP JUMPDEST SUB SWAP1 RETURN JUMPDEST PUSH1 0x1 PUSH1 0x1 PUSH1 0xA0 SHL SUB AND SWAP1 JUMP JUMPDEST PUSH1 0x1 PUSH1 0x1 PUSH1 0xA0 SHL SUB DUP2 AND JUMPDEST SUB PUSH2 0x176 JUMPI JUMP JUMPDEST SWAP1 POP CALLDATALOAD SWAP1 PUSH2 0x240 DUP3 PUSH2 0x221 JUMP JUMPDEST JUMP JUMPDEST DUP1 PUSH2 0x22C JUMP JUMPDEST SWAP1 POP CALLDATALOAD SWAP1 PUSH2 0x240 DUP3 PUSH2 0x242 JUMP JUMPDEST SWAP2 SWAP1 PUSH1 0x40 DUP4 DUP3 SUB SLT PUSH2 0x176 JUMPI PUSH2 0x1E7 SWAP1 PUSH2 0x26F DUP2 DUP6 PUSH2 0x233 JUMP JUMPDEST SWAP4 PUSH1 0x20 ADD PUSH2 0x248 JUMP JUMPDEST CALLVALUE PUSH2 0x176 JUMPI PUSH2 0x211 PUSH2 0x294 PUSH2 0x28E CALLDATASIZE PUSH1 0x4 PUSH2 0x255 JUMP JUMPDEST SWAP1 PUSH2 0xA5F JUMP JUMPDEST PUSH1 0x40 MLOAD SWAP2 DUP3 SWAP2 DUP3 SWAP1 ISZERO ISZERO DUP2 MSTORE PUSH1 0x20 ADD SWAP1 JUMP JUMPDEST PUSH2 0x1E7 SWAP2 PUSH1 0x8 MUL SHR DUP2 JUMP JUMPDEST SWAP1 PUSH2 0x1E7 SWAP2 SLOAD PUSH2 0x2A6 JUMP JUMPDEST PUSH2 0x1E7 PUSH1 0x0 PUSH1 0xA PUSH2 0x2B1 JUMP JUMPDEST CALLVALUE PUSH2 0x176 JUMPI PUSH2 0x2D8 CALLDATASIZE PUSH1 0x4 PUSH2 0x16B JUMP JUMPDEST PUSH2 0x211 PUSH2 0x2E3 PUSH2 0x2BC JUMP JUMPDEST PUSH1 0x40 MLOAD JUMPDEST SWAP2 DUP3 SWAP2 DUP3 SWAP1 DUP2 MSTORE PUSH1 0x20 ADD SWAP1 JUMP JUMPDEST CALLVALUE PUSH2 0x176 JUMPI PUSH2 0x304 CALLDATASIZE PUSH1 0x4 PUSH2 0x16B JUMP JUMPDEST PUSH2 0x211 PUSH2 0x2E3 PUSH2 0xA01 JUMP JUMPDEST SWAP1 SWAP2 PUSH1 0x60 DUP3 DUP5 SUB SLT PUSH2 0x176 JUMPI PUSH2 0x1E7 PUSH2 0x328 DUP5 DUP5 PUSH2 0x233 JUMP JUMPDEST SWAP4 PUSH2 0x336 DUP2 PUSH1 0x20 DUP7 ADD PUSH2 0x233 JUMP JUMPDEST SWAP4 PUSH1 0x40 ADD PUSH2 0x248 JUMP JUMPDEST CALLVALUE PUSH2 0x176 JUMPI PUSH2 0x211 PUSH2 0x294 PUSH2 0x355 CALLDATASIZE PUSH1 0x4 PUSH2 0x30F JUMP JUMPDEST SWAP2 PUSH2 0x1499 JUMP JUMPDEST CALLVALUE PUSH2 0x176 JUMPI PUSH2 0x36B CALLDATASIZE PUSH1 0x4 PUSH2 0x16B JUMP JUMPDEST PUSH2 0x211 PUSH2 0x376 PUSH2 0x9E6 JUMP JUMPDEST PUSH1 0x40 MLOAD SWAP2 DUP3 SWAP2 DUP3 PUSH1 0xFF SWAP1 SWAP2 AND DUP2 MSTORE PUSH1 0x20 ADD SWAP1 JUMP JUMPDEST CALLVALUE PUSH2 0x176 JUMPI PUSH2 0x211 PUSH2 0x294 PUSH2 0x3A0 CALLDATASIZE PUSH1 0x4 PUSH2 0x255 JUMP JUMPDEST SWAP1 PUSH2 0xA97 JUMP JUMPDEST SWAP1 PUSH1 0x20 DUP3 DUP3 SUB SLT PUSH2 0x176 JUMPI PUSH2 0x1E7 SWAP2 PUSH2 0x233 JUMP JUMPDEST CALLVALUE PUSH2 0x176 JUMPI PUSH2 0x3D2 PUSH2 0x3CD CALLDATASIZE PUSH1 0x4 PUSH2 0x3A6 JUMP JUMPDEST PUSH2 0xD04 JUMP JUMPDEST PUSH1 0x40 MLOAD STOP JUMPDEST PUSH2 0x1E7 SWAP2 PUSH1 0x8 MUL SHR PUSH1 0x1 PUSH1 0x1 PUSH1 0xA0 SHL SUB AND SWAP1 JUMP JUMPDEST SWAP1 PUSH2 0x1E7 SWAP2 SLOAD PUSH2 0x3D7 JUMP JUMPDEST PUSH2 0x1E7 PUSH1 0x0 PUSH1 0x9 PUSH2 0x3EB JUMP JUMPDEST CALLVALUE PUSH2 0x176 JUMPI PUSH2 0x412 CALLDATASIZE PUSH1 0x4 PUSH2 0x16B JUMP JUMPDEST PUSH2 0x211 PUSH2 0x41D PUSH2 0x3F6 JUMP JUMPDEST PUSH1 0x40 MLOAD SWAP2 DUP3 SWAP2 DUP3 PUSH1 0x1 PUSH1 0x1 PUSH1 0xA0 SHL SUB SWAP1 SWAP2 AND DUP2 MSTORE PUSH1 0x20 ADD SWAP1 JUMP JUMPDEST SWAP1 PUSH2 0x457 PUSH2 0x450 PUSH2 0x446 DUP5 MLOAD SWAP1 JUMP JUMPDEST DUP1 DUP5 MSTORE SWAP3 PUSH1 0x20 ADD SWAP1 JUMP JUMPDEST SWAP3 PUSH1 0x20 ADD SWAP1 JUMP JUMPDEST SWAP1 PUSH1 0x0 JUMPDEST DUP2 DUP2 LT PUSH2 0x468 JUMPI POP POP POP SWAP1 JUMP JUMPDEST SWAP1 SWAP2 SWAP3 PUSH2 0x48E PUSH2 0x487 PUSH1 0x1 SWAP3 DUP7 MLOAD PUSH1 0x1 PUSH1 0x1 PUSH1 0xA0 SHL SUB AND DUP2 MSTORE PUSH1 0x20 ADD SWAP1 JUMP JUMPDEST SWAP5 PUSH1 0x20 ADD SWAP1 JUMP JUMPDEST SWAP3 SWAP2 ADD PUSH2 0x45B JUMP JUMPDEST SWAP1 PUSH2 0x4A5 PUSH2 0x450 PUSH2 0x446 DUP5 MLOAD SWAP1 JUMP JUMPDEST SWAP1 PUSH1 0x0 JUMPDEST DUP2 DUP2 LT PUSH2 0x4B6 JUMPI POP POP POP SWAP1 JUMP JUMPDEST SWAP1 SWAP2 SWAP3 PUSH2 0x4CC PUSH2 0x487 PUSH1 0x1 SWAP3 DUP7 MLOAD DUP2 MSTORE PUSH1 0x20 ADD SWAP1 JUMP JUMPDEST SWAP3 SWAP2 ADD PUSH2 0x4A9 JUMP JUMPDEST PUSH1 0x40 DUP1 DUP3 MSTORE PUSH2 0x1E7 SWAP4 SWAP2 SWAP3 PUSH2 0x4EB SWAP2 DUP5 ADD SWAP1 PUSH2 0x437 JUMP JUMPDEST SWAP2 PUSH1 0x20 DUP2 DUP5 SUB SWAP2 ADD MSTORE PUSH2 0x496 JUMP JUMPDEST CALLVALUE PUSH2 0x176 JUMPI PUSH2 0x509 CALLDATASIZE PUSH1 0x4 PUSH2 0x16B JUMP JUMPDEST PUSH2 0x511 PUSH2 0xDDC JUMP JUMPDEST SWAP1 PUSH2 0x211 PUSH2 0x51E PUSH1 0x40 MLOAD SWAP1 JUMP JUMPDEST SWAP3 DUP4 SWAP3 DUP4 PUSH2 0x4D4 JUMP JUMPDEST CALLVALUE PUSH2 0x176 JUMPI PUSH2 0x211 PUSH2 0x2E3 PUSH2 0x53D CALLDATASIZE PUSH1 0x4 PUSH2 0x3A6 JUMP JUMPDEST PUSH2 0xA23 JUMP JUMPDEST CALLVALUE PUSH2 0x176 JUMPI PUSH2 0x552 CALLDATASIZE PUSH1 0x4 PUSH2 0x16B JUMP JUMPDEST PUSH2 0x3D2 PUSH2 0x6B9 JUMP JUMPDEST CALLVALUE PUSH2 0x176 JUMPI PUSH2 0x56A CALLDATASIZE PUSH1 0x4 PUSH2 0x16B JUMP JUMPDEST PUSH2 0x211 PUSH2 0x41D PUSH2 0x677 JUMP JUMPDEST CALLVALUE PUSH2 0x176 JUMPI PUSH2 0x585 CALLDATASIZE PUSH1 0x4 PUSH2 0x16B JUMP JUMPDEST PUSH2 0x211 PUSH2 0x205 PUSH2 0x9C9 JUMP JUMPDEST CALLVALUE PUSH2 0x176 JUMPI PUSH2 0x211 PUSH2 0x294 PUSH2 0x5A6 CALLDATASIZE PUSH1 0x4 PUSH2 0x255 JUMP JUMPDEST SWAP1 PUSH2 0xB10 JUMP JUMPDEST CALLVALUE PUSH2 0x176 JUMPI PUSH2 0x211 PUSH2 0x294 PUSH2 0x5C2 CALLDATASIZE PUSH1 0x4 PUSH2 0x255 JUMP JUMPDEST SWAP1 PUSH2 0xF57 JUMP JUMPDEST SWAP1 PUSH1 0x20 DUP3 DUP3 SUB SLT PUSH2 0x176 JUMPI PUSH2 0x1E7 SWAP2 PUSH2 0x248 JUMP JUMPDEST CALLVALUE PUSH2 0x176 JUMPI PUSH2 0x3D2 PUSH2 0x5EF CALLDATASIZE PUSH1 0x4 PUSH2 0x5C8 JUMP JUMPDEST PUSH2 0xD24 JUMP JUMPDEST SWAP2 SWAP1 PUSH1 0x40 DUP4 DUP3 SUB SLT PUSH2 0x176 JUMPI PUSH2 0x1E7 SWAP1 PUSH2 0x60E DUP2 DUP6 PUSH2 0x233 JUMP JUMPDEST SWAP4 PUSH1 0x20 ADD PUSH2 0x233 JUMP JUMPDEST CALLVALUE PUSH2 0x176 JUMPI PUSH2 0x211 PUSH2 0x2E3 PUSH2 0x62D CALLDATASIZE PUSH1 0x4 PUSH2 0x5F4 JUMP JUMPDEST SWAP1 PUSH2 0xA3F JUMP JUMPDEST CALLVALUE PUSH2 0x176 JUMPI PUSH2 0x3D2 PUSH2 0x646 CALLDATASIZE PUSH1 0x4 PUSH2 0x3A6 JUMP JUMPDEST PUSH2 0x7D0 JUMP JUMPDEST CALLVALUE PUSH2 0x176 JUMPI PUSH2 0x3D2 PUSH2 0x65E CALLDATASIZE PUSH1 0x4 PUSH2 0x255 JUMP JUMPDEST SWAP1 PUSH2 0x18F4 JUMP JUMPDEST PUSH2 0x1E7 SWAP1 PUSH2 0x215 JUMP JUMPDEST PUSH2 0x1E7 SWAP1 SLOAD PUSH2 0x664 JUMP JUMPDEST PUSH2 0x1E7 PUSH1 0x5 PUSH2 0x66D JUMP JUMPDEST PUSH2 0x689 PUSH2 0x715 JUMP JUMPDEST PUSH2 0x240 PUSH2 0x6A7 JUMP JUMPDEST PUSH2 0x215 PUSH2 0x1E7 PUSH2 0x1E7 SWAP3 SWAP1 JUMP JUMPDEST PUSH2 0x1E7 SWAP1 PUSH2 0x691 JUMP JUMPDEST PUSH2 0x240 PUSH2 0x6B4 PUSH1 0x0 PUSH2 0x69E JUMP JUMPDEST PUSH2 0x82F JUMP JUMPDEST PUSH2 0x240 PUSH2 0x681 JUMP JUMPDEST ISZERO PUSH2 0x6C8 JUMPI JUMP JUMPDEST PUSH1 0x40 MLOAD PUSH3 0x461BCD PUSH1 0xE5 SHL DUP2 MSTORE DUP1 PUSH2 0x711 PUSH1 0x4 DUP3 ADD PUSH1 0x20 DUP1 DUP3 MSTORE DUP2 DUP2 ADD MSTORE PUSH32 0x4F776E61626C653A2063616C6C6572206973206E6F7420746865206F776E6572 PUSH1 0x40 DUP3 ADD MSTORE PUSH1 0x60 ADD SWAP1 JUMP JUMPDEST SUB SWAP1 REVERT JUMPDEST PUSH2 0x240 PUSH2 0x720 PUSH2 0x677 JUMP JUMPDEST PUSH2 0x739 PUSH2 0x72C CALLER PUSH2 0x215 JUMP JUMPDEST SWAP2 PUSH1 0x1 PUSH1 0x1 PUSH1 0xA0 SHL SUB AND SWAP1 JUMP JUMPDEST EQ PUSH2 0x6C1 JUMP JUMPDEST PUSH2 0x240 SWAP1 PUSH2 0x74B PUSH2 0x715 JUMP JUMPDEST PUSH2 0x7AB JUMP JUMPDEST ISZERO PUSH2 0x757 JUMPI JUMP JUMPDEST PUSH1 0x40 MLOAD PUSH3 0x461BCD PUSH1 0xE5 SHL DUP2 MSTORE PUSH1 0x20 PUSH1 0x4 DUP3 ADD MSTORE PUSH1 0x26 PUSH1 0x24 DUP3 ADD MSTORE PUSH32 0x4F776E61626C653A206E6577206F776E657220697320746865207A65726F2061 PUSH1 0x44 DUP3 ADD MSTORE PUSH6 0x646472657373 PUSH1 0xD0 SHL PUSH1 0x64 DUP3 ADD MSTORE PUSH1 0x84 SWAP1 REVERT JUMPDEST PUSH2 0x240 SWAP1 PUSH2 0x6B4 PUSH2 0x7BF PUSH2 0x215 PUSH1 0x0 PUSH2 0x69E JUMP JUMPDEST PUSH1 0x1 PUSH1 0x1 PUSH1 0xA0 SHL SUB DUP4 AND EQ ISZERO PUSH2 0x750 JUMP JUMPDEST PUSH2 0x240 SWAP1 PUSH2 0x73F JUMP JUMPDEST SWAP1 PUSH1 0x1 PUSH1 0x1 PUSH1 0xA0 SHL SUB SWAP1 JUMPDEST SWAP2 DUP2 NOT AND SWAP2 AND OR SWAP1 JUMP JUMPDEST PUSH2 0x1E7 SWAP1 PUSH2 0x215 SWAP1 PUSH1 0x1 PUSH1 0x1 PUSH1 0xA0 SHL SUB AND DUP3 JUMP JUMPDEST PUSH2 0x1E7 SWAP1 PUSH2 0x7EE JUMP JUMPDEST PUSH2 0x1E7 SWAP1 PUSH2 0x802 JUMP JUMPDEST SWAP1 PUSH2 0x824 PUSH2 0x1E7 PUSH2 0x82B SWAP3 PUSH2 0x80B JUMP JUMPDEST DUP3 SLOAD PUSH2 0x7D9 JUMP JUMPDEST SWAP1 SSTORE JUMP JUMPDEST PUSH2 0x839 PUSH1 0x5 PUSH2 0x66D JUMP JUMPDEST SWAP1 PUSH2 0x845 DUP2 PUSH1 0x5 PUSH2 0x814 JUMP JUMPDEST PUSH2 0x878 PUSH2 0x872 PUSH32 0x8BE0079C531659141344CD1FD0A4F28419497F9722A3DAAFE3B4186F6B6457E0 SWAP4 PUSH2 0x80B JUMP JUMPDEST SWAP2 PUSH2 0x80B JUMP JUMPDEST SWAP2 PUSH2 0x882 PUSH1 0x40 MLOAD SWAP1 JUMP JUMPDEST DUP1 DUP1 JUMPDEST SUB SWAP1 LOG3 JUMP JUMPDEST PUSH4 0x4E487B71 PUSH1 0xE0 SHL PUSH1 0x0 MSTORE PUSH1 0x22 PUSH1 0x4 MSTORE PUSH1 0x24 PUSH1 0x0 REVERT JUMPDEST SWAP1 PUSH1 0x1 PUSH1 0x2 DUP4 DIV SWAP3 AND DUP1 ISZERO PUSH2 0x8C0 JUMPI JUMPDEST PUSH1 0x20 DUP4 LT EQ PUSH2 0x8BB JUMPI JUMP JUMPDEST PUSH2 0x88A JUMP JUMPDEST SWAP2 PUSH1 0x7F AND SWAP2 PUSH2 0x8B0 JUMP JUMPDEST DUP1 SLOAD PUSH1 0x0 SWAP4 SWAP3 SWAP2 PUSH2 0x8E7 PUSH2 0x8DD DUP4 PUSH2 0x8A0 JUMP JUMPDEST DUP1 DUP6 MSTORE SWAP4 PUSH1 0x20 ADD SWAP1 JUMP JUMPDEST SWAP2 PUSH1 0x1 DUP2 AND SWAP1 DUP2 ISZERO PUSH2 0x939 JUMPI POP PUSH1 0x1 EQ PUSH2 0x900 JUMPI POP POP POP JUMP JUMPDEST PUSH2 0x913 SWAP2 SWAP3 SWAP4 SWAP5 POP PUSH1 0x0 MSTORE PUSH1 0x20 PUSH1 0x0 KECCAK256 SWAP1 JUMP JUMPDEST SWAP2 PUSH1 0x0 SWAP3 JUMPDEST DUP2 DUP5 LT PUSH2 0x925 JUMPI POP POP ADD SWAP1 JUMP JUMPDEST DUP1 SLOAD DUP5 DUP5 ADD MSTORE PUSH1 0x20 SWAP1 SWAP4 ADD SWAP3 PUSH1 0x1 ADD PUSH2 0x918 JUMP JUMPDEST SWAP3 SWAP5 SWAP6 POP POP POP PUSH1 0xFF NOT AND DUP3 MSTORE ISZERO ISZERO PUSH1 0x20 MUL ADD SWAP1 JUMP JUMPDEST SWAP1 PUSH2 0x1E7 SWAP2 PUSH2 0x8CA JUMP JUMPDEST PUSH4 0x4E487B71 PUSH1 0xE0 SHL PUSH1 0x0 MSTORE PUSH1 0x41 PUSH1 0x4 MSTORE PUSH1 0x24 PUSH1 0x0 REVERT JUMPDEST SWAP1 PUSH1 0x1F ADD PUSH1 0x1F NOT AND DUP2 ADD SWAP1 DUP2 LT PUSH8 0xFFFFFFFFFFFFFFFF DUP3 GT OR PUSH2 0x990 JUMPI PUSH1 0x40 MSTORE JUMP JUMPDEST PUSH2 0x958 JUMP JUMPDEST SWAP1 PUSH2 0x240 PUSH2 0x9AF SWAP3 PUSH2 0x9A6 PUSH1 0x40 MLOAD SWAP1 JUMP JUMPDEST SWAP4 DUP5 DUP1 SWAP3 PUSH2 0x94E JUMP JUMPDEST SUB DUP4 PUSH2 0x96E JUMP JUMPDEST PUSH2 0x1E7 SWAP1 PUSH2 0x995 JUMP JUMPDEST PUSH2 0x1E7 PUSH1 0x3 PUSH2 0x9B6 JUMP JUMPDEST PUSH2 0x1E7 PUSH1 0x4 PUSH2 0x9B6 JUMP JUMPDEST PUSH2 0x9E0 PUSH2 0x1E7 PUSH2 0x1E7 SWAP3 SWAP1 JUMP JUMPDEST PUSH1 0xFF AND SWAP1 JUMP JUMPDEST PUSH2 0x1E7 PUSH1 0x12 PUSH2 0x9D3 JUMP JUMPDEST PUSH2 0x1E7 SWAP1 DUP2 JUMP JUMPDEST PUSH2 0x1E7 SWAP1 SLOAD PUSH2 0x9F0 JUMP JUMPDEST PUSH2 0x1E7 PUSH1 0x2 PUSH2 0x9F7 JUMP JUMPDEST SWAP1 PUSH2 0xA15 SWAP1 PUSH2 0x80B JUMP JUMPDEST PUSH1 0x0 MSTORE PUSH1 0x20 MSTORE PUSH1 0x40 PUSH1 0x0 KECCAK256 SWAP1 JUMP JUMPDEST PUSH2 0xA3A PUSH2 0x1E7 SWAP2 PUSH2 0xA32 PUSH1 0x0 SWAP1 JUMP JUMPDEST POP PUSH1 0x0 PUSH2 0xA0B JUMP JUMPDEST PUSH2 0x9F7 JUMP JUMPDEST PUSH2 0x1E7 SWAP2 PUSH2 0xA5A PUSH2 0xA3A SWAP3 PUSH2 0xA52 PUSH1 0x0 SWAP1 JUMP JUMPDEST POP PUSH1 0x1 PUSH2 0xA0B JUMP JUMPDEST PUSH2 0xA0B JUMP JUMPDEST PUSH2 0xA6A SWAP2 SWAP1 CALLER PUSH2 0xC11 JUMP JUMPDEST PUSH1 0x1 SWAP1 JUMP JUMPDEST PUSH4 0x4E487B71 PUSH1 0xE0 SHL PUSH1 0x0 MSTORE PUSH1 0x11 PUSH1 0x4 MSTORE PUSH1 0x24 PUSH1 0x0 REVERT JUMPDEST SWAP2 SWAP1 DUP3 ADD DUP1 SWAP3 GT PUSH2 0xA92 JUMPI JUMP JUMPDEST PUSH2 0xA6F JUMP JUMPDEST PUSH2 0xA6A SWAP2 SWAP1 PUSH2 0xAB0 CALLER SWAP3 PUSH2 0xAAB DUP4 DUP6 PUSH2 0xA3F JUMP JUMPDEST PUSH2 0xA85 JUMP JUMPDEST SWAP2 PUSH2 0xC11 JUMP JUMPDEST ISZERO PUSH2 0xABD JUMPI JUMP JUMPDEST PUSH1 0x40 MLOAD PUSH3 0x461BCD PUSH1 0xE5 SHL DUP2 MSTORE PUSH1 0x20 PUSH1 0x4 DUP3 ADD MSTORE PUSH1 0x25 PUSH1 0x24 DUP3 ADD MSTORE PUSH32 0x45524332303A2064656372656173656420616C6C6F77616E63652062656C6F77 PUSH1 0x44 DUP3 ADD MSTORE PUSH5 0x207A65726F PUSH1 0xD8 SHL PUSH1 0x64 DUP3 ADD MSTORE PUSH1 0x84 SWAP1 REVERT JUMPDEST PUSH2 0xA6A SWAP2 SWAP1 PUSH2 0xAB0 CALLER SWAP3 PUSH2 0xB24 DUP4 DUP6 PUSH2 0xA3F JUMP JUMPDEST PUSH2 0xB30 DUP3 DUP3 LT ISZERO PUSH2 0xAB6 JUMP JUMPDEST SUB SWAP1 JUMP JUMPDEST ISZERO PUSH2 0xB3B JUMPI JUMP JUMPDEST PUSH1 0x40 MLOAD PUSH3 0x461BCD PUSH1 0xE5 SHL DUP2 MSTORE PUSH1 0x20 PUSH1 0x4 DUP3 ADD MSTORE PUSH1 0x24 DUP1 DUP3 ADD MSTORE PUSH32 0x45524332303A20617070726F76652066726F6D20746865207A65726F20616464 PUSH1 0x44 DUP3 ADD MSTORE PUSH4 0x72657373 PUSH1 0xE0 SHL PUSH1 0x64 DUP3 ADD MSTORE PUSH1 0x84 SWAP1 REVERT JUMPDEST ISZERO PUSH2 0xB93 JUMPI JUMP JUMPDEST PUSH1 0x40 MLOAD PUSH3 0x461BCD PUSH1 0xE5 SHL DUP2 MSTORE PUSH1 0x20 PUSH1 0x4 DUP3 ADD MSTORE PUSH1 0x22 PUSH1 0x24 DUP3 ADD MSTORE PUSH32 0x45524332303A20617070726F766520746F20746865207A65726F206164647265 PUSH1 0x44 DUP3 ADD MSTORE PUSH2 0x7373 PUSH1 0xF0 SHL PUSH1 0x64 DUP3 ADD MSTORE PUSH1 0x84 SWAP1 REVERT JUMPDEST SWAP1 PUSH1 0x0 NOT SWAP1 PUSH2 0x7E4 JUMP JUMPDEST PUSH2 0x1E7 PUSH2 0x1E7 PUSH2 0x1E7 SWAP3 SWAP1 JUMP JUMPDEST SWAP1 PUSH2 0xC0A PUSH2 0x1E7 PUSH2 0x82B SWAP3 PUSH2 0xBED JUMP JUMPDEST DUP3 SLOAD PUSH2 0xBE3 JUMP JUMPDEST PUSH2 0xC50 PUSH2 0xC3F PUSH2 0xC21 PUSH1 0x0 PUSH2 0x69E JUMP JUMPDEST PUSH2 0x215 PUSH1 0x1 PUSH1 0x1 PUSH1 0xA0 SHL SUB DUP3 AND PUSH1 0x1 PUSH1 0x1 PUSH1 0xA0 SHL SUB DUP7 AND EQ ISZERO PUSH2 0xB34 JUMP JUMPDEST PUSH1 0x1 PUSH1 0x1 PUSH1 0xA0 SHL SUB DUP5 AND EQ ISZERO PUSH2 0xB8C JUMP JUMPDEST PUSH2 0xC68 DUP4 PUSH2 0xC63 DUP5 PUSH2 0xA5A DUP6 PUSH1 0x1 PUSH2 0xA0B JUMP JUMPDEST PUSH2 0xBFA JUMP JUMPDEST PUSH2 0x885 PUSH2 0xC9E PUSH2 0xC98 PUSH32 0x8C5BE1E5EBEC7D5BD14F71427D1E84F3DD0314C0F7B2291E5B200AC8C7C3B925 SWAP4 PUSH2 0x80B JUMP JUMPDEST SWAP4 PUSH2 0x80B JUMP JUMPDEST SWAP4 PUSH2 0x2E7 PUSH1 0x40 MLOAD SWAP1 JUMP JUMPDEST CALLVALUE PUSH32 0x88A5966D370B9919B20F3E2C13FF65706F196A4E32CC2C12BF57088F88525874 PUSH2 0xCE0 PUSH2 0xCD6 CALLER PUSH2 0x80B JUMP JUMPDEST SWAP3 PUSH2 0x2E7 PUSH1 0x40 MLOAD SWAP1 JUMP JUMPDEST SUB SWAP1 LOG2 JUMP JUMPDEST PUSH2 0x240 SWAP1 PUSH2 0xCF1 PUSH2 0x715 JUMP JUMPDEST PUSH2 0xCFD PUSH2 0x240 SWAP2 PUSH2 0x80B JUMP JUMPDEST PUSH1 0x9 PUSH2 0x814 JUMP JUMPDEST PUSH2 0x240 SWAP1 PUSH2 0xCE5 JUMP JUMPDEST PUSH2 0x240 SWAP1 PUSH2 0xD19 PUSH2 0x715 JUMP JUMPDEST PUSH2 0x240 SWAP1 PUSH1 0xA PUSH2 0xBFA JUMP JUMPDEST PUSH2 0x240 SWAP1 PUSH2 0xD0D JUMP JUMPDEST SWAP1 PUSH2 0x240 PUSH2 0xD3A PUSH1 0x40 MLOAD SWAP1 JUMP JUMPDEST SWAP3 DUP4 PUSH2 0x96E JUMP JUMPDEST PUSH8 0xFFFFFFFFFFFFFFFF DUP2 GT PUSH2 0x990 JUMPI PUSH1 0x20 DUP1 SWAP2 MUL ADD SWAP1 JUMP JUMPDEST SWAP1 PUSH2 0xD6B PUSH2 0xD66 DUP4 PUSH2 0xD41 JUMP JUMPDEST PUSH2 0xD2D JUMP JUMPDEST SWAP2 DUP3 MSTORE JUMP JUMPDEST CALLDATASIZE SWAP1 CALLDATACOPY JUMP JUMPDEST SWAP1 PUSH2 0x240 PUSH2 0xD8B PUSH2 0xD85 DUP5 PUSH2 0xD59 JUMP JUMPDEST SWAP4 PUSH2 0xD41 JUMP JUMPDEST PUSH1 0x1F NOT ADD PUSH1 0x20 DUP5 ADD PUSH2 0xD70 JUMP JUMPDEST PUSH1 0x0 NOT DUP2 EQ PUSH2 0xA92 JUMPI PUSH1 0x1 ADD SWAP1 JUMP JUMPDEST PUSH4 0x4E487B71 PUSH1 0xE0 SHL PUSH1 0x0 MSTORE PUSH1 0x32 PUSH1 0x4 MSTORE PUSH1 0x24 PUSH1 0x0 REVERT JUMPDEST SWAP1 PUSH2 0xDC6 DUP3 MLOAD SWAP1 JUMP JUMPDEST DUP2 LT ISZERO PUSH2 0xDD7 JUMPI PUSH1 0x20 DUP1 SWAP2 MUL ADD ADD SWAP1 JUMP JUMPDEST PUSH2 0xDA7 JUMP JUMPDEST PUSH1 0x6 PUSH2 0xDE7 DUP2 PUSH2 0xE63 JUMP JUMPDEST SWAP1 PUSH2 0xDF1 DUP3 PUSH2 0xD75 JUMP JUMPDEST SWAP1 PUSH2 0xDFB DUP4 PUSH2 0xD75 JUMP JUMPDEST SWAP4 PUSH2 0xE06 PUSH1 0x0 PUSH2 0xBED JUMP JUMPDEST DUP5 JUMPDEST DUP2 LT ISZERO PUSH2 0xE5B JUMPI PUSH2 0xE54 DUP2 PUSH2 0xE4F PUSH2 0xE42 PUSH2 0xE26 PUSH2 0xE08 SWAP6 DUP9 PUSH2 0xE96 JUMP JUMPDEST PUSH2 0x53D DUP2 PUSH2 0xE34 DUP7 DUP13 PUSH2 0xDBD JUMP JUMPDEST SWAP1 PUSH1 0x1 PUSH1 0x1 PUSH1 0xA0 SHL SUB AND SWAP1 MSTORE JUMP JUMPDEST PUSH2 0xE4C DUP4 DUP12 PUSH2 0xDBD JUMP JUMPDEST MSTORE JUMP JUMPDEST PUSH2 0xD98 JUMP JUMPDEST SWAP1 POP PUSH2 0xE06 JUMP JUMPDEST POP SWAP3 POP POP SWAP2 SWAP1 JUMP JUMPDEST PUSH2 0xE79 PUSH1 0x0 PUSH2 0x1E7 SWAP3 PUSH2 0xE74 PUSH1 0x0 SWAP1 JUMP JUMPDEST POP ADD SWAP1 JUMP JUMPDEST PUSH1 0x0 PUSH2 0x1E7 SWAP2 PUSH2 0xE87 PUSH1 0x0 SWAP1 JUMP JUMPDEST POP ADD SLOAD SWAP1 JUMP JUMPDEST PUSH2 0x1E7 SWAP1 PUSH2 0xBED JUMP JUMPDEST PUSH2 0xEBB PUSH2 0xEB6 PUSH2 0x1E7 SWAP4 PUSH2 0xEB1 PUSH1 0x0 PUSH2 0xEC0 SWAP6 PUSH2 0xE74 PUSH1 0x0 SWAP1 JUMP JUMPDEST PUSH2 0xEE8 JUMP JUMPDEST PUSH2 0xE8D JUMP JUMPDEST PUSH2 0x691 JUMP JUMPDEST PUSH2 0x802 JUMP JUMPDEST DUP1 SLOAD DUP3 LT ISZERO PUSH2 0xDD7 JUMPI PUSH2 0xEDF PUSH1 0x1 SWAP2 PUSH1 0x0 MSTORE PUSH1 0x20 PUSH1 0x0 KECCAK256 SWAP1 JUMP JUMPDEST SWAP2 MUL ADD SWAP1 PUSH1 0x0 SWAP1 JUMP JUMPDEST PUSH2 0x1E7 SWAP2 PUSH1 0x0 PUSH2 0xF01 SWAP3 PUSH2 0xEFA PUSH1 0x0 SWAP1 JUMP JUMPDEST POP ADD PUSH2 0xEC5 JUMP JUMPDEST SWAP1 PUSH2 0x2B1 JUMP JUMPDEST ISZERO PUSH2 0xF0E JUMPI JUMP JUMPDEST PUSH1 0x40 MLOAD PUSH3 0x461BCD PUSH1 0xE5 SHL DUP2 MSTORE PUSH1 0x20 PUSH1 0x4 DUP3 ADD MSTORE PUSH1 0x14 PUSH1 0x24 DUP3 ADD MSTORE PUSH20 0x496E73756666696369656E742062616C616E6365 PUSH1 0x60 SHL PUSH1 0x44 DUP3 ADD MSTORE PUSH1 0x64 SWAP1 REVERT JUMPDEST SWAP2 SWAP1 DUP3 SUB SWAP2 DUP3 GT PUSH2 0xA92 JUMPI JUMP JUMPDEST PUSH2 0xA6A SWAP2 SWAP1 CALLER PUSH2 0xF7B PUSH2 0xF69 DUP3 PUSH2 0xA23 JUMP JUMPDEST DUP5 SWAP1 PUSH2 0xF74 JUMP JUMPDEST SWAP2 SWAP1 JUMP JUMPDEST LT ISZERO PUSH2 0xF07 JUMP JUMPDEST PUSH2 0xF84 DUP3 PUSH2 0xA23 JUMP JUMPDEST PUSH1 0x0 SWAP1 PUSH2 0xF93 PUSH2 0xF70 DUP4 PUSH2 0xBED JUMP JUMPDEST EQ DUP1 PUSH2 0xFE4 JUMPI JUMPDEST PUSH2 0xFD3 JUMPI JUMPDEST PUSH2 0xFBD PUSH2 0xF70 PUSH2 0xFB7 DUP7 PUSH2 0xFB2 DUP7 PUSH2 0xA23 JUMP JUMPDEST PUSH2 0xF4A JUMP JUMPDEST SWAP3 PUSH2 0xBED JUMP JUMPDEST SUB PUSH2 0x1102 JUMPI PUSH2 0xFCD DUP2 PUSH1 0x6 PUSH2 0x12C4 JUMP JUMPDEST POP PUSH2 0x1102 JUMP JUMPDEST PUSH2 0xFDE DUP4 PUSH1 0x6 PUSH2 0x11C8 JUMP JUMPDEST POP PUSH2 0xF9F JUMP JUMPDEST POP PUSH2 0xFEE DUP2 PUSH2 0xBED JUMP JUMPDEST DUP5 GT PUSH2 0xF9A JUMP JUMPDEST ISZERO PUSH2 0xFFC JUMPI JUMP JUMPDEST PUSH1 0x40 MLOAD PUSH3 0x461BCD PUSH1 0xE5 SHL DUP2 MSTORE PUSH1 0x20 PUSH1 0x4 DUP3 ADD MSTORE PUSH1 0x25 PUSH1 0x24 DUP3 ADD MSTORE PUSH32 0x45524332303A207472616E736665722066726F6D20746865207A65726F206164 PUSH1 0x44 DUP3 ADD MSTORE PUSH5 0x6472657373 PUSH1 0xD8 SHL PUSH1 0x64 DUP3 ADD MSTORE PUSH1 0x84 SWAP1 REVERT JUMPDEST ISZERO PUSH2 0x1056 JUMPI JUMP JUMPDEST PUSH1 0x40 MLOAD PUSH3 0x461BCD PUSH1 0xE5 SHL DUP2 MSTORE PUSH1 0x20 PUSH1 0x4 DUP3 ADD MSTORE PUSH1 0x23 PUSH1 0x24 DUP3 ADD MSTORE PUSH32 0x45524332303A207472616E7366657220746F20746865207A65726F2061646472 PUSH1 0x44 DUP3 ADD MSTORE PUSH3 0x657373 PUSH1 0xE8 SHL PUSH1 0x64 DUP3 ADD MSTORE PUSH1 0x84 SWAP1 REVERT JUMPDEST ISZERO PUSH2 0x10AE JUMPI JUMP JUMPDEST PUSH1 0x40 MLOAD PUSH3 0x461BCD PUSH1 0xE5 SHL DUP2 MSTORE PUSH1 0x20 PUSH1 0x4 DUP3 ADD MSTORE PUSH1 0x26 PUSH1 0x24 DUP3 ADD MSTORE PUSH32 0x45524332303A207472616E7366657220616D6F756E7420657863656564732062 PUSH1 0x44 DUP3 ADD MSTORE PUSH6 0x616C616E6365 PUSH1 0xD0 SHL PUSH1 0x64 DUP3 ADD MSTORE PUSH1 0x84 SWAP1 REVERT JUMPDEST PUSH2 0x1186 PUSH2 0x1173 DUP4 PUSH1 0x0 PUSH2 0x1149 PUSH2 0x1138 PUSH2 0x111A DUP4 PUSH2 0x69E JUMP JUMPDEST PUSH2 0x215 PUSH1 0x1 PUSH1 0x1 PUSH1 0xA0 SHL SUB DUP3 AND PUSH1 0x1 PUSH1 0x1 PUSH1 0xA0 SHL SUB DUP11 AND EQ ISZERO PUSH2 0xFF5 JUMP JUMPDEST PUSH1 0x1 PUSH1 0x1 PUSH1 0xA0 SHL SUB DUP5 AND EQ ISZERO PUSH2 0x104F JUMP JUMPDEST PUSH2 0xA5A PUSH2 0x1169 DUP9 PUSH2 0x115D PUSH2 0xA3A DUP10 DUP7 PUSH2 0xA0B JUMP JUMPDEST PUSH2 0xB30 DUP3 DUP3 LT ISZERO PUSH2 0x10A7 JUMP JUMPDEST PUSH2 0xC63 DUP8 DUP5 PUSH2 0xA0B JUMP JUMPDEST PUSH2 0x1180 DUP6 PUSH2 0x1D2 DUP4 PUSH2 0x9F7 JUMP JUMPDEST SWAP1 PUSH2 0xBFA JUMP JUMPDEST PUSH2 0x885 PUSH2 0xC9E PUSH2 0xC98 PUSH32 0xDDF252AD1BE2C89B69C2B068FC378DAA952BA7F163C4A11628F55A4DF523B3EF SWAP4 PUSH2 0x80B JUMP JUMPDEST PUSH2 0x1E7 SWAP1 DUP2 SWAP1 PUSH1 0x1 PUSH1 0x1 PUSH1 0xA0 SHL SUB AND DUP2 JUMP JUMPDEST SWAP1 PUSH2 0x11F5 PUSH2 0xF70 PUSH2 0x11F0 PUSH2 0x11EB PUSH1 0x0 PUSH2 0x1E7 SWAP7 PUSH2 0x11E3 PUSH1 0x0 SWAP1 JUMP JUMPDEST POP ADD SWAP5 PUSH2 0x802 JUMP JUMPDEST PUSH2 0x11B6 JUMP JUMPDEST PUSH2 0xBED JUMP JUMPDEST PUSH2 0x1259 JUMP JUMPDEST SWAP2 PUSH1 0x0 NOT PUSH1 0x8 SWAP3 SWAP1 SWAP3 MUL SWAP2 DUP3 SHL SWAP2 SHL PUSH2 0x7E4 JUMP JUMPDEST SWAP2 SWAP1 PUSH2 0x121D PUSH2 0x1E7 PUSH2 0x82B SWAP4 SWAP1 JUMP JUMPDEST SWAP1 DUP4 SLOAD PUSH2 0x11FA JUMP JUMPDEST SWAP1 DUP2 SLOAD SWAP2 PUSH9 0x10000000000000000 DUP4 LT ISZERO PUSH2 0x990 JUMPI DUP3 PUSH2 0x124D SWAP2 PUSH1 0x1 PUSH2 0x240 SWAP6 ADD DUP2 SSTORE PUSH2 0xEC5 JUMP JUMPDEST SWAP1 PUSH2 0x120E JUMP JUMPDEST SWAP1 PUSH2 0xA15 JUMP JUMPDEST PUSH2 0x126A PUSH2 0x1266 DUP4 DUP4 PUSH2 0x1299 JUMP JUMPDEST ISZERO SWAP1 JUMP JUMPDEST ISZERO PUSH2 0x1292 JUMPI PUSH2 0xA6A SWAP2 PUSH2 0xC63 SWAP1 PUSH1 0x1 PUSH2 0x128B DUP5 PUSH2 0x1287 DUP5 DUP3 PUSH2 0x1225 JUMP JUMPDEST SLOAD SWAP1 JUMP JUMPDEST SWAP4 ADD PUSH2 0x1253 JUMP JUMPDEST POP POP PUSH1 0x0 SWAP1 JUMP JUMPDEST PUSH2 0x12B2 SWAP2 PUSH1 0x1 PUSH2 0xA3A SWAP3 PUSH2 0x12AB PUSH1 0x0 SWAP1 JUMP JUMPDEST POP ADD PUSH2 0x1253 JUMP JUMPDEST PUSH2 0x12BF PUSH2 0xF70 PUSH1 0x0 PUSH2 0xBED JUMP JUMPDEST EQ ISZERO SWAP1 JUMP JUMPDEST SWAP1 PUSH2 0x12DF PUSH2 0xF70 PUSH2 0x11F0 PUSH2 0x11EB PUSH1 0x0 PUSH2 0x1E7 SWAP7 PUSH2 0x11E3 PUSH1 0x0 SWAP1 JUMP JUMPDEST PUSH2 0x134B JUMP JUMPDEST PUSH4 0x4E487B71 PUSH1 0xE0 SHL PUSH1 0x0 MSTORE PUSH1 0x31 PUSH1 0x4 MSTORE PUSH1 0x24 PUSH1 0x0 REVERT JUMPDEST PUSH2 0x240 SWAP2 PUSH1 0x0 SWAP2 PUSH2 0x120E JUMP JUMPDEST DUP1 SLOAD DUP1 ISZERO PUSH2 0x1329 JUMPI PUSH1 0x0 NOT ADD SWAP1 PUSH2 0x1326 PUSH2 0x1320 DUP4 DUP4 PUSH2 0xEC5 JUMP JUMPDEST SWAP1 PUSH2 0x12FA JUMP JUMPDEST SSTORE JUMP JUMPDEST PUSH2 0x12E4 JUMP JUMPDEST SWAP2 SWAP1 PUSH2 0x121D PUSH2 0x1E7 PUSH2 0x82B SWAP4 PUSH2 0xBED JUMP JUMPDEST PUSH2 0x240 SWAP2 PUSH1 0x0 SWAP2 PUSH2 0x132E JUMP JUMPDEST SWAP1 PUSH2 0x135C PUSH2 0xA3A DUP3 PUSH1 0x1 DUP6 ADD PUSH2 0x1253 JUMP JUMPDEST PUSH1 0x0 SWAP3 PUSH2 0x1368 DUP5 PUSH2 0xBED JUMP JUMPDEST DUP3 EQ PUSH2 0x13BB JUMPI PUSH2 0x1E7 SWAP3 PUSH2 0x13C1 SWAP5 SWAP3 PUSH2 0x13CC SWAP3 PUSH2 0x13C6 PUSH1 0x1 SWAP8 DUP9 SWAP4 PUSH2 0x1395 PUSH2 0x138F DUP7 PUSH2 0xBED JUMP JUMPDEST DUP3 PUSH2 0xF4A JUMP JUMPDEST DUP9 DUP6 ADD SWAP2 PUSH2 0x13B3 PUSH2 0x13A4 DUP5 SLOAD SWAP1 JUMP JUMPDEST PUSH2 0x13AD DUP10 PUSH2 0xBED JUMP JUMPDEST SWAP1 PUSH2 0xF4A JUMP JUMPDEST DUP3 DUP2 SUB PUSH2 0x13D1 JUMPI JUMPDEST POP POP POP SWAP1 JUMP JUMPDEST PUSH2 0x1306 JUMP JUMPDEST ADD PUSH2 0x1253 JUMP JUMPDEST PUSH2 0x133F JUMP JUMPDEST PUSH2 0x124D PUSH2 0x13F4 PUSH2 0x13FC SWAP5 PUSH2 0x13EB PUSH2 0xF01 PUSH2 0xC63 SWAP6 DUP10 PUSH2 0xEC5 JUMP JUMPDEST SWAP3 DUP4 SWAP2 DUP9 PUSH2 0xEC5 JUMP JUMPDEST DUP9 DUP9 ADD PUSH2 0x1253 JUMP JUMPDEST CODESIZE DUP1 DUP1 PUSH2 0x13BB JUMP JUMPDEST ISZERO PUSH2 0x140B JUMPI JUMP JUMPDEST PUSH1 0x40 MLOAD PUSH3 0x461BCD PUSH1 0xE5 SHL DUP2 MSTORE PUSH1 0x20 PUSH1 0x4 DUP3 ADD MSTORE PUSH1 0x28 PUSH1 0x24 DUP3 ADD MSTORE PUSH32 0x45524332303A207472616E7366657220616D6F756E7420657863656564732061 PUSH1 0x44 DUP3 ADD MSTORE PUSH8 0x6C6C6F77616E6365 PUSH1 0xC0 SHL PUSH1 0x64 DUP3 ADD MSTORE PUSH1 0x84 SWAP1 REVERT JUMPDEST DUP2 DUP2 MUL SWAP3 SWAP2 DUP2 ISZERO SWAP2 DUP5 DIV EQ OR ISZERO PUSH2 0xA92 JUMPI JUMP JUMPDEST PUSH4 0x4E487B71 PUSH1 0xE0 SHL PUSH1 0x0 MSTORE PUSH1 0x12 PUSH1 0x4 MSTORE PUSH1 0x24 PUSH1 0x0 REVERT JUMPDEST DUP2 ISZERO PUSH2 0x1494 JUMPI DIV SWAP1 JUMP JUMPDEST PUSH2 0x1474 JUMP JUMPDEST PUSH2 0xA6A SWAP3 SWAP2 SWAP1 PUSH2 0x14CD CALLER PUSH2 0x14B8 PUSH2 0x14B0 DUP3 DUP6 PUSH2 0xA3F JUMP JUMPDEST DUP7 GT ISZERO PUSH2 0x1404 JUMP JUMPDEST PUSH2 0x14C6 DUP6 PUSH2 0xFB2 DUP4 DUP7 PUSH2 0xA3F JUMP JUMPDEST SWAP1 DUP4 PUSH2 0xC11 JUMP JUMPDEST PUSH2 0x1569 PUSH2 0x14F6 PUSH2 0x14E6 PUSH2 0x14E0 PUSH1 0xA PUSH2 0x9F7 JUMP JUMPDEST DUP7 PUSH2 0x1461 JUMP JUMPDEST PUSH2 0x14F0 PUSH1 0x64 PUSH2 0xBED JUMP JUMPDEST SWAP1 PUSH2 0x148A JUMP JUMPDEST PUSH2 0x1500 DUP2 DUP7 PUSH2 0xF4A JUMP JUMPDEST SWAP5 PUSH2 0x1514 PUSH2 0x150D DUP6 PUSH2 0xA23 JUMP JUMPDEST DUP3 SWAP1 PUSH2 0xF74 JUMP JUMPDEST PUSH2 0x154B PUSH2 0xF70 PUSH2 0xFB7 PUSH2 0x1526 DUP9 PUSH2 0xA23 JUMP JUMPDEST SWAP4 PUSH1 0x0 SWAP5 PUSH2 0x1536 PUSH2 0xF70 DUP8 PUSH2 0xBED JUMP JUMPDEST EQ DUP1 PUSH2 0x1590 JUMPI JUMPDEST PUSH2 0x157F JUMPI JUMPDEST PUSH2 0xFB2 DUP9 PUSH2 0xA23 JUMP JUMPDEST EQ PUSH2 0x156E JUMPI JUMPDEST PUSH2 0x1563 PUSH2 0x155E PUSH1 0x9 PUSH2 0x66D JUMP JUMPDEST PUSH2 0x80B JUMP JUMPDEST DUP4 PUSH2 0x1102 JUMP JUMPDEST PUSH2 0x1102 JUMP JUMPDEST PUSH2 0x1579 DUP4 PUSH1 0x6 PUSH2 0x12C4 JUMP JUMPDEST POP PUSH2 0x1551 JUMP JUMPDEST PUSH2 0x158A DUP10 PUSH1 0x6 PUSH2 0x11C8 JUMP JUMPDEST POP PUSH2 0x1542 JUMP JUMPDEST POP PUSH2 0x159A DUP6 PUSH2 0xBED JUMP JUMPDEST DUP2 GT PUSH2 0x153D JUMP JUMPDEST SWAP1 PUSH2 0x240 SWAP2 PUSH2 0x15AE PUSH2 0x715 JUMP JUMPDEST PUSH2 0x1681 JUMP JUMPDEST DUP1 ISZERO ISZERO PUSH2 0x22C JUMP JUMPDEST SWAP1 POP MLOAD SWAP1 PUSH2 0x240 DUP3 PUSH2 0x15B3 JUMP JUMPDEST SWAP1 PUSH1 0x20 DUP3 DUP3 SUB SLT PUSH2 0x176 JUMPI PUSH2 0x1E7 SWAP2 PUSH2 0x15BB JUMP JUMPDEST PUSH1 0x1 PUSH1 0x1 PUSH1 0xA0 SHL SUB SWAP1 SWAP2 AND DUP2 MSTORE PUSH1 0x40 DUP2 ADD SWAP3 SWAP2 PUSH2 0x240 SWAP2 PUSH1 0x20 ADD MSTORE JUMP JUMPDEST PUSH1 0x40 MLOAD RETURNDATASIZE PUSH1 0x0 DUP3 RETURNDATACOPY RETURNDATASIZE SWAP1 REVERT JUMPDEST PUSH1 0x1 PUSH1 0x1 PUSH1 0xA0 SHL SUB SWAP2 DUP3 AND DUP2 MSTORE SWAP2 AND PUSH1 0x20 DUP3 ADD MSTORE PUSH1 0x60 DUP2 ADD SWAP3 SWAP2 PUSH2 0x240 SWAP2 PUSH1 0x40 ADD MSTORE JUMP JUMPDEST ISZERO PUSH2 0x1630 JUMPI JUMP JUMPDEST PUSH1 0x40 MLOAD PUSH3 0x461BCD PUSH1 0xE5 SHL DUP2 MSTORE PUSH1 0x20 PUSH1 0x4 DUP3 ADD MSTORE PUSH1 0x24 DUP1 DUP3 ADD MSTORE PUSH32 0x496E73756666696369656E74204554482062616C616E636520696E20636F6E74 PUSH1 0x44 DUP3 ADD MSTORE PUSH4 0x1C9858DD PUSH1 0xE2 SHL PUSH1 0x64 DUP3 ADD MSTORE PUSH1 0x84 SWAP1 REVERT JUMPDEST PUSH1 0x0 PUSH2 0x168F PUSH2 0x215 DUP3 PUSH2 0x69E JUMP JUMPDEST PUSH1 0x1 PUSH1 0x1 PUSH1 0xA0 SHL SUB DUP4 AND SUB PUSH2 0x171F JUMPI PUSH2 0x16B4 PUSH2 0x16AA ADDRESS PUSH2 0x80B JUMP JUMPDEST DUP5 SWAP1 BALANCE LT ISZERO PUSH2 0x1629 JUMP JUMPDEST DUP1 DUP1 DUP1 DUP6 PUSH2 0x16C6 PUSH2 0x155E PUSH2 0x155E PUSH2 0x677 JUMP JUMPDEST DUP3 DUP3 ISZERO PUSH2 0x1716 JUMPI JUMPDEST CALL ISZERO PUSH2 0x1711 JUMPI CALLER PUSH2 0x170C PUSH32 0xFFF3B3844276F57024E0B42AFEC1A37F75DB36511E43819A4F2A63AB7862B648 SWAP4 PUSH2 0x1703 PUSH1 0x40 MLOAD SWAP1 JUMP JUMPDEST SWAP4 DUP5 SWAP4 DUP5 PUSH2 0x1605 JUMP JUMPDEST SUB SWAP1 LOG1 JUMP JUMPDEST PUSH2 0x15F9 JUMP JUMPDEST POP PUSH2 0x8FC PUSH2 0x16CE JUMP JUMPDEST DUP3 PUSH1 0x20 PUSH2 0x172E PUSH2 0x155E DUP6 PUSH2 0x80B JUMP JUMPDEST PUSH4 0xA9059CBB SWAP1 PUSH2 0x175A DUP6 PUSH2 0x1740 PUSH2 0x677 JUMP JUMPDEST SWAP4 PUSH2 0x1765 PUSH2 0x174D PUSH1 0x40 MLOAD SWAP1 JUMP JUMPDEST SWAP8 DUP9 SWAP7 DUP8 SWAP6 DUP7 SWAP5 PUSH1 0xE0 SHL SWAP1 JUMP JUMPDEST DUP5 MSTORE PUSH1 0x4 DUP5 ADD PUSH2 0x15DC JUMP JUMPDEST SUB SWAP3 GAS CALL SWAP1 DUP2 PUSH2 0x18C8 JUMPI JUMPDEST POP ISZERO DUP2 EQ PUSH2 0x1898 JUMPI PUSH2 0x1784 PUSH2 0x155E DUP4 PUSH2 0x80B JUMP JUMPDEST PUSH4 0x42842E0E PUSH2 0x1792 ADDRESS PUSH2 0x80B JUMP JUMPDEST PUSH2 0x179A PUSH2 0x677 JUMP JUMPDEST SWAP3 DUP1 EXTCODESIZE ISZERO PUSH2 0x176 JUMPI PUSH2 0x17C2 DUP6 DUP1 SWAP5 PUSH2 0x17CD DUP11 PUSH2 0x17B5 PUSH1 0x40 MLOAD SWAP1 JUMP JUMPDEST SWAP9 DUP10 SWAP8 DUP9 SWAP7 DUP8 SWAP6 PUSH1 0xE0 SHL SWAP1 JUMP JUMPDEST DUP6 MSTORE PUSH1 0x4 DUP6 ADD PUSH2 0x1605 JUMP JUMPDEST SUB SWAP3 GAS CALL SWAP1 DUP2 PUSH2 0x186C JUMPI JUMPDEST POP ISZERO EQ PUSH2 0x183D JUMPI PUSH1 0x40 MLOAD PUSH3 0x461BCD PUSH1 0xE5 SHL DUP2 MSTORE PUSH1 0x20 PUSH1 0x4 DUP3 ADD MSTORE PUSH1 0x30 PUSH1 0x24 DUP3 ADD MSTORE PUSH32 0x546F6B656E2074797065206E6F7420737570706F72746564206F7220696E7375 PUSH1 0x44 DUP3 ADD MSTORE PUSH16 0x6666696369656E742062616C616E6365 PUSH1 0x80 SHL PUSH1 0x64 DUP3 ADD MSTORE PUSH1 0x84 SWAP1 REVERT JUMPDEST CALLER PUSH2 0x170C PUSH32 0xFFF3B3844276F57024E0B42AFEC1A37F75DB36511E43819A4F2A63AB7862B648 SWAP4 PUSH2 0x1703 PUSH1 0x40 MLOAD SWAP1 JUMP JUMPDEST PUSH2 0x188B SWAP1 DUP4 RETURNDATASIZE DUP6 GT PUSH2 0x1891 JUMPI JUMPDEST PUSH2 0x1883 DUP2 DUP4 PUSH2 0x96E JUMP JUMPDEST DUP2 ADD SWAP1 PUSH2 0x16B JUMP JUMPDEST CODESIZE PUSH2 0x17D8 JUMP JUMPDEST POP RETURNDATASIZE PUSH2 0x1879 JUMP JUMPDEST POP CALLER PUSH2 0x170C PUSH32 0xFFF3B3844276F57024E0B42AFEC1A37F75DB36511E43819A4F2A63AB7862B648 SWAP4 PUSH2 0x1703 PUSH1 0x40 MLOAD SWAP1 JUMP JUMPDEST PUSH2 0x18E8 SWAP1 PUSH1 0x20 RETURNDATASIZE DUP2 GT PUSH2 0x18ED JUMPI JUMPDEST PUSH2 0x18E0 DUP2 DUP4 PUSH2 0x96E JUMP JUMPDEST DUP2 ADD SWAP1 PUSH2 0x15C8 JUMP JUMPDEST PUSH2 0x1770 JUMP JUMPDEST POP RETURNDATASIZE PUSH2 0x18D6 JUMP JUMPDEST SWAP1 PUSH2 0x240 SWAP2 PUSH2 0x15A1 JUMP INVALID LOG2 PUSH5 0x6970667358 0x22 SLT KECCAK256 PUSH1 0x89 PUSH7 0x65394B231498A2 NUMBER PUSH1 0x8E 0xC8 DUP7 DUP2 LOG2 ISZERO 0xCE 0xC2 0x2D SWAP4 BASEFEE 0x1F PUSH18 0xAF0EBC164FE3D964736F6C63430008130033 "},"methodIdentifiers":{"allowance(address,address)":"dd62ed3e","approve(address,uint256)":"095ea7b3","balanceOf(address)":"70a08231","companyAddress()":"53e1ead9","companyPercentage()":"106f09f2","decimals()":"313ce567","decreaseAllowance(address,uint256)":"a457c2d7","getHolders()":"5fe8e7cc","increaseAllowance(address,uint256)":"39509351","name()":"06fdde03","owner()":"8da5cb5b","renounceOwnership()":"715018a6","setCompanyAddress(address)":"4f63a772","setCompanyTax(uint256)":"dae64f40","symbol()":"95d89b41","totalSupply()":"18160ddd","transfer(address,uint256)":"a9059cbb","transferFrom(address,address,uint256)":"23b872dd","transferOwnership(address)":"f2fde38b","withdraw(address,uint256)":"f3fef3a3"}}}}}