{"contracts/CreatorsNFT.sol":{"CreatorsNFT":{"abi":[{"inputs":[],"stateMutability":"nonpayable","type":"constructor"},{"anonymous":false,"inputs":[{"indexed":true,"internalType":"address","name":"owner","type":"address"},{"indexed":true,"internalType":"address","name":"approved","type":"address"},{"indexed":true,"internalType":"uint256","name":"tokenId","type":"uint256"}],"name":"Approval","type":"event"},{"anonymous":false,"inputs":[{"indexed":true,"internalType":"address","name":"owner","type":"address"},{"indexed":true,"internalType":"address","name":"operator","type":"address"},{"indexed":false,"internalType":"bool","name":"approved","type":"bool"}],"name":"ApprovalForAll","type":"event"},{"anonymous":false,"inputs":[{"indexed":false,"internalType":"uint256","name":"_fromTokenId","type":"uint256"},{"indexed":false,"internalType":"uint256","name":"_toTokenId","type":"uint256"}],"name":"BatchMetadataUpdate","type":"event"},{"anonymous":false,"inputs":[{"indexed":false,"internalType":"uint256","name":"_tokenId","type":"uint256"}],"name":"MetadataUpdate","type":"event"},{"anonymous":false,"inputs":[{"indexed":true,"internalType":"address","name":"buyer","type":"address"},{"indexed":false,"internalType":"uint256","name":"nftId","type":"uint256"}],"name":"NFTTransferred","type":"event"},{"anonymous":false,"inputs":[{"indexed":true,"internalType":"address","name":"previousOwner","type":"address"},{"indexed":true,"internalType":"address","name":"newOwner","type":"address"}],"name":"OwnershipTransferred","type":"event"},{"anonymous":false,"inputs":[{"indexed":true,"internalType":"address","name":"from","type":"address"},{"indexed":false,"internalType":"uint256","name":"amount","type":"uint256"}],"name":"Received","type":"event"},{"anonymous":false,"inputs":[{"indexed":true,"internalType":"address","name":"sender","type":"address"},{"indexed":false,"internalType":"address","name":"tokenAddress","type":"address"},{"indexed":false,"internalType":"uint256","name":"amountOrTokenId","type":"uint256"}],"name":"Recovered","type":"event"},{"anonymous":false,"inputs":[{"indexed":true,"internalType":"address","name":"from","type":"address"},{"indexed":true,"internalType":"address","name":"to","type":"address"},{"indexed":true,"internalType":"uint256","name":"tokenId","type":"uint256"}],"name":"Transfer","type":"event"},{"stateMutability":"payable","type":"fallback"},{"inputs":[{"internalType":"address","name":"to","type":"address"},{"internalType":"uint256","name":"tokenId","type":"uint256"}],"name":"approve","outputs":[],"stateMutability":"nonpayable","type":"function"},{"inputs":[{"internalType":"address","name":"owner","type":"address"}],"name":"balanceOf","outputs":[{"internalType":"uint256","name":"","type":"uint256"}],"stateMutability":"view","type":"function"},{"inputs":[{"internalType":"uint256","name":"sourceId","type":"uint256"}],"name":"buyNFT","outputs":[],"stateMutability":"nonpayable","type":"function"},{"inputs":[{"internalType":"uint256","name":"tokenId","type":"uint256"}],"name":"getApproved","outputs":[{"internalType":"address","name":"","type":"address"}],"stateMutability":"view","type":"function"},{"inputs":[{"internalType":"address","name":"owner","type":"address"},{"internalType":"address","name":"operator","type":"address"}],"name":"isApprovedForAll","outputs":[{"internalType":"bool","name":"","type":"bool"}],"stateMutability":"view","type":"function"},{"inputs":[],"name":"name","outputs":[{"internalType":"string","name":"","type":"string"}],"stateMutability":"view","type":"function"},{"inputs":[],"name":"nextNFTId","outputs":[{"internalType":"uint256","name":"","type":"uint256"}],"stateMutability":"view","type":"function"},{"inputs":[],"name":"nextSourceId","outputs":[{"internalType":"uint256","name":"","type":"uint256"}],"stateMutability":"view","type":"function"},{"inputs":[{"internalType":"uint256","name":"","type":"uint256"}],"name":"nftSources","outputs":[{"internalType":"uint256","name":"modelId","type":"uint256"},{"internalType":"address","name":"creator","type":"address"},{"internalType":"string","name":"name","type":"string"},{"internalType":"string","name":"description","type":"string"},{"internalType":"string","name":"image","type":"string"},{"internalType":"string","name":"external_url","type":"string"},{"internalType":"uint256","name":"price","type":"uint256"},{"internalType":"enum NFTSource.MediaType","name":"mediaType","type":"uint8"},{"internalType":"enum NFTSource.Status","name":"status","type":"uint8"}],"stateMutability":"view","type":"function"},{"inputs":[{"internalType":"uint256","name":"","type":"uint256"}],"name":"nfts","outputs":[{"internalType":"uint256","name":"tokenId","type":"uint256"},{"internalType":"address","name":"creator","type":"address"},{"internalType":"string","name":"name","type":"string"},{"internalType":"string","name":"description","type":"string"},{"internalType":"string","name":"image","type":"string"},{"internalType":"string","name":"external_url","type":"string"},{"internalType":"uint256","name":"price","type":"uint256"},{"internalType":"enum NFTSource.MediaType","name":"mediaType","type":"uint8"}],"stateMutability":"view","type":"function"},{"inputs":[],"name":"owner","outputs":[{"internalType":"address","name":"","type":"address"}],"stateMutability":"view","type":"function"},{"inputs":[{"internalType":"uint256","name":"tokenId","type":"uint256"}],"name":"ownerOf","outputs":[{"internalType":"address","name":"","type":"address"}],"stateMutability":"view","type":"function"},{"inputs":[],"name":"renounceOwnership","outputs":[],"stateMutability":"nonpayable","type":"function"},{"inputs":[{"internalType":"address","name":"from","type":"address"},{"internalType":"address","name":"to","type":"address"},{"internalType":"uint256","name":"tokenId","type":"uint256"}],"name":"safeTransferFrom","outputs":[],"stateMutability":"nonpayable","type":"function"},{"inputs":[{"internalType":"address","name":"from","type":"address"},{"internalType":"address","name":"to","type":"address"},{"internalType":"uint256","name":"tokenId","type":"uint256"},{"internalType":"bytes","name":"data","type":"bytes"}],"name":"safeTransferFrom","outputs":[],"stateMutability":"nonpayable","type":"function"},{"inputs":[{"internalType":"address","name":"operator","type":"address"},{"internalType":"bool","name":"approved","type":"bool"}],"name":"setApprovalForAll","outputs":[],"stateMutability":"nonpayable","type":"function"},{"inputs":[{"internalType":"address","name":"blockFans","type":"address"}],"name":"setBlockFans","outputs":[],"stateMutability":"nonpayable","type":"function"},{"inputs":[{"internalType":"address","name":"creatorsAddress","type":"address"}],"name":"setCreators","outputs":[],"stateMutability":"nonpayable","type":"function"},{"inputs":[{"internalType":"string","name":"name","type":"string"},{"internalType":"string","name":"description","type":"string"},{"internalType":"string","name":"image","type":"string"},{"internalType":"string","name":"external_url","type":"string"},{"internalType":"uint256","name":"price","type":"uint256"},{"internalType":"enum NFTSource.MediaType","name":"mediaType","type":"uint8"}],"name":"setNFTSource","outputs":[],"stateMutability":"nonpayable","type":"function"},{"inputs":[{"internalType":"bytes4","name":"interfaceId","type":"bytes4"}],"name":"supportsInterface","outputs":[{"internalType":"bool","name":"","type":"bool"}],"stateMutability":"view","type":"function"},{"inputs":[],"name":"symbol","outputs":[{"internalType":"string","name":"","type":"string"}],"stateMutability":"view","type":"function"},{"inputs":[{"internalType":"uint256","name":"index","type":"uint256"}],"name":"tokenByIndex","outputs":[{"internalType":"uint256","name":"","type":"uint256"}],"stateMutability":"view","type":"function"},{"inputs":[{"internalType":"address","name":"owner","type":"address"},{"internalType":"uint256","name":"index","type":"uint256"}],"name":"tokenOfOwnerByIndex","outputs":[{"internalType":"uint256","name":"","type":"uint256"}],"stateMutability":"view","type":"function"},{"inputs":[{"internalType":"uint256","name":"tokenId","type":"uint256"}],"name":"tokenURI","outputs":[{"internalType":"string","name":"","type":"string"}],"stateMutability":"view","type":"function"},{"inputs":[],"name":"totalSupply","outputs":[{"internalType":"uint256","name":"","type":"uint256"}],"stateMutability":"view","type":"function"},{"inputs":[{"internalType":"address","name":"from","type":"address"},{"internalType":"address","name":"to","type":"address"},{"internalType":"uint256","name":"tokenId","type":"uint256"}],"name":"transferFrom","outputs":[],"stateMutability":"nonpayable","type":"function"},{"inputs":[{"internalType":"address","name":"newOwner","type":"address"}],"name":"transferOwnership","outputs":[],"stateMutability":"nonpayable","type":"function"},{"inputs":[{"internalType":"address","name":"tokenAddress","type":"address"},{"internalType":"uint256","name":"amountOrTokenId","type":"uint256"}],"name":"withdraw","outputs":[],"stateMutability":"nonpayable","type":"function"},{"stateMutability":"payable","type":"receive"}],"evm":{"bytecode":{"linkReferences":{},"object":"608060405234620000265762000014620001cf565b60405161338a62000500823961338a90f35b600080fd5b634e487b7160e01b600052604160045260246000fd5b90601f01601f191681019081106001600160401b038211176200006357604052565b6200002b565b90620000806200007860405190565b928362000041565b565b6001600160401b0381116200006357602090601f01601f19160190565b90620000b5620000af8362000082565b62000069565b918252565b620000c6600c6200009f565b6b109b1bd8dad9985b9cd3919560a21b602082015290565b620000e8620000ba565b90565b620000f760036200009f565b6221232760e91b602082015290565b620000e8620000eb565b90600019905b9181191691161790565b620000e8620000e8620000e89290565b9062000144620000e86200014c9262000120565b825462000110565b9055565b62000160620000e8620000e89290565b6001600160a01b031690565b620000e89062000150565b620000e89062000160906001600160a01b031682565b620000e89062000177565b620000e8906200018d565b906001600160a01b039062000116565b90620001c7620000e86200014c9262000198565b8254620001a3565b620001ee620001dd620000de565b620001e762000106565b9062000259565b6200020960016200020181600f62000130565b601062000130565b62000080620002516200021d60006200016c565b620002346200022c8262000198565b600e620001b3565b6200024b620002438262000198565b600c620001b3565b62000198565b600d620001b3565b6200008091620002699162000274565b62000080336200049d565b620000809182918291906200046c565b634e487b7160e01b600052602260045260246000fd5b9060016002830492168015620002bd575b6020831014620002b757565b62000284565b91607f1691620002ab565b9160001960089290920291821b911b62000116565b9190620002f2620000e86200014c9362000120565b908354620002c8565b6200008091600091620002dd565b81811062000315575050565b80620003256000600193620002fb565b0162000309565b9190601f81116200033c57505050565b620003506200008093600052602060002090565b906020601f84018190048301931062000374575b6020601f90910104019062000309565b909150819062000364565b9062000389815190565b906001600160401b0382116200006357620003b182620003aa85546200029a565b856200032c565b602090601f8311600114620003f0576200014c929160009183620003e4575b5050600019600883021c1916906002021790565b015190503880620003d0565b601f198316916200040685600052602060002090565b9260005b81811062000447575091600293918560019694106200042d575b50505002019055565b01516000196008601f8516021c1916905538808062000424565b919360206001819287870151815501950192016200040a565b9062000080916200037f565b906200047e6200008092600062000460565b600162000460565b620000e89062000160565b620000e8905462000486565b620004a9600b62000491565b90620004b781600b620001b3565b620004ee620004e77f8be0079c531659141344cd1fd0a4f28419497f9722a3daafe3b4186f6b6457e09362000198565b9162000198565b91620004f960405190565b600090a356fe60806040526004361015610026575b361561001e5761001c611a39565b005b61001c611a39565b60003560e01c806301ffc9a7146101e657806306fdde03146101e1578063081812fc146101dc578063095ea7b3146101d757806318160ddd146101d257806323b872dd146101cd578063265aa621146101c85780632f745c59146101c357806342842e0e146101be5780634f6ccce7146101b957806351ed8288146101b45780636352211e146101af5780636d224c4d146101aa57806370a08231146101a5578063715018a6146101a05780638da5cb5b1461019b578063926061f01461019657806395d89b4114610191578063a22cb4651461018c578063b88d4fde14610187578063ba908b4514610182578063c87b56dd1461017d578063c909adc014610178578063e0189dee14610173578063e985e9c51461016e578063f2fde38b14610169578063f3fef3a3146101645763fa3157d50361000e57610ce5565b610ccc565b610cb4565b610c98565b610c3e565b610acc565b610aa5565b610a8d565b610a71565b610a08565b6109b5565b61099a565b610953565b61093b565b610920565b6108ed565b61078e565b610776565b61075b565b610742565b610726565b6106ef565b61041f565b6103c2565b6103a4565b610330565b6102d6565b61022d565b6001600160e01b031981165b036101fe57565b600080fd5b90503590610210826101eb565b565b906020828203126101fe5761022691610203565b90565b9052565b346101fe5761025b610248610243366004610212565b611a76565b6040515b91829182901515815260200190565b0390f35b60009103126101fe57565b60005b83811061027d5750506000910152565b818101518382015260200161026d565b6102ae6102b76020936102c1936102a2815190565b80835293849260200190565b9586910161026a565b601f01601f191690565b0190565b60208082526102269291019061028d565b346101fe576102e636600461025f565b61025b6102f161103a565b604051918291826102c5565b806101f7565b90503590610210826102fd565b906020828203126101fe5761022691610303565b6001600160a01b031690565b346101fe5761025b61034b610346366004610310565b611177565b604051918291826001600160a01b03909116815260200190565b6001600160a01b0381166101f7565b9050359061021082610365565b91906040838203126101fe576102269061039b8185610374565b93602001610303565b346101fe576103bd6103b7366004610381565b90611116565b604051005b346101fe576103d236600461025f565b61025b6103de60095490565b6040515b9182918290815260200190565b90916060828403126101fe576102266104088484610374565b936104168160208601610374565b93604001610303565b346101fe576103bd6104323660046103ef565b91611236565b6102266102266102269290565b9061044f90610438565b600052602052604060002090565b6102269081565b610226905461045d565b634e487b7160e01b600052602260045260246000fd5b90600160028304921680156104a4575b602083101461049f57565b61046e565b91607f1691610494565b805460009392916104cb6104c183610484565b8085529360200190565b916001811690811561051d57506001146104e457505050565b6104f79192939450600052602060002090565b916000925b8184106105095750500190565b8054848401526020909301926001016104fc565b92949550505060ff1916825215156020020190565b90610226916104ae565b634e487b7160e01b600052604160045260246000fd5b90601f01601f1916810190811067ffffffffffffffff82111761057457604052565b61053c565b906102106105939261058a60405190565b93848092610532565b0383610552565b610226905b60ff1690565b610226905461059a565b6105ba906012610445565b906105c482610464565b916105d960018201546001600160a01b031690565b916105e660028301610579565b916105f360038201610579565b9161060060048301610579565b9161060d60058201610579565b91610226600761061f60068501610464565b93016105a5565b634e487b7160e01b600052602160045260246000fd5b6006111561064657565b610626565b906102108261063c565b6102269061064b565b61022990610655565b9360e0956106c46106d2926106b6886106e8986102109d9f9e9c976106e0996106996106a99260006101008701960152565b6001600160a01b031660208d0152565b8a820360408c015261028d565b9088820360608a015261028d565b90868203608088015261028d565b9084820360a086015261028d565b9660c0830152565b019061065e565b346101fe5761025b61070a610705366004610310565b6105af565b9461071d98969894919493929360405190565b98899889610667565b346101fe5761025b6103de61073c366004610381565b9061191f565b346101fe576103bd6107553660046103ef565b91611277565b346101fe5761025b6103de610771366004610310565b6119f4565b346101fe576103bd610789366004610310565b612787565b346101fe5761025b61034b6107a4366004610310565b611003565b906102106107b660405190565b9283610552565b67ffffffffffffffff811161057457602090601f01601f19160190565b90826000939282370152565b909291926107fb6107f6826107bd565b6107a9565b938185526020850190828401116101fe57610210926107da565b9080601f830112156101fe57816020610226933591016107e6565b600611156101fe57565b9050359061021082610830565b909160c0828403126101fe57813567ffffffffffffffff81116101fe5783610870918401610815565b92602083013567ffffffffffffffff81116101fe5781610891918501610815565b92604081013567ffffffffffffffff81116101fe57826108b2918301610815565b92606082013567ffffffffffffffff81116101fe576108d684610226928501610815565b936108e48160808601610303565b9360a00161083a565b346101fe576103bd610900366004610847565b949390939291926124e3565b906020828203126101fe5761022691610374565b346101fe5761025b6103de61093636600461090c565b610f7a565b346101fe5761094b36600461025f565b6103bd610d35565b346101fe5761096336600461025f565b61025b61034b600b546001600160a01b031690565b610226916008021c81565b906102269154610978565b6102266000600f610983565b346101fe576109aa36600461025f565b61025b6103de61098e565b346101fe576109c536600461025f565b61025b6102f1611044565b8015156101f7565b90503590610210826109d0565b91906040838203126101fe57610226906109ff8185610374565b936020016109d8565b346101fe576103bd610a1b3660046109e5565b906111a4565b906080828203126101fe57610a368183610374565b92610a448260208501610374565b92610a528360408301610303565b92606082013567ffffffffffffffff81116101fe576102269201610815565b346101fe576103bd610a84366004610a21565b92919091611287565b346101fe576103bd610aa036600461090c565b612229565b346101fe5761025b6102f1610abb366004610310565b611b4a565b61022660006010610983565b346101fe57610adc36600461025f565b61025b6103de610ac0565b6102269060081c61059f565b6102269054610ae7565b610b08906013610445565b610b1181610464565b91610b2660018301546001600160a01b031690565b91610b3360028201610579565b91610b4060038301610579565b91610b4d60048201610579565b91610b5a60058301610579565b91610b6760068201610464565b916102266007610b788185016105a5565b9301610af3565b6005111561064657565b9061021082610b7f565b61022690610b89565b61022990610b93565b9495610c1761010097610c09610c3797610bfb9b9e9d9b610c25966102109e99610bee610c2d9a60208f610bdf6101208201966000830152565b01906001600160a01b03169052565b8c820360408e015261028d565b908a820360608c015261028d565b9088820360808a015261028d565b9086820360a088015261028d565b9860c0850152565b60e083019061065e565b0190610b9c565b346101fe5761025b610c59610c54366004610310565b610afd565b95610c6c99979995919594929460405190565b998a998a610ba5565b91906040838203126101fe5761022690610c8f8185610374565b93602001610374565b346101fe5761025b610248610cae366004610c75565b906111af565b346101fe576103bd610cc736600461090c565b610e56565b346101fe576103bd610cdf366004610381565b9061334a565b346101fe576103bd610cf836600461090c565b612251565b610d05610d91565b610210610d23565b6103246102266102269290565b61022690610d0d565b610210610d306000610d1a565b610eb5565b610210610cfd565b15610d4457565b60405162461bcd60e51b815280610d8d600482016020808252818101527f4f776e61626c653a2063616c6c6572206973206e6f7420746865206f776e6572604082015260600190565b0390fd5b610210610da6600b546001600160a01b031690565b610dbf610db233610324565b916001600160a01b031690565b14610d3d565b61021090610dd1610d91565b610e31565b15610ddd57565b60405162461bcd60e51b815260206004820152602660248201527f4f776e61626c653a206e6577206f776e657220697320746865207a65726f206160448201526564647265737360d01b6064820152608490fd5b61021090610d30610e456103246000610d1a565b6001600160a01b0383161415610dd6565b61021090610dc5565b906001600160a01b03905b9181191691161790565b61022690610324906001600160a01b031682565b61022690610e74565b61022690610e88565b90610eaa610226610eb192610e91565b8254610e5f565b9055565b600b546001600160a01b031690610ecd81600b610e9a565b610f00610efa7f8be0079c531659141344cd1fd0a4f28419497f9722a3daafe3b4186f6b6457e093610e91565b91610e91565b91610f0a60405190565b80805b0390a3565b15610f1957565b60405162461bcd60e51b815260206004820152602960248201527f4552433732313a2061646472657373207a65726f206973206e6f7420612076616044820152683634b21037bbb732b960b91b6064820152608490fd5b9061044f90610e91565b610fb261022691610f89600090565b50610fab610f9a6103246000610d1a565b6001600160a01b0383161415610f12565b6003610f70565b610464565b15610fbe57565b60405162461bcd60e51b815260206004820152601860248201527f4552433732313a20696e76616c696420746f6b656e20494400000000000000006044820152606490fd5b6110109060005b50611327565b6102266110206103246000610d1a565b6001600160a01b0383161415610fb7565b61022690610579565b6102266000611031565b6102266001611031565b1561105557565b60405162461bcd60e51b815260206004820152602160248201527f4552433732313a20617070726f76616c20746f2063757272656e74206f776e656044820152603960f91b6064820152608490fd5b156110ab57565b60405162461bcd60e51b815260206004820152603d60248201527f4552433732313a20617070726f76652063616c6c6572206973206e6f7420746f60448201527f6b656e206f776e6572206f7220617070726f76656420666f7220616c6c0000006064820152608490fd5b906102109161116161112783611003565b6111456001600160a01b0382166001600160a01b038516141561104e565b336001600160a01b0382168114918215611166575b50506110a4565b6115e3565b61117092506111af565b388061115a565b61119761022691611186600090565b506111908161170f565b6004610445565b546001600160a01b031690565b610210919033611699565b610226916111ca6111cf926111c2600090565b506005610f70565b610f70565b6105a5565b156111db57565b60405162461bcd60e51b815260206004820152602d60248201527f4552433732313a2063616c6c6572206973206e6f7420746f6b656e206f776e6560448201526c1c881bdc88185c1c1c9bdd9959609a1b6064820152608490fd5b61021092919061124e611249843361133e565b6111d4565b6114b9565b906112606107f6836107bd565b918252565b6102266000611253565b610226611265565b90916102109261128561126f565b925b6102109392919061129b611249843361133e565b611308565b156112a757565b6040515b62461bcd60e51b815260206004820152603260248201527f4552433732313a207472616e7366657220746f206e6f6e20455243373231526560448201527131b2b4bb32b91034b6b83632b6b2b73a32b960711b6064820152608490fd5b9161021093916113229361131d8383836114b9565b6117bd565b6112a0565b61119761022691611336600090565b506002610445565b61134782611003565b916001600160a01b0383166001600160a01b03831614928315611394575b50821561137157505090565b611390919250611383610db291611177565b926001600160a01b031690565b1490565b6113a191935082906111af565b9138611365565b156113af57565b60405162461bcd60e51b815260206004820152602560248201527f4552433732313a207472616e736665722066726f6d20696e636f72726563742060448201526437bbb732b960d91b6064820152608490fd5b1561140957565b60405162461bcd60e51b8152602060048201526024808201527f4552433732313a207472616e7366657220746f20746865207a65726f206164646044820152637265737360e01b6064820152608490fd5b916001600160a01b0360089290920291821b911b610e6a565b9190611484610226610eb193610e91565b90835461145a565b61021091600091611473565b9060001990610e6a565b906114b2610226610eb192610438565b8254611498565b91906114df6114c783611003565b6114d96001600160a01b038616610db2565b146113a8565b61158360006115046114f361032483610d1a565b6001600160a01b0385161415611402565b61154c6115116001610438565b9161151e8387878a611eed565b61153c61152a87611003565b6114d96001600160a01b038a16610db2565b611547866004610445565b61148c565b6115736115798460036111ca6115628a83610f70565b6115738761156f83610464565b0390565b906114a2565b916102c183610464565b61159781611592846002610445565b610e9a565b6115d36115cd6115c77fddf252ad1be2c89b69c2b068fc378daa952ba7f163c4a11628f55a4df523b3ef95610e91565b92610e91565b92610438565b926115dd60405190565b600090a4565b906115f382611592836004610445565b6115fc81611003565b916115d36115cd6115c77f8c5be1e5ebec7d5bd14f71427d1e84f3dd0314c0f7b2291e5b200ac8c7c3b92595610e91565b1561163457565b60405162461bcd60e51b815260206004820152601960248201527f4552433732313a20617070726f766520746f2063616c6c6572000000000000006044820152606490fd5b9060ff90610e6a565b90611692610226610eb192151590565b8254611679565b6116b76001600160a01b0383166001600160a01b038316141561162d565b6116cf836116ca846111ca856005610f70565b611682565b610f0d6117056116ff7f17307eab39ab6107e8899845ad3d59bd9653f200f220920489ca2b5937696c3193610e91565b93610e91565b9361024c60405190565b61171b61021091611720565b610fb7565b61172b90600061100a565b61173b610db26103246000610d1a565b141590565b90505190610210826101eb565b906020828203126101fe5761022691611740565b6001600160a01b0391821681529116602082015260408101919091526080606082018190526102269291019061028d565b6040513d6000823e3d90fd5b3d156117b8576117ad3d611253565b903d6000602084013e565b606090565b919093926117c9600090565b946117d381611a27565b156118b5579061181a60006117f26117ed60209695610e91565b610e91565b9261182563150b7a02916118033390565b9661180d60405190565b998a988997889660e01b90565b865260048601611761565b03925af160009181611885575b50611868575061184061179e565b805161185361184f6000610438565b9190565b03611860576040516112ab565b805190602001fd5b909150611390630a85bd0160e11b5b916001600160e01b03191690565b6118a791925060203d81116118ae575b61189f8183610552565b81019061174d565b9038611832565b503d611895565b5060019450505050565b156118c657565b60405162461bcd60e51b815260206004820152602b60248201527f455243373231456e756d657261626c653a206f776e657220696e646578206f7560448201526a74206f6620626f756e647360a81b6064820152608490fd5b61022691611950610fb292611932600090565b5061194961194261022683610f7a565b84106118bf565b6007610f70565b610445565b1561195c57565b60405162461bcd60e51b815260206004820152602c60248201527f455243373231456e756d657261626c653a20676c6f62616c20696e646578206f60448201526b7574206f6620626f756e647360a01b6064820152608490fd5b634e487b7160e01b600052603260045260246000fd5b80548210156119ef576119e6600191600052602060002090565b91020190600090565b6119b6565b611a2161022691611a03600090565b50611a1a611a1361022660095490565b8210611955565b60096119cc565b90610983565b3b611a3561184f6000610438565b1190565b347f88a5966d370b9919b20f3e2c13ff65706f196a4e32cc2c12bf57088f88525874611a71611a6733610e91565b926103e260405190565b0390a2565b6102269063780e9d6360e01b6001600160e01b0319821614908115611a99575090565b6102269150611ac3565b611ab6611ab06102269290565b60e01b90565b6001600160e01b03191690565b611ad3611ab66349064906611aa3565b6001600160e01b0319821614908115611aea575090565b61022691506380ac58cd60e01b6001600160e01b0319821614908115611b1f575b8115611b15575090565b6102269150611b3a565b6001600160e01b03198116635b5e139f60e01b149150611b0b565b6113906301ffc9a760e01b611877565b61022690611b88565b6102c1611b6b92602092611b65815190565b94859290565b9384910161026a565b611b82906102269392611b53565b90611b53565b611b918161170f565b611ba4611b9f826006610445565b611031565b611bac611c64565b8051600090611bbd61184f83610438565b14611c1057611bd061184f6115cd855190565b11611be057505061022690611c17565b6102269250611c049161022691611bf660405190565b938492602084019283611b74565b90810382520382610552565b5050905090565b611c208161170f565b611c28611c64565b8051611c3761184f6000610438565b1115611c5a57610226611c0491611c5061022694611cbd565b90611bf660405190565b505061022661126f565b60605b5061022661126f565b369037565b90610210611c8b611c8584611253565b936107bd565b601f190160208401611c70565b634e487b7160e01b600052601260045260246000fd5b8115611cb8570490565b611c98565b611cc681611d49565b90611cd66001926102c184610438565b9180611ce184611c75565b936020018401905b611cf4575b50505090565b611d289060001901926f181899199a1a9b1b9c1cb0b131b232b360811b600a82061a8453611d22600a610438565b90611cae565b9081611d3761184f6000610438565b14611d4457909181611ce9565b611cee565b611d536000610438565b907a184f03e93ff9f4daa797ed6e38ed64bf6a1f010000000000000000611d7981610438565b821015611ecb575b506d04ee2d6d415b85acef8100000000611d9a81610438565b821015611ea9575b50662386f26fc10000611db481610438565b821015611e87575b506305f5e100611dcb81610438565b821015611e65575b50612710611de081610438565b821015611e43575b506064611df481610438565b821015611e21575b50611e0a61184f600a610438565b1015611e135790565b610226906102c16001610438565b611e3c91611d22611e3192610438565b916102c16002610438565b9038611dfc565b611e5e91611d22611e5392610438565b916102c16004610438565b9038611de8565b611e8091611d22611e7592610438565b916102c16008610438565b9038611dd3565b611ea291611d22611e9792610438565b916102c16010610438565b9038611dbc565b611ec491611d22611eb992610438565b916102c16020610438565b9038611da2565b611ee691611d22611edb92610438565b916102c16040610438565b9038611d81565b61021093919291611f0161184f6001610438565b11611f9757611f35611f136000610d1a565b6001600160a01b0381166001600160a01b03841603611f745761032484612086565b6001600160a01b03841603611f4f575061021091506121a9565b6001600160a01b03166001600160a01b03831603611f6b575050565b61021091611ffa565b6001600160a01b0385166001600160a01b038416146103245761032484846120de565b60405162461bcd60e51b815260206004820152603560248201527f455243373231456e756d657261626c653a20636f6e7365637574697665207472604482015274185b9cd9995c9cc81b9bdd081cdd5c1c1bdc9d1959605a1b6064820152608490fd5b61201f826120246102109461201f6119509561201581610f7a565b9687916007610f70565b6114a2565b6008610445565b9160001960089290920291821b911b610e6a565b9190612050610226610eb193610438565b90835461202b565b90815491680100000000000000008310156105745782612080916001610210950181556119cc565b9061203f565b610210906120a5600961022661209a825490565b61201f85600a610445565b612058565b634e487b7160e01b600052601160045260246000fd5b919082039182116120cd57565b6120aa565b6102109160009161203f565b61212c610210926119506000936119498561212c61210e6120fe85610f7a565b6121086001610438565b906120c0565b95600861211e610fb28383610445565b888103612131575b50610445565b6120d2565b8061201f8861215f8c61201f61216596611950612157610fb26007956119508988610f70565b958694610f70565b84610445565b38612126565b634e487b7160e01b600052603160045260246000fd5b805480156121a45760001901906121a161219b83836119cc565b906120d2565b55565b61216b565b6121f761021091610226600061212c6009936121c66120fe865490565b611950600a9161201f6121e9611a216121e2610fb28888610445565b938b6119cc565b61215f81612080858d6119cc565b612181565b61021090612208610d91565b612222610210916117ed61221b82610e91565b600e610e9a565b600c610e9a565b610210906121fc565b6102109061223e610d91565b61224a61021091610e91565b600d610e9a565b61021090612232565b60001981146120cd5760010190565b6102266101206107a9565b906102299061064b565b9061022990610b89565b818110612293575050565b806122a160006001936120d2565b01612288565b9190601f81116122b657505050565b6122c861021093600052602060002090565b906020601f8401819004830193106122ea575b6020601f909101040190612288565b90915081906122db565b906122fd815190565b9067ffffffffffffffff8211610574576123218261231b8554610484565b856122a7565b602090601f831160011461235c57610eb1929160009183612351575b5050600019600883021c1916906002021790565b01519050388061233d565b601f1983169161237185600052602060002090565b9260005b8181106123af57509160029391856001969410612396575b50505002019055565b01516000196008601f8516021c1916905538808061238d565b91936020600181928787015181550195019201612375565b90610210916122f4565b610226905161064b565b90611692610226610eb192610655565b6102269051610b89565b9061ff009060081b610e6a565b90612412610226610eb192610b93565b82546123f5565b61021091906124d3906101009060079061243581611573875190565b6124566001820161245060208801516001600160a01b031690565b90610e9a565b61246e60028201612468604088015190565b906123c7565b61248060038201612468606088015190565b61249260048201612468608088015190565b6124a46005820161246860a088015190565b6124b66006820161157360c088015190565b01926124cd6124c760e083016123d1565b856123db565b016123eb565b90612402565b9061021091612419565b9294919390946124f3600f610464565b946124fd8661225a565b61250890600f6114a2565b3396600095612515612269565b9861252089898c0152565b6001600160a01b031660208a015260408901526060880152608087015260a086015260c08501526125549060e08501612274565b61256290610100840161227e565b61256d906013610445565b90610210916124d9565b9061021061264b6007612588612269565b9461259961259582610464565b8752565b6125c06125b060018301546001600160a01b031690565b6001600160a01b03166020880152565b6125d66125cf60028301610579565b6040880152565b6125ec6125e560038301610579565b6060880152565b6126026125fb60048301610579565b6080880152565b61261861261160058301610579565b60a0880152565b61262e61262760068301610464565b60c0880152565b61264561263c8383016105a5565b60e08801612274565b01610af3565b610100840161227e565b61022690612577565b90505190610210826102fd565b906020828203126101fe576102269161265e565b6001600160a01b03909116815260408101929161021091602090610bdf565b818102929181159184041417156120cd57565b156126b857565b60405162461bcd60e51b8152602060048201526011602482015270105b1b1bddd85b98d9481b9bdd081cd95d607a1b6044820152606490fd5b90505190610210826109d0565b906020828203126101fe57610226916126f1565b61022990610e91565b6001600160a01b039091168152606081019392610210929091604091612745906020830190612712565b0152565b1561275057565b60405162461bcd60e51b815260206004820152600f60248201526e151c985b9cd9995c8819985a5b1959608a1b6044820152606490fd5b61279a612795826013610445565b612655565b906127d86127b36117ed600c546001600160a01b031690565b3393602063dd62ed3e6127c530610e91565b936127cf60405190565b95869260e01b90565b825281806127ea878b6004840161267f565b03915afa92831561293257600093612937575b5060c06020910161283961280f825190565b9461283261184f610226670de0b6b3a76400009861282c8a610438565b9061269e565b10156126b1565b61284e6117ed600c546001600160a01b031690565b612899600061287f6323b872dd9761282c612879612874600e546001600160a01b031690565b975190565b91610438565b966128a561288c60405190565b9889968795869460e01b90565b84528c6004850161271b565b03925af180156129325784936128ca6128cf926128d795600091612904575b50612749565b612a1f565b9384916114b9565b611a71611a677fdbd06c5b09e89a22b08c07aa17dfc71d3f3741d98ad99285be427c36017340e692610e91565b612925915060203d811161292b575b61291d8183610552565b8101906126fe565b386128c4565b503d612913565b611792565b602091935061295d60c091833d8111612965575b6129558183610552565b81019061266b565b9391506127fd565b503d61294b565b6102266101006107a9565b6102109190612a0f9060e09060079061299281611573875190565b6129ad6001820161245060208801516001600160a01b031690565b6129bf60028201612468604088015190565b6129d160038201612468606088015190565b6129e360048201612468608088015190565b6129f56005820161246860a088015190565b612a076006820161157360c088015190565b0192016123d1565b906123db565b9061021091612977565b612a2a906013610445565b612a3390612655565b612a3d6010610464565b90612a478261225a565b612a529060106114a2565b60208101516001600160a01b0316906040810151906060810151608082015160a08301519160c08401612a83905190565b9360e001612a90906123d1565b94612a9961296c565b96612aa2898952565b6001600160a01b0316602088015260408701526060860152608085015260a084015260c0830152612ad69060e08301612274565b80612ae2836012610445565b90612aec91612a15565b81612af630610e91565b90612b0091612be2565b60208101516001600160a01b031690604081015190606081015160808201519060a08301519260e001612b32906123d1565b93612b3c95612e78565b6102269082612cbd565b15612b4d57565b60405162461bcd60e51b815280610d8d600482016020808252818101527f4552433732313a206d696e7420746f20746865207a65726f2061646472657373604082015260600190565b15612b9d57565b60405162461bcd60e51b815260206004820152601c60248201527f4552433732313a20746f6b656e20616c7265616479206d696e746564000000006044820152606490fd5b90612bed6000610d1a565b91612c0c6001600160a01b0384166001600160a01b0383161415612b46565b612c24612c1f612c1b84611720565b1590565b612b96565b611583612c316001610438565b612c3d81858588611eed565b612c4c612c1f612c1b86611720565b611573611579846003610f70565b15612c6157565b60405162461bcd60e51b815260206004820152602e60248201527f45524337323155524953746f726167653a2055524920736574206f66206e6f6e60448201526d32bc34b9ba32b73a103a37b5b2b760911b6064820152608490fd5b90612ce390612cd3612cce84611720565b612c5a565b612cde836006610445565b6123c7565b612d117ff8e1a15aba9398e019f0b49df1a4fde98ee17ae345cb5f6b5e2c27f5033e8ce7916103e260405190565b0390a1565b610229906001600160a01b031660601b90565b612d3561022991610655565b60f81b90565b612dc2612e3b96611b82612dff612dc2600199611b82612dea612dc26102269f9c611b82612dcf612dc2612da09f612e349f612e1b9f6014611b8292612da0612d99612dae946b3d9131b932b0ba37b9111d1160a11b8152600c0190565b8092612d16565b01601160f91b815260010190565b67113730b6b2911d1160c11b815260080190565b601160f91b815260010190565b6e113232b9b1b934b83a34b7b7111d1160891b8152600f0190565b681134b6b0b3b2911d1160b91b815260090190565b6f1132bc3a32b93730b62fbab936111d1160811b815260100190565b6c1136b2b234b0aa3cb832911d1160991b8152600d0190565b8092612d29565b607d60f81b815260010190565b7f646174613a6170706c69636174696f6e2f6a736f6e3b6261736536342c00000081526102269190601d01611b82565b611c0461022696612ea796612ea29596612e90606090565b50604051978896602088019687612d3b565b612f39565b610226612eb360405190565b8092611c04602083019182612e48565b612ecd6040611253565b7f4142434445464748494a4b4c4d4e4f505152535455565758595a61626364656660208201527f6768696a6b6c6d6e6f707172737475767778797a303132333435363738392b2f604082015290565b610226612ec3565b610226612f1c565b919082018092116120cd57565b8051612f4861184f6000610438565b14611c6757612f55612f24565b906004612f60825190565b906001612f9b612f96612f7e600295612f7887610438565b90612f2c565b93612f91612879600396611d2288610438565b61269e565b611c75565b9401926020850193819082518301915b828110612fe65750505051069081600114612fd65750600214612fcc575090565b6001603d91035390565b905081603d600181940353035390565b84600191979293970191603f828080865194848660121c168901518153018385600c1c16880151815301828460061c168701518153019116840151815301959190612fab565b9061021091613039610d91565b6130d7565b6001600160a01b0390911681526040810192916102109160200152565b6001600160a01b039182168152911660208201526060810192916102109160400152565b1561308657565b60405162461bcd60e51b8152602060048201526024808201527f496e73756666696369656e74204554482062616c616e636520696e20636f6e746044820152631c9858dd60e21b6064820152608490fd5b9060006130e661032482610d1a565b6001600160a01b0384160361317f5761310b61310130610e91565b839031101561307f565b808080846131276117ed6117ed600b546001600160a01b031690565b828215613176575bf115612932577ffff3b3844276f57024e0b42afec1a37f75db36511e43819a4f2a63ab7862b6489061316033610e91565b92611a7161316d60405190565b9283928361303e565b506108fc61312f565b81602061318e6117ed86610e91565b63a9059cbb906131c4856131aa600b546001600160a01b031690565b936131cf6131b760405190565b9788968795869460e01b90565b84526004840161303e565b03925af1908161332e575b50158114613302576131ee6117ed84610e91565b6342842e0e6131fc30610e91565b600b546001600160a01b031692803b156101fe5761323085809461323b8961322360405190565b9889978896879560e01b90565b85526004850161305b565b03925af190816132d6575b5015146132ab5760405162461bcd60e51b815260206004820152603060248201527f546f6b656e2074797065206e6f7420737570706f72746564206f7220696e737560448201526f6666696369656e742062616c616e636560801b6064820152608490fd5b7ffff3b3844276f57024e0b42afec1a37f75db36511e43819a4f2a63ab7862b6489061316033610e91565b6132f590833d85116132fb575b6132ed8183610552565b81019061025f565b38613246565b503d6132e3565b507ffff3b3844276f57024e0b42afec1a37f75db36511e43819a4f2a63ab7862b6489061316033610e91565b6133459060203d811161292b5761291d8183610552565b6131da565b906102109161302c56fea2646970667358221220a358f47ffb4dc38d700d962845692e171057c84de9461bb6f6e3250d3479222364736f6c63430008130033","opcodes":"PUSH1 0x80 PUSH1 0x40 MSTORE CALLVALUE PUSH3 0x26 JUMPI PUSH3 0x14 PUSH3 0x1CF JUMP JUMPDEST PUSH1 0x40 MLOAD PUSH2 0x338A PUSH3 0x500 DUP3 CODECOPY PUSH2 0x338A SWAP1 RETURN JUMPDEST PUSH1 0x0 DUP1 REVERT JUMPDEST PUSH4 0x4E487B71 PUSH1 0xE0 SHL PUSH1 0x0 MSTORE PUSH1 0x41 PUSH1 0x4 MSTORE PUSH1 0x24 PUSH1 0x0 REVERT JUMPDEST SWAP1 PUSH1 0x1F ADD PUSH1 0x1F NOT AND DUP2 ADD SWAP1 DUP2 LT PUSH1 0x1 PUSH1 0x1 PUSH1 0x40 SHL SUB DUP3 GT OR PUSH3 0x63 JUMPI PUSH1 0x40 MSTORE JUMP JUMPDEST PUSH3 0x2B JUMP JUMPDEST SWAP1 PUSH3 0x80 PUSH3 0x78 PUSH1 0x40 MLOAD SWAP1 JUMP JUMPDEST SWAP3 DUP4 PUSH3 0x41 JUMP JUMPDEST JUMP JUMPDEST PUSH1 0x1 PUSH1 0x1 PUSH1 0x40 SHL SUB DUP2 GT PUSH3 0x63 JUMPI PUSH1 0x20 SWAP1 PUSH1 0x1F ADD PUSH1 0x1F NOT AND ADD SWAP1 JUMP JUMPDEST SWAP1 PUSH3 0xB5 PUSH3 0xAF DUP4 PUSH3 0x82 JUMP JUMPDEST PUSH3 0x69 JUMP JUMPDEST SWAP2 DUP3 MSTORE JUMP JUMPDEST PUSH3 0xC6 PUSH1 0xC PUSH3 0x9F JUMP JUMPDEST PUSH12 0x109B1BD8DAD9985B9CD39195 PUSH1 0xA2 SHL PUSH1 0x20 DUP3 ADD MSTORE SWAP1 JUMP JUMPDEST PUSH3 0xE8 PUSH3 0xBA JUMP JUMPDEST SWAP1 JUMP JUMPDEST PUSH3 0xF7 PUSH1 0x3 PUSH3 0x9F JUMP JUMPDEST PUSH3 0x212327 PUSH1 0xE9 SHL PUSH1 0x20 DUP3 ADD MSTORE SWAP1 JUMP JUMPDEST PUSH3 0xE8 PUSH3 0xEB JUMP JUMPDEST SWAP1 PUSH1 0x0 NOT SWAP1 JUMPDEST SWAP2 DUP2 NOT AND SWAP2 AND OR SWAP1 JUMP JUMPDEST PUSH3 0xE8 PUSH3 0xE8 PUSH3 0xE8 SWAP3 SWAP1 JUMP JUMPDEST SWAP1 PUSH3 0x144 PUSH3 0xE8 PUSH3 0x14C SWAP3 PUSH3 0x120 JUMP JUMPDEST DUP3 SLOAD PUSH3 0x110 JUMP JUMPDEST SWAP1 SSTORE JUMP JUMPDEST PUSH3 0x160 PUSH3 0xE8 PUSH3 0xE8 SWAP3 SWAP1 JUMP JUMPDEST PUSH1 0x1 PUSH1 0x1 PUSH1 0xA0 SHL SUB AND SWAP1 JUMP JUMPDEST PUSH3 0xE8 SWAP1 PUSH3 0x150 JUMP JUMPDEST PUSH3 0xE8 SWAP1 PUSH3 0x160 SWAP1 PUSH1 0x1 PUSH1 0x1 PUSH1 0xA0 SHL SUB AND DUP3 JUMP JUMPDEST PUSH3 0xE8 SWAP1 PUSH3 0x177 JUMP JUMPDEST PUSH3 0xE8 SWAP1 PUSH3 0x18D JUMP JUMPDEST SWAP1 PUSH1 0x1 PUSH1 0x1 PUSH1 0xA0 SHL SUB SWAP1 PUSH3 0x116 JUMP JUMPDEST SWAP1 PUSH3 0x1C7 PUSH3 0xE8 PUSH3 0x14C SWAP3 PUSH3 0x198 JUMP JUMPDEST DUP3 SLOAD PUSH3 0x1A3 JUMP JUMPDEST PUSH3 0x1EE PUSH3 0x1DD PUSH3 0xDE JUMP JUMPDEST PUSH3 0x1E7 PUSH3 0x106 JUMP JUMPDEST SWAP1 PUSH3 0x259 JUMP JUMPDEST PUSH3 0x209 PUSH1 0x1 PUSH3 0x201 DUP2 PUSH1 0xF PUSH3 0x130 JUMP JUMPDEST PUSH1 0x10 PUSH3 0x130 JUMP JUMPDEST PUSH3 0x80 PUSH3 0x251 PUSH3 0x21D PUSH1 0x0 PUSH3 0x16C JUMP JUMPDEST PUSH3 0x234 PUSH3 0x22C DUP3 PUSH3 0x198 JUMP JUMPDEST PUSH1 0xE PUSH3 0x1B3 JUMP JUMPDEST PUSH3 0x24B PUSH3 0x243 DUP3 PUSH3 0x198 JUMP JUMPDEST PUSH1 0xC PUSH3 0x1B3 JUMP JUMPDEST PUSH3 0x198 JUMP JUMPDEST PUSH1 0xD PUSH3 0x1B3 JUMP JUMPDEST PUSH3 0x80 SWAP2 PUSH3 0x269 SWAP2 PUSH3 0x274 JUMP JUMPDEST PUSH3 0x80 CALLER PUSH3 0x49D JUMP JUMPDEST PUSH3 0x80 SWAP2 DUP3 SWAP2 DUP3 SWAP2 SWAP1 PUSH3 0x46C JUMP JUMPDEST PUSH4 0x4E487B71 PUSH1 0xE0 SHL PUSH1 0x0 MSTORE PUSH1 0x22 PUSH1 0x4 MSTORE PUSH1 0x24 PUSH1 0x0 REVERT JUMPDEST SWAP1 PUSH1 0x1 PUSH1 0x2 DUP4 DIV SWAP3 AND DUP1 ISZERO PUSH3 0x2BD JUMPI JUMPDEST PUSH1 0x20 DUP4 LT EQ PUSH3 0x2B7 JUMPI JUMP JUMPDEST PUSH3 0x284 JUMP JUMPDEST SWAP2 PUSH1 0x7F AND SWAP2 PUSH3 0x2AB JUMP JUMPDEST SWAP2 PUSH1 0x0 NOT PUSH1 0x8 SWAP3 SWAP1 SWAP3 MUL SWAP2 DUP3 SHL SWAP2 SHL PUSH3 0x116 JUMP JUMPDEST SWAP2 SWAP1 PUSH3 0x2F2 PUSH3 0xE8 PUSH3 0x14C SWAP4 PUSH3 0x120 JUMP JUMPDEST SWAP1 DUP4 SLOAD PUSH3 0x2C8 JUMP JUMPDEST PUSH3 0x80 SWAP2 PUSH1 0x0 SWAP2 PUSH3 0x2DD JUMP JUMPDEST DUP2 DUP2 LT PUSH3 0x315 JUMPI POP POP JUMP JUMPDEST DUP1 PUSH3 0x325 PUSH1 0x0 PUSH1 0x1 SWAP4 PUSH3 0x2FB JUMP JUMPDEST ADD PUSH3 0x309 JUMP JUMPDEST SWAP2 SWAP1 PUSH1 0x1F DUP2 GT PUSH3 0x33C JUMPI POP POP POP JUMP JUMPDEST PUSH3 0x350 PUSH3 0x80 SWAP4 PUSH1 0x0 MSTORE PUSH1 0x20 PUSH1 0x0 KECCAK256 SWAP1 JUMP JUMPDEST SWAP1 PUSH1 0x20 PUSH1 0x1F DUP5 ADD DUP2 SWAP1 DIV DUP4 ADD SWAP4 LT PUSH3 0x374 JUMPI JUMPDEST PUSH1 0x20 PUSH1 0x1F SWAP1 SWAP2 ADD DIV ADD SWAP1 PUSH3 0x309 JUMP JUMPDEST SWAP1 SWAP2 POP DUP2 SWAP1 PUSH3 0x364 JUMP JUMPDEST SWAP1 PUSH3 0x389 DUP2 MLOAD SWAP1 JUMP JUMPDEST SWAP1 PUSH1 0x1 PUSH1 0x1 PUSH1 0x40 SHL SUB DUP3 GT PUSH3 0x63 JUMPI PUSH3 0x3B1 DUP3 PUSH3 0x3AA DUP6 SLOAD PUSH3 0x29A JUMP JUMPDEST DUP6 PUSH3 0x32C JUMP JUMPDEST PUSH1 0x20 SWAP1 PUSH1 0x1F DUP4 GT PUSH1 0x1 EQ PUSH3 0x3F0 JUMPI PUSH3 0x14C SWAP3 SWAP2 PUSH1 0x0 SWAP2 DUP4 PUSH3 0x3E4 JUMPI JUMPDEST POP POP PUSH1 0x0 NOT PUSH1 0x8 DUP4 MUL SHR NOT AND SWAP1 PUSH1 0x2 MUL OR SWAP1 JUMP JUMPDEST ADD MLOAD SWAP1 POP CODESIZE DUP1 PUSH3 0x3D0 JUMP JUMPDEST PUSH1 0x1F NOT DUP4 AND SWAP2 PUSH3 0x406 DUP6 PUSH1 0x0 MSTORE PUSH1 0x20 PUSH1 0x0 KECCAK256 SWAP1 JUMP JUMPDEST SWAP3 PUSH1 0x0 JUMPDEST DUP2 DUP2 LT PUSH3 0x447 JUMPI POP SWAP2 PUSH1 0x2 SWAP4 SWAP2 DUP6 PUSH1 0x1 SWAP7 SWAP5 LT PUSH3 0x42D JUMPI JUMPDEST POP POP POP MUL ADD SWAP1 SSTORE JUMP JUMPDEST ADD MLOAD PUSH1 0x0 NOT PUSH1 0x8 PUSH1 0x1F DUP6 AND MUL SHR NOT AND SWAP1 SSTORE CODESIZE DUP1 DUP1 PUSH3 0x424 JUMP JUMPDEST SWAP2 SWAP4 PUSH1 0x20 PUSH1 0x1 DUP2 SWAP3 DUP8 DUP8 ADD MLOAD DUP2 SSTORE ADD SWAP6 ADD SWAP3 ADD PUSH3 0x40A JUMP JUMPDEST SWAP1 PUSH3 0x80 SWAP2 PUSH3 0x37F JUMP JUMPDEST SWAP1 PUSH3 0x47E PUSH3 0x80 SWAP3 PUSH1 0x0 PUSH3 0x460 JUMP JUMPDEST PUSH1 0x1 PUSH3 0x460 JUMP JUMPDEST PUSH3 0xE8 SWAP1 PUSH3 0x160 JUMP JUMPDEST PUSH3 0xE8 SWAP1 SLOAD PUSH3 0x486 JUMP JUMPDEST PUSH3 0x4A9 PUSH1 0xB PUSH3 0x491 JUMP JUMPDEST SWAP1 PUSH3 0x4B7 DUP2 PUSH1 0xB PUSH3 0x1B3 JUMP JUMPDEST PUSH3 0x4EE PUSH3 0x4E7 PUSH32 0x8BE0079C531659141344CD1FD0A4F28419497F9722A3DAAFE3B4186F6B6457E0 SWAP4 PUSH3 0x198 JUMP JUMPDEST SWAP2 PUSH3 0x198 JUMP JUMPDEST SWAP2 PUSH3 0x4F9 PUSH1 0x40 MLOAD SWAP1 JUMP JUMPDEST PUSH1 0x0 SWAP1 LOG3 JUMP INVALID PUSH1 0x80 PUSH1 0x40 MSTORE PUSH1 0x4 CALLDATASIZE LT ISZERO PUSH2 0x26 JUMPI JUMPDEST CALLDATASIZE ISZERO PUSH2 0x1E JUMPI PUSH2 0x1C PUSH2 0x1A39 JUMP JUMPDEST STOP JUMPDEST PUSH2 0x1C PUSH2 0x1A39 JUMP JUMPDEST PUSH1 0x0 CALLDATALOAD PUSH1 0xE0 SHR DUP1 PUSH4 0x1FFC9A7 EQ PUSH2 0x1E6 JUMPI DUP1 PUSH4 0x6FDDE03 EQ PUSH2 0x1E1 JUMPI DUP1 PUSH4 0x81812FC EQ PUSH2 0x1DC JUMPI DUP1 PUSH4 0x95EA7B3 EQ PUSH2 0x1D7 JUMPI DUP1 PUSH4 0x18160DDD EQ PUSH2 0x1D2 JUMPI DUP1 PUSH4 0x23B872DD EQ PUSH2 0x1CD JUMPI DUP1 PUSH4 0x265AA621 EQ PUSH2 0x1C8 JUMPI DUP1 PUSH4 0x2F745C59 EQ PUSH2 0x1C3 JUMPI DUP1 PUSH4 0x42842E0E EQ PUSH2 0x1BE JUMPI DUP1 PUSH4 0x4F6CCCE7 EQ PUSH2 0x1B9 JUMPI DUP1 PUSH4 0x51ED8288 EQ PUSH2 0x1B4 JUMPI DUP1 PUSH4 0x6352211E EQ PUSH2 0x1AF JUMPI DUP1 PUSH4 0x6D224C4D EQ PUSH2 0x1AA JUMPI DUP1 PUSH4 0x70A08231 EQ PUSH2 0x1A5 JUMPI DUP1 PUSH4 0x715018A6 EQ PUSH2 0x1A0 JUMPI DUP1 PUSH4 0x8DA5CB5B EQ PUSH2 0x19B JUMPI DUP1 PUSH4 0x926061F0 EQ PUSH2 0x196 JUMPI DUP1 PUSH4 0x95D89B41 EQ PUSH2 0x191 JUMPI DUP1 PUSH4 0xA22CB465 EQ PUSH2 0x18C JUMPI DUP1 PUSH4 0xB88D4FDE EQ PUSH2 0x187 JUMPI DUP1 PUSH4 0xBA908B45 EQ PUSH2 0x182 JUMPI DUP1 PUSH4 0xC87B56DD EQ PUSH2 0x17D JUMPI DUP1 PUSH4 0xC909ADC0 EQ PUSH2 0x178 JUMPI DUP1 PUSH4 0xE0189DEE EQ PUSH2 0x173 JUMPI DUP1 PUSH4 0xE985E9C5 EQ PUSH2 0x16E JUMPI DUP1 PUSH4 0xF2FDE38B EQ PUSH2 0x169 JUMPI DUP1 PUSH4 0xF3FEF3A3 EQ PUSH2 0x164 JUMPI PUSH4 0xFA3157D5 SUB PUSH2 0xE JUMPI PUSH2 0xCE5 JUMP JUMPDEST PUSH2 0xCCC JUMP JUMPDEST PUSH2 0xCB4 JUMP JUMPDEST PUSH2 0xC98 JUMP JUMPDEST PUSH2 0xC3E JUMP JUMPDEST PUSH2 0xACC JUMP JUMPDEST PUSH2 0xAA5 JUMP JUMPDEST PUSH2 0xA8D JUMP JUMPDEST PUSH2 0xA71 JUMP JUMPDEST PUSH2 0xA08 JUMP JUMPDEST PUSH2 0x9B5 JUMP JUMPDEST PUSH2 0x99A JUMP JUMPDEST PUSH2 0x953 JUMP JUMPDEST PUSH2 0x93B JUMP JUMPDEST PUSH2 0x920 JUMP JUMPDEST PUSH2 0x8ED JUMP JUMPDEST PUSH2 0x78E JUMP JUMPDEST PUSH2 0x776 JUMP JUMPDEST PUSH2 0x75B JUMP JUMPDEST PUSH2 0x742 JUMP JUMPDEST PUSH2 0x726 JUMP JUMPDEST PUSH2 0x6EF JUMP JUMPDEST PUSH2 0x41F JUMP JUMPDEST PUSH2 0x3C2 JUMP JUMPDEST PUSH2 0x3A4 JUMP JUMPDEST PUSH2 0x330 JUMP JUMPDEST PUSH2 0x2D6 JUMP JUMPDEST PUSH2 0x22D JUMP JUMPDEST PUSH1 0x1 PUSH1 0x1 PUSH1 0xE0 SHL SUB NOT DUP2 AND JUMPDEST SUB PUSH2 0x1FE JUMPI JUMP JUMPDEST PUSH1 0x0 DUP1 REVERT JUMPDEST SWAP1 POP CALLDATALOAD SWAP1 PUSH2 0x210 DUP3 PUSH2 0x1EB JUMP JUMPDEST JUMP JUMPDEST SWAP1 PUSH1 0x20 DUP3 DUP3 SUB SLT PUSH2 0x1FE JUMPI PUSH2 0x226 SWAP2 PUSH2 0x203 JUMP JUMPDEST SWAP1 JUMP JUMPDEST SWAP1 MSTORE JUMP JUMPDEST CALLVALUE PUSH2 0x1FE JUMPI PUSH2 0x25B PUSH2 0x248 PUSH2 0x243 CALLDATASIZE PUSH1 0x4 PUSH2 0x212 JUMP JUMPDEST PUSH2 0x1A76 JUMP JUMPDEST PUSH1 0x40 MLOAD JUMPDEST SWAP2 DUP3 SWAP2 DUP3 SWAP1 ISZERO ISZERO DUP2 MSTORE PUSH1 0x20 ADD SWAP1 JUMP JUMPDEST SUB SWAP1 RETURN JUMPDEST PUSH1 0x0 SWAP2 SUB SLT PUSH2 0x1FE JUMPI JUMP JUMPDEST PUSH1 0x0 JUMPDEST DUP4 DUP2 LT PUSH2 0x27D JUMPI POP POP PUSH1 0x0 SWAP2 ADD MSTORE JUMP JUMPDEST DUP2 DUP2 ADD MLOAD DUP4 DUP3 ADD MSTORE PUSH1 0x20 ADD PUSH2 0x26D JUMP JUMPDEST PUSH2 0x2AE PUSH2 0x2B7 PUSH1 0x20 SWAP4 PUSH2 0x2C1 SWAP4 PUSH2 0x2A2 DUP2 MLOAD SWAP1 JUMP JUMPDEST DUP1 DUP4 MSTORE SWAP4 DUP5 SWAP3 PUSH1 0x20 ADD SWAP1 JUMP JUMPDEST SWAP6 DUP7 SWAP2 ADD PUSH2 0x26A JUMP JUMPDEST PUSH1 0x1F ADD PUSH1 0x1F NOT AND SWAP1 JUMP JUMPDEST ADD SWAP1 JUMP JUMPDEST PUSH1 0x20 DUP1 DUP3 MSTORE PUSH2 0x226 SWAP3 SWAP2 ADD SWAP1 PUSH2 0x28D JUMP JUMPDEST CALLVALUE PUSH2 0x1FE JUMPI PUSH2 0x2E6 CALLDATASIZE PUSH1 0x4 PUSH2 0x25F JUMP JUMPDEST PUSH2 0x25B PUSH2 0x2F1 PUSH2 0x103A JUMP JUMPDEST PUSH1 0x40 MLOAD SWAP2 DUP3 SWAP2 DUP3 PUSH2 0x2C5 JUMP JUMPDEST DUP1 PUSH2 0x1F7 JUMP JUMPDEST SWAP1 POP CALLDATALOAD SWAP1 PUSH2 0x210 DUP3 PUSH2 0x2FD JUMP JUMPDEST SWAP1 PUSH1 0x20 DUP3 DUP3 SUB SLT PUSH2 0x1FE JUMPI PUSH2 0x226 SWAP2 PUSH2 0x303 JUMP JUMPDEST PUSH1 0x1 PUSH1 0x1 PUSH1 0xA0 SHL SUB AND SWAP1 JUMP JUMPDEST CALLVALUE PUSH2 0x1FE JUMPI PUSH2 0x25B PUSH2 0x34B PUSH2 0x346 CALLDATASIZE PUSH1 0x4 PUSH2 0x310 JUMP JUMPDEST PUSH2 0x1177 JUMP JUMPDEST PUSH1 0x40 MLOAD SWAP2 DUP3 SWAP2 DUP3 PUSH1 0x1 PUSH1 0x1 PUSH1 0xA0 SHL SUB SWAP1 SWAP2 AND DUP2 MSTORE PUSH1 0x20 ADD SWAP1 JUMP JUMPDEST PUSH1 0x1 PUSH1 0x1 PUSH1 0xA0 SHL SUB DUP2 AND PUSH2 0x1F7 JUMP JUMPDEST SWAP1 POP CALLDATALOAD SWAP1 PUSH2 0x210 DUP3 PUSH2 0x365 JUMP JUMPDEST SWAP2 SWAP1 PUSH1 0x40 DUP4 DUP3 SUB SLT PUSH2 0x1FE JUMPI PUSH2 0x226 SWAP1 PUSH2 0x39B DUP2 DUP6 PUSH2 0x374 JUMP JUMPDEST SWAP4 PUSH1 0x20 ADD PUSH2 0x303 JUMP JUMPDEST CALLVALUE PUSH2 0x1FE JUMPI PUSH2 0x3BD PUSH2 0x3B7 CALLDATASIZE PUSH1 0x4 PUSH2 0x381 JUMP JUMPDEST SWAP1 PUSH2 0x1116 JUMP JUMPDEST PUSH1 0x40 MLOAD STOP JUMPDEST CALLVALUE PUSH2 0x1FE JUMPI PUSH2 0x3D2 CALLDATASIZE PUSH1 0x4 PUSH2 0x25F JUMP JUMPDEST PUSH2 0x25B PUSH2 0x3DE PUSH1 0x9 SLOAD SWAP1 JUMP JUMPDEST PUSH1 0x40 MLOAD JUMPDEST SWAP2 DUP3 SWAP2 DUP3 SWAP1 DUP2 MSTORE PUSH1 0x20 ADD SWAP1 JUMP JUMPDEST SWAP1 SWAP2 PUSH1 0x60 DUP3 DUP5 SUB SLT PUSH2 0x1FE JUMPI PUSH2 0x226 PUSH2 0x408 DUP5 DUP5 PUSH2 0x374 JUMP JUMPDEST SWAP4 PUSH2 0x416 DUP2 PUSH1 0x20 DUP7 ADD PUSH2 0x374 JUMP JUMPDEST SWAP4 PUSH1 0x40 ADD PUSH2 0x303 JUMP JUMPDEST CALLVALUE PUSH2 0x1FE JUMPI PUSH2 0x3BD PUSH2 0x432 CALLDATASIZE PUSH1 0x4 PUSH2 0x3EF JUMP JUMPDEST SWAP2 PUSH2 0x1236 JUMP JUMPDEST PUSH2 0x226 PUSH2 0x226 PUSH2 0x226 SWAP3 SWAP1 JUMP JUMPDEST SWAP1 PUSH2 0x44F SWAP1 PUSH2 0x438 JUMP JUMPDEST PUSH1 0x0 MSTORE PUSH1 0x20 MSTORE PUSH1 0x40 PUSH1 0x0 KECCAK256 SWAP1 JUMP JUMPDEST PUSH2 0x226 SWAP1 DUP2 JUMP JUMPDEST PUSH2 0x226 SWAP1 SLOAD PUSH2 0x45D JUMP JUMPDEST PUSH4 0x4E487B71 PUSH1 0xE0 SHL PUSH1 0x0 MSTORE PUSH1 0x22 PUSH1 0x4 MSTORE PUSH1 0x24 PUSH1 0x0 REVERT JUMPDEST SWAP1 PUSH1 0x1 PUSH1 0x2 DUP4 DIV SWAP3 AND DUP1 ISZERO PUSH2 0x4A4 JUMPI JUMPDEST PUSH1 0x20 DUP4 LT EQ PUSH2 0x49F JUMPI JUMP JUMPDEST PUSH2 0x46E JUMP JUMPDEST SWAP2 PUSH1 0x7F AND SWAP2 PUSH2 0x494 JUMP JUMPDEST DUP1 SLOAD PUSH1 0x0 SWAP4 SWAP3 SWAP2 PUSH2 0x4CB PUSH2 0x4C1 DUP4 PUSH2 0x484 JUMP JUMPDEST DUP1 DUP6 MSTORE SWAP4 PUSH1 0x20 ADD SWAP1 JUMP JUMPDEST SWAP2 PUSH1 0x1 DUP2 AND SWAP1 DUP2 ISZERO PUSH2 0x51D JUMPI POP PUSH1 0x1 EQ PUSH2 0x4E4 JUMPI POP POP POP JUMP JUMPDEST PUSH2 0x4F7 SWAP2 SWAP3 SWAP4 SWAP5 POP PUSH1 0x0 MSTORE PUSH1 0x20 PUSH1 0x0 KECCAK256 SWAP1 JUMP JUMPDEST SWAP2 PUSH1 0x0 SWAP3 JUMPDEST DUP2 DUP5 LT PUSH2 0x509 JUMPI POP POP ADD SWAP1 JUMP JUMPDEST DUP1 SLOAD DUP5 DUP5 ADD MSTORE PUSH1 0x20 SWAP1 SWAP4 ADD SWAP3 PUSH1 0x1 ADD PUSH2 0x4FC JUMP JUMPDEST SWAP3 SWAP5 SWAP6 POP POP POP PUSH1 0xFF NOT AND DUP3 MSTORE ISZERO ISZERO PUSH1 0x20 MUL ADD SWAP1 JUMP JUMPDEST SWAP1 PUSH2 0x226 SWAP2 PUSH2 0x4AE JUMP JUMPDEST PUSH4 0x4E487B71 PUSH1 0xE0 SHL PUSH1 0x0 MSTORE PUSH1 0x41 PUSH1 0x4 MSTORE PUSH1 0x24 PUSH1 0x0 REVERT JUMPDEST SWAP1 PUSH1 0x1F ADD PUSH1 0x1F NOT AND DUP2 ADD SWAP1 DUP2 LT PUSH8 0xFFFFFFFFFFFFFFFF DUP3 GT OR PUSH2 0x574 JUMPI PUSH1 0x40 MSTORE JUMP JUMPDEST PUSH2 0x53C JUMP JUMPDEST SWAP1 PUSH2 0x210 PUSH2 0x593 SWAP3 PUSH2 0x58A PUSH1 0x40 MLOAD SWAP1 JUMP JUMPDEST SWAP4 DUP5 DUP1 SWAP3 PUSH2 0x532 JUMP JUMPDEST SUB DUP4 PUSH2 0x552 JUMP JUMPDEST PUSH2 0x226 SWAP1 JUMPDEST PUSH1 0xFF AND SWAP1 JUMP JUMPDEST PUSH2 0x226 SWAP1 SLOAD PUSH2 0x59A JUMP JUMPDEST PUSH2 0x5BA SWAP1 PUSH1 0x12 PUSH2 0x445 JUMP JUMPDEST SWAP1 PUSH2 0x5C4 DUP3 PUSH2 0x464 JUMP JUMPDEST SWAP2 PUSH2 0x5D9 PUSH1 0x1 DUP3 ADD SLOAD PUSH1 0x1 PUSH1 0x1 PUSH1 0xA0 SHL SUB AND SWAP1 JUMP JUMPDEST SWAP2 PUSH2 0x5E6 PUSH1 0x2 DUP4 ADD PUSH2 0x579 JUMP JUMPDEST SWAP2 PUSH2 0x5F3 PUSH1 0x3 DUP3 ADD PUSH2 0x579 JUMP JUMPDEST SWAP2 PUSH2 0x600 PUSH1 0x4 DUP4 ADD PUSH2 0x579 JUMP JUMPDEST SWAP2 PUSH2 0x60D PUSH1 0x5 DUP3 ADD PUSH2 0x579 JUMP JUMPDEST SWAP2 PUSH2 0x226 PUSH1 0x7 PUSH2 0x61F PUSH1 0x6 DUP6 ADD PUSH2 0x464 JUMP JUMPDEST SWAP4 ADD PUSH2 0x5A5 JUMP JUMPDEST PUSH4 0x4E487B71 PUSH1 0xE0 SHL PUSH1 0x0 MSTORE PUSH1 0x21 PUSH1 0x4 MSTORE PUSH1 0x24 PUSH1 0x0 REVERT JUMPDEST PUSH1 0x6 GT ISZERO PUSH2 0x646 JUMPI JUMP JUMPDEST PUSH2 0x626 JUMP JUMPDEST SWAP1 PUSH2 0x210 DUP3 PUSH2 0x63C JUMP JUMPDEST PUSH2 0x226 SWAP1 PUSH2 0x64B JUMP JUMPDEST PUSH2 0x229 SWAP1 PUSH2 0x655 JUMP JUMPDEST SWAP4 PUSH1 0xE0 SWAP6 PUSH2 0x6C4 PUSH2 0x6D2 SWAP3 PUSH2 0x6B6 DUP9 PUSH2 0x6E8 SWAP9 PUSH2 0x210 SWAP14 SWAP16 SWAP15 SWAP13 SWAP8 PUSH2 0x6E0 SWAP10 PUSH2 0x699 PUSH2 0x6A9 SWAP3 PUSH1 0x0 PUSH2 0x100 DUP8 ADD SWAP7 ADD MSTORE JUMP JUMPDEST PUSH1 0x1 PUSH1 0x1 PUSH1 0xA0 SHL SUB AND PUSH1 0x20 DUP14 ADD MSTORE JUMP JUMPDEST DUP11 DUP3 SUB PUSH1 0x40 DUP13 ADD MSTORE PUSH2 0x28D JUMP JUMPDEST SWAP1 DUP9 DUP3 SUB PUSH1 0x60 DUP11 ADD MSTORE PUSH2 0x28D JUMP JUMPDEST SWAP1 DUP7 DUP3 SUB PUSH1 0x80 DUP9 ADD MSTORE PUSH2 0x28D JUMP JUMPDEST SWAP1 DUP5 DUP3 SUB PUSH1 0xA0 DUP7 ADD MSTORE PUSH2 0x28D JUMP JUMPDEST SWAP7 PUSH1 0xC0 DUP4 ADD MSTORE JUMP JUMPDEST ADD SWAP1 PUSH2 0x65E JUMP JUMPDEST CALLVALUE PUSH2 0x1FE JUMPI PUSH2 0x25B PUSH2 0x70A PUSH2 0x705 CALLDATASIZE PUSH1 0x4 PUSH2 0x310 JUMP JUMPDEST PUSH2 0x5AF JUMP JUMPDEST SWAP5 PUSH2 0x71D SWAP9 SWAP7 SWAP9 SWAP5 SWAP2 SWAP5 SWAP4 SWAP3 SWAP4 PUSH1 0x40 MLOAD SWAP1 JUMP JUMPDEST SWAP9 DUP10 SWAP9 DUP10 PUSH2 0x667 JUMP JUMPDEST CALLVALUE PUSH2 0x1FE JUMPI PUSH2 0x25B PUSH2 0x3DE PUSH2 0x73C CALLDATASIZE PUSH1 0x4 PUSH2 0x381 JUMP JUMPDEST SWAP1 PUSH2 0x191F JUMP JUMPDEST CALLVALUE PUSH2 0x1FE JUMPI PUSH2 0x3BD PUSH2 0x755 CALLDATASIZE PUSH1 0x4 PUSH2 0x3EF JUMP JUMPDEST SWAP2 PUSH2 0x1277 JUMP JUMPDEST CALLVALUE PUSH2 0x1FE JUMPI PUSH2 0x25B PUSH2 0x3DE PUSH2 0x771 CALLDATASIZE PUSH1 0x4 PUSH2 0x310 JUMP JUMPDEST PUSH2 0x19F4 JUMP JUMPDEST CALLVALUE PUSH2 0x1FE JUMPI PUSH2 0x3BD PUSH2 0x789 CALLDATASIZE PUSH1 0x4 PUSH2 0x310 JUMP JUMPDEST PUSH2 0x2787 JUMP JUMPDEST CALLVALUE PUSH2 0x1FE JUMPI PUSH2 0x25B PUSH2 0x34B PUSH2 0x7A4 CALLDATASIZE PUSH1 0x4 PUSH2 0x310 JUMP JUMPDEST PUSH2 0x1003 JUMP JUMPDEST SWAP1 PUSH2 0x210 PUSH2 0x7B6 PUSH1 0x40 MLOAD SWAP1 JUMP JUMPDEST SWAP3 DUP4 PUSH2 0x552 JUMP JUMPDEST PUSH8 0xFFFFFFFFFFFFFFFF DUP2 GT PUSH2 0x574 JUMPI PUSH1 0x20 SWAP1 PUSH1 0x1F ADD PUSH1 0x1F NOT AND ADD SWAP1 JUMP JUMPDEST SWAP1 DUP3 PUSH1 0x0 SWAP4 SWAP3 DUP3 CALLDATACOPY ADD MSTORE JUMP JUMPDEST SWAP1 SWAP3 SWAP2 SWAP3 PUSH2 0x7FB PUSH2 0x7F6 DUP3 PUSH2 0x7BD JUMP JUMPDEST PUSH2 0x7A9 JUMP JUMPDEST SWAP4 DUP2 DUP6 MSTORE PUSH1 0x20 DUP6 ADD SWAP1 DUP3 DUP5 ADD GT PUSH2 0x1FE JUMPI PUSH2 0x210 SWAP3 PUSH2 0x7DA JUMP JUMPDEST SWAP1 DUP1 PUSH1 0x1F DUP4 ADD SLT ISZERO PUSH2 0x1FE JUMPI DUP2 PUSH1 0x20 PUSH2 0x226 SWAP4 CALLDATALOAD SWAP2 ADD PUSH2 0x7E6 JUMP JUMPDEST PUSH1 0x6 GT ISZERO PUSH2 0x1FE JUMPI JUMP JUMPDEST SWAP1 POP CALLDATALOAD SWAP1 PUSH2 0x210 DUP3 PUSH2 0x830 JUMP JUMPDEST SWAP1 SWAP2 PUSH1 0xC0 DUP3 DUP5 SUB SLT PUSH2 0x1FE JUMPI DUP2 CALLDATALOAD PUSH8 0xFFFFFFFFFFFFFFFF DUP2 GT PUSH2 0x1FE JUMPI DUP4 PUSH2 0x870 SWAP2 DUP5 ADD PUSH2 0x815 JUMP JUMPDEST SWAP3 PUSH1 0x20 DUP4 ADD CALLDATALOAD PUSH8 0xFFFFFFFFFFFFFFFF DUP2 GT PUSH2 0x1FE JUMPI DUP2 PUSH2 0x891 SWAP2 DUP6 ADD PUSH2 0x815 JUMP JUMPDEST SWAP3 PUSH1 0x40 DUP2 ADD CALLDATALOAD PUSH8 0xFFFFFFFFFFFFFFFF DUP2 GT PUSH2 0x1FE JUMPI DUP3 PUSH2 0x8B2 SWAP2 DUP4 ADD PUSH2 0x815 JUMP JUMPDEST SWAP3 PUSH1 0x60 DUP3 ADD CALLDATALOAD PUSH8 0xFFFFFFFFFFFFFFFF DUP2 GT PUSH2 0x1FE JUMPI PUSH2 0x8D6 DUP5 PUSH2 0x226 SWAP3 DUP6 ADD PUSH2 0x815 JUMP JUMPDEST SWAP4 PUSH2 0x8E4 DUP2 PUSH1 0x80 DUP7 ADD PUSH2 0x303 JUMP JUMPDEST SWAP4 PUSH1 0xA0 ADD PUSH2 0x83A JUMP JUMPDEST CALLVALUE PUSH2 0x1FE JUMPI PUSH2 0x3BD PUSH2 0x900 CALLDATASIZE PUSH1 0x4 PUSH2 0x847 JUMP JUMPDEST SWAP5 SWAP4 SWAP1 SWAP4 SWAP3 SWAP2 SWAP3 PUSH2 0x24E3 JUMP JUMPDEST SWAP1 PUSH1 0x20 DUP3 DUP3 SUB SLT PUSH2 0x1FE JUMPI PUSH2 0x226 SWAP2 PUSH2 0x374 JUMP JUMPDEST CALLVALUE PUSH2 0x1FE JUMPI PUSH2 0x25B PUSH2 0x3DE PUSH2 0x936 CALLDATASIZE PUSH1 0x4 PUSH2 0x90C JUMP JUMPDEST PUSH2 0xF7A JUMP JUMPDEST CALLVALUE PUSH2 0x1FE JUMPI PUSH2 0x94B CALLDATASIZE PUSH1 0x4 PUSH2 0x25F JUMP JUMPDEST PUSH2 0x3BD PUSH2 0xD35 JUMP JUMPDEST CALLVALUE PUSH2 0x1FE JUMPI PUSH2 0x963 CALLDATASIZE PUSH1 0x4 PUSH2 0x25F JUMP JUMPDEST PUSH2 0x25B PUSH2 0x34B PUSH1 0xB SLOAD PUSH1 0x1 PUSH1 0x1 PUSH1 0xA0 SHL SUB AND SWAP1 JUMP JUMPDEST PUSH2 0x226 SWAP2 PUSH1 0x8 MUL SHR DUP2 JUMP JUMPDEST SWAP1 PUSH2 0x226 SWAP2 SLOAD PUSH2 0x978 JUMP JUMPDEST PUSH2 0x226 PUSH1 0x0 PUSH1 0xF PUSH2 0x983 JUMP JUMPDEST CALLVALUE PUSH2 0x1FE JUMPI PUSH2 0x9AA CALLDATASIZE PUSH1 0x4 PUSH2 0x25F JUMP JUMPDEST PUSH2 0x25B PUSH2 0x3DE PUSH2 0x98E JUMP JUMPDEST CALLVALUE PUSH2 0x1FE JUMPI PUSH2 0x9C5 CALLDATASIZE PUSH1 0x4 PUSH2 0x25F JUMP JUMPDEST PUSH2 0x25B PUSH2 0x2F1 PUSH2 0x1044 JUMP JUMPDEST DUP1 ISZERO ISZERO PUSH2 0x1F7 JUMP JUMPDEST SWAP1 POP CALLDATALOAD SWAP1 PUSH2 0x210 DUP3 PUSH2 0x9D0 JUMP JUMPDEST SWAP2 SWAP1 PUSH1 0x40 DUP4 DUP3 SUB SLT PUSH2 0x1FE JUMPI PUSH2 0x226 SWAP1 PUSH2 0x9FF DUP2 DUP6 PUSH2 0x374 JUMP JUMPDEST SWAP4 PUSH1 0x20 ADD PUSH2 0x9D8 JUMP JUMPDEST CALLVALUE PUSH2 0x1FE JUMPI PUSH2 0x3BD PUSH2 0xA1B CALLDATASIZE PUSH1 0x4 PUSH2 0x9E5 JUMP JUMPDEST SWAP1 PUSH2 0x11A4 JUMP JUMPDEST SWAP1 PUSH1 0x80 DUP3 DUP3 SUB SLT PUSH2 0x1FE JUMPI PUSH2 0xA36 DUP2 DUP4 PUSH2 0x374 JUMP JUMPDEST SWAP3 PUSH2 0xA44 DUP3 PUSH1 0x20 DUP6 ADD PUSH2 0x374 JUMP JUMPDEST SWAP3 PUSH2 0xA52 DUP4 PUSH1 0x40 DUP4 ADD PUSH2 0x303 JUMP JUMPDEST SWAP3 PUSH1 0x60 DUP3 ADD CALLDATALOAD PUSH8 0xFFFFFFFFFFFFFFFF DUP2 GT PUSH2 0x1FE JUMPI PUSH2 0x226 SWAP3 ADD PUSH2 0x815 JUMP JUMPDEST CALLVALUE PUSH2 0x1FE JUMPI PUSH2 0x3BD PUSH2 0xA84 CALLDATASIZE PUSH1 0x4 PUSH2 0xA21 JUMP JUMPDEST SWAP3 SWAP2 SWAP1 SWAP2 PUSH2 0x1287 JUMP JUMPDEST CALLVALUE PUSH2 0x1FE JUMPI PUSH2 0x3BD PUSH2 0xAA0 CALLDATASIZE PUSH1 0x4 PUSH2 0x90C JUMP JUMPDEST PUSH2 0x2229 JUMP JUMPDEST CALLVALUE PUSH2 0x1FE JUMPI PUSH2 0x25B PUSH2 0x2F1 PUSH2 0xABB CALLDATASIZE PUSH1 0x4 PUSH2 0x310 JUMP JUMPDEST PUSH2 0x1B4A JUMP JUMPDEST PUSH2 0x226 PUSH1 0x0 PUSH1 0x10 PUSH2 0x983 JUMP JUMPDEST CALLVALUE PUSH2 0x1FE JUMPI PUSH2 0xADC CALLDATASIZE PUSH1 0x4 PUSH2 0x25F JUMP JUMPDEST PUSH2 0x25B PUSH2 0x3DE PUSH2 0xAC0 JUMP JUMPDEST PUSH2 0x226 SWAP1 PUSH1 0x8 SHR PUSH2 0x59F JUMP JUMPDEST PUSH2 0x226 SWAP1 SLOAD PUSH2 0xAE7 JUMP JUMPDEST PUSH2 0xB08 SWAP1 PUSH1 0x13 PUSH2 0x445 JUMP JUMPDEST PUSH2 0xB11 DUP2 PUSH2 0x464 JUMP JUMPDEST SWAP2 PUSH2 0xB26 PUSH1 0x1 DUP4 ADD SLOAD PUSH1 0x1 PUSH1 0x1 PUSH1 0xA0 SHL SUB AND SWAP1 JUMP JUMPDEST SWAP2 PUSH2 0xB33 PUSH1 0x2 DUP3 ADD PUSH2 0x579 JUMP JUMPDEST SWAP2 PUSH2 0xB40 PUSH1 0x3 DUP4 ADD PUSH2 0x579 JUMP JUMPDEST SWAP2 PUSH2 0xB4D PUSH1 0x4 DUP3 ADD PUSH2 0x579 JUMP JUMPDEST SWAP2 PUSH2 0xB5A PUSH1 0x5 DUP4 ADD PUSH2 0x579 JUMP JUMPDEST SWAP2 PUSH2 0xB67 PUSH1 0x6 DUP3 ADD PUSH2 0x464 JUMP JUMPDEST SWAP2 PUSH2 0x226 PUSH1 0x7 PUSH2 0xB78 DUP2 DUP6 ADD PUSH2 0x5A5 JUMP JUMPDEST SWAP4 ADD PUSH2 0xAF3 JUMP JUMPDEST PUSH1 0x5 GT ISZERO PUSH2 0x646 JUMPI JUMP JUMPDEST SWAP1 PUSH2 0x210 DUP3 PUSH2 0xB7F JUMP JUMPDEST PUSH2 0x226 SWAP1 PUSH2 0xB89 JUMP JUMPDEST PUSH2 0x229 SWAP1 PUSH2 0xB93 JUMP JUMPDEST SWAP5 SWAP6 PUSH2 0xC17 PUSH2 0x100 SWAP8 PUSH2 0xC09 PUSH2 0xC37 SWAP8 PUSH2 0xBFB SWAP12 SWAP15 SWAP14 SWAP12 PUSH2 0xC25 SWAP7 PUSH2 0x210 SWAP15 SWAP10 PUSH2 0xBEE PUSH2 0xC2D SWAP11 PUSH1 0x20 DUP16 PUSH2 0xBDF PUSH2 0x120 DUP3 ADD SWAP7 PUSH1 0x0 DUP4 ADD MSTORE JUMP JUMPDEST ADD SWAP1 PUSH1 0x1 PUSH1 0x1 PUSH1 0xA0 SHL SUB AND SWAP1 MSTORE JUMP JUMPDEST DUP13 DUP3 SUB PUSH1 0x40 DUP15 ADD MSTORE PUSH2 0x28D JUMP JUMPDEST SWAP1 DUP11 DUP3 SUB PUSH1 0x60 DUP13 ADD MSTORE PUSH2 0x28D JUMP JUMPDEST SWAP1 DUP9 DUP3 SUB PUSH1 0x80 DUP11 ADD MSTORE PUSH2 0x28D JUMP JUMPDEST SWAP1 DUP7 DUP3 SUB PUSH1 0xA0 DUP9 ADD MSTORE PUSH2 0x28D JUMP JUMPDEST SWAP9 PUSH1 0xC0 DUP6 ADD MSTORE JUMP JUMPDEST PUSH1 0xE0 DUP4 ADD SWAP1 PUSH2 0x65E JUMP JUMPDEST ADD SWAP1 PUSH2 0xB9C JUMP JUMPDEST CALLVALUE PUSH2 0x1FE JUMPI PUSH2 0x25B PUSH2 0xC59 PUSH2 0xC54 CALLDATASIZE PUSH1 0x4 PUSH2 0x310 JUMP JUMPDEST PUSH2 0xAFD JUMP JUMPDEST SWAP6 PUSH2 0xC6C SWAP10 SWAP8 SWAP10 SWAP6 SWAP2 SWAP6 SWAP5 SWAP3 SWAP5 PUSH1 0x40 MLOAD SWAP1 JUMP JUMPDEST SWAP10 DUP11 SWAP10 DUP11 PUSH2 0xBA5 JUMP JUMPDEST SWAP2 SWAP1 PUSH1 0x40 DUP4 DUP3 SUB SLT PUSH2 0x1FE JUMPI PUSH2 0x226 SWAP1 PUSH2 0xC8F DUP2 DUP6 PUSH2 0x374 JUMP JUMPDEST SWAP4 PUSH1 0x20 ADD PUSH2 0x374 JUMP JUMPDEST CALLVALUE PUSH2 0x1FE JUMPI PUSH2 0x25B PUSH2 0x248 PUSH2 0xCAE CALLDATASIZE PUSH1 0x4 PUSH2 0xC75 JUMP JUMPDEST SWAP1 PUSH2 0x11AF JUMP JUMPDEST CALLVALUE PUSH2 0x1FE JUMPI PUSH2 0x3BD PUSH2 0xCC7 CALLDATASIZE PUSH1 0x4 PUSH2 0x90C JUMP JUMPDEST PUSH2 0xE56 JUMP JUMPDEST CALLVALUE PUSH2 0x1FE JUMPI PUSH2 0x3BD PUSH2 0xCDF CALLDATASIZE PUSH1 0x4 PUSH2 0x381 JUMP JUMPDEST SWAP1 PUSH2 0x334A JUMP JUMPDEST CALLVALUE PUSH2 0x1FE JUMPI PUSH2 0x3BD PUSH2 0xCF8 CALLDATASIZE PUSH1 0x4 PUSH2 0x90C JUMP JUMPDEST PUSH2 0x2251 JUMP JUMPDEST PUSH2 0xD05 PUSH2 0xD91 JUMP JUMPDEST PUSH2 0x210 PUSH2 0xD23 JUMP JUMPDEST PUSH2 0x324 PUSH2 0x226 PUSH2 0x226 SWAP3 SWAP1 JUMP JUMPDEST PUSH2 0x226 SWAP1 PUSH2 0xD0D JUMP JUMPDEST PUSH2 0x210 PUSH2 0xD30 PUSH1 0x0 PUSH2 0xD1A JUMP JUMPDEST PUSH2 0xEB5 JUMP JUMPDEST PUSH2 0x210 PUSH2 0xCFD JUMP JUMPDEST ISZERO PUSH2 0xD44 JUMPI JUMP JUMPDEST PUSH1 0x40 MLOAD PUSH3 0x461BCD PUSH1 0xE5 SHL DUP2 MSTORE DUP1 PUSH2 0xD8D PUSH1 0x4 DUP3 ADD PUSH1 0x20 DUP1 DUP3 MSTORE DUP2 DUP2 ADD MSTORE PUSH32 0x4F776E61626C653A2063616C6C6572206973206E6F7420746865206F776E6572 PUSH1 0x40 DUP3 ADD MSTORE PUSH1 0x60 ADD SWAP1 JUMP JUMPDEST SUB SWAP1 REVERT JUMPDEST PUSH2 0x210 PUSH2 0xDA6 PUSH1 0xB SLOAD PUSH1 0x1 PUSH1 0x1 PUSH1 0xA0 SHL SUB AND SWAP1 JUMP JUMPDEST PUSH2 0xDBF PUSH2 0xDB2 CALLER PUSH2 0x324 JUMP JUMPDEST SWAP2 PUSH1 0x1 PUSH1 0x1 PUSH1 0xA0 SHL SUB AND SWAP1 JUMP JUMPDEST EQ PUSH2 0xD3D JUMP JUMPDEST PUSH2 0x210 SWAP1 PUSH2 0xDD1 PUSH2 0xD91 JUMP JUMPDEST PUSH2 0xE31 JUMP JUMPDEST ISZERO PUSH2 0xDDD JUMPI JUMP JUMPDEST PUSH1 0x40 MLOAD PUSH3 0x461BCD PUSH1 0xE5 SHL DUP2 MSTORE PUSH1 0x20 PUSH1 0x4 DUP3 ADD MSTORE PUSH1 0x26 PUSH1 0x24 DUP3 ADD MSTORE PUSH32 0x4F776E61626C653A206E6577206F776E657220697320746865207A65726F2061 PUSH1 0x44 DUP3 ADD MSTORE PUSH6 0x646472657373 PUSH1 0xD0 SHL PUSH1 0x64 DUP3 ADD MSTORE PUSH1 0x84 SWAP1 REVERT JUMPDEST PUSH2 0x210 SWAP1 PUSH2 0xD30 PUSH2 0xE45 PUSH2 0x324 PUSH1 0x0 PUSH2 0xD1A JUMP JUMPDEST PUSH1 0x1 PUSH1 0x1 PUSH1 0xA0 SHL SUB DUP4 AND EQ ISZERO PUSH2 0xDD6 JUMP JUMPDEST PUSH2 0x210 SWAP1 PUSH2 0xDC5 JUMP JUMPDEST SWAP1 PUSH1 0x1 PUSH1 0x1 PUSH1 0xA0 SHL SUB SWAP1 JUMPDEST SWAP2 DUP2 NOT AND SWAP2 AND OR SWAP1 JUMP JUMPDEST PUSH2 0x226 SWAP1 PUSH2 0x324 SWAP1 PUSH1 0x1 PUSH1 0x1 PUSH1 0xA0 SHL SUB AND DUP3 JUMP JUMPDEST PUSH2 0x226 SWAP1 PUSH2 0xE74 JUMP JUMPDEST PUSH2 0x226 SWAP1 PUSH2 0xE88 JUMP JUMPDEST SWAP1 PUSH2 0xEAA PUSH2 0x226 PUSH2 0xEB1 SWAP3 PUSH2 0xE91 JUMP JUMPDEST DUP3 SLOAD PUSH2 0xE5F JUMP JUMPDEST SWAP1 SSTORE JUMP JUMPDEST PUSH1 0xB SLOAD PUSH1 0x1 PUSH1 0x1 PUSH1 0xA0 SHL SUB AND SWAP1 PUSH2 0xECD DUP2 PUSH1 0xB PUSH2 0xE9A JUMP JUMPDEST PUSH2 0xF00 PUSH2 0xEFA PUSH32 0x8BE0079C531659141344CD1FD0A4F28419497F9722A3DAAFE3B4186F6B6457E0 SWAP4 PUSH2 0xE91 JUMP JUMPDEST SWAP2 PUSH2 0xE91 JUMP JUMPDEST SWAP2 PUSH2 0xF0A PUSH1 0x40 MLOAD SWAP1 JUMP JUMPDEST DUP1 DUP1 JUMPDEST SUB SWAP1 LOG3 JUMP JUMPDEST ISZERO PUSH2 0xF19 JUMPI JUMP JUMPDEST PUSH1 0x40 MLOAD PUSH3 0x461BCD PUSH1 0xE5 SHL DUP2 MSTORE PUSH1 0x20 PUSH1 0x4 DUP3 ADD MSTORE PUSH1 0x29 PUSH1 0x24 DUP3 ADD MSTORE PUSH32 0x4552433732313A2061646472657373207A65726F206973206E6F742061207661 PUSH1 0x44 DUP3 ADD MSTORE PUSH9 0x3634B21037BBB732B9 PUSH1 0xB9 SHL PUSH1 0x64 DUP3 ADD MSTORE PUSH1 0x84 SWAP1 REVERT JUMPDEST SWAP1 PUSH2 0x44F SWAP1 PUSH2 0xE91 JUMP JUMPDEST PUSH2 0xFB2 PUSH2 0x226 SWAP2 PUSH2 0xF89 PUSH1 0x0 SWAP1 JUMP JUMPDEST POP PUSH2 0xFAB PUSH2 0xF9A PUSH2 0x324 PUSH1 0x0 PUSH2 0xD1A JUMP JUMPDEST PUSH1 0x1 PUSH1 0x1 PUSH1 0xA0 SHL SUB DUP4 AND EQ ISZERO PUSH2 0xF12 JUMP JUMPDEST PUSH1 0x3 PUSH2 0xF70 JUMP JUMPDEST PUSH2 0x464 JUMP JUMPDEST ISZERO PUSH2 0xFBE JUMPI JUMP JUMPDEST PUSH1 0x40 MLOAD PUSH3 0x461BCD PUSH1 0xE5 SHL DUP2 MSTORE PUSH1 0x20 PUSH1 0x4 DUP3 ADD MSTORE PUSH1 0x18 PUSH1 0x24 DUP3 ADD MSTORE PUSH32 0x4552433732313A20696E76616C696420746F6B656E2049440000000000000000 PUSH1 0x44 DUP3 ADD MSTORE PUSH1 0x64 SWAP1 REVERT JUMPDEST PUSH2 0x1010 SWAP1 PUSH1 0x0 JUMPDEST POP PUSH2 0x1327 JUMP JUMPDEST PUSH2 0x226 PUSH2 0x1020 PUSH2 0x324 PUSH1 0x0 PUSH2 0xD1A JUMP JUMPDEST PUSH1 0x1 PUSH1 0x1 PUSH1 0xA0 SHL SUB DUP4 AND EQ ISZERO PUSH2 0xFB7 JUMP JUMPDEST PUSH2 0x226 SWAP1 PUSH2 0x579 JUMP JUMPDEST PUSH2 0x226 PUSH1 0x0 PUSH2 0x1031 JUMP JUMPDEST PUSH2 0x226 PUSH1 0x1 PUSH2 0x1031 JUMP JUMPDEST ISZERO PUSH2 0x1055 JUMPI JUMP JUMPDEST PUSH1 0x40 MLOAD PUSH3 0x461BCD PUSH1 0xE5 SHL DUP2 MSTORE PUSH1 0x20 PUSH1 0x4 DUP3 ADD MSTORE PUSH1 0x21 PUSH1 0x24 DUP3 ADD MSTORE PUSH32 0x4552433732313A20617070726F76616C20746F2063757272656E74206F776E65 PUSH1 0x44 DUP3 ADD MSTORE PUSH1 0x39 PUSH1 0xF9 SHL PUSH1 0x64 DUP3 ADD MSTORE PUSH1 0x84 SWAP1 REVERT JUMPDEST ISZERO PUSH2 0x10AB JUMPI JUMP JUMPDEST PUSH1 0x40 MLOAD PUSH3 0x461BCD PUSH1 0xE5 SHL DUP2 MSTORE PUSH1 0x20 PUSH1 0x4 DUP3 ADD MSTORE PUSH1 0x3D PUSH1 0x24 DUP3 ADD MSTORE PUSH32 0x4552433732313A20617070726F76652063616C6C6572206973206E6F7420746F PUSH1 0x44 DUP3 ADD MSTORE PUSH32 0x6B656E206F776E6572206F7220617070726F76656420666F7220616C6C000000 PUSH1 0x64 DUP3 ADD MSTORE PUSH1 0x84 SWAP1 REVERT JUMPDEST SWAP1 PUSH2 0x210 SWAP2 PUSH2 0x1161 PUSH2 0x1127 DUP4 PUSH2 0x1003 JUMP JUMPDEST PUSH2 0x1145 PUSH1 0x1 PUSH1 0x1 PUSH1 0xA0 SHL SUB DUP3 AND PUSH1 0x1 PUSH1 0x1 PUSH1 0xA0 SHL SUB DUP6 AND EQ ISZERO PUSH2 0x104E JUMP JUMPDEST CALLER PUSH1 0x1 PUSH1 0x1 PUSH1 0xA0 SHL SUB DUP3 AND DUP2 EQ SWAP2 DUP3 ISZERO PUSH2 0x1166 JUMPI JUMPDEST POP POP PUSH2 0x10A4 JUMP JUMPDEST PUSH2 0x15E3 JUMP JUMPDEST PUSH2 0x1170 SWAP3 POP PUSH2 0x11AF JUMP JUMPDEST CODESIZE DUP1 PUSH2 0x115A JUMP JUMPDEST PUSH2 0x1197 PUSH2 0x226 SWAP2 PUSH2 0x1186 PUSH1 0x0 SWAP1 JUMP JUMPDEST POP PUSH2 0x1190 DUP2 PUSH2 0x170F JUMP JUMPDEST PUSH1 0x4 PUSH2 0x445 JUMP JUMPDEST SLOAD PUSH1 0x1 PUSH1 0x1 PUSH1 0xA0 SHL SUB AND SWAP1 JUMP JUMPDEST PUSH2 0x210 SWAP2 SWAP1 CALLER PUSH2 0x1699 JUMP JUMPDEST PUSH2 0x226 SWAP2 PUSH2 0x11CA PUSH2 0x11CF SWAP3 PUSH2 0x11C2 PUSH1 0x0 SWAP1 JUMP JUMPDEST POP PUSH1 0x5 PUSH2 0xF70 JUMP JUMPDEST PUSH2 0xF70 JUMP JUMPDEST PUSH2 0x5A5 JUMP JUMPDEST ISZERO PUSH2 0x11DB JUMPI JUMP JUMPDEST PUSH1 0x40 MLOAD PUSH3 0x461BCD PUSH1 0xE5 SHL DUP2 MSTORE PUSH1 0x20 PUSH1 0x4 DUP3 ADD MSTORE PUSH1 0x2D PUSH1 0x24 DUP3 ADD MSTORE PUSH32 0x4552433732313A2063616C6C6572206973206E6F7420746F6B656E206F776E65 PUSH1 0x44 DUP3 ADD MSTORE PUSH13 0x1C881BDC88185C1C1C9BDD9959 PUSH1 0x9A SHL PUSH1 0x64 DUP3 ADD MSTORE PUSH1 0x84 SWAP1 REVERT JUMPDEST PUSH2 0x210 SWAP3 SWAP2 SWAP1 PUSH2 0x124E PUSH2 0x1249 DUP5 CALLER PUSH2 0x133E JUMP JUMPDEST PUSH2 0x11D4 JUMP JUMPDEST PUSH2 0x14B9 JUMP JUMPDEST SWAP1 PUSH2 0x1260 PUSH2 0x7F6 DUP4 PUSH2 0x7BD JUMP JUMPDEST SWAP2 DUP3 MSTORE JUMP JUMPDEST PUSH2 0x226 PUSH1 0x0 PUSH2 0x1253 JUMP JUMPDEST PUSH2 0x226 PUSH2 0x1265 JUMP JUMPDEST SWAP1 SWAP2 PUSH2 0x210 SWAP3 PUSH2 0x1285 PUSH2 0x126F JUMP JUMPDEST SWAP3 JUMPDEST PUSH2 0x210 SWAP4 SWAP3 SWAP2 SWAP1 PUSH2 0x129B PUSH2 0x1249 DUP5 CALLER PUSH2 0x133E JUMP JUMPDEST PUSH2 0x1308 JUMP JUMPDEST ISZERO PUSH2 0x12A7 JUMPI JUMP JUMPDEST PUSH1 0x40 MLOAD JUMPDEST PUSH3 0x461BCD PUSH1 0xE5 SHL DUP2 MSTORE PUSH1 0x20 PUSH1 0x4 DUP3 ADD MSTORE PUSH1 0x32 PUSH1 0x24 DUP3 ADD MSTORE PUSH32 0x4552433732313A207472616E7366657220746F206E6F6E204552433732315265 PUSH1 0x44 DUP3 ADD MSTORE PUSH18 0x31B2B4BB32B91034B6B83632B6B2B73A32B9 PUSH1 0x71 SHL PUSH1 0x64 DUP3 ADD MSTORE PUSH1 0x84 SWAP1 REVERT JUMPDEST SWAP2 PUSH2 0x210 SWAP4 SWAP2 PUSH2 0x1322 SWAP4 PUSH2 0x131D DUP4 DUP4 DUP4 PUSH2 0x14B9 JUMP JUMPDEST PUSH2 0x17BD JUMP JUMPDEST PUSH2 0x12A0 JUMP JUMPDEST PUSH2 0x1197 PUSH2 0x226 SWAP2 PUSH2 0x1336 PUSH1 0x0 SWAP1 JUMP JUMPDEST POP PUSH1 0x2 PUSH2 0x445 JUMP JUMPDEST PUSH2 0x1347 DUP3 PUSH2 0x1003 JUMP JUMPDEST SWAP2 PUSH1 0x1 PUSH1 0x1 PUSH1 0xA0 SHL SUB DUP4 AND PUSH1 0x1 PUSH1 0x1 PUSH1 0xA0 SHL SUB DUP4 AND EQ SWAP3 DUP4 ISZERO PUSH2 0x1394 JUMPI JUMPDEST POP DUP3 ISZERO PUSH2 0x1371 JUMPI POP POP SWAP1 JUMP JUMPDEST PUSH2 0x1390 SWAP2 SWAP3 POP PUSH2 0x1383 PUSH2 0xDB2 SWAP2 PUSH2 0x1177 JUMP JUMPDEST SWAP3 PUSH1 0x1 PUSH1 0x1 PUSH1 0xA0 SHL SUB AND SWAP1 JUMP JUMPDEST EQ SWAP1 JUMP JUMPDEST PUSH2 0x13A1 SWAP2 SWAP4 POP DUP3 SWAP1 PUSH2 0x11AF JUMP JUMPDEST SWAP2 CODESIZE PUSH2 0x1365 JUMP JUMPDEST ISZERO PUSH2 0x13AF JUMPI JUMP JUMPDEST PUSH1 0x40 MLOAD PUSH3 0x461BCD PUSH1 0xE5 SHL DUP2 MSTORE PUSH1 0x20 PUSH1 0x4 DUP3 ADD MSTORE PUSH1 0x25 PUSH1 0x24 DUP3 ADD MSTORE PUSH32 0x4552433732313A207472616E736665722066726F6D20696E636F727265637420 PUSH1 0x44 DUP3 ADD MSTORE PUSH5 0x37BBB732B9 PUSH1 0xD9 SHL PUSH1 0x64 DUP3 ADD MSTORE PUSH1 0x84 SWAP1 REVERT JUMPDEST ISZERO PUSH2 0x1409 JUMPI JUMP JUMPDEST PUSH1 0x40 MLOAD PUSH3 0x461BCD PUSH1 0xE5 SHL DUP2 MSTORE PUSH1 0x20 PUSH1 0x4 DUP3 ADD MSTORE PUSH1 0x24 DUP1 DUP3 ADD MSTORE PUSH32 0x4552433732313A207472616E7366657220746F20746865207A65726F20616464 PUSH1 0x44 DUP3 ADD MSTORE PUSH4 0x72657373 PUSH1 0xE0 SHL PUSH1 0x64 DUP3 ADD MSTORE PUSH1 0x84 SWAP1 REVERT JUMPDEST SWAP2 PUSH1 0x1 PUSH1 0x1 PUSH1 0xA0 SHL SUB PUSH1 0x8 SWAP3 SWAP1 SWAP3 MUL SWAP2 DUP3 SHL SWAP2 SHL PUSH2 0xE6A JUMP JUMPDEST SWAP2 SWAP1 PUSH2 0x1484 PUSH2 0x226 PUSH2 0xEB1 SWAP4 PUSH2 0xE91 JUMP JUMPDEST SWAP1 DUP4 SLOAD PUSH2 0x145A JUMP JUMPDEST PUSH2 0x210 SWAP2 PUSH1 0x0 SWAP2 PUSH2 0x1473 JUMP JUMPDEST SWAP1 PUSH1 0x0 NOT SWAP1 PUSH2 0xE6A JUMP JUMPDEST SWAP1 PUSH2 0x14B2 PUSH2 0x226 PUSH2 0xEB1 SWAP3 PUSH2 0x438 JUMP JUMPDEST DUP3 SLOAD PUSH2 0x1498 JUMP JUMPDEST SWAP2 SWAP1 PUSH2 0x14DF PUSH2 0x14C7 DUP4 PUSH2 0x1003 JUMP JUMPDEST PUSH2 0x14D9 PUSH1 0x1 PUSH1 0x1 PUSH1 0xA0 SHL SUB DUP7 AND PUSH2 0xDB2 JUMP JUMPDEST EQ PUSH2 0x13A8 JUMP JUMPDEST PUSH2 0x1583 PUSH1 0x0 PUSH2 0x1504 PUSH2 0x14F3 PUSH2 0x324 DUP4 PUSH2 0xD1A JUMP JUMPDEST PUSH1 0x1 PUSH1 0x1 PUSH1 0xA0 SHL SUB DUP6 AND EQ ISZERO PUSH2 0x1402 JUMP JUMPDEST PUSH2 0x154C PUSH2 0x1511 PUSH1 0x1 PUSH2 0x438 JUMP JUMPDEST SWAP2 PUSH2 0x151E DUP4 DUP8 DUP8 DUP11 PUSH2 0x1EED JUMP JUMPDEST PUSH2 0x153C PUSH2 0x152A DUP8 PUSH2 0x1003 JUMP JUMPDEST PUSH2 0x14D9 PUSH1 0x1 PUSH1 0x1 PUSH1 0xA0 SHL SUB DUP11 AND PUSH2 0xDB2 JUMP JUMPDEST PUSH2 0x1547 DUP7 PUSH1 0x4 PUSH2 0x445 JUMP JUMPDEST PUSH2 0x148C JUMP JUMPDEST PUSH2 0x1573 PUSH2 0x1579 DUP5 PUSH1 0x3 PUSH2 0x11CA PUSH2 0x1562 DUP11 DUP4 PUSH2 0xF70 JUMP JUMPDEST PUSH2 0x1573 DUP8 PUSH2 0x156F DUP4 PUSH2 0x464 JUMP JUMPDEST SUB SWAP1 JUMP JUMPDEST SWAP1 PUSH2 0x14A2 JUMP JUMPDEST SWAP2 PUSH2 0x2C1 DUP4 PUSH2 0x464 JUMP JUMPDEST PUSH2 0x1597 DUP2 PUSH2 0x1592 DUP5 PUSH1 0x2 PUSH2 0x445 JUMP JUMPDEST PUSH2 0xE9A JUMP JUMPDEST PUSH2 0x15D3 PUSH2 0x15CD PUSH2 0x15C7 PUSH32 0xDDF252AD1BE2C89B69C2B068FC378DAA952BA7F163C4A11628F55A4DF523B3EF SWAP6 PUSH2 0xE91 JUMP JUMPDEST SWAP3 PUSH2 0xE91 JUMP JUMPDEST SWAP3 PUSH2 0x438 JUMP JUMPDEST SWAP3 PUSH2 0x15DD PUSH1 0x40 MLOAD SWAP1 JUMP JUMPDEST PUSH1 0x0 SWAP1 LOG4 JUMP JUMPDEST SWAP1 PUSH2 0x15F3 DUP3 PUSH2 0x1592 DUP4 PUSH1 0x4 PUSH2 0x445 JUMP JUMPDEST PUSH2 0x15FC DUP2 PUSH2 0x1003 JUMP JUMPDEST SWAP2 PUSH2 0x15D3 PUSH2 0x15CD PUSH2 0x15C7 PUSH32 0x8C5BE1E5EBEC7D5BD14F71427D1E84F3DD0314C0F7B2291E5B200AC8C7C3B925 SWAP6 PUSH2 0xE91 JUMP JUMPDEST ISZERO PUSH2 0x1634 JUMPI JUMP JUMPDEST PUSH1 0x40 MLOAD PUSH3 0x461BCD PUSH1 0xE5 SHL DUP2 MSTORE PUSH1 0x20 PUSH1 0x4 DUP3 ADD MSTORE PUSH1 0x19 PUSH1 0x24 DUP3 ADD MSTORE PUSH32 0x4552433732313A20617070726F766520746F2063616C6C657200000000000000 PUSH1 0x44 DUP3 ADD MSTORE PUSH1 0x64 SWAP1 REVERT JUMPDEST SWAP1 PUSH1 0xFF SWAP1 PUSH2 0xE6A JUMP JUMPDEST SWAP1 PUSH2 0x1692 PUSH2 0x226 PUSH2 0xEB1 SWAP3 ISZERO ISZERO SWAP1 JUMP JUMPDEST DUP3 SLOAD PUSH2 0x1679 JUMP JUMPDEST PUSH2 0x16B7 PUSH1 0x1 PUSH1 0x1 PUSH1 0xA0 SHL SUB DUP4 AND PUSH1 0x1 PUSH1 0x1 PUSH1 0xA0 SHL SUB DUP4 AND EQ ISZERO PUSH2 0x162D JUMP JUMPDEST PUSH2 0x16CF DUP4 PUSH2 0x16CA DUP5 PUSH2 0x11CA DUP6 PUSH1 0x5 PUSH2 0xF70 JUMP JUMPDEST PUSH2 0x1682 JUMP JUMPDEST PUSH2 0xF0D PUSH2 0x1705 PUSH2 0x16FF PUSH32 0x17307EAB39AB6107E8899845AD3D59BD9653F200F220920489CA2B5937696C31 SWAP4 PUSH2 0xE91 JUMP JUMPDEST SWAP4 PUSH2 0xE91 JUMP JUMPDEST SWAP4 PUSH2 0x24C PUSH1 0x40 MLOAD SWAP1 JUMP JUMPDEST PUSH2 0x171B PUSH2 0x210 SWAP2 PUSH2 0x1720 JUMP JUMPDEST PUSH2 0xFB7 JUMP JUMPDEST PUSH2 0x172B SWAP1 PUSH1 0x0 PUSH2 0x100A JUMP JUMPDEST PUSH2 0x173B PUSH2 0xDB2 PUSH2 0x324 PUSH1 0x0 PUSH2 0xD1A JUMP JUMPDEST EQ ISZERO SWAP1 JUMP JUMPDEST SWAP1 POP MLOAD SWAP1 PUSH2 0x210 DUP3 PUSH2 0x1EB JUMP JUMPDEST SWAP1 PUSH1 0x20 DUP3 DUP3 SUB SLT PUSH2 0x1FE JUMPI PUSH2 0x226 SWAP2 PUSH2 0x1740 JUMP JUMPDEST PUSH1 0x1 PUSH1 0x1 PUSH1 0xA0 SHL SUB SWAP2 DUP3 AND DUP2 MSTORE SWAP2 AND PUSH1 0x20 DUP3 ADD MSTORE PUSH1 0x40 DUP2 ADD SWAP2 SWAP1 SWAP2 MSTORE PUSH1 0x80 PUSH1 0x60 DUP3 ADD DUP2 SWAP1 MSTORE PUSH2 0x226 SWAP3 SWAP2 ADD SWAP1 PUSH2 0x28D JUMP JUMPDEST PUSH1 0x40 MLOAD RETURNDATASIZE PUSH1 0x0 DUP3 RETURNDATACOPY RETURNDATASIZE SWAP1 REVERT JUMPDEST RETURNDATASIZE ISZERO PUSH2 0x17B8 JUMPI PUSH2 0x17AD RETURNDATASIZE PUSH2 0x1253 JUMP JUMPDEST SWAP1 RETURNDATASIZE PUSH1 0x0 PUSH1 0x20 DUP5 ADD RETURNDATACOPY JUMP JUMPDEST PUSH1 0x60 SWAP1 JUMP JUMPDEST SWAP2 SWAP1 SWAP4 SWAP3 PUSH2 0x17C9 PUSH1 0x0 SWAP1 JUMP JUMPDEST SWAP5 PUSH2 0x17D3 DUP2 PUSH2 0x1A27 JUMP JUMPDEST ISZERO PUSH2 0x18B5 JUMPI SWAP1 PUSH2 0x181A PUSH1 0x0 PUSH2 0x17F2 PUSH2 0x17ED PUSH1 0x20 SWAP7 SWAP6 PUSH2 0xE91 JUMP JUMPDEST PUSH2 0xE91 JUMP JUMPDEST SWAP3 PUSH2 0x1825 PUSH4 0x150B7A02 SWAP2 PUSH2 0x1803 CALLER SWAP1 JUMP JUMPDEST SWAP7 PUSH2 0x180D PUSH1 0x40 MLOAD SWAP1 JUMP JUMPDEST SWAP10 DUP11 SWAP9 DUP10 SWAP8 DUP9 SWAP7 PUSH1 0xE0 SHL SWAP1 JUMP JUMPDEST DUP7 MSTORE PUSH1 0x4 DUP7 ADD PUSH2 0x1761 JUMP JUMPDEST SUB SWAP3 GAS CALL PUSH1 0x0 SWAP2 DUP2 PUSH2 0x1885 JUMPI JUMPDEST POP PUSH2 0x1868 JUMPI POP PUSH2 0x1840 PUSH2 0x179E JUMP JUMPDEST DUP1 MLOAD PUSH2 0x1853 PUSH2 0x184F PUSH1 0x0 PUSH2 0x438 JUMP JUMPDEST SWAP2 SWAP1 JUMP JUMPDEST SUB PUSH2 0x1860 JUMPI PUSH1 0x40 MLOAD PUSH2 0x12AB JUMP JUMPDEST DUP1 MLOAD SWAP1 PUSH1 0x20 ADD REVERT JUMPDEST SWAP1 SWAP2 POP PUSH2 0x1390 PUSH4 0xA85BD01 PUSH1 0xE1 SHL JUMPDEST SWAP2 PUSH1 0x1 PUSH1 0x1 PUSH1 0xE0 SHL SUB NOT AND SWAP1 JUMP JUMPDEST PUSH2 0x18A7 SWAP2 SWAP3 POP PUSH1 0x20 RETURNDATASIZE DUP2 GT PUSH2 0x18AE JUMPI JUMPDEST PUSH2 0x189F DUP2 DUP4 PUSH2 0x552 JUMP JUMPDEST DUP2 ADD SWAP1 PUSH2 0x174D JUMP JUMPDEST SWAP1 CODESIZE PUSH2 0x1832 JUMP JUMPDEST POP RETURNDATASIZE PUSH2 0x1895 JUMP JUMPDEST POP PUSH1 0x1 SWAP5 POP POP POP POP JUMP JUMPDEST ISZERO PUSH2 0x18C6 JUMPI JUMP JUMPDEST PUSH1 0x40 MLOAD PUSH3 0x461BCD PUSH1 0xE5 SHL DUP2 MSTORE PUSH1 0x20 PUSH1 0x4 DUP3 ADD MSTORE PUSH1 0x2B PUSH1 0x24 DUP3 ADD MSTORE PUSH32 0x455243373231456E756D657261626C653A206F776E657220696E646578206F75 PUSH1 0x44 DUP3 ADD MSTORE PUSH11 0x74206F6620626F756E6473 PUSH1 0xA8 SHL PUSH1 0x64 DUP3 ADD MSTORE PUSH1 0x84 SWAP1 REVERT JUMPDEST PUSH2 0x226 SWAP2 PUSH2 0x1950 PUSH2 0xFB2 SWAP3 PUSH2 0x1932 PUSH1 0x0 SWAP1 JUMP JUMPDEST POP PUSH2 0x1949 PUSH2 0x1942 PUSH2 0x226 DUP4 PUSH2 0xF7A JUMP JUMPDEST DUP5 LT PUSH2 0x18BF JUMP JUMPDEST PUSH1 0x7 PUSH2 0xF70 JUMP JUMPDEST PUSH2 0x445 JUMP JUMPDEST ISZERO PUSH2 0x195C JUMPI JUMP JUMPDEST PUSH1 0x40 MLOAD PUSH3 0x461BCD PUSH1 0xE5 SHL DUP2 MSTORE PUSH1 0x20 PUSH1 0x4 DUP3 ADD MSTORE PUSH1 0x2C PUSH1 0x24 DUP3 ADD MSTORE PUSH32 0x455243373231456E756D657261626C653A20676C6F62616C20696E646578206F PUSH1 0x44 DUP3 ADD MSTORE PUSH12 0x7574206F6620626F756E6473 PUSH1 0xA0 SHL PUSH1 0x64 DUP3 ADD MSTORE PUSH1 0x84 SWAP1 REVERT JUMPDEST PUSH4 0x4E487B71 PUSH1 0xE0 SHL PUSH1 0x0 MSTORE PUSH1 0x32 PUSH1 0x4 MSTORE PUSH1 0x24 PUSH1 0x0 REVERT JUMPDEST DUP1 SLOAD DUP3 LT ISZERO PUSH2 0x19EF JUMPI PUSH2 0x19E6 PUSH1 0x1 SWAP2 PUSH1 0x0 MSTORE PUSH1 0x20 PUSH1 0x0 KECCAK256 SWAP1 JUMP JUMPDEST SWAP2 MUL ADD SWAP1 PUSH1 0x0 SWAP1 JUMP JUMPDEST PUSH2 0x19B6 JUMP JUMPDEST PUSH2 0x1A21 PUSH2 0x226 SWAP2 PUSH2 0x1A03 PUSH1 0x0 SWAP1 JUMP JUMPDEST POP PUSH2 0x1A1A PUSH2 0x1A13 PUSH2 0x226 PUSH1 0x9 SLOAD SWAP1 JUMP JUMPDEST DUP3 LT PUSH2 0x1955 JUMP JUMPDEST PUSH1 0x9 PUSH2 0x19CC JUMP JUMPDEST SWAP1 PUSH2 0x983 JUMP JUMPDEST EXTCODESIZE PUSH2 0x1A35 PUSH2 0x184F PUSH1 0x0 PUSH2 0x438 JUMP JUMPDEST GT SWAP1 JUMP JUMPDEST CALLVALUE PUSH32 0x88A5966D370B9919B20F3E2C13FF65706F196A4E32CC2C12BF57088F88525874 PUSH2 0x1A71 PUSH2 0x1A67 CALLER PUSH2 0xE91 JUMP JUMPDEST SWAP3 PUSH2 0x3E2 PUSH1 0x40 MLOAD SWAP1 JUMP JUMPDEST SUB SWAP1 LOG2 JUMP JUMPDEST PUSH2 0x226 SWAP1 PUSH4 0x780E9D63 PUSH1 0xE0 SHL PUSH1 0x1 PUSH1 0x1 PUSH1 0xE0 SHL SUB NOT DUP3 AND EQ SWAP1 DUP2 ISZERO PUSH2 0x1A99 JUMPI POP SWAP1 JUMP JUMPDEST PUSH2 0x226 SWAP2 POP PUSH2 0x1AC3 JUMP JUMPDEST PUSH2 0x1AB6 PUSH2 0x1AB0 PUSH2 0x226 SWAP3 SWAP1 JUMP JUMPDEST PUSH1 0xE0 SHL SWAP1 JUMP JUMPDEST PUSH1 0x1 PUSH1 0x1 PUSH1 0xE0 SHL SUB NOT AND SWAP1 JUMP JUMPDEST PUSH2 0x1AD3 PUSH2 0x1AB6 PUSH4 0x49064906 PUSH2 0x1AA3 JUMP JUMPDEST PUSH1 0x1 PUSH1 0x1 PUSH1 0xE0 SHL SUB NOT DUP3 AND EQ SWAP1 DUP2 ISZERO PUSH2 0x1AEA JUMPI POP SWAP1 JUMP JUMPDEST PUSH2 0x226 SWAP2 POP PUSH4 0x80AC58CD PUSH1 0xE0 SHL PUSH1 0x1 PUSH1 0x1 PUSH1 0xE0 SHL SUB NOT DUP3 AND EQ SWAP1 DUP2 ISZERO PUSH2 0x1B1F JUMPI JUMPDEST DUP2 ISZERO PUSH2 0x1B15 JUMPI POP SWAP1 JUMP JUMPDEST PUSH2 0x226 SWAP2 POP PUSH2 0x1B3A JUMP JUMPDEST PUSH1 0x1 PUSH1 0x1 PUSH1 0xE0 SHL SUB NOT DUP2 AND PUSH4 0x5B5E139F PUSH1 0xE0 SHL EQ SWAP2 POP PUSH2 0x1B0B JUMP JUMPDEST PUSH2 0x1390 PUSH4 0x1FFC9A7 PUSH1 0xE0 SHL PUSH2 0x1877 JUMP JUMPDEST PUSH2 0x226 SWAP1 PUSH2 0x1B88 JUMP JUMPDEST PUSH2 0x2C1 PUSH2 0x1B6B SWAP3 PUSH1 0x20 SWAP3 PUSH2 0x1B65 DUP2 MLOAD SWAP1 JUMP JUMPDEST SWAP5 DUP6 SWAP3 SWAP1 JUMP JUMPDEST SWAP4 DUP5 SWAP2 ADD PUSH2 0x26A JUMP JUMPDEST PUSH2 0x1B82 SWAP1 PUSH2 0x226 SWAP4 SWAP3 PUSH2 0x1B53 JUMP JUMPDEST SWAP1 PUSH2 0x1B53 JUMP JUMPDEST PUSH2 0x1B91 DUP2 PUSH2 0x170F JUMP JUMPDEST PUSH2 0x1BA4 PUSH2 0x1B9F DUP3 PUSH1 0x6 PUSH2 0x445 JUMP JUMPDEST PUSH2 0x1031 JUMP JUMPDEST PUSH2 0x1BAC PUSH2 0x1C64 JUMP JUMPDEST DUP1 MLOAD PUSH1 0x0 SWAP1 PUSH2 0x1BBD PUSH2 0x184F DUP4 PUSH2 0x438 JUMP JUMPDEST EQ PUSH2 0x1C10 JUMPI PUSH2 0x1BD0 PUSH2 0x184F PUSH2 0x15CD DUP6 MLOAD SWAP1 JUMP JUMPDEST GT PUSH2 0x1BE0 JUMPI POP POP PUSH2 0x226 SWAP1 PUSH2 0x1C17 JUMP JUMPDEST PUSH2 0x226 SWAP3 POP PUSH2 0x1C04 SWAP2 PUSH2 0x226 SWAP2 PUSH2 0x1BF6 PUSH1 0x40 MLOAD SWAP1 JUMP JUMPDEST SWAP4 DUP5 SWAP3 PUSH1 0x20 DUP5 ADD SWAP3 DUP4 PUSH2 0x1B74 JUMP JUMPDEST SWAP1 DUP2 SUB DUP3 MSTORE SUB DUP3 PUSH2 0x552 JUMP JUMPDEST POP POP SWAP1 POP SWAP1 JUMP JUMPDEST PUSH2 0x1C20 DUP2 PUSH2 0x170F JUMP JUMPDEST PUSH2 0x1C28 PUSH2 0x1C64 JUMP JUMPDEST DUP1 MLOAD PUSH2 0x1C37 PUSH2 0x184F PUSH1 0x0 PUSH2 0x438 JUMP JUMPDEST GT ISZERO PUSH2 0x1C5A JUMPI PUSH2 0x226 PUSH2 0x1C04 SWAP2 PUSH2 0x1C50 PUSH2 0x226 SWAP5 PUSH2 0x1CBD JUMP JUMPDEST SWAP1 PUSH2 0x1BF6 PUSH1 0x40 MLOAD SWAP1 JUMP JUMPDEST POP POP PUSH2 0x226 PUSH2 0x126F JUMP JUMPDEST PUSH1 0x60 JUMPDEST POP PUSH2 0x226 PUSH2 0x126F JUMP JUMPDEST CALLDATASIZE SWAP1 CALLDATACOPY JUMP JUMPDEST SWAP1 PUSH2 0x210 PUSH2 0x1C8B PUSH2 0x1C85 DUP5 PUSH2 0x1253 JUMP JUMPDEST SWAP4 PUSH2 0x7BD JUMP JUMPDEST PUSH1 0x1F NOT ADD PUSH1 0x20 DUP5 ADD PUSH2 0x1C70 JUMP JUMPDEST PUSH4 0x4E487B71 PUSH1 0xE0 SHL PUSH1 0x0 MSTORE PUSH1 0x12 PUSH1 0x4 MSTORE PUSH1 0x24 PUSH1 0x0 REVERT JUMPDEST DUP2 ISZERO PUSH2 0x1CB8 JUMPI DIV SWAP1 JUMP JUMPDEST PUSH2 0x1C98 JUMP JUMPDEST PUSH2 0x1CC6 DUP2 PUSH2 0x1D49 JUMP JUMPDEST SWAP1 PUSH2 0x1CD6 PUSH1 0x1 SWAP3 PUSH2 0x2C1 DUP5 PUSH2 0x438 JUMP JUMPDEST SWAP2 DUP1 PUSH2 0x1CE1 DUP5 PUSH2 0x1C75 JUMP JUMPDEST SWAP4 PUSH1 0x20 ADD DUP5 ADD SWAP1 JUMPDEST PUSH2 0x1CF4 JUMPI JUMPDEST POP POP POP SWAP1 JUMP JUMPDEST PUSH2 0x1D28 SWAP1 PUSH1 0x0 NOT ADD SWAP3 PUSH16 0x181899199A1A9B1B9C1CB0B131B232B3 PUSH1 0x81 SHL PUSH1 0xA DUP3 MOD BYTE DUP5 MSTORE8 PUSH2 0x1D22 PUSH1 0xA PUSH2 0x438 JUMP JUMPDEST SWAP1 PUSH2 0x1CAE JUMP JUMPDEST SWAP1 DUP2 PUSH2 0x1D37 PUSH2 0x184F PUSH1 0x0 PUSH2 0x438 JUMP JUMPDEST EQ PUSH2 0x1D44 JUMPI SWAP1 SWAP2 DUP2 PUSH2 0x1CE9 JUMP JUMPDEST PUSH2 0x1CEE JUMP JUMPDEST PUSH2 0x1D53 PUSH1 0x0 PUSH2 0x438 JUMP JUMPDEST SWAP1 PUSH27 0x184F03E93FF9F4DAA797ED6E38ED64BF6A1F010000000000000000 PUSH2 0x1D79 DUP2 PUSH2 0x438 JUMP JUMPDEST DUP3 LT ISZERO PUSH2 0x1ECB JUMPI JUMPDEST POP PUSH14 0x4EE2D6D415B85ACEF8100000000 PUSH2 0x1D9A DUP2 PUSH2 0x438 JUMP JUMPDEST DUP3 LT ISZERO PUSH2 0x1EA9 JUMPI JUMPDEST POP PUSH7 0x2386F26FC10000 PUSH2 0x1DB4 DUP2 PUSH2 0x438 JUMP JUMPDEST DUP3 LT ISZERO PUSH2 0x1E87 JUMPI JUMPDEST POP PUSH4 0x5F5E100 PUSH2 0x1DCB DUP2 PUSH2 0x438 JUMP JUMPDEST DUP3 LT ISZERO PUSH2 0x1E65 JUMPI JUMPDEST POP PUSH2 0x2710 PUSH2 0x1DE0 DUP2 PUSH2 0x438 JUMP JUMPDEST DUP3 LT ISZERO PUSH2 0x1E43 JUMPI JUMPDEST POP PUSH1 0x64 PUSH2 0x1DF4 DUP2 PUSH2 0x438 JUMP JUMPDEST DUP3 LT ISZERO PUSH2 0x1E21 JUMPI JUMPDEST POP PUSH2 0x1E0A PUSH2 0x184F PUSH1 0xA PUSH2 0x438 JUMP JUMPDEST LT ISZERO PUSH2 0x1E13 JUMPI SWAP1 JUMP JUMPDEST PUSH2 0x226 SWAP1 PUSH2 0x2C1 PUSH1 0x1 PUSH2 0x438 JUMP JUMPDEST PUSH2 0x1E3C SWAP2 PUSH2 0x1D22 PUSH2 0x1E31 SWAP3 PUSH2 0x438 JUMP JUMPDEST SWAP2 PUSH2 0x2C1 PUSH1 0x2 PUSH2 0x438 JUMP JUMPDEST SWAP1 CODESIZE PUSH2 0x1DFC JUMP JUMPDEST PUSH2 0x1E5E SWAP2 PUSH2 0x1D22 PUSH2 0x1E53 SWAP3 PUSH2 0x438 JUMP JUMPDEST SWAP2 PUSH2 0x2C1 PUSH1 0x4 PUSH2 0x438 JUMP JUMPDEST SWAP1 CODESIZE PUSH2 0x1DE8 JUMP JUMPDEST PUSH2 0x1E80 SWAP2 PUSH2 0x1D22 PUSH2 0x1E75 SWAP3 PUSH2 0x438 JUMP JUMPDEST SWAP2 PUSH2 0x2C1 PUSH1 0x8 PUSH2 0x438 JUMP JUMPDEST SWAP1 CODESIZE PUSH2 0x1DD3 JUMP JUMPDEST PUSH2 0x1EA2 SWAP2 PUSH2 0x1D22 PUSH2 0x1E97 SWAP3 PUSH2 0x438 JUMP JUMPDEST SWAP2 PUSH2 0x2C1 PUSH1 0x10 PUSH2 0x438 JUMP JUMPDEST SWAP1 CODESIZE PUSH2 0x1DBC JUMP JUMPDEST PUSH2 0x1EC4 SWAP2 PUSH2 0x1D22 PUSH2 0x1EB9 SWAP3 PUSH2 0x438 JUMP JUMPDEST SWAP2 PUSH2 0x2C1 PUSH1 0x20 PUSH2 0x438 JUMP JUMPDEST SWAP1 CODESIZE PUSH2 0x1DA2 JUMP JUMPDEST PUSH2 0x1EE6 SWAP2 PUSH2 0x1D22 PUSH2 0x1EDB SWAP3 PUSH2 0x438 JUMP JUMPDEST SWAP2 PUSH2 0x2C1 PUSH1 0x40 PUSH2 0x438 JUMP JUMPDEST SWAP1 CODESIZE PUSH2 0x1D81 JUMP JUMPDEST PUSH2 0x210 SWAP4 SWAP2 SWAP3 SWAP2 PUSH2 0x1F01 PUSH2 0x184F PUSH1 0x1 PUSH2 0x438 JUMP JUMPDEST GT PUSH2 0x1F97 JUMPI PUSH2 0x1F35 PUSH2 0x1F13 PUSH1 0x0 PUSH2 0xD1A JUMP JUMPDEST PUSH1 0x1 PUSH1 0x1 PUSH1 0xA0 SHL SUB DUP2 AND PUSH1 0x1 PUSH1 0x1 PUSH1 0xA0 SHL SUB DUP5 AND SUB PUSH2 0x1F74 JUMPI PUSH2 0x324 DUP5 PUSH2 0x2086 JUMP JUMPDEST PUSH1 0x1 PUSH1 0x1 PUSH1 0xA0 SHL SUB DUP5 AND SUB PUSH2 0x1F4F JUMPI POP PUSH2 0x210 SWAP2 POP PUSH2 0x21A9 JUMP JUMPDEST PUSH1 0x1 PUSH1 0x1 PUSH1 0xA0 SHL SUB AND PUSH1 0x1 PUSH1 0x1 PUSH1 0xA0 SHL SUB DUP4 AND SUB PUSH2 0x1F6B JUMPI POP POP JUMP JUMPDEST PUSH2 0x210 SWAP2 PUSH2 0x1FFA JUMP JUMPDEST PUSH1 0x1 PUSH1 0x1 PUSH1 0xA0 SHL SUB DUP6 AND PUSH1 0x1 PUSH1 0x1 PUSH1 0xA0 SHL SUB DUP5 AND EQ PUSH2 0x324 JUMPI PUSH2 0x324 DUP5 DUP5 PUSH2 0x20DE JUMP JUMPDEST PUSH1 0x40 MLOAD PUSH3 0x461BCD PUSH1 0xE5 SHL DUP2 MSTORE PUSH1 0x20 PUSH1 0x4 DUP3 ADD MSTORE PUSH1 0x35 PUSH1 0x24 DUP3 ADD MSTORE PUSH32 0x455243373231456E756D657261626C653A20636F6E7365637574697665207472 PUSH1 0x44 DUP3 ADD MSTORE PUSH21 0x185B9CD9995C9CC81B9BDD081CDD5C1C1BDC9D1959 PUSH1 0x5A SHL PUSH1 0x64 DUP3 ADD MSTORE PUSH1 0x84 SWAP1 REVERT JUMPDEST PUSH2 0x201F DUP3 PUSH2 0x2024 PUSH2 0x210 SWAP5 PUSH2 0x201F PUSH2 0x1950 SWAP6 PUSH2 0x2015 DUP2 PUSH2 0xF7A JUMP JUMPDEST SWAP7 DUP8 SWAP2 PUSH1 0x7 PUSH2 0xF70 JUMP JUMPDEST PUSH2 0x14A2 JUMP JUMPDEST PUSH1 0x8 PUSH2 0x445 JUMP JUMPDEST SWAP2 PUSH1 0x0 NOT PUSH1 0x8 SWAP3 SWAP1 SWAP3 MUL SWAP2 DUP3 SHL SWAP2 SHL PUSH2 0xE6A JUMP JUMPDEST SWAP2 SWAP1 PUSH2 0x2050 PUSH2 0x226 PUSH2 0xEB1 SWAP4 PUSH2 0x438 JUMP JUMPDEST SWAP1 DUP4 SLOAD PUSH2 0x202B JUMP JUMPDEST SWAP1 DUP2 SLOAD SWAP2 PUSH9 0x10000000000000000 DUP4 LT ISZERO PUSH2 0x574 JUMPI DUP3 PUSH2 0x2080 SWAP2 PUSH1 0x1 PUSH2 0x210 SWAP6 ADD DUP2 SSTORE PUSH2 0x19CC JUMP JUMPDEST SWAP1 PUSH2 0x203F JUMP JUMPDEST PUSH2 0x210 SWAP1 PUSH2 0x20A5 PUSH1 0x9 PUSH2 0x226 PUSH2 0x209A DUP3 SLOAD SWAP1 JUMP JUMPDEST PUSH2 0x201F DUP6 PUSH1 0xA PUSH2 0x445 JUMP JUMPDEST PUSH2 0x2058 JUMP JUMPDEST PUSH4 0x4E487B71 PUSH1 0xE0 SHL PUSH1 0x0 MSTORE PUSH1 0x11 PUSH1 0x4 MSTORE PUSH1 0x24 PUSH1 0x0 REVERT JUMPDEST SWAP2 SWAP1 DUP3 SUB SWAP2 DUP3 GT PUSH2 0x20CD JUMPI JUMP JUMPDEST PUSH2 0x20AA JUMP JUMPDEST PUSH2 0x210 SWAP2 PUSH1 0x0 SWAP2 PUSH2 0x203F JUMP JUMPDEST PUSH2 0x212C PUSH2 0x210 SWAP3 PUSH2 0x1950 PUSH1 0x0 SWAP4 PUSH2 0x1949 DUP6 PUSH2 0x212C PUSH2 0x210E PUSH2 0x20FE DUP6 PUSH2 0xF7A JUMP JUMPDEST PUSH2 0x2108 PUSH1 0x1 PUSH2 0x438 JUMP JUMPDEST SWAP1 PUSH2 0x20C0 JUMP JUMPDEST SWAP6 PUSH1 0x8 PUSH2 0x211E PUSH2 0xFB2 DUP4 DUP4 PUSH2 0x445 JUMP JUMPDEST DUP9 DUP2 SUB PUSH2 0x2131 JUMPI JUMPDEST POP PUSH2 0x445 JUMP JUMPDEST PUSH2 0x20D2 JUMP JUMPDEST DUP1 PUSH2 0x201F DUP9 PUSH2 0x215F DUP13 PUSH2 0x201F PUSH2 0x2165 SWAP7 PUSH2 0x1950 PUSH2 0x2157 PUSH2 0xFB2 PUSH1 0x7 SWAP6 PUSH2 0x1950 DUP10 DUP9 PUSH2 0xF70 JUMP JUMPDEST SWAP6 DUP7 SWAP5 PUSH2 0xF70 JUMP JUMPDEST DUP5 PUSH2 0x445 JUMP JUMPDEST CODESIZE PUSH2 0x2126 JUMP JUMPDEST PUSH4 0x4E487B71 PUSH1 0xE0 SHL PUSH1 0x0 MSTORE PUSH1 0x31 PUSH1 0x4 MSTORE PUSH1 0x24 PUSH1 0x0 REVERT JUMPDEST DUP1 SLOAD DUP1 ISZERO PUSH2 0x21A4 JUMPI PUSH1 0x0 NOT ADD SWAP1 PUSH2 0x21A1 PUSH2 0x219B DUP4 DUP4 PUSH2 0x19CC JUMP JUMPDEST SWAP1 PUSH2 0x20D2 JUMP JUMPDEST SSTORE JUMP JUMPDEST PUSH2 0x216B JUMP JUMPDEST PUSH2 0x21F7 PUSH2 0x210 SWAP2 PUSH2 0x226 PUSH1 0x0 PUSH2 0x212C PUSH1 0x9 SWAP4 PUSH2 0x21C6 PUSH2 0x20FE DUP7 SLOAD SWAP1 JUMP JUMPDEST PUSH2 0x1950 PUSH1 0xA SWAP2 PUSH2 0x201F PUSH2 0x21E9 PUSH2 0x1A21 PUSH2 0x21E2 PUSH2 0xFB2 DUP9 DUP9 PUSH2 0x445 JUMP JUMPDEST SWAP4 DUP12 PUSH2 0x19CC JUMP JUMPDEST PUSH2 0x215F DUP2 PUSH2 0x2080 DUP6 DUP14 PUSH2 0x19CC JUMP JUMPDEST PUSH2 0x2181 JUMP JUMPDEST PUSH2 0x210 SWAP1 PUSH2 0x2208 PUSH2 0xD91 JUMP JUMPDEST PUSH2 0x2222 PUSH2 0x210 SWAP2 PUSH2 0x17ED PUSH2 0x221B DUP3 PUSH2 0xE91 JUMP JUMPDEST PUSH1 0xE PUSH2 0xE9A JUMP JUMPDEST PUSH1 0xC PUSH2 0xE9A JUMP JUMPDEST PUSH2 0x210 SWAP1 PUSH2 0x21FC JUMP JUMPDEST PUSH2 0x210 SWAP1 PUSH2 0x223E PUSH2 0xD91 JUMP JUMPDEST PUSH2 0x224A PUSH2 0x210 SWAP2 PUSH2 0xE91 JUMP JUMPDEST PUSH1 0xD PUSH2 0xE9A JUMP JUMPDEST PUSH2 0x210 SWAP1 PUSH2 0x2232 JUMP JUMPDEST PUSH1 0x0 NOT DUP2 EQ PUSH2 0x20CD JUMPI PUSH1 0x1 ADD SWAP1 JUMP JUMPDEST PUSH2 0x226 PUSH2 0x120 PUSH2 0x7A9 JUMP JUMPDEST SWAP1 PUSH2 0x229 SWAP1 PUSH2 0x64B JUMP JUMPDEST SWAP1 PUSH2 0x229 SWAP1 PUSH2 0xB89 JUMP JUMPDEST DUP2 DUP2 LT PUSH2 0x2293 JUMPI POP POP JUMP JUMPDEST DUP1 PUSH2 0x22A1 PUSH1 0x0 PUSH1 0x1 SWAP4 PUSH2 0x20D2 JUMP JUMPDEST ADD PUSH2 0x2288 JUMP JUMPDEST SWAP2 SWAP1 PUSH1 0x1F DUP2 GT PUSH2 0x22B6 JUMPI POP POP POP JUMP JUMPDEST PUSH2 0x22C8 PUSH2 0x210 SWAP4 PUSH1 0x0 MSTORE PUSH1 0x20 PUSH1 0x0 KECCAK256 SWAP1 JUMP JUMPDEST SWAP1 PUSH1 0x20 PUSH1 0x1F DUP5 ADD DUP2 SWAP1 DIV DUP4 ADD SWAP4 LT PUSH2 0x22EA JUMPI JUMPDEST PUSH1 0x20 PUSH1 0x1F SWAP1 SWAP2 ADD DIV ADD SWAP1 PUSH2 0x2288 JUMP JUMPDEST SWAP1 SWAP2 POP DUP2 SWAP1 PUSH2 0x22DB JUMP JUMPDEST SWAP1 PUSH2 0x22FD DUP2 MLOAD SWAP1 JUMP JUMPDEST SWAP1 PUSH8 0xFFFFFFFFFFFFFFFF DUP3 GT PUSH2 0x574 JUMPI PUSH2 0x2321 DUP3 PUSH2 0x231B DUP6 SLOAD PUSH2 0x484 JUMP JUMPDEST DUP6 PUSH2 0x22A7 JUMP JUMPDEST PUSH1 0x20 SWAP1 PUSH1 0x1F DUP4 GT PUSH1 0x1 EQ PUSH2 0x235C JUMPI PUSH2 0xEB1 SWAP3 SWAP2 PUSH1 0x0 SWAP2 DUP4 PUSH2 0x2351 JUMPI JUMPDEST POP POP PUSH1 0x0 NOT PUSH1 0x8 DUP4 MUL SHR NOT AND SWAP1 PUSH1 0x2 MUL OR SWAP1 JUMP JUMPDEST ADD MLOAD SWAP1 POP CODESIZE DUP1 PUSH2 0x233D JUMP JUMPDEST PUSH1 0x1F NOT DUP4 AND SWAP2 PUSH2 0x2371 DUP6 PUSH1 0x0 MSTORE PUSH1 0x20 PUSH1 0x0 KECCAK256 SWAP1 JUMP JUMPDEST SWAP3 PUSH1 0x0 JUMPDEST DUP2 DUP2 LT PUSH2 0x23AF JUMPI POP SWAP2 PUSH1 0x2 SWAP4 SWAP2 DUP6 PUSH1 0x1 SWAP7 SWAP5 LT PUSH2 0x2396 JUMPI JUMPDEST POP POP POP MUL ADD SWAP1 SSTORE JUMP JUMPDEST ADD MLOAD PUSH1 0x0 NOT PUSH1 0x8 PUSH1 0x1F DUP6 AND MUL SHR NOT AND SWAP1 SSTORE CODESIZE DUP1 DUP1 PUSH2 0x238D JUMP JUMPDEST SWAP2 SWAP4 PUSH1 0x20 PUSH1 0x1 DUP2 SWAP3 DUP8 DUP8 ADD MLOAD DUP2 SSTORE ADD SWAP6 ADD SWAP3 ADD PUSH2 0x2375 JUMP JUMPDEST SWAP1 PUSH2 0x210 SWAP2 PUSH2 0x22F4 JUMP JUMPDEST PUSH2 0x226 SWAP1 MLOAD PUSH2 0x64B JUMP JUMPDEST SWAP1 PUSH2 0x1692 PUSH2 0x226 PUSH2 0xEB1 SWAP3 PUSH2 0x655 JUMP JUMPDEST PUSH2 0x226 SWAP1 MLOAD PUSH2 0xB89 JUMP JUMPDEST SWAP1 PUSH2 0xFF00 SWAP1 PUSH1 0x8 SHL PUSH2 0xE6A JUMP JUMPDEST SWAP1 PUSH2 0x2412 PUSH2 0x226 PUSH2 0xEB1 SWAP3 PUSH2 0xB93 JUMP JUMPDEST DUP3 SLOAD PUSH2 0x23F5 JUMP JUMPDEST PUSH2 0x210 SWAP2 SWAP1 PUSH2 0x24D3 SWAP1 PUSH2 0x100 SWAP1 PUSH1 0x7 SWAP1 PUSH2 0x2435 DUP2 PUSH2 0x1573 DUP8 MLOAD SWAP1 JUMP JUMPDEST PUSH2 0x2456 PUSH1 0x1 DUP3 ADD PUSH2 0x2450 PUSH1 0x20 DUP9 ADD MLOAD PUSH1 0x1 PUSH1 0x1 PUSH1 0xA0 SHL SUB AND SWAP1 JUMP JUMPDEST SWAP1 PUSH2 0xE9A JUMP JUMPDEST PUSH2 0x246E PUSH1 0x2 DUP3 ADD PUSH2 0x2468 PUSH1 0x40 DUP9 ADD MLOAD SWAP1 JUMP JUMPDEST SWAP1 PUSH2 0x23C7 JUMP JUMPDEST PUSH2 0x2480 PUSH1 0x3 DUP3 ADD PUSH2 0x2468 PUSH1 0x60 DUP9 ADD MLOAD SWAP1 JUMP JUMPDEST PUSH2 0x2492 PUSH1 0x4 DUP3 ADD PUSH2 0x2468 PUSH1 0x80 DUP9 ADD MLOAD SWAP1 JUMP JUMPDEST PUSH2 0x24A4 PUSH1 0x5 DUP3 ADD PUSH2 0x2468 PUSH1 0xA0 DUP9 ADD MLOAD SWAP1 JUMP JUMPDEST PUSH2 0x24B6 PUSH1 0x6 DUP3 ADD PUSH2 0x1573 PUSH1 0xC0 DUP9 ADD MLOAD SWAP1 JUMP JUMPDEST ADD SWAP3 PUSH2 0x24CD PUSH2 0x24C7 PUSH1 0xE0 DUP4 ADD PUSH2 0x23D1 JUMP JUMPDEST DUP6 PUSH2 0x23DB JUMP JUMPDEST ADD PUSH2 0x23EB JUMP JUMPDEST SWAP1 PUSH2 0x2402 JUMP JUMPDEST SWAP1 PUSH2 0x210 SWAP2 PUSH2 0x2419 JUMP JUMPDEST SWAP3 SWAP5 SWAP2 SWAP4 SWAP1 SWAP5 PUSH2 0x24F3 PUSH1 0xF PUSH2 0x464 JUMP JUMPDEST SWAP5 PUSH2 0x24FD DUP7 PUSH2 0x225A JUMP JUMPDEST PUSH2 0x2508 SWAP1 PUSH1 0xF PUSH2 0x14A2 JUMP JUMPDEST CALLER SWAP7 PUSH1 0x0 SWAP6 PUSH2 0x2515 PUSH2 0x2269 JUMP JUMPDEST SWAP9 PUSH2 0x2520 DUP10 DUP10 DUP13 ADD MSTORE JUMP JUMPDEST PUSH1 0x1 PUSH1 0x1 PUSH1 0xA0 SHL SUB AND PUSH1 0x20 DUP11 ADD MSTORE PUSH1 0x40 DUP10 ADD MSTORE PUSH1 0x60 DUP9 ADD MSTORE PUSH1 0x80 DUP8 ADD MSTORE PUSH1 0xA0 DUP7 ADD MSTORE PUSH1 0xC0 DUP6 ADD MSTORE PUSH2 0x2554 SWAP1 PUSH1 0xE0 DUP6 ADD PUSH2 0x2274 JUMP JUMPDEST PUSH2 0x2562 SWAP1 PUSH2 0x100 DUP5 ADD PUSH2 0x227E JUMP JUMPDEST PUSH2 0x256D SWAP1 PUSH1 0x13 PUSH2 0x445 JUMP JUMPDEST SWAP1 PUSH2 0x210 SWAP2 PUSH2 0x24D9 JUMP JUMPDEST SWAP1 PUSH2 0x210 PUSH2 0x264B PUSH1 0x7 PUSH2 0x2588 PUSH2 0x2269 JUMP JUMPDEST SWAP5 PUSH2 0x2599 PUSH2 0x2595 DUP3 PUSH2 0x464 JUMP JUMPDEST DUP8 MSTORE JUMP JUMPDEST PUSH2 0x25C0 PUSH2 0x25B0 PUSH1 0x1 DUP4 ADD SLOAD PUSH1 0x1 PUSH1 0x1 PUSH1 0xA0 SHL SUB AND SWAP1 JUMP JUMPDEST PUSH1 0x1 PUSH1 0x1 PUSH1 0xA0 SHL SUB AND PUSH1 0x20 DUP9 ADD MSTORE JUMP JUMPDEST PUSH2 0x25D6 PUSH2 0x25CF PUSH1 0x2 DUP4 ADD PUSH2 0x579 JUMP JUMPDEST PUSH1 0x40 DUP9 ADD MSTORE JUMP JUMPDEST PUSH2 0x25EC PUSH2 0x25E5 PUSH1 0x3 DUP4 ADD PUSH2 0x579 JUMP JUMPDEST PUSH1 0x60 DUP9 ADD MSTORE JUMP JUMPDEST PUSH2 0x2602 PUSH2 0x25FB PUSH1 0x4 DUP4 ADD PUSH2 0x579 JUMP JUMPDEST PUSH1 0x80 DUP9 ADD MSTORE JUMP JUMPDEST PUSH2 0x2618 PUSH2 0x2611 PUSH1 0x5 DUP4 ADD PUSH2 0x579 JUMP JUMPDEST PUSH1 0xA0 DUP9 ADD MSTORE JUMP JUMPDEST PUSH2 0x262E PUSH2 0x2627 PUSH1 0x6 DUP4 ADD PUSH2 0x464 JUMP JUMPDEST PUSH1 0xC0 DUP9 ADD MSTORE JUMP JUMPDEST PUSH2 0x2645 PUSH2 0x263C DUP4 DUP4 ADD PUSH2 0x5A5 JUMP JUMPDEST PUSH1 0xE0 DUP9 ADD PUSH2 0x2274 JUMP JUMPDEST ADD PUSH2 0xAF3 JUMP JUMPDEST PUSH2 0x100 DUP5 ADD PUSH2 0x227E JUMP JUMPDEST PUSH2 0x226 SWAP1 PUSH2 0x2577 JUMP JUMPDEST SWAP1 POP MLOAD SWAP1 PUSH2 0x210 DUP3 PUSH2 0x2FD JUMP JUMPDEST SWAP1 PUSH1 0x20 DUP3 DUP3 SUB SLT PUSH2 0x1FE JUMPI PUSH2 0x226 SWAP2 PUSH2 0x265E JUMP JUMPDEST PUSH1 0x1 PUSH1 0x1 PUSH1 0xA0 SHL SUB SWAP1 SWAP2 AND DUP2 MSTORE PUSH1 0x40 DUP2 ADD SWAP3 SWAP2 PUSH2 0x210 SWAP2 PUSH1 0x20 SWAP1 PUSH2 0xBDF JUMP JUMPDEST DUP2 DUP2 MUL SWAP3 SWAP2 DUP2 ISZERO SWAP2 DUP5 DIV EQ OR ISZERO PUSH2 0x20CD JUMPI JUMP JUMPDEST ISZERO PUSH2 0x26B8 JUMPI JUMP JUMPDEST PUSH1 0x40 MLOAD PUSH3 0x461BCD PUSH1 0xE5 SHL DUP2 MSTORE PUSH1 0x20 PUSH1 0x4 DUP3 ADD MSTORE PUSH1 0x11 PUSH1 0x24 DUP3 ADD MSTORE PUSH17 0x105B1B1BDDD85B98D9481B9BDD081CD95D PUSH1 0x7A SHL PUSH1 0x44 DUP3 ADD MSTORE PUSH1 0x64 SWAP1 REVERT JUMPDEST SWAP1 POP MLOAD SWAP1 PUSH2 0x210 DUP3 PUSH2 0x9D0 JUMP JUMPDEST SWAP1 PUSH1 0x20 DUP3 DUP3 SUB SLT PUSH2 0x1FE JUMPI PUSH2 0x226 SWAP2 PUSH2 0x26F1 JUMP JUMPDEST PUSH2 0x229 SWAP1 PUSH2 0xE91 JUMP JUMPDEST PUSH1 0x1 PUSH1 0x1 PUSH1 0xA0 SHL SUB SWAP1 SWAP2 AND DUP2 MSTORE PUSH1 0x60 DUP2 ADD SWAP4 SWAP3 PUSH2 0x210 SWAP3 SWAP1 SWAP2 PUSH1 0x40 SWAP2 PUSH2 0x2745 SWAP1 PUSH1 0x20 DUP4 ADD SWAP1 PUSH2 0x2712 JUMP JUMPDEST ADD MSTORE JUMP JUMPDEST ISZERO PUSH2 0x2750 JUMPI JUMP JUMPDEST PUSH1 0x40 MLOAD PUSH3 0x461BCD PUSH1 0xE5 SHL DUP2 MSTORE PUSH1 0x20 PUSH1 0x4 DUP3 ADD MSTORE PUSH1 0xF PUSH1 0x24 DUP3 ADD MSTORE PUSH15 0x151C985B9CD9995C8819985A5B1959 PUSH1 0x8A SHL PUSH1 0x44 DUP3 ADD MSTORE PUSH1 0x64 SWAP1 REVERT JUMPDEST PUSH2 0x279A PUSH2 0x2795 DUP3 PUSH1 0x13 PUSH2 0x445 JUMP JUMPDEST PUSH2 0x2655 JUMP JUMPDEST SWAP1 PUSH2 0x27D8 PUSH2 0x27B3 PUSH2 0x17ED PUSH1 0xC SLOAD PUSH1 0x1 PUSH1 0x1 PUSH1 0xA0 SHL SUB AND SWAP1 JUMP JUMPDEST CALLER SWAP4 PUSH1 0x20 PUSH4 0xDD62ED3E PUSH2 0x27C5 ADDRESS PUSH2 0xE91 JUMP JUMPDEST SWAP4 PUSH2 0x27CF PUSH1 0x40 MLOAD SWAP1 JUMP JUMPDEST SWAP6 DUP7 SWAP3 PUSH1 0xE0 SHL SWAP1 JUMP JUMPDEST DUP3 MSTORE DUP2 DUP1 PUSH2 0x27EA DUP8 DUP12 PUSH1 0x4 DUP5 ADD PUSH2 0x267F JUMP JUMPDEST SUB SWAP2 GAS STATICCALL SWAP3 DUP4 ISZERO PUSH2 0x2932 JUMPI PUSH1 0x0 SWAP4 PUSH2 0x2937 JUMPI JUMPDEST POP PUSH1 0xC0 PUSH1 0x20 SWAP2 ADD PUSH2 0x2839 PUSH2 0x280F DUP3 MLOAD SWAP1 JUMP JUMPDEST SWAP5 PUSH2 0x2832 PUSH2 0x184F PUSH2 0x226 PUSH8 0xDE0B6B3A7640000 SWAP9 PUSH2 0x282C DUP11 PUSH2 0x438 JUMP JUMPDEST SWAP1 PUSH2 0x269E JUMP JUMPDEST LT ISZERO PUSH2 0x26B1 JUMP JUMPDEST PUSH2 0x284E PUSH2 0x17ED PUSH1 0xC SLOAD PUSH1 0x1 PUSH1 0x1 PUSH1 0xA0 SHL SUB AND SWAP1 JUMP JUMPDEST PUSH2 0x2899 PUSH1 0x0 PUSH2 0x287F PUSH4 0x23B872DD SWAP8 PUSH2 0x282C PUSH2 0x2879 PUSH2 0x2874 PUSH1 0xE SLOAD PUSH1 0x1 PUSH1 0x1 PUSH1 0xA0 SHL SUB AND SWAP1 JUMP JUMPDEST SWAP8 MLOAD SWAP1 JUMP JUMPDEST SWAP2 PUSH2 0x438 JUMP JUMPDEST SWAP7 PUSH2 0x28A5 PUSH2 0x288C PUSH1 0x40 MLOAD SWAP1 JUMP JUMPDEST SWAP9 DUP10 SWAP7 DUP8 SWAP6 DUP7 SWAP5 PUSH1 0xE0 SHL SWAP1 JUMP JUMPDEST DUP5 MSTORE DUP13 PUSH1 0x4 DUP6 ADD PUSH2 0x271B JUMP JUMPDEST SUB SWAP3 GAS CALL DUP1 ISZERO PUSH2 0x2932 JUMPI DUP5 SWAP4 PUSH2 0x28CA PUSH2 0x28CF SWAP3 PUSH2 0x28D7 SWAP6 PUSH1 0x0 SWAP2 PUSH2 0x2904 JUMPI JUMPDEST POP PUSH2 0x2749 JUMP JUMPDEST PUSH2 0x2A1F JUMP JUMPDEST SWAP4 DUP5 SWAP2 PUSH2 0x14B9 JUMP JUMPDEST PUSH2 0x1A71 PUSH2 0x1A67 PUSH32 0xDBD06C5B09E89A22B08C07AA17DFC71D3F3741D98AD99285BE427C36017340E6 SWAP3 PUSH2 0xE91 JUMP JUMPDEST PUSH2 0x2925 SWAP2 POP PUSH1 0x20 RETURNDATASIZE DUP2 GT PUSH2 0x292B JUMPI JUMPDEST PUSH2 0x291D DUP2 DUP4 PUSH2 0x552 JUMP JUMPDEST DUP2 ADD SWAP1 PUSH2 0x26FE JUMP JUMPDEST CODESIZE PUSH2 0x28C4 JUMP JUMPDEST POP RETURNDATASIZE PUSH2 0x2913 JUMP JUMPDEST PUSH2 0x1792 JUMP JUMPDEST PUSH1 0x20 SWAP2 SWAP4 POP PUSH2 0x295D PUSH1 0xC0 SWAP2 DUP4 RETURNDATASIZE DUP2 GT PUSH2 0x2965 JUMPI JUMPDEST PUSH2 0x2955 DUP2 DUP4 PUSH2 0x552 JUMP JUMPDEST DUP2 ADD SWAP1 PUSH2 0x266B JUMP JUMPDEST SWAP4 SWAP2 POP PUSH2 0x27FD JUMP JUMPDEST POP RETURNDATASIZE PUSH2 0x294B JUMP JUMPDEST PUSH2 0x226 PUSH2 0x100 PUSH2 0x7A9 JUMP JUMPDEST PUSH2 0x210 SWAP2 SWAP1 PUSH2 0x2A0F SWAP1 PUSH1 0xE0 SWAP1 PUSH1 0x7 SWAP1 PUSH2 0x2992 DUP2 PUSH2 0x1573 DUP8 MLOAD SWAP1 JUMP JUMPDEST PUSH2 0x29AD PUSH1 0x1 DUP3 ADD PUSH2 0x2450 PUSH1 0x20 DUP9 ADD MLOAD PUSH1 0x1 PUSH1 0x1 PUSH1 0xA0 SHL SUB AND SWAP1 JUMP JUMPDEST PUSH2 0x29BF PUSH1 0x2 DUP3 ADD PUSH2 0x2468 PUSH1 0x40 DUP9 ADD MLOAD SWAP1 JUMP JUMPDEST PUSH2 0x29D1 PUSH1 0x3 DUP3 ADD PUSH2 0x2468 PUSH1 0x60 DUP9 ADD MLOAD SWAP1 JUMP JUMPDEST PUSH2 0x29E3 PUSH1 0x4 DUP3 ADD PUSH2 0x2468 PUSH1 0x80 DUP9 ADD MLOAD SWAP1 JUMP JUMPDEST PUSH2 0x29F5 PUSH1 0x5 DUP3 ADD PUSH2 0x2468 PUSH1 0xA0 DUP9 ADD MLOAD SWAP1 JUMP JUMPDEST PUSH2 0x2A07 PUSH1 0x6 DUP3 ADD PUSH2 0x1573 PUSH1 0xC0 DUP9 ADD MLOAD SWAP1 JUMP JUMPDEST ADD SWAP3 ADD PUSH2 0x23D1 JUMP JUMPDEST SWAP1 PUSH2 0x23DB JUMP JUMPDEST SWAP1 PUSH2 0x210 SWAP2 PUSH2 0x2977 JUMP JUMPDEST PUSH2 0x2A2A SWAP1 PUSH1 0x13 PUSH2 0x445 JUMP JUMPDEST PUSH2 0x2A33 SWAP1 PUSH2 0x2655 JUMP JUMPDEST PUSH2 0x2A3D PUSH1 0x10 PUSH2 0x464 JUMP JUMPDEST SWAP1 PUSH2 0x2A47 DUP3 PUSH2 0x225A JUMP JUMPDEST PUSH2 0x2A52 SWAP1 PUSH1 0x10 PUSH2 0x14A2 JUMP JUMPDEST PUSH1 0x20 DUP2 ADD MLOAD PUSH1 0x1 PUSH1 0x1 PUSH1 0xA0 SHL SUB AND SWAP1 PUSH1 0x40 DUP2 ADD MLOAD SWAP1 PUSH1 0x60 DUP2 ADD MLOAD PUSH1 0x80 DUP3 ADD MLOAD PUSH1 0xA0 DUP4 ADD MLOAD SWAP2 PUSH1 0xC0 DUP5 ADD PUSH2 0x2A83 SWAP1 MLOAD SWAP1 JUMP JUMPDEST SWAP4 PUSH1 0xE0 ADD PUSH2 0x2A90 SWAP1 PUSH2 0x23D1 JUMP JUMPDEST SWAP5 PUSH2 0x2A99 PUSH2 0x296C JUMP JUMPDEST SWAP7 PUSH2 0x2AA2 DUP10 DUP10 MSTORE JUMP JUMPDEST PUSH1 0x1 PUSH1 0x1 PUSH1 0xA0 SHL SUB AND PUSH1 0x20 DUP9 ADD MSTORE PUSH1 0x40 DUP8 ADD MSTORE PUSH1 0x60 DUP7 ADD MSTORE PUSH1 0x80 DUP6 ADD MSTORE PUSH1 0xA0 DUP5 ADD MSTORE PUSH1 0xC0 DUP4 ADD MSTORE PUSH2 0x2AD6 SWAP1 PUSH1 0xE0 DUP4 ADD PUSH2 0x2274 JUMP JUMPDEST DUP1 PUSH2 0x2AE2 DUP4 PUSH1 0x12 PUSH2 0x445 JUMP JUMPDEST SWAP1 PUSH2 0x2AEC SWAP2 PUSH2 0x2A15 JUMP JUMPDEST DUP2 PUSH2 0x2AF6 ADDRESS PUSH2 0xE91 JUMP JUMPDEST SWAP1 PUSH2 0x2B00 SWAP2 PUSH2 0x2BE2 JUMP JUMPDEST PUSH1 0x20 DUP2 ADD MLOAD PUSH1 0x1 PUSH1 0x1 PUSH1 0xA0 SHL SUB AND SWAP1 PUSH1 0x40 DUP2 ADD MLOAD SWAP1 PUSH1 0x60 DUP2 ADD MLOAD PUSH1 0x80 DUP3 ADD MLOAD SWAP1 PUSH1 0xA0 DUP4 ADD MLOAD SWAP3 PUSH1 0xE0 ADD PUSH2 0x2B32 SWAP1 PUSH2 0x23D1 JUMP JUMPDEST SWAP4 PUSH2 0x2B3C SWAP6 PUSH2 0x2E78 JUMP JUMPDEST PUSH2 0x226 SWAP1 DUP3 PUSH2 0x2CBD JUMP JUMPDEST ISZERO PUSH2 0x2B4D JUMPI JUMP JUMPDEST PUSH1 0x40 MLOAD PUSH3 0x461BCD PUSH1 0xE5 SHL DUP2 MSTORE DUP1 PUSH2 0xD8D PUSH1 0x4 DUP3 ADD PUSH1 0x20 DUP1 DUP3 MSTORE DUP2 DUP2 ADD MSTORE PUSH32 0x4552433732313A206D696E7420746F20746865207A65726F2061646472657373 PUSH1 0x40 DUP3 ADD MSTORE PUSH1 0x60 ADD SWAP1 JUMP JUMPDEST ISZERO PUSH2 0x2B9D JUMPI JUMP JUMPDEST PUSH1 0x40 MLOAD PUSH3 0x461BCD PUSH1 0xE5 SHL DUP2 MSTORE PUSH1 0x20 PUSH1 0x4 DUP3 ADD MSTORE PUSH1 0x1C PUSH1 0x24 DUP3 ADD MSTORE PUSH32 0x4552433732313A20746F6B656E20616C7265616479206D696E74656400000000 PUSH1 0x44 DUP3 ADD MSTORE PUSH1 0x64 SWAP1 REVERT JUMPDEST SWAP1 PUSH2 0x2BED PUSH1 0x0 PUSH2 0xD1A JUMP JUMPDEST SWAP2 PUSH2 0x2C0C PUSH1 0x1 PUSH1 0x1 PUSH1 0xA0 SHL SUB DUP5 AND PUSH1 0x1 PUSH1 0x1 PUSH1 0xA0 SHL SUB DUP4 AND EQ ISZERO PUSH2 0x2B46 JUMP JUMPDEST PUSH2 0x2C24 PUSH2 0x2C1F PUSH2 0x2C1B DUP5 PUSH2 0x1720 JUMP JUMPDEST ISZERO SWAP1 JUMP JUMPDEST PUSH2 0x2B96 JUMP JUMPDEST PUSH2 0x1583 PUSH2 0x2C31 PUSH1 0x1 PUSH2 0x438 JUMP JUMPDEST PUSH2 0x2C3D DUP2 DUP6 DUP6 DUP9 PUSH2 0x1EED JUMP JUMPDEST PUSH2 0x2C4C PUSH2 0x2C1F PUSH2 0x2C1B DUP7 PUSH2 0x1720 JUMP JUMPDEST PUSH2 0x1573 PUSH2 0x1579 DUP5 PUSH1 0x3 PUSH2 0xF70 JUMP JUMPDEST ISZERO PUSH2 0x2C61 JUMPI JUMP JUMPDEST PUSH1 0x40 MLOAD PUSH3 0x461BCD PUSH1 0xE5 SHL DUP2 MSTORE PUSH1 0x20 PUSH1 0x4 DUP3 ADD MSTORE PUSH1 0x2E PUSH1 0x24 DUP3 ADD MSTORE PUSH32 0x45524337323155524953746F726167653A2055524920736574206F66206E6F6E PUSH1 0x44 DUP3 ADD MSTORE PUSH14 0x32BC34B9BA32B73A103A37B5B2B7 PUSH1 0x91 SHL PUSH1 0x64 DUP3 ADD MSTORE PUSH1 0x84 SWAP1 REVERT JUMPDEST SWAP1 PUSH2 0x2CE3 SWAP1 PUSH2 0x2CD3 PUSH2 0x2CCE DUP5 PUSH2 0x1720 JUMP JUMPDEST PUSH2 0x2C5A JUMP JUMPDEST PUSH2 0x2CDE DUP4 PUSH1 0x6 PUSH2 0x445 JUMP JUMPDEST PUSH2 0x23C7 JUMP JUMPDEST PUSH2 0x2D11 PUSH32 0xF8E1A15ABA9398E019F0B49DF1A4FDE98EE17AE345CB5F6B5E2C27F5033E8CE7 SWAP2 PUSH2 0x3E2 PUSH1 0x40 MLOAD SWAP1 JUMP JUMPDEST SUB SWAP1 LOG1 JUMP JUMPDEST PUSH2 0x229 SWAP1 PUSH1 0x1 PUSH1 0x1 PUSH1 0xA0 SHL SUB AND PUSH1 0x60 SHL SWAP1 JUMP JUMPDEST PUSH2 0x2D35 PUSH2 0x229 SWAP2 PUSH2 0x655 JUMP JUMPDEST PUSH1 0xF8 SHL SWAP1 JUMP JUMPDEST PUSH2 0x2DC2 PUSH2 0x2E3B SWAP7 PUSH2 0x1B82 PUSH2 0x2DFF PUSH2 0x2DC2 PUSH1 0x1 SWAP10 PUSH2 0x1B82 PUSH2 0x2DEA PUSH2 0x2DC2 PUSH2 0x226 SWAP16 SWAP13 PUSH2 0x1B82 PUSH2 0x2DCF PUSH2 0x2DC2 PUSH2 0x2DA0 SWAP16 PUSH2 0x2E34 SWAP16 PUSH2 0x2E1B SWAP16 PUSH1 0x14 PUSH2 0x1B82 SWAP3 PUSH2 0x2DA0 PUSH2 0x2D99 PUSH2 0x2DAE SWAP5 PUSH12 0x3D9131B932B0BA37B9111D11 PUSH1 0xA1 SHL DUP2 MSTORE PUSH1 0xC ADD SWAP1 JUMP JUMPDEST DUP1 SWAP3 PUSH2 0x2D16 JUMP JUMPDEST ADD PUSH1 0x11 PUSH1 0xF9 SHL DUP2 MSTORE PUSH1 0x1 ADD SWAP1 JUMP JUMPDEST PUSH8 0x113730B6B2911D11 PUSH1 0xC1 SHL DUP2 MSTORE PUSH1 0x8 ADD SWAP1 JUMP JUMPDEST PUSH1 0x11 PUSH1 0xF9 SHL DUP2 MSTORE PUSH1 0x1 ADD SWAP1 JUMP JUMPDEST PUSH15 0x113232B9B1B934B83A34B7B7111D11 PUSH1 0x89 SHL DUP2 MSTORE PUSH1 0xF ADD SWAP1 JUMP JUMPDEST PUSH9 0x1134B6B0B3B2911D11 PUSH1 0xB9 SHL DUP2 MSTORE PUSH1 0x9 ADD SWAP1 JUMP JUMPDEST PUSH16 0x1132BC3A32B93730B62FBAB936111D11 PUSH1 0x81 SHL DUP2 MSTORE PUSH1 0x10 ADD SWAP1 JUMP JUMPDEST PUSH13 0x1136B2B234B0AA3CB832911D11 PUSH1 0x99 SHL DUP2 MSTORE PUSH1 0xD ADD SWAP1 JUMP JUMPDEST DUP1 SWAP3 PUSH2 0x2D29 JUMP JUMPDEST PUSH1 0x7D PUSH1 0xF8 SHL DUP2 MSTORE PUSH1 0x1 ADD SWAP1 JUMP JUMPDEST PUSH32 0x646174613A6170706C69636174696F6E2F6A736F6E3B6261736536342C000000 DUP2 MSTORE PUSH2 0x226 SWAP2 SWAP1 PUSH1 0x1D ADD PUSH2 0x1B82 JUMP JUMPDEST PUSH2 0x1C04 PUSH2 0x226 SWAP7 PUSH2 0x2EA7 SWAP7 PUSH2 0x2EA2 SWAP6 SWAP7 PUSH2 0x2E90 PUSH1 0x60 SWAP1 JUMP JUMPDEST POP PUSH1 0x40 MLOAD SWAP8 DUP9 SWAP7 PUSH1 0x20 DUP9 ADD SWAP7 DUP8 PUSH2 0x2D3B JUMP JUMPDEST PUSH2 0x2F39 JUMP JUMPDEST PUSH2 0x226 PUSH2 0x2EB3 PUSH1 0x40 MLOAD SWAP1 JUMP JUMPDEST DUP1 SWAP3 PUSH2 0x1C04 PUSH1 0x20 DUP4 ADD SWAP2 DUP3 PUSH2 0x2E48 JUMP JUMPDEST PUSH2 0x2ECD PUSH1 0x40 PUSH2 0x1253 JUMP JUMPDEST PUSH32 0x4142434445464748494A4B4C4D4E4F505152535455565758595A616263646566 PUSH1 0x20 DUP3 ADD MSTORE PUSH32 0x6768696A6B6C6D6E6F707172737475767778797A303132333435363738392B2F PUSH1 0x40 DUP3 ADD MSTORE SWAP1 JUMP JUMPDEST PUSH2 0x226 PUSH2 0x2EC3 JUMP JUMPDEST PUSH2 0x226 PUSH2 0x2F1C JUMP JUMPDEST SWAP2 SWAP1 DUP3 ADD DUP1 SWAP3 GT PUSH2 0x20CD JUMPI JUMP JUMPDEST DUP1 MLOAD PUSH2 0x2F48 PUSH2 0x184F PUSH1 0x0 PUSH2 0x438 JUMP JUMPDEST EQ PUSH2 0x1C67 JUMPI PUSH2 0x2F55 PUSH2 0x2F24 JUMP JUMPDEST SWAP1 PUSH1 0x4 PUSH2 0x2F60 DUP3 MLOAD SWAP1 JUMP JUMPDEST SWAP1 PUSH1 0x1 PUSH2 0x2F9B PUSH2 0x2F96 PUSH2 0x2F7E PUSH1 0x2 SWAP6 PUSH2 0x2F78 DUP8 PUSH2 0x438 JUMP JUMPDEST SWAP1 PUSH2 0x2F2C JUMP JUMPDEST SWAP4 PUSH2 0x2F91 PUSH2 0x2879 PUSH1 0x3 SWAP7 PUSH2 0x1D22 DUP9 PUSH2 0x438 JUMP JUMPDEST PUSH2 0x269E JUMP JUMPDEST PUSH2 0x1C75 JUMP JUMPDEST SWAP5 ADD SWAP3 PUSH1 0x20 DUP6 ADD SWAP4 DUP2 SWAP1 DUP3 MLOAD DUP4 ADD SWAP2 JUMPDEST DUP3 DUP2 LT PUSH2 0x2FE6 JUMPI POP POP POP MLOAD MOD SWAP1 DUP2 PUSH1 0x1 EQ PUSH2 0x2FD6 JUMPI POP PUSH1 0x2 EQ PUSH2 0x2FCC JUMPI POP SWAP1 JUMP JUMPDEST PUSH1 0x1 PUSH1 0x3D SWAP2 SUB MSTORE8 SWAP1 JUMP JUMPDEST SWAP1 POP DUP2 PUSH1 0x3D PUSH1 0x1 DUP2 SWAP5 SUB MSTORE8 SUB MSTORE8 SWAP1 JUMP JUMPDEST DUP5 PUSH1 0x1 SWAP2 SWAP8 SWAP3 SWAP4 SWAP8 ADD SWAP2 PUSH1 0x3F DUP3 DUP1 DUP1 DUP7 MLOAD SWAP5 DUP5 DUP7 PUSH1 0x12 SHR AND DUP10 ADD MLOAD DUP2 MSTORE8 ADD DUP4 DUP6 PUSH1 0xC SHR AND DUP9 ADD MLOAD DUP2 MSTORE8 ADD DUP3 DUP5 PUSH1 0x6 SHR AND DUP8 ADD MLOAD DUP2 MSTORE8 ADD SWAP2 AND DUP5 ADD MLOAD DUP2 MSTORE8 ADD SWAP6 SWAP2 SWAP1 PUSH2 0x2FAB JUMP JUMPDEST SWAP1 PUSH2 0x210 SWAP2 PUSH2 0x3039 PUSH2 0xD91 JUMP JUMPDEST PUSH2 0x30D7 JUMP JUMPDEST PUSH1 0x1 PUSH1 0x1 PUSH1 0xA0 SHL SUB SWAP1 SWAP2 AND DUP2 MSTORE PUSH1 0x40 DUP2 ADD SWAP3 SWAP2 PUSH2 0x210 SWAP2 PUSH1 0x20 ADD MSTORE JUMP JUMPDEST PUSH1 0x1 PUSH1 0x1 PUSH1 0xA0 SHL SUB SWAP2 DUP3 AND DUP2 MSTORE SWAP2 AND PUSH1 0x20 DUP3 ADD MSTORE PUSH1 0x60 DUP2 ADD SWAP3 SWAP2 PUSH2 0x210 SWAP2 PUSH1 0x40 ADD MSTORE JUMP JUMPDEST ISZERO PUSH2 0x3086 JUMPI JUMP JUMPDEST PUSH1 0x40 MLOAD PUSH3 0x461BCD PUSH1 0xE5 SHL DUP2 MSTORE PUSH1 0x20 PUSH1 0x4 DUP3 ADD MSTORE PUSH1 0x24 DUP1 DUP3 ADD MSTORE PUSH32 0x496E73756666696369656E74204554482062616C616E636520696E20636F6E74 PUSH1 0x44 DUP3 ADD MSTORE PUSH4 0x1C9858DD PUSH1 0xE2 SHL PUSH1 0x64 DUP3 ADD MSTORE PUSH1 0x84 SWAP1 REVERT JUMPDEST SWAP1 PUSH1 0x0 PUSH2 0x30E6 PUSH2 0x324 DUP3 PUSH2 0xD1A JUMP JUMPDEST PUSH1 0x1 PUSH1 0x1 PUSH1 0xA0 SHL SUB DUP5 AND SUB PUSH2 0x317F JUMPI PUSH2 0x310B PUSH2 0x3101 ADDRESS PUSH2 0xE91 JUMP JUMPDEST DUP4 SWAP1 BALANCE LT ISZERO PUSH2 0x307F JUMP JUMPDEST DUP1 DUP1 DUP1 DUP5 PUSH2 0x3127 PUSH2 0x17ED PUSH2 0x17ED PUSH1 0xB SLOAD PUSH1 0x1 PUSH1 0x1 PUSH1 0xA0 SHL SUB AND SWAP1 JUMP JUMPDEST DUP3 DUP3 ISZERO PUSH2 0x3176 JUMPI JUMPDEST CALL ISZERO PUSH2 0x2932 JUMPI PUSH32 0xFFF3B3844276F57024E0B42AFEC1A37F75DB36511E43819A4F2A63AB7862B648 SWAP1 PUSH2 0x3160 CALLER PUSH2 0xE91 JUMP JUMPDEST SWAP3 PUSH2 0x1A71 PUSH2 0x316D PUSH1 0x40 MLOAD SWAP1 JUMP JUMPDEST SWAP3 DUP4 SWAP3 DUP4 PUSH2 0x303E JUMP JUMPDEST POP PUSH2 0x8FC PUSH2 0x312F JUMP JUMPDEST DUP2 PUSH1 0x20 PUSH2 0x318E PUSH2 0x17ED DUP7 PUSH2 0xE91 JUMP JUMPDEST PUSH4 0xA9059CBB SWAP1 PUSH2 0x31C4 DUP6 PUSH2 0x31AA PUSH1 0xB SLOAD PUSH1 0x1 PUSH1 0x1 PUSH1 0xA0 SHL SUB AND SWAP1 JUMP JUMPDEST SWAP4 PUSH2 0x31CF PUSH2 0x31B7 PUSH1 0x40 MLOAD SWAP1 JUMP JUMPDEST SWAP8 DUP9 SWAP7 DUP8 SWAP6 DUP7 SWAP5 PUSH1 0xE0 SHL SWAP1 JUMP JUMPDEST DUP5 MSTORE PUSH1 0x4 DUP5 ADD PUSH2 0x303E JUMP JUMPDEST SUB SWAP3 GAS CALL SWAP1 DUP2 PUSH2 0x332E JUMPI JUMPDEST POP ISZERO DUP2 EQ PUSH2 0x3302 JUMPI PUSH2 0x31EE PUSH2 0x17ED DUP5 PUSH2 0xE91 JUMP JUMPDEST PUSH4 0x42842E0E PUSH2 0x31FC ADDRESS PUSH2 0xE91 JUMP JUMPDEST PUSH1 0xB SLOAD PUSH1 0x1 PUSH1 0x1 PUSH1 0xA0 SHL SUB AND SWAP3 DUP1 EXTCODESIZE ISZERO PUSH2 0x1FE JUMPI PUSH2 0x3230 DUP6 DUP1 SWAP5 PUSH2 0x323B DUP10 PUSH2 0x3223 PUSH1 0x40 MLOAD SWAP1 JUMP JUMPDEST SWAP9 DUP10 SWAP8 DUP9 SWAP7 DUP8 SWAP6 PUSH1 0xE0 SHL SWAP1 JUMP JUMPDEST DUP6 MSTORE PUSH1 0x4 DUP6 ADD PUSH2 0x305B JUMP JUMPDEST SUB SWAP3 GAS CALL SWAP1 DUP2 PUSH2 0x32D6 JUMPI JUMPDEST POP ISZERO EQ PUSH2 0x32AB JUMPI PUSH1 0x40 MLOAD PUSH3 0x461BCD PUSH1 0xE5 SHL DUP2 MSTORE PUSH1 0x20 PUSH1 0x4 DUP3 ADD MSTORE PUSH1 0x30 PUSH1 0x24 DUP3 ADD MSTORE PUSH32 0x546F6B656E2074797065206E6F7420737570706F72746564206F7220696E7375 PUSH1 0x44 DUP3 ADD MSTORE PUSH16 0x6666696369656E742062616C616E6365 PUSH1 0x80 SHL PUSH1 0x64 DUP3 ADD MSTORE PUSH1 0x84 SWAP1 REVERT JUMPDEST PUSH32 0xFFF3B3844276F57024E0B42AFEC1A37F75DB36511E43819A4F2A63AB7862B648 SWAP1 PUSH2 0x3160 CALLER PUSH2 0xE91 JUMP JUMPDEST PUSH2 0x32F5 SWAP1 DUP4 RETURNDATASIZE DUP6 GT PUSH2 0x32FB JUMPI JUMPDEST PUSH2 0x32ED DUP2 DUP4 PUSH2 0x552 JUMP JUMPDEST DUP2 ADD SWAP1 PUSH2 0x25F JUMP JUMPDEST CODESIZE PUSH2 0x3246 JUMP JUMPDEST POP RETURNDATASIZE PUSH2 0x32E3 JUMP JUMPDEST POP PUSH32 0xFFF3B3844276F57024E0B42AFEC1A37F75DB36511E43819A4F2A63AB7862B648 SWAP1 PUSH2 0x3160 CALLER PUSH2 0xE91 JUMP JUMPDEST PUSH2 0x3345 SWAP1 PUSH1 0x20 RETURNDATASIZE DUP2 GT PUSH2 0x292B JUMPI PUSH2 0x291D DUP2 DUP4 PUSH2 0x552 JUMP JUMPDEST PUSH2 0x31DA JUMP JUMPDEST SWAP1 PUSH2 0x210 SWAP2 PUSH2 0x302C JUMP INVALID LOG2 PUSH5 0x6970667358 0x22 SLT KECCAK256 LOG3 PC DELEGATECALL PUSH32 0xFB4DC38D700D962845692E171057C84DE9461BB6F6E3250D3479222364736F6C PUSH4 0x43000813 STOP CALLER "},"methodIdentifiers":{"approve(address,uint256)":"095ea7b3","balanceOf(address)":"70a08231","buyNFT(uint256)":"51ed8288","getApproved(uint256)":"081812fc","isApprovedForAll(address,address)":"e985e9c5","name()":"06fdde03","nextNFTId()":"c909adc0","nextSourceId()":"926061f0","nftSources(uint256)":"e0189dee","nfts(uint256)":"265aa621","owner()":"8da5cb5b","ownerOf(uint256)":"6352211e","renounceOwnership()":"715018a6","safeTransferFrom(address,address,uint256)":"42842e0e","safeTransferFrom(address,address,uint256,bytes)":"b88d4fde","setApprovalForAll(address,bool)":"a22cb465","setBlockFans(address)":"ba908b45","setCreators(address)":"fa3157d5","setNFTSource(string,string,string,string,uint256,uint8)":"6d224c4d","supportsInterface(bytes4)":"01ffc9a7","symbol()":"95d89b41","tokenByIndex(uint256)":"4f6ccce7","tokenOfOwnerByIndex(address,uint256)":"2f745c59","tokenURI(uint256)":"c87b56dd","totalSupply()":"18160ddd","transferFrom(address,address,uint256)":"23b872dd","transferOwnership(address)":"f2fde38b","withdraw(address,uint256)":"f3fef3a3"}}}}}