{"@openzeppelin/contracts/token/ERC721/ERC721.sol":{"ERC721":{"abi":[{"inputs":[{"internalType":"string","name":"name_","type":"string"},{"internalType":"string","name":"symbol_","type":"string"}],"stateMutability":"nonpayable","type":"constructor"},{"anonymous":false,"inputs":[{"indexed":true,"internalType":"address","name":"owner","type":"address"},{"indexed":true,"internalType":"address","name":"approved","type":"address"},{"indexed":true,"internalType":"uint256","name":"tokenId","type":"uint256"}],"name":"Approval","type":"event"},{"anonymous":false,"inputs":[{"indexed":true,"internalType":"address","name":"owner","type":"address"},{"indexed":true,"internalType":"address","name":"operator","type":"address"},{"indexed":false,"internalType":"bool","name":"approved","type":"bool"}],"name":"ApprovalForAll","type":"event"},{"anonymous":false,"inputs":[{"indexed":true,"internalType":"address","name":"from","type":"address"},{"indexed":true,"internalType":"address","name":"to","type":"address"},{"indexed":true,"internalType":"uint256","name":"tokenId","type":"uint256"}],"name":"Transfer","type":"event"},{"inputs":[{"internalType":"address","name":"to","type":"address"},{"internalType":"uint256","name":"tokenId","type":"uint256"}],"name":"approve","outputs":[],"stateMutability":"nonpayable","type":"function"},{"inputs":[{"internalType":"address","name":"owner","type":"address"}],"name":"balanceOf","outputs":[{"internalType":"uint256","name":"","type":"uint256"}],"stateMutability":"view","type":"function"},{"inputs":[{"internalType":"uint256","name":"tokenId","type":"uint256"}],"name":"getApproved","outputs":[{"internalType":"address","name":"","type":"address"}],"stateMutability":"view","type":"function"},{"inputs":[{"internalType":"address","name":"owner","type":"address"},{"internalType":"address","name":"operator","type":"address"}],"name":"isApprovedForAll","outputs":[{"internalType":"bool","name":"","type":"bool"}],"stateMutability":"view","type":"function"},{"inputs":[],"name":"name","outputs":[{"internalType":"string","name":"","type":"string"}],"stateMutability":"view","type":"function"},{"inputs":[{"internalType":"uint256","name":"tokenId","type":"uint256"}],"name":"ownerOf","outputs":[{"internalType":"address","name":"","type":"address"}],"stateMutability":"view","type":"function"},{"inputs":[{"internalType":"address","name":"from","type":"address"},{"internalType":"address","name":"to","type":"address"},{"internalType":"uint256","name":"tokenId","type":"uint256"}],"name":"safeTransferFrom","outputs":[],"stateMutability":"nonpayable","type":"function"},{"inputs":[{"internalType":"address","name":"from","type":"address"},{"internalType":"address","name":"to","type":"address"},{"internalType":"uint256","name":"tokenId","type":"uint256"},{"internalType":"bytes","name":"data","type":"bytes"}],"name":"safeTransferFrom","outputs":[],"stateMutability":"nonpayable","type":"function"},{"inputs":[{"internalType":"address","name":"operator","type":"address"},{"internalType":"bool","name":"approved","type":"bool"}],"name":"setApprovalForAll","outputs":[],"stateMutability":"nonpayable","type":"function"},{"inputs":[{"internalType":"bytes4","name":"interfaceId","type":"bytes4"}],"name":"supportsInterface","outputs":[{"internalType":"bool","name":"","type":"bool"}],"stateMutability":"view","type":"function"},{"inputs":[],"name":"symbol","outputs":[{"internalType":"string","name":"","type":"string"}],"stateMutability":"view","type":"function"},{"inputs":[{"internalType":"uint256","name":"tokenId","type":"uint256"}],"name":"tokenURI","outputs":[{"internalType":"string","name":"","type":"string"}],"stateMutability":"view","type":"function"},{"inputs":[{"internalType":"address","name":"from","type":"address"},{"internalType":"address","name":"to","type":"address"},{"internalType":"uint256","name":"tokenId","type":"uint256"}],"name":"transferFrom","outputs":[],"stateMutability":"nonpayable","type":"function"}],"evm":{"bytecode":{"linkReferences":{},"object":"60806040523462000031576200001f6200001862000175565b9062000392565b604051611474620003ad823961147490f35b600080fd5b634e487b7160e01b600052604160045260246000fd5b90601f01601f191681019081106001600160401b038211176200006e57604052565b62000036565b906200008b6200008360405190565b92836200004c565b565b6001600160401b0381116200006e57602090601f01601f19160190565b60005b838110620000be5750506000910152565b8181015183820152602001620000ad565b90929192620000e8620000e2826200008d565b62000074565b9381855260208501908284011162000031576200008b92620000aa565b9080601f83011215620000315781516200012292602001620000cf565b90565b919091604081840312620000315780516001600160401b0381116200003157836200015291830162000105565b60208201519093906001600160401b038111620000315762000122920162000105565b6200019862001821803803806200018c8162000074565b92833981019062000125565b9091565b634e487b7160e01b600052602260045260246000fd5b9060016002830492168015620001d5575b6020831014620001cf57565b6200019c565b91607f1691620001c3565b6200012262000122620001229290565b919062000205620001226200021d93620001e0565b90835460001960089290920291821b191691901b1790565b9055565b6200008b91600091620001f0565b8181106200023b575050565b806200024b600060019362000221565b016200022f565b9190601f81116200026257505050565b620002766200008b93600052602060002090565b906020601f8401819004830193106200029a575b6020601f9091010401906200022f565b90915081906200028a565b90620002af815190565b906001600160401b0382116200006e57620002d782620002d08554620001b2565b8562000252565b602090601f831160011462000316576200021d9291600091836200030a575b5050600019600883021c1916906002021790565b015190503880620002f6565b601f198316916200032c85600052602060002090565b9260005b8181106200036d5750916002939185600196941062000353575b50505002019055565b01516000196008601f8516021c191690553880806200034a565b9193602060018192878701518155019501920162000330565b906200008b91620002a5565b90620003a46200008b92600062000386565b60016200038656fe6080604052600436101561001257600080fd5b60003560e01c806301ffc9a7146100e257806306fdde03146100dd578063081812fc146100d8578063095ea7b3146100d357806323b872dd146100ce57806342842e0e146100c95780636352211e146100c457806370a08231146100bf57806395d89b41146100ba578063a22cb465146100b5578063b88d4fde146100b0578063c87b56dd146100ab5763e985e9c5036100fa57610550565b610512565b6104f6565b6103c9565b610376565b61034b565b61031c565b610303565b6102ea565b61029c565b610228565b6101ce565b610125565b6001600160e01b031981165b036100fa57565b600080fd5b9050359061010c826100e7565b565b906020828203126100fa57610122916100ff565b90565b346100fa5761015361014061013b36600461010e565b61056c565b6040515b91829182901515815260200190565b0390f35b60009103126100fa57565b60005b8381106101755750506000910152565b8181015183820152602001610165565b6101a66101af6020936101b99361019a815190565b80835293849260200190565b95869101610162565b601f01601f191690565b0190565b602080825261012292910190610185565b346100fa576101de366004610157565b6101536101e9610829565b604051918291826101bd565b806100f3565b9050359061010c826101f5565b906020828203126100fa57610122916101fb565b6001600160a01b031690565b346100fa5761015361024361023e366004610208565b610a5c565b604051918291826001600160a01b03909116815260200190565b6001600160a01b0381166100f3565b9050359061010c8261025d565b91906040838203126100fa5761012290610293818561026c565b936020016101fb565b346100fa576102b56102af366004610279565b906109de565b604051005b90916060828403126100fa576101226102d3848461026c565b936102e1816020860161026c565b936040016101fb565b346100fa576102b56102fd3660046102ba565b91610b15565b346100fa576102b56103163660046102ba565b91610b32565b346100fa57610153610243610332366004610208565b610703565b906020828203126100fa576101229161026c565b346100fa57610153610366610361366004610337565b61067a565b6040519182918290815260200190565b346100fa57610386366004610157565b6101536101e9610833565b8015156100f3565b9050359061010c82610391565b91906040838203126100fa57610122906103c0818561026c565b93602001610399565b346100fa576102b56103dc3660046103a6565b90610a81565b634e487b7160e01b600052604160045260246000fd5b90601f01601f1916810190811067ffffffffffffffff82111761041a57604052565b6103e2565b9061010c61042c60405190565b92836103f8565b67ffffffffffffffff811161041a57602090601f01601f19160190565b90826000939282370152565b9092919261047161046c82610433565b61041f565b938185526020850190828401116100fa5761010c92610450565b9080601f830112156100fa578160206101229335910161045c565b906080828203126100fa576104bb818361026c565b926104c9826020850161026c565b926104d783604083016101fb565b92606082013567ffffffffffffffff81116100fa57610122920161048b565b346100fa576102b56105093660046104a6565b92919091610b42565b346100fa576101536101e9610528366004610208565b6108a3565b91906040838203126100fa5761012290610547818561026c565b9360200161026c565b346100fa5761015361014061056636600461052d565b90610a8c565b6380ac58cd60e01b6001600160e01b031982161490811561059c575b8115610592575090565b610122915061128a565b6001600160e01b03198116635b5e139f60e01b149150610588565b61021c6101226101229290565b610122906105b7565b156105d457565b60405162461bcd60e51b815260206004820152602960248201527f4552433732313a2061646472657373207a65726f206973206e6f7420612076616044820152683634b21037bbb732b960b91b6064820152608490fd5b6101229061021c906001600160a01b031682565b6101229061062b565b6101229061063f565b9061065b90610648565b600052602052604060002090565b6101229081565b6101229054610669565b6106b261012291610689600090565b506106ab61069a61021c60006105c4565b6001600160a01b03831614156105cd565b6003610651565b610670565b156106be57565b60405162461bcd60e51b815260206004820152601860248201527f4552433732313a20696e76616c696420746f6b656e20494400000000000000006044820152606490fd5b6107109060005b50610be2565b61012261072061021c60006105c4565b6001600160a01b03831614156106b7565b634e487b7160e01b600052602260045260246000fd5b9060016002830492168015610767575b602083101461076257565b610731565b91607f1691610757565b8054600093929161078e61078483610747565b8085529360200190565b91600181169081156107e057506001146107a757505050565b6107ba9192939450600052602060002090565b916000925b8184106107cc5750500190565b8054848401526020909301926001016107bf565b92949550505060ff1916825215156020020190565b9061012291610771565b9061010c6108199261081060405190565b938480926107f5565b03836103f8565b610122906107ff565b6101226000610820565b6101226001610820565b6101226101226101229290565b9061085761046c83610433565b918252565b610122600061084a565b61012261085c565b6101b961088692602092610880815190565b94859290565b93849101610162565b61089d90610122939261086e565b9061086e565b6108ac81610fff565b6108b461090e565b80516108c76108c3600061083d565b9190565b1115610904576101226108f8916108e0610122946111fe565b906108ea60405190565b93849260208401928361088f565b908103825203826103f8565b5050610122610866565b610122610866565b1561091d57565b60405162461bcd60e51b815260206004820152602160248201527f4552433732313a20617070726f76616c20746f2063757272656e74206f776e656044820152603960f91b6064820152608490fd5b1561097357565b60405162461bcd60e51b815260206004820152603d60248201527f4552433732313a20617070726f76652063616c6c6572206973206e6f7420746f60448201527f6b656e206f776e6572206f7220617070726f76656420666f7220616c6c0000006064820152608490fd5b9061010c91610a296109ef83610703565b610a0d6001600160a01b0382166001600160a01b0385161415610916565b336001600160a01b0382168114918215610a2e575b505061096c565b610ece565b610a389250610a8c565b3880610a22565b9061065b9061083d565b6101229061021c565b6101229054610a49565b610a7c61012291610a6b600090565b50610a7581610fff565b6004610a3f565b610a52565b61010c919033610f84565b61012291610aa7610aac92610a9f600090565b506005610651565b610651565b5460ff1690565b15610aba57565b60405162461bcd60e51b815260206004820152602d60248201527f4552433732313a2063616c6c6572206973206e6f7420746f6b656e206f776e6560448201526c1c881bdc88185c1c1c9bdd9959609a1b6064820152608490fd5b61010c929190610b2d610b288433610bf9565b610ab3565b610db1565b909161010c92610b40610866565b925b61010c93929190610b56610b288433610bf9565b610bc3565b15610b6257565b6040515b62461bcd60e51b815260206004820152603260248201527f4552433732313a207472616e7366657220746f206e6f6e20455243373231526560448201527131b2b4bb32b91034b6b83632b6b2b73a32b960711b6064820152608490fd5b9161010c9391610bdd93610bd8838383610db1565b6110a1565b610b5b565b610a7c61012291610bf1600090565b506002610a3f565b610c0282610703565b916001600160a01b0383166001600160a01b03831614928315610c5c575b508215610c2c57505090565b610c58919250610c3e610c4b91610a5c565b926001600160a01b031690565b916001600160a01b031690565b1490565b610c699193508290610a8c565b9138610c20565b15610c7757565b60405162461bcd60e51b815260206004820152602560248201527f4552433732313a207472616e736665722066726f6d20696e636f72726563742060448201526437bbb732b960d91b6064820152608490fd5b15610cd157565b60405162461bcd60e51b8152602060048201526024808201527f4552433732313a207472616e7366657220746f20746865207a65726f206164646044820152637265737360e01b6064820152608490fd5b916001600160a01b0360089290920291821b911b5b9181191691161790565b9190610d52610122610d5a93610648565b908354610d22565b9055565b61010c91600091610d41565b9060001990610d37565b90610d84610122610d5a9261083d565b8254610d6a565b906001600160a01b0390610d37565b90610daa610122610d5a92610648565b8254610d8b565b9190610dd7610dbf83610703565b610dd16001600160a01b038616610c4b565b14610c70565b610e2a6000610dfc610deb61021c836105c4565b6001600160a01b0385161415610cca565b610e1a610e0885610703565b610dd16001600160a01b038816610c4b565b610e25846004610a3f565b610d5e565b610e6e610e37600161083d565b610e5e610e64846003610aa7610e4d8a83610651565b610e5e87610e5a83610670565b0390565b90610d74565b916101b983610670565b610e8281610e7d846002610a3f565b610d9a565b610ebe610eb8610eb27fddf252ad1be2c89b69c2b068fc378daa952ba7f163c4a11628f55a4df523b3ef95610648565b92610648565b9261083d565b92610ec860405190565b600090a4565b90610ede82610e7d836004610a3f565b610ee781610703565b91610ebe610eb8610eb27f8c5be1e5ebec7d5bd14f71427d1e84f3dd0314c0f7b2291e5b200ac8c7c3b92595610648565b15610f1f57565b60405162461bcd60e51b815260206004820152601960248201527f4552433732313a20617070726f766520746f2063616c6c6572000000000000006044820152606490fd5b9060ff90610d37565b90610f7d610122610d5a92151590565b8254610f64565b610fa26001600160a01b0383166001600160a01b0383161415610f18565b610fba83610fb584610aa7856005610651565b610f6d565b610ffa610ff0610fea7f17307eab39ab6107e8899845ad3d59bd9653f200f220920489ca2b5937696c3193610648565b93610648565b9361014460405190565b0390a3565b61100b61010c91611010565b6106b7565b61101b90600061070a565b61102b610c4b61021c60006105c4565b141590565b9050519061010c826100e7565b906020828203126100fa5761012291611030565b6001600160a01b03918216815291166020820152604081019190915260806060820181905261012292910190610185565b3d1561109c576110913d61084a565b903d6000602084013e565b606090565b919093926110ad600090565b946110b78161119f565b1561119557906110fe60006110d66110d160209695610648565b610648565b9261110963150b7a02916110e73390565b966110f160405190565b998a988997889660e01b90565b865260048601611051565b03925af160009181611165575b506111485750611124611082565b80516111336108c3600061083d565b0361114057604051610b66565b805190602001fd5b909150610c58630a85bd0160e11b5b916001600160e01b03191690565b61118791925060203d811161118e575b61117f81836103f8565b81019061103d565b9038611116565b503d611175565b5060019450505050565b3b6111ad6108c3600061083d565b1190565b369037565b9061010c6111cc6111c68461084a565b93610433565b601f1901602084016111b1565b634e487b7160e01b600052601260045260246000fd5b81156111f9570490565b6111d9565b6112078161129a565b906112176001926101b98461083d565b9180611222846111b6565b936020018401905b611235575b50505090565b6112699060001901926f181899199a1a9b1b9c1cb0b131b232b360811b600a82061a8453611263600a61083d565b906111ef565b90816112786108c3600061083d565b146112855790918161122a565b61122f565b610c586301ffc9a760e01b611157565b6112a4600061083d565b907a184f03e93ff9f4daa797ed6e38ed64bf6a1f0100000000000000006112ca8161083d565b82101561141c575b506d04ee2d6d415b85acef81000000006112eb8161083d565b8210156113fa575b50662386f26fc100006113058161083d565b8210156113d8575b506305f5e10061131c8161083d565b8210156113b6575b506127106113318161083d565b821015611394575b5060646113458161083d565b821015611372575b5061135b6108c3600a61083d565b10156113645790565b610122906101b9600161083d565b61138d916112636113829261083d565b916101b9600261083d565b903861134d565b6113af916112636113a49261083d565b916101b9600461083d565b9038611339565b6113d1916112636113c69261083d565b916101b9600861083d565b9038611324565b6113f3916112636113e89261083d565b916101b9601061083d565b903861130d565b6114159161126361140a9261083d565b916101b9602061083d565b90386112f3565b6114379161126361142c9261083d565b916101b9604061083d565b90386112d256fea26469706673582212200aed2af1062aaec5e2464ffb40e98a5bd2baf5b2aeddac318a3472f5bd9b9fe064736f6c63430008130033","opcodes":"PUSH1 0x80 PUSH1 0x40 MSTORE CALLVALUE PUSH3 0x31 JUMPI PUSH3 0x1F PUSH3 0x18 PUSH3 0x175 JUMP JUMPDEST SWAP1 PUSH3 0x392 JUMP JUMPDEST PUSH1 0x40 MLOAD PUSH2 0x1474 PUSH3 0x3AD DUP3 CODECOPY PUSH2 0x1474 SWAP1 RETURN JUMPDEST PUSH1 0x0 DUP1 REVERT JUMPDEST PUSH4 0x4E487B71 PUSH1 0xE0 SHL PUSH1 0x0 MSTORE PUSH1 0x41 PUSH1 0x4 MSTORE PUSH1 0x24 PUSH1 0x0 REVERT JUMPDEST SWAP1 PUSH1 0x1F ADD PUSH1 0x1F NOT AND DUP2 ADD SWAP1 DUP2 LT PUSH1 0x1 PUSH1 0x1 PUSH1 0x40 SHL SUB DUP3 GT OR PUSH3 0x6E JUMPI PUSH1 0x40 MSTORE JUMP JUMPDEST PUSH3 0x36 JUMP JUMPDEST SWAP1 PUSH3 0x8B PUSH3 0x83 PUSH1 0x40 MLOAD SWAP1 JUMP JUMPDEST SWAP3 DUP4 PUSH3 0x4C JUMP JUMPDEST JUMP JUMPDEST PUSH1 0x1 PUSH1 0x1 PUSH1 0x40 SHL SUB DUP2 GT PUSH3 0x6E JUMPI PUSH1 0x20 SWAP1 PUSH1 0x1F ADD PUSH1 0x1F NOT AND ADD SWAP1 JUMP JUMPDEST PUSH1 0x0 JUMPDEST DUP4 DUP2 LT PUSH3 0xBE JUMPI POP POP PUSH1 0x0 SWAP2 ADD MSTORE JUMP JUMPDEST DUP2 DUP2 ADD MLOAD DUP4 DUP3 ADD MSTORE PUSH1 0x20 ADD PUSH3 0xAD JUMP JUMPDEST SWAP1 SWAP3 SWAP2 SWAP3 PUSH3 0xE8 PUSH3 0xE2 DUP3 PUSH3 0x8D JUMP JUMPDEST PUSH3 0x74 JUMP JUMPDEST SWAP4 DUP2 DUP6 MSTORE PUSH1 0x20 DUP6 ADD SWAP1 DUP3 DUP5 ADD GT PUSH3 0x31 JUMPI PUSH3 0x8B SWAP3 PUSH3 0xAA JUMP JUMPDEST SWAP1 DUP1 PUSH1 0x1F DUP4 ADD SLT ISZERO PUSH3 0x31 JUMPI DUP2 MLOAD PUSH3 0x122 SWAP3 PUSH1 0x20 ADD PUSH3 0xCF JUMP JUMPDEST SWAP1 JUMP JUMPDEST SWAP2 SWAP1 SWAP2 PUSH1 0x40 DUP2 DUP5 SUB SLT PUSH3 0x31 JUMPI DUP1 MLOAD PUSH1 0x1 PUSH1 0x1 PUSH1 0x40 SHL SUB DUP2 GT PUSH3 0x31 JUMPI DUP4 PUSH3 0x152 SWAP2 DUP4 ADD PUSH3 0x105 JUMP JUMPDEST PUSH1 0x20 DUP3 ADD MLOAD SWAP1 SWAP4 SWAP1 PUSH1 0x1 PUSH1 0x1 PUSH1 0x40 SHL SUB DUP2 GT PUSH3 0x31 JUMPI PUSH3 0x122 SWAP3 ADD PUSH3 0x105 JUMP JUMPDEST PUSH3 0x198 PUSH3 0x1821 DUP1 CODESIZE SUB DUP1 PUSH3 0x18C DUP2 PUSH3 0x74 JUMP JUMPDEST SWAP3 DUP4 CODECOPY DUP2 ADD SWAP1 PUSH3 0x125 JUMP JUMPDEST SWAP1 SWAP2 JUMP JUMPDEST PUSH4 0x4E487B71 PUSH1 0xE0 SHL PUSH1 0x0 MSTORE PUSH1 0x22 PUSH1 0x4 MSTORE PUSH1 0x24 PUSH1 0x0 REVERT JUMPDEST SWAP1 PUSH1 0x1 PUSH1 0x2 DUP4 DIV SWAP3 AND DUP1 ISZERO PUSH3 0x1D5 JUMPI JUMPDEST PUSH1 0x20 DUP4 LT EQ PUSH3 0x1CF JUMPI JUMP JUMPDEST PUSH3 0x19C JUMP JUMPDEST SWAP2 PUSH1 0x7F AND SWAP2 PUSH3 0x1C3 JUMP JUMPDEST PUSH3 0x122 PUSH3 0x122 PUSH3 0x122 SWAP3 SWAP1 JUMP JUMPDEST SWAP2 SWAP1 PUSH3 0x205 PUSH3 0x122 PUSH3 0x21D SWAP4 PUSH3 0x1E0 JUMP JUMPDEST SWAP1 DUP4 SLOAD PUSH1 0x0 NOT PUSH1 0x8 SWAP3 SWAP1 SWAP3 MUL SWAP2 DUP3 SHL NOT AND SWAP2 SWAP1 SHL OR SWAP1 JUMP JUMPDEST SWAP1 SSTORE JUMP JUMPDEST PUSH3 0x8B SWAP2 PUSH1 0x0 SWAP2 PUSH3 0x1F0 JUMP JUMPDEST DUP2 DUP2 LT PUSH3 0x23B JUMPI POP POP JUMP JUMPDEST DUP1 PUSH3 0x24B PUSH1 0x0 PUSH1 0x1 SWAP4 PUSH3 0x221 JUMP JUMPDEST ADD PUSH3 0x22F JUMP JUMPDEST SWAP2 SWAP1 PUSH1 0x1F DUP2 GT PUSH3 0x262 JUMPI POP POP POP JUMP JUMPDEST PUSH3 0x276 PUSH3 0x8B SWAP4 PUSH1 0x0 MSTORE PUSH1 0x20 PUSH1 0x0 KECCAK256 SWAP1 JUMP JUMPDEST SWAP1 PUSH1 0x20 PUSH1 0x1F DUP5 ADD DUP2 SWAP1 DIV DUP4 ADD SWAP4 LT PUSH3 0x29A JUMPI JUMPDEST PUSH1 0x20 PUSH1 0x1F SWAP1 SWAP2 ADD DIV ADD SWAP1 PUSH3 0x22F JUMP JUMPDEST SWAP1 SWAP2 POP DUP2 SWAP1 PUSH3 0x28A JUMP JUMPDEST SWAP1 PUSH3 0x2AF DUP2 MLOAD SWAP1 JUMP JUMPDEST SWAP1 PUSH1 0x1 PUSH1 0x1 PUSH1 0x40 SHL SUB DUP3 GT PUSH3 0x6E JUMPI PUSH3 0x2D7 DUP3 PUSH3 0x2D0 DUP6 SLOAD PUSH3 0x1B2 JUMP JUMPDEST DUP6 PUSH3 0x252 JUMP JUMPDEST PUSH1 0x20 SWAP1 PUSH1 0x1F DUP4 GT PUSH1 0x1 EQ PUSH3 0x316 JUMPI PUSH3 0x21D SWAP3 SWAP2 PUSH1 0x0 SWAP2 DUP4 PUSH3 0x30A JUMPI JUMPDEST POP POP PUSH1 0x0 NOT PUSH1 0x8 DUP4 MUL SHR NOT AND SWAP1 PUSH1 0x2 MUL OR SWAP1 JUMP JUMPDEST ADD MLOAD SWAP1 POP CODESIZE DUP1 PUSH3 0x2F6 JUMP JUMPDEST PUSH1 0x1F NOT DUP4 AND SWAP2 PUSH3 0x32C DUP6 PUSH1 0x0 MSTORE PUSH1 0x20 PUSH1 0x0 KECCAK256 SWAP1 JUMP JUMPDEST SWAP3 PUSH1 0x0 JUMPDEST DUP2 DUP2 LT PUSH3 0x36D JUMPI POP SWAP2 PUSH1 0x2 SWAP4 SWAP2 DUP6 PUSH1 0x1 SWAP7 SWAP5 LT PUSH3 0x353 JUMPI JUMPDEST POP POP POP MUL ADD SWAP1 SSTORE JUMP JUMPDEST ADD MLOAD PUSH1 0x0 NOT PUSH1 0x8 PUSH1 0x1F DUP6 AND MUL SHR NOT AND SWAP1 SSTORE CODESIZE DUP1 DUP1 PUSH3 0x34A JUMP JUMPDEST SWAP2 SWAP4 PUSH1 0x20 PUSH1 0x1 DUP2 SWAP3 DUP8 DUP8 ADD MLOAD DUP2 SSTORE ADD SWAP6 ADD SWAP3 ADD PUSH3 0x330 JUMP JUMPDEST SWAP1 PUSH3 0x8B SWAP2 PUSH3 0x2A5 JUMP JUMPDEST SWAP1 PUSH3 0x3A4 PUSH3 0x8B SWAP3 PUSH1 0x0 PUSH3 0x386 JUMP JUMPDEST PUSH1 0x1 PUSH3 0x386 JUMP INVALID PUSH1 0x80 PUSH1 0x40 MSTORE PUSH1 0x4 CALLDATASIZE LT ISZERO PUSH2 0x12 JUMPI PUSH1 0x0 DUP1 REVERT JUMPDEST PUSH1 0x0 CALLDATALOAD PUSH1 0xE0 SHR DUP1 PUSH4 0x1FFC9A7 EQ PUSH2 0xE2 JUMPI DUP1 PUSH4 0x6FDDE03 EQ PUSH2 0xDD JUMPI DUP1 PUSH4 0x81812FC EQ PUSH2 0xD8 JUMPI DUP1 PUSH4 0x95EA7B3 EQ PUSH2 0xD3 JUMPI DUP1 PUSH4 0x23B872DD EQ PUSH2 0xCE JUMPI DUP1 PUSH4 0x42842E0E EQ PUSH2 0xC9 JUMPI DUP1 PUSH4 0x6352211E EQ PUSH2 0xC4 JUMPI DUP1 PUSH4 0x70A08231 EQ PUSH2 0xBF JUMPI DUP1 PUSH4 0x95D89B41 EQ PUSH2 0xBA JUMPI DUP1 PUSH4 0xA22CB465 EQ PUSH2 0xB5 JUMPI DUP1 PUSH4 0xB88D4FDE EQ PUSH2 0xB0 JUMPI DUP1 PUSH4 0xC87B56DD EQ PUSH2 0xAB JUMPI PUSH4 0xE985E9C5 SUB PUSH2 0xFA JUMPI PUSH2 0x550 JUMP JUMPDEST PUSH2 0x512 JUMP JUMPDEST PUSH2 0x4F6 JUMP JUMPDEST PUSH2 0x3C9 JUMP JUMPDEST PUSH2 0x376 JUMP JUMPDEST PUSH2 0x34B JUMP JUMPDEST PUSH2 0x31C JUMP JUMPDEST PUSH2 0x303 JUMP JUMPDEST PUSH2 0x2EA JUMP JUMPDEST PUSH2 0x29C JUMP JUMPDEST PUSH2 0x228 JUMP JUMPDEST PUSH2 0x1CE JUMP JUMPDEST PUSH2 0x125 JUMP JUMPDEST PUSH1 0x1 PUSH1 0x1 PUSH1 0xE0 SHL SUB NOT DUP2 AND JUMPDEST SUB PUSH2 0xFA JUMPI JUMP JUMPDEST PUSH1 0x0 DUP1 REVERT JUMPDEST SWAP1 POP CALLDATALOAD SWAP1 PUSH2 0x10C DUP3 PUSH2 0xE7 JUMP JUMPDEST JUMP JUMPDEST SWAP1 PUSH1 0x20 DUP3 DUP3 SUB SLT PUSH2 0xFA JUMPI PUSH2 0x122 SWAP2 PUSH2 0xFF JUMP JUMPDEST SWAP1 JUMP JUMPDEST CALLVALUE PUSH2 0xFA JUMPI PUSH2 0x153 PUSH2 0x140 PUSH2 0x13B CALLDATASIZE PUSH1 0x4 PUSH2 0x10E JUMP JUMPDEST PUSH2 0x56C JUMP JUMPDEST PUSH1 0x40 MLOAD JUMPDEST SWAP2 DUP3 SWAP2 DUP3 SWAP1 ISZERO ISZERO DUP2 MSTORE PUSH1 0x20 ADD SWAP1 JUMP JUMPDEST SUB SWAP1 RETURN JUMPDEST PUSH1 0x0 SWAP2 SUB SLT PUSH2 0xFA JUMPI JUMP JUMPDEST PUSH1 0x0 JUMPDEST DUP4 DUP2 LT PUSH2 0x175 JUMPI POP POP PUSH1 0x0 SWAP2 ADD MSTORE JUMP JUMPDEST DUP2 DUP2 ADD MLOAD DUP4 DUP3 ADD MSTORE PUSH1 0x20 ADD PUSH2 0x165 JUMP JUMPDEST PUSH2 0x1A6 PUSH2 0x1AF PUSH1 0x20 SWAP4 PUSH2 0x1B9 SWAP4 PUSH2 0x19A DUP2 MLOAD SWAP1 JUMP JUMPDEST DUP1 DUP4 MSTORE SWAP4 DUP5 SWAP3 PUSH1 0x20 ADD SWAP1 JUMP JUMPDEST SWAP6 DUP7 SWAP2 ADD PUSH2 0x162 JUMP JUMPDEST PUSH1 0x1F ADD PUSH1 0x1F NOT AND SWAP1 JUMP JUMPDEST ADD SWAP1 JUMP JUMPDEST PUSH1 0x20 DUP1 DUP3 MSTORE PUSH2 0x122 SWAP3 SWAP2 ADD SWAP1 PUSH2 0x185 JUMP JUMPDEST CALLVALUE PUSH2 0xFA JUMPI PUSH2 0x1DE CALLDATASIZE PUSH1 0x4 PUSH2 0x157 JUMP JUMPDEST PUSH2 0x153 PUSH2 0x1E9 PUSH2 0x829 JUMP JUMPDEST PUSH1 0x40 MLOAD SWAP2 DUP3 SWAP2 DUP3 PUSH2 0x1BD JUMP JUMPDEST DUP1 PUSH2 0xF3 JUMP JUMPDEST SWAP1 POP CALLDATALOAD SWAP1 PUSH2 0x10C DUP3 PUSH2 0x1F5 JUMP JUMPDEST SWAP1 PUSH1 0x20 DUP3 DUP3 SUB SLT PUSH2 0xFA JUMPI PUSH2 0x122 SWAP2 PUSH2 0x1FB JUMP JUMPDEST PUSH1 0x1 PUSH1 0x1 PUSH1 0xA0 SHL SUB AND SWAP1 JUMP JUMPDEST CALLVALUE PUSH2 0xFA JUMPI PUSH2 0x153 PUSH2 0x243 PUSH2 0x23E CALLDATASIZE PUSH1 0x4 PUSH2 0x208 JUMP JUMPDEST PUSH2 0xA5C JUMP JUMPDEST PUSH1 0x40 MLOAD SWAP2 DUP3 SWAP2 DUP3 PUSH1 0x1 PUSH1 0x1 PUSH1 0xA0 SHL SUB SWAP1 SWAP2 AND DUP2 MSTORE PUSH1 0x20 ADD SWAP1 JUMP JUMPDEST PUSH1 0x1 PUSH1 0x1 PUSH1 0xA0 SHL SUB DUP2 AND PUSH2 0xF3 JUMP JUMPDEST SWAP1 POP CALLDATALOAD SWAP1 PUSH2 0x10C DUP3 PUSH2 0x25D JUMP JUMPDEST SWAP2 SWAP1 PUSH1 0x40 DUP4 DUP3 SUB SLT PUSH2 0xFA JUMPI PUSH2 0x122 SWAP1 PUSH2 0x293 DUP2 DUP6 PUSH2 0x26C JUMP JUMPDEST SWAP4 PUSH1 0x20 ADD PUSH2 0x1FB JUMP JUMPDEST CALLVALUE PUSH2 0xFA JUMPI PUSH2 0x2B5 PUSH2 0x2AF CALLDATASIZE PUSH1 0x4 PUSH2 0x279 JUMP JUMPDEST SWAP1 PUSH2 0x9DE JUMP JUMPDEST PUSH1 0x40 MLOAD STOP JUMPDEST SWAP1 SWAP2 PUSH1 0x60 DUP3 DUP5 SUB SLT PUSH2 0xFA JUMPI PUSH2 0x122 PUSH2 0x2D3 DUP5 DUP5 PUSH2 0x26C JUMP JUMPDEST SWAP4 PUSH2 0x2E1 DUP2 PUSH1 0x20 DUP7 ADD PUSH2 0x26C JUMP JUMPDEST SWAP4 PUSH1 0x40 ADD PUSH2 0x1FB JUMP JUMPDEST CALLVALUE PUSH2 0xFA JUMPI PUSH2 0x2B5 PUSH2 0x2FD CALLDATASIZE PUSH1 0x4 PUSH2 0x2BA JUMP JUMPDEST SWAP2 PUSH2 0xB15 JUMP JUMPDEST CALLVALUE PUSH2 0xFA JUMPI PUSH2 0x2B5 PUSH2 0x316 CALLDATASIZE PUSH1 0x4 PUSH2 0x2BA JUMP JUMPDEST SWAP2 PUSH2 0xB32 JUMP JUMPDEST CALLVALUE PUSH2 0xFA JUMPI PUSH2 0x153 PUSH2 0x243 PUSH2 0x332 CALLDATASIZE PUSH1 0x4 PUSH2 0x208 JUMP JUMPDEST PUSH2 0x703 JUMP JUMPDEST SWAP1 PUSH1 0x20 DUP3 DUP3 SUB SLT PUSH2 0xFA JUMPI PUSH2 0x122 SWAP2 PUSH2 0x26C JUMP JUMPDEST CALLVALUE PUSH2 0xFA JUMPI PUSH2 0x153 PUSH2 0x366 PUSH2 0x361 CALLDATASIZE PUSH1 0x4 PUSH2 0x337 JUMP JUMPDEST PUSH2 0x67A JUMP JUMPDEST PUSH1 0x40 MLOAD SWAP2 DUP3 SWAP2 DUP3 SWAP1 DUP2 MSTORE PUSH1 0x20 ADD SWAP1 JUMP JUMPDEST CALLVALUE PUSH2 0xFA JUMPI PUSH2 0x386 CALLDATASIZE PUSH1 0x4 PUSH2 0x157 JUMP JUMPDEST PUSH2 0x153 PUSH2 0x1E9 PUSH2 0x833 JUMP JUMPDEST DUP1 ISZERO ISZERO PUSH2 0xF3 JUMP JUMPDEST SWAP1 POP CALLDATALOAD SWAP1 PUSH2 0x10C DUP3 PUSH2 0x391 JUMP JUMPDEST SWAP2 SWAP1 PUSH1 0x40 DUP4 DUP3 SUB SLT PUSH2 0xFA JUMPI PUSH2 0x122 SWAP1 PUSH2 0x3C0 DUP2 DUP6 PUSH2 0x26C JUMP JUMPDEST SWAP4 PUSH1 0x20 ADD PUSH2 0x399 JUMP JUMPDEST CALLVALUE PUSH2 0xFA JUMPI PUSH2 0x2B5 PUSH2 0x3DC CALLDATASIZE PUSH1 0x4 PUSH2 0x3A6 JUMP JUMPDEST SWAP1 PUSH2 0xA81 JUMP JUMPDEST PUSH4 0x4E487B71 PUSH1 0xE0 SHL PUSH1 0x0 MSTORE PUSH1 0x41 PUSH1 0x4 MSTORE PUSH1 0x24 PUSH1 0x0 REVERT JUMPDEST SWAP1 PUSH1 0x1F ADD PUSH1 0x1F NOT AND DUP2 ADD SWAP1 DUP2 LT PUSH8 0xFFFFFFFFFFFFFFFF DUP3 GT OR PUSH2 0x41A JUMPI PUSH1 0x40 MSTORE JUMP JUMPDEST PUSH2 0x3E2 JUMP JUMPDEST SWAP1 PUSH2 0x10C PUSH2 0x42C PUSH1 0x40 MLOAD SWAP1 JUMP JUMPDEST SWAP3 DUP4 PUSH2 0x3F8 JUMP JUMPDEST PUSH8 0xFFFFFFFFFFFFFFFF DUP2 GT PUSH2 0x41A JUMPI PUSH1 0x20 SWAP1 PUSH1 0x1F ADD PUSH1 0x1F NOT AND ADD SWAP1 JUMP JUMPDEST SWAP1 DUP3 PUSH1 0x0 SWAP4 SWAP3 DUP3 CALLDATACOPY ADD MSTORE JUMP JUMPDEST SWAP1 SWAP3 SWAP2 SWAP3 PUSH2 0x471 PUSH2 0x46C DUP3 PUSH2 0x433 JUMP JUMPDEST PUSH2 0x41F JUMP JUMPDEST SWAP4 DUP2 DUP6 MSTORE PUSH1 0x20 DUP6 ADD SWAP1 DUP3 DUP5 ADD GT PUSH2 0xFA JUMPI PUSH2 0x10C SWAP3 PUSH2 0x450 JUMP JUMPDEST SWAP1 DUP1 PUSH1 0x1F DUP4 ADD SLT ISZERO PUSH2 0xFA JUMPI DUP2 PUSH1 0x20 PUSH2 0x122 SWAP4 CALLDATALOAD SWAP2 ADD PUSH2 0x45C JUMP JUMPDEST SWAP1 PUSH1 0x80 DUP3 DUP3 SUB SLT PUSH2 0xFA JUMPI PUSH2 0x4BB DUP2 DUP4 PUSH2 0x26C JUMP JUMPDEST SWAP3 PUSH2 0x4C9 DUP3 PUSH1 0x20 DUP6 ADD PUSH2 0x26C JUMP JUMPDEST SWAP3 PUSH2 0x4D7 DUP4 PUSH1 0x40 DUP4 ADD PUSH2 0x1FB JUMP JUMPDEST SWAP3 PUSH1 0x60 DUP3 ADD CALLDATALOAD PUSH8 0xFFFFFFFFFFFFFFFF DUP2 GT PUSH2 0xFA JUMPI PUSH2 0x122 SWAP3 ADD PUSH2 0x48B JUMP JUMPDEST CALLVALUE PUSH2 0xFA JUMPI PUSH2 0x2B5 PUSH2 0x509 CALLDATASIZE PUSH1 0x4 PUSH2 0x4A6 JUMP JUMPDEST SWAP3 SWAP2 SWAP1 SWAP2 PUSH2 0xB42 JUMP JUMPDEST CALLVALUE PUSH2 0xFA JUMPI PUSH2 0x153 PUSH2 0x1E9 PUSH2 0x528 CALLDATASIZE PUSH1 0x4 PUSH2 0x208 JUMP JUMPDEST PUSH2 0x8A3 JUMP JUMPDEST SWAP2 SWAP1 PUSH1 0x40 DUP4 DUP3 SUB SLT PUSH2 0xFA JUMPI PUSH2 0x122 SWAP1 PUSH2 0x547 DUP2 DUP6 PUSH2 0x26C JUMP JUMPDEST SWAP4 PUSH1 0x20 ADD PUSH2 0x26C JUMP JUMPDEST CALLVALUE PUSH2 0xFA JUMPI PUSH2 0x153 PUSH2 0x140 PUSH2 0x566 CALLDATASIZE PUSH1 0x4 PUSH2 0x52D JUMP JUMPDEST SWAP1 PUSH2 0xA8C JUMP JUMPDEST PUSH4 0x80AC58CD PUSH1 0xE0 SHL PUSH1 0x1 PUSH1 0x1 PUSH1 0xE0 SHL SUB NOT DUP3 AND EQ SWAP1 DUP2 ISZERO PUSH2 0x59C JUMPI JUMPDEST DUP2 ISZERO PUSH2 0x592 JUMPI POP SWAP1 JUMP JUMPDEST PUSH2 0x122 SWAP2 POP PUSH2 0x128A JUMP JUMPDEST PUSH1 0x1 PUSH1 0x1 PUSH1 0xE0 SHL SUB NOT DUP2 AND PUSH4 0x5B5E139F PUSH1 0xE0 SHL EQ SWAP2 POP PUSH2 0x588 JUMP JUMPDEST PUSH2 0x21C PUSH2 0x122 PUSH2 0x122 SWAP3 SWAP1 JUMP JUMPDEST PUSH2 0x122 SWAP1 PUSH2 0x5B7 JUMP JUMPDEST ISZERO PUSH2 0x5D4 JUMPI JUMP JUMPDEST PUSH1 0x40 MLOAD PUSH3 0x461BCD PUSH1 0xE5 SHL DUP2 MSTORE PUSH1 0x20 PUSH1 0x4 DUP3 ADD MSTORE PUSH1 0x29 PUSH1 0x24 DUP3 ADD MSTORE PUSH32 0x4552433732313A2061646472657373207A65726F206973206E6F742061207661 PUSH1 0x44 DUP3 ADD MSTORE PUSH9 0x3634B21037BBB732B9 PUSH1 0xB9 SHL PUSH1 0x64 DUP3 ADD MSTORE PUSH1 0x84 SWAP1 REVERT JUMPDEST PUSH2 0x122 SWAP1 PUSH2 0x21C SWAP1 PUSH1 0x1 PUSH1 0x1 PUSH1 0xA0 SHL SUB AND DUP3 JUMP JUMPDEST PUSH2 0x122 SWAP1 PUSH2 0x62B JUMP JUMPDEST PUSH2 0x122 SWAP1 PUSH2 0x63F JUMP JUMPDEST SWAP1 PUSH2 0x65B SWAP1 PUSH2 0x648 JUMP JUMPDEST PUSH1 0x0 MSTORE PUSH1 0x20 MSTORE PUSH1 0x40 PUSH1 0x0 KECCAK256 SWAP1 JUMP JUMPDEST PUSH2 0x122 SWAP1 DUP2 JUMP JUMPDEST PUSH2 0x122 SWAP1 SLOAD PUSH2 0x669 JUMP JUMPDEST PUSH2 0x6B2 PUSH2 0x122 SWAP2 PUSH2 0x689 PUSH1 0x0 SWAP1 JUMP JUMPDEST POP PUSH2 0x6AB PUSH2 0x69A PUSH2 0x21C PUSH1 0x0 PUSH2 0x5C4 JUMP JUMPDEST PUSH1 0x1 PUSH1 0x1 PUSH1 0xA0 SHL SUB DUP4 AND EQ ISZERO PUSH2 0x5CD JUMP JUMPDEST PUSH1 0x3 PUSH2 0x651 JUMP JUMPDEST PUSH2 0x670 JUMP JUMPDEST ISZERO PUSH2 0x6BE JUMPI JUMP JUMPDEST PUSH1 0x40 MLOAD PUSH3 0x461BCD PUSH1 0xE5 SHL DUP2 MSTORE PUSH1 0x20 PUSH1 0x4 DUP3 ADD MSTORE PUSH1 0x18 PUSH1 0x24 DUP3 ADD MSTORE PUSH32 0x4552433732313A20696E76616C696420746F6B656E2049440000000000000000 PUSH1 0x44 DUP3 ADD MSTORE PUSH1 0x64 SWAP1 REVERT JUMPDEST PUSH2 0x710 SWAP1 PUSH1 0x0 JUMPDEST POP PUSH2 0xBE2 JUMP JUMPDEST PUSH2 0x122 PUSH2 0x720 PUSH2 0x21C PUSH1 0x0 PUSH2 0x5C4 JUMP JUMPDEST PUSH1 0x1 PUSH1 0x1 PUSH1 0xA0 SHL SUB DUP4 AND EQ ISZERO PUSH2 0x6B7 JUMP JUMPDEST PUSH4 0x4E487B71 PUSH1 0xE0 SHL PUSH1 0x0 MSTORE PUSH1 0x22 PUSH1 0x4 MSTORE PUSH1 0x24 PUSH1 0x0 REVERT JUMPDEST SWAP1 PUSH1 0x1 PUSH1 0x2 DUP4 DIV SWAP3 AND DUP1 ISZERO PUSH2 0x767 JUMPI JUMPDEST PUSH1 0x20 DUP4 LT EQ PUSH2 0x762 JUMPI JUMP JUMPDEST PUSH2 0x731 JUMP JUMPDEST SWAP2 PUSH1 0x7F AND SWAP2 PUSH2 0x757 JUMP JUMPDEST DUP1 SLOAD PUSH1 0x0 SWAP4 SWAP3 SWAP2 PUSH2 0x78E PUSH2 0x784 DUP4 PUSH2 0x747 JUMP JUMPDEST DUP1 DUP6 MSTORE SWAP4 PUSH1 0x20 ADD SWAP1 JUMP JUMPDEST SWAP2 PUSH1 0x1 DUP2 AND SWAP1 DUP2 ISZERO PUSH2 0x7E0 JUMPI POP PUSH1 0x1 EQ PUSH2 0x7A7 JUMPI POP POP POP JUMP JUMPDEST PUSH2 0x7BA SWAP2 SWAP3 SWAP4 SWAP5 POP PUSH1 0x0 MSTORE PUSH1 0x20 PUSH1 0x0 KECCAK256 SWAP1 JUMP JUMPDEST SWAP2 PUSH1 0x0 SWAP3 JUMPDEST DUP2 DUP5 LT PUSH2 0x7CC JUMPI POP POP ADD SWAP1 JUMP JUMPDEST DUP1 SLOAD DUP5 DUP5 ADD MSTORE PUSH1 0x20 SWAP1 SWAP4 ADD SWAP3 PUSH1 0x1 ADD PUSH2 0x7BF JUMP JUMPDEST SWAP3 SWAP5 SWAP6 POP POP POP PUSH1 0xFF NOT AND DUP3 MSTORE ISZERO ISZERO PUSH1 0x20 MUL ADD SWAP1 JUMP JUMPDEST SWAP1 PUSH2 0x122 SWAP2 PUSH2 0x771 JUMP JUMPDEST SWAP1 PUSH2 0x10C PUSH2 0x819 SWAP3 PUSH2 0x810 PUSH1 0x40 MLOAD SWAP1 JUMP JUMPDEST SWAP4 DUP5 DUP1 SWAP3 PUSH2 0x7F5 JUMP JUMPDEST SUB DUP4 PUSH2 0x3F8 JUMP JUMPDEST PUSH2 0x122 SWAP1 PUSH2 0x7FF JUMP JUMPDEST PUSH2 0x122 PUSH1 0x0 PUSH2 0x820 JUMP JUMPDEST PUSH2 0x122 PUSH1 0x1 PUSH2 0x820 JUMP JUMPDEST PUSH2 0x122 PUSH2 0x122 PUSH2 0x122 SWAP3 SWAP1 JUMP JUMPDEST SWAP1 PUSH2 0x857 PUSH2 0x46C DUP4 PUSH2 0x433 JUMP JUMPDEST SWAP2 DUP3 MSTORE JUMP JUMPDEST PUSH2 0x122 PUSH1 0x0 PUSH2 0x84A JUMP JUMPDEST PUSH2 0x122 PUSH2 0x85C JUMP JUMPDEST PUSH2 0x1B9 PUSH2 0x886 SWAP3 PUSH1 0x20 SWAP3 PUSH2 0x880 DUP2 MLOAD SWAP1 JUMP JUMPDEST SWAP5 DUP6 SWAP3 SWAP1 JUMP JUMPDEST SWAP4 DUP5 SWAP2 ADD PUSH2 0x162 JUMP JUMPDEST PUSH2 0x89D SWAP1 PUSH2 0x122 SWAP4 SWAP3 PUSH2 0x86E JUMP JUMPDEST SWAP1 PUSH2 0x86E JUMP JUMPDEST PUSH2 0x8AC DUP2 PUSH2 0xFFF JUMP JUMPDEST PUSH2 0x8B4 PUSH2 0x90E JUMP JUMPDEST DUP1 MLOAD PUSH2 0x8C7 PUSH2 0x8C3 PUSH1 0x0 PUSH2 0x83D JUMP JUMPDEST SWAP2 SWAP1 JUMP JUMPDEST GT ISZERO PUSH2 0x904 JUMPI PUSH2 0x122 PUSH2 0x8F8 SWAP2 PUSH2 0x8E0 PUSH2 0x122 SWAP5 PUSH2 0x11FE JUMP JUMPDEST SWAP1 PUSH2 0x8EA PUSH1 0x40 MLOAD SWAP1 JUMP JUMPDEST SWAP4 DUP5 SWAP3 PUSH1 0x20 DUP5 ADD SWAP3 DUP4 PUSH2 0x88F JUMP JUMPDEST SWAP1 DUP2 SUB DUP3 MSTORE SUB DUP3 PUSH2 0x3F8 JUMP JUMPDEST POP POP PUSH2 0x122 PUSH2 0x866 JUMP JUMPDEST PUSH2 0x122 PUSH2 0x866 JUMP JUMPDEST ISZERO PUSH2 0x91D JUMPI JUMP JUMPDEST PUSH1 0x40 MLOAD PUSH3 0x461BCD PUSH1 0xE5 SHL DUP2 MSTORE PUSH1 0x20 PUSH1 0x4 DUP3 ADD MSTORE PUSH1 0x21 PUSH1 0x24 DUP3 ADD MSTORE PUSH32 0x4552433732313A20617070726F76616C20746F2063757272656E74206F776E65 PUSH1 0x44 DUP3 ADD MSTORE PUSH1 0x39 PUSH1 0xF9 SHL PUSH1 0x64 DUP3 ADD MSTORE PUSH1 0x84 SWAP1 REVERT JUMPDEST ISZERO PUSH2 0x973 JUMPI JUMP JUMPDEST PUSH1 0x40 MLOAD PUSH3 0x461BCD PUSH1 0xE5 SHL DUP2 MSTORE PUSH1 0x20 PUSH1 0x4 DUP3 ADD MSTORE PUSH1 0x3D PUSH1 0x24 DUP3 ADD MSTORE PUSH32 0x4552433732313A20617070726F76652063616C6C6572206973206E6F7420746F PUSH1 0x44 DUP3 ADD MSTORE PUSH32 0x6B656E206F776E6572206F7220617070726F76656420666F7220616C6C000000 PUSH1 0x64 DUP3 ADD MSTORE PUSH1 0x84 SWAP1 REVERT JUMPDEST SWAP1 PUSH2 0x10C SWAP2 PUSH2 0xA29 PUSH2 0x9EF DUP4 PUSH2 0x703 JUMP JUMPDEST PUSH2 0xA0D PUSH1 0x1 PUSH1 0x1 PUSH1 0xA0 SHL SUB DUP3 AND PUSH1 0x1 PUSH1 0x1 PUSH1 0xA0 SHL SUB DUP6 AND EQ ISZERO PUSH2 0x916 JUMP JUMPDEST CALLER PUSH1 0x1 PUSH1 0x1 PUSH1 0xA0 SHL SUB DUP3 AND DUP2 EQ SWAP2 DUP3 ISZERO PUSH2 0xA2E JUMPI JUMPDEST POP POP PUSH2 0x96C JUMP JUMPDEST PUSH2 0xECE JUMP JUMPDEST PUSH2 0xA38 SWAP3 POP PUSH2 0xA8C JUMP JUMPDEST CODESIZE DUP1 PUSH2 0xA22 JUMP JUMPDEST SWAP1 PUSH2 0x65B SWAP1 PUSH2 0x83D JUMP JUMPDEST PUSH2 0x122 SWAP1 PUSH2 0x21C JUMP JUMPDEST PUSH2 0x122 SWAP1 SLOAD PUSH2 0xA49 JUMP JUMPDEST PUSH2 0xA7C PUSH2 0x122 SWAP2 PUSH2 0xA6B PUSH1 0x0 SWAP1 JUMP JUMPDEST POP PUSH2 0xA75 DUP2 PUSH2 0xFFF JUMP JUMPDEST PUSH1 0x4 PUSH2 0xA3F JUMP JUMPDEST PUSH2 0xA52 JUMP JUMPDEST PUSH2 0x10C SWAP2 SWAP1 CALLER PUSH2 0xF84 JUMP JUMPDEST PUSH2 0x122 SWAP2 PUSH2 0xAA7 PUSH2 0xAAC SWAP3 PUSH2 0xA9F PUSH1 0x0 SWAP1 JUMP JUMPDEST POP PUSH1 0x5 PUSH2 0x651 JUMP JUMPDEST PUSH2 0x651 JUMP JUMPDEST SLOAD PUSH1 0xFF AND SWAP1 JUMP JUMPDEST ISZERO PUSH2 0xABA JUMPI JUMP JUMPDEST PUSH1 0x40 MLOAD PUSH3 0x461BCD PUSH1 0xE5 SHL DUP2 MSTORE PUSH1 0x20 PUSH1 0x4 DUP3 ADD MSTORE PUSH1 0x2D PUSH1 0x24 DUP3 ADD MSTORE PUSH32 0x4552433732313A2063616C6C6572206973206E6F7420746F6B656E206F776E65 PUSH1 0x44 DUP3 ADD MSTORE PUSH13 0x1C881BDC88185C1C1C9BDD9959 PUSH1 0x9A SHL PUSH1 0x64 DUP3 ADD MSTORE PUSH1 0x84 SWAP1 REVERT JUMPDEST PUSH2 0x10C SWAP3 SWAP2 SWAP1 PUSH2 0xB2D PUSH2 0xB28 DUP5 CALLER PUSH2 0xBF9 JUMP JUMPDEST PUSH2 0xAB3 JUMP JUMPDEST PUSH2 0xDB1 JUMP JUMPDEST SWAP1 SWAP2 PUSH2 0x10C SWAP3 PUSH2 0xB40 PUSH2 0x866 JUMP JUMPDEST SWAP3 JUMPDEST PUSH2 0x10C SWAP4 SWAP3 SWAP2 SWAP1 PUSH2 0xB56 PUSH2 0xB28 DUP5 CALLER PUSH2 0xBF9 JUMP JUMPDEST PUSH2 0xBC3 JUMP JUMPDEST ISZERO PUSH2 0xB62 JUMPI JUMP JUMPDEST PUSH1 0x40 MLOAD JUMPDEST PUSH3 0x461BCD PUSH1 0xE5 SHL DUP2 MSTORE PUSH1 0x20 PUSH1 0x4 DUP3 ADD MSTORE PUSH1 0x32 PUSH1 0x24 DUP3 ADD MSTORE PUSH32 0x4552433732313A207472616E7366657220746F206E6F6E204552433732315265 PUSH1 0x44 DUP3 ADD MSTORE PUSH18 0x31B2B4BB32B91034B6B83632B6B2B73A32B9 PUSH1 0x71 SHL PUSH1 0x64 DUP3 ADD MSTORE PUSH1 0x84 SWAP1 REVERT JUMPDEST SWAP2 PUSH2 0x10C SWAP4 SWAP2 PUSH2 0xBDD SWAP4 PUSH2 0xBD8 DUP4 DUP4 DUP4 PUSH2 0xDB1 JUMP JUMPDEST PUSH2 0x10A1 JUMP JUMPDEST PUSH2 0xB5B JUMP JUMPDEST PUSH2 0xA7C PUSH2 0x122 SWAP2 PUSH2 0xBF1 PUSH1 0x0 SWAP1 JUMP JUMPDEST POP PUSH1 0x2 PUSH2 0xA3F JUMP JUMPDEST PUSH2 0xC02 DUP3 PUSH2 0x703 JUMP JUMPDEST SWAP2 PUSH1 0x1 PUSH1 0x1 PUSH1 0xA0 SHL SUB DUP4 AND PUSH1 0x1 PUSH1 0x1 PUSH1 0xA0 SHL SUB DUP4 AND EQ SWAP3 DUP4 ISZERO PUSH2 0xC5C JUMPI JUMPDEST POP DUP3 ISZERO PUSH2 0xC2C JUMPI POP POP SWAP1 JUMP JUMPDEST PUSH2 0xC58 SWAP2 SWAP3 POP PUSH2 0xC3E PUSH2 0xC4B SWAP2 PUSH2 0xA5C JUMP JUMPDEST SWAP3 PUSH1 0x1 PUSH1 0x1 PUSH1 0xA0 SHL SUB AND SWAP1 JUMP JUMPDEST SWAP2 PUSH1 0x1 PUSH1 0x1 PUSH1 0xA0 SHL SUB AND SWAP1 JUMP JUMPDEST EQ SWAP1 JUMP JUMPDEST PUSH2 0xC69 SWAP2 SWAP4 POP DUP3 SWAP1 PUSH2 0xA8C JUMP JUMPDEST SWAP2 CODESIZE PUSH2 0xC20 JUMP JUMPDEST ISZERO PUSH2 0xC77 JUMPI JUMP JUMPDEST PUSH1 0x40 MLOAD PUSH3 0x461BCD PUSH1 0xE5 SHL DUP2 MSTORE PUSH1 0x20 PUSH1 0x4 DUP3 ADD MSTORE PUSH1 0x25 PUSH1 0x24 DUP3 ADD MSTORE PUSH32 0x4552433732313A207472616E736665722066726F6D20696E636F727265637420 PUSH1 0x44 DUP3 ADD MSTORE PUSH5 0x37BBB732B9 PUSH1 0xD9 SHL PUSH1 0x64 DUP3 ADD MSTORE PUSH1 0x84 SWAP1 REVERT JUMPDEST ISZERO PUSH2 0xCD1 JUMPI JUMP JUMPDEST PUSH1 0x40 MLOAD PUSH3 0x461BCD PUSH1 0xE5 SHL DUP2 MSTORE PUSH1 0x20 PUSH1 0x4 DUP3 ADD MSTORE PUSH1 0x24 DUP1 DUP3 ADD MSTORE PUSH32 0x4552433732313A207472616E7366657220746F20746865207A65726F20616464 PUSH1 0x44 DUP3 ADD MSTORE PUSH4 0x72657373 PUSH1 0xE0 SHL PUSH1 0x64 DUP3 ADD MSTORE PUSH1 0x84 SWAP1 REVERT JUMPDEST SWAP2 PUSH1 0x1 PUSH1 0x1 PUSH1 0xA0 SHL SUB PUSH1 0x8 SWAP3 SWAP1 SWAP3 MUL SWAP2 DUP3 SHL SWAP2 SHL JUMPDEST SWAP2 DUP2 NOT AND SWAP2 AND OR SWAP1 JUMP JUMPDEST SWAP2 SWAP1 PUSH2 0xD52 PUSH2 0x122 PUSH2 0xD5A SWAP4 PUSH2 0x648 JUMP JUMPDEST SWAP1 DUP4 SLOAD PUSH2 0xD22 JUMP JUMPDEST SWAP1 SSTORE JUMP JUMPDEST PUSH2 0x10C SWAP2 PUSH1 0x0 SWAP2 PUSH2 0xD41 JUMP JUMPDEST SWAP1 PUSH1 0x0 NOT SWAP1 PUSH2 0xD37 JUMP JUMPDEST SWAP1 PUSH2 0xD84 PUSH2 0x122 PUSH2 0xD5A SWAP3 PUSH2 0x83D JUMP JUMPDEST DUP3 SLOAD PUSH2 0xD6A JUMP JUMPDEST SWAP1 PUSH1 0x1 PUSH1 0x1 PUSH1 0xA0 SHL SUB SWAP1 PUSH2 0xD37 JUMP JUMPDEST SWAP1 PUSH2 0xDAA PUSH2 0x122 PUSH2 0xD5A SWAP3 PUSH2 0x648 JUMP JUMPDEST DUP3 SLOAD PUSH2 0xD8B JUMP JUMPDEST SWAP2 SWAP1 PUSH2 0xDD7 PUSH2 0xDBF DUP4 PUSH2 0x703 JUMP JUMPDEST PUSH2 0xDD1 PUSH1 0x1 PUSH1 0x1 PUSH1 0xA0 SHL SUB DUP7 AND PUSH2 0xC4B JUMP JUMPDEST EQ PUSH2 0xC70 JUMP JUMPDEST PUSH2 0xE2A PUSH1 0x0 PUSH2 0xDFC PUSH2 0xDEB PUSH2 0x21C DUP4 PUSH2 0x5C4 JUMP JUMPDEST PUSH1 0x1 PUSH1 0x1 PUSH1 0xA0 SHL SUB DUP6 AND EQ ISZERO PUSH2 0xCCA JUMP JUMPDEST PUSH2 0xE1A PUSH2 0xE08 DUP6 PUSH2 0x703 JUMP JUMPDEST PUSH2 0xDD1 PUSH1 0x1 PUSH1 0x1 PUSH1 0xA0 SHL SUB DUP9 AND PUSH2 0xC4B JUMP JUMPDEST PUSH2 0xE25 DUP5 PUSH1 0x4 PUSH2 0xA3F JUMP JUMPDEST PUSH2 0xD5E JUMP JUMPDEST PUSH2 0xE6E PUSH2 0xE37 PUSH1 0x1 PUSH2 0x83D JUMP JUMPDEST PUSH2 0xE5E PUSH2 0xE64 DUP5 PUSH1 0x3 PUSH2 0xAA7 PUSH2 0xE4D DUP11 DUP4 PUSH2 0x651 JUMP JUMPDEST PUSH2 0xE5E DUP8 PUSH2 0xE5A DUP4 PUSH2 0x670 JUMP JUMPDEST SUB SWAP1 JUMP JUMPDEST SWAP1 PUSH2 0xD74 JUMP JUMPDEST SWAP2 PUSH2 0x1B9 DUP4 PUSH2 0x670 JUMP JUMPDEST PUSH2 0xE82 DUP2 PUSH2 0xE7D DUP5 PUSH1 0x2 PUSH2 0xA3F JUMP JUMPDEST PUSH2 0xD9A JUMP JUMPDEST PUSH2 0xEBE PUSH2 0xEB8 PUSH2 0xEB2 PUSH32 0xDDF252AD1BE2C89B69C2B068FC378DAA952BA7F163C4A11628F55A4DF523B3EF SWAP6 PUSH2 0x648 JUMP JUMPDEST SWAP3 PUSH2 0x648 JUMP JUMPDEST SWAP3 PUSH2 0x83D JUMP JUMPDEST SWAP3 PUSH2 0xEC8 PUSH1 0x40 MLOAD SWAP1 JUMP JUMPDEST PUSH1 0x0 SWAP1 LOG4 JUMP JUMPDEST SWAP1 PUSH2 0xEDE DUP3 PUSH2 0xE7D DUP4 PUSH1 0x4 PUSH2 0xA3F JUMP JUMPDEST PUSH2 0xEE7 DUP2 PUSH2 0x703 JUMP JUMPDEST SWAP2 PUSH2 0xEBE PUSH2 0xEB8 PUSH2 0xEB2 PUSH32 0x8C5BE1E5EBEC7D5BD14F71427D1E84F3DD0314C0F7B2291E5B200AC8C7C3B925 SWAP6 PUSH2 0x648 JUMP JUMPDEST ISZERO PUSH2 0xF1F JUMPI JUMP JUMPDEST PUSH1 0x40 MLOAD PUSH3 0x461BCD PUSH1 0xE5 SHL DUP2 MSTORE PUSH1 0x20 PUSH1 0x4 DUP3 ADD MSTORE PUSH1 0x19 PUSH1 0x24 DUP3 ADD MSTORE PUSH32 0x4552433732313A20617070726F766520746F2063616C6C657200000000000000 PUSH1 0x44 DUP3 ADD MSTORE PUSH1 0x64 SWAP1 REVERT JUMPDEST SWAP1 PUSH1 0xFF SWAP1 PUSH2 0xD37 JUMP JUMPDEST SWAP1 PUSH2 0xF7D PUSH2 0x122 PUSH2 0xD5A SWAP3 ISZERO ISZERO SWAP1 JUMP JUMPDEST DUP3 SLOAD PUSH2 0xF64 JUMP JUMPDEST PUSH2 0xFA2 PUSH1 0x1 PUSH1 0x1 PUSH1 0xA0 SHL SUB DUP4 AND PUSH1 0x1 PUSH1 0x1 PUSH1 0xA0 SHL SUB DUP4 AND EQ ISZERO PUSH2 0xF18 JUMP JUMPDEST PUSH2 0xFBA DUP4 PUSH2 0xFB5 DUP5 PUSH2 0xAA7 DUP6 PUSH1 0x5 PUSH2 0x651 JUMP JUMPDEST PUSH2 0xF6D JUMP JUMPDEST PUSH2 0xFFA PUSH2 0xFF0 PUSH2 0xFEA PUSH32 0x17307EAB39AB6107E8899845AD3D59BD9653F200F220920489CA2B5937696C31 SWAP4 PUSH2 0x648 JUMP JUMPDEST SWAP4 PUSH2 0x648 JUMP JUMPDEST SWAP4 PUSH2 0x144 PUSH1 0x40 MLOAD SWAP1 JUMP JUMPDEST SUB SWAP1 LOG3 JUMP JUMPDEST PUSH2 0x100B PUSH2 0x10C SWAP2 PUSH2 0x1010 JUMP JUMPDEST PUSH2 0x6B7 JUMP JUMPDEST PUSH2 0x101B SWAP1 PUSH1 0x0 PUSH2 0x70A JUMP JUMPDEST PUSH2 0x102B PUSH2 0xC4B PUSH2 0x21C PUSH1 0x0 PUSH2 0x5C4 JUMP JUMPDEST EQ ISZERO SWAP1 JUMP JUMPDEST SWAP1 POP MLOAD SWAP1 PUSH2 0x10C DUP3 PUSH2 0xE7 JUMP JUMPDEST SWAP1 PUSH1 0x20 DUP3 DUP3 SUB SLT PUSH2 0xFA JUMPI PUSH2 0x122 SWAP2 PUSH2 0x1030 JUMP JUMPDEST PUSH1 0x1 PUSH1 0x1 PUSH1 0xA0 SHL SUB SWAP2 DUP3 AND DUP2 MSTORE SWAP2 AND PUSH1 0x20 DUP3 ADD MSTORE PUSH1 0x40 DUP2 ADD SWAP2 SWAP1 SWAP2 MSTORE PUSH1 0x80 PUSH1 0x60 DUP3 ADD DUP2 SWAP1 MSTORE PUSH2 0x122 SWAP3 SWAP2 ADD SWAP1 PUSH2 0x185 JUMP JUMPDEST RETURNDATASIZE ISZERO PUSH2 0x109C JUMPI PUSH2 0x1091 RETURNDATASIZE PUSH2 0x84A JUMP JUMPDEST SWAP1 RETURNDATASIZE PUSH1 0x0 PUSH1 0x20 DUP5 ADD RETURNDATACOPY JUMP JUMPDEST PUSH1 0x60 SWAP1 JUMP JUMPDEST SWAP2 SWAP1 SWAP4 SWAP3 PUSH2 0x10AD PUSH1 0x0 SWAP1 JUMP JUMPDEST SWAP5 PUSH2 0x10B7 DUP2 PUSH2 0x119F JUMP JUMPDEST ISZERO PUSH2 0x1195 JUMPI SWAP1 PUSH2 0x10FE PUSH1 0x0 PUSH2 0x10D6 PUSH2 0x10D1 PUSH1 0x20 SWAP7 SWAP6 PUSH2 0x648 JUMP JUMPDEST PUSH2 0x648 JUMP JUMPDEST SWAP3 PUSH2 0x1109 PUSH4 0x150B7A02 SWAP2 PUSH2 0x10E7 CALLER SWAP1 JUMP JUMPDEST SWAP7 PUSH2 0x10F1 PUSH1 0x40 MLOAD SWAP1 JUMP JUMPDEST SWAP10 DUP11 SWAP9 DUP10 SWAP8 DUP9 SWAP7 PUSH1 0xE0 SHL SWAP1 JUMP JUMPDEST DUP7 MSTORE PUSH1 0x4 DUP7 ADD PUSH2 0x1051 JUMP JUMPDEST SUB SWAP3 GAS CALL PUSH1 0x0 SWAP2 DUP2 PUSH2 0x1165 JUMPI JUMPDEST POP PUSH2 0x1148 JUMPI POP PUSH2 0x1124 PUSH2 0x1082 JUMP JUMPDEST DUP1 MLOAD PUSH2 0x1133 PUSH2 0x8C3 PUSH1 0x0 PUSH2 0x83D JUMP JUMPDEST SUB PUSH2 0x1140 JUMPI PUSH1 0x40 MLOAD PUSH2 0xB66 JUMP JUMPDEST DUP1 MLOAD SWAP1 PUSH1 0x20 ADD REVERT JUMPDEST SWAP1 SWAP2 POP PUSH2 0xC58 PUSH4 0xA85BD01 PUSH1 0xE1 SHL JUMPDEST SWAP2 PUSH1 0x1 PUSH1 0x1 PUSH1 0xE0 SHL SUB NOT AND SWAP1 JUMP JUMPDEST PUSH2 0x1187 SWAP2 SWAP3 POP PUSH1 0x20 RETURNDATASIZE DUP2 GT PUSH2 0x118E JUMPI JUMPDEST PUSH2 0x117F DUP2 DUP4 PUSH2 0x3F8 JUMP JUMPDEST DUP2 ADD SWAP1 PUSH2 0x103D JUMP JUMPDEST SWAP1 CODESIZE PUSH2 0x1116 JUMP JUMPDEST POP RETURNDATASIZE PUSH2 0x1175 JUMP JUMPDEST POP PUSH1 0x1 SWAP5 POP POP POP POP JUMP JUMPDEST EXTCODESIZE PUSH2 0x11AD PUSH2 0x8C3 PUSH1 0x0 PUSH2 0x83D JUMP JUMPDEST GT SWAP1 JUMP JUMPDEST CALLDATASIZE SWAP1 CALLDATACOPY JUMP JUMPDEST SWAP1 PUSH2 0x10C PUSH2 0x11CC PUSH2 0x11C6 DUP5 PUSH2 0x84A JUMP JUMPDEST SWAP4 PUSH2 0x433 JUMP JUMPDEST PUSH1 0x1F NOT ADD PUSH1 0x20 DUP5 ADD PUSH2 0x11B1 JUMP JUMPDEST PUSH4 0x4E487B71 PUSH1 0xE0 SHL PUSH1 0x0 MSTORE PUSH1 0x12 PUSH1 0x4 MSTORE PUSH1 0x24 PUSH1 0x0 REVERT JUMPDEST DUP2 ISZERO PUSH2 0x11F9 JUMPI DIV SWAP1 JUMP JUMPDEST PUSH2 0x11D9 JUMP JUMPDEST PUSH2 0x1207 DUP2 PUSH2 0x129A JUMP JUMPDEST SWAP1 PUSH2 0x1217 PUSH1 0x1 SWAP3 PUSH2 0x1B9 DUP5 PUSH2 0x83D JUMP JUMPDEST SWAP2 DUP1 PUSH2 0x1222 DUP5 PUSH2 0x11B6 JUMP JUMPDEST SWAP4 PUSH1 0x20 ADD DUP5 ADD SWAP1 JUMPDEST PUSH2 0x1235 JUMPI JUMPDEST POP POP POP SWAP1 JUMP JUMPDEST PUSH2 0x1269 SWAP1 PUSH1 0x0 NOT ADD SWAP3 PUSH16 0x181899199A1A9B1B9C1CB0B131B232B3 PUSH1 0x81 SHL PUSH1 0xA DUP3 MOD BYTE DUP5 MSTORE8 PUSH2 0x1263 PUSH1 0xA PUSH2 0x83D JUMP JUMPDEST SWAP1 PUSH2 0x11EF JUMP JUMPDEST SWAP1 DUP2 PUSH2 0x1278 PUSH2 0x8C3 PUSH1 0x0 PUSH2 0x83D JUMP JUMPDEST EQ PUSH2 0x1285 JUMPI SWAP1 SWAP2 DUP2 PUSH2 0x122A JUMP JUMPDEST PUSH2 0x122F JUMP JUMPDEST PUSH2 0xC58 PUSH4 0x1FFC9A7 PUSH1 0xE0 SHL PUSH2 0x1157 JUMP JUMPDEST PUSH2 0x12A4 PUSH1 0x0 PUSH2 0x83D JUMP JUMPDEST SWAP1 PUSH27 0x184F03E93FF9F4DAA797ED6E38ED64BF6A1F010000000000000000 PUSH2 0x12CA DUP2 PUSH2 0x83D JUMP JUMPDEST DUP3 LT ISZERO PUSH2 0x141C JUMPI JUMPDEST POP PUSH14 0x4EE2D6D415B85ACEF8100000000 PUSH2 0x12EB DUP2 PUSH2 0x83D JUMP JUMPDEST DUP3 LT ISZERO PUSH2 0x13FA JUMPI JUMPDEST POP PUSH7 0x2386F26FC10000 PUSH2 0x1305 DUP2 PUSH2 0x83D JUMP JUMPDEST DUP3 LT ISZERO PUSH2 0x13D8 JUMPI JUMPDEST POP PUSH4 0x5F5E100 PUSH2 0x131C DUP2 PUSH2 0x83D JUMP JUMPDEST DUP3 LT ISZERO PUSH2 0x13B6 JUMPI JUMPDEST POP PUSH2 0x2710 PUSH2 0x1331 DUP2 PUSH2 0x83D JUMP JUMPDEST DUP3 LT ISZERO PUSH2 0x1394 JUMPI JUMPDEST POP PUSH1 0x64 PUSH2 0x1345 DUP2 PUSH2 0x83D JUMP JUMPDEST DUP3 LT ISZERO PUSH2 0x1372 JUMPI JUMPDEST POP PUSH2 0x135B PUSH2 0x8C3 PUSH1 0xA PUSH2 0x83D JUMP JUMPDEST LT ISZERO PUSH2 0x1364 JUMPI SWAP1 JUMP JUMPDEST PUSH2 0x122 SWAP1 PUSH2 0x1B9 PUSH1 0x1 PUSH2 0x83D JUMP JUMPDEST PUSH2 0x138D SWAP2 PUSH2 0x1263 PUSH2 0x1382 SWAP3 PUSH2 0x83D JUMP JUMPDEST SWAP2 PUSH2 0x1B9 PUSH1 0x2 PUSH2 0x83D JUMP JUMPDEST SWAP1 CODESIZE PUSH2 0x134D JUMP JUMPDEST PUSH2 0x13AF SWAP2 PUSH2 0x1263 PUSH2 0x13A4 SWAP3 PUSH2 0x83D JUMP JUMPDEST SWAP2 PUSH2 0x1B9 PUSH1 0x4 PUSH2 0x83D JUMP JUMPDEST SWAP1 CODESIZE PUSH2 0x1339 JUMP JUMPDEST PUSH2 0x13D1 SWAP2 PUSH2 0x1263 PUSH2 0x13C6 SWAP3 PUSH2 0x83D JUMP JUMPDEST SWAP2 PUSH2 0x1B9 PUSH1 0x8 PUSH2 0x83D JUMP JUMPDEST SWAP1 CODESIZE PUSH2 0x1324 JUMP JUMPDEST PUSH2 0x13F3 SWAP2 PUSH2 0x1263 PUSH2 0x13E8 SWAP3 PUSH2 0x83D JUMP JUMPDEST SWAP2 PUSH2 0x1B9 PUSH1 0x10 PUSH2 0x83D JUMP JUMPDEST SWAP1 CODESIZE PUSH2 0x130D JUMP JUMPDEST PUSH2 0x1415 SWAP2 PUSH2 0x1263 PUSH2 0x140A SWAP3 PUSH2 0x83D JUMP JUMPDEST SWAP2 PUSH2 0x1B9 PUSH1 0x20 PUSH2 0x83D JUMP JUMPDEST SWAP1 CODESIZE PUSH2 0x12F3 JUMP JUMPDEST PUSH2 0x1437 SWAP2 PUSH2 0x1263 PUSH2 0x142C SWAP3 PUSH2 0x83D JUMP JUMPDEST SWAP2 PUSH2 0x1B9 PUSH1 0x40 PUSH2 0x83D JUMP JUMPDEST SWAP1 CODESIZE PUSH2 0x12D2 JUMP INVALID LOG2 PUSH5 0x6970667358 0x22 SLT KECCAK256 EXP 0xED 0x2A CALL MOD 0x2A 0xAE 0xC5 0xE2 CHAINID 0x4F 0xFB BLOCKHASH 0xE9 DUP11 JUMPDEST 0xD2 0xBA CREATE2 0xB2 0xAE 0xDD 0xAC BALANCE DUP11 CALLVALUE PUSH19 0xF5BD9B9FE064736F6C63430008130033000000 "},"methodIdentifiers":{"approve(address,uint256)":"095ea7b3","balanceOf(address)":"70a08231","getApproved(uint256)":"081812fc","isApprovedForAll(address,address)":"e985e9c5","name()":"06fdde03","ownerOf(uint256)":"6352211e","safeTransferFrom(address,address,uint256)":"42842e0e","safeTransferFrom(address,address,uint256,bytes)":"b88d4fde","setApprovalForAll(address,bool)":"a22cb465","supportsInterface(bytes4)":"01ffc9a7","symbol()":"95d89b41","tokenURI(uint256)":"c87b56dd","transferFrom(address,address,uint256)":"23b872dd"}}}}}