{"contracts/CreatorsNFT.sol":{"CreatorsNFT":{"abi":[{"inputs":[],"stateMutability":"nonpayable","type":"constructor"},{"anonymous":false,"inputs":[{"indexed":true,"internalType":"address","name":"owner","type":"address"},{"indexed":true,"internalType":"address","name":"approved","type":"address"},{"indexed":true,"internalType":"uint256","name":"tokenId","type":"uint256"}],"name":"Approval","type":"event"},{"anonymous":false,"inputs":[{"indexed":true,"internalType":"address","name":"owner","type":"address"},{"indexed":true,"internalType":"address","name":"operator","type":"address"},{"indexed":false,"internalType":"bool","name":"approved","type":"bool"}],"name":"ApprovalForAll","type":"event"},{"anonymous":false,"inputs":[{"indexed":false,"internalType":"uint256","name":"_fromTokenId","type":"uint256"},{"indexed":false,"internalType":"uint256","name":"_toTokenId","type":"uint256"}],"name":"BatchMetadataUpdate","type":"event"},{"anonymous":false,"inputs":[{"indexed":false,"internalType":"uint256","name":"_tokenId","type":"uint256"}],"name":"MetadataUpdate","type":"event"},{"anonymous":false,"inputs":[{"indexed":true,"internalType":"address","name":"buyer","type":"address"},{"indexed":false,"internalType":"uint256","name":"nftId","type":"uint256"}],"name":"NFTTransferred","type":"event"},{"anonymous":false,"inputs":[{"indexed":true,"internalType":"address","name":"previousOwner","type":"address"},{"indexed":true,"internalType":"address","name":"newOwner","type":"address"}],"name":"OwnershipTransferred","type":"event"},{"anonymous":false,"inputs":[{"indexed":true,"internalType":"address","name":"from","type":"address"},{"indexed":false,"internalType":"uint256","name":"amount","type":"uint256"}],"name":"Received","type":"event"},{"anonymous":false,"inputs":[{"indexed":true,"internalType":"address","name":"sender","type":"address"},{"indexed":false,"internalType":"address","name":"tokenAddress","type":"address"},{"indexed":false,"internalType":"uint256","name":"amountOrTokenId","type":"uint256"}],"name":"Recovered","type":"event"},{"anonymous":false,"inputs":[{"indexed":true,"internalType":"address","name":"from","type":"address"},{"indexed":true,"internalType":"address","name":"to","type":"address"},{"indexed":true,"internalType":"uint256","name":"tokenId","type":"uint256"}],"name":"Transfer","type":"event"},{"stateMutability":"payable","type":"fallback"},{"inputs":[{"internalType":"address","name":"to","type":"address"},{"internalType":"uint256","name":"tokenId","type":"uint256"}],"name":"approve","outputs":[],"stateMutability":"nonpayable","type":"function"},{"inputs":[{"internalType":"address","name":"owner","type":"address"}],"name":"balanceOf","outputs":[{"internalType":"uint256","name":"","type":"uint256"}],"stateMutability":"view","type":"function"},{"inputs":[{"internalType":"uint256","name":"sourceId","type":"uint256"}],"name":"buyNFT","outputs":[],"stateMutability":"nonpayable","type":"function"},{"inputs":[{"internalType":"uint256","name":"tokenId","type":"uint256"}],"name":"getApproved","outputs":[{"internalType":"address","name":"","type":"address"}],"stateMutability":"view","type":"function"},{"inputs":[{"internalType":"address","name":"creator","type":"address"}],"name":"getNFTsByCreator","outputs":[{"internalType":"uint256[]","name":"","type":"uint256[]"}],"stateMutability":"view","type":"function"},{"inputs":[{"internalType":"address","name":"owner","type":"address"},{"internalType":"address","name":"operator","type":"address"}],"name":"isApprovedForAll","outputs":[{"internalType":"bool","name":"","type":"bool"}],"stateMutability":"view","type":"function"},{"inputs":[],"name":"name","outputs":[{"internalType":"string","name":"","type":"string"}],"stateMutability":"view","type":"function"},{"inputs":[],"name":"nextNFTId","outputs":[{"internalType":"uint256","name":"","type":"uint256"}],"stateMutability":"view","type":"function"},{"inputs":[],"name":"nextSourceId","outputs":[{"internalType":"uint256","name":"","type":"uint256"}],"stateMutability":"view","type":"function"},{"inputs":[{"internalType":"uint256","name":"","type":"uint256"}],"name":"nfts","outputs":[{"internalType":"uint256","name":"tokenId","type":"uint256"},{"internalType":"address","name":"creator","type":"address"},{"internalType":"string","name":"name","type":"string"},{"internalType":"string","name":"description","type":"string"},{"internalType":"string","name":"image","type":"string"},{"internalType":"string","name":"external_url","type":"string"},{"internalType":"uint256","name":"price","type":"uint256"},{"internalType":"enum NFTSource.MediaType","name":"mediaType","type":"uint8"}],"stateMutability":"view","type":"function"},{"inputs":[],"name":"owner","outputs":[{"internalType":"address","name":"","type":"address"}],"stateMutability":"view","type":"function"},{"inputs":[{"internalType":"uint256","name":"tokenId","type":"uint256"}],"name":"ownerOf","outputs":[{"internalType":"address","name":"","type":"address"}],"stateMutability":"view","type":"function"},{"inputs":[],"name":"renounceOwnership","outputs":[],"stateMutability":"nonpayable","type":"function"},{"inputs":[{"internalType":"address","name":"from","type":"address"},{"internalType":"address","name":"to","type":"address"},{"internalType":"uint256","name":"tokenId","type":"uint256"}],"name":"safeTransferFrom","outputs":[],"stateMutability":"nonpayable","type":"function"},{"inputs":[{"internalType":"address","name":"from","type":"address"},{"internalType":"address","name":"to","type":"address"},{"internalType":"uint256","name":"tokenId","type":"uint256"},{"internalType":"bytes","name":"data","type":"bytes"}],"name":"safeTransferFrom","outputs":[],"stateMutability":"nonpayable","type":"function"},{"inputs":[{"internalType":"address","name":"operator","type":"address"},{"internalType":"bool","name":"approved","type":"bool"}],"name":"setApprovalForAll","outputs":[],"stateMutability":"nonpayable","type":"function"},{"inputs":[{"internalType":"address","name":"blockFans","type":"address"}],"name":"setBlockFans","outputs":[],"stateMutability":"nonpayable","type":"function"},{"inputs":[{"internalType":"address","name":"creatorsAddress","type":"address"}],"name":"setCreators","outputs":[],"stateMutability":"nonpayable","type":"function"},{"inputs":[{"internalType":"string","name":"name","type":"string"},{"internalType":"string","name":"description","type":"string"},{"internalType":"string","name":"image","type":"string"},{"internalType":"string","name":"external_url","type":"string"},{"internalType":"uint256","name":"price","type":"uint256"},{"internalType":"uint256","name":"units","type":"uint256"},{"internalType":"enum NFTSource.MediaType","name":"mediaType","type":"uint8"}],"name":"setNFTSource","outputs":[],"stateMutability":"nonpayable","type":"function"},{"inputs":[{"internalType":"bytes4","name":"interfaceId","type":"bytes4"}],"name":"supportsInterface","outputs":[{"internalType":"bool","name":"","type":"bool"}],"stateMutability":"view","type":"function"},{"inputs":[],"name":"symbol","outputs":[{"internalType":"string","name":"","type":"string"}],"stateMutability":"view","type":"function"},{"inputs":[{"internalType":"uint256","name":"index","type":"uint256"}],"name":"tokenByIndex","outputs":[{"internalType":"uint256","name":"","type":"uint256"}],"stateMutability":"view","type":"function"},{"inputs":[{"internalType":"address","name":"owner","type":"address"},{"internalType":"uint256","name":"index","type":"uint256"}],"name":"tokenOfOwnerByIndex","outputs":[{"internalType":"uint256","name":"","type":"uint256"}],"stateMutability":"view","type":"function"},{"inputs":[{"internalType":"uint256","name":"tokenId","type":"uint256"}],"name":"tokenURI","outputs":[{"internalType":"string","name":"","type":"string"}],"stateMutability":"view","type":"function"},{"inputs":[],"name":"totalSupply","outputs":[{"internalType":"uint256","name":"","type":"uint256"}],"stateMutability":"view","type":"function"},{"inputs":[{"internalType":"address","name":"from","type":"address"},{"internalType":"address","name":"to","type":"address"},{"internalType":"uint256","name":"tokenId","type":"uint256"}],"name":"transferFrom","outputs":[],"stateMutability":"nonpayable","type":"function"},{"inputs":[{"internalType":"address","name":"newOwner","type":"address"}],"name":"transferOwnership","outputs":[],"stateMutability":"nonpayable","type":"function"},{"inputs":[{"internalType":"address","name":"tokenAddress","type":"address"},{"internalType":"uint256","name":"amountOrTokenId","type":"uint256"}],"name":"withdraw","outputs":[],"stateMutability":"nonpayable","type":"function"},{"stateMutability":"payable","type":"receive"}],"evm":{"bytecode":{"linkReferences":{},"object":"608060405234620000265762000014620001cf565b60405161339d62000500823961339d90f35b600080fd5b634e487b7160e01b600052604160045260246000fd5b90601f01601f191681019081106001600160401b038211176200006357604052565b6200002b565b90620000806200007860405190565b928362000041565b565b6001600160401b0381116200006357602090601f01601f19160190565b90620000b5620000af8362000082565b62000069565b918252565b620000c6600c6200009f565b6b109b1bd8dad9985b9cd3919560a21b602082015290565b620000e8620000ba565b90565b620000f760036200009f565b6221232760e91b602082015290565b620000e8620000eb565b90600019905b9181191691161790565b620000e8620000e8620000e89290565b9062000144620000e86200014c9262000120565b825462000110565b9055565b62000160620000e8620000e89290565b6001600160a01b031690565b620000e89062000150565b620000e89062000160906001600160a01b031682565b620000e89062000177565b620000e8906200018d565b906001600160a01b039062000116565b90620001c7620000e86200014c9262000198565b8254620001a3565b620001ee620001dd620000de565b620001e762000106565b9062000259565b6200020960016200020181600f62000130565b601062000130565b62000080620002516200021d60006200016c565b620002346200022c8262000198565b600e620001b3565b6200024b620002438262000198565b600c620001b3565b62000198565b600d620001b3565b6200008091620002699162000274565b62000080336200049d565b620000809182918291906200046c565b634e487b7160e01b600052602260045260246000fd5b9060016002830492168015620002bd575b6020831014620002b757565b62000284565b91607f1691620002ab565b9160001960089290920291821b911b62000116565b9190620002f2620000e86200014c9362000120565b908354620002c8565b6200008091600091620002dd565b81811062000315575050565b80620003256000600193620002fb565b0162000309565b9190601f81116200033c57505050565b620003506200008093600052602060002090565b906020601f84018190048301931062000374575b6020601f90910104019062000309565b909150819062000364565b9062000389815190565b906001600160401b0382116200006357620003b182620003aa85546200029a565b856200032c565b602090601f8311600114620003f0576200014c929160009183620003e4575b5050600019600883021c1916906002021790565b015190503880620003d0565b601f198316916200040685600052602060002090565b9260005b81811062000447575091600293918560019694106200042d575b50505002019055565b01516000196008601f8516021c1916905538808062000424565b919360206001819287870151815501950192016200040a565b9062000080916200037f565b906200047e6200008092600062000460565b600162000460565b620000e89062000160565b620000e8905462000486565b620004a9600b62000491565b90620004b781600b620001b3565b620004ee620004e77f8be0079c531659141344cd1fd0a4f28419497f9722a3daafe3b4186f6b6457e09362000198565b9162000198565b91620004f960405190565b600090a356fe60806040526004361015610026575b361561001e5761001c611945565b005b61001c611945565b60003560e01c806301ffc9a7146101e657806306fdde03146101e1578063081812fc146101dc578063095ea7b3146101d757806318160ddd146101d257806323b872dd146101cd578063265aa621146101c85780632f745c59146101c357806342842e0e146101be5780634f6ccce7146101b957806351ed8288146101b45780636352211e146101af57806370a08231146101aa578063715018a6146101a55780638da5cb5b146101a0578063926061f01461019b57806395d89b4114610196578063a22cb46514610191578063abd481991461018c578063b88d4fde14610187578063ba908b4514610182578063c87b56dd1461017d578063c909adc014610178578063e985e9c514610173578063f2fde38b1461016e578063f3fef3a314610169578063fa3157d5146101645763ffa038210361000e57610be2565b610b63565b610b4a565b610b32565b610b16565b610ad8565b610ab1565b610a99565b610a7d565b610a0e565b6108a5565b610852565b610837565b6107f0565b6107d8565b6107bd565b61078e565b610776565b61075b565b610742565b610726565b6106ef565b61041f565b6103c2565b6103a4565b610330565b6102d6565b61022d565b6001600160e01b031981165b036101fe57565b600080fd5b90503590610210826101eb565b565b906020828203126101fe5761022691610203565b90565b9052565b346101fe5761025b610248610243366004610212565b611982565b6040515b91829182901515815260200190565b0390f35b60009103126101fe57565b60005b83811061027d5750506000910152565b818101518382015260200161026d565b6102ae6102b76020936102c1936102a2815190565b80835293849260200190565b9586910161026a565b601f01601f191690565b0190565b60208082526102269291019061028d565b346101fe576102e636600461025f565b61025b6102f1610f46565b604051918291826102c5565b806101f7565b90503590610210826102fd565b906020828203126101fe5761022691610303565b6001600160a01b031690565b346101fe5761025b61034b610346366004610310565b611083565b604051918291826001600160a01b03909116815260200190565b6001600160a01b0381166101f7565b9050359061021082610365565b91906040838203126101fe576102269061039b8185610374565b93602001610303565b346101fe576103bd6103b7366004610381565b90611022565b604051005b346101fe576103d236600461025f565b61025b6103de60095490565b6040515b9182918290815260200190565b90916060828403126101fe576102266104088484610374565b936104168160208601610374565b93604001610303565b346101fe576103bd6104323660046103ef565b91611142565b6102266102266102269290565b9061044f90610438565b600052602052604060002090565b6102269081565b610226905461045d565b634e487b7160e01b600052602260045260246000fd5b90600160028304921680156104a4575b602083101461049f57565b61046e565b91607f1691610494565b805460009392916104cb6104c183610484565b8085529360200190565b916001811690811561051d57506001146104e457505050565b6104f79192939450600052602060002090565b916000925b8184106105095750500190565b8054848401526020909301926001016104fc565b92949550505060ff1916825215156020020190565b90610226916104ae565b634e487b7160e01b600052604160045260246000fd5b90601f01601f1916810190811067ffffffffffffffff82111761057457604052565b61053c565b906102106105939261058a60405190565b93848092610532565b0383610552565b610226905b60ff1690565b610226905461059a565b6105ba906014610445565b906105c482610464565b916105d960018201546001600160a01b031690565b916105e660028301610579565b916105f360038201610579565b9161060060048301610579565b9161060d60058201610579565b91610226600761061f60068501610464565b93016105a5565b634e487b7160e01b600052602160045260246000fd5b6006111561064657565b610626565b906102108261063c565b6102269061064b565b61022990610655565b9360e0956106c46106d2926106b6886106e8986102109d9f9e9c976106e0996106996106a99260006101008701960152565b6001600160a01b031660208d0152565b8a820360408c015261028d565b9088820360608a015261028d565b90868203608088015261028d565b9084820360a086015261028d565b9660c0830152565b019061065e565b346101fe5761025b61070a610705366004610310565b6105af565b9461071d98969894919493929360405190565b98899889610667565b346101fe5761025b6103de61073c366004610381565b9061182b565b346101fe576103bd6107553660046103ef565b91611183565b346101fe5761025b6103de610771366004610310565b611900565b346101fe576103bd610789366004610310565b61278f565b346101fe5761025b61034b6107a4366004610310565b610f0f565b906020828203126101fe5761022691610374565b346101fe5761025b6103de6107d33660046107a9565b610e86565b346101fe576107e836600461025f565b6103bd610c41565b346101fe5761080036600461025f565b61025b61034b600b546001600160a01b031690565b610226916008021c81565b906102269154610815565b6102266000600f610820565b346101fe5761084736600461025f565b61025b6103de61082b565b346101fe5761086236600461025f565b61025b6102f1610f50565b8015156101f7565b905035906102108261086d565b91906040838203126101fe576102269061089c8185610374565b93602001610875565b346101fe576103bd6108b8366004610882565b906110b0565b906102106108cb60405190565b9283610552565b67ffffffffffffffff811161057457602090601f01601f19160190565b90826000939282370152565b9092919261091061090b826108d2565b6108be565b938185526020850190828401116101fe57610210926108ef565b9080601f830112156101fe57816020610226933591016108fb565b600611156101fe57565b9050359061021082610945565b60e0818303126101fe57803567ffffffffffffffff81116101fe578261098391830161092a565b92602082013567ffffffffffffffff81116101fe57836109a491840161092a565b92604083013567ffffffffffffffff81116101fe57816109c591850161092a565b92606081013567ffffffffffffffff81116101fe57826109e691830161092a565b926102266109f78460808501610303565b93610a058160a08601610303565b9360c00161094f565b346101fe576103bd610a2136600461095c565b9594909493919361241f565b906080828203126101fe57610a428183610374565b92610a508260208501610374565b92610a5e8360408301610303565b92606082013567ffffffffffffffff81116101fe57610226920161092a565b346101fe576103bd610a90366004610a2d565b92919091611193565b346101fe576103bd610aac3660046107a9565b612135565b346101fe5761025b6102f1610ac7366004610310565b611a56565b61022660006010610820565b346101fe57610ae836600461025f565b61025b6103de610acc565b91906040838203126101fe5761022690610b0d8185610374565b93602001610374565b346101fe5761025b610248610b2c366004610af3565b906110bb565b346101fe576103bd610b453660046107a9565b610d62565b346101fe576103bd610b5d366004610381565b9061335d565b346101fe576103bd610b763660046107a9565b61215d565b90610b9b610b94610b8a845190565b8084529260200190565b9260200190565b9060005b818110610bac5750505090565b909192610bc9610bc26001928651815260200190565b9460200190565b929101610b9f565b602080825261022692910190610b7b565b346101fe5761025b610bfd610bf83660046107a9565b612555565b60405191829182610bd1565b610c11610c9d565b610210610c2f565b6103246102266102269290565b61022690610c19565b610210610c3c6000610c26565b610dc1565b610210610c09565b15610c5057565b60405162461bcd60e51b815280610c99600482016020808252818101527f4f776e61626c653a2063616c6c6572206973206e6f7420746865206f776e6572604082015260600190565b0390fd5b610210610cb2600b546001600160a01b031690565b610ccb610cbe33610324565b916001600160a01b031690565b14610c49565b61021090610cdd610c9d565b610d3d565b15610ce957565b60405162461bcd60e51b815260206004820152602660248201527f4f776e61626c653a206e6577206f776e657220697320746865207a65726f206160448201526564647265737360d01b6064820152608490fd5b61021090610c3c610d516103246000610c26565b6001600160a01b0383161415610ce2565b61021090610cd1565b906001600160a01b03905b9181191691161790565b61022690610324906001600160a01b031682565b61022690610d80565b61022690610d94565b90610db6610226610dbd92610d9d565b8254610d6b565b9055565b600b546001600160a01b031690610dd981600b610da6565b610e0c610e067f8be0079c531659141344cd1fd0a4f28419497f9722a3daafe3b4186f6b6457e093610d9d565b91610d9d565b91610e1660405190565b80805b0390a3565b15610e2557565b60405162461bcd60e51b815260206004820152602960248201527f4552433732313a2061646472657373207a65726f206973206e6f7420612076616044820152683634b21037bbb732b960b91b6064820152608490fd5b9061044f90610d9d565b610ebe61022691610e95600090565b50610eb7610ea66103246000610c26565b6001600160a01b0383161415610e1e565b6003610e7c565b610464565b15610eca57565b60405162461bcd60e51b815260206004820152601860248201527f4552433732313a20696e76616c696420746f6b656e20494400000000000000006044820152606490fd5b610f1c9060005b50611233565b610226610f2c6103246000610c26565b6001600160a01b0383161415610ec3565b61022690610579565b6102266000610f3d565b6102266001610f3d565b15610f6157565b60405162461bcd60e51b815260206004820152602160248201527f4552433732313a20617070726f76616c20746f2063757272656e74206f776e656044820152603960f91b6064820152608490fd5b15610fb757565b60405162461bcd60e51b815260206004820152603d60248201527f4552433732313a20617070726f76652063616c6c6572206973206e6f7420746f60448201527f6b656e206f776e6572206f7220617070726f76656420666f7220616c6c0000006064820152608490fd5b906102109161106d61103383610f0f565b6110516001600160a01b0382166001600160a01b0385161415610f5a565b336001600160a01b0382168114918215611072575b5050610fb0565b6114ef565b61107c92506110bb565b3880611066565b6110a361022691611092600090565b5061109c8161161b565b6004610445565b546001600160a01b031690565b6102109190336115a5565b610226916110d66110db926110ce600090565b506005610e7c565b610e7c565b6105a5565b156110e757565b60405162461bcd60e51b815260206004820152602d60248201527f4552433732313a2063616c6c6572206973206e6f7420746f6b656e206f776e6560448201526c1c881bdc88185c1c1c9bdd9959609a1b6064820152608490fd5b61021092919061115a611155843361124a565b6110e0565b6113c5565b9061116c61090b836108d2565b918252565b610226600061115f565b610226611171565b90916102109261119161117b565b925b610210939291906111a7611155843361124a565b611214565b156111b357565b6040515b62461bcd60e51b815260206004820152603260248201527f4552433732313a207472616e7366657220746f206e6f6e20455243373231526560448201527131b2b4bb32b91034b6b83632b6b2b73a32b960711b6064820152608490fd5b91610210939161122e936112298383836113c5565b6116c9565b6111ac565b6110a361022691611242600090565b506002610445565b61125382610f0f565b916001600160a01b0383166001600160a01b038316149283156112a0575b50821561127d57505090565b61129c91925061128f610cbe91611083565b926001600160a01b031690565b1490565b6112ad91935082906110bb565b9138611271565b156112bb57565b60405162461bcd60e51b815260206004820152602560248201527f4552433732313a207472616e736665722066726f6d20696e636f72726563742060448201526437bbb732b960d91b6064820152608490fd5b1561131557565b60405162461bcd60e51b8152602060048201526024808201527f4552433732313a207472616e7366657220746f20746865207a65726f206164646044820152637265737360e01b6064820152608490fd5b916001600160a01b0360089290920291821b911b610d76565b9190611390610226610dbd93610d9d565b908354611366565b6102109160009161137f565b9060001990610d76565b906113be610226610dbd92610438565b82546113a4565b91906113eb6113d383610f0f565b6113e56001600160a01b038616610cbe565b146112b4565b61148f60006114106113ff61032483610c26565b6001600160a01b038516141561130e565b61145861141d6001610438565b9161142a8387878a611df9565b61144861143687610f0f565b6113e56001600160a01b038a16610cbe565b611453866004610445565b611398565b61147f6114858460036110d661146e8a83610e7c565b61147f8761147b83610464565b0390565b906113ae565b916102c183610464565b6114a38161149e846002610445565b610da6565b6114df6114d96114d37fddf252ad1be2c89b69c2b068fc378daa952ba7f163c4a11628f55a4df523b3ef95610d9d565b92610d9d565b92610438565b926114e960405190565b600090a4565b906114ff8261149e836004610445565b61150881610f0f565b916114df6114d96114d37f8c5be1e5ebec7d5bd14f71427d1e84f3dd0314c0f7b2291e5b200ac8c7c3b92595610d9d565b1561154057565b60405162461bcd60e51b815260206004820152601960248201527f4552433732313a20617070726f766520746f2063616c6c6572000000000000006044820152606490fd5b9060ff90610d76565b9061159e610226610dbd92151590565b8254611585565b6115c36001600160a01b0383166001600160a01b0383161415611539565b6115db836115d6846110d6856005610e7c565b61158e565b610e1961161161160b7f17307eab39ab6107e8899845ad3d59bd9653f200f220920489ca2b5937696c3193610d9d565b93610d9d565b9361024c60405190565b6116276102109161162c565b610ec3565b611637906000610f16565b611647610cbe6103246000610c26565b141590565b90505190610210826101eb565b906020828203126101fe576102269161164c565b6001600160a01b0391821681529116602082015260408101919091526080606082018190526102269291019061028d565b6040513d6000823e3d90fd5b3d156116c4576116b93d61115f565b903d6000602084013e565b606090565b919093926116d5600090565b946116df81611933565b156117c1579061172660006116fe6116f960209695610d9d565b610d9d565b9261173163150b7a029161170f3390565b9661171960405190565b998a988997889660e01b90565b86526004860161166d565b03925af160009181611791575b50611774575061174c6116aa565b805161175f61175b6000610438565b9190565b0361176c576040516111b7565b805190602001fd5b90915061129c630a85bd0160e11b5b916001600160e01b03191690565b6117b391925060203d81116117ba575b6117ab8183610552565b810190611659565b903861173e565b503d6117a1565b5060019450505050565b156117d257565b60405162461bcd60e51b815260206004820152602b60248201527f455243373231456e756d657261626c653a206f776e657220696e646578206f7560448201526a74206f6620626f756e647360a81b6064820152608490fd5b6102269161185c610ebe9261183e600090565b5061185561184e61022683610e86565b84106117cb565b6007610e7c565b610445565b1561186857565b60405162461bcd60e51b815260206004820152602c60248201527f455243373231456e756d657261626c653a20676c6f62616c20696e646578206f60448201526b7574206f6620626f756e647360a01b6064820152608490fd5b634e487b7160e01b600052603260045260246000fd5b80548210156118fb576118f2600191600052602060002090565b91020190600090565b6118c2565b61192d6102269161190f600090565b5061192661191f61022660095490565b8210611861565b60096118d8565b90610820565b3b61194161175b6000610438565b1190565b347f88a5966d370b9919b20f3e2c13ff65706f196a4e32cc2c12bf57088f8852587461197d61197333610d9d565b926103e260405190565b0390a2565b6102269063780e9d6360e01b6001600160e01b03198216149081156119a5575090565b61022691506119cf565b6119c26119bc6102269290565b60e01b90565b6001600160e01b03191690565b6119df6119c263490649066119af565b6001600160e01b03198216149081156119f6575090565b61022691506380ac58cd60e01b6001600160e01b0319821614908115611a2b575b8115611a21575090565b6102269150611a46565b6001600160e01b03198116635b5e139f60e01b149150611a17565b61129c6301ffc9a760e01b611783565b61022690611a94565b6102c1611a7792602092611a71815190565b94859290565b9384910161026a565b611a8e906102269392611a5f565b90611a5f565b611a9d8161161b565b611ab0611aab826006610445565b610f3d565b611ab8611b70565b8051600090611ac961175b83610438565b14611b1c57611adc61175b6114d9855190565b11611aec57505061022690611b23565b6102269250611b109161022691611b0260405190565b938492602084019283611a80565b90810382520382610552565b5050905090565b611b2c8161161b565b611b34611b70565b8051611b4361175b6000610438565b1115611b6657610226611b1091611b5c61022694611bc9565b90611b0260405190565b505061022661117b565b60605b5061022661117b565b369037565b90610210611b97611b918461115f565b936108d2565b601f190160208401611b7c565b634e487b7160e01b600052601260045260246000fd5b8115611bc4570490565b611ba4565b611bd281611c55565b90611be26001926102c184610438565b9180611bed84611b81565b936020018401905b611c00575b50505090565b611c349060001901926f181899199a1a9b1b9c1cb0b131b232b360811b600a82061a8453611c2e600a610438565b90611bba565b9081611c4361175b6000610438565b14611c5057909181611bf5565b611bfa565b611c5f6000610438565b907a184f03e93ff9f4daa797ed6e38ed64bf6a1f010000000000000000611c8581610438565b821015611dd7575b506d04ee2d6d415b85acef8100000000611ca681610438565b821015611db5575b50662386f26fc10000611cc081610438565b821015611d93575b506305f5e100611cd781610438565b821015611d71575b50612710611cec81610438565b821015611d4f575b506064611d0081610438565b821015611d2d575b50611d1661175b600a610438565b1015611d1f5790565b610226906102c16001610438565b611d4891611c2e611d3d92610438565b916102c16002610438565b9038611d08565b611d6a91611c2e611d5f92610438565b916102c16004610438565b9038611cf4565b611d8c91611c2e611d8192610438565b916102c16008610438565b9038611cdf565b611dae91611c2e611da392610438565b916102c16010610438565b9038611cc8565b611dd091611c2e611dc592610438565b916102c16020610438565b9038611cae565b611df291611c2e611de792610438565b916102c16040610438565b9038611c8d565b61021093919291611e0d61175b6001610438565b11611ea357611e41611e1f6000610c26565b6001600160a01b0381166001600160a01b03841603611e805761032484611f92565b6001600160a01b03841603611e5b575061021091506120b5565b6001600160a01b03166001600160a01b03831603611e77575050565b61021091611f06565b6001600160a01b0385166001600160a01b03841614610324576103248484611fea565b60405162461bcd60e51b815260206004820152603560248201527f455243373231456e756d657261626c653a20636f6e7365637574697665207472604482015274185b9cd9995c9cc81b9bdd081cdd5c1c1bdc9d1959605a1b6064820152608490fd5b611f2b82611f3061021094611f2b61185c95611f2181610e86565b9687916007610e7c565b6113ae565b6008610445565b9160001960089290920291821b911b610d76565b9190611f5c610226610dbd93610438565b908354611f37565b90815491680100000000000000008310156105745782611f8c916001610210950181556118d8565b90611f4b565b61021090611fb16009610226611fa6825490565b611f2b85600a610445565b611f64565b634e487b7160e01b600052601160045260246000fd5b91908203918211611fd957565b611fb6565b61021091600091611f4b565b6120386102109261185c6000936118558561203861201a61200a85610e86565b6120146001610438565b90611fcc565b95600861202a610ebe8383610445565b88810361203d575b50610445565b611fde565b80611f2b8861206b8c611f2b6120719661185c612063610ebe60079561185c8988610e7c565b958694610e7c565b84610445565b38612032565b634e487b7160e01b600052603160045260246000fd5b805480156120b05760001901906120ad6120a783836118d8565b90611fde565b55565b612077565b6121036102109161022660006120386009936120d261200a865490565b61185c600a91611f2b6120f561192d6120ee610ebe8888610445565b938b6118d8565b61206b81611f8c858d6118d8565b61208d565b61021090612114610c9d565b61212e610210916116f961212782610d9d565b600e610da6565b600c610da6565b61021090612108565b6102109061214a610c9d565b61215661021091610d9d565b600d610da6565b6102109061213e565b6000198114611fd95760010190565b6102266101406108be565b906102299061064b565b6005111561064657565b906102108261218a565b9061022990612194565b8181106121b3575050565b806121c16000600193611fde565b016121a8565b9190601f81116121d657505050565b6121e861021093600052602060002090565b906020601f84018190048301931061220a575b6020601f9091010401906121a8565b90915081906121fb565b9061221d815190565b9067ffffffffffffffff8211610574576122418261223b8554610484565b856121c7565b602090601f831160011461227c57610dbd929160009183612271575b5050600019600883021c1916906002021790565b01519050388061225d565b601f1983169161229185600052602060002090565b9260005b8181106122cf575091600293918560019694106122b6575b50505002019055565b01516000196008601f8516021c191690553880806122ad565b91936020600181928787015181550195019201612295565b9061021091612214565b610226905161064b565b9061159e610226610dbd92610655565b6102269051612194565b9061ff009060081b610d76565b61022690612194565b9061233b610226610dbd92612322565b8254612315565b610210919061240f906101209060089061235e8161147f875190565b61237f6001820161237960208801516001600160a01b031690565b90610da6565b61239760028201612391604088015190565b906122e7565b6123a960038201612391606088015190565b6123bb60048201612391608088015190565b6123cd6005820161239160a088015190565b6123df6006820161147f60c088015190565b6123f16007820161147f60e088015190565b019261240961240361010083016122f1565b856122fb565b0161230b565b9061232b565b9061021091612342565b93959194909295612430600f610464565b9661243a88612166565b61244590600f6113ae565b3396600095612452612175565b9761245d8b898b0152565b6001600160a01b038a1660208a015260408901526060880152608087015260a086015260c085015260e0840152612498906101008401612180565b6124a690610120830161219e565b6124b1836012610445565b906124bb91612415565b6124c6906013610e7c565b9061021091611f64565b906124eb6124df610b8a845490565b92600052602060002090565b9060005b8181106124fc5750505090565b90919261252061251960019261251187610464565b815260200190565b9460010190565b9291016124ef565b90610226916124d0565b906102106105939261254360405190565b93848092612528565b61022690612532565b61256c61022691612564606090565b506013610e7c565b61254c565b6102269060081c61059f565b6102269054612571565b906102106126726008612598612175565b946125a96125a582610464565b8752565b6125d06125c060018301546001600160a01b031690565b6001600160a01b03166020880152565b6125e66125df60028301610579565b6040880152565b6125fc6125f560038301610579565b6060880152565b61261261260b60048301610579565b6080880152565b61262861262160058301610579565b60a0880152565b61263e61263760068301610464565b60c0880152565b61265461264d60078301610464565b60e0880152565b61266c6126628383016105a5565b6101008801612180565b0161257d565b610120840161219e565b61022690612587565b90505190610210826102fd565b906020828203126101fe5761022691612685565b81810292918115918404141715611fd957565b156126c057565b60405162461bcd60e51b8152602060048201526011602482015270105b1b1bddd85b98d9481b9bdd081cd95d607a1b6044820152606490fd5b905051906102108261086d565b906020828203126101fe57610226916126f9565b61022990610d9d565b6001600160a01b03909116815260608101939261021092909160409161274d90602083019061271a565b0152565b1561275857565b60405162461bcd60e51b815260206004820152600f60248201526e151c985b9cd9995c8819985a5b1959608a1b6044820152606490fd5b6127a261279d826012610445565b61267c565b906127e06127bb6116f9600c546001600160a01b031690565b3393602063dd62ed3e6127cd30610d9d565b936127d760405190565b95869260e01b90565b82526001600160a01b0388811660048401528516602483015260449082905afa92831561294457600093612949575b5060c06020910161284b612821825190565b9461284461175b610226670de0b6b3a76400009861283e8a610438565b906126a6565b10156126b9565b6128606116f9600c546001600160a01b031690565b6128ab60006128916323b872dd9761283e61288b612886600e546001600160a01b031690565b975190565b91610438565b966128b761289e60405190565b9889968795869460e01b90565b84528c60048501612723565b03925af180156129445784936128dc6128e1926128e995600091612916575b50612751565b612a31565b9384916113c5565b61197d6119737fdbd06c5b09e89a22b08c07aa17dfc71d3f3741d98ad99285be427c36017340e692610d9d565b612937915060203d811161293d575b61292f8183610552565b810190612706565b386128d6565b503d612925565b61169e565b602091935061296f60c091833d8111612977575b6129678183610552565b810190612692565b93915061280f565b503d61295d565b6102266101006108be565b6102109190612a219060e0906007906129a48161147f875190565b6129bf6001820161237960208801516001600160a01b031690565b6129d160028201612391604088015190565b6129e360038201612391606088015190565b6129f560048201612391608088015190565b612a076005820161239160a088015190565b612a196006820161147f60c088015190565b0192016122f1565b906122fb565b9061021091612989565b612a3c906012610445565b612a459061267c565b612a4f6010610464565b90612a5982612166565b612a649060106113ae565b60208101516001600160a01b0316906040810151906060810151608082015160a08301519160c08401612a95905190565b9361010001612aa3906122f1565b94612aac61297e565b96612ab5898952565b6001600160a01b0316602088015260408701526060860152608085015260a084015260c0830152612ae99060e08301612180565b80612af5836014610445565b90612aff91612a27565b81612b0930610d9d565b90612b1391612bf5565b60208101516001600160a01b031690604081015190606081015160808201519060a08301519260e001612b45906122f1565b93612b4f95612e8b565b6102269082612cd0565b15612b6057565b60405162461bcd60e51b815280610c99600482016020808252818101527f4552433732313a206d696e7420746f20746865207a65726f2061646472657373604082015260600190565b15612bb057565b60405162461bcd60e51b815260206004820152601c60248201527f4552433732313a20746f6b656e20616c7265616479206d696e746564000000006044820152606490fd5b90612c006000610c26565b91612c1f6001600160a01b0384166001600160a01b0383161415612b59565b612c37612c32612c2e8461162c565b1590565b612ba9565b61148f612c446001610438565b612c5081858588611df9565b612c5f612c32612c2e8661162c565b61147f611485846003610e7c565b15612c7457565b60405162461bcd60e51b815260206004820152602e60248201527f45524337323155524953746f726167653a2055524920736574206f66206e6f6e60448201526d32bc34b9ba32b73a103a37b5b2b760911b6064820152608490fd5b90612cf690612ce6612ce18461162c565b612c6d565b612cf1836006610445565b6122e7565b612d247ff8e1a15aba9398e019f0b49df1a4fde98ee17ae345cb5f6b5e2c27f5033e8ce7916103e260405190565b0390a1565b610229906001600160a01b031660601b90565b612d4861022991610655565b60f81b90565b612dd5612e4e96611a8e612e12612dd5600199611a8e612dfd612dd56102269f9c611a8e612de2612dd5612db39f612e479f612e2e9f6014611a8e92612db3612dac612dc1946b3d9131b932b0ba37b9111d1160a11b8152600c0190565b8092612d29565b01601160f91b815260010190565b67113730b6b2911d1160c11b815260080190565b601160f91b815260010190565b6e113232b9b1b934b83a34b7b7111d1160891b8152600f0190565b681134b6b0b3b2911d1160b91b815260090190565b6f1132bc3a32b93730b62fbab936111d1160811b815260100190565b6c1136b2b234b0aa3cb832911d1160991b8152600d0190565b8092612d3c565b607d60f81b815260010190565b7f646174613a6170706c69636174696f6e2f6a736f6e3b6261736536342c00000081526102269190601d01611a8e565b611b1061022696612eba96612eb59596612ea3606090565b50604051978896602088019687612d4e565b612f4c565b610226612ec660405190565b8092611b10602083019182612e5b565b612ee0604061115f565b7f4142434445464748494a4b4c4d4e4f505152535455565758595a61626364656660208201527f6768696a6b6c6d6e6f707172737475767778797a303132333435363738392b2f604082015290565b610226612ed6565b610226612f2f565b91908201809211611fd957565b8051612f5b61175b6000610438565b14611b7357612f68612f37565b906004612f73825190565b906001612fae612fa9612f91600295612f8b87610438565b90612f3f565b93612fa461288b600396611c2e88610438565b6126a6565b611b81565b9401926020850193819082518301915b828110612ff95750505051069081600114612fe95750600214612fdf575090565b6001603d91035390565b905081603d600181940353035390565b84600191979293970191603f828080865194848660121c168901518153018385600c1c16880151815301828460061c168701518153019116840151815301959190612fbe565b906102109161304c610c9d565b6130ea565b6001600160a01b0390911681526040810192916102109160200152565b6001600160a01b039182168152911660208201526060810192916102109160400152565b1561309957565b60405162461bcd60e51b8152602060048201526024808201527f496e73756666696369656e74204554482062616c616e636520696e20636f6e746044820152631c9858dd60e21b6064820152608490fd5b9060006130f961032482610c26565b6001600160a01b038416036131925761311e61311430610d9d565b8390311015613092565b8080808461313a6116f96116f9600b546001600160a01b031690565b828215613189575bf115612944577ffff3b3844276f57024e0b42afec1a37f75db36511e43819a4f2a63ab7862b6489061317333610d9d565b9261197d61318060405190565b92839283613051565b506108fc613142565b8160206131a16116f986610d9d565b63a9059cbb906131d7856131bd600b546001600160a01b031690565b936131e26131ca60405190565b9788968795869460e01b90565b845260048401613051565b03925af19081613341575b50158114613315576132016116f984610d9d565b6342842e0e61320f30610d9d565b600b546001600160a01b031692803b156101fe5761324385809461324e8961323660405190565b9889978896879560e01b90565b85526004850161306e565b03925af190816132e9575b5015146132be5760405162461bcd60e51b815260206004820152603060248201527f546f6b656e2074797065206e6f7420737570706f72746564206f7220696e737560448201526f6666696369656e742062616c616e636560801b6064820152608490fd5b7ffff3b3844276f57024e0b42afec1a37f75db36511e43819a4f2a63ab7862b6489061317333610d9d565b61330890833d851161330e575b6133008183610552565b81019061025f565b38613259565b503d6132f6565b507ffff3b3844276f57024e0b42afec1a37f75db36511e43819a4f2a63ab7862b6489061317333610d9d565b6133589060203d811161293d5761292f8183610552565b6131ed565b906102109161303f56fea26469706673582212203956e46bd3ab5a18d9fd8c5ebf3b7b5971a01ec997a82e51ad2a93b9bdd5c85c64736f6c63430008130033","opcodes":"PUSH1 0x80 PUSH1 0x40 MSTORE CALLVALUE PUSH3 0x26 JUMPI PUSH3 0x14 PUSH3 0x1CF JUMP JUMPDEST PUSH1 0x40 MLOAD PUSH2 0x339D PUSH3 0x500 DUP3 CODECOPY PUSH2 0x339D SWAP1 RETURN JUMPDEST PUSH1 0x0 DUP1 REVERT JUMPDEST PUSH4 0x4E487B71 PUSH1 0xE0 SHL PUSH1 0x0 MSTORE PUSH1 0x41 PUSH1 0x4 MSTORE PUSH1 0x24 PUSH1 0x0 REVERT JUMPDEST SWAP1 PUSH1 0x1F ADD PUSH1 0x1F NOT AND DUP2 ADD SWAP1 DUP2 LT PUSH1 0x1 PUSH1 0x1 PUSH1 0x40 SHL SUB DUP3 GT OR PUSH3 0x63 JUMPI PUSH1 0x40 MSTORE JUMP JUMPDEST PUSH3 0x2B JUMP JUMPDEST SWAP1 PUSH3 0x80 PUSH3 0x78 PUSH1 0x40 MLOAD SWAP1 JUMP JUMPDEST SWAP3 DUP4 PUSH3 0x41 JUMP JUMPDEST JUMP JUMPDEST PUSH1 0x1 PUSH1 0x1 PUSH1 0x40 SHL SUB DUP2 GT PUSH3 0x63 JUMPI PUSH1 0x20 SWAP1 PUSH1 0x1F ADD PUSH1 0x1F NOT AND ADD SWAP1 JUMP JUMPDEST SWAP1 PUSH3 0xB5 PUSH3 0xAF DUP4 PUSH3 0x82 JUMP JUMPDEST PUSH3 0x69 JUMP JUMPDEST SWAP2 DUP3 MSTORE JUMP JUMPDEST PUSH3 0xC6 PUSH1 0xC PUSH3 0x9F JUMP JUMPDEST PUSH12 0x109B1BD8DAD9985B9CD39195 PUSH1 0xA2 SHL PUSH1 0x20 DUP3 ADD MSTORE SWAP1 JUMP JUMPDEST PUSH3 0xE8 PUSH3 0xBA JUMP JUMPDEST SWAP1 JUMP JUMPDEST PUSH3 0xF7 PUSH1 0x3 PUSH3 0x9F JUMP JUMPDEST PUSH3 0x212327 PUSH1 0xE9 SHL PUSH1 0x20 DUP3 ADD MSTORE SWAP1 JUMP JUMPDEST PUSH3 0xE8 PUSH3 0xEB JUMP JUMPDEST SWAP1 PUSH1 0x0 NOT SWAP1 JUMPDEST SWAP2 DUP2 NOT AND SWAP2 AND OR SWAP1 JUMP JUMPDEST PUSH3 0xE8 PUSH3 0xE8 PUSH3 0xE8 SWAP3 SWAP1 JUMP JUMPDEST SWAP1 PUSH3 0x144 PUSH3 0xE8 PUSH3 0x14C SWAP3 PUSH3 0x120 JUMP JUMPDEST DUP3 SLOAD PUSH3 0x110 JUMP JUMPDEST SWAP1 SSTORE JUMP JUMPDEST PUSH3 0x160 PUSH3 0xE8 PUSH3 0xE8 SWAP3 SWAP1 JUMP JUMPDEST PUSH1 0x1 PUSH1 0x1 PUSH1 0xA0 SHL SUB AND SWAP1 JUMP JUMPDEST PUSH3 0xE8 SWAP1 PUSH3 0x150 JUMP JUMPDEST PUSH3 0xE8 SWAP1 PUSH3 0x160 SWAP1 PUSH1 0x1 PUSH1 0x1 PUSH1 0xA0 SHL SUB AND DUP3 JUMP JUMPDEST PUSH3 0xE8 SWAP1 PUSH3 0x177 JUMP JUMPDEST PUSH3 0xE8 SWAP1 PUSH3 0x18D JUMP JUMPDEST SWAP1 PUSH1 0x1 PUSH1 0x1 PUSH1 0xA0 SHL SUB SWAP1 PUSH3 0x116 JUMP JUMPDEST SWAP1 PUSH3 0x1C7 PUSH3 0xE8 PUSH3 0x14C SWAP3 PUSH3 0x198 JUMP JUMPDEST DUP3 SLOAD PUSH3 0x1A3 JUMP JUMPDEST PUSH3 0x1EE PUSH3 0x1DD PUSH3 0xDE JUMP JUMPDEST PUSH3 0x1E7 PUSH3 0x106 JUMP JUMPDEST SWAP1 PUSH3 0x259 JUMP JUMPDEST PUSH3 0x209 PUSH1 0x1 PUSH3 0x201 DUP2 PUSH1 0xF PUSH3 0x130 JUMP JUMPDEST PUSH1 0x10 PUSH3 0x130 JUMP JUMPDEST PUSH3 0x80 PUSH3 0x251 PUSH3 0x21D PUSH1 0x0 PUSH3 0x16C JUMP JUMPDEST PUSH3 0x234 PUSH3 0x22C DUP3 PUSH3 0x198 JUMP JUMPDEST PUSH1 0xE PUSH3 0x1B3 JUMP JUMPDEST PUSH3 0x24B PUSH3 0x243 DUP3 PUSH3 0x198 JUMP JUMPDEST PUSH1 0xC PUSH3 0x1B3 JUMP JUMPDEST PUSH3 0x198 JUMP JUMPDEST PUSH1 0xD PUSH3 0x1B3 JUMP JUMPDEST PUSH3 0x80 SWAP2 PUSH3 0x269 SWAP2 PUSH3 0x274 JUMP JUMPDEST PUSH3 0x80 CALLER PUSH3 0x49D JUMP JUMPDEST PUSH3 0x80 SWAP2 DUP3 SWAP2 DUP3 SWAP2 SWAP1 PUSH3 0x46C JUMP JUMPDEST PUSH4 0x4E487B71 PUSH1 0xE0 SHL PUSH1 0x0 MSTORE PUSH1 0x22 PUSH1 0x4 MSTORE PUSH1 0x24 PUSH1 0x0 REVERT JUMPDEST SWAP1 PUSH1 0x1 PUSH1 0x2 DUP4 DIV SWAP3 AND DUP1 ISZERO PUSH3 0x2BD JUMPI JUMPDEST PUSH1 0x20 DUP4 LT EQ PUSH3 0x2B7 JUMPI JUMP JUMPDEST PUSH3 0x284 JUMP JUMPDEST SWAP2 PUSH1 0x7F AND SWAP2 PUSH3 0x2AB JUMP JUMPDEST SWAP2 PUSH1 0x0 NOT PUSH1 0x8 SWAP3 SWAP1 SWAP3 MUL SWAP2 DUP3 SHL SWAP2 SHL PUSH3 0x116 JUMP JUMPDEST SWAP2 SWAP1 PUSH3 0x2F2 PUSH3 0xE8 PUSH3 0x14C SWAP4 PUSH3 0x120 JUMP JUMPDEST SWAP1 DUP4 SLOAD PUSH3 0x2C8 JUMP JUMPDEST PUSH3 0x80 SWAP2 PUSH1 0x0 SWAP2 PUSH3 0x2DD JUMP JUMPDEST DUP2 DUP2 LT PUSH3 0x315 JUMPI POP POP JUMP JUMPDEST DUP1 PUSH3 0x325 PUSH1 0x0 PUSH1 0x1 SWAP4 PUSH3 0x2FB JUMP JUMPDEST ADD PUSH3 0x309 JUMP JUMPDEST SWAP2 SWAP1 PUSH1 0x1F DUP2 GT PUSH3 0x33C JUMPI POP POP POP JUMP JUMPDEST PUSH3 0x350 PUSH3 0x80 SWAP4 PUSH1 0x0 MSTORE PUSH1 0x20 PUSH1 0x0 KECCAK256 SWAP1 JUMP JUMPDEST SWAP1 PUSH1 0x20 PUSH1 0x1F DUP5 ADD DUP2 SWAP1 DIV DUP4 ADD SWAP4 LT PUSH3 0x374 JUMPI JUMPDEST PUSH1 0x20 PUSH1 0x1F SWAP1 SWAP2 ADD DIV ADD SWAP1 PUSH3 0x309 JUMP JUMPDEST SWAP1 SWAP2 POP DUP2 SWAP1 PUSH3 0x364 JUMP JUMPDEST SWAP1 PUSH3 0x389 DUP2 MLOAD SWAP1 JUMP JUMPDEST SWAP1 PUSH1 0x1 PUSH1 0x1 PUSH1 0x40 SHL SUB DUP3 GT PUSH3 0x63 JUMPI PUSH3 0x3B1 DUP3 PUSH3 0x3AA DUP6 SLOAD PUSH3 0x29A JUMP JUMPDEST DUP6 PUSH3 0x32C JUMP JUMPDEST PUSH1 0x20 SWAP1 PUSH1 0x1F DUP4 GT PUSH1 0x1 EQ PUSH3 0x3F0 JUMPI PUSH3 0x14C SWAP3 SWAP2 PUSH1 0x0 SWAP2 DUP4 PUSH3 0x3E4 JUMPI JUMPDEST POP POP PUSH1 0x0 NOT PUSH1 0x8 DUP4 MUL SHR NOT AND SWAP1 PUSH1 0x2 MUL OR SWAP1 JUMP JUMPDEST ADD MLOAD SWAP1 POP CODESIZE DUP1 PUSH3 0x3D0 JUMP JUMPDEST PUSH1 0x1F NOT DUP4 AND SWAP2 PUSH3 0x406 DUP6 PUSH1 0x0 MSTORE PUSH1 0x20 PUSH1 0x0 KECCAK256 SWAP1 JUMP JUMPDEST SWAP3 PUSH1 0x0 JUMPDEST DUP2 DUP2 LT PUSH3 0x447 JUMPI POP SWAP2 PUSH1 0x2 SWAP4 SWAP2 DUP6 PUSH1 0x1 SWAP7 SWAP5 LT PUSH3 0x42D JUMPI JUMPDEST POP POP POP MUL ADD SWAP1 SSTORE JUMP JUMPDEST ADD MLOAD PUSH1 0x0 NOT PUSH1 0x8 PUSH1 0x1F DUP6 AND MUL SHR NOT AND SWAP1 SSTORE CODESIZE DUP1 DUP1 PUSH3 0x424 JUMP JUMPDEST SWAP2 SWAP4 PUSH1 0x20 PUSH1 0x1 DUP2 SWAP3 DUP8 DUP8 ADD MLOAD DUP2 SSTORE ADD SWAP6 ADD SWAP3 ADD PUSH3 0x40A JUMP JUMPDEST SWAP1 PUSH3 0x80 SWAP2 PUSH3 0x37F JUMP JUMPDEST SWAP1 PUSH3 0x47E PUSH3 0x80 SWAP3 PUSH1 0x0 PUSH3 0x460 JUMP JUMPDEST PUSH1 0x1 PUSH3 0x460 JUMP JUMPDEST PUSH3 0xE8 SWAP1 PUSH3 0x160 JUMP JUMPDEST PUSH3 0xE8 SWAP1 SLOAD PUSH3 0x486 JUMP JUMPDEST PUSH3 0x4A9 PUSH1 0xB PUSH3 0x491 JUMP JUMPDEST SWAP1 PUSH3 0x4B7 DUP2 PUSH1 0xB PUSH3 0x1B3 JUMP JUMPDEST PUSH3 0x4EE PUSH3 0x4E7 PUSH32 0x8BE0079C531659141344CD1FD0A4F28419497F9722A3DAAFE3B4186F6B6457E0 SWAP4 PUSH3 0x198 JUMP JUMPDEST SWAP2 PUSH3 0x198 JUMP JUMPDEST SWAP2 PUSH3 0x4F9 PUSH1 0x40 MLOAD SWAP1 JUMP JUMPDEST PUSH1 0x0 SWAP1 LOG3 JUMP INVALID PUSH1 0x80 PUSH1 0x40 MSTORE PUSH1 0x4 CALLDATASIZE LT ISZERO PUSH2 0x26 JUMPI JUMPDEST CALLDATASIZE ISZERO PUSH2 0x1E JUMPI PUSH2 0x1C PUSH2 0x1945 JUMP JUMPDEST STOP JUMPDEST PUSH2 0x1C PUSH2 0x1945 JUMP JUMPDEST PUSH1 0x0 CALLDATALOAD PUSH1 0xE0 SHR DUP1 PUSH4 0x1FFC9A7 EQ PUSH2 0x1E6 JUMPI DUP1 PUSH4 0x6FDDE03 EQ PUSH2 0x1E1 JUMPI DUP1 PUSH4 0x81812FC EQ PUSH2 0x1DC JUMPI DUP1 PUSH4 0x95EA7B3 EQ PUSH2 0x1D7 JUMPI DUP1 PUSH4 0x18160DDD EQ PUSH2 0x1D2 JUMPI DUP1 PUSH4 0x23B872DD EQ PUSH2 0x1CD JUMPI DUP1 PUSH4 0x265AA621 EQ PUSH2 0x1C8 JUMPI DUP1 PUSH4 0x2F745C59 EQ PUSH2 0x1C3 JUMPI DUP1 PUSH4 0x42842E0E EQ PUSH2 0x1BE JUMPI DUP1 PUSH4 0x4F6CCCE7 EQ PUSH2 0x1B9 JUMPI DUP1 PUSH4 0x51ED8288 EQ PUSH2 0x1B4 JUMPI DUP1 PUSH4 0x6352211E EQ PUSH2 0x1AF JUMPI DUP1 PUSH4 0x70A08231 EQ PUSH2 0x1AA JUMPI DUP1 PUSH4 0x715018A6 EQ PUSH2 0x1A5 JUMPI DUP1 PUSH4 0x8DA5CB5B EQ PUSH2 0x1A0 JUMPI DUP1 PUSH4 0x926061F0 EQ PUSH2 0x19B JUMPI DUP1 PUSH4 0x95D89B41 EQ PUSH2 0x196 JUMPI DUP1 PUSH4 0xA22CB465 EQ PUSH2 0x191 JUMPI DUP1 PUSH4 0xABD48199 EQ PUSH2 0x18C JUMPI DUP1 PUSH4 0xB88D4FDE EQ PUSH2 0x187 JUMPI DUP1 PUSH4 0xBA908B45 EQ PUSH2 0x182 JUMPI DUP1 PUSH4 0xC87B56DD EQ PUSH2 0x17D JUMPI DUP1 PUSH4 0xC909ADC0 EQ PUSH2 0x178 JUMPI DUP1 PUSH4 0xE985E9C5 EQ PUSH2 0x173 JUMPI DUP1 PUSH4 0xF2FDE38B EQ PUSH2 0x16E JUMPI DUP1 PUSH4 0xF3FEF3A3 EQ PUSH2 0x169 JUMPI DUP1 PUSH4 0xFA3157D5 EQ PUSH2 0x164 JUMPI PUSH4 0xFFA03821 SUB PUSH2 0xE JUMPI PUSH2 0xBE2 JUMP JUMPDEST PUSH2 0xB63 JUMP JUMPDEST PUSH2 0xB4A JUMP JUMPDEST PUSH2 0xB32 JUMP JUMPDEST PUSH2 0xB16 JUMP JUMPDEST PUSH2 0xAD8 JUMP JUMPDEST PUSH2 0xAB1 JUMP JUMPDEST PUSH2 0xA99 JUMP JUMPDEST PUSH2 0xA7D JUMP JUMPDEST PUSH2 0xA0E JUMP JUMPDEST PUSH2 0x8A5 JUMP JUMPDEST PUSH2 0x852 JUMP JUMPDEST PUSH2 0x837 JUMP JUMPDEST PUSH2 0x7F0 JUMP JUMPDEST PUSH2 0x7D8 JUMP JUMPDEST PUSH2 0x7BD JUMP JUMPDEST PUSH2 0x78E JUMP JUMPDEST PUSH2 0x776 JUMP JUMPDEST PUSH2 0x75B JUMP JUMPDEST PUSH2 0x742 JUMP JUMPDEST PUSH2 0x726 JUMP JUMPDEST PUSH2 0x6EF JUMP JUMPDEST PUSH2 0x41F JUMP JUMPDEST PUSH2 0x3C2 JUMP JUMPDEST PUSH2 0x3A4 JUMP JUMPDEST PUSH2 0x330 JUMP JUMPDEST PUSH2 0x2D6 JUMP JUMPDEST PUSH2 0x22D JUMP JUMPDEST PUSH1 0x1 PUSH1 0x1 PUSH1 0xE0 SHL SUB NOT DUP2 AND JUMPDEST SUB PUSH2 0x1FE JUMPI JUMP JUMPDEST PUSH1 0x0 DUP1 REVERT JUMPDEST SWAP1 POP CALLDATALOAD SWAP1 PUSH2 0x210 DUP3 PUSH2 0x1EB JUMP JUMPDEST JUMP JUMPDEST SWAP1 PUSH1 0x20 DUP3 DUP3 SUB SLT PUSH2 0x1FE JUMPI PUSH2 0x226 SWAP2 PUSH2 0x203 JUMP JUMPDEST SWAP1 JUMP JUMPDEST SWAP1 MSTORE JUMP JUMPDEST CALLVALUE PUSH2 0x1FE JUMPI PUSH2 0x25B PUSH2 0x248 PUSH2 0x243 CALLDATASIZE PUSH1 0x4 PUSH2 0x212 JUMP JUMPDEST PUSH2 0x1982 JUMP JUMPDEST PUSH1 0x40 MLOAD JUMPDEST SWAP2 DUP3 SWAP2 DUP3 SWAP1 ISZERO ISZERO DUP2 MSTORE PUSH1 0x20 ADD SWAP1 JUMP JUMPDEST SUB SWAP1 RETURN JUMPDEST PUSH1 0x0 SWAP2 SUB SLT PUSH2 0x1FE JUMPI JUMP JUMPDEST PUSH1 0x0 JUMPDEST DUP4 DUP2 LT PUSH2 0x27D JUMPI POP POP PUSH1 0x0 SWAP2 ADD MSTORE JUMP JUMPDEST DUP2 DUP2 ADD MLOAD DUP4 DUP3 ADD MSTORE PUSH1 0x20 ADD PUSH2 0x26D JUMP JUMPDEST PUSH2 0x2AE PUSH2 0x2B7 PUSH1 0x20 SWAP4 PUSH2 0x2C1 SWAP4 PUSH2 0x2A2 DUP2 MLOAD SWAP1 JUMP JUMPDEST DUP1 DUP4 MSTORE SWAP4 DUP5 SWAP3 PUSH1 0x20 ADD SWAP1 JUMP JUMPDEST SWAP6 DUP7 SWAP2 ADD PUSH2 0x26A JUMP JUMPDEST PUSH1 0x1F ADD PUSH1 0x1F NOT AND SWAP1 JUMP JUMPDEST ADD SWAP1 JUMP JUMPDEST PUSH1 0x20 DUP1 DUP3 MSTORE PUSH2 0x226 SWAP3 SWAP2 ADD SWAP1 PUSH2 0x28D JUMP JUMPDEST CALLVALUE PUSH2 0x1FE JUMPI PUSH2 0x2E6 CALLDATASIZE PUSH1 0x4 PUSH2 0x25F JUMP JUMPDEST PUSH2 0x25B PUSH2 0x2F1 PUSH2 0xF46 JUMP JUMPDEST PUSH1 0x40 MLOAD SWAP2 DUP3 SWAP2 DUP3 PUSH2 0x2C5 JUMP JUMPDEST DUP1 PUSH2 0x1F7 JUMP JUMPDEST SWAP1 POP CALLDATALOAD SWAP1 PUSH2 0x210 DUP3 PUSH2 0x2FD JUMP JUMPDEST SWAP1 PUSH1 0x20 DUP3 DUP3 SUB SLT PUSH2 0x1FE JUMPI PUSH2 0x226 SWAP2 PUSH2 0x303 JUMP JUMPDEST PUSH1 0x1 PUSH1 0x1 PUSH1 0xA0 SHL SUB AND SWAP1 JUMP JUMPDEST CALLVALUE PUSH2 0x1FE JUMPI PUSH2 0x25B PUSH2 0x34B PUSH2 0x346 CALLDATASIZE PUSH1 0x4 PUSH2 0x310 JUMP JUMPDEST PUSH2 0x1083 JUMP JUMPDEST PUSH1 0x40 MLOAD SWAP2 DUP3 SWAP2 DUP3 PUSH1 0x1 PUSH1 0x1 PUSH1 0xA0 SHL SUB SWAP1 SWAP2 AND DUP2 MSTORE PUSH1 0x20 ADD SWAP1 JUMP JUMPDEST PUSH1 0x1 PUSH1 0x1 PUSH1 0xA0 SHL SUB DUP2 AND PUSH2 0x1F7 JUMP JUMPDEST SWAP1 POP CALLDATALOAD SWAP1 PUSH2 0x210 DUP3 PUSH2 0x365 JUMP JUMPDEST SWAP2 SWAP1 PUSH1 0x40 DUP4 DUP3 SUB SLT PUSH2 0x1FE JUMPI PUSH2 0x226 SWAP1 PUSH2 0x39B DUP2 DUP6 PUSH2 0x374 JUMP JUMPDEST SWAP4 PUSH1 0x20 ADD PUSH2 0x303 JUMP JUMPDEST CALLVALUE PUSH2 0x1FE JUMPI PUSH2 0x3BD PUSH2 0x3B7 CALLDATASIZE PUSH1 0x4 PUSH2 0x381 JUMP JUMPDEST SWAP1 PUSH2 0x1022 JUMP JUMPDEST PUSH1 0x40 MLOAD STOP JUMPDEST CALLVALUE PUSH2 0x1FE JUMPI PUSH2 0x3D2 CALLDATASIZE PUSH1 0x4 PUSH2 0x25F JUMP JUMPDEST PUSH2 0x25B PUSH2 0x3DE PUSH1 0x9 SLOAD SWAP1 JUMP JUMPDEST PUSH1 0x40 MLOAD JUMPDEST SWAP2 DUP3 SWAP2 DUP3 SWAP1 DUP2 MSTORE PUSH1 0x20 ADD SWAP1 JUMP JUMPDEST SWAP1 SWAP2 PUSH1 0x60 DUP3 DUP5 SUB SLT PUSH2 0x1FE JUMPI PUSH2 0x226 PUSH2 0x408 DUP5 DUP5 PUSH2 0x374 JUMP JUMPDEST SWAP4 PUSH2 0x416 DUP2 PUSH1 0x20 DUP7 ADD PUSH2 0x374 JUMP JUMPDEST SWAP4 PUSH1 0x40 ADD PUSH2 0x303 JUMP JUMPDEST CALLVALUE PUSH2 0x1FE JUMPI PUSH2 0x3BD PUSH2 0x432 CALLDATASIZE PUSH1 0x4 PUSH2 0x3EF JUMP JUMPDEST SWAP2 PUSH2 0x1142 JUMP JUMPDEST PUSH2 0x226 PUSH2 0x226 PUSH2 0x226 SWAP3 SWAP1 JUMP JUMPDEST SWAP1 PUSH2 0x44F SWAP1 PUSH2 0x438 JUMP JUMPDEST PUSH1 0x0 MSTORE PUSH1 0x20 MSTORE PUSH1 0x40 PUSH1 0x0 KECCAK256 SWAP1 JUMP JUMPDEST PUSH2 0x226 SWAP1 DUP2 JUMP JUMPDEST PUSH2 0x226 SWAP1 SLOAD PUSH2 0x45D JUMP JUMPDEST PUSH4 0x4E487B71 PUSH1 0xE0 SHL PUSH1 0x0 MSTORE PUSH1 0x22 PUSH1 0x4 MSTORE PUSH1 0x24 PUSH1 0x0 REVERT JUMPDEST SWAP1 PUSH1 0x1 PUSH1 0x2 DUP4 DIV SWAP3 AND DUP1 ISZERO PUSH2 0x4A4 JUMPI JUMPDEST PUSH1 0x20 DUP4 LT EQ PUSH2 0x49F JUMPI JUMP JUMPDEST PUSH2 0x46E JUMP JUMPDEST SWAP2 PUSH1 0x7F AND SWAP2 PUSH2 0x494 JUMP JUMPDEST DUP1 SLOAD PUSH1 0x0 SWAP4 SWAP3 SWAP2 PUSH2 0x4CB PUSH2 0x4C1 DUP4 PUSH2 0x484 JUMP JUMPDEST DUP1 DUP6 MSTORE SWAP4 PUSH1 0x20 ADD SWAP1 JUMP JUMPDEST SWAP2 PUSH1 0x1 DUP2 AND SWAP1 DUP2 ISZERO PUSH2 0x51D JUMPI POP PUSH1 0x1 EQ PUSH2 0x4E4 JUMPI POP POP POP JUMP JUMPDEST PUSH2 0x4F7 SWAP2 SWAP3 SWAP4 SWAP5 POP PUSH1 0x0 MSTORE PUSH1 0x20 PUSH1 0x0 KECCAK256 SWAP1 JUMP JUMPDEST SWAP2 PUSH1 0x0 SWAP3 JUMPDEST DUP2 DUP5 LT PUSH2 0x509 JUMPI POP POP ADD SWAP1 JUMP JUMPDEST DUP1 SLOAD DUP5 DUP5 ADD MSTORE PUSH1 0x20 SWAP1 SWAP4 ADD SWAP3 PUSH1 0x1 ADD PUSH2 0x4FC JUMP JUMPDEST SWAP3 SWAP5 SWAP6 POP POP POP PUSH1 0xFF NOT AND DUP3 MSTORE ISZERO ISZERO PUSH1 0x20 MUL ADD SWAP1 JUMP JUMPDEST SWAP1 PUSH2 0x226 SWAP2 PUSH2 0x4AE JUMP JUMPDEST PUSH4 0x4E487B71 PUSH1 0xE0 SHL PUSH1 0x0 MSTORE PUSH1 0x41 PUSH1 0x4 MSTORE PUSH1 0x24 PUSH1 0x0 REVERT JUMPDEST SWAP1 PUSH1 0x1F ADD PUSH1 0x1F NOT AND DUP2 ADD SWAP1 DUP2 LT PUSH8 0xFFFFFFFFFFFFFFFF DUP3 GT OR PUSH2 0x574 JUMPI PUSH1 0x40 MSTORE JUMP JUMPDEST PUSH2 0x53C JUMP JUMPDEST SWAP1 PUSH2 0x210 PUSH2 0x593 SWAP3 PUSH2 0x58A PUSH1 0x40 MLOAD SWAP1 JUMP JUMPDEST SWAP4 DUP5 DUP1 SWAP3 PUSH2 0x532 JUMP JUMPDEST SUB DUP4 PUSH2 0x552 JUMP JUMPDEST PUSH2 0x226 SWAP1 JUMPDEST PUSH1 0xFF AND SWAP1 JUMP JUMPDEST PUSH2 0x226 SWAP1 SLOAD PUSH2 0x59A JUMP JUMPDEST PUSH2 0x5BA SWAP1 PUSH1 0x14 PUSH2 0x445 JUMP JUMPDEST SWAP1 PUSH2 0x5C4 DUP3 PUSH2 0x464 JUMP JUMPDEST SWAP2 PUSH2 0x5D9 PUSH1 0x1 DUP3 ADD SLOAD PUSH1 0x1 PUSH1 0x1 PUSH1 0xA0 SHL SUB AND SWAP1 JUMP JUMPDEST SWAP2 PUSH2 0x5E6 PUSH1 0x2 DUP4 ADD PUSH2 0x579 JUMP JUMPDEST SWAP2 PUSH2 0x5F3 PUSH1 0x3 DUP3 ADD PUSH2 0x579 JUMP JUMPDEST SWAP2 PUSH2 0x600 PUSH1 0x4 DUP4 ADD PUSH2 0x579 JUMP JUMPDEST SWAP2 PUSH2 0x60D PUSH1 0x5 DUP3 ADD PUSH2 0x579 JUMP JUMPDEST SWAP2 PUSH2 0x226 PUSH1 0x7 PUSH2 0x61F PUSH1 0x6 DUP6 ADD PUSH2 0x464 JUMP JUMPDEST SWAP4 ADD PUSH2 0x5A5 JUMP JUMPDEST PUSH4 0x4E487B71 PUSH1 0xE0 SHL PUSH1 0x0 MSTORE PUSH1 0x21 PUSH1 0x4 MSTORE PUSH1 0x24 PUSH1 0x0 REVERT JUMPDEST PUSH1 0x6 GT ISZERO PUSH2 0x646 JUMPI JUMP JUMPDEST PUSH2 0x626 JUMP JUMPDEST SWAP1 PUSH2 0x210 DUP3 PUSH2 0x63C JUMP JUMPDEST PUSH2 0x226 SWAP1 PUSH2 0x64B JUMP JUMPDEST PUSH2 0x229 SWAP1 PUSH2 0x655 JUMP JUMPDEST SWAP4 PUSH1 0xE0 SWAP6 PUSH2 0x6C4 PUSH2 0x6D2 SWAP3 PUSH2 0x6B6 DUP9 PUSH2 0x6E8 SWAP9 PUSH2 0x210 SWAP14 SWAP16 SWAP15 SWAP13 SWAP8 PUSH2 0x6E0 SWAP10 PUSH2 0x699 PUSH2 0x6A9 SWAP3 PUSH1 0x0 PUSH2 0x100 DUP8 ADD SWAP7 ADD MSTORE JUMP JUMPDEST PUSH1 0x1 PUSH1 0x1 PUSH1 0xA0 SHL SUB AND PUSH1 0x20 DUP14 ADD MSTORE JUMP JUMPDEST DUP11 DUP3 SUB PUSH1 0x40 DUP13 ADD MSTORE PUSH2 0x28D JUMP JUMPDEST SWAP1 DUP9 DUP3 SUB PUSH1 0x60 DUP11 ADD MSTORE PUSH2 0x28D JUMP JUMPDEST SWAP1 DUP7 DUP3 SUB PUSH1 0x80 DUP9 ADD MSTORE PUSH2 0x28D JUMP JUMPDEST SWAP1 DUP5 DUP3 SUB PUSH1 0xA0 DUP7 ADD MSTORE PUSH2 0x28D JUMP JUMPDEST SWAP7 PUSH1 0xC0 DUP4 ADD MSTORE JUMP JUMPDEST ADD SWAP1 PUSH2 0x65E JUMP JUMPDEST CALLVALUE PUSH2 0x1FE JUMPI PUSH2 0x25B PUSH2 0x70A PUSH2 0x705 CALLDATASIZE PUSH1 0x4 PUSH2 0x310 JUMP JUMPDEST PUSH2 0x5AF JUMP JUMPDEST SWAP5 PUSH2 0x71D SWAP9 SWAP7 SWAP9 SWAP5 SWAP2 SWAP5 SWAP4 SWAP3 SWAP4 PUSH1 0x40 MLOAD SWAP1 JUMP JUMPDEST SWAP9 DUP10 SWAP9 DUP10 PUSH2 0x667 JUMP JUMPDEST CALLVALUE PUSH2 0x1FE JUMPI PUSH2 0x25B PUSH2 0x3DE PUSH2 0x73C CALLDATASIZE PUSH1 0x4 PUSH2 0x381 JUMP JUMPDEST SWAP1 PUSH2 0x182B JUMP JUMPDEST CALLVALUE PUSH2 0x1FE JUMPI PUSH2 0x3BD PUSH2 0x755 CALLDATASIZE PUSH1 0x4 PUSH2 0x3EF JUMP JUMPDEST SWAP2 PUSH2 0x1183 JUMP JUMPDEST CALLVALUE PUSH2 0x1FE JUMPI PUSH2 0x25B PUSH2 0x3DE PUSH2 0x771 CALLDATASIZE PUSH1 0x4 PUSH2 0x310 JUMP JUMPDEST PUSH2 0x1900 JUMP JUMPDEST CALLVALUE PUSH2 0x1FE JUMPI PUSH2 0x3BD PUSH2 0x789 CALLDATASIZE PUSH1 0x4 PUSH2 0x310 JUMP JUMPDEST PUSH2 0x278F JUMP JUMPDEST CALLVALUE PUSH2 0x1FE JUMPI PUSH2 0x25B PUSH2 0x34B PUSH2 0x7A4 CALLDATASIZE PUSH1 0x4 PUSH2 0x310 JUMP JUMPDEST PUSH2 0xF0F JUMP JUMPDEST SWAP1 PUSH1 0x20 DUP3 DUP3 SUB SLT PUSH2 0x1FE JUMPI PUSH2 0x226 SWAP2 PUSH2 0x374 JUMP JUMPDEST CALLVALUE PUSH2 0x1FE JUMPI PUSH2 0x25B PUSH2 0x3DE PUSH2 0x7D3 CALLDATASIZE PUSH1 0x4 PUSH2 0x7A9 JUMP JUMPDEST PUSH2 0xE86 JUMP JUMPDEST CALLVALUE PUSH2 0x1FE JUMPI PUSH2 0x7E8 CALLDATASIZE PUSH1 0x4 PUSH2 0x25F JUMP JUMPDEST PUSH2 0x3BD PUSH2 0xC41 JUMP JUMPDEST CALLVALUE PUSH2 0x1FE JUMPI PUSH2 0x800 CALLDATASIZE PUSH1 0x4 PUSH2 0x25F JUMP JUMPDEST PUSH2 0x25B PUSH2 0x34B PUSH1 0xB SLOAD PUSH1 0x1 PUSH1 0x1 PUSH1 0xA0 SHL SUB AND SWAP1 JUMP JUMPDEST PUSH2 0x226 SWAP2 PUSH1 0x8 MUL SHR DUP2 JUMP JUMPDEST SWAP1 PUSH2 0x226 SWAP2 SLOAD PUSH2 0x815 JUMP JUMPDEST PUSH2 0x226 PUSH1 0x0 PUSH1 0xF PUSH2 0x820 JUMP JUMPDEST CALLVALUE PUSH2 0x1FE JUMPI PUSH2 0x847 CALLDATASIZE PUSH1 0x4 PUSH2 0x25F JUMP JUMPDEST PUSH2 0x25B PUSH2 0x3DE PUSH2 0x82B JUMP JUMPDEST CALLVALUE PUSH2 0x1FE JUMPI PUSH2 0x862 CALLDATASIZE PUSH1 0x4 PUSH2 0x25F JUMP JUMPDEST PUSH2 0x25B PUSH2 0x2F1 PUSH2 0xF50 JUMP JUMPDEST DUP1 ISZERO ISZERO PUSH2 0x1F7 JUMP JUMPDEST SWAP1 POP CALLDATALOAD SWAP1 PUSH2 0x210 DUP3 PUSH2 0x86D JUMP JUMPDEST SWAP2 SWAP1 PUSH1 0x40 DUP4 DUP3 SUB SLT PUSH2 0x1FE JUMPI PUSH2 0x226 SWAP1 PUSH2 0x89C DUP2 DUP6 PUSH2 0x374 JUMP JUMPDEST SWAP4 PUSH1 0x20 ADD PUSH2 0x875 JUMP JUMPDEST CALLVALUE PUSH2 0x1FE JUMPI PUSH2 0x3BD PUSH2 0x8B8 CALLDATASIZE PUSH1 0x4 PUSH2 0x882 JUMP JUMPDEST SWAP1 PUSH2 0x10B0 JUMP JUMPDEST SWAP1 PUSH2 0x210 PUSH2 0x8CB PUSH1 0x40 MLOAD SWAP1 JUMP JUMPDEST SWAP3 DUP4 PUSH2 0x552 JUMP JUMPDEST PUSH8 0xFFFFFFFFFFFFFFFF DUP2 GT PUSH2 0x574 JUMPI PUSH1 0x20 SWAP1 PUSH1 0x1F ADD PUSH1 0x1F NOT AND ADD SWAP1 JUMP JUMPDEST SWAP1 DUP3 PUSH1 0x0 SWAP4 SWAP3 DUP3 CALLDATACOPY ADD MSTORE JUMP JUMPDEST SWAP1 SWAP3 SWAP2 SWAP3 PUSH2 0x910 PUSH2 0x90B DUP3 PUSH2 0x8D2 JUMP JUMPDEST PUSH2 0x8BE JUMP JUMPDEST SWAP4 DUP2 DUP6 MSTORE PUSH1 0x20 DUP6 ADD SWAP1 DUP3 DUP5 ADD GT PUSH2 0x1FE JUMPI PUSH2 0x210 SWAP3 PUSH2 0x8EF JUMP JUMPDEST SWAP1 DUP1 PUSH1 0x1F DUP4 ADD SLT ISZERO PUSH2 0x1FE JUMPI DUP2 PUSH1 0x20 PUSH2 0x226 SWAP4 CALLDATALOAD SWAP2 ADD PUSH2 0x8FB JUMP JUMPDEST PUSH1 0x6 GT ISZERO PUSH2 0x1FE JUMPI JUMP JUMPDEST SWAP1 POP CALLDATALOAD SWAP1 PUSH2 0x210 DUP3 PUSH2 0x945 JUMP JUMPDEST PUSH1 0xE0 DUP2 DUP4 SUB SLT PUSH2 0x1FE JUMPI DUP1 CALLDATALOAD PUSH8 0xFFFFFFFFFFFFFFFF DUP2 GT PUSH2 0x1FE JUMPI DUP3 PUSH2 0x983 SWAP2 DUP4 ADD PUSH2 0x92A JUMP JUMPDEST SWAP3 PUSH1 0x20 DUP3 ADD CALLDATALOAD PUSH8 0xFFFFFFFFFFFFFFFF DUP2 GT PUSH2 0x1FE JUMPI DUP4 PUSH2 0x9A4 SWAP2 DUP5 ADD PUSH2 0x92A JUMP JUMPDEST SWAP3 PUSH1 0x40 DUP4 ADD CALLDATALOAD PUSH8 0xFFFFFFFFFFFFFFFF DUP2 GT PUSH2 0x1FE JUMPI DUP2 PUSH2 0x9C5 SWAP2 DUP6 ADD PUSH2 0x92A JUMP JUMPDEST SWAP3 PUSH1 0x60 DUP2 ADD CALLDATALOAD PUSH8 0xFFFFFFFFFFFFFFFF DUP2 GT PUSH2 0x1FE JUMPI DUP3 PUSH2 0x9E6 SWAP2 DUP4 ADD PUSH2 0x92A JUMP JUMPDEST SWAP3 PUSH2 0x226 PUSH2 0x9F7 DUP5 PUSH1 0x80 DUP6 ADD PUSH2 0x303 JUMP JUMPDEST SWAP4 PUSH2 0xA05 DUP2 PUSH1 0xA0 DUP7 ADD PUSH2 0x303 JUMP JUMPDEST SWAP4 PUSH1 0xC0 ADD PUSH2 0x94F JUMP JUMPDEST CALLVALUE PUSH2 0x1FE JUMPI PUSH2 0x3BD PUSH2 0xA21 CALLDATASIZE PUSH1 0x4 PUSH2 0x95C JUMP JUMPDEST SWAP6 SWAP5 SWAP1 SWAP5 SWAP4 SWAP2 SWAP4 PUSH2 0x241F JUMP JUMPDEST SWAP1 PUSH1 0x80 DUP3 DUP3 SUB SLT PUSH2 0x1FE JUMPI PUSH2 0xA42 DUP2 DUP4 PUSH2 0x374 JUMP JUMPDEST SWAP3 PUSH2 0xA50 DUP3 PUSH1 0x20 DUP6 ADD PUSH2 0x374 JUMP JUMPDEST SWAP3 PUSH2 0xA5E DUP4 PUSH1 0x40 DUP4 ADD PUSH2 0x303 JUMP JUMPDEST SWAP3 PUSH1 0x60 DUP3 ADD CALLDATALOAD PUSH8 0xFFFFFFFFFFFFFFFF DUP2 GT PUSH2 0x1FE JUMPI PUSH2 0x226 SWAP3 ADD PUSH2 0x92A JUMP JUMPDEST CALLVALUE PUSH2 0x1FE JUMPI PUSH2 0x3BD PUSH2 0xA90 CALLDATASIZE PUSH1 0x4 PUSH2 0xA2D JUMP JUMPDEST SWAP3 SWAP2 SWAP1 SWAP2 PUSH2 0x1193 JUMP JUMPDEST CALLVALUE PUSH2 0x1FE JUMPI PUSH2 0x3BD PUSH2 0xAAC CALLDATASIZE PUSH1 0x4 PUSH2 0x7A9 JUMP JUMPDEST PUSH2 0x2135 JUMP JUMPDEST CALLVALUE PUSH2 0x1FE JUMPI PUSH2 0x25B PUSH2 0x2F1 PUSH2 0xAC7 CALLDATASIZE PUSH1 0x4 PUSH2 0x310 JUMP JUMPDEST PUSH2 0x1A56 JUMP JUMPDEST PUSH2 0x226 PUSH1 0x0 PUSH1 0x10 PUSH2 0x820 JUMP JUMPDEST CALLVALUE PUSH2 0x1FE JUMPI PUSH2 0xAE8 CALLDATASIZE PUSH1 0x4 PUSH2 0x25F JUMP JUMPDEST PUSH2 0x25B PUSH2 0x3DE PUSH2 0xACC JUMP JUMPDEST SWAP2 SWAP1 PUSH1 0x40 DUP4 DUP3 SUB SLT PUSH2 0x1FE JUMPI PUSH2 0x226 SWAP1 PUSH2 0xB0D DUP2 DUP6 PUSH2 0x374 JUMP JUMPDEST SWAP4 PUSH1 0x20 ADD PUSH2 0x374 JUMP JUMPDEST CALLVALUE PUSH2 0x1FE JUMPI PUSH2 0x25B PUSH2 0x248 PUSH2 0xB2C CALLDATASIZE PUSH1 0x4 PUSH2 0xAF3 JUMP JUMPDEST SWAP1 PUSH2 0x10BB JUMP JUMPDEST CALLVALUE PUSH2 0x1FE JUMPI PUSH2 0x3BD PUSH2 0xB45 CALLDATASIZE PUSH1 0x4 PUSH2 0x7A9 JUMP JUMPDEST PUSH2 0xD62 JUMP JUMPDEST CALLVALUE PUSH2 0x1FE JUMPI PUSH2 0x3BD PUSH2 0xB5D CALLDATASIZE PUSH1 0x4 PUSH2 0x381 JUMP JUMPDEST SWAP1 PUSH2 0x335D JUMP JUMPDEST CALLVALUE PUSH2 0x1FE JUMPI PUSH2 0x3BD PUSH2 0xB76 CALLDATASIZE PUSH1 0x4 PUSH2 0x7A9 JUMP JUMPDEST PUSH2 0x215D JUMP JUMPDEST SWAP1 PUSH2 0xB9B PUSH2 0xB94 PUSH2 0xB8A DUP5 MLOAD SWAP1 JUMP JUMPDEST DUP1 DUP5 MSTORE SWAP3 PUSH1 0x20 ADD SWAP1 JUMP JUMPDEST SWAP3 PUSH1 0x20 ADD SWAP1 JUMP JUMPDEST SWAP1 PUSH1 0x0 JUMPDEST DUP2 DUP2 LT PUSH2 0xBAC JUMPI POP POP POP SWAP1 JUMP JUMPDEST SWAP1 SWAP2 SWAP3 PUSH2 0xBC9 PUSH2 0xBC2 PUSH1 0x1 SWAP3 DUP7 MLOAD DUP2 MSTORE PUSH1 0x20 ADD SWAP1 JUMP JUMPDEST SWAP5 PUSH1 0x20 ADD SWAP1 JUMP JUMPDEST SWAP3 SWAP2 ADD PUSH2 0xB9F JUMP JUMPDEST PUSH1 0x20 DUP1 DUP3 MSTORE PUSH2 0x226 SWAP3 SWAP2 ADD SWAP1 PUSH2 0xB7B JUMP JUMPDEST CALLVALUE PUSH2 0x1FE JUMPI PUSH2 0x25B PUSH2 0xBFD PUSH2 0xBF8 CALLDATASIZE PUSH1 0x4 PUSH2 0x7A9 JUMP JUMPDEST PUSH2 0x2555 JUMP JUMPDEST PUSH1 0x40 MLOAD SWAP2 DUP3 SWAP2 DUP3 PUSH2 0xBD1 JUMP JUMPDEST PUSH2 0xC11 PUSH2 0xC9D JUMP JUMPDEST PUSH2 0x210 PUSH2 0xC2F JUMP JUMPDEST PUSH2 0x324 PUSH2 0x226 PUSH2 0x226 SWAP3 SWAP1 JUMP JUMPDEST PUSH2 0x226 SWAP1 PUSH2 0xC19 JUMP JUMPDEST PUSH2 0x210 PUSH2 0xC3C PUSH1 0x0 PUSH2 0xC26 JUMP JUMPDEST PUSH2 0xDC1 JUMP JUMPDEST PUSH2 0x210 PUSH2 0xC09 JUMP JUMPDEST ISZERO PUSH2 0xC50 JUMPI JUMP JUMPDEST PUSH1 0x40 MLOAD PUSH3 0x461BCD PUSH1 0xE5 SHL DUP2 MSTORE DUP1 PUSH2 0xC99 PUSH1 0x4 DUP3 ADD PUSH1 0x20 DUP1 DUP3 MSTORE DUP2 DUP2 ADD MSTORE PUSH32 0x4F776E61626C653A2063616C6C6572206973206E6F7420746865206F776E6572 PUSH1 0x40 DUP3 ADD MSTORE PUSH1 0x60 ADD SWAP1 JUMP JUMPDEST SUB SWAP1 REVERT JUMPDEST PUSH2 0x210 PUSH2 0xCB2 PUSH1 0xB SLOAD PUSH1 0x1 PUSH1 0x1 PUSH1 0xA0 SHL SUB AND SWAP1 JUMP JUMPDEST PUSH2 0xCCB PUSH2 0xCBE CALLER PUSH2 0x324 JUMP JUMPDEST SWAP2 PUSH1 0x1 PUSH1 0x1 PUSH1 0xA0 SHL SUB AND SWAP1 JUMP JUMPDEST EQ PUSH2 0xC49 JUMP JUMPDEST PUSH2 0x210 SWAP1 PUSH2 0xCDD PUSH2 0xC9D JUMP JUMPDEST PUSH2 0xD3D JUMP JUMPDEST ISZERO PUSH2 0xCE9 JUMPI JUMP JUMPDEST PUSH1 0x40 MLOAD PUSH3 0x461BCD PUSH1 0xE5 SHL DUP2 MSTORE PUSH1 0x20 PUSH1 0x4 DUP3 ADD MSTORE PUSH1 0x26 PUSH1 0x24 DUP3 ADD MSTORE PUSH32 0x4F776E61626C653A206E6577206F776E657220697320746865207A65726F2061 PUSH1 0x44 DUP3 ADD MSTORE PUSH6 0x646472657373 PUSH1 0xD0 SHL PUSH1 0x64 DUP3 ADD MSTORE PUSH1 0x84 SWAP1 REVERT JUMPDEST PUSH2 0x210 SWAP1 PUSH2 0xC3C PUSH2 0xD51 PUSH2 0x324 PUSH1 0x0 PUSH2 0xC26 JUMP JUMPDEST PUSH1 0x1 PUSH1 0x1 PUSH1 0xA0 SHL SUB DUP4 AND EQ ISZERO PUSH2 0xCE2 JUMP JUMPDEST PUSH2 0x210 SWAP1 PUSH2 0xCD1 JUMP JUMPDEST SWAP1 PUSH1 0x1 PUSH1 0x1 PUSH1 0xA0 SHL SUB SWAP1 JUMPDEST SWAP2 DUP2 NOT AND SWAP2 AND OR SWAP1 JUMP JUMPDEST PUSH2 0x226 SWAP1 PUSH2 0x324 SWAP1 PUSH1 0x1 PUSH1 0x1 PUSH1 0xA0 SHL SUB AND DUP3 JUMP JUMPDEST PUSH2 0x226 SWAP1 PUSH2 0xD80 JUMP JUMPDEST PUSH2 0x226 SWAP1 PUSH2 0xD94 JUMP JUMPDEST SWAP1 PUSH2 0xDB6 PUSH2 0x226 PUSH2 0xDBD SWAP3 PUSH2 0xD9D JUMP JUMPDEST DUP3 SLOAD PUSH2 0xD6B JUMP JUMPDEST SWAP1 SSTORE JUMP JUMPDEST PUSH1 0xB SLOAD PUSH1 0x1 PUSH1 0x1 PUSH1 0xA0 SHL SUB AND SWAP1 PUSH2 0xDD9 DUP2 PUSH1 0xB PUSH2 0xDA6 JUMP JUMPDEST PUSH2 0xE0C PUSH2 0xE06 PUSH32 0x8BE0079C531659141344CD1FD0A4F28419497F9722A3DAAFE3B4186F6B6457E0 SWAP4 PUSH2 0xD9D JUMP JUMPDEST SWAP2 PUSH2 0xD9D JUMP JUMPDEST SWAP2 PUSH2 0xE16 PUSH1 0x40 MLOAD SWAP1 JUMP JUMPDEST DUP1 DUP1 JUMPDEST SUB SWAP1 LOG3 JUMP JUMPDEST ISZERO PUSH2 0xE25 JUMPI JUMP JUMPDEST PUSH1 0x40 MLOAD PUSH3 0x461BCD PUSH1 0xE5 SHL DUP2 MSTORE PUSH1 0x20 PUSH1 0x4 DUP3 ADD MSTORE PUSH1 0x29 PUSH1 0x24 DUP3 ADD MSTORE PUSH32 0x4552433732313A2061646472657373207A65726F206973206E6F742061207661 PUSH1 0x44 DUP3 ADD MSTORE PUSH9 0x3634B21037BBB732B9 PUSH1 0xB9 SHL PUSH1 0x64 DUP3 ADD MSTORE PUSH1 0x84 SWAP1 REVERT JUMPDEST SWAP1 PUSH2 0x44F SWAP1 PUSH2 0xD9D JUMP JUMPDEST PUSH2 0xEBE PUSH2 0x226 SWAP2 PUSH2 0xE95 PUSH1 0x0 SWAP1 JUMP JUMPDEST POP PUSH2 0xEB7 PUSH2 0xEA6 PUSH2 0x324 PUSH1 0x0 PUSH2 0xC26 JUMP JUMPDEST PUSH1 0x1 PUSH1 0x1 PUSH1 0xA0 SHL SUB DUP4 AND EQ ISZERO PUSH2 0xE1E JUMP JUMPDEST PUSH1 0x3 PUSH2 0xE7C JUMP JUMPDEST PUSH2 0x464 JUMP JUMPDEST ISZERO PUSH2 0xECA JUMPI JUMP JUMPDEST PUSH1 0x40 MLOAD PUSH3 0x461BCD PUSH1 0xE5 SHL DUP2 MSTORE PUSH1 0x20 PUSH1 0x4 DUP3 ADD MSTORE PUSH1 0x18 PUSH1 0x24 DUP3 ADD MSTORE PUSH32 0x4552433732313A20696E76616C696420746F6B656E2049440000000000000000 PUSH1 0x44 DUP3 ADD MSTORE PUSH1 0x64 SWAP1 REVERT JUMPDEST PUSH2 0xF1C SWAP1 PUSH1 0x0 JUMPDEST POP PUSH2 0x1233 JUMP JUMPDEST PUSH2 0x226 PUSH2 0xF2C PUSH2 0x324 PUSH1 0x0 PUSH2 0xC26 JUMP JUMPDEST PUSH1 0x1 PUSH1 0x1 PUSH1 0xA0 SHL SUB DUP4 AND EQ ISZERO PUSH2 0xEC3 JUMP JUMPDEST PUSH2 0x226 SWAP1 PUSH2 0x579 JUMP JUMPDEST PUSH2 0x226 PUSH1 0x0 PUSH2 0xF3D JUMP JUMPDEST PUSH2 0x226 PUSH1 0x1 PUSH2 0xF3D JUMP JUMPDEST ISZERO PUSH2 0xF61 JUMPI JUMP JUMPDEST PUSH1 0x40 MLOAD PUSH3 0x461BCD PUSH1 0xE5 SHL DUP2 MSTORE PUSH1 0x20 PUSH1 0x4 DUP3 ADD MSTORE PUSH1 0x21 PUSH1 0x24 DUP3 ADD MSTORE PUSH32 0x4552433732313A20617070726F76616C20746F2063757272656E74206F776E65 PUSH1 0x44 DUP3 ADD MSTORE PUSH1 0x39 PUSH1 0xF9 SHL PUSH1 0x64 DUP3 ADD MSTORE PUSH1 0x84 SWAP1 REVERT JUMPDEST ISZERO PUSH2 0xFB7 JUMPI JUMP JUMPDEST PUSH1 0x40 MLOAD PUSH3 0x461BCD PUSH1 0xE5 SHL DUP2 MSTORE PUSH1 0x20 PUSH1 0x4 DUP3 ADD MSTORE PUSH1 0x3D PUSH1 0x24 DUP3 ADD MSTORE PUSH32 0x4552433732313A20617070726F76652063616C6C6572206973206E6F7420746F PUSH1 0x44 DUP3 ADD MSTORE PUSH32 0x6B656E206F776E6572206F7220617070726F76656420666F7220616C6C000000 PUSH1 0x64 DUP3 ADD MSTORE PUSH1 0x84 SWAP1 REVERT JUMPDEST SWAP1 PUSH2 0x210 SWAP2 PUSH2 0x106D PUSH2 0x1033 DUP4 PUSH2 0xF0F JUMP JUMPDEST PUSH2 0x1051 PUSH1 0x1 PUSH1 0x1 PUSH1 0xA0 SHL SUB DUP3 AND PUSH1 0x1 PUSH1 0x1 PUSH1 0xA0 SHL SUB DUP6 AND EQ ISZERO PUSH2 0xF5A JUMP JUMPDEST CALLER PUSH1 0x1 PUSH1 0x1 PUSH1 0xA0 SHL SUB DUP3 AND DUP2 EQ SWAP2 DUP3 ISZERO PUSH2 0x1072 JUMPI JUMPDEST POP POP PUSH2 0xFB0 JUMP JUMPDEST PUSH2 0x14EF JUMP JUMPDEST PUSH2 0x107C SWAP3 POP PUSH2 0x10BB JUMP JUMPDEST CODESIZE DUP1 PUSH2 0x1066 JUMP JUMPDEST PUSH2 0x10A3 PUSH2 0x226 SWAP2 PUSH2 0x1092 PUSH1 0x0 SWAP1 JUMP JUMPDEST POP PUSH2 0x109C DUP2 PUSH2 0x161B JUMP JUMPDEST PUSH1 0x4 PUSH2 0x445 JUMP JUMPDEST SLOAD PUSH1 0x1 PUSH1 0x1 PUSH1 0xA0 SHL SUB AND SWAP1 JUMP JUMPDEST PUSH2 0x210 SWAP2 SWAP1 CALLER PUSH2 0x15A5 JUMP JUMPDEST PUSH2 0x226 SWAP2 PUSH2 0x10D6 PUSH2 0x10DB SWAP3 PUSH2 0x10CE PUSH1 0x0 SWAP1 JUMP JUMPDEST POP PUSH1 0x5 PUSH2 0xE7C JUMP JUMPDEST PUSH2 0xE7C JUMP JUMPDEST PUSH2 0x5A5 JUMP JUMPDEST ISZERO PUSH2 0x10E7 JUMPI JUMP JUMPDEST PUSH1 0x40 MLOAD PUSH3 0x461BCD PUSH1 0xE5 SHL DUP2 MSTORE PUSH1 0x20 PUSH1 0x4 DUP3 ADD MSTORE PUSH1 0x2D PUSH1 0x24 DUP3 ADD MSTORE PUSH32 0x4552433732313A2063616C6C6572206973206E6F7420746F6B656E206F776E65 PUSH1 0x44 DUP3 ADD MSTORE PUSH13 0x1C881BDC88185C1C1C9BDD9959 PUSH1 0x9A SHL PUSH1 0x64 DUP3 ADD MSTORE PUSH1 0x84 SWAP1 REVERT JUMPDEST PUSH2 0x210 SWAP3 SWAP2 SWAP1 PUSH2 0x115A PUSH2 0x1155 DUP5 CALLER PUSH2 0x124A JUMP JUMPDEST PUSH2 0x10E0 JUMP JUMPDEST PUSH2 0x13C5 JUMP JUMPDEST SWAP1 PUSH2 0x116C PUSH2 0x90B DUP4 PUSH2 0x8D2 JUMP JUMPDEST SWAP2 DUP3 MSTORE JUMP JUMPDEST PUSH2 0x226 PUSH1 0x0 PUSH2 0x115F JUMP JUMPDEST PUSH2 0x226 PUSH2 0x1171 JUMP JUMPDEST SWAP1 SWAP2 PUSH2 0x210 SWAP3 PUSH2 0x1191 PUSH2 0x117B JUMP JUMPDEST SWAP3 JUMPDEST PUSH2 0x210 SWAP4 SWAP3 SWAP2 SWAP1 PUSH2 0x11A7 PUSH2 0x1155 DUP5 CALLER PUSH2 0x124A JUMP JUMPDEST PUSH2 0x1214 JUMP JUMPDEST ISZERO PUSH2 0x11B3 JUMPI JUMP JUMPDEST PUSH1 0x40 MLOAD JUMPDEST PUSH3 0x461BCD PUSH1 0xE5 SHL DUP2 MSTORE PUSH1 0x20 PUSH1 0x4 DUP3 ADD MSTORE PUSH1 0x32 PUSH1 0x24 DUP3 ADD MSTORE PUSH32 0x4552433732313A207472616E7366657220746F206E6F6E204552433732315265 PUSH1 0x44 DUP3 ADD MSTORE PUSH18 0x31B2B4BB32B91034B6B83632B6B2B73A32B9 PUSH1 0x71 SHL PUSH1 0x64 DUP3 ADD MSTORE PUSH1 0x84 SWAP1 REVERT JUMPDEST SWAP2 PUSH2 0x210 SWAP4 SWAP2 PUSH2 0x122E SWAP4 PUSH2 0x1229 DUP4 DUP4 DUP4 PUSH2 0x13C5 JUMP JUMPDEST PUSH2 0x16C9 JUMP JUMPDEST PUSH2 0x11AC JUMP JUMPDEST PUSH2 0x10A3 PUSH2 0x226 SWAP2 PUSH2 0x1242 PUSH1 0x0 SWAP1 JUMP JUMPDEST POP PUSH1 0x2 PUSH2 0x445 JUMP JUMPDEST PUSH2 0x1253 DUP3 PUSH2 0xF0F JUMP JUMPDEST SWAP2 PUSH1 0x1 PUSH1 0x1 PUSH1 0xA0 SHL SUB DUP4 AND PUSH1 0x1 PUSH1 0x1 PUSH1 0xA0 SHL SUB DUP4 AND EQ SWAP3 DUP4 ISZERO PUSH2 0x12A0 JUMPI JUMPDEST POP DUP3 ISZERO PUSH2 0x127D JUMPI POP POP SWAP1 JUMP JUMPDEST PUSH2 0x129C SWAP2 SWAP3 POP PUSH2 0x128F PUSH2 0xCBE SWAP2 PUSH2 0x1083 JUMP JUMPDEST SWAP3 PUSH1 0x1 PUSH1 0x1 PUSH1 0xA0 SHL SUB AND SWAP1 JUMP JUMPDEST EQ SWAP1 JUMP JUMPDEST PUSH2 0x12AD SWAP2 SWAP4 POP DUP3 SWAP1 PUSH2 0x10BB JUMP JUMPDEST SWAP2 CODESIZE PUSH2 0x1271 JUMP JUMPDEST ISZERO PUSH2 0x12BB JUMPI JUMP JUMPDEST PUSH1 0x40 MLOAD PUSH3 0x461BCD PUSH1 0xE5 SHL DUP2 MSTORE PUSH1 0x20 PUSH1 0x4 DUP3 ADD MSTORE PUSH1 0x25 PUSH1 0x24 DUP3 ADD MSTORE PUSH32 0x4552433732313A207472616E736665722066726F6D20696E636F727265637420 PUSH1 0x44 DUP3 ADD MSTORE PUSH5 0x37BBB732B9 PUSH1 0xD9 SHL PUSH1 0x64 DUP3 ADD MSTORE PUSH1 0x84 SWAP1 REVERT JUMPDEST ISZERO PUSH2 0x1315 JUMPI JUMP JUMPDEST PUSH1 0x40 MLOAD PUSH3 0x461BCD PUSH1 0xE5 SHL DUP2 MSTORE PUSH1 0x20 PUSH1 0x4 DUP3 ADD MSTORE PUSH1 0x24 DUP1 DUP3 ADD MSTORE PUSH32 0x4552433732313A207472616E7366657220746F20746865207A65726F20616464 PUSH1 0x44 DUP3 ADD MSTORE PUSH4 0x72657373 PUSH1 0xE0 SHL PUSH1 0x64 DUP3 ADD MSTORE PUSH1 0x84 SWAP1 REVERT JUMPDEST SWAP2 PUSH1 0x1 PUSH1 0x1 PUSH1 0xA0 SHL SUB PUSH1 0x8 SWAP3 SWAP1 SWAP3 MUL SWAP2 DUP3 SHL SWAP2 SHL PUSH2 0xD76 JUMP JUMPDEST SWAP2 SWAP1 PUSH2 0x1390 PUSH2 0x226 PUSH2 0xDBD SWAP4 PUSH2 0xD9D JUMP JUMPDEST SWAP1 DUP4 SLOAD PUSH2 0x1366 JUMP JUMPDEST PUSH2 0x210 SWAP2 PUSH1 0x0 SWAP2 PUSH2 0x137F JUMP JUMPDEST SWAP1 PUSH1 0x0 NOT SWAP1 PUSH2 0xD76 JUMP JUMPDEST SWAP1 PUSH2 0x13BE PUSH2 0x226 PUSH2 0xDBD SWAP3 PUSH2 0x438 JUMP JUMPDEST DUP3 SLOAD PUSH2 0x13A4 JUMP JUMPDEST SWAP2 SWAP1 PUSH2 0x13EB PUSH2 0x13D3 DUP4 PUSH2 0xF0F JUMP JUMPDEST PUSH2 0x13E5 PUSH1 0x1 PUSH1 0x1 PUSH1 0xA0 SHL SUB DUP7 AND PUSH2 0xCBE JUMP JUMPDEST EQ PUSH2 0x12B4 JUMP JUMPDEST PUSH2 0x148F PUSH1 0x0 PUSH2 0x1410 PUSH2 0x13FF PUSH2 0x324 DUP4 PUSH2 0xC26 JUMP JUMPDEST PUSH1 0x1 PUSH1 0x1 PUSH1 0xA0 SHL SUB DUP6 AND EQ ISZERO PUSH2 0x130E JUMP JUMPDEST PUSH2 0x1458 PUSH2 0x141D PUSH1 0x1 PUSH2 0x438 JUMP JUMPDEST SWAP2 PUSH2 0x142A DUP4 DUP8 DUP8 DUP11 PUSH2 0x1DF9 JUMP JUMPDEST PUSH2 0x1448 PUSH2 0x1436 DUP8 PUSH2 0xF0F JUMP JUMPDEST PUSH2 0x13E5 PUSH1 0x1 PUSH1 0x1 PUSH1 0xA0 SHL SUB DUP11 AND PUSH2 0xCBE JUMP JUMPDEST PUSH2 0x1453 DUP7 PUSH1 0x4 PUSH2 0x445 JUMP JUMPDEST PUSH2 0x1398 JUMP JUMPDEST PUSH2 0x147F PUSH2 0x1485 DUP5 PUSH1 0x3 PUSH2 0x10D6 PUSH2 0x146E DUP11 DUP4 PUSH2 0xE7C JUMP JUMPDEST PUSH2 0x147F DUP8 PUSH2 0x147B DUP4 PUSH2 0x464 JUMP JUMPDEST SUB SWAP1 JUMP JUMPDEST SWAP1 PUSH2 0x13AE JUMP JUMPDEST SWAP2 PUSH2 0x2C1 DUP4 PUSH2 0x464 JUMP JUMPDEST PUSH2 0x14A3 DUP2 PUSH2 0x149E DUP5 PUSH1 0x2 PUSH2 0x445 JUMP JUMPDEST PUSH2 0xDA6 JUMP JUMPDEST PUSH2 0x14DF PUSH2 0x14D9 PUSH2 0x14D3 PUSH32 0xDDF252AD1BE2C89B69C2B068FC378DAA952BA7F163C4A11628F55A4DF523B3EF SWAP6 PUSH2 0xD9D JUMP JUMPDEST SWAP3 PUSH2 0xD9D JUMP JUMPDEST SWAP3 PUSH2 0x438 JUMP JUMPDEST SWAP3 PUSH2 0x14E9 PUSH1 0x40 MLOAD SWAP1 JUMP JUMPDEST PUSH1 0x0 SWAP1 LOG4 JUMP JUMPDEST SWAP1 PUSH2 0x14FF DUP3 PUSH2 0x149E DUP4 PUSH1 0x4 PUSH2 0x445 JUMP JUMPDEST PUSH2 0x1508 DUP2 PUSH2 0xF0F JUMP JUMPDEST SWAP2 PUSH2 0x14DF PUSH2 0x14D9 PUSH2 0x14D3 PUSH32 0x8C5BE1E5EBEC7D5BD14F71427D1E84F3DD0314C0F7B2291E5B200AC8C7C3B925 SWAP6 PUSH2 0xD9D JUMP JUMPDEST ISZERO PUSH2 0x1540 JUMPI JUMP JUMPDEST PUSH1 0x40 MLOAD PUSH3 0x461BCD PUSH1 0xE5 SHL DUP2 MSTORE PUSH1 0x20 PUSH1 0x4 DUP3 ADD MSTORE PUSH1 0x19 PUSH1 0x24 DUP3 ADD MSTORE PUSH32 0x4552433732313A20617070726F766520746F2063616C6C657200000000000000 PUSH1 0x44 DUP3 ADD MSTORE PUSH1 0x64 SWAP1 REVERT JUMPDEST SWAP1 PUSH1 0xFF SWAP1 PUSH2 0xD76 JUMP JUMPDEST SWAP1 PUSH2 0x159E PUSH2 0x226 PUSH2 0xDBD SWAP3 ISZERO ISZERO SWAP1 JUMP JUMPDEST DUP3 SLOAD PUSH2 0x1585 JUMP JUMPDEST PUSH2 0x15C3 PUSH1 0x1 PUSH1 0x1 PUSH1 0xA0 SHL SUB DUP4 AND PUSH1 0x1 PUSH1 0x1 PUSH1 0xA0 SHL SUB DUP4 AND EQ ISZERO PUSH2 0x1539 JUMP JUMPDEST PUSH2 0x15DB DUP4 PUSH2 0x15D6 DUP5 PUSH2 0x10D6 DUP6 PUSH1 0x5 PUSH2 0xE7C JUMP JUMPDEST PUSH2 0x158E JUMP JUMPDEST PUSH2 0xE19 PUSH2 0x1611 PUSH2 0x160B PUSH32 0x17307EAB39AB6107E8899845AD3D59BD9653F200F220920489CA2B5937696C31 SWAP4 PUSH2 0xD9D JUMP JUMPDEST SWAP4 PUSH2 0xD9D JUMP JUMPDEST SWAP4 PUSH2 0x24C PUSH1 0x40 MLOAD SWAP1 JUMP JUMPDEST PUSH2 0x1627 PUSH2 0x210 SWAP2 PUSH2 0x162C JUMP JUMPDEST PUSH2 0xEC3 JUMP JUMPDEST PUSH2 0x1637 SWAP1 PUSH1 0x0 PUSH2 0xF16 JUMP JUMPDEST PUSH2 0x1647 PUSH2 0xCBE PUSH2 0x324 PUSH1 0x0 PUSH2 0xC26 JUMP JUMPDEST EQ ISZERO SWAP1 JUMP JUMPDEST SWAP1 POP MLOAD SWAP1 PUSH2 0x210 DUP3 PUSH2 0x1EB JUMP JUMPDEST SWAP1 PUSH1 0x20 DUP3 DUP3 SUB SLT PUSH2 0x1FE JUMPI PUSH2 0x226 SWAP2 PUSH2 0x164C JUMP JUMPDEST PUSH1 0x1 PUSH1 0x1 PUSH1 0xA0 SHL SUB SWAP2 DUP3 AND DUP2 MSTORE SWAP2 AND PUSH1 0x20 DUP3 ADD MSTORE PUSH1 0x40 DUP2 ADD SWAP2 SWAP1 SWAP2 MSTORE PUSH1 0x80 PUSH1 0x60 DUP3 ADD DUP2 SWAP1 MSTORE PUSH2 0x226 SWAP3 SWAP2 ADD SWAP1 PUSH2 0x28D JUMP JUMPDEST PUSH1 0x40 MLOAD RETURNDATASIZE PUSH1 0x0 DUP3 RETURNDATACOPY RETURNDATASIZE SWAP1 REVERT JUMPDEST RETURNDATASIZE ISZERO PUSH2 0x16C4 JUMPI PUSH2 0x16B9 RETURNDATASIZE PUSH2 0x115F JUMP JUMPDEST SWAP1 RETURNDATASIZE PUSH1 0x0 PUSH1 0x20 DUP5 ADD RETURNDATACOPY JUMP JUMPDEST PUSH1 0x60 SWAP1 JUMP JUMPDEST SWAP2 SWAP1 SWAP4 SWAP3 PUSH2 0x16D5 PUSH1 0x0 SWAP1 JUMP JUMPDEST SWAP5 PUSH2 0x16DF DUP2 PUSH2 0x1933 JUMP JUMPDEST ISZERO PUSH2 0x17C1 JUMPI SWAP1 PUSH2 0x1726 PUSH1 0x0 PUSH2 0x16FE PUSH2 0x16F9 PUSH1 0x20 SWAP7 SWAP6 PUSH2 0xD9D JUMP JUMPDEST PUSH2 0xD9D JUMP JUMPDEST SWAP3 PUSH2 0x1731 PUSH4 0x150B7A02 SWAP2 PUSH2 0x170F CALLER SWAP1 JUMP JUMPDEST SWAP7 PUSH2 0x1719 PUSH1 0x40 MLOAD SWAP1 JUMP JUMPDEST SWAP10 DUP11 SWAP9 DUP10 SWAP8 DUP9 SWAP7 PUSH1 0xE0 SHL SWAP1 JUMP JUMPDEST DUP7 MSTORE PUSH1 0x4 DUP7 ADD PUSH2 0x166D JUMP JUMPDEST SUB SWAP3 GAS CALL PUSH1 0x0 SWAP2 DUP2 PUSH2 0x1791 JUMPI JUMPDEST POP PUSH2 0x1774 JUMPI POP PUSH2 0x174C PUSH2 0x16AA JUMP JUMPDEST DUP1 MLOAD PUSH2 0x175F PUSH2 0x175B PUSH1 0x0 PUSH2 0x438 JUMP JUMPDEST SWAP2 SWAP1 JUMP JUMPDEST SUB PUSH2 0x176C JUMPI PUSH1 0x40 MLOAD PUSH2 0x11B7 JUMP JUMPDEST DUP1 MLOAD SWAP1 PUSH1 0x20 ADD REVERT JUMPDEST SWAP1 SWAP2 POP PUSH2 0x129C PUSH4 0xA85BD01 PUSH1 0xE1 SHL JUMPDEST SWAP2 PUSH1 0x1 PUSH1 0x1 PUSH1 0xE0 SHL SUB NOT AND SWAP1 JUMP JUMPDEST PUSH2 0x17B3 SWAP2 SWAP3 POP PUSH1 0x20 RETURNDATASIZE DUP2 GT PUSH2 0x17BA JUMPI JUMPDEST PUSH2 0x17AB DUP2 DUP4 PUSH2 0x552 JUMP JUMPDEST DUP2 ADD SWAP1 PUSH2 0x1659 JUMP JUMPDEST SWAP1 CODESIZE PUSH2 0x173E JUMP JUMPDEST POP RETURNDATASIZE PUSH2 0x17A1 JUMP JUMPDEST POP PUSH1 0x1 SWAP5 POP POP POP POP JUMP JUMPDEST ISZERO PUSH2 0x17D2 JUMPI JUMP JUMPDEST PUSH1 0x40 MLOAD PUSH3 0x461BCD PUSH1 0xE5 SHL DUP2 MSTORE PUSH1 0x20 PUSH1 0x4 DUP3 ADD MSTORE PUSH1 0x2B PUSH1 0x24 DUP3 ADD MSTORE PUSH32 0x455243373231456E756D657261626C653A206F776E657220696E646578206F75 PUSH1 0x44 DUP3 ADD MSTORE PUSH11 0x74206F6620626F756E6473 PUSH1 0xA8 SHL PUSH1 0x64 DUP3 ADD MSTORE PUSH1 0x84 SWAP1 REVERT JUMPDEST PUSH2 0x226 SWAP2 PUSH2 0x185C PUSH2 0xEBE SWAP3 PUSH2 0x183E PUSH1 0x0 SWAP1 JUMP JUMPDEST POP PUSH2 0x1855 PUSH2 0x184E PUSH2 0x226 DUP4 PUSH2 0xE86 JUMP JUMPDEST DUP5 LT PUSH2 0x17CB JUMP JUMPDEST PUSH1 0x7 PUSH2 0xE7C JUMP JUMPDEST PUSH2 0x445 JUMP JUMPDEST ISZERO PUSH2 0x1868 JUMPI JUMP JUMPDEST PUSH1 0x40 MLOAD PUSH3 0x461BCD PUSH1 0xE5 SHL DUP2 MSTORE PUSH1 0x20 PUSH1 0x4 DUP3 ADD MSTORE PUSH1 0x2C PUSH1 0x24 DUP3 ADD MSTORE PUSH32 0x455243373231456E756D657261626C653A20676C6F62616C20696E646578206F PUSH1 0x44 DUP3 ADD MSTORE PUSH12 0x7574206F6620626F756E6473 PUSH1 0xA0 SHL PUSH1 0x64 DUP3 ADD MSTORE PUSH1 0x84 SWAP1 REVERT JUMPDEST PUSH4 0x4E487B71 PUSH1 0xE0 SHL PUSH1 0x0 MSTORE PUSH1 0x32 PUSH1 0x4 MSTORE PUSH1 0x24 PUSH1 0x0 REVERT JUMPDEST DUP1 SLOAD DUP3 LT ISZERO PUSH2 0x18FB JUMPI PUSH2 0x18F2 PUSH1 0x1 SWAP2 PUSH1 0x0 MSTORE PUSH1 0x20 PUSH1 0x0 KECCAK256 SWAP1 JUMP JUMPDEST SWAP2 MUL ADD SWAP1 PUSH1 0x0 SWAP1 JUMP JUMPDEST PUSH2 0x18C2 JUMP JUMPDEST PUSH2 0x192D PUSH2 0x226 SWAP2 PUSH2 0x190F PUSH1 0x0 SWAP1 JUMP JUMPDEST POP PUSH2 0x1926 PUSH2 0x191F PUSH2 0x226 PUSH1 0x9 SLOAD SWAP1 JUMP JUMPDEST DUP3 LT PUSH2 0x1861 JUMP JUMPDEST PUSH1 0x9 PUSH2 0x18D8 JUMP JUMPDEST SWAP1 PUSH2 0x820 JUMP JUMPDEST EXTCODESIZE PUSH2 0x1941 PUSH2 0x175B PUSH1 0x0 PUSH2 0x438 JUMP JUMPDEST GT SWAP1 JUMP JUMPDEST CALLVALUE PUSH32 0x88A5966D370B9919B20F3E2C13FF65706F196A4E32CC2C12BF57088F88525874 PUSH2 0x197D PUSH2 0x1973 CALLER PUSH2 0xD9D JUMP JUMPDEST SWAP3 PUSH2 0x3E2 PUSH1 0x40 MLOAD SWAP1 JUMP JUMPDEST SUB SWAP1 LOG2 JUMP JUMPDEST PUSH2 0x226 SWAP1 PUSH4 0x780E9D63 PUSH1 0xE0 SHL PUSH1 0x1 PUSH1 0x1 PUSH1 0xE0 SHL SUB NOT DUP3 AND EQ SWAP1 DUP2 ISZERO PUSH2 0x19A5 JUMPI POP SWAP1 JUMP JUMPDEST PUSH2 0x226 SWAP2 POP PUSH2 0x19CF JUMP JUMPDEST PUSH2 0x19C2 PUSH2 0x19BC PUSH2 0x226 SWAP3 SWAP1 JUMP JUMPDEST PUSH1 0xE0 SHL SWAP1 JUMP JUMPDEST PUSH1 0x1 PUSH1 0x1 PUSH1 0xE0 SHL SUB NOT AND SWAP1 JUMP JUMPDEST PUSH2 0x19DF PUSH2 0x19C2 PUSH4 0x49064906 PUSH2 0x19AF JUMP JUMPDEST PUSH1 0x1 PUSH1 0x1 PUSH1 0xE0 SHL SUB NOT DUP3 AND EQ SWAP1 DUP2 ISZERO PUSH2 0x19F6 JUMPI POP SWAP1 JUMP JUMPDEST PUSH2 0x226 SWAP2 POP PUSH4 0x80AC58CD PUSH1 0xE0 SHL PUSH1 0x1 PUSH1 0x1 PUSH1 0xE0 SHL SUB NOT DUP3 AND EQ SWAP1 DUP2 ISZERO PUSH2 0x1A2B JUMPI JUMPDEST DUP2 ISZERO PUSH2 0x1A21 JUMPI POP SWAP1 JUMP JUMPDEST PUSH2 0x226 SWAP2 POP PUSH2 0x1A46 JUMP JUMPDEST PUSH1 0x1 PUSH1 0x1 PUSH1 0xE0 SHL SUB NOT DUP2 AND PUSH4 0x5B5E139F PUSH1 0xE0 SHL EQ SWAP2 POP PUSH2 0x1A17 JUMP JUMPDEST PUSH2 0x129C PUSH4 0x1FFC9A7 PUSH1 0xE0 SHL PUSH2 0x1783 JUMP JUMPDEST PUSH2 0x226 SWAP1 PUSH2 0x1A94 JUMP JUMPDEST PUSH2 0x2C1 PUSH2 0x1A77 SWAP3 PUSH1 0x20 SWAP3 PUSH2 0x1A71 DUP2 MLOAD SWAP1 JUMP JUMPDEST SWAP5 DUP6 SWAP3 SWAP1 JUMP JUMPDEST SWAP4 DUP5 SWAP2 ADD PUSH2 0x26A JUMP JUMPDEST PUSH2 0x1A8E SWAP1 PUSH2 0x226 SWAP4 SWAP3 PUSH2 0x1A5F JUMP JUMPDEST SWAP1 PUSH2 0x1A5F JUMP JUMPDEST PUSH2 0x1A9D DUP2 PUSH2 0x161B JUMP JUMPDEST PUSH2 0x1AB0 PUSH2 0x1AAB DUP3 PUSH1 0x6 PUSH2 0x445 JUMP JUMPDEST PUSH2 0xF3D JUMP JUMPDEST PUSH2 0x1AB8 PUSH2 0x1B70 JUMP JUMPDEST DUP1 MLOAD PUSH1 0x0 SWAP1 PUSH2 0x1AC9 PUSH2 0x175B DUP4 PUSH2 0x438 JUMP JUMPDEST EQ PUSH2 0x1B1C JUMPI PUSH2 0x1ADC PUSH2 0x175B PUSH2 0x14D9 DUP6 MLOAD SWAP1 JUMP JUMPDEST GT PUSH2 0x1AEC JUMPI POP POP PUSH2 0x226 SWAP1 PUSH2 0x1B23 JUMP JUMPDEST PUSH2 0x226 SWAP3 POP PUSH2 0x1B10 SWAP2 PUSH2 0x226 SWAP2 PUSH2 0x1B02 PUSH1 0x40 MLOAD SWAP1 JUMP JUMPDEST SWAP4 DUP5 SWAP3 PUSH1 0x20 DUP5 ADD SWAP3 DUP4 PUSH2 0x1A80 JUMP JUMPDEST SWAP1 DUP2 SUB DUP3 MSTORE SUB DUP3 PUSH2 0x552 JUMP JUMPDEST POP POP SWAP1 POP SWAP1 JUMP JUMPDEST PUSH2 0x1B2C DUP2 PUSH2 0x161B JUMP JUMPDEST PUSH2 0x1B34 PUSH2 0x1B70 JUMP JUMPDEST DUP1 MLOAD PUSH2 0x1B43 PUSH2 0x175B PUSH1 0x0 PUSH2 0x438 JUMP JUMPDEST GT ISZERO PUSH2 0x1B66 JUMPI PUSH2 0x226 PUSH2 0x1B10 SWAP2 PUSH2 0x1B5C PUSH2 0x226 SWAP5 PUSH2 0x1BC9 JUMP JUMPDEST SWAP1 PUSH2 0x1B02 PUSH1 0x40 MLOAD SWAP1 JUMP JUMPDEST POP POP PUSH2 0x226 PUSH2 0x117B JUMP JUMPDEST PUSH1 0x60 JUMPDEST POP PUSH2 0x226 PUSH2 0x117B JUMP JUMPDEST CALLDATASIZE SWAP1 CALLDATACOPY JUMP JUMPDEST SWAP1 PUSH2 0x210 PUSH2 0x1B97 PUSH2 0x1B91 DUP5 PUSH2 0x115F JUMP JUMPDEST SWAP4 PUSH2 0x8D2 JUMP JUMPDEST PUSH1 0x1F NOT ADD PUSH1 0x20 DUP5 ADD PUSH2 0x1B7C JUMP JUMPDEST PUSH4 0x4E487B71 PUSH1 0xE0 SHL PUSH1 0x0 MSTORE PUSH1 0x12 PUSH1 0x4 MSTORE PUSH1 0x24 PUSH1 0x0 REVERT JUMPDEST DUP2 ISZERO PUSH2 0x1BC4 JUMPI DIV SWAP1 JUMP JUMPDEST PUSH2 0x1BA4 JUMP JUMPDEST PUSH2 0x1BD2 DUP2 PUSH2 0x1C55 JUMP JUMPDEST SWAP1 PUSH2 0x1BE2 PUSH1 0x1 SWAP3 PUSH2 0x2C1 DUP5 PUSH2 0x438 JUMP JUMPDEST SWAP2 DUP1 PUSH2 0x1BED DUP5 PUSH2 0x1B81 JUMP JUMPDEST SWAP4 PUSH1 0x20 ADD DUP5 ADD SWAP1 JUMPDEST PUSH2 0x1C00 JUMPI JUMPDEST POP POP POP SWAP1 JUMP JUMPDEST PUSH2 0x1C34 SWAP1 PUSH1 0x0 NOT ADD SWAP3 PUSH16 0x181899199A1A9B1B9C1CB0B131B232B3 PUSH1 0x81 SHL PUSH1 0xA DUP3 MOD BYTE DUP5 MSTORE8 PUSH2 0x1C2E PUSH1 0xA PUSH2 0x438 JUMP JUMPDEST SWAP1 PUSH2 0x1BBA JUMP JUMPDEST SWAP1 DUP2 PUSH2 0x1C43 PUSH2 0x175B PUSH1 0x0 PUSH2 0x438 JUMP JUMPDEST EQ PUSH2 0x1C50 JUMPI SWAP1 SWAP2 DUP2 PUSH2 0x1BF5 JUMP JUMPDEST PUSH2 0x1BFA JUMP JUMPDEST PUSH2 0x1C5F PUSH1 0x0 PUSH2 0x438 JUMP JUMPDEST SWAP1 PUSH27 0x184F03E93FF9F4DAA797ED6E38ED64BF6A1F010000000000000000 PUSH2 0x1C85 DUP2 PUSH2 0x438 JUMP JUMPDEST DUP3 LT ISZERO PUSH2 0x1DD7 JUMPI JUMPDEST POP PUSH14 0x4EE2D6D415B85ACEF8100000000 PUSH2 0x1CA6 DUP2 PUSH2 0x438 JUMP JUMPDEST DUP3 LT ISZERO PUSH2 0x1DB5 JUMPI JUMPDEST POP PUSH7 0x2386F26FC10000 PUSH2 0x1CC0 DUP2 PUSH2 0x438 JUMP JUMPDEST DUP3 LT ISZERO PUSH2 0x1D93 JUMPI JUMPDEST POP PUSH4 0x5F5E100 PUSH2 0x1CD7 DUP2 PUSH2 0x438 JUMP JUMPDEST DUP3 LT ISZERO PUSH2 0x1D71 JUMPI JUMPDEST POP PUSH2 0x2710 PUSH2 0x1CEC DUP2 PUSH2 0x438 JUMP JUMPDEST DUP3 LT ISZERO PUSH2 0x1D4F JUMPI JUMPDEST POP PUSH1 0x64 PUSH2 0x1D00 DUP2 PUSH2 0x438 JUMP JUMPDEST DUP3 LT ISZERO PUSH2 0x1D2D JUMPI JUMPDEST POP PUSH2 0x1D16 PUSH2 0x175B PUSH1 0xA PUSH2 0x438 JUMP JUMPDEST LT ISZERO PUSH2 0x1D1F JUMPI SWAP1 JUMP JUMPDEST PUSH2 0x226 SWAP1 PUSH2 0x2C1 PUSH1 0x1 PUSH2 0x438 JUMP JUMPDEST PUSH2 0x1D48 SWAP2 PUSH2 0x1C2E PUSH2 0x1D3D SWAP3 PUSH2 0x438 JUMP JUMPDEST SWAP2 PUSH2 0x2C1 PUSH1 0x2 PUSH2 0x438 JUMP JUMPDEST SWAP1 CODESIZE PUSH2 0x1D08 JUMP JUMPDEST PUSH2 0x1D6A SWAP2 PUSH2 0x1C2E PUSH2 0x1D5F SWAP3 PUSH2 0x438 JUMP JUMPDEST SWAP2 PUSH2 0x2C1 PUSH1 0x4 PUSH2 0x438 JUMP JUMPDEST SWAP1 CODESIZE PUSH2 0x1CF4 JUMP JUMPDEST PUSH2 0x1D8C SWAP2 PUSH2 0x1C2E PUSH2 0x1D81 SWAP3 PUSH2 0x438 JUMP JUMPDEST SWAP2 PUSH2 0x2C1 PUSH1 0x8 PUSH2 0x438 JUMP JUMPDEST SWAP1 CODESIZE PUSH2 0x1CDF JUMP JUMPDEST PUSH2 0x1DAE SWAP2 PUSH2 0x1C2E PUSH2 0x1DA3 SWAP3 PUSH2 0x438 JUMP JUMPDEST SWAP2 PUSH2 0x2C1 PUSH1 0x10 PUSH2 0x438 JUMP JUMPDEST SWAP1 CODESIZE PUSH2 0x1CC8 JUMP JUMPDEST PUSH2 0x1DD0 SWAP2 PUSH2 0x1C2E PUSH2 0x1DC5 SWAP3 PUSH2 0x438 JUMP JUMPDEST SWAP2 PUSH2 0x2C1 PUSH1 0x20 PUSH2 0x438 JUMP JUMPDEST SWAP1 CODESIZE PUSH2 0x1CAE JUMP JUMPDEST PUSH2 0x1DF2 SWAP2 PUSH2 0x1C2E PUSH2 0x1DE7 SWAP3 PUSH2 0x438 JUMP JUMPDEST SWAP2 PUSH2 0x2C1 PUSH1 0x40 PUSH2 0x438 JUMP JUMPDEST SWAP1 CODESIZE PUSH2 0x1C8D JUMP JUMPDEST PUSH2 0x210 SWAP4 SWAP2 SWAP3 SWAP2 PUSH2 0x1E0D PUSH2 0x175B PUSH1 0x1 PUSH2 0x438 JUMP JUMPDEST GT PUSH2 0x1EA3 JUMPI PUSH2 0x1E41 PUSH2 0x1E1F PUSH1 0x0 PUSH2 0xC26 JUMP JUMPDEST PUSH1 0x1 PUSH1 0x1 PUSH1 0xA0 SHL SUB DUP2 AND PUSH1 0x1 PUSH1 0x1 PUSH1 0xA0 SHL SUB DUP5 AND SUB PUSH2 0x1E80 JUMPI PUSH2 0x324 DUP5 PUSH2 0x1F92 JUMP JUMPDEST PUSH1 0x1 PUSH1 0x1 PUSH1 0xA0 SHL SUB DUP5 AND SUB PUSH2 0x1E5B JUMPI POP PUSH2 0x210 SWAP2 POP PUSH2 0x20B5 JUMP JUMPDEST PUSH1 0x1 PUSH1 0x1 PUSH1 0xA0 SHL SUB AND PUSH1 0x1 PUSH1 0x1 PUSH1 0xA0 SHL SUB DUP4 AND SUB PUSH2 0x1E77 JUMPI POP POP JUMP JUMPDEST PUSH2 0x210 SWAP2 PUSH2 0x1F06 JUMP JUMPDEST PUSH1 0x1 PUSH1 0x1 PUSH1 0xA0 SHL SUB DUP6 AND PUSH1 0x1 PUSH1 0x1 PUSH1 0xA0 SHL SUB DUP5 AND EQ PUSH2 0x324 JUMPI PUSH2 0x324 DUP5 DUP5 PUSH2 0x1FEA JUMP JUMPDEST PUSH1 0x40 MLOAD PUSH3 0x461BCD PUSH1 0xE5 SHL DUP2 MSTORE PUSH1 0x20 PUSH1 0x4 DUP3 ADD MSTORE PUSH1 0x35 PUSH1 0x24 DUP3 ADD MSTORE PUSH32 0x455243373231456E756D657261626C653A20636F6E7365637574697665207472 PUSH1 0x44 DUP3 ADD MSTORE PUSH21 0x185B9CD9995C9CC81B9BDD081CDD5C1C1BDC9D1959 PUSH1 0x5A SHL PUSH1 0x64 DUP3 ADD MSTORE PUSH1 0x84 SWAP1 REVERT JUMPDEST PUSH2 0x1F2B DUP3 PUSH2 0x1F30 PUSH2 0x210 SWAP5 PUSH2 0x1F2B PUSH2 0x185C SWAP6 PUSH2 0x1F21 DUP2 PUSH2 0xE86 JUMP JUMPDEST SWAP7 DUP8 SWAP2 PUSH1 0x7 PUSH2 0xE7C JUMP JUMPDEST PUSH2 0x13AE JUMP JUMPDEST PUSH1 0x8 PUSH2 0x445 JUMP JUMPDEST SWAP2 PUSH1 0x0 NOT PUSH1 0x8 SWAP3 SWAP1 SWAP3 MUL SWAP2 DUP3 SHL SWAP2 SHL PUSH2 0xD76 JUMP JUMPDEST SWAP2 SWAP1 PUSH2 0x1F5C PUSH2 0x226 PUSH2 0xDBD SWAP4 PUSH2 0x438 JUMP JUMPDEST SWAP1 DUP4 SLOAD PUSH2 0x1F37 JUMP JUMPDEST SWAP1 DUP2 SLOAD SWAP2 PUSH9 0x10000000000000000 DUP4 LT ISZERO PUSH2 0x574 JUMPI DUP3 PUSH2 0x1F8C SWAP2 PUSH1 0x1 PUSH2 0x210 SWAP6 ADD DUP2 SSTORE PUSH2 0x18D8 JUMP JUMPDEST SWAP1 PUSH2 0x1F4B JUMP JUMPDEST PUSH2 0x210 SWAP1 PUSH2 0x1FB1 PUSH1 0x9 PUSH2 0x226 PUSH2 0x1FA6 DUP3 SLOAD SWAP1 JUMP JUMPDEST PUSH2 0x1F2B DUP6 PUSH1 0xA PUSH2 0x445 JUMP JUMPDEST PUSH2 0x1F64 JUMP JUMPDEST PUSH4 0x4E487B71 PUSH1 0xE0 SHL PUSH1 0x0 MSTORE PUSH1 0x11 PUSH1 0x4 MSTORE PUSH1 0x24 PUSH1 0x0 REVERT JUMPDEST SWAP2 SWAP1 DUP3 SUB SWAP2 DUP3 GT PUSH2 0x1FD9 JUMPI JUMP JUMPDEST PUSH2 0x1FB6 JUMP JUMPDEST PUSH2 0x210 SWAP2 PUSH1 0x0 SWAP2 PUSH2 0x1F4B JUMP JUMPDEST PUSH2 0x2038 PUSH2 0x210 SWAP3 PUSH2 0x185C PUSH1 0x0 SWAP4 PUSH2 0x1855 DUP6 PUSH2 0x2038 PUSH2 0x201A PUSH2 0x200A DUP6 PUSH2 0xE86 JUMP JUMPDEST PUSH2 0x2014 PUSH1 0x1 PUSH2 0x438 JUMP JUMPDEST SWAP1 PUSH2 0x1FCC JUMP JUMPDEST SWAP6 PUSH1 0x8 PUSH2 0x202A PUSH2 0xEBE DUP4 DUP4 PUSH2 0x445 JUMP JUMPDEST DUP9 DUP2 SUB PUSH2 0x203D JUMPI JUMPDEST POP PUSH2 0x445 JUMP JUMPDEST PUSH2 0x1FDE JUMP JUMPDEST DUP1 PUSH2 0x1F2B DUP9 PUSH2 0x206B DUP13 PUSH2 0x1F2B PUSH2 0x2071 SWAP7 PUSH2 0x185C PUSH2 0x2063 PUSH2 0xEBE PUSH1 0x7 SWAP6 PUSH2 0x185C DUP10 DUP9 PUSH2 0xE7C JUMP JUMPDEST SWAP6 DUP7 SWAP5 PUSH2 0xE7C JUMP JUMPDEST DUP5 PUSH2 0x445 JUMP JUMPDEST CODESIZE PUSH2 0x2032 JUMP JUMPDEST PUSH4 0x4E487B71 PUSH1 0xE0 SHL PUSH1 0x0 MSTORE PUSH1 0x31 PUSH1 0x4 MSTORE PUSH1 0x24 PUSH1 0x0 REVERT JUMPDEST DUP1 SLOAD DUP1 ISZERO PUSH2 0x20B0 JUMPI PUSH1 0x0 NOT ADD SWAP1 PUSH2 0x20AD PUSH2 0x20A7 DUP4 DUP4 PUSH2 0x18D8 JUMP JUMPDEST SWAP1 PUSH2 0x1FDE JUMP JUMPDEST SSTORE JUMP JUMPDEST PUSH2 0x2077 JUMP JUMPDEST PUSH2 0x2103 PUSH2 0x210 SWAP2 PUSH2 0x226 PUSH1 0x0 PUSH2 0x2038 PUSH1 0x9 SWAP4 PUSH2 0x20D2 PUSH2 0x200A DUP7 SLOAD SWAP1 JUMP JUMPDEST PUSH2 0x185C PUSH1 0xA SWAP2 PUSH2 0x1F2B PUSH2 0x20F5 PUSH2 0x192D PUSH2 0x20EE PUSH2 0xEBE DUP9 DUP9 PUSH2 0x445 JUMP JUMPDEST SWAP4 DUP12 PUSH2 0x18D8 JUMP JUMPDEST PUSH2 0x206B DUP2 PUSH2 0x1F8C DUP6 DUP14 PUSH2 0x18D8 JUMP JUMPDEST PUSH2 0x208D JUMP JUMPDEST PUSH2 0x210 SWAP1 PUSH2 0x2114 PUSH2 0xC9D JUMP JUMPDEST PUSH2 0x212E PUSH2 0x210 SWAP2 PUSH2 0x16F9 PUSH2 0x2127 DUP3 PUSH2 0xD9D JUMP JUMPDEST PUSH1 0xE PUSH2 0xDA6 JUMP JUMPDEST PUSH1 0xC PUSH2 0xDA6 JUMP JUMPDEST PUSH2 0x210 SWAP1 PUSH2 0x2108 JUMP JUMPDEST PUSH2 0x210 SWAP1 PUSH2 0x214A PUSH2 0xC9D JUMP JUMPDEST PUSH2 0x2156 PUSH2 0x210 SWAP2 PUSH2 0xD9D JUMP JUMPDEST PUSH1 0xD PUSH2 0xDA6 JUMP JUMPDEST PUSH2 0x210 SWAP1 PUSH2 0x213E JUMP JUMPDEST PUSH1 0x0 NOT DUP2 EQ PUSH2 0x1FD9 JUMPI PUSH1 0x1 ADD SWAP1 JUMP JUMPDEST PUSH2 0x226 PUSH2 0x140 PUSH2 0x8BE JUMP JUMPDEST SWAP1 PUSH2 0x229 SWAP1 PUSH2 0x64B JUMP JUMPDEST PUSH1 0x5 GT ISZERO PUSH2 0x646 JUMPI JUMP JUMPDEST SWAP1 PUSH2 0x210 DUP3 PUSH2 0x218A JUMP JUMPDEST SWAP1 PUSH2 0x229 SWAP1 PUSH2 0x2194 JUMP JUMPDEST DUP2 DUP2 LT PUSH2 0x21B3 JUMPI POP POP JUMP JUMPDEST DUP1 PUSH2 0x21C1 PUSH1 0x0 PUSH1 0x1 SWAP4 PUSH2 0x1FDE JUMP JUMPDEST ADD PUSH2 0x21A8 JUMP JUMPDEST SWAP2 SWAP1 PUSH1 0x1F DUP2 GT PUSH2 0x21D6 JUMPI POP POP POP JUMP JUMPDEST PUSH2 0x21E8 PUSH2 0x210 SWAP4 PUSH1 0x0 MSTORE PUSH1 0x20 PUSH1 0x0 KECCAK256 SWAP1 JUMP JUMPDEST SWAP1 PUSH1 0x20 PUSH1 0x1F DUP5 ADD DUP2 SWAP1 DIV DUP4 ADD SWAP4 LT PUSH2 0x220A JUMPI JUMPDEST PUSH1 0x20 PUSH1 0x1F SWAP1 SWAP2 ADD DIV ADD SWAP1 PUSH2 0x21A8 JUMP JUMPDEST SWAP1 SWAP2 POP DUP2 SWAP1 PUSH2 0x21FB JUMP JUMPDEST SWAP1 PUSH2 0x221D DUP2 MLOAD SWAP1 JUMP JUMPDEST SWAP1 PUSH8 0xFFFFFFFFFFFFFFFF DUP3 GT PUSH2 0x574 JUMPI PUSH2 0x2241 DUP3 PUSH2 0x223B DUP6 SLOAD PUSH2 0x484 JUMP JUMPDEST DUP6 PUSH2 0x21C7 JUMP JUMPDEST PUSH1 0x20 SWAP1 PUSH1 0x1F DUP4 GT PUSH1 0x1 EQ PUSH2 0x227C JUMPI PUSH2 0xDBD SWAP3 SWAP2 PUSH1 0x0 SWAP2 DUP4 PUSH2 0x2271 JUMPI JUMPDEST POP POP PUSH1 0x0 NOT PUSH1 0x8 DUP4 MUL SHR NOT AND SWAP1 PUSH1 0x2 MUL OR SWAP1 JUMP JUMPDEST ADD MLOAD SWAP1 POP CODESIZE DUP1 PUSH2 0x225D JUMP JUMPDEST PUSH1 0x1F NOT DUP4 AND SWAP2 PUSH2 0x2291 DUP6 PUSH1 0x0 MSTORE PUSH1 0x20 PUSH1 0x0 KECCAK256 SWAP1 JUMP JUMPDEST SWAP3 PUSH1 0x0 JUMPDEST DUP2 DUP2 LT PUSH2 0x22CF JUMPI POP SWAP2 PUSH1 0x2 SWAP4 SWAP2 DUP6 PUSH1 0x1 SWAP7 SWAP5 LT PUSH2 0x22B6 JUMPI JUMPDEST POP POP POP MUL ADD SWAP1 SSTORE JUMP JUMPDEST ADD MLOAD PUSH1 0x0 NOT PUSH1 0x8 PUSH1 0x1F DUP6 AND MUL SHR NOT AND SWAP1 SSTORE CODESIZE DUP1 DUP1 PUSH2 0x22AD JUMP JUMPDEST SWAP2 SWAP4 PUSH1 0x20 PUSH1 0x1 DUP2 SWAP3 DUP8 DUP8 ADD MLOAD DUP2 SSTORE ADD SWAP6 ADD SWAP3 ADD PUSH2 0x2295 JUMP JUMPDEST SWAP1 PUSH2 0x210 SWAP2 PUSH2 0x2214 JUMP JUMPDEST PUSH2 0x226 SWAP1 MLOAD PUSH2 0x64B JUMP JUMPDEST SWAP1 PUSH2 0x159E PUSH2 0x226 PUSH2 0xDBD SWAP3 PUSH2 0x655 JUMP JUMPDEST PUSH2 0x226 SWAP1 MLOAD PUSH2 0x2194 JUMP JUMPDEST SWAP1 PUSH2 0xFF00 SWAP1 PUSH1 0x8 SHL PUSH2 0xD76 JUMP JUMPDEST PUSH2 0x226 SWAP1 PUSH2 0x2194 JUMP JUMPDEST SWAP1 PUSH2 0x233B PUSH2 0x226 PUSH2 0xDBD SWAP3 PUSH2 0x2322 JUMP JUMPDEST DUP3 SLOAD PUSH2 0x2315 JUMP JUMPDEST PUSH2 0x210 SWAP2 SWAP1 PUSH2 0x240F SWAP1 PUSH2 0x120 SWAP1 PUSH1 0x8 SWAP1 PUSH2 0x235E DUP2 PUSH2 0x147F DUP8 MLOAD SWAP1 JUMP JUMPDEST PUSH2 0x237F PUSH1 0x1 DUP3 ADD PUSH2 0x2379 PUSH1 0x20 DUP9 ADD MLOAD PUSH1 0x1 PUSH1 0x1 PUSH1 0xA0 SHL SUB AND SWAP1 JUMP JUMPDEST SWAP1 PUSH2 0xDA6 JUMP JUMPDEST PUSH2 0x2397 PUSH1 0x2 DUP3 ADD PUSH2 0x2391 PUSH1 0x40 DUP9 ADD MLOAD SWAP1 JUMP JUMPDEST SWAP1 PUSH2 0x22E7 JUMP JUMPDEST PUSH2 0x23A9 PUSH1 0x3 DUP3 ADD PUSH2 0x2391 PUSH1 0x60 DUP9 ADD MLOAD SWAP1 JUMP JUMPDEST PUSH2 0x23BB PUSH1 0x4 DUP3 ADD PUSH2 0x2391 PUSH1 0x80 DUP9 ADD MLOAD SWAP1 JUMP JUMPDEST PUSH2 0x23CD PUSH1 0x5 DUP3 ADD PUSH2 0x2391 PUSH1 0xA0 DUP9 ADD MLOAD SWAP1 JUMP JUMPDEST PUSH2 0x23DF PUSH1 0x6 DUP3 ADD PUSH2 0x147F PUSH1 0xC0 DUP9 ADD MLOAD SWAP1 JUMP JUMPDEST PUSH2 0x23F1 PUSH1 0x7 DUP3 ADD PUSH2 0x147F PUSH1 0xE0 DUP9 ADD MLOAD SWAP1 JUMP JUMPDEST ADD SWAP3 PUSH2 0x2409 PUSH2 0x2403 PUSH2 0x100 DUP4 ADD PUSH2 0x22F1 JUMP JUMPDEST DUP6 PUSH2 0x22FB JUMP JUMPDEST ADD PUSH2 0x230B JUMP JUMPDEST SWAP1 PUSH2 0x232B JUMP JUMPDEST SWAP1 PUSH2 0x210 SWAP2 PUSH2 0x2342 JUMP JUMPDEST SWAP4 SWAP6 SWAP2 SWAP5 SWAP1 SWAP3 SWAP6 PUSH2 0x2430 PUSH1 0xF PUSH2 0x464 JUMP JUMPDEST SWAP7 PUSH2 0x243A DUP9 PUSH2 0x2166 JUMP JUMPDEST PUSH2 0x2445 SWAP1 PUSH1 0xF PUSH2 0x13AE JUMP JUMPDEST CALLER SWAP7 PUSH1 0x0 SWAP6 PUSH2 0x2452 PUSH2 0x2175 JUMP JUMPDEST SWAP8 PUSH2 0x245D DUP12 DUP10 DUP12 ADD MSTORE JUMP JUMPDEST PUSH1 0x1 PUSH1 0x1 PUSH1 0xA0 SHL SUB DUP11 AND PUSH1 0x20 DUP11 ADD MSTORE PUSH1 0x40 DUP10 ADD MSTORE PUSH1 0x60 DUP9 ADD MSTORE PUSH1 0x80 DUP8 ADD MSTORE PUSH1 0xA0 DUP7 ADD MSTORE PUSH1 0xC0 DUP6 ADD MSTORE PUSH1 0xE0 DUP5 ADD MSTORE PUSH2 0x2498 SWAP1 PUSH2 0x100 DUP5 ADD PUSH2 0x2180 JUMP JUMPDEST PUSH2 0x24A6 SWAP1 PUSH2 0x120 DUP4 ADD PUSH2 0x219E JUMP JUMPDEST PUSH2 0x24B1 DUP4 PUSH1 0x12 PUSH2 0x445 JUMP JUMPDEST SWAP1 PUSH2 0x24BB SWAP2 PUSH2 0x2415 JUMP JUMPDEST PUSH2 0x24C6 SWAP1 PUSH1 0x13 PUSH2 0xE7C JUMP JUMPDEST SWAP1 PUSH2 0x210 SWAP2 PUSH2 0x1F64 JUMP JUMPDEST SWAP1 PUSH2 0x24EB PUSH2 0x24DF PUSH2 0xB8A DUP5 SLOAD SWAP1 JUMP JUMPDEST SWAP3 PUSH1 0x0 MSTORE PUSH1 0x20 PUSH1 0x0 KECCAK256 SWAP1 JUMP JUMPDEST SWAP1 PUSH1 0x0 JUMPDEST DUP2 DUP2 LT PUSH2 0x24FC JUMPI POP POP POP SWAP1 JUMP JUMPDEST SWAP1 SWAP2 SWAP3 PUSH2 0x2520 PUSH2 0x2519 PUSH1 0x1 SWAP3 PUSH2 0x2511 DUP8 PUSH2 0x464 JUMP JUMPDEST DUP2 MSTORE PUSH1 0x20 ADD SWAP1 JUMP JUMPDEST SWAP5 PUSH1 0x1 ADD SWAP1 JUMP JUMPDEST SWAP3 SWAP2 ADD PUSH2 0x24EF JUMP JUMPDEST SWAP1 PUSH2 0x226 SWAP2 PUSH2 0x24D0 JUMP JUMPDEST SWAP1 PUSH2 0x210 PUSH2 0x593 SWAP3 PUSH2 0x2543 PUSH1 0x40 MLOAD SWAP1 JUMP JUMPDEST SWAP4 DUP5 DUP1 SWAP3 PUSH2 0x2528 JUMP JUMPDEST PUSH2 0x226 SWAP1 PUSH2 0x2532 JUMP JUMPDEST PUSH2 0x256C PUSH2 0x226 SWAP2 PUSH2 0x2564 PUSH1 0x60 SWAP1 JUMP JUMPDEST POP PUSH1 0x13 PUSH2 0xE7C JUMP JUMPDEST PUSH2 0x254C JUMP JUMPDEST PUSH2 0x226 SWAP1 PUSH1 0x8 SHR PUSH2 0x59F JUMP JUMPDEST PUSH2 0x226 SWAP1 SLOAD PUSH2 0x2571 JUMP JUMPDEST SWAP1 PUSH2 0x210 PUSH2 0x2672 PUSH1 0x8 PUSH2 0x2598 PUSH2 0x2175 JUMP JUMPDEST SWAP5 PUSH2 0x25A9 PUSH2 0x25A5 DUP3 PUSH2 0x464 JUMP JUMPDEST DUP8 MSTORE JUMP JUMPDEST PUSH2 0x25D0 PUSH2 0x25C0 PUSH1 0x1 DUP4 ADD SLOAD PUSH1 0x1 PUSH1 0x1 PUSH1 0xA0 SHL SUB AND SWAP1 JUMP JUMPDEST PUSH1 0x1 PUSH1 0x1 PUSH1 0xA0 SHL SUB AND PUSH1 0x20 DUP9 ADD MSTORE JUMP JUMPDEST PUSH2 0x25E6 PUSH2 0x25DF PUSH1 0x2 DUP4 ADD PUSH2 0x579 JUMP JUMPDEST PUSH1 0x40 DUP9 ADD MSTORE JUMP JUMPDEST PUSH2 0x25FC PUSH2 0x25F5 PUSH1 0x3 DUP4 ADD PUSH2 0x579 JUMP JUMPDEST PUSH1 0x60 DUP9 ADD MSTORE JUMP JUMPDEST PUSH2 0x2612 PUSH2 0x260B PUSH1 0x4 DUP4 ADD PUSH2 0x579 JUMP JUMPDEST PUSH1 0x80 DUP9 ADD MSTORE JUMP JUMPDEST PUSH2 0x2628 PUSH2 0x2621 PUSH1 0x5 DUP4 ADD PUSH2 0x579 JUMP JUMPDEST PUSH1 0xA0 DUP9 ADD MSTORE JUMP JUMPDEST PUSH2 0x263E PUSH2 0x2637 PUSH1 0x6 DUP4 ADD PUSH2 0x464 JUMP JUMPDEST PUSH1 0xC0 DUP9 ADD MSTORE JUMP JUMPDEST PUSH2 0x2654 PUSH2 0x264D PUSH1 0x7 DUP4 ADD PUSH2 0x464 JUMP JUMPDEST PUSH1 0xE0 DUP9 ADD MSTORE JUMP JUMPDEST PUSH2 0x266C PUSH2 0x2662 DUP4 DUP4 ADD PUSH2 0x5A5 JUMP JUMPDEST PUSH2 0x100 DUP9 ADD PUSH2 0x2180 JUMP JUMPDEST ADD PUSH2 0x257D JUMP JUMPDEST PUSH2 0x120 DUP5 ADD PUSH2 0x219E JUMP JUMPDEST PUSH2 0x226 SWAP1 PUSH2 0x2587 JUMP JUMPDEST SWAP1 POP MLOAD SWAP1 PUSH2 0x210 DUP3 PUSH2 0x2FD JUMP JUMPDEST SWAP1 PUSH1 0x20 DUP3 DUP3 SUB SLT PUSH2 0x1FE JUMPI PUSH2 0x226 SWAP2 PUSH2 0x2685 JUMP JUMPDEST DUP2 DUP2 MUL SWAP3 SWAP2 DUP2 ISZERO SWAP2 DUP5 DIV EQ OR ISZERO PUSH2 0x1FD9 JUMPI JUMP JUMPDEST ISZERO PUSH2 0x26C0 JUMPI JUMP JUMPDEST PUSH1 0x40 MLOAD PUSH3 0x461BCD PUSH1 0xE5 SHL DUP2 MSTORE PUSH1 0x20 PUSH1 0x4 DUP3 ADD MSTORE PUSH1 0x11 PUSH1 0x24 DUP3 ADD MSTORE PUSH17 0x105B1B1BDDD85B98D9481B9BDD081CD95D PUSH1 0x7A SHL PUSH1 0x44 DUP3 ADD MSTORE PUSH1 0x64 SWAP1 REVERT JUMPDEST SWAP1 POP MLOAD SWAP1 PUSH2 0x210 DUP3 PUSH2 0x86D JUMP JUMPDEST SWAP1 PUSH1 0x20 DUP3 DUP3 SUB SLT PUSH2 0x1FE JUMPI PUSH2 0x226 SWAP2 PUSH2 0x26F9 JUMP JUMPDEST PUSH2 0x229 SWAP1 PUSH2 0xD9D JUMP JUMPDEST PUSH1 0x1 PUSH1 0x1 PUSH1 0xA0 SHL SUB SWAP1 SWAP2 AND DUP2 MSTORE PUSH1 0x60 DUP2 ADD SWAP4 SWAP3 PUSH2 0x210 SWAP3 SWAP1 SWAP2 PUSH1 0x40 SWAP2 PUSH2 0x274D SWAP1 PUSH1 0x20 DUP4 ADD SWAP1 PUSH2 0x271A JUMP JUMPDEST ADD MSTORE JUMP JUMPDEST ISZERO PUSH2 0x2758 JUMPI JUMP JUMPDEST PUSH1 0x40 MLOAD PUSH3 0x461BCD PUSH1 0xE5 SHL DUP2 MSTORE PUSH1 0x20 PUSH1 0x4 DUP3 ADD MSTORE PUSH1 0xF PUSH1 0x24 DUP3 ADD MSTORE PUSH15 0x151C985B9CD9995C8819985A5B1959 PUSH1 0x8A SHL PUSH1 0x44 DUP3 ADD MSTORE PUSH1 0x64 SWAP1 REVERT JUMPDEST PUSH2 0x27A2 PUSH2 0x279D DUP3 PUSH1 0x12 PUSH2 0x445 JUMP JUMPDEST PUSH2 0x267C JUMP JUMPDEST SWAP1 PUSH2 0x27E0 PUSH2 0x27BB PUSH2 0x16F9 PUSH1 0xC SLOAD PUSH1 0x1 PUSH1 0x1 PUSH1 0xA0 SHL SUB AND SWAP1 JUMP JUMPDEST CALLER SWAP4 PUSH1 0x20 PUSH4 0xDD62ED3E PUSH2 0x27CD ADDRESS PUSH2 0xD9D JUMP JUMPDEST SWAP4 PUSH2 0x27D7 PUSH1 0x40 MLOAD SWAP1 JUMP JUMPDEST SWAP6 DUP7 SWAP3 PUSH1 0xE0 SHL SWAP1 JUMP JUMPDEST DUP3 MSTORE PUSH1 0x1 PUSH1 0x1 PUSH1 0xA0 SHL SUB DUP9 DUP2 AND PUSH1 0x4 DUP5 ADD MSTORE DUP6 AND PUSH1 0x24 DUP4 ADD MSTORE PUSH1 0x44 SWAP1 DUP3 SWAP1 GAS STATICCALL SWAP3 DUP4 ISZERO PUSH2 0x2944 JUMPI PUSH1 0x0 SWAP4 PUSH2 0x2949 JUMPI JUMPDEST POP PUSH1 0xC0 PUSH1 0x20 SWAP2 ADD PUSH2 0x284B PUSH2 0x2821 DUP3 MLOAD SWAP1 JUMP JUMPDEST SWAP5 PUSH2 0x2844 PUSH2 0x175B PUSH2 0x226 PUSH8 0xDE0B6B3A7640000 SWAP9 PUSH2 0x283E DUP11 PUSH2 0x438 JUMP JUMPDEST SWAP1 PUSH2 0x26A6 JUMP JUMPDEST LT ISZERO PUSH2 0x26B9 JUMP JUMPDEST PUSH2 0x2860 PUSH2 0x16F9 PUSH1 0xC SLOAD PUSH1 0x1 PUSH1 0x1 PUSH1 0xA0 SHL SUB AND SWAP1 JUMP JUMPDEST PUSH2 0x28AB PUSH1 0x0 PUSH2 0x2891 PUSH4 0x23B872DD SWAP8 PUSH2 0x283E PUSH2 0x288B PUSH2 0x2886 PUSH1 0xE SLOAD PUSH1 0x1 PUSH1 0x1 PUSH1 0xA0 SHL SUB AND SWAP1 JUMP JUMPDEST SWAP8 MLOAD SWAP1 JUMP JUMPDEST SWAP2 PUSH2 0x438 JUMP JUMPDEST SWAP7 PUSH2 0x28B7 PUSH2 0x289E PUSH1 0x40 MLOAD SWAP1 JUMP JUMPDEST SWAP9 DUP10 SWAP7 DUP8 SWAP6 DUP7 SWAP5 PUSH1 0xE0 SHL SWAP1 JUMP JUMPDEST DUP5 MSTORE DUP13 PUSH1 0x4 DUP6 ADD PUSH2 0x2723 JUMP JUMPDEST SUB SWAP3 GAS CALL DUP1 ISZERO PUSH2 0x2944 JUMPI DUP5 SWAP4 PUSH2 0x28DC PUSH2 0x28E1 SWAP3 PUSH2 0x28E9 SWAP6 PUSH1 0x0 SWAP2 PUSH2 0x2916 JUMPI JUMPDEST POP PUSH2 0x2751 JUMP JUMPDEST PUSH2 0x2A31 JUMP JUMPDEST SWAP4 DUP5 SWAP2 PUSH2 0x13C5 JUMP JUMPDEST PUSH2 0x197D PUSH2 0x1973 PUSH32 0xDBD06C5B09E89A22B08C07AA17DFC71D3F3741D98AD99285BE427C36017340E6 SWAP3 PUSH2 0xD9D JUMP JUMPDEST PUSH2 0x2937 SWAP2 POP PUSH1 0x20 RETURNDATASIZE DUP2 GT PUSH2 0x293D JUMPI JUMPDEST PUSH2 0x292F DUP2 DUP4 PUSH2 0x552 JUMP JUMPDEST DUP2 ADD SWAP1 PUSH2 0x2706 JUMP JUMPDEST CODESIZE PUSH2 0x28D6 JUMP JUMPDEST POP RETURNDATASIZE PUSH2 0x2925 JUMP JUMPDEST PUSH2 0x169E JUMP JUMPDEST PUSH1 0x20 SWAP2 SWAP4 POP PUSH2 0x296F PUSH1 0xC0 SWAP2 DUP4 RETURNDATASIZE DUP2 GT PUSH2 0x2977 JUMPI JUMPDEST PUSH2 0x2967 DUP2 DUP4 PUSH2 0x552 JUMP JUMPDEST DUP2 ADD SWAP1 PUSH2 0x2692 JUMP JUMPDEST SWAP4 SWAP2 POP PUSH2 0x280F JUMP JUMPDEST POP RETURNDATASIZE PUSH2 0x295D JUMP JUMPDEST PUSH2 0x226 PUSH2 0x100 PUSH2 0x8BE JUMP JUMPDEST PUSH2 0x210 SWAP2 SWAP1 PUSH2 0x2A21 SWAP1 PUSH1 0xE0 SWAP1 PUSH1 0x7 SWAP1 PUSH2 0x29A4 DUP2 PUSH2 0x147F DUP8 MLOAD SWAP1 JUMP JUMPDEST PUSH2 0x29BF PUSH1 0x1 DUP3 ADD PUSH2 0x2379 PUSH1 0x20 DUP9 ADD MLOAD PUSH1 0x1 PUSH1 0x1 PUSH1 0xA0 SHL SUB AND SWAP1 JUMP JUMPDEST PUSH2 0x29D1 PUSH1 0x2 DUP3 ADD PUSH2 0x2391 PUSH1 0x40 DUP9 ADD MLOAD SWAP1 JUMP JUMPDEST PUSH2 0x29E3 PUSH1 0x3 DUP3 ADD PUSH2 0x2391 PUSH1 0x60 DUP9 ADD MLOAD SWAP1 JUMP JUMPDEST PUSH2 0x29F5 PUSH1 0x4 DUP3 ADD PUSH2 0x2391 PUSH1 0x80 DUP9 ADD MLOAD SWAP1 JUMP JUMPDEST PUSH2 0x2A07 PUSH1 0x5 DUP3 ADD PUSH2 0x2391 PUSH1 0xA0 DUP9 ADD MLOAD SWAP1 JUMP JUMPDEST PUSH2 0x2A19 PUSH1 0x6 DUP3 ADD PUSH2 0x147F PUSH1 0xC0 DUP9 ADD MLOAD SWAP1 JUMP JUMPDEST ADD SWAP3 ADD PUSH2 0x22F1 JUMP JUMPDEST SWAP1 PUSH2 0x22FB JUMP JUMPDEST SWAP1 PUSH2 0x210 SWAP2 PUSH2 0x2989 JUMP JUMPDEST PUSH2 0x2A3C SWAP1 PUSH1 0x12 PUSH2 0x445 JUMP JUMPDEST PUSH2 0x2A45 SWAP1 PUSH2 0x267C JUMP JUMPDEST PUSH2 0x2A4F PUSH1 0x10 PUSH2 0x464 JUMP JUMPDEST SWAP1 PUSH2 0x2A59 DUP3 PUSH2 0x2166 JUMP JUMPDEST PUSH2 0x2A64 SWAP1 PUSH1 0x10 PUSH2 0x13AE JUMP JUMPDEST PUSH1 0x20 DUP2 ADD MLOAD PUSH1 0x1 PUSH1 0x1 PUSH1 0xA0 SHL SUB AND SWAP1 PUSH1 0x40 DUP2 ADD MLOAD SWAP1 PUSH1 0x60 DUP2 ADD MLOAD PUSH1 0x80 DUP3 ADD MLOAD PUSH1 0xA0 DUP4 ADD MLOAD SWAP2 PUSH1 0xC0 DUP5 ADD PUSH2 0x2A95 SWAP1 MLOAD SWAP1 JUMP JUMPDEST SWAP4 PUSH2 0x100 ADD PUSH2 0x2AA3 SWAP1 PUSH2 0x22F1 JUMP JUMPDEST SWAP5 PUSH2 0x2AAC PUSH2 0x297E JUMP JUMPDEST SWAP7 PUSH2 0x2AB5 DUP10 DUP10 MSTORE JUMP JUMPDEST PUSH1 0x1 PUSH1 0x1 PUSH1 0xA0 SHL SUB AND PUSH1 0x20 DUP9 ADD MSTORE PUSH1 0x40 DUP8 ADD MSTORE PUSH1 0x60 DUP7 ADD MSTORE PUSH1 0x80 DUP6 ADD MSTORE PUSH1 0xA0 DUP5 ADD MSTORE PUSH1 0xC0 DUP4 ADD MSTORE PUSH2 0x2AE9 SWAP1 PUSH1 0xE0 DUP4 ADD PUSH2 0x2180 JUMP JUMPDEST DUP1 PUSH2 0x2AF5 DUP4 PUSH1 0x14 PUSH2 0x445 JUMP JUMPDEST SWAP1 PUSH2 0x2AFF SWAP2 PUSH2 0x2A27 JUMP JUMPDEST DUP2 PUSH2 0x2B09 ADDRESS PUSH2 0xD9D JUMP JUMPDEST SWAP1 PUSH2 0x2B13 SWAP2 PUSH2 0x2BF5 JUMP JUMPDEST PUSH1 0x20 DUP2 ADD MLOAD PUSH1 0x1 PUSH1 0x1 PUSH1 0xA0 SHL SUB AND SWAP1 PUSH1 0x40 DUP2 ADD MLOAD SWAP1 PUSH1 0x60 DUP2 ADD MLOAD PUSH1 0x80 DUP3 ADD MLOAD SWAP1 PUSH1 0xA0 DUP4 ADD MLOAD SWAP3 PUSH1 0xE0 ADD PUSH2 0x2B45 SWAP1 PUSH2 0x22F1 JUMP JUMPDEST SWAP4 PUSH2 0x2B4F SWAP6 PUSH2 0x2E8B JUMP JUMPDEST PUSH2 0x226 SWAP1 DUP3 PUSH2 0x2CD0 JUMP JUMPDEST ISZERO PUSH2 0x2B60 JUMPI JUMP JUMPDEST PUSH1 0x40 MLOAD PUSH3 0x461BCD PUSH1 0xE5 SHL DUP2 MSTORE DUP1 PUSH2 0xC99 PUSH1 0x4 DUP3 ADD PUSH1 0x20 DUP1 DUP3 MSTORE DUP2 DUP2 ADD MSTORE PUSH32 0x4552433732313A206D696E7420746F20746865207A65726F2061646472657373 PUSH1 0x40 DUP3 ADD MSTORE PUSH1 0x60 ADD SWAP1 JUMP JUMPDEST ISZERO PUSH2 0x2BB0 JUMPI JUMP JUMPDEST PUSH1 0x40 MLOAD PUSH3 0x461BCD PUSH1 0xE5 SHL DUP2 MSTORE PUSH1 0x20 PUSH1 0x4 DUP3 ADD MSTORE PUSH1 0x1C PUSH1 0x24 DUP3 ADD MSTORE PUSH32 0x4552433732313A20746F6B656E20616C7265616479206D696E74656400000000 PUSH1 0x44 DUP3 ADD MSTORE PUSH1 0x64 SWAP1 REVERT JUMPDEST SWAP1 PUSH2 0x2C00 PUSH1 0x0 PUSH2 0xC26 JUMP JUMPDEST SWAP2 PUSH2 0x2C1F PUSH1 0x1 PUSH1 0x1 PUSH1 0xA0 SHL SUB DUP5 AND PUSH1 0x1 PUSH1 0x1 PUSH1 0xA0 SHL SUB DUP4 AND EQ ISZERO PUSH2 0x2B59 JUMP JUMPDEST PUSH2 0x2C37 PUSH2 0x2C32 PUSH2 0x2C2E DUP5 PUSH2 0x162C JUMP JUMPDEST ISZERO SWAP1 JUMP JUMPDEST PUSH2 0x2BA9 JUMP JUMPDEST PUSH2 0x148F PUSH2 0x2C44 PUSH1 0x1 PUSH2 0x438 JUMP JUMPDEST PUSH2 0x2C50 DUP2 DUP6 DUP6 DUP9 PUSH2 0x1DF9 JUMP JUMPDEST PUSH2 0x2C5F PUSH2 0x2C32 PUSH2 0x2C2E DUP7 PUSH2 0x162C JUMP JUMPDEST PUSH2 0x147F PUSH2 0x1485 DUP5 PUSH1 0x3 PUSH2 0xE7C JUMP JUMPDEST ISZERO PUSH2 0x2C74 JUMPI JUMP JUMPDEST PUSH1 0x40 MLOAD PUSH3 0x461BCD PUSH1 0xE5 SHL DUP2 MSTORE PUSH1 0x20 PUSH1 0x4 DUP3 ADD MSTORE PUSH1 0x2E PUSH1 0x24 DUP3 ADD MSTORE PUSH32 0x45524337323155524953746F726167653A2055524920736574206F66206E6F6E PUSH1 0x44 DUP3 ADD MSTORE PUSH14 0x32BC34B9BA32B73A103A37B5B2B7 PUSH1 0x91 SHL PUSH1 0x64 DUP3 ADD MSTORE PUSH1 0x84 SWAP1 REVERT JUMPDEST SWAP1 PUSH2 0x2CF6 SWAP1 PUSH2 0x2CE6 PUSH2 0x2CE1 DUP5 PUSH2 0x162C JUMP JUMPDEST PUSH2 0x2C6D JUMP JUMPDEST PUSH2 0x2CF1 DUP4 PUSH1 0x6 PUSH2 0x445 JUMP JUMPDEST PUSH2 0x22E7 JUMP JUMPDEST PUSH2 0x2D24 PUSH32 0xF8E1A15ABA9398E019F0B49DF1A4FDE98EE17AE345CB5F6B5E2C27F5033E8CE7 SWAP2 PUSH2 0x3E2 PUSH1 0x40 MLOAD SWAP1 JUMP JUMPDEST SUB SWAP1 LOG1 JUMP JUMPDEST PUSH2 0x229 SWAP1 PUSH1 0x1 PUSH1 0x1 PUSH1 0xA0 SHL SUB AND PUSH1 0x60 SHL SWAP1 JUMP JUMPDEST PUSH2 0x2D48 PUSH2 0x229 SWAP2 PUSH2 0x655 JUMP JUMPDEST PUSH1 0xF8 SHL SWAP1 JUMP JUMPDEST PUSH2 0x2DD5 PUSH2 0x2E4E SWAP7 PUSH2 0x1A8E PUSH2 0x2E12 PUSH2 0x2DD5 PUSH1 0x1 SWAP10 PUSH2 0x1A8E PUSH2 0x2DFD PUSH2 0x2DD5 PUSH2 0x226 SWAP16 SWAP13 PUSH2 0x1A8E PUSH2 0x2DE2 PUSH2 0x2DD5 PUSH2 0x2DB3 SWAP16 PUSH2 0x2E47 SWAP16 PUSH2 0x2E2E SWAP16 PUSH1 0x14 PUSH2 0x1A8E SWAP3 PUSH2 0x2DB3 PUSH2 0x2DAC PUSH2 0x2DC1 SWAP5 PUSH12 0x3D9131B932B0BA37B9111D11 PUSH1 0xA1 SHL DUP2 MSTORE PUSH1 0xC ADD SWAP1 JUMP JUMPDEST DUP1 SWAP3 PUSH2 0x2D29 JUMP JUMPDEST ADD PUSH1 0x11 PUSH1 0xF9 SHL DUP2 MSTORE PUSH1 0x1 ADD SWAP1 JUMP JUMPDEST PUSH8 0x113730B6B2911D11 PUSH1 0xC1 SHL DUP2 MSTORE PUSH1 0x8 ADD SWAP1 JUMP JUMPDEST PUSH1 0x11 PUSH1 0xF9 SHL DUP2 MSTORE PUSH1 0x1 ADD SWAP1 JUMP JUMPDEST PUSH15 0x113232B9B1B934B83A34B7B7111D11 PUSH1 0x89 SHL DUP2 MSTORE PUSH1 0xF ADD SWAP1 JUMP JUMPDEST PUSH9 0x1134B6B0B3B2911D11 PUSH1 0xB9 SHL DUP2 MSTORE PUSH1 0x9 ADD SWAP1 JUMP JUMPDEST PUSH16 0x1132BC3A32B93730B62FBAB936111D11 PUSH1 0x81 SHL DUP2 MSTORE PUSH1 0x10 ADD SWAP1 JUMP JUMPDEST PUSH13 0x1136B2B234B0AA3CB832911D11 PUSH1 0x99 SHL DUP2 MSTORE PUSH1 0xD ADD SWAP1 JUMP JUMPDEST DUP1 SWAP3 PUSH2 0x2D3C JUMP JUMPDEST PUSH1 0x7D PUSH1 0xF8 SHL DUP2 MSTORE PUSH1 0x1 ADD SWAP1 JUMP JUMPDEST PUSH32 0x646174613A6170706C69636174696F6E2F6A736F6E3B6261736536342C000000 DUP2 MSTORE PUSH2 0x226 SWAP2 SWAP1 PUSH1 0x1D ADD PUSH2 0x1A8E JUMP JUMPDEST PUSH2 0x1B10 PUSH2 0x226 SWAP7 PUSH2 0x2EBA SWAP7 PUSH2 0x2EB5 SWAP6 SWAP7 PUSH2 0x2EA3 PUSH1 0x60 SWAP1 JUMP JUMPDEST POP PUSH1 0x40 MLOAD SWAP8 DUP9 SWAP7 PUSH1 0x20 DUP9 ADD SWAP7 DUP8 PUSH2 0x2D4E JUMP JUMPDEST PUSH2 0x2F4C JUMP JUMPDEST PUSH2 0x226 PUSH2 0x2EC6 PUSH1 0x40 MLOAD SWAP1 JUMP JUMPDEST DUP1 SWAP3 PUSH2 0x1B10 PUSH1 0x20 DUP4 ADD SWAP2 DUP3 PUSH2 0x2E5B JUMP JUMPDEST PUSH2 0x2EE0 PUSH1 0x40 PUSH2 0x115F JUMP JUMPDEST PUSH32 0x4142434445464748494A4B4C4D4E4F505152535455565758595A616263646566 PUSH1 0x20 DUP3 ADD MSTORE PUSH32 0x6768696A6B6C6D6E6F707172737475767778797A303132333435363738392B2F PUSH1 0x40 DUP3 ADD MSTORE SWAP1 JUMP JUMPDEST PUSH2 0x226 PUSH2 0x2ED6 JUMP JUMPDEST PUSH2 0x226 PUSH2 0x2F2F JUMP JUMPDEST SWAP2 SWAP1 DUP3 ADD DUP1 SWAP3 GT PUSH2 0x1FD9 JUMPI JUMP JUMPDEST DUP1 MLOAD PUSH2 0x2F5B PUSH2 0x175B PUSH1 0x0 PUSH2 0x438 JUMP JUMPDEST EQ PUSH2 0x1B73 JUMPI PUSH2 0x2F68 PUSH2 0x2F37 JUMP JUMPDEST SWAP1 PUSH1 0x4 PUSH2 0x2F73 DUP3 MLOAD SWAP1 JUMP JUMPDEST SWAP1 PUSH1 0x1 PUSH2 0x2FAE PUSH2 0x2FA9 PUSH2 0x2F91 PUSH1 0x2 SWAP6 PUSH2 0x2F8B DUP8 PUSH2 0x438 JUMP JUMPDEST SWAP1 PUSH2 0x2F3F JUMP JUMPDEST SWAP4 PUSH2 0x2FA4 PUSH2 0x288B PUSH1 0x3 SWAP7 PUSH2 0x1C2E DUP9 PUSH2 0x438 JUMP JUMPDEST PUSH2 0x26A6 JUMP JUMPDEST PUSH2 0x1B81 JUMP JUMPDEST SWAP5 ADD SWAP3 PUSH1 0x20 DUP6 ADD SWAP4 DUP2 SWAP1 DUP3 MLOAD DUP4 ADD SWAP2 JUMPDEST DUP3 DUP2 LT PUSH2 0x2FF9 JUMPI POP POP POP MLOAD MOD SWAP1 DUP2 PUSH1 0x1 EQ PUSH2 0x2FE9 JUMPI POP PUSH1 0x2 EQ PUSH2 0x2FDF JUMPI POP SWAP1 JUMP JUMPDEST PUSH1 0x1 PUSH1 0x3D SWAP2 SUB MSTORE8 SWAP1 JUMP JUMPDEST SWAP1 POP DUP2 PUSH1 0x3D PUSH1 0x1 DUP2 SWAP5 SUB MSTORE8 SUB MSTORE8 SWAP1 JUMP JUMPDEST DUP5 PUSH1 0x1 SWAP2 SWAP8 SWAP3 SWAP4 SWAP8 ADD SWAP2 PUSH1 0x3F DUP3 DUP1 DUP1 DUP7 MLOAD SWAP5 DUP5 DUP7 PUSH1 0x12 SHR AND DUP10 ADD MLOAD DUP2 MSTORE8 ADD DUP4 DUP6 PUSH1 0xC SHR AND DUP9 ADD MLOAD DUP2 MSTORE8 ADD DUP3 DUP5 PUSH1 0x6 SHR AND DUP8 ADD MLOAD DUP2 MSTORE8 ADD SWAP2 AND DUP5 ADD MLOAD DUP2 MSTORE8 ADD SWAP6 SWAP2 SWAP1 PUSH2 0x2FBE JUMP JUMPDEST SWAP1 PUSH2 0x210 SWAP2 PUSH2 0x304C PUSH2 0xC9D JUMP JUMPDEST PUSH2 0x30EA JUMP JUMPDEST PUSH1 0x1 PUSH1 0x1 PUSH1 0xA0 SHL SUB SWAP1 SWAP2 AND DUP2 MSTORE PUSH1 0x40 DUP2 ADD SWAP3 SWAP2 PUSH2 0x210 SWAP2 PUSH1 0x20 ADD MSTORE JUMP JUMPDEST PUSH1 0x1 PUSH1 0x1 PUSH1 0xA0 SHL SUB SWAP2 DUP3 AND DUP2 MSTORE SWAP2 AND PUSH1 0x20 DUP3 ADD MSTORE PUSH1 0x60 DUP2 ADD SWAP3 SWAP2 PUSH2 0x210 SWAP2 PUSH1 0x40 ADD MSTORE JUMP JUMPDEST ISZERO PUSH2 0x3099 JUMPI JUMP JUMPDEST PUSH1 0x40 MLOAD PUSH3 0x461BCD PUSH1 0xE5 SHL DUP2 MSTORE PUSH1 0x20 PUSH1 0x4 DUP3 ADD MSTORE PUSH1 0x24 DUP1 DUP3 ADD MSTORE PUSH32 0x496E73756666696369656E74204554482062616C616E636520696E20636F6E74 PUSH1 0x44 DUP3 ADD MSTORE PUSH4 0x1C9858DD PUSH1 0xE2 SHL PUSH1 0x64 DUP3 ADD MSTORE PUSH1 0x84 SWAP1 REVERT JUMPDEST SWAP1 PUSH1 0x0 PUSH2 0x30F9 PUSH2 0x324 DUP3 PUSH2 0xC26 JUMP JUMPDEST PUSH1 0x1 PUSH1 0x1 PUSH1 0xA0 SHL SUB DUP5 AND SUB PUSH2 0x3192 JUMPI PUSH2 0x311E PUSH2 0x3114 ADDRESS PUSH2 0xD9D JUMP JUMPDEST DUP4 SWAP1 BALANCE LT ISZERO PUSH2 0x3092 JUMP JUMPDEST DUP1 DUP1 DUP1 DUP5 PUSH2 0x313A PUSH2 0x16F9 PUSH2 0x16F9 PUSH1 0xB SLOAD PUSH1 0x1 PUSH1 0x1 PUSH1 0xA0 SHL SUB AND SWAP1 JUMP JUMPDEST DUP3 DUP3 ISZERO PUSH2 0x3189 JUMPI JUMPDEST CALL ISZERO PUSH2 0x2944 JUMPI PUSH32 0xFFF3B3844276F57024E0B42AFEC1A37F75DB36511E43819A4F2A63AB7862B648 SWAP1 PUSH2 0x3173 CALLER PUSH2 0xD9D JUMP JUMPDEST SWAP3 PUSH2 0x197D PUSH2 0x3180 PUSH1 0x40 MLOAD SWAP1 JUMP JUMPDEST SWAP3 DUP4 SWAP3 DUP4 PUSH2 0x3051 JUMP JUMPDEST POP PUSH2 0x8FC PUSH2 0x3142 JUMP JUMPDEST DUP2 PUSH1 0x20 PUSH2 0x31A1 PUSH2 0x16F9 DUP7 PUSH2 0xD9D JUMP JUMPDEST PUSH4 0xA9059CBB SWAP1 PUSH2 0x31D7 DUP6 PUSH2 0x31BD PUSH1 0xB SLOAD PUSH1 0x1 PUSH1 0x1 PUSH1 0xA0 SHL SUB AND SWAP1 JUMP JUMPDEST SWAP4 PUSH2 0x31E2 PUSH2 0x31CA PUSH1 0x40 MLOAD SWAP1 JUMP JUMPDEST SWAP8 DUP9 SWAP7 DUP8 SWAP6 DUP7 SWAP5 PUSH1 0xE0 SHL SWAP1 JUMP JUMPDEST DUP5 MSTORE PUSH1 0x4 DUP5 ADD PUSH2 0x3051 JUMP JUMPDEST SUB SWAP3 GAS CALL SWAP1 DUP2 PUSH2 0x3341 JUMPI JUMPDEST POP ISZERO DUP2 EQ PUSH2 0x3315 JUMPI PUSH2 0x3201 PUSH2 0x16F9 DUP5 PUSH2 0xD9D JUMP JUMPDEST PUSH4 0x42842E0E PUSH2 0x320F ADDRESS PUSH2 0xD9D JUMP JUMPDEST PUSH1 0xB SLOAD PUSH1 0x1 PUSH1 0x1 PUSH1 0xA0 SHL SUB AND SWAP3 DUP1 EXTCODESIZE ISZERO PUSH2 0x1FE JUMPI PUSH2 0x3243 DUP6 DUP1 SWAP5 PUSH2 0x324E DUP10 PUSH2 0x3236 PUSH1 0x40 MLOAD SWAP1 JUMP JUMPDEST SWAP9 DUP10 SWAP8 DUP9 SWAP7 DUP8 SWAP6 PUSH1 0xE0 SHL SWAP1 JUMP JUMPDEST DUP6 MSTORE PUSH1 0x4 DUP6 ADD PUSH2 0x306E JUMP JUMPDEST SUB SWAP3 GAS CALL SWAP1 DUP2 PUSH2 0x32E9 JUMPI JUMPDEST POP ISZERO EQ PUSH2 0x32BE JUMPI PUSH1 0x40 MLOAD PUSH3 0x461BCD PUSH1 0xE5 SHL DUP2 MSTORE PUSH1 0x20 PUSH1 0x4 DUP3 ADD MSTORE PUSH1 0x30 PUSH1 0x24 DUP3 ADD MSTORE PUSH32 0x546F6B656E2074797065206E6F7420737570706F72746564206F7220696E7375 PUSH1 0x44 DUP3 ADD MSTORE PUSH16 0x6666696369656E742062616C616E6365 PUSH1 0x80 SHL PUSH1 0x64 DUP3 ADD MSTORE PUSH1 0x84 SWAP1 REVERT JUMPDEST PUSH32 0xFFF3B3844276F57024E0B42AFEC1A37F75DB36511E43819A4F2A63AB7862B648 SWAP1 PUSH2 0x3173 CALLER PUSH2 0xD9D JUMP JUMPDEST PUSH2 0x3308 SWAP1 DUP4 RETURNDATASIZE DUP6 GT PUSH2 0x330E JUMPI JUMPDEST PUSH2 0x3300 DUP2 DUP4 PUSH2 0x552 JUMP JUMPDEST DUP2 ADD SWAP1 PUSH2 0x25F JUMP JUMPDEST CODESIZE PUSH2 0x3259 JUMP JUMPDEST POP RETURNDATASIZE PUSH2 0x32F6 JUMP JUMPDEST POP PUSH32 0xFFF3B3844276F57024E0B42AFEC1A37F75DB36511E43819A4F2A63AB7862B648 SWAP1 PUSH2 0x3173 CALLER PUSH2 0xD9D JUMP JUMPDEST PUSH2 0x3358 SWAP1 PUSH1 0x20 RETURNDATASIZE DUP2 GT PUSH2 0x293D JUMPI PUSH2 0x292F DUP2 DUP4 PUSH2 0x552 JUMP JUMPDEST PUSH2 0x31ED JUMP JUMPDEST SWAP1 PUSH2 0x210 SWAP2 PUSH2 0x303F JUMP INVALID LOG2 PUSH5 0x6970667358 0x22 SLT KECCAK256 CODECOPY JUMP 0xE4 PUSH12 0xD3AB5A18D9FD8C5EBF3B7B59 PUSH18 0xA01EC997A82E51AD2A93B9BDD5C85C64736F PUSH13 0x63430008130033000000000000 "},"methodIdentifiers":{"approve(address,uint256)":"095ea7b3","balanceOf(address)":"70a08231","buyNFT(uint256)":"51ed8288","getApproved(uint256)":"081812fc","getNFTsByCreator(address)":"ffa03821","isApprovedForAll(address,address)":"e985e9c5","name()":"06fdde03","nextNFTId()":"c909adc0","nextSourceId()":"926061f0","nfts(uint256)":"265aa621","owner()":"8da5cb5b","ownerOf(uint256)":"6352211e","renounceOwnership()":"715018a6","safeTransferFrom(address,address,uint256)":"42842e0e","safeTransferFrom(address,address,uint256,bytes)":"b88d4fde","setApprovalForAll(address,bool)":"a22cb465","setBlockFans(address)":"ba908b45","setCreators(address)":"fa3157d5","setNFTSource(string,string,string,string,uint256,uint256,uint8)":"abd48199","supportsInterface(bytes4)":"01ffc9a7","symbol()":"95d89b41","tokenByIndex(uint256)":"4f6ccce7","tokenOfOwnerByIndex(address,uint256)":"2f745c59","tokenURI(uint256)":"c87b56dd","totalSupply()":"18160ddd","transferFrom(address,address,uint256)":"23b872dd","transferOwnership(address)":"f2fde38b","withdraw(address,uint256)":"f3fef3a3"}}}}}