{"contracts/CreatorsNFT.sol":{"CreatorsNFT":{"abi":[{"inputs":[],"stateMutability":"nonpayable","type":"constructor"},{"anonymous":false,"inputs":[{"indexed":true,"internalType":"address","name":"owner","type":"address"},{"indexed":true,"internalType":"address","name":"approved","type":"address"},{"indexed":true,"internalType":"uint256","name":"tokenId","type":"uint256"}],"name":"Approval","type":"event"},{"anonymous":false,"inputs":[{"indexed":true,"internalType":"address","name":"owner","type":"address"},{"indexed":true,"internalType":"address","name":"operator","type":"address"},{"indexed":false,"internalType":"bool","name":"approved","type":"bool"}],"name":"ApprovalForAll","type":"event"},{"anonymous":false,"inputs":[{"indexed":false,"internalType":"uint256","name":"_fromTokenId","type":"uint256"},{"indexed":false,"internalType":"uint256","name":"_toTokenId","type":"uint256"}],"name":"BatchMetadataUpdate","type":"event"},{"anonymous":false,"inputs":[{"indexed":false,"internalType":"uint256","name":"_tokenId","type":"uint256"}],"name":"MetadataUpdate","type":"event"},{"anonymous":false,"inputs":[{"indexed":true,"internalType":"address","name":"buyer","type":"address"},{"indexed":false,"internalType":"uint256","name":"nftId","type":"uint256"}],"name":"NFTTransferred","type":"event"},{"anonymous":false,"inputs":[{"indexed":true,"internalType":"address","name":"previousOwner","type":"address"},{"indexed":true,"internalType":"address","name":"newOwner","type":"address"}],"name":"OwnershipTransferred","type":"event"},{"anonymous":false,"inputs":[{"indexed":true,"internalType":"address","name":"from","type":"address"},{"indexed":false,"internalType":"uint256","name":"amount","type":"uint256"}],"name":"Received","type":"event"},{"anonymous":false,"inputs":[{"indexed":true,"internalType":"address","name":"sender","type":"address"},{"indexed":false,"internalType":"address","name":"tokenAddress","type":"address"},{"indexed":false,"internalType":"uint256","name":"amountOrTokenId","type":"uint256"}],"name":"Recovered","type":"event"},{"anonymous":false,"inputs":[{"indexed":true,"internalType":"address","name":"from","type":"address"},{"indexed":true,"internalType":"address","name":"to","type":"address"},{"indexed":true,"internalType":"uint256","name":"tokenId","type":"uint256"}],"name":"Transfer","type":"event"},{"stateMutability":"payable","type":"fallback"},{"inputs":[{"internalType":"address","name":"to","type":"address"},{"internalType":"uint256","name":"tokenId","type":"uint256"}],"name":"approve","outputs":[],"stateMutability":"nonpayable","type":"function"},{"inputs":[{"internalType":"address","name":"owner","type":"address"}],"name":"balanceOf","outputs":[{"internalType":"uint256","name":"","type":"uint256"}],"stateMutability":"view","type":"function"},{"inputs":[{"internalType":"uint256","name":"sourceId","type":"uint256"}],"name":"buyNFT","outputs":[],"stateMutability":"nonpayable","type":"function"},{"inputs":[{"internalType":"uint256","name":"sourceId","type":"uint256"}],"name":"deleteNFTSource","outputs":[],"stateMutability":"nonpayable","type":"function"},{"inputs":[{"internalType":"uint256","name":"tokenId","type":"uint256"}],"name":"getApproved","outputs":[{"internalType":"address","name":"","type":"address"}],"stateMutability":"view","type":"function"},{"inputs":[{"internalType":"address","name":"creator","type":"address"}],"name":"getNFTDetailsByCreator","outputs":[{"components":[{"internalType":"uint256","name":"sourceId","type":"uint256"},{"internalType":"address","name":"creator","type":"address"},{"internalType":"string","name":"name","type":"string"},{"internalType":"string","name":"description","type":"string"},{"internalType":"string","name":"image","type":"string"},{"internalType":"string","name":"external_url","type":"string"},{"internalType":"uint256","name":"price","type":"uint256"},{"internalType":"uint256","name":"units","type":"uint256"},{"internalType":"enum NFTSource.MediaType","name":"mediaType","type":"uint8"},{"internalType":"enum NFTSource.Status","name":"status","type":"uint8"}],"internalType":"struct NFTSource.Detail[]","name":"","type":"tuple[]"}],"stateMutability":"view","type":"function"},{"inputs":[{"internalType":"address","name":"creator","type":"address"}],"name":"getNFTsByCreator","outputs":[{"internalType":"uint256[]","name":"","type":"uint256[]"}],"stateMutability":"view","type":"function"},{"inputs":[{"internalType":"address","name":"owner","type":"address"},{"internalType":"address","name":"operator","type":"address"}],"name":"isApprovedForAll","outputs":[{"internalType":"bool","name":"","type":"bool"}],"stateMutability":"view","type":"function"},{"inputs":[],"name":"name","outputs":[{"internalType":"string","name":"","type":"string"}],"stateMutability":"view","type":"function"},{"inputs":[],"name":"nextNFTId","outputs":[{"internalType":"uint256","name":"","type":"uint256"}],"stateMutability":"view","type":"function"},{"inputs":[],"name":"nextSourceId","outputs":[{"internalType":"uint256","name":"","type":"uint256"}],"stateMutability":"view","type":"function"},{"inputs":[{"internalType":"uint256","name":"","type":"uint256"}],"name":"nfts","outputs":[{"internalType":"uint256","name":"tokenId","type":"uint256"},{"internalType":"address","name":"creator","type":"address"},{"internalType":"string","name":"name","type":"string"},{"internalType":"string","name":"description","type":"string"},{"internalType":"string","name":"image","type":"string"},{"internalType":"string","name":"external_url","type":"string"},{"internalType":"uint256","name":"price","type":"uint256"},{"internalType":"enum NFTSource.MediaType","name":"mediaType","type":"uint8"}],"stateMutability":"view","type":"function"},{"inputs":[],"name":"owner","outputs":[{"internalType":"address","name":"","type":"address"}],"stateMutability":"view","type":"function"},{"inputs":[{"internalType":"uint256","name":"tokenId","type":"uint256"}],"name":"ownerOf","outputs":[{"internalType":"address","name":"","type":"address"}],"stateMutability":"view","type":"function"},{"inputs":[],"name":"renounceOwnership","outputs":[],"stateMutability":"nonpayable","type":"function"},{"inputs":[{"internalType":"address","name":"from","type":"address"},{"internalType":"address","name":"to","type":"address"},{"internalType":"uint256","name":"tokenId","type":"uint256"}],"name":"safeTransferFrom","outputs":[],"stateMutability":"nonpayable","type":"function"},{"inputs":[{"internalType":"address","name":"from","type":"address"},{"internalType":"address","name":"to","type":"address"},{"internalType":"uint256","name":"tokenId","type":"uint256"},{"internalType":"bytes","name":"data","type":"bytes"}],"name":"safeTransferFrom","outputs":[],"stateMutability":"nonpayable","type":"function"},{"inputs":[{"internalType":"address","name":"operator","type":"address"},{"internalType":"bool","name":"approved","type":"bool"}],"name":"setApprovalForAll","outputs":[],"stateMutability":"nonpayable","type":"function"},{"inputs":[{"internalType":"address","name":"blockFans","type":"address"}],"name":"setBlockFans","outputs":[],"stateMutability":"nonpayable","type":"function"},{"inputs":[{"internalType":"address","name":"creatorsAddress","type":"address"}],"name":"setCreators","outputs":[],"stateMutability":"nonpayable","type":"function"},{"inputs":[{"internalType":"string","name":"name","type":"string"},{"internalType":"string","name":"description","type":"string"},{"internalType":"string","name":"image","type":"string"},{"internalType":"string","name":"external_url","type":"string"},{"internalType":"uint256","name":"price","type":"uint256"},{"internalType":"uint256","name":"units","type":"uint256"},{"internalType":"enum NFTSource.MediaType","name":"mediaType","type":"uint8"}],"name":"setNFTSource","outputs":[],"stateMutability":"nonpayable","type":"function"},{"inputs":[{"internalType":"bytes4","name":"interfaceId","type":"bytes4"}],"name":"supportsInterface","outputs":[{"internalType":"bool","name":"","type":"bool"}],"stateMutability":"view","type":"function"},{"inputs":[],"name":"symbol","outputs":[{"internalType":"string","name":"","type":"string"}],"stateMutability":"view","type":"function"},{"inputs":[{"internalType":"uint256","name":"index","type":"uint256"}],"name":"tokenByIndex","outputs":[{"internalType":"uint256","name":"","type":"uint256"}],"stateMutability":"view","type":"function"},{"inputs":[{"internalType":"address","name":"owner","type":"address"},{"internalType":"uint256","name":"index","type":"uint256"}],"name":"tokenOfOwnerByIndex","outputs":[{"internalType":"uint256","name":"","type":"uint256"}],"stateMutability":"view","type":"function"},{"inputs":[{"internalType":"uint256","name":"tokenId","type":"uint256"}],"name":"tokenURI","outputs":[{"internalType":"string","name":"","type":"string"}],"stateMutability":"view","type":"function"},{"inputs":[],"name":"totalSupply","outputs":[{"internalType":"uint256","name":"","type":"uint256"}],"stateMutability":"view","type":"function"},{"inputs":[{"internalType":"address","name":"from","type":"address"},{"internalType":"address","name":"to","type":"address"},{"internalType":"uint256","name":"tokenId","type":"uint256"}],"name":"transferFrom","outputs":[],"stateMutability":"nonpayable","type":"function"},{"inputs":[{"internalType":"address","name":"newOwner","type":"address"}],"name":"transferOwnership","outputs":[],"stateMutability":"nonpayable","type":"function"},{"inputs":[{"internalType":"address","name":"tokenAddress","type":"address"},{"internalType":"uint256","name":"amountOrTokenId","type":"uint256"}],"name":"withdraw","outputs":[],"stateMutability":"nonpayable","type":"function"},{"stateMutability":"payable","type":"receive"}],"evm":{"bytecode":{"linkReferences":{},"object":"608060405234620000265762000014620001cf565b60405161338f62000500823961338f90f35b600080fd5b634e487b7160e01b600052604160045260246000fd5b90601f01601f191681019081106001600160401b038211176200006357604052565b6200002b565b90620000806200007860405190565b928362000041565b565b6001600160401b0381116200006357602090601f01601f19160190565b90620000b5620000af8362000082565b62000069565b918252565b620000c6600c6200009f565b6b109b1bd8dad9985b9cd3919560a21b602082015290565b620000e8620000ba565b90565b620000f760036200009f565b6221232760e91b602082015290565b620000e8620000eb565b90600019905b9181191691161790565b620000e8620000e8620000e89290565b9062000144620000e86200014c9262000120565b825462000110565b9055565b62000160620000e8620000e89290565b6001600160a01b031690565b620000e89062000150565b620000e89062000160906001600160a01b031682565b620000e89062000177565b620000e8906200018d565b906001600160a01b039062000116565b90620001c7620000e86200014c9262000198565b8254620001a3565b620001ee620001dd620000de565b620001e762000106565b9062000259565b6200020960016200020181600f62000130565b601062000130565b62000080620002516200021d60006200016c565b620002346200022c8262000198565b600e620001b3565b6200024b620002438262000198565b600c620001b3565b62000198565b600d620001b3565b6200008091620002699162000274565b62000080336200049d565b620000809182918291906200046c565b634e487b7160e01b600052602260045260246000fd5b9060016002830492168015620002bd575b6020831014620002b757565b62000284565b91607f1691620002ab565b9160001960089290920291821b911b62000116565b9190620002f2620000e86200014c9362000120565b908354620002c8565b6200008091600091620002dd565b81811062000315575050565b80620003256000600193620002fb565b0162000309565b9190601f81116200033c57505050565b620003506200008093600052602060002090565b906020601f84018190048301931062000374575b6020601f90910104019062000309565b909150819062000364565b9062000389815190565b906001600160401b0382116200006357620003b182620003aa85546200029a565b856200032c565b602090601f8311600114620003f0576200014c929160009183620003e4575b5050600019600883021c1916906002021790565b015190503880620003d0565b601f198316916200040685600052602060002090565b9260005b81811062000447575091600293918560019694106200042d575b50505002019055565b01516000196008601f8516021c1916905538808062000424565b919360206001819287870151815501950192016200040a565b9062000080916200037f565b906200047e6200008092600062000460565b600162000460565b620000e89062000160565b620000e8905462000486565b620004a9600b62000491565b90620004b781600b620001b3565b620004ee620004e77f8be0079c531659141344cd1fd0a4f28419497f9722a3daafe3b4186f6b6457e09362000198565b9162000198565b91620004f960405190565b600090a356fe60806040526004361015610026575b361561001e5761001c611b07565b005b61001c611b07565b60003560e01c806301ffc9a71461020657806306fdde0314610201578063081812fc146101fc578063095ea7b3146101f757806315b684cf146101f257806318160ddd146101ed57806323b872dd146101e8578063265aa621146101e35780632f745c59146101de57806342842e0e146101d95780634f6ccce7146101d457806351ed8288146101cf5780636352211e146101ca57806370a08231146101c5578063715018a6146101c05780638da5cb5b146101bb578063926061f0146101b657806395d89b41146101b1578063a22cb465146101ac578063abd48199146101a7578063af2217cd146101a2578063b88d4fde1461019d578063ba908b4514610198578063c87b56dd14610193578063c909adc01461018e578063e985e9c514610189578063f2fde38b14610184578063f3fef3a31461017f578063fa3157d51461017a5763ffa038210361000e57610da4565b610d25565b610d0c565b610cf4565b610cd8565b610c9a565b610c73565b610c5b565b610c3f565b610bc8565b610a46565b6108dd565b61088a565b61086f565b610828565b610810565b6107f5565b6107c6565b6107ae565b610793565b61077a565b61075e565b610727565b610457565b6103fa565b6103e2565b6103c4565b610350565b6102f6565b61024d565b6001600160e01b031981165b0361021e57565b600080fd5b905035906102308261020b565b565b9060208282031261021e5761024691610223565b90565b9052565b3461021e5761027b610268610263366004610232565b611b44565b6040515b91829182901515815260200190565b0390f35b600091031261021e57565b60005b83811061029d5750506000910152565b818101518382015260200161028d565b6102ce6102d76020936102e1936102c2815190565b80835293849260200190565b9586910161028a565b601f01601f191690565b0190565b6020808252610246929101906102ad565b3461021e5761030636600461027f565b61027b610311611108565b604051918291826102e5565b80610217565b905035906102308261031d565b9060208282031261021e5761024691610323565b6001600160a01b031690565b3461021e5761027b61036b610366366004610330565b611245565b604051918291826001600160a01b03909116815260200190565b6001600160a01b038116610217565b9050359061023082610385565b919060408382031261021e57610246906103bb8185610394565b93602001610323565b3461021e576103dd6103d73660046103a1565b906111e4565b604051005b3461021e576103dd6103f5366004610330565b612c09565b3461021e5761040a36600461027f565b61027b61041660095490565b6040515b9182918290815260200190565b909160608284031261021e576102466104408484610394565b9361044e8160208601610394565b93604001610323565b3461021e576103dd61046a366004610427565b91611304565b6102466102466102469290565b9061048790610470565b600052602052604060002090565b6102469081565b6102469054610495565b634e487b7160e01b600052602260045260246000fd5b90600160028304921680156104dc575b60208310146104d757565b6104a6565b91607f16916104cc565b805460009392916105036104f9836104bc565b8085529360200190565b9160018116908115610555575060011461051c57505050565b61052f9192939450600052602060002090565b916000925b8184106105415750500190565b805484840152602090930192600101610534565b92949550505060ff1916825215156020020190565b90610246916104e6565b634e487b7160e01b600052604160045260246000fd5b90601f01601f1916810190811067ffffffffffffffff8211176105ac57604052565b610574565b906102306105cb926105c260405190565b9384809261056a565b038361058a565b610246905b60ff1690565b61024690546105d2565b6105f290601361047d565b906105fc8261049c565b9161061160018201546001600160a01b031690565b9161061e600283016105b1565b9161062b600382016105b1565b91610638600483016105b1565b91610645600582016105b1565b9161024660076106576006850161049c565b93016105dd565b634e487b7160e01b600052602160045260246000fd5b6006111561067e57565b61065e565b9061023082610674565b61024690610683565b6102499061068d565b9360e0956106fc61070a926106ee88610720986102309d9f9e9c97610718996106d16106e19260006101008701960152565b6001600160a01b031660208d0152565b8a820360408c01526102ad565b9088820360608a01526102ad565b9086820360808801526102ad565b9084820360a08601526102ad565b9660c0830152565b0190610696565b3461021e5761027b61074261073d366004610330565b6105e7565b9461075598969894919493929360405190565b9889988961069f565b3461021e5761027b6104166107743660046103a1565b906119ed565b3461021e576103dd61078d366004610427565b91611345565b3461021e5761027b6104166107a9366004610330565b611ac2565b3461021e576103dd6107c1366004610330565b612e06565b3461021e5761027b61036b6107dc366004610330565b6110d1565b9060208282031261021e5761024691610394565b3461021e5761027b61041661080b3660046107e1565b611048565b3461021e5761082036600461027f565b6103dd610e03565b3461021e5761083836600461027f565b61027b61036b600b546001600160a01b031690565b610246916008021c81565b90610246915461084d565b6102466000600f610858565b3461021e5761087f36600461027f565b61027b610416610863565b3461021e5761089a36600461027f565b61027b610311611112565b801515610217565b90503590610230826108a5565b919060408382031261021e57610246906108d48185610394565b936020016108ad565b3461021e576103dd6108f03660046108ba565b90611272565b9061023061090360405190565b928361058a565b67ffffffffffffffff81116105ac57602090601f01601f19160190565b90826000939282370152565b909291926109486109438261090a565b6108f6565b9381855260208501908284011161021e5761023092610927565b9080601f8301121561021e5781602061024693359101610933565b6006111561021e57565b905035906102308261097d565b60e08183031261021e57803567ffffffffffffffff811161021e57826109bb918301610962565b92602082013567ffffffffffffffff811161021e57836109dc918401610962565b92604083013567ffffffffffffffff811161021e57816109fd918501610962565b92606081013567ffffffffffffffff811161021e5782610a1e918301610962565b92610246610a2f8460808501610323565b93610a3d8160a08601610323565b9360c001610987565b3461021e576103dd610a59366004610994565b959490949391936125d7565b6005111561067e57565b9061023082610a65565b61024690610a6f565b61024990610a79565b805182526020808201516001600160a01b031690830152906102469061012080610b04610af2610ae0610ace610140870160408a015188820360408a01526102ad565b606089015187820360608901526102ad565b608088015186820360808801526102ad565b60a087015185820360a08701526102ad565b94610b1460c082015160c0860152565b610b2360e082015160e0860152565b610b37610100820151610100860190610696565b0151910190610a82565b9061024691610a8b565b90610b61610b57835190565b8083529160200190565b9081610b736020830284019460200190565b926000915b838310610b8757505050505090565b90919293946020610baa610ba383856001950387528951610b41565b9760200190565b9301930191939290610b78565b602080825261024692910190610b4b565b3461021e5761027b610be3610bde3660046107e1565b612914565b60405191829182610bb7565b9060808282031261021e57610c048183610394565b92610c128260208501610394565b92610c208360408301610323565b92606082013567ffffffffffffffff811161021e576102469201610962565b3461021e576103dd610c52366004610bef565b92919091611355565b3461021e576103dd610c6e3660046107e1565b6122ee565b3461021e5761027b610311610c89366004610330565b611c18565b61024660006010610858565b3461021e57610caa36600461027f565b61027b610416610c8e565b919060408382031261021e5761024690610ccf8185610394565b93602001610394565b3461021e5761027b610268610cee366004610cb5565b9061127d565b3461021e576103dd610d073660046107e1565b610f24565b3461021e576103dd610d1f3660046103a1565b906132d0565b3461021e576103dd610d383660046107e1565b612316565b90610d5d610d56610d4c845190565b8084529260200190565b9260200190565b9060005b818110610d6e5750505090565b909192610d8b610d846001928651815260200190565b9460200190565b929101610d61565b602080825261024692910190610d3d565b3461021e5761027b610dbf610dba3660046107e1565b61270d565b60405191829182610d93565b610dd3610e5f565b610230610df1565b6103446102466102469290565b61024690610ddb565b610230610dfe6000610de8565b610f83565b610230610dcb565b15610e1257565b60405162461bcd60e51b815280610e5b600482016020808252818101527f4f776e61626c653a2063616c6c6572206973206e6f7420746865206f776e6572604082015260600190565b0390fd5b610230610e74600b546001600160a01b031690565b610e8d610e8033610344565b916001600160a01b031690565b14610e0b565b61023090610e9f610e5f565b610eff565b15610eab57565b60405162461bcd60e51b815260206004820152602660248201527f4f776e61626c653a206e6577206f776e657220697320746865207a65726f206160448201526564647265737360d01b6064820152608490fd5b61023090610dfe610f136103446000610de8565b6001600160a01b0383161415610ea4565b61023090610e93565b906001600160a01b03905b9181191691161790565b61024690610344906001600160a01b031682565b61024690610f42565b61024690610f56565b90610f78610246610f7f92610f5f565b8254610f2d565b9055565b600b546001600160a01b031690610f9b81600b610f68565b610fce610fc87f8be0079c531659141344cd1fd0a4f28419497f9722a3daafe3b4186f6b6457e093610f5f565b91610f5f565b91610fd860405190565b80805b0390a3565b15610fe757565b60405162461bcd60e51b815260206004820152602960248201527f4552433732313a2061646472657373207a65726f206973206e6f7420612076616044820152683634b21037bbb732b960b91b6064820152608490fd5b9061048790610f5f565b61108061024691611057600090565b506110796110686103446000610de8565b6001600160a01b0383161415610fe0565b600361103e565b61049c565b1561108c57565b60405162461bcd60e51b815260206004820152601860248201527f4552433732313a20696e76616c696420746f6b656e20494400000000000000006044820152606490fd5b6110de9060005b506113f5565b6102466110ee6103446000610de8565b6001600160a01b0383161415611085565b610246906105b1565b61024660006110ff565b61024660016110ff565b1561112357565b60405162461bcd60e51b815260206004820152602160248201527f4552433732313a20617070726f76616c20746f2063757272656e74206f776e656044820152603960f91b6064820152608490fd5b1561117957565b60405162461bcd60e51b815260206004820152603d60248201527f4552433732313a20617070726f76652063616c6c6572206973206e6f7420746f60448201527f6b656e206f776e6572206f7220617070726f76656420666f7220616c6c0000006064820152608490fd5b906102309161122f6111f5836110d1565b6112136001600160a01b0382166001600160a01b038516141561111c565b336001600160a01b0382168114918215611234575b5050611172565b6116b1565b61123e925061127d565b3880611228565b61126561024691611254600090565b5061125e816117dd565b600461047d565b546001600160a01b031690565b610230919033611767565b6102469161129861129d92611290600090565b50600561103e565b61103e565b6105dd565b156112a957565b60405162461bcd60e51b815260206004820152602d60248201527f4552433732313a2063616c6c6572206973206e6f7420746f6b656e206f776e6560448201526c1c881bdc88185c1c1c9bdd9959609a1b6064820152608490fd5b61023092919061131c611317843361140c565b6112a2565b611587565b9061132e6109438361090a565b918252565b6102466000611321565b610246611333565b90916102309261135361133d565b925b61023093929190611369611317843361140c565b6113d6565b1561137557565b6040515b62461bcd60e51b815260206004820152603260248201527f4552433732313a207472616e7366657220746f206e6f6e20455243373231526560448201527131b2b4bb32b91034b6b83632b6b2b73a32b960711b6064820152608490fd5b9161023093916113f0936113eb838383611587565b61188b565b61136e565b61126561024691611404600090565b50600261047d565b611415826110d1565b916001600160a01b0383166001600160a01b03831614928315611462575b50821561143f57505090565b61145e919250611451610e8091611245565b926001600160a01b031690565b1490565b61146f919350829061127d565b9138611433565b1561147d57565b60405162461bcd60e51b815260206004820152602560248201527f4552433732313a207472616e736665722066726f6d20696e636f72726563742060448201526437bbb732b960d91b6064820152608490fd5b156114d757565b60405162461bcd60e51b8152602060048201526024808201527f4552433732313a207472616e7366657220746f20746865207a65726f206164646044820152637265737360e01b6064820152608490fd5b916001600160a01b0360089290920291821b911b610f38565b9190611552610246610f7f93610f5f565b908354611528565b61023091600091611541565b9060001990610f38565b90611580610246610f7f92610470565b8254611566565b91906115ad611595836110d1565b6115a76001600160a01b038616610e80565b14611476565b61165160006115d26115c161034483610de8565b6001600160a01b03851614156114d0565b61161a6115df6001610470565b916115ec8387878a611fb7565b61160a6115f8876110d1565b6115a76001600160a01b038a16610e80565b61161586600461047d565b61155a565b6116416116478460036112986116308a8361103e565b6116418761163d8361049c565b0390565b90611570565b916102e18361049c565b6116658161166084600261047d565b610f68565b6116a161169b6116957fddf252ad1be2c89b69c2b068fc378daa952ba7f163c4a11628f55a4df523b3ef95610f5f565b92610f5f565b92610470565b926116ab60405190565b600090a4565b906116c18261166083600461047d565b6116ca816110d1565b916116a161169b6116957f8c5be1e5ebec7d5bd14f71427d1e84f3dd0314c0f7b2291e5b200ac8c7c3b92595610f5f565b1561170257565b60405162461bcd60e51b815260206004820152601960248201527f4552433732313a20617070726f766520746f2063616c6c6572000000000000006044820152606490fd5b9060ff90610f38565b90611760610246610f7f92151590565b8254611747565b6117856001600160a01b0383166001600160a01b03831614156116fb565b61179d836117988461129885600561103e565b611750565b610fdb6117d36117cd7f17307eab39ab6107e8899845ad3d59bd9653f200f220920489ca2b5937696c3193610f5f565b93610f5f565b9361026c60405190565b6117e9610230916117ee565b611085565b6117f99060006110d8565b611809610e806103446000610de8565b141590565b905051906102308261020b565b9060208282031261021e576102469161180e565b6001600160a01b039182168152911660208201526040810191909152608060608201819052610246929101906102ad565b6040513d6000823e3d90fd5b3d156118865761187b3d611321565b903d6000602084013e565b606090565b91909392611897600090565b946118a181611af5565b1561198357906118e860006118c06118bb60209695610f5f565b610f5f565b926118f363150b7a02916118d13390565b966118db60405190565b998a988997889660e01b90565b86526004860161182f565b03925af160009181611953575b50611936575061190e61186c565b805161192161191d6000610470565b9190565b0361192e57604051611379565b805190602001fd5b90915061145e630a85bd0160e11b5b916001600160e01b03191690565b61197591925060203d811161197c575b61196d818361058a565b81019061181b565b9038611900565b503d611963565b5060019450505050565b1561199457565b60405162461bcd60e51b815260206004820152602b60248201527f455243373231456e756d657261626c653a206f776e657220696e646578206f7560448201526a74206f6620626f756e647360a81b6064820152608490fd5b61024691611a1e61108092611a00600090565b50611a17611a1061024683611048565b841061198d565b600761103e565b61047d565b15611a2a57565b60405162461bcd60e51b815260206004820152602c60248201527f455243373231456e756d657261626c653a20676c6f62616c20696e646578206f60448201526b7574206f6620626f756e647360a01b6064820152608490fd5b634e487b7160e01b600052603260045260246000fd5b8054821015611abd57611ab4600191600052602060002090565b91020190600090565b611a84565b611aef61024691611ad1600090565b50611ae8611ae161024660095490565b8210611a23565b6009611a9a565b90610858565b3b611b0361191d6000610470565b1190565b347f88a5966d370b9919b20f3e2c13ff65706f196a4e32cc2c12bf57088f88525874611b3f611b3533610f5f565b9261041a60405190565b0390a2565b6102469063780e9d6360e01b6001600160e01b0319821614908115611b67575090565b6102469150611b91565b611b84611b7e6102469290565b60e01b90565b6001600160e01b03191690565b611ba1611b846349064906611b71565b6001600160e01b0319821614908115611bb8575090565b61024691506380ac58cd60e01b6001600160e01b0319821614908115611bed575b8115611be3575090565b6102469150611c08565b6001600160e01b03198116635b5e139f60e01b149150611bd9565b61145e6301ffc9a760e01b611945565b61024690611c56565b6102e1611c3992602092611c33815190565b94859290565b9384910161028a565b611c50906102469392611c21565b90611c21565b611c5f816117dd565b611c72611c6d82600661047d565b6110ff565b611c7a611d32565b8051600090611c8b61191d83610470565b14611cde57611c9e61191d61169b855190565b11611cae57505061024690611ce5565b6102469250611cd29161024691611cc460405190565b938492602084019283611c42565b9081038252038261058a565b5050905090565b611cee816117dd565b611cf6611d32565b8051611d0561191d6000610470565b1115611d2857610246611cd291611d1e61024694611d87565b90611cc460405190565b505061024661133d565b61024661133d565b369037565b90610230611d55611d4f84611321565b9361090a565b601f190160208401611d3a565b634e487b7160e01b600052601260045260246000fd5b8115611d82570490565b611d62565b611d9081611e13565b90611da06001926102e184610470565b9180611dab84611d3f565b936020018401905b611dbe575b50505090565b611df29060001901926f181899199a1a9b1b9c1cb0b131b232b360811b600a82061a8453611dec600a610470565b90611d78565b9081611e0161191d6000610470565b14611e0e57909181611db3565b611db8565b611e1d6000610470565b907a184f03e93ff9f4daa797ed6e38ed64bf6a1f010000000000000000611e4381610470565b821015611f95575b506d04ee2d6d415b85acef8100000000611e6481610470565b821015611f73575b50662386f26fc10000611e7e81610470565b821015611f51575b506305f5e100611e9581610470565b821015611f2f575b50612710611eaa81610470565b821015611f0d575b506064611ebe81610470565b821015611eeb575b50611ed461191d600a610470565b1015611edd5790565b610246906102e16001610470565b611f0691611dec611efb92610470565b916102e16002610470565b9038611ec6565b611f2891611dec611f1d92610470565b916102e16004610470565b9038611eb2565b611f4a91611dec611f3f92610470565b916102e16008610470565b9038611e9d565b611f6c91611dec611f6192610470565b916102e16010610470565b9038611e86565b611f8e91611dec611f8392610470565b916102e16020610470565b9038611e6c565b611fb091611dec611fa592610470565b916102e16040610470565b9038611e4b565b61023093919291611fcb61191d6001610470565b1161206157611fff611fdd6000610de8565b6001600160a01b0381166001600160a01b0384160361203e576103448461214b565b6001600160a01b038416036120195750610230915061226e565b6001600160a01b03166001600160a01b03831603612035575050565b610230916120c4565b6001600160a01b0385166001600160a01b038416146103445761034484846121a3565b60405162461bcd60e51b815260206004820152603560248201527f455243373231456e756d657261626c653a20636f6e7365637574697665207472604482015274185b9cd9995c9cc81b9bdd081cdd5c1c1bdc9d1959605a1b6064820152608490fd5b6120e9826120ee610230946120e9611a1e956120df81611048565b968791600761103e565b611570565b600861047d565b9160001960089290920291821b911b610f38565b919061211a610246610f7f93610470565b9083546120f5565b90815491600160401b8310156105ac578261214591600161023095018155611a9a565b90612109565b6102309061216a600961024661215f825490565b6120e985600a61047d565b612122565b634e487b7160e01b600052601160045260246000fd5b9190820391821161219257565b61216f565b61023091600091612109565b6121f161023092611a1e600093611a17856121f16121d36121c385611048565b6121cd6001610470565b90612185565b9560086121e3611080838361047d565b8881036121f6575b5061047d565b612197565b806120e9886122248c6120e961222a96611a1e61221c611080600795611a1e898861103e565b95869461103e565b8461047d565b386121eb565b634e487b7160e01b600052603160045260246000fd5b805480156122695760001901906122666122608383611a9a565b90612197565b55565b612230565b6122bc6102309161024660006121f160099361228b6121c3865490565b611a1e600a916120e96122ae611aef6122a7611080888861047d565b938b611a9a565b61222481612145858d611a9a565b612246565b610230906122cd610e5f565b6122e7610230916118bb6122e082610f5f565b600e610f68565b600c610f68565b610230906122c1565b61023090612303610e5f565b61230f61023091610f5f565b600d610f68565b610230906122f7565b60001981146121925760010190565b6102466101406108f6565b9061024990610683565b9061024990610a6f565b634e487b7160e01b600052600060045260246000fd5b81811061236e575050565b8061237c6000600193612197565b01612363565b9190601f811161239157505050565b6123a361023093600052602060002090565b906020601f8401819004830193106123c6575b6020601f909101045b0190612363565b90915081906123b6565b600019600883021c1916906002021790565b906123eb815190565b9067ffffffffffffffff82116105ac5761240f8261240985546104bc565b85612382565b602090601f831160011461243d57610f7f929160009183612432575b50506123d0565b01519050388061242b565b601f1983169161245285600052602060002090565b9260005b81811061249057509160029391856001969410612477575b50505002019055565b01516000196008601f8516021c1916905538808061246e565b91936020600181928787015181550195019201612456565b90610230916123e2565b6102469051610683565b90611760610246610f7f9261068d565b6102469051610a6f565b9061ff009060081b610f38565b906124f3610246610f7f92610a79565b82546124d6565b61023091906125c7906101209060089061251681611641875190565b6125376001820161253160208801516001600160a01b031690565b90610f68565b61254f60028201612549604088015190565b906124a8565b61256160038201612549606088015190565b61257360048201612549608088015190565b6125856005820161254960a088015190565b6125976006820161164160c088015190565b6125a96007820161164160e088015190565b01926125c16125bb61010083016124b2565b856124bc565b016124cc565b906124e3565b90610230916124fa565b939591949092956125e8600f61049c565b966125f28861231f565b6125fd90600f611570565b339660009561260a61232e565b976126158b898b0152565b6001600160a01b038a1660208a015260408901526060880152608087015260a086015260c085015260e0840152612650906101008401612339565b61265e906101208301612343565b61266983601161047d565b90612673916125cd565b61267e90601261103e565b9061023091612122565b906126a3612697610d4c845490565b92600052602060002090565b9060005b8181106126b45750505090565b9091926126d86126d16001926126c98761049c565b815260200190565b9460010190565b9291016126a7565b9061024691612688565b906102306105cb926126fb60405190565b938480926126e0565b610246906126ea565b6127246102469161271c606090565b50601261103e565b612704565b67ffffffffffffffff81116105ac5760208091020190565b9061132e61094383612729565b61275661232e565b906000825260208080808080808080808b01600081520160608152016060815201606081520160608152016000815201600081520160008152016000905250565b61024661274e565b60005b8281106127ae57505050565b6020906127b9612797565b81840152016127a2565b906102306127d96127d384612741565b93612729565b601f19016020840161279f565b906127ef825190565b811015611abd576020809102010190565b6102469060081c6105d7565b6102469054612800565b90610230612901600861282761232e565b946128386128348261049c565b8752565b61285f61284f60018301546001600160a01b031690565b6001600160a01b03166020880152565b61287561286e600283016105b1565b6040880152565b61288b612884600383016105b1565b6060880152565b6128a161289a600483016105b1565b6080880152565b6128b76128b0600583016105b1565b60a0880152565b6128cd6128c66006830161049c565b60c0880152565b6128e36128dc6007830161049c565b60e0880152565b6128fb6128f18383016105dd565b6101008801612339565b0161280c565b6101208401612343565b61024690612816565b6127246129239161271c606090565b61293361292e825190565b6127c3565b9061293e6000610470565b612949610246835190565b8110156129985761299390612978612973601161296d61296985886127e6565b5190565b9061047d565b61290b565b61298282866127e6565b5261298d81856127e6565b5061231f565b61293e565b505090565b156129a457565b60405162461bcd60e51b815260206004820152600f60248201526e2737ba103a34329031b932b0ba37b960891b6044820152606490fd5b906129ee90600019906020036008021c90565b8154169055565b90600091612a13612a0b82600052602060002090565b9283546123d0565b905555565b9192906020821015612a7057601f8411600114612a3a57610f7f9293506123d0565b5090612a6b610230936001612a62612a5785600052602060002090565b92601f602091010490565b82019101612363565b6129f5565b50612aa98293612a87600194600052602060002090565b6123bf6020601f860104820192601f861680612ab1575b50601f602091010490565b600202179055565b612abd908886036129db565b38612a9e565b929091600160401b82116105ac5760201115612b0a576020811015612aeb57610f7f916123d0565b60019160ff1916612b0184600052602060002090565b55600202019055565b60019150600202019055565b908154612b22816104bc565b90818311612b4b575b818310612b39575b50505050565b612b4293612a18565b38808080612b33565b612b5783838387612ac3565b612b2b565b8181029291811591840414171561219257565b600061023091612b16565b90600003612b8b5761023090612b6f565b61234d565b600090600890612ba08382612197565b826001820155612bb38360028301612b7a565b612bc08360038301612b7a565b612bcd8360048301612b7a565b612bda8360058301612b7a565b612be78360068301612197565b612bf48360078301612197565b0155565b90600003612b8b5761023090612b90565b610230906011612c506000612c4b84612c356001612c27838861047d565b01546001600160a01b031690565b339590611a1e90612c4588610e80565b1461299d565b612bf8565b6012612c63612c5f838361103e565b5490565b612c6d6000610470565b81811015612ce357612c8b611aef82612c86878761103e565b611a9a565b8514612c9f57612c9a9061231f565b612c6d565b61023094509161129861024693612145612cd8611aef8896612cd2612cc76122bc9b8961103e565b916121cd6001610470565b90611a9a565b91612c86868661103e565b5050505050565b612cf46007611321565b660383934b1b29d160cd1b602082015290565b610246612cea565b905051906102308261031d565b9060208282031261021e5761024691612d0f565b15612d3757565b60405162461bcd60e51b8152602060048201526011602482015270105b1b1bddd85b98d9481b9bdd081cd95d607a1b6044820152606490fd5b90505190610230826108a5565b9060208282031261021e5761024691612d70565b61024990610f5f565b6001600160a01b039091168152606081019392610230929091604091612dc4906020830190612d91565b0152565b15612dcf57565b60405162461bcd60e51b815260206004820152600f60248201526e151c985b9cd9995c8819985a5b1959608a1b6044820152606490fd5b612e1661297360c092601161047d565b01612e2f612e22825190565b612e2a612d07565b6132fc565b612e92612e476118bb600c546001600160a01b031690565b602063dd62ed3e3392612e73612e5c30610f5f565b92612e6660405190565b9687948593849360e01b90565b83526001600160a01b0380891660048501521660248301526044820190565b03915afa8015612f8d57602092600091612f92575b50612edd612eb3855190565b91612ed661191d610246670de0b6b3a764000095612ed087610470565b90612b5c565b1015612d30565b612f386000612ef76118bb600c546001600160a01b031690565b92612f43612f276323b872dd92612ed0612f21612f1c600e546001600160a01b031690565b9b5190565b91610470565b6040515b9889978896879560e01b90565b855260048501612d9a565b03925af18015612f8d5761023091600091612f5f575b50612dc8565b612f80915060203d8111612f86575b612f78818361058a565b810190612d7d565b38612f59565b503d612f6e565b611860565b612fb29150833d8111612fb8575b612faa818361058a565b810190612d1c565b38612ea7565b503d612fa0565b9061023091612fcc610e5f565b61306a565b6001600160a01b0390911681526040810192916102309160200152565b6001600160a01b039182168152911660208201526060810192916102309160400152565b1561301957565b60405162461bcd60e51b8152602060048201526024808201527f496e73756666696369656e74204554482062616c616e636520696e20636f6e746044820152631c9858dd60e21b6064820152608490fd5b90600061307961034482610de8565b6001600160a01b038416036131125761309e61309430610f5f565b8390311015613012565b808080846130ba6118bb6118bb600b546001600160a01b031690565b828215613109575bf115612f8d577ffff3b3844276f57024e0b42afec1a37f75db36511e43819a4f2a63ab7862b648906130f333610f5f565b92611b3f61310060405190565b92839283612fd1565b506108fc6130c2565b8160206131216118bb86610f5f565b63a9059cbb906131578561313d600b546001600160a01b031690565b9361316261314a60405190565b9788968795869460e01b90565b845260048401612fd1565b03925af190816132b4575b50158114613288576131816118bb84610f5f565b6342842e0e61318f30610f5f565b600b546001600160a01b031692803b1561021e576131b68580946131c189612f2b60405190565b855260048501612fee565b03925af1908161325c575b5015146132315760405162461bcd60e51b815260206004820152603060248201527f546f6b656e2074797065206e6f7420737570706f72746564206f7220696e737560448201526f6666696369656e742062616c616e636560801b6064820152608490fd5b7ffff3b3844276f57024e0b42afec1a37f75db36511e43819a4f2a63ab7862b648906130f333610f5f565b61327b90833d8511613281575b613273818361058a565b81019061027f565b386131cc565b503d613269565b507ffff3b3844276f57024e0b42afec1a37f75db36511e43819a4f2a63ab7862b648906130f333610f5f565b6132cb9060203d8111612f8657612f78818361058a565b61316d565b9061023091612fbf565b929160206132f761023093604087019087820360008901526102ad565b940152565b906133386102309261332961331060405190565b632d839cb360e21b6020820152938492602484016132da565b6020820181038252038261058a565b60008091613344815190565b906020016a636f6e736f6c652e6c6f675afa5056fea26469706673582212206855bfd141b21769cca3e8b54e649806e9a17dc5c205ce8fef8e1bb877cdcf4764736f6c63430008130033","opcodes":"PUSH1 0x80 PUSH1 0x40 MSTORE CALLVALUE PUSH3 0x26 JUMPI PUSH3 0x14 PUSH3 0x1CF JUMP JUMPDEST PUSH1 0x40 MLOAD PUSH2 0x338F PUSH3 0x500 DUP3 CODECOPY PUSH2 0x338F SWAP1 RETURN JUMPDEST PUSH1 0x0 DUP1 REVERT JUMPDEST PUSH4 0x4E487B71 PUSH1 0xE0 SHL PUSH1 0x0 MSTORE PUSH1 0x41 PUSH1 0x4 MSTORE PUSH1 0x24 PUSH1 0x0 REVERT JUMPDEST SWAP1 PUSH1 0x1F ADD PUSH1 0x1F NOT AND DUP2 ADD SWAP1 DUP2 LT PUSH1 0x1 PUSH1 0x1 PUSH1 0x40 SHL SUB DUP3 GT OR PUSH3 0x63 JUMPI PUSH1 0x40 MSTORE JUMP JUMPDEST PUSH3 0x2B JUMP JUMPDEST SWAP1 PUSH3 0x80 PUSH3 0x78 PUSH1 0x40 MLOAD SWAP1 JUMP JUMPDEST SWAP3 DUP4 PUSH3 0x41 JUMP JUMPDEST JUMP JUMPDEST PUSH1 0x1 PUSH1 0x1 PUSH1 0x40 SHL SUB DUP2 GT PUSH3 0x63 JUMPI PUSH1 0x20 SWAP1 PUSH1 0x1F ADD PUSH1 0x1F NOT AND ADD SWAP1 JUMP JUMPDEST SWAP1 PUSH3 0xB5 PUSH3 0xAF DUP4 PUSH3 0x82 JUMP JUMPDEST PUSH3 0x69 JUMP JUMPDEST SWAP2 DUP3 MSTORE JUMP JUMPDEST PUSH3 0xC6 PUSH1 0xC PUSH3 0x9F JUMP JUMPDEST PUSH12 0x109B1BD8DAD9985B9CD39195 PUSH1 0xA2 SHL PUSH1 0x20 DUP3 ADD MSTORE SWAP1 JUMP JUMPDEST PUSH3 0xE8 PUSH3 0xBA JUMP JUMPDEST SWAP1 JUMP JUMPDEST PUSH3 0xF7 PUSH1 0x3 PUSH3 0x9F JUMP JUMPDEST PUSH3 0x212327 PUSH1 0xE9 SHL PUSH1 0x20 DUP3 ADD MSTORE SWAP1 JUMP JUMPDEST PUSH3 0xE8 PUSH3 0xEB JUMP JUMPDEST SWAP1 PUSH1 0x0 NOT SWAP1 JUMPDEST SWAP2 DUP2 NOT AND SWAP2 AND OR SWAP1 JUMP JUMPDEST PUSH3 0xE8 PUSH3 0xE8 PUSH3 0xE8 SWAP3 SWAP1 JUMP JUMPDEST SWAP1 PUSH3 0x144 PUSH3 0xE8 PUSH3 0x14C SWAP3 PUSH3 0x120 JUMP JUMPDEST DUP3 SLOAD PUSH3 0x110 JUMP JUMPDEST SWAP1 SSTORE JUMP JUMPDEST PUSH3 0x160 PUSH3 0xE8 PUSH3 0xE8 SWAP3 SWAP1 JUMP JUMPDEST PUSH1 0x1 PUSH1 0x1 PUSH1 0xA0 SHL SUB AND SWAP1 JUMP JUMPDEST PUSH3 0xE8 SWAP1 PUSH3 0x150 JUMP JUMPDEST PUSH3 0xE8 SWAP1 PUSH3 0x160 SWAP1 PUSH1 0x1 PUSH1 0x1 PUSH1 0xA0 SHL SUB AND DUP3 JUMP JUMPDEST PUSH3 0xE8 SWAP1 PUSH3 0x177 JUMP JUMPDEST PUSH3 0xE8 SWAP1 PUSH3 0x18D JUMP JUMPDEST SWAP1 PUSH1 0x1 PUSH1 0x1 PUSH1 0xA0 SHL SUB SWAP1 PUSH3 0x116 JUMP JUMPDEST SWAP1 PUSH3 0x1C7 PUSH3 0xE8 PUSH3 0x14C SWAP3 PUSH3 0x198 JUMP JUMPDEST DUP3 SLOAD PUSH3 0x1A3 JUMP JUMPDEST PUSH3 0x1EE PUSH3 0x1DD PUSH3 0xDE JUMP JUMPDEST PUSH3 0x1E7 PUSH3 0x106 JUMP JUMPDEST SWAP1 PUSH3 0x259 JUMP JUMPDEST PUSH3 0x209 PUSH1 0x1 PUSH3 0x201 DUP2 PUSH1 0xF PUSH3 0x130 JUMP JUMPDEST PUSH1 0x10 PUSH3 0x130 JUMP JUMPDEST PUSH3 0x80 PUSH3 0x251 PUSH3 0x21D PUSH1 0x0 PUSH3 0x16C JUMP JUMPDEST PUSH3 0x234 PUSH3 0x22C DUP3 PUSH3 0x198 JUMP JUMPDEST PUSH1 0xE PUSH3 0x1B3 JUMP JUMPDEST PUSH3 0x24B PUSH3 0x243 DUP3 PUSH3 0x198 JUMP JUMPDEST PUSH1 0xC PUSH3 0x1B3 JUMP JUMPDEST PUSH3 0x198 JUMP JUMPDEST PUSH1 0xD PUSH3 0x1B3 JUMP JUMPDEST PUSH3 0x80 SWAP2 PUSH3 0x269 SWAP2 PUSH3 0x274 JUMP JUMPDEST PUSH3 0x80 CALLER PUSH3 0x49D JUMP JUMPDEST PUSH3 0x80 SWAP2 DUP3 SWAP2 DUP3 SWAP2 SWAP1 PUSH3 0x46C JUMP JUMPDEST PUSH4 0x4E487B71 PUSH1 0xE0 SHL PUSH1 0x0 MSTORE PUSH1 0x22 PUSH1 0x4 MSTORE PUSH1 0x24 PUSH1 0x0 REVERT JUMPDEST SWAP1 PUSH1 0x1 PUSH1 0x2 DUP4 DIV SWAP3 AND DUP1 ISZERO PUSH3 0x2BD JUMPI JUMPDEST PUSH1 0x20 DUP4 LT EQ PUSH3 0x2B7 JUMPI JUMP JUMPDEST PUSH3 0x284 JUMP JUMPDEST SWAP2 PUSH1 0x7F AND SWAP2 PUSH3 0x2AB JUMP JUMPDEST SWAP2 PUSH1 0x0 NOT PUSH1 0x8 SWAP3 SWAP1 SWAP3 MUL SWAP2 DUP3 SHL SWAP2 SHL PUSH3 0x116 JUMP JUMPDEST SWAP2 SWAP1 PUSH3 0x2F2 PUSH3 0xE8 PUSH3 0x14C SWAP4 PUSH3 0x120 JUMP JUMPDEST SWAP1 DUP4 SLOAD PUSH3 0x2C8 JUMP JUMPDEST PUSH3 0x80 SWAP2 PUSH1 0x0 SWAP2 PUSH3 0x2DD JUMP JUMPDEST DUP2 DUP2 LT PUSH3 0x315 JUMPI POP POP JUMP JUMPDEST DUP1 PUSH3 0x325 PUSH1 0x0 PUSH1 0x1 SWAP4 PUSH3 0x2FB JUMP JUMPDEST ADD PUSH3 0x309 JUMP JUMPDEST SWAP2 SWAP1 PUSH1 0x1F DUP2 GT PUSH3 0x33C JUMPI POP POP POP JUMP JUMPDEST PUSH3 0x350 PUSH3 0x80 SWAP4 PUSH1 0x0 MSTORE PUSH1 0x20 PUSH1 0x0 KECCAK256 SWAP1 JUMP JUMPDEST SWAP1 PUSH1 0x20 PUSH1 0x1F DUP5 ADD DUP2 SWAP1 DIV DUP4 ADD SWAP4 LT PUSH3 0x374 JUMPI JUMPDEST PUSH1 0x20 PUSH1 0x1F SWAP1 SWAP2 ADD DIV ADD SWAP1 PUSH3 0x309 JUMP JUMPDEST SWAP1 SWAP2 POP DUP2 SWAP1 PUSH3 0x364 JUMP JUMPDEST SWAP1 PUSH3 0x389 DUP2 MLOAD SWAP1 JUMP JUMPDEST SWAP1 PUSH1 0x1 PUSH1 0x1 PUSH1 0x40 SHL SUB DUP3 GT PUSH3 0x63 JUMPI PUSH3 0x3B1 DUP3 PUSH3 0x3AA DUP6 SLOAD PUSH3 0x29A JUMP JUMPDEST DUP6 PUSH3 0x32C JUMP JUMPDEST PUSH1 0x20 SWAP1 PUSH1 0x1F DUP4 GT PUSH1 0x1 EQ PUSH3 0x3F0 JUMPI PUSH3 0x14C SWAP3 SWAP2 PUSH1 0x0 SWAP2 DUP4 PUSH3 0x3E4 JUMPI JUMPDEST POP POP PUSH1 0x0 NOT PUSH1 0x8 DUP4 MUL SHR NOT AND SWAP1 PUSH1 0x2 MUL OR SWAP1 JUMP JUMPDEST ADD MLOAD SWAP1 POP CODESIZE DUP1 PUSH3 0x3D0 JUMP JUMPDEST PUSH1 0x1F NOT DUP4 AND SWAP2 PUSH3 0x406 DUP6 PUSH1 0x0 MSTORE PUSH1 0x20 PUSH1 0x0 KECCAK256 SWAP1 JUMP JUMPDEST SWAP3 PUSH1 0x0 JUMPDEST DUP2 DUP2 LT PUSH3 0x447 JUMPI POP SWAP2 PUSH1 0x2 SWAP4 SWAP2 DUP6 PUSH1 0x1 SWAP7 SWAP5 LT PUSH3 0x42D JUMPI JUMPDEST POP POP POP MUL ADD SWAP1 SSTORE JUMP JUMPDEST ADD MLOAD PUSH1 0x0 NOT PUSH1 0x8 PUSH1 0x1F DUP6 AND MUL SHR NOT AND SWAP1 SSTORE CODESIZE DUP1 DUP1 PUSH3 0x424 JUMP JUMPDEST SWAP2 SWAP4 PUSH1 0x20 PUSH1 0x1 DUP2 SWAP3 DUP8 DUP8 ADD MLOAD DUP2 SSTORE ADD SWAP6 ADD SWAP3 ADD PUSH3 0x40A JUMP JUMPDEST SWAP1 PUSH3 0x80 SWAP2 PUSH3 0x37F JUMP JUMPDEST SWAP1 PUSH3 0x47E PUSH3 0x80 SWAP3 PUSH1 0x0 PUSH3 0x460 JUMP JUMPDEST PUSH1 0x1 PUSH3 0x460 JUMP JUMPDEST PUSH3 0xE8 SWAP1 PUSH3 0x160 JUMP JUMPDEST PUSH3 0xE8 SWAP1 SLOAD PUSH3 0x486 JUMP JUMPDEST PUSH3 0x4A9 PUSH1 0xB PUSH3 0x491 JUMP JUMPDEST SWAP1 PUSH3 0x4B7 DUP2 PUSH1 0xB PUSH3 0x1B3 JUMP JUMPDEST PUSH3 0x4EE PUSH3 0x4E7 PUSH32 0x8BE0079C531659141344CD1FD0A4F28419497F9722A3DAAFE3B4186F6B6457E0 SWAP4 PUSH3 0x198 JUMP JUMPDEST SWAP2 PUSH3 0x198 JUMP JUMPDEST SWAP2 PUSH3 0x4F9 PUSH1 0x40 MLOAD SWAP1 JUMP JUMPDEST PUSH1 0x0 SWAP1 LOG3 JUMP INVALID PUSH1 0x80 PUSH1 0x40 MSTORE PUSH1 0x4 CALLDATASIZE LT ISZERO PUSH2 0x26 JUMPI JUMPDEST CALLDATASIZE ISZERO PUSH2 0x1E JUMPI PUSH2 0x1C PUSH2 0x1B07 JUMP JUMPDEST STOP JUMPDEST PUSH2 0x1C PUSH2 0x1B07 JUMP JUMPDEST PUSH1 0x0 CALLDATALOAD PUSH1 0xE0 SHR DUP1 PUSH4 0x1FFC9A7 EQ PUSH2 0x206 JUMPI DUP1 PUSH4 0x6FDDE03 EQ PUSH2 0x201 JUMPI DUP1 PUSH4 0x81812FC EQ PUSH2 0x1FC JUMPI DUP1 PUSH4 0x95EA7B3 EQ PUSH2 0x1F7 JUMPI DUP1 PUSH4 0x15B684CF EQ PUSH2 0x1F2 JUMPI DUP1 PUSH4 0x18160DDD EQ PUSH2 0x1ED JUMPI DUP1 PUSH4 0x23B872DD EQ PUSH2 0x1E8 JUMPI DUP1 PUSH4 0x265AA621 EQ PUSH2 0x1E3 JUMPI DUP1 PUSH4 0x2F745C59 EQ PUSH2 0x1DE JUMPI DUP1 PUSH4 0x42842E0E EQ PUSH2 0x1D9 JUMPI DUP1 PUSH4 0x4F6CCCE7 EQ PUSH2 0x1D4 JUMPI DUP1 PUSH4 0x51ED8288 EQ PUSH2 0x1CF JUMPI DUP1 PUSH4 0x6352211E EQ PUSH2 0x1CA JUMPI DUP1 PUSH4 0x70A08231 EQ PUSH2 0x1C5 JUMPI DUP1 PUSH4 0x715018A6 EQ PUSH2 0x1C0 JUMPI DUP1 PUSH4 0x8DA5CB5B EQ PUSH2 0x1BB JUMPI DUP1 PUSH4 0x926061F0 EQ PUSH2 0x1B6 JUMPI DUP1 PUSH4 0x95D89B41 EQ PUSH2 0x1B1 JUMPI DUP1 PUSH4 0xA22CB465 EQ PUSH2 0x1AC JUMPI DUP1 PUSH4 0xABD48199 EQ PUSH2 0x1A7 JUMPI DUP1 PUSH4 0xAF2217CD EQ PUSH2 0x1A2 JUMPI DUP1 PUSH4 0xB88D4FDE EQ PUSH2 0x19D JUMPI DUP1 PUSH4 0xBA908B45 EQ PUSH2 0x198 JUMPI DUP1 PUSH4 0xC87B56DD EQ PUSH2 0x193 JUMPI DUP1 PUSH4 0xC909ADC0 EQ PUSH2 0x18E JUMPI DUP1 PUSH4 0xE985E9C5 EQ PUSH2 0x189 JUMPI DUP1 PUSH4 0xF2FDE38B EQ PUSH2 0x184 JUMPI DUP1 PUSH4 0xF3FEF3A3 EQ PUSH2 0x17F JUMPI DUP1 PUSH4 0xFA3157D5 EQ PUSH2 0x17A JUMPI PUSH4 0xFFA03821 SUB PUSH2 0xE JUMPI PUSH2 0xDA4 JUMP JUMPDEST PUSH2 0xD25 JUMP JUMPDEST PUSH2 0xD0C JUMP JUMPDEST PUSH2 0xCF4 JUMP JUMPDEST PUSH2 0xCD8 JUMP JUMPDEST PUSH2 0xC9A JUMP JUMPDEST PUSH2 0xC73 JUMP JUMPDEST PUSH2 0xC5B JUMP JUMPDEST PUSH2 0xC3F JUMP JUMPDEST PUSH2 0xBC8 JUMP JUMPDEST PUSH2 0xA46 JUMP JUMPDEST PUSH2 0x8DD JUMP JUMPDEST PUSH2 0x88A JUMP JUMPDEST PUSH2 0x86F JUMP JUMPDEST PUSH2 0x828 JUMP JUMPDEST PUSH2 0x810 JUMP JUMPDEST PUSH2 0x7F5 JUMP JUMPDEST PUSH2 0x7C6 JUMP JUMPDEST PUSH2 0x7AE JUMP JUMPDEST PUSH2 0x793 JUMP JUMPDEST PUSH2 0x77A JUMP JUMPDEST PUSH2 0x75E JUMP JUMPDEST PUSH2 0x727 JUMP JUMPDEST PUSH2 0x457 JUMP JUMPDEST PUSH2 0x3FA JUMP JUMPDEST PUSH2 0x3E2 JUMP JUMPDEST PUSH2 0x3C4 JUMP JUMPDEST PUSH2 0x350 JUMP JUMPDEST PUSH2 0x2F6 JUMP JUMPDEST PUSH2 0x24D JUMP JUMPDEST PUSH1 0x1 PUSH1 0x1 PUSH1 0xE0 SHL SUB NOT DUP2 AND JUMPDEST SUB PUSH2 0x21E JUMPI JUMP JUMPDEST PUSH1 0x0 DUP1 REVERT JUMPDEST SWAP1 POP CALLDATALOAD SWAP1 PUSH2 0x230 DUP3 PUSH2 0x20B JUMP JUMPDEST JUMP JUMPDEST SWAP1 PUSH1 0x20 DUP3 DUP3 SUB SLT PUSH2 0x21E JUMPI PUSH2 0x246 SWAP2 PUSH2 0x223 JUMP JUMPDEST SWAP1 JUMP JUMPDEST SWAP1 MSTORE JUMP JUMPDEST CALLVALUE PUSH2 0x21E JUMPI PUSH2 0x27B PUSH2 0x268 PUSH2 0x263 CALLDATASIZE PUSH1 0x4 PUSH2 0x232 JUMP JUMPDEST PUSH2 0x1B44 JUMP JUMPDEST PUSH1 0x40 MLOAD JUMPDEST SWAP2 DUP3 SWAP2 DUP3 SWAP1 ISZERO ISZERO DUP2 MSTORE PUSH1 0x20 ADD SWAP1 JUMP JUMPDEST SUB SWAP1 RETURN JUMPDEST PUSH1 0x0 SWAP2 SUB SLT PUSH2 0x21E JUMPI JUMP JUMPDEST PUSH1 0x0 JUMPDEST DUP4 DUP2 LT PUSH2 0x29D JUMPI POP POP PUSH1 0x0 SWAP2 ADD MSTORE JUMP JUMPDEST DUP2 DUP2 ADD MLOAD DUP4 DUP3 ADD MSTORE PUSH1 0x20 ADD PUSH2 0x28D JUMP JUMPDEST PUSH2 0x2CE PUSH2 0x2D7 PUSH1 0x20 SWAP4 PUSH2 0x2E1 SWAP4 PUSH2 0x2C2 DUP2 MLOAD SWAP1 JUMP JUMPDEST DUP1 DUP4 MSTORE SWAP4 DUP5 SWAP3 PUSH1 0x20 ADD SWAP1 JUMP JUMPDEST SWAP6 DUP7 SWAP2 ADD PUSH2 0x28A JUMP JUMPDEST PUSH1 0x1F ADD PUSH1 0x1F NOT AND SWAP1 JUMP JUMPDEST ADD SWAP1 JUMP JUMPDEST PUSH1 0x20 DUP1 DUP3 MSTORE PUSH2 0x246 SWAP3 SWAP2 ADD SWAP1 PUSH2 0x2AD JUMP JUMPDEST CALLVALUE PUSH2 0x21E JUMPI PUSH2 0x306 CALLDATASIZE PUSH1 0x4 PUSH2 0x27F JUMP JUMPDEST PUSH2 0x27B PUSH2 0x311 PUSH2 0x1108 JUMP JUMPDEST PUSH1 0x40 MLOAD SWAP2 DUP3 SWAP2 DUP3 PUSH2 0x2E5 JUMP JUMPDEST DUP1 PUSH2 0x217 JUMP JUMPDEST SWAP1 POP CALLDATALOAD SWAP1 PUSH2 0x230 DUP3 PUSH2 0x31D JUMP JUMPDEST SWAP1 PUSH1 0x20 DUP3 DUP3 SUB SLT PUSH2 0x21E JUMPI PUSH2 0x246 SWAP2 PUSH2 0x323 JUMP JUMPDEST PUSH1 0x1 PUSH1 0x1 PUSH1 0xA0 SHL SUB AND SWAP1 JUMP JUMPDEST CALLVALUE PUSH2 0x21E JUMPI PUSH2 0x27B PUSH2 0x36B PUSH2 0x366 CALLDATASIZE PUSH1 0x4 PUSH2 0x330 JUMP JUMPDEST PUSH2 0x1245 JUMP JUMPDEST PUSH1 0x40 MLOAD SWAP2 DUP3 SWAP2 DUP3 PUSH1 0x1 PUSH1 0x1 PUSH1 0xA0 SHL SUB SWAP1 SWAP2 AND DUP2 MSTORE PUSH1 0x20 ADD SWAP1 JUMP JUMPDEST PUSH1 0x1 PUSH1 0x1 PUSH1 0xA0 SHL SUB DUP2 AND PUSH2 0x217 JUMP JUMPDEST SWAP1 POP CALLDATALOAD SWAP1 PUSH2 0x230 DUP3 PUSH2 0x385 JUMP JUMPDEST SWAP2 SWAP1 PUSH1 0x40 DUP4 DUP3 SUB SLT PUSH2 0x21E JUMPI PUSH2 0x246 SWAP1 PUSH2 0x3BB DUP2 DUP6 PUSH2 0x394 JUMP JUMPDEST SWAP4 PUSH1 0x20 ADD PUSH2 0x323 JUMP JUMPDEST CALLVALUE PUSH2 0x21E JUMPI PUSH2 0x3DD PUSH2 0x3D7 CALLDATASIZE PUSH1 0x4 PUSH2 0x3A1 JUMP JUMPDEST SWAP1 PUSH2 0x11E4 JUMP JUMPDEST PUSH1 0x40 MLOAD STOP JUMPDEST CALLVALUE PUSH2 0x21E JUMPI PUSH2 0x3DD PUSH2 0x3F5 CALLDATASIZE PUSH1 0x4 PUSH2 0x330 JUMP JUMPDEST PUSH2 0x2C09 JUMP JUMPDEST CALLVALUE PUSH2 0x21E JUMPI PUSH2 0x40A CALLDATASIZE PUSH1 0x4 PUSH2 0x27F JUMP JUMPDEST PUSH2 0x27B PUSH2 0x416 PUSH1 0x9 SLOAD SWAP1 JUMP JUMPDEST PUSH1 0x40 MLOAD JUMPDEST SWAP2 DUP3 SWAP2 DUP3 SWAP1 DUP2 MSTORE PUSH1 0x20 ADD SWAP1 JUMP JUMPDEST SWAP1 SWAP2 PUSH1 0x60 DUP3 DUP5 SUB SLT PUSH2 0x21E JUMPI PUSH2 0x246 PUSH2 0x440 DUP5 DUP5 PUSH2 0x394 JUMP JUMPDEST SWAP4 PUSH2 0x44E DUP2 PUSH1 0x20 DUP7 ADD PUSH2 0x394 JUMP JUMPDEST SWAP4 PUSH1 0x40 ADD PUSH2 0x323 JUMP JUMPDEST CALLVALUE PUSH2 0x21E JUMPI PUSH2 0x3DD PUSH2 0x46A CALLDATASIZE PUSH1 0x4 PUSH2 0x427 JUMP JUMPDEST SWAP2 PUSH2 0x1304 JUMP JUMPDEST PUSH2 0x246 PUSH2 0x246 PUSH2 0x246 SWAP3 SWAP1 JUMP JUMPDEST SWAP1 PUSH2 0x487 SWAP1 PUSH2 0x470 JUMP JUMPDEST PUSH1 0x0 MSTORE PUSH1 0x20 MSTORE PUSH1 0x40 PUSH1 0x0 KECCAK256 SWAP1 JUMP JUMPDEST PUSH2 0x246 SWAP1 DUP2 JUMP JUMPDEST PUSH2 0x246 SWAP1 SLOAD PUSH2 0x495 JUMP JUMPDEST PUSH4 0x4E487B71 PUSH1 0xE0 SHL PUSH1 0x0 MSTORE PUSH1 0x22 PUSH1 0x4 MSTORE PUSH1 0x24 PUSH1 0x0 REVERT JUMPDEST SWAP1 PUSH1 0x1 PUSH1 0x2 DUP4 DIV SWAP3 AND DUP1 ISZERO PUSH2 0x4DC JUMPI JUMPDEST PUSH1 0x20 DUP4 LT EQ PUSH2 0x4D7 JUMPI JUMP JUMPDEST PUSH2 0x4A6 JUMP JUMPDEST SWAP2 PUSH1 0x7F AND SWAP2 PUSH2 0x4CC JUMP JUMPDEST DUP1 SLOAD PUSH1 0x0 SWAP4 SWAP3 SWAP2 PUSH2 0x503 PUSH2 0x4F9 DUP4 PUSH2 0x4BC JUMP JUMPDEST DUP1 DUP6 MSTORE SWAP4 PUSH1 0x20 ADD SWAP1 JUMP JUMPDEST SWAP2 PUSH1 0x1 DUP2 AND SWAP1 DUP2 ISZERO PUSH2 0x555 JUMPI POP PUSH1 0x1 EQ PUSH2 0x51C JUMPI POP POP POP JUMP JUMPDEST PUSH2 0x52F SWAP2 SWAP3 SWAP4 SWAP5 POP PUSH1 0x0 MSTORE PUSH1 0x20 PUSH1 0x0 KECCAK256 SWAP1 JUMP JUMPDEST SWAP2 PUSH1 0x0 SWAP3 JUMPDEST DUP2 DUP5 LT PUSH2 0x541 JUMPI POP POP ADD SWAP1 JUMP JUMPDEST DUP1 SLOAD DUP5 DUP5 ADD MSTORE PUSH1 0x20 SWAP1 SWAP4 ADD SWAP3 PUSH1 0x1 ADD PUSH2 0x534 JUMP JUMPDEST SWAP3 SWAP5 SWAP6 POP POP POP PUSH1 0xFF NOT AND DUP3 MSTORE ISZERO ISZERO PUSH1 0x20 MUL ADD SWAP1 JUMP JUMPDEST SWAP1 PUSH2 0x246 SWAP2 PUSH2 0x4E6 JUMP JUMPDEST PUSH4 0x4E487B71 PUSH1 0xE0 SHL PUSH1 0x0 MSTORE PUSH1 0x41 PUSH1 0x4 MSTORE PUSH1 0x24 PUSH1 0x0 REVERT JUMPDEST SWAP1 PUSH1 0x1F ADD PUSH1 0x1F NOT AND DUP2 ADD SWAP1 DUP2 LT PUSH8 0xFFFFFFFFFFFFFFFF DUP3 GT OR PUSH2 0x5AC JUMPI PUSH1 0x40 MSTORE JUMP JUMPDEST PUSH2 0x574 JUMP JUMPDEST SWAP1 PUSH2 0x230 PUSH2 0x5CB SWAP3 PUSH2 0x5C2 PUSH1 0x40 MLOAD SWAP1 JUMP JUMPDEST SWAP4 DUP5 DUP1 SWAP3 PUSH2 0x56A JUMP JUMPDEST SUB DUP4 PUSH2 0x58A JUMP JUMPDEST PUSH2 0x246 SWAP1 JUMPDEST PUSH1 0xFF AND SWAP1 JUMP JUMPDEST PUSH2 0x246 SWAP1 SLOAD PUSH2 0x5D2 JUMP JUMPDEST PUSH2 0x5F2 SWAP1 PUSH1 0x13 PUSH2 0x47D JUMP JUMPDEST SWAP1 PUSH2 0x5FC DUP3 PUSH2 0x49C JUMP JUMPDEST SWAP2 PUSH2 0x611 PUSH1 0x1 DUP3 ADD SLOAD PUSH1 0x1 PUSH1 0x1 PUSH1 0xA0 SHL SUB AND SWAP1 JUMP JUMPDEST SWAP2 PUSH2 0x61E PUSH1 0x2 DUP4 ADD PUSH2 0x5B1 JUMP JUMPDEST SWAP2 PUSH2 0x62B PUSH1 0x3 DUP3 ADD PUSH2 0x5B1 JUMP JUMPDEST SWAP2 PUSH2 0x638 PUSH1 0x4 DUP4 ADD PUSH2 0x5B1 JUMP JUMPDEST SWAP2 PUSH2 0x645 PUSH1 0x5 DUP3 ADD PUSH2 0x5B1 JUMP JUMPDEST SWAP2 PUSH2 0x246 PUSH1 0x7 PUSH2 0x657 PUSH1 0x6 DUP6 ADD PUSH2 0x49C JUMP JUMPDEST SWAP4 ADD PUSH2 0x5DD JUMP JUMPDEST PUSH4 0x4E487B71 PUSH1 0xE0 SHL PUSH1 0x0 MSTORE PUSH1 0x21 PUSH1 0x4 MSTORE PUSH1 0x24 PUSH1 0x0 REVERT JUMPDEST PUSH1 0x6 GT ISZERO PUSH2 0x67E JUMPI JUMP JUMPDEST PUSH2 0x65E JUMP JUMPDEST SWAP1 PUSH2 0x230 DUP3 PUSH2 0x674 JUMP JUMPDEST PUSH2 0x246 SWAP1 PUSH2 0x683 JUMP JUMPDEST PUSH2 0x249 SWAP1 PUSH2 0x68D JUMP JUMPDEST SWAP4 PUSH1 0xE0 SWAP6 PUSH2 0x6FC PUSH2 0x70A SWAP3 PUSH2 0x6EE DUP9 PUSH2 0x720 SWAP9 PUSH2 0x230 SWAP14 SWAP16 SWAP15 SWAP13 SWAP8 PUSH2 0x718 SWAP10 PUSH2 0x6D1 PUSH2 0x6E1 SWAP3 PUSH1 0x0 PUSH2 0x100 DUP8 ADD SWAP7 ADD MSTORE JUMP JUMPDEST PUSH1 0x1 PUSH1 0x1 PUSH1 0xA0 SHL SUB AND PUSH1 0x20 DUP14 ADD MSTORE JUMP JUMPDEST DUP11 DUP3 SUB PUSH1 0x40 DUP13 ADD MSTORE PUSH2 0x2AD JUMP JUMPDEST SWAP1 DUP9 DUP3 SUB PUSH1 0x60 DUP11 ADD MSTORE PUSH2 0x2AD JUMP JUMPDEST SWAP1 DUP7 DUP3 SUB PUSH1 0x80 DUP9 ADD MSTORE PUSH2 0x2AD JUMP JUMPDEST SWAP1 DUP5 DUP3 SUB PUSH1 0xA0 DUP7 ADD MSTORE PUSH2 0x2AD JUMP JUMPDEST SWAP7 PUSH1 0xC0 DUP4 ADD MSTORE JUMP JUMPDEST ADD SWAP1 PUSH2 0x696 JUMP JUMPDEST CALLVALUE PUSH2 0x21E JUMPI PUSH2 0x27B PUSH2 0x742 PUSH2 0x73D CALLDATASIZE PUSH1 0x4 PUSH2 0x330 JUMP JUMPDEST PUSH2 0x5E7 JUMP JUMPDEST SWAP5 PUSH2 0x755 SWAP9 SWAP7 SWAP9 SWAP5 SWAP2 SWAP5 SWAP4 SWAP3 SWAP4 PUSH1 0x40 MLOAD SWAP1 JUMP JUMPDEST SWAP9 DUP10 SWAP9 DUP10 PUSH2 0x69F JUMP JUMPDEST CALLVALUE PUSH2 0x21E JUMPI PUSH2 0x27B PUSH2 0x416 PUSH2 0x774 CALLDATASIZE PUSH1 0x4 PUSH2 0x3A1 JUMP JUMPDEST SWAP1 PUSH2 0x19ED JUMP JUMPDEST CALLVALUE PUSH2 0x21E JUMPI PUSH2 0x3DD PUSH2 0x78D CALLDATASIZE PUSH1 0x4 PUSH2 0x427 JUMP JUMPDEST SWAP2 PUSH2 0x1345 JUMP JUMPDEST CALLVALUE PUSH2 0x21E JUMPI PUSH2 0x27B PUSH2 0x416 PUSH2 0x7A9 CALLDATASIZE PUSH1 0x4 PUSH2 0x330 JUMP JUMPDEST PUSH2 0x1AC2 JUMP JUMPDEST CALLVALUE PUSH2 0x21E JUMPI PUSH2 0x3DD PUSH2 0x7C1 CALLDATASIZE PUSH1 0x4 PUSH2 0x330 JUMP JUMPDEST PUSH2 0x2E06 JUMP JUMPDEST CALLVALUE PUSH2 0x21E JUMPI PUSH2 0x27B PUSH2 0x36B PUSH2 0x7DC CALLDATASIZE PUSH1 0x4 PUSH2 0x330 JUMP JUMPDEST PUSH2 0x10D1 JUMP JUMPDEST SWAP1 PUSH1 0x20 DUP3 DUP3 SUB SLT PUSH2 0x21E JUMPI PUSH2 0x246 SWAP2 PUSH2 0x394 JUMP JUMPDEST CALLVALUE PUSH2 0x21E JUMPI PUSH2 0x27B PUSH2 0x416 PUSH2 0x80B CALLDATASIZE PUSH1 0x4 PUSH2 0x7E1 JUMP JUMPDEST PUSH2 0x1048 JUMP JUMPDEST CALLVALUE PUSH2 0x21E JUMPI PUSH2 0x820 CALLDATASIZE PUSH1 0x4 PUSH2 0x27F JUMP JUMPDEST PUSH2 0x3DD PUSH2 0xE03 JUMP JUMPDEST CALLVALUE PUSH2 0x21E JUMPI PUSH2 0x838 CALLDATASIZE PUSH1 0x4 PUSH2 0x27F JUMP JUMPDEST PUSH2 0x27B PUSH2 0x36B PUSH1 0xB SLOAD PUSH1 0x1 PUSH1 0x1 PUSH1 0xA0 SHL SUB AND SWAP1 JUMP JUMPDEST PUSH2 0x246 SWAP2 PUSH1 0x8 MUL SHR DUP2 JUMP JUMPDEST SWAP1 PUSH2 0x246 SWAP2 SLOAD PUSH2 0x84D JUMP JUMPDEST PUSH2 0x246 PUSH1 0x0 PUSH1 0xF PUSH2 0x858 JUMP JUMPDEST CALLVALUE PUSH2 0x21E JUMPI PUSH2 0x87F CALLDATASIZE PUSH1 0x4 PUSH2 0x27F JUMP JUMPDEST PUSH2 0x27B PUSH2 0x416 PUSH2 0x863 JUMP JUMPDEST CALLVALUE PUSH2 0x21E JUMPI PUSH2 0x89A CALLDATASIZE PUSH1 0x4 PUSH2 0x27F JUMP JUMPDEST PUSH2 0x27B PUSH2 0x311 PUSH2 0x1112 JUMP JUMPDEST DUP1 ISZERO ISZERO PUSH2 0x217 JUMP JUMPDEST SWAP1 POP CALLDATALOAD SWAP1 PUSH2 0x230 DUP3 PUSH2 0x8A5 JUMP JUMPDEST SWAP2 SWAP1 PUSH1 0x40 DUP4 DUP3 SUB SLT PUSH2 0x21E JUMPI PUSH2 0x246 SWAP1 PUSH2 0x8D4 DUP2 DUP6 PUSH2 0x394 JUMP JUMPDEST SWAP4 PUSH1 0x20 ADD PUSH2 0x8AD JUMP JUMPDEST CALLVALUE PUSH2 0x21E JUMPI PUSH2 0x3DD PUSH2 0x8F0 CALLDATASIZE PUSH1 0x4 PUSH2 0x8BA JUMP JUMPDEST SWAP1 PUSH2 0x1272 JUMP JUMPDEST SWAP1 PUSH2 0x230 PUSH2 0x903 PUSH1 0x40 MLOAD SWAP1 JUMP JUMPDEST SWAP3 DUP4 PUSH2 0x58A JUMP JUMPDEST PUSH8 0xFFFFFFFFFFFFFFFF DUP2 GT PUSH2 0x5AC JUMPI PUSH1 0x20 SWAP1 PUSH1 0x1F ADD PUSH1 0x1F NOT AND ADD SWAP1 JUMP JUMPDEST SWAP1 DUP3 PUSH1 0x0 SWAP4 SWAP3 DUP3 CALLDATACOPY ADD MSTORE JUMP JUMPDEST SWAP1 SWAP3 SWAP2 SWAP3 PUSH2 0x948 PUSH2 0x943 DUP3 PUSH2 0x90A JUMP JUMPDEST PUSH2 0x8F6 JUMP JUMPDEST SWAP4 DUP2 DUP6 MSTORE PUSH1 0x20 DUP6 ADD SWAP1 DUP3 DUP5 ADD GT PUSH2 0x21E JUMPI PUSH2 0x230 SWAP3 PUSH2 0x927 JUMP JUMPDEST SWAP1 DUP1 PUSH1 0x1F DUP4 ADD SLT ISZERO PUSH2 0x21E JUMPI DUP2 PUSH1 0x20 PUSH2 0x246 SWAP4 CALLDATALOAD SWAP2 ADD PUSH2 0x933 JUMP JUMPDEST PUSH1 0x6 GT ISZERO PUSH2 0x21E JUMPI JUMP JUMPDEST SWAP1 POP CALLDATALOAD SWAP1 PUSH2 0x230 DUP3 PUSH2 0x97D JUMP JUMPDEST PUSH1 0xE0 DUP2 DUP4 SUB SLT PUSH2 0x21E JUMPI DUP1 CALLDATALOAD PUSH8 0xFFFFFFFFFFFFFFFF DUP2 GT PUSH2 0x21E JUMPI DUP3 PUSH2 0x9BB SWAP2 DUP4 ADD PUSH2 0x962 JUMP JUMPDEST SWAP3 PUSH1 0x20 DUP3 ADD CALLDATALOAD PUSH8 0xFFFFFFFFFFFFFFFF DUP2 GT PUSH2 0x21E JUMPI DUP4 PUSH2 0x9DC SWAP2 DUP5 ADD PUSH2 0x962 JUMP JUMPDEST SWAP3 PUSH1 0x40 DUP4 ADD CALLDATALOAD PUSH8 0xFFFFFFFFFFFFFFFF DUP2 GT PUSH2 0x21E JUMPI DUP2 PUSH2 0x9FD SWAP2 DUP6 ADD PUSH2 0x962 JUMP JUMPDEST SWAP3 PUSH1 0x60 DUP2 ADD CALLDATALOAD PUSH8 0xFFFFFFFFFFFFFFFF DUP2 GT PUSH2 0x21E JUMPI DUP3 PUSH2 0xA1E SWAP2 DUP4 ADD PUSH2 0x962 JUMP JUMPDEST SWAP3 PUSH2 0x246 PUSH2 0xA2F DUP5 PUSH1 0x80 DUP6 ADD PUSH2 0x323 JUMP JUMPDEST SWAP4 PUSH2 0xA3D DUP2 PUSH1 0xA0 DUP7 ADD PUSH2 0x323 JUMP JUMPDEST SWAP4 PUSH1 0xC0 ADD PUSH2 0x987 JUMP JUMPDEST CALLVALUE PUSH2 0x21E JUMPI PUSH2 0x3DD PUSH2 0xA59 CALLDATASIZE PUSH1 0x4 PUSH2 0x994 JUMP JUMPDEST SWAP6 SWAP5 SWAP1 SWAP5 SWAP4 SWAP2 SWAP4 PUSH2 0x25D7 JUMP JUMPDEST PUSH1 0x5 GT ISZERO PUSH2 0x67E JUMPI JUMP JUMPDEST SWAP1 PUSH2 0x230 DUP3 PUSH2 0xA65 JUMP JUMPDEST PUSH2 0x246 SWAP1 PUSH2 0xA6F JUMP JUMPDEST PUSH2 0x249 SWAP1 PUSH2 0xA79 JUMP JUMPDEST DUP1 MLOAD DUP3 MSTORE PUSH1 0x20 DUP1 DUP3 ADD MLOAD PUSH1 0x1 PUSH1 0x1 PUSH1 0xA0 SHL SUB AND SWAP1 DUP4 ADD MSTORE SWAP1 PUSH2 0x246 SWAP1 PUSH2 0x120 DUP1 PUSH2 0xB04 PUSH2 0xAF2 PUSH2 0xAE0 PUSH2 0xACE PUSH2 0x140 DUP8 ADD PUSH1 0x40 DUP11 ADD MLOAD DUP9 DUP3 SUB PUSH1 0x40 DUP11 ADD MSTORE PUSH2 0x2AD JUMP JUMPDEST PUSH1 0x60 DUP10 ADD MLOAD DUP8 DUP3 SUB PUSH1 0x60 DUP10 ADD MSTORE PUSH2 0x2AD JUMP JUMPDEST PUSH1 0x80 DUP9 ADD MLOAD DUP7 DUP3 SUB PUSH1 0x80 DUP9 ADD MSTORE PUSH2 0x2AD JUMP JUMPDEST PUSH1 0xA0 DUP8 ADD MLOAD DUP6 DUP3 SUB PUSH1 0xA0 DUP8 ADD MSTORE PUSH2 0x2AD JUMP JUMPDEST SWAP5 PUSH2 0xB14 PUSH1 0xC0 DUP3 ADD MLOAD PUSH1 0xC0 DUP7 ADD MSTORE JUMP JUMPDEST PUSH2 0xB23 PUSH1 0xE0 DUP3 ADD MLOAD PUSH1 0xE0 DUP7 ADD MSTORE JUMP JUMPDEST PUSH2 0xB37 PUSH2 0x100 DUP3 ADD MLOAD PUSH2 0x100 DUP7 ADD SWAP1 PUSH2 0x696 JUMP JUMPDEST ADD MLOAD SWAP2 ADD SWAP1 PUSH2 0xA82 JUMP JUMPDEST SWAP1 PUSH2 0x246 SWAP2 PUSH2 0xA8B JUMP JUMPDEST SWAP1 PUSH2 0xB61 PUSH2 0xB57 DUP4 MLOAD SWAP1 JUMP JUMPDEST DUP1 DUP4 MSTORE SWAP2 PUSH1 0x20 ADD SWAP1 JUMP JUMPDEST SWAP1 DUP2 PUSH2 0xB73 PUSH1 0x20 DUP4 MUL DUP5 ADD SWAP5 PUSH1 0x20 ADD SWAP1 JUMP JUMPDEST SWAP3 PUSH1 0x0 SWAP2 JUMPDEST DUP4 DUP4 LT PUSH2 0xB87 JUMPI POP POP POP POP POP SWAP1 JUMP JUMPDEST SWAP1 SWAP2 SWAP3 SWAP4 SWAP5 PUSH1 0x20 PUSH2 0xBAA PUSH2 0xBA3 DUP4 DUP6 PUSH1 0x1 SWAP6 SUB DUP8 MSTORE DUP10 MLOAD PUSH2 0xB41 JUMP JUMPDEST SWAP8 PUSH1 0x20 ADD SWAP1 JUMP JUMPDEST SWAP4 ADD SWAP4 ADD SWAP2 SWAP4 SWAP3 SWAP1 PUSH2 0xB78 JUMP JUMPDEST PUSH1 0x20 DUP1 DUP3 MSTORE PUSH2 0x246 SWAP3 SWAP2 ADD SWAP1 PUSH2 0xB4B JUMP JUMPDEST CALLVALUE PUSH2 0x21E JUMPI PUSH2 0x27B PUSH2 0xBE3 PUSH2 0xBDE CALLDATASIZE PUSH1 0x4 PUSH2 0x7E1 JUMP JUMPDEST PUSH2 0x2914 JUMP JUMPDEST PUSH1 0x40 MLOAD SWAP2 DUP3 SWAP2 DUP3 PUSH2 0xBB7 JUMP JUMPDEST SWAP1 PUSH1 0x80 DUP3 DUP3 SUB SLT PUSH2 0x21E JUMPI PUSH2 0xC04 DUP2 DUP4 PUSH2 0x394 JUMP JUMPDEST SWAP3 PUSH2 0xC12 DUP3 PUSH1 0x20 DUP6 ADD PUSH2 0x394 JUMP JUMPDEST SWAP3 PUSH2 0xC20 DUP4 PUSH1 0x40 DUP4 ADD PUSH2 0x323 JUMP JUMPDEST SWAP3 PUSH1 0x60 DUP3 ADD CALLDATALOAD PUSH8 0xFFFFFFFFFFFFFFFF DUP2 GT PUSH2 0x21E JUMPI PUSH2 0x246 SWAP3 ADD PUSH2 0x962 JUMP JUMPDEST CALLVALUE PUSH2 0x21E JUMPI PUSH2 0x3DD PUSH2 0xC52 CALLDATASIZE PUSH1 0x4 PUSH2 0xBEF JUMP JUMPDEST SWAP3 SWAP2 SWAP1 SWAP2 PUSH2 0x1355 JUMP JUMPDEST CALLVALUE PUSH2 0x21E JUMPI PUSH2 0x3DD PUSH2 0xC6E CALLDATASIZE PUSH1 0x4 PUSH2 0x7E1 JUMP JUMPDEST PUSH2 0x22EE JUMP JUMPDEST CALLVALUE PUSH2 0x21E JUMPI PUSH2 0x27B PUSH2 0x311 PUSH2 0xC89 CALLDATASIZE PUSH1 0x4 PUSH2 0x330 JUMP JUMPDEST PUSH2 0x1C18 JUMP JUMPDEST PUSH2 0x246 PUSH1 0x0 PUSH1 0x10 PUSH2 0x858 JUMP JUMPDEST CALLVALUE PUSH2 0x21E JUMPI PUSH2 0xCAA CALLDATASIZE PUSH1 0x4 PUSH2 0x27F JUMP JUMPDEST PUSH2 0x27B PUSH2 0x416 PUSH2 0xC8E JUMP JUMPDEST SWAP2 SWAP1 PUSH1 0x40 DUP4 DUP3 SUB SLT PUSH2 0x21E JUMPI PUSH2 0x246 SWAP1 PUSH2 0xCCF DUP2 DUP6 PUSH2 0x394 JUMP JUMPDEST SWAP4 PUSH1 0x20 ADD PUSH2 0x394 JUMP JUMPDEST CALLVALUE PUSH2 0x21E JUMPI PUSH2 0x27B PUSH2 0x268 PUSH2 0xCEE CALLDATASIZE PUSH1 0x4 PUSH2 0xCB5 JUMP JUMPDEST SWAP1 PUSH2 0x127D JUMP JUMPDEST CALLVALUE PUSH2 0x21E JUMPI PUSH2 0x3DD PUSH2 0xD07 CALLDATASIZE PUSH1 0x4 PUSH2 0x7E1 JUMP JUMPDEST PUSH2 0xF24 JUMP JUMPDEST CALLVALUE PUSH2 0x21E JUMPI PUSH2 0x3DD PUSH2 0xD1F CALLDATASIZE PUSH1 0x4 PUSH2 0x3A1 JUMP JUMPDEST SWAP1 PUSH2 0x32D0 JUMP JUMPDEST CALLVALUE PUSH2 0x21E JUMPI PUSH2 0x3DD PUSH2 0xD38 CALLDATASIZE PUSH1 0x4 PUSH2 0x7E1 JUMP JUMPDEST PUSH2 0x2316 JUMP JUMPDEST SWAP1 PUSH2 0xD5D PUSH2 0xD56 PUSH2 0xD4C DUP5 MLOAD SWAP1 JUMP JUMPDEST DUP1 DUP5 MSTORE SWAP3 PUSH1 0x20 ADD SWAP1 JUMP JUMPDEST SWAP3 PUSH1 0x20 ADD SWAP1 JUMP JUMPDEST SWAP1 PUSH1 0x0 JUMPDEST DUP2 DUP2 LT PUSH2 0xD6E JUMPI POP POP POP SWAP1 JUMP JUMPDEST SWAP1 SWAP2 SWAP3 PUSH2 0xD8B PUSH2 0xD84 PUSH1 0x1 SWAP3 DUP7 MLOAD DUP2 MSTORE PUSH1 0x20 ADD SWAP1 JUMP JUMPDEST SWAP5 PUSH1 0x20 ADD SWAP1 JUMP JUMPDEST SWAP3 SWAP2 ADD PUSH2 0xD61 JUMP JUMPDEST PUSH1 0x20 DUP1 DUP3 MSTORE PUSH2 0x246 SWAP3 SWAP2 ADD SWAP1 PUSH2 0xD3D JUMP JUMPDEST CALLVALUE PUSH2 0x21E JUMPI PUSH2 0x27B PUSH2 0xDBF PUSH2 0xDBA CALLDATASIZE PUSH1 0x4 PUSH2 0x7E1 JUMP JUMPDEST PUSH2 0x270D JUMP JUMPDEST PUSH1 0x40 MLOAD SWAP2 DUP3 SWAP2 DUP3 PUSH2 0xD93 JUMP JUMPDEST PUSH2 0xDD3 PUSH2 0xE5F JUMP JUMPDEST PUSH2 0x230 PUSH2 0xDF1 JUMP JUMPDEST PUSH2 0x344 PUSH2 0x246 PUSH2 0x246 SWAP3 SWAP1 JUMP JUMPDEST PUSH2 0x246 SWAP1 PUSH2 0xDDB JUMP JUMPDEST PUSH2 0x230 PUSH2 0xDFE PUSH1 0x0 PUSH2 0xDE8 JUMP JUMPDEST PUSH2 0xF83 JUMP JUMPDEST PUSH2 0x230 PUSH2 0xDCB JUMP JUMPDEST ISZERO PUSH2 0xE12 JUMPI JUMP JUMPDEST PUSH1 0x40 MLOAD PUSH3 0x461BCD PUSH1 0xE5 SHL DUP2 MSTORE DUP1 PUSH2 0xE5B PUSH1 0x4 DUP3 ADD PUSH1 0x20 DUP1 DUP3 MSTORE DUP2 DUP2 ADD MSTORE PUSH32 0x4F776E61626C653A2063616C6C6572206973206E6F7420746865206F776E6572 PUSH1 0x40 DUP3 ADD MSTORE PUSH1 0x60 ADD SWAP1 JUMP JUMPDEST SUB SWAP1 REVERT JUMPDEST PUSH2 0x230 PUSH2 0xE74 PUSH1 0xB SLOAD PUSH1 0x1 PUSH1 0x1 PUSH1 0xA0 SHL SUB AND SWAP1 JUMP JUMPDEST PUSH2 0xE8D PUSH2 0xE80 CALLER PUSH2 0x344 JUMP JUMPDEST SWAP2 PUSH1 0x1 PUSH1 0x1 PUSH1 0xA0 SHL SUB AND SWAP1 JUMP JUMPDEST EQ PUSH2 0xE0B JUMP JUMPDEST PUSH2 0x230 SWAP1 PUSH2 0xE9F PUSH2 0xE5F JUMP JUMPDEST PUSH2 0xEFF JUMP JUMPDEST ISZERO PUSH2 0xEAB JUMPI JUMP JUMPDEST PUSH1 0x40 MLOAD PUSH3 0x461BCD PUSH1 0xE5 SHL DUP2 MSTORE PUSH1 0x20 PUSH1 0x4 DUP3 ADD MSTORE PUSH1 0x26 PUSH1 0x24 DUP3 ADD MSTORE PUSH32 0x4F776E61626C653A206E6577206F776E657220697320746865207A65726F2061 PUSH1 0x44 DUP3 ADD MSTORE PUSH6 0x646472657373 PUSH1 0xD0 SHL PUSH1 0x64 DUP3 ADD MSTORE PUSH1 0x84 SWAP1 REVERT JUMPDEST PUSH2 0x230 SWAP1 PUSH2 0xDFE PUSH2 0xF13 PUSH2 0x344 PUSH1 0x0 PUSH2 0xDE8 JUMP JUMPDEST PUSH1 0x1 PUSH1 0x1 PUSH1 0xA0 SHL SUB DUP4 AND EQ ISZERO PUSH2 0xEA4 JUMP JUMPDEST PUSH2 0x230 SWAP1 PUSH2 0xE93 JUMP JUMPDEST SWAP1 PUSH1 0x1 PUSH1 0x1 PUSH1 0xA0 SHL SUB SWAP1 JUMPDEST SWAP2 DUP2 NOT AND SWAP2 AND OR SWAP1 JUMP JUMPDEST PUSH2 0x246 SWAP1 PUSH2 0x344 SWAP1 PUSH1 0x1 PUSH1 0x1 PUSH1 0xA0 SHL SUB AND DUP3 JUMP JUMPDEST PUSH2 0x246 SWAP1 PUSH2 0xF42 JUMP JUMPDEST PUSH2 0x246 SWAP1 PUSH2 0xF56 JUMP JUMPDEST SWAP1 PUSH2 0xF78 PUSH2 0x246 PUSH2 0xF7F SWAP3 PUSH2 0xF5F JUMP JUMPDEST DUP3 SLOAD PUSH2 0xF2D JUMP JUMPDEST SWAP1 SSTORE JUMP JUMPDEST PUSH1 0xB SLOAD PUSH1 0x1 PUSH1 0x1 PUSH1 0xA0 SHL SUB AND SWAP1 PUSH2 0xF9B DUP2 PUSH1 0xB PUSH2 0xF68 JUMP JUMPDEST PUSH2 0xFCE PUSH2 0xFC8 PUSH32 0x8BE0079C531659141344CD1FD0A4F28419497F9722A3DAAFE3B4186F6B6457E0 SWAP4 PUSH2 0xF5F JUMP JUMPDEST SWAP2 PUSH2 0xF5F JUMP JUMPDEST SWAP2 PUSH2 0xFD8 PUSH1 0x40 MLOAD SWAP1 JUMP JUMPDEST DUP1 DUP1 JUMPDEST SUB SWAP1 LOG3 JUMP JUMPDEST ISZERO PUSH2 0xFE7 JUMPI JUMP JUMPDEST PUSH1 0x40 MLOAD PUSH3 0x461BCD PUSH1 0xE5 SHL DUP2 MSTORE PUSH1 0x20 PUSH1 0x4 DUP3 ADD MSTORE PUSH1 0x29 PUSH1 0x24 DUP3 ADD MSTORE PUSH32 0x4552433732313A2061646472657373207A65726F206973206E6F742061207661 PUSH1 0x44 DUP3 ADD MSTORE PUSH9 0x3634B21037BBB732B9 PUSH1 0xB9 SHL PUSH1 0x64 DUP3 ADD MSTORE PUSH1 0x84 SWAP1 REVERT JUMPDEST SWAP1 PUSH2 0x487 SWAP1 PUSH2 0xF5F JUMP JUMPDEST PUSH2 0x1080 PUSH2 0x246 SWAP2 PUSH2 0x1057 PUSH1 0x0 SWAP1 JUMP JUMPDEST POP PUSH2 0x1079 PUSH2 0x1068 PUSH2 0x344 PUSH1 0x0 PUSH2 0xDE8 JUMP JUMPDEST PUSH1 0x1 PUSH1 0x1 PUSH1 0xA0 SHL SUB DUP4 AND EQ ISZERO PUSH2 0xFE0 JUMP JUMPDEST PUSH1 0x3 PUSH2 0x103E JUMP JUMPDEST PUSH2 0x49C JUMP JUMPDEST ISZERO PUSH2 0x108C JUMPI JUMP JUMPDEST PUSH1 0x40 MLOAD PUSH3 0x461BCD PUSH1 0xE5 SHL DUP2 MSTORE PUSH1 0x20 PUSH1 0x4 DUP3 ADD MSTORE PUSH1 0x18 PUSH1 0x24 DUP3 ADD MSTORE PUSH32 0x4552433732313A20696E76616C696420746F6B656E2049440000000000000000 PUSH1 0x44 DUP3 ADD MSTORE PUSH1 0x64 SWAP1 REVERT JUMPDEST PUSH2 0x10DE SWAP1 PUSH1 0x0 JUMPDEST POP PUSH2 0x13F5 JUMP JUMPDEST PUSH2 0x246 PUSH2 0x10EE PUSH2 0x344 PUSH1 0x0 PUSH2 0xDE8 JUMP JUMPDEST PUSH1 0x1 PUSH1 0x1 PUSH1 0xA0 SHL SUB DUP4 AND EQ ISZERO PUSH2 0x1085 JUMP JUMPDEST PUSH2 0x246 SWAP1 PUSH2 0x5B1 JUMP JUMPDEST PUSH2 0x246 PUSH1 0x0 PUSH2 0x10FF JUMP JUMPDEST PUSH2 0x246 PUSH1 0x1 PUSH2 0x10FF JUMP JUMPDEST ISZERO PUSH2 0x1123 JUMPI JUMP JUMPDEST PUSH1 0x40 MLOAD PUSH3 0x461BCD PUSH1 0xE5 SHL DUP2 MSTORE PUSH1 0x20 PUSH1 0x4 DUP3 ADD MSTORE PUSH1 0x21 PUSH1 0x24 DUP3 ADD MSTORE PUSH32 0x4552433732313A20617070726F76616C20746F2063757272656E74206F776E65 PUSH1 0x44 DUP3 ADD MSTORE PUSH1 0x39 PUSH1 0xF9 SHL PUSH1 0x64 DUP3 ADD MSTORE PUSH1 0x84 SWAP1 REVERT JUMPDEST ISZERO PUSH2 0x1179 JUMPI JUMP JUMPDEST PUSH1 0x40 MLOAD PUSH3 0x461BCD PUSH1 0xE5 SHL DUP2 MSTORE PUSH1 0x20 PUSH1 0x4 DUP3 ADD MSTORE PUSH1 0x3D PUSH1 0x24 DUP3 ADD MSTORE PUSH32 0x4552433732313A20617070726F76652063616C6C6572206973206E6F7420746F PUSH1 0x44 DUP3 ADD MSTORE PUSH32 0x6B656E206F776E6572206F7220617070726F76656420666F7220616C6C000000 PUSH1 0x64 DUP3 ADD MSTORE PUSH1 0x84 SWAP1 REVERT JUMPDEST SWAP1 PUSH2 0x230 SWAP2 PUSH2 0x122F PUSH2 0x11F5 DUP4 PUSH2 0x10D1 JUMP JUMPDEST PUSH2 0x1213 PUSH1 0x1 PUSH1 0x1 PUSH1 0xA0 SHL SUB DUP3 AND PUSH1 0x1 PUSH1 0x1 PUSH1 0xA0 SHL SUB DUP6 AND EQ ISZERO PUSH2 0x111C JUMP JUMPDEST CALLER PUSH1 0x1 PUSH1 0x1 PUSH1 0xA0 SHL SUB DUP3 AND DUP2 EQ SWAP2 DUP3 ISZERO PUSH2 0x1234 JUMPI JUMPDEST POP POP PUSH2 0x1172 JUMP JUMPDEST PUSH2 0x16B1 JUMP JUMPDEST PUSH2 0x123E SWAP3 POP PUSH2 0x127D JUMP JUMPDEST CODESIZE DUP1 PUSH2 0x1228 JUMP JUMPDEST PUSH2 0x1265 PUSH2 0x246 SWAP2 PUSH2 0x1254 PUSH1 0x0 SWAP1 JUMP JUMPDEST POP PUSH2 0x125E DUP2 PUSH2 0x17DD JUMP JUMPDEST PUSH1 0x4 PUSH2 0x47D JUMP JUMPDEST SLOAD PUSH1 0x1 PUSH1 0x1 PUSH1 0xA0 SHL SUB AND SWAP1 JUMP JUMPDEST PUSH2 0x230 SWAP2 SWAP1 CALLER PUSH2 0x1767 JUMP JUMPDEST PUSH2 0x246 SWAP2 PUSH2 0x1298 PUSH2 0x129D SWAP3 PUSH2 0x1290 PUSH1 0x0 SWAP1 JUMP JUMPDEST POP PUSH1 0x5 PUSH2 0x103E JUMP JUMPDEST PUSH2 0x103E JUMP JUMPDEST PUSH2 0x5DD JUMP JUMPDEST ISZERO PUSH2 0x12A9 JUMPI JUMP JUMPDEST PUSH1 0x40 MLOAD PUSH3 0x461BCD PUSH1 0xE5 SHL DUP2 MSTORE PUSH1 0x20 PUSH1 0x4 DUP3 ADD MSTORE PUSH1 0x2D PUSH1 0x24 DUP3 ADD MSTORE PUSH32 0x4552433732313A2063616C6C6572206973206E6F7420746F6B656E206F776E65 PUSH1 0x44 DUP3 ADD MSTORE PUSH13 0x1C881BDC88185C1C1C9BDD9959 PUSH1 0x9A SHL PUSH1 0x64 DUP3 ADD MSTORE PUSH1 0x84 SWAP1 REVERT JUMPDEST PUSH2 0x230 SWAP3 SWAP2 SWAP1 PUSH2 0x131C PUSH2 0x1317 DUP5 CALLER PUSH2 0x140C JUMP JUMPDEST PUSH2 0x12A2 JUMP JUMPDEST PUSH2 0x1587 JUMP JUMPDEST SWAP1 PUSH2 0x132E PUSH2 0x943 DUP4 PUSH2 0x90A JUMP JUMPDEST SWAP2 DUP3 MSTORE JUMP JUMPDEST PUSH2 0x246 PUSH1 0x0 PUSH2 0x1321 JUMP JUMPDEST PUSH2 0x246 PUSH2 0x1333 JUMP JUMPDEST SWAP1 SWAP2 PUSH2 0x230 SWAP3 PUSH2 0x1353 PUSH2 0x133D JUMP JUMPDEST SWAP3 JUMPDEST PUSH2 0x230 SWAP4 SWAP3 SWAP2 SWAP1 PUSH2 0x1369 PUSH2 0x1317 DUP5 CALLER PUSH2 0x140C JUMP JUMPDEST PUSH2 0x13D6 JUMP JUMPDEST ISZERO PUSH2 0x1375 JUMPI JUMP JUMPDEST PUSH1 0x40 MLOAD JUMPDEST PUSH3 0x461BCD PUSH1 0xE5 SHL DUP2 MSTORE PUSH1 0x20 PUSH1 0x4 DUP3 ADD MSTORE PUSH1 0x32 PUSH1 0x24 DUP3 ADD MSTORE PUSH32 0x4552433732313A207472616E7366657220746F206E6F6E204552433732315265 PUSH1 0x44 DUP3 ADD MSTORE PUSH18 0x31B2B4BB32B91034B6B83632B6B2B73A32B9 PUSH1 0x71 SHL PUSH1 0x64 DUP3 ADD MSTORE PUSH1 0x84 SWAP1 REVERT JUMPDEST SWAP2 PUSH2 0x230 SWAP4 SWAP2 PUSH2 0x13F0 SWAP4 PUSH2 0x13EB DUP4 DUP4 DUP4 PUSH2 0x1587 JUMP JUMPDEST PUSH2 0x188B JUMP JUMPDEST PUSH2 0x136E JUMP JUMPDEST PUSH2 0x1265 PUSH2 0x246 SWAP2 PUSH2 0x1404 PUSH1 0x0 SWAP1 JUMP JUMPDEST POP PUSH1 0x2 PUSH2 0x47D JUMP JUMPDEST PUSH2 0x1415 DUP3 PUSH2 0x10D1 JUMP JUMPDEST SWAP2 PUSH1 0x1 PUSH1 0x1 PUSH1 0xA0 SHL SUB DUP4 AND PUSH1 0x1 PUSH1 0x1 PUSH1 0xA0 SHL SUB DUP4 AND EQ SWAP3 DUP4 ISZERO PUSH2 0x1462 JUMPI JUMPDEST POP DUP3 ISZERO PUSH2 0x143F JUMPI POP POP SWAP1 JUMP JUMPDEST PUSH2 0x145E SWAP2 SWAP3 POP PUSH2 0x1451 PUSH2 0xE80 SWAP2 PUSH2 0x1245 JUMP JUMPDEST SWAP3 PUSH1 0x1 PUSH1 0x1 PUSH1 0xA0 SHL SUB AND SWAP1 JUMP JUMPDEST EQ SWAP1 JUMP JUMPDEST PUSH2 0x146F SWAP2 SWAP4 POP DUP3 SWAP1 PUSH2 0x127D JUMP JUMPDEST SWAP2 CODESIZE PUSH2 0x1433 JUMP JUMPDEST ISZERO PUSH2 0x147D JUMPI JUMP JUMPDEST PUSH1 0x40 MLOAD PUSH3 0x461BCD PUSH1 0xE5 SHL DUP2 MSTORE PUSH1 0x20 PUSH1 0x4 DUP3 ADD MSTORE PUSH1 0x25 PUSH1 0x24 DUP3 ADD MSTORE PUSH32 0x4552433732313A207472616E736665722066726F6D20696E636F727265637420 PUSH1 0x44 DUP3 ADD MSTORE PUSH5 0x37BBB732B9 PUSH1 0xD9 SHL PUSH1 0x64 DUP3 ADD MSTORE PUSH1 0x84 SWAP1 REVERT JUMPDEST ISZERO PUSH2 0x14D7 JUMPI JUMP JUMPDEST PUSH1 0x40 MLOAD PUSH3 0x461BCD PUSH1 0xE5 SHL DUP2 MSTORE PUSH1 0x20 PUSH1 0x4 DUP3 ADD MSTORE PUSH1 0x24 DUP1 DUP3 ADD MSTORE PUSH32 0x4552433732313A207472616E7366657220746F20746865207A65726F20616464 PUSH1 0x44 DUP3 ADD MSTORE PUSH4 0x72657373 PUSH1 0xE0 SHL PUSH1 0x64 DUP3 ADD MSTORE PUSH1 0x84 SWAP1 REVERT JUMPDEST SWAP2 PUSH1 0x1 PUSH1 0x1 PUSH1 0xA0 SHL SUB PUSH1 0x8 SWAP3 SWAP1 SWAP3 MUL SWAP2 DUP3 SHL SWAP2 SHL PUSH2 0xF38 JUMP JUMPDEST SWAP2 SWAP1 PUSH2 0x1552 PUSH2 0x246 PUSH2 0xF7F SWAP4 PUSH2 0xF5F JUMP JUMPDEST SWAP1 DUP4 SLOAD PUSH2 0x1528 JUMP JUMPDEST PUSH2 0x230 SWAP2 PUSH1 0x0 SWAP2 PUSH2 0x1541 JUMP JUMPDEST SWAP1 PUSH1 0x0 NOT SWAP1 PUSH2 0xF38 JUMP JUMPDEST SWAP1 PUSH2 0x1580 PUSH2 0x246 PUSH2 0xF7F SWAP3 PUSH2 0x470 JUMP JUMPDEST DUP3 SLOAD PUSH2 0x1566 JUMP JUMPDEST SWAP2 SWAP1 PUSH2 0x15AD PUSH2 0x1595 DUP4 PUSH2 0x10D1 JUMP JUMPDEST PUSH2 0x15A7 PUSH1 0x1 PUSH1 0x1 PUSH1 0xA0 SHL SUB DUP7 AND PUSH2 0xE80 JUMP JUMPDEST EQ PUSH2 0x1476 JUMP JUMPDEST PUSH2 0x1651 PUSH1 0x0 PUSH2 0x15D2 PUSH2 0x15C1 PUSH2 0x344 DUP4 PUSH2 0xDE8 JUMP JUMPDEST PUSH1 0x1 PUSH1 0x1 PUSH1 0xA0 SHL SUB DUP6 AND EQ ISZERO PUSH2 0x14D0 JUMP JUMPDEST PUSH2 0x161A PUSH2 0x15DF PUSH1 0x1 PUSH2 0x470 JUMP JUMPDEST SWAP2 PUSH2 0x15EC DUP4 DUP8 DUP8 DUP11 PUSH2 0x1FB7 JUMP JUMPDEST PUSH2 0x160A PUSH2 0x15F8 DUP8 PUSH2 0x10D1 JUMP JUMPDEST PUSH2 0x15A7 PUSH1 0x1 PUSH1 0x1 PUSH1 0xA0 SHL SUB DUP11 AND PUSH2 0xE80 JUMP JUMPDEST PUSH2 0x1615 DUP7 PUSH1 0x4 PUSH2 0x47D JUMP JUMPDEST PUSH2 0x155A JUMP JUMPDEST PUSH2 0x1641 PUSH2 0x1647 DUP5 PUSH1 0x3 PUSH2 0x1298 PUSH2 0x1630 DUP11 DUP4 PUSH2 0x103E JUMP JUMPDEST PUSH2 0x1641 DUP8 PUSH2 0x163D DUP4 PUSH2 0x49C JUMP JUMPDEST SUB SWAP1 JUMP JUMPDEST SWAP1 PUSH2 0x1570 JUMP JUMPDEST SWAP2 PUSH2 0x2E1 DUP4 PUSH2 0x49C JUMP JUMPDEST PUSH2 0x1665 DUP2 PUSH2 0x1660 DUP5 PUSH1 0x2 PUSH2 0x47D JUMP JUMPDEST PUSH2 0xF68 JUMP JUMPDEST PUSH2 0x16A1 PUSH2 0x169B PUSH2 0x1695 PUSH32 0xDDF252AD1BE2C89B69C2B068FC378DAA952BA7F163C4A11628F55A4DF523B3EF SWAP6 PUSH2 0xF5F JUMP JUMPDEST SWAP3 PUSH2 0xF5F JUMP JUMPDEST SWAP3 PUSH2 0x470 JUMP JUMPDEST SWAP3 PUSH2 0x16AB PUSH1 0x40 MLOAD SWAP1 JUMP JUMPDEST PUSH1 0x0 SWAP1 LOG4 JUMP JUMPDEST SWAP1 PUSH2 0x16C1 DUP3 PUSH2 0x1660 DUP4 PUSH1 0x4 PUSH2 0x47D JUMP JUMPDEST PUSH2 0x16CA DUP2 PUSH2 0x10D1 JUMP JUMPDEST SWAP2 PUSH2 0x16A1 PUSH2 0x169B PUSH2 0x1695 PUSH32 0x8C5BE1E5EBEC7D5BD14F71427D1E84F3DD0314C0F7B2291E5B200AC8C7C3B925 SWAP6 PUSH2 0xF5F JUMP JUMPDEST ISZERO PUSH2 0x1702 JUMPI JUMP JUMPDEST PUSH1 0x40 MLOAD PUSH3 0x461BCD PUSH1 0xE5 SHL DUP2 MSTORE PUSH1 0x20 PUSH1 0x4 DUP3 ADD MSTORE PUSH1 0x19 PUSH1 0x24 DUP3 ADD MSTORE PUSH32 0x4552433732313A20617070726F766520746F2063616C6C657200000000000000 PUSH1 0x44 DUP3 ADD MSTORE PUSH1 0x64 SWAP1 REVERT JUMPDEST SWAP1 PUSH1 0xFF SWAP1 PUSH2 0xF38 JUMP JUMPDEST SWAP1 PUSH2 0x1760 PUSH2 0x246 PUSH2 0xF7F SWAP3 ISZERO ISZERO SWAP1 JUMP JUMPDEST DUP3 SLOAD PUSH2 0x1747 JUMP JUMPDEST PUSH2 0x1785 PUSH1 0x1 PUSH1 0x1 PUSH1 0xA0 SHL SUB DUP4 AND PUSH1 0x1 PUSH1 0x1 PUSH1 0xA0 SHL SUB DUP4 AND EQ ISZERO PUSH2 0x16FB JUMP JUMPDEST PUSH2 0x179D DUP4 PUSH2 0x1798 DUP5 PUSH2 0x1298 DUP6 PUSH1 0x5 PUSH2 0x103E JUMP JUMPDEST PUSH2 0x1750 JUMP JUMPDEST PUSH2 0xFDB PUSH2 0x17D3 PUSH2 0x17CD PUSH32 0x17307EAB39AB6107E8899845AD3D59BD9653F200F220920489CA2B5937696C31 SWAP4 PUSH2 0xF5F JUMP JUMPDEST SWAP4 PUSH2 0xF5F JUMP JUMPDEST SWAP4 PUSH2 0x26C PUSH1 0x40 MLOAD SWAP1 JUMP JUMPDEST PUSH2 0x17E9 PUSH2 0x230 SWAP2 PUSH2 0x17EE JUMP JUMPDEST PUSH2 0x1085 JUMP JUMPDEST PUSH2 0x17F9 SWAP1 PUSH1 0x0 PUSH2 0x10D8 JUMP JUMPDEST PUSH2 0x1809 PUSH2 0xE80 PUSH2 0x344 PUSH1 0x0 PUSH2 0xDE8 JUMP JUMPDEST EQ ISZERO SWAP1 JUMP JUMPDEST SWAP1 POP MLOAD SWAP1 PUSH2 0x230 DUP3 PUSH2 0x20B JUMP JUMPDEST SWAP1 PUSH1 0x20 DUP3 DUP3 SUB SLT PUSH2 0x21E JUMPI PUSH2 0x246 SWAP2 PUSH2 0x180E JUMP JUMPDEST PUSH1 0x1 PUSH1 0x1 PUSH1 0xA0 SHL SUB SWAP2 DUP3 AND DUP2 MSTORE SWAP2 AND PUSH1 0x20 DUP3 ADD MSTORE PUSH1 0x40 DUP2 ADD SWAP2 SWAP1 SWAP2 MSTORE PUSH1 0x80 PUSH1 0x60 DUP3 ADD DUP2 SWAP1 MSTORE PUSH2 0x246 SWAP3 SWAP2 ADD SWAP1 PUSH2 0x2AD JUMP JUMPDEST PUSH1 0x40 MLOAD RETURNDATASIZE PUSH1 0x0 DUP3 RETURNDATACOPY RETURNDATASIZE SWAP1 REVERT JUMPDEST RETURNDATASIZE ISZERO PUSH2 0x1886 JUMPI PUSH2 0x187B RETURNDATASIZE PUSH2 0x1321 JUMP JUMPDEST SWAP1 RETURNDATASIZE PUSH1 0x0 PUSH1 0x20 DUP5 ADD RETURNDATACOPY JUMP JUMPDEST PUSH1 0x60 SWAP1 JUMP JUMPDEST SWAP2 SWAP1 SWAP4 SWAP3 PUSH2 0x1897 PUSH1 0x0 SWAP1 JUMP JUMPDEST SWAP5 PUSH2 0x18A1 DUP2 PUSH2 0x1AF5 JUMP JUMPDEST ISZERO PUSH2 0x1983 JUMPI SWAP1 PUSH2 0x18E8 PUSH1 0x0 PUSH2 0x18C0 PUSH2 0x18BB PUSH1 0x20 SWAP7 SWAP6 PUSH2 0xF5F JUMP JUMPDEST PUSH2 0xF5F JUMP JUMPDEST SWAP3 PUSH2 0x18F3 PUSH4 0x150B7A02 SWAP2 PUSH2 0x18D1 CALLER SWAP1 JUMP JUMPDEST SWAP7 PUSH2 0x18DB PUSH1 0x40 MLOAD SWAP1 JUMP JUMPDEST SWAP10 DUP11 SWAP9 DUP10 SWAP8 DUP9 SWAP7 PUSH1 0xE0 SHL SWAP1 JUMP JUMPDEST DUP7 MSTORE PUSH1 0x4 DUP7 ADD PUSH2 0x182F JUMP JUMPDEST SUB SWAP3 GAS CALL PUSH1 0x0 SWAP2 DUP2 PUSH2 0x1953 JUMPI JUMPDEST POP PUSH2 0x1936 JUMPI POP PUSH2 0x190E PUSH2 0x186C JUMP JUMPDEST DUP1 MLOAD PUSH2 0x1921 PUSH2 0x191D PUSH1 0x0 PUSH2 0x470 JUMP JUMPDEST SWAP2 SWAP1 JUMP JUMPDEST SUB PUSH2 0x192E JUMPI PUSH1 0x40 MLOAD PUSH2 0x1379 JUMP JUMPDEST DUP1 MLOAD SWAP1 PUSH1 0x20 ADD REVERT JUMPDEST SWAP1 SWAP2 POP PUSH2 0x145E PUSH4 0xA85BD01 PUSH1 0xE1 SHL JUMPDEST SWAP2 PUSH1 0x1 PUSH1 0x1 PUSH1 0xE0 SHL SUB NOT AND SWAP1 JUMP JUMPDEST PUSH2 0x1975 SWAP2 SWAP3 POP PUSH1 0x20 RETURNDATASIZE DUP2 GT PUSH2 0x197C JUMPI JUMPDEST PUSH2 0x196D DUP2 DUP4 PUSH2 0x58A JUMP JUMPDEST DUP2 ADD SWAP1 PUSH2 0x181B JUMP JUMPDEST SWAP1 CODESIZE PUSH2 0x1900 JUMP JUMPDEST POP RETURNDATASIZE PUSH2 0x1963 JUMP JUMPDEST POP PUSH1 0x1 SWAP5 POP POP POP POP JUMP JUMPDEST ISZERO PUSH2 0x1994 JUMPI JUMP JUMPDEST PUSH1 0x40 MLOAD PUSH3 0x461BCD PUSH1 0xE5 SHL DUP2 MSTORE PUSH1 0x20 PUSH1 0x4 DUP3 ADD MSTORE PUSH1 0x2B PUSH1 0x24 DUP3 ADD MSTORE PUSH32 0x455243373231456E756D657261626C653A206F776E657220696E646578206F75 PUSH1 0x44 DUP3 ADD MSTORE PUSH11 0x74206F6620626F756E6473 PUSH1 0xA8 SHL PUSH1 0x64 DUP3 ADD MSTORE PUSH1 0x84 SWAP1 REVERT JUMPDEST PUSH2 0x246 SWAP2 PUSH2 0x1A1E PUSH2 0x1080 SWAP3 PUSH2 0x1A00 PUSH1 0x0 SWAP1 JUMP JUMPDEST POP PUSH2 0x1A17 PUSH2 0x1A10 PUSH2 0x246 DUP4 PUSH2 0x1048 JUMP JUMPDEST DUP5 LT PUSH2 0x198D JUMP JUMPDEST PUSH1 0x7 PUSH2 0x103E JUMP JUMPDEST PUSH2 0x47D JUMP JUMPDEST ISZERO PUSH2 0x1A2A JUMPI JUMP JUMPDEST PUSH1 0x40 MLOAD PUSH3 0x461BCD PUSH1 0xE5 SHL DUP2 MSTORE PUSH1 0x20 PUSH1 0x4 DUP3 ADD MSTORE PUSH1 0x2C PUSH1 0x24 DUP3 ADD MSTORE PUSH32 0x455243373231456E756D657261626C653A20676C6F62616C20696E646578206F PUSH1 0x44 DUP3 ADD MSTORE PUSH12 0x7574206F6620626F756E6473 PUSH1 0xA0 SHL PUSH1 0x64 DUP3 ADD MSTORE PUSH1 0x84 SWAP1 REVERT JUMPDEST PUSH4 0x4E487B71 PUSH1 0xE0 SHL PUSH1 0x0 MSTORE PUSH1 0x32 PUSH1 0x4 MSTORE PUSH1 0x24 PUSH1 0x0 REVERT JUMPDEST DUP1 SLOAD DUP3 LT ISZERO PUSH2 0x1ABD JUMPI PUSH2 0x1AB4 PUSH1 0x1 SWAP2 PUSH1 0x0 MSTORE PUSH1 0x20 PUSH1 0x0 KECCAK256 SWAP1 JUMP JUMPDEST SWAP2 MUL ADD SWAP1 PUSH1 0x0 SWAP1 JUMP JUMPDEST PUSH2 0x1A84 JUMP JUMPDEST PUSH2 0x1AEF PUSH2 0x246 SWAP2 PUSH2 0x1AD1 PUSH1 0x0 SWAP1 JUMP JUMPDEST POP PUSH2 0x1AE8 PUSH2 0x1AE1 PUSH2 0x246 PUSH1 0x9 SLOAD SWAP1 JUMP JUMPDEST DUP3 LT PUSH2 0x1A23 JUMP JUMPDEST PUSH1 0x9 PUSH2 0x1A9A JUMP JUMPDEST SWAP1 PUSH2 0x858 JUMP JUMPDEST EXTCODESIZE PUSH2 0x1B03 PUSH2 0x191D PUSH1 0x0 PUSH2 0x470 JUMP JUMPDEST GT SWAP1 JUMP JUMPDEST CALLVALUE PUSH32 0x88A5966D370B9919B20F3E2C13FF65706F196A4E32CC2C12BF57088F88525874 PUSH2 0x1B3F PUSH2 0x1B35 CALLER PUSH2 0xF5F JUMP JUMPDEST SWAP3 PUSH2 0x41A PUSH1 0x40 MLOAD SWAP1 JUMP JUMPDEST SUB SWAP1 LOG2 JUMP JUMPDEST PUSH2 0x246 SWAP1 PUSH4 0x780E9D63 PUSH1 0xE0 SHL PUSH1 0x1 PUSH1 0x1 PUSH1 0xE0 SHL SUB NOT DUP3 AND EQ SWAP1 DUP2 ISZERO PUSH2 0x1B67 JUMPI POP SWAP1 JUMP JUMPDEST PUSH2 0x246 SWAP2 POP PUSH2 0x1B91 JUMP JUMPDEST PUSH2 0x1B84 PUSH2 0x1B7E PUSH2 0x246 SWAP3 SWAP1 JUMP JUMPDEST PUSH1 0xE0 SHL SWAP1 JUMP JUMPDEST PUSH1 0x1 PUSH1 0x1 PUSH1 0xE0 SHL SUB NOT AND SWAP1 JUMP JUMPDEST PUSH2 0x1BA1 PUSH2 0x1B84 PUSH4 0x49064906 PUSH2 0x1B71 JUMP JUMPDEST PUSH1 0x1 PUSH1 0x1 PUSH1 0xE0 SHL SUB NOT DUP3 AND EQ SWAP1 DUP2 ISZERO PUSH2 0x1BB8 JUMPI POP SWAP1 JUMP JUMPDEST PUSH2 0x246 SWAP2 POP PUSH4 0x80AC58CD PUSH1 0xE0 SHL PUSH1 0x1 PUSH1 0x1 PUSH1 0xE0 SHL SUB NOT DUP3 AND EQ SWAP1 DUP2 ISZERO PUSH2 0x1BED JUMPI JUMPDEST DUP2 ISZERO PUSH2 0x1BE3 JUMPI POP SWAP1 JUMP JUMPDEST PUSH2 0x246 SWAP2 POP PUSH2 0x1C08 JUMP JUMPDEST PUSH1 0x1 PUSH1 0x1 PUSH1 0xE0 SHL SUB NOT DUP2 AND PUSH4 0x5B5E139F PUSH1 0xE0 SHL EQ SWAP2 POP PUSH2 0x1BD9 JUMP JUMPDEST PUSH2 0x145E PUSH4 0x1FFC9A7 PUSH1 0xE0 SHL PUSH2 0x1945 JUMP JUMPDEST PUSH2 0x246 SWAP1 PUSH2 0x1C56 JUMP JUMPDEST PUSH2 0x2E1 PUSH2 0x1C39 SWAP3 PUSH1 0x20 SWAP3 PUSH2 0x1C33 DUP2 MLOAD SWAP1 JUMP JUMPDEST SWAP5 DUP6 SWAP3 SWAP1 JUMP JUMPDEST SWAP4 DUP5 SWAP2 ADD PUSH2 0x28A JUMP JUMPDEST PUSH2 0x1C50 SWAP1 PUSH2 0x246 SWAP4 SWAP3 PUSH2 0x1C21 JUMP JUMPDEST SWAP1 PUSH2 0x1C21 JUMP JUMPDEST PUSH2 0x1C5F DUP2 PUSH2 0x17DD JUMP JUMPDEST PUSH2 0x1C72 PUSH2 0x1C6D DUP3 PUSH1 0x6 PUSH2 0x47D JUMP JUMPDEST PUSH2 0x10FF JUMP JUMPDEST PUSH2 0x1C7A PUSH2 0x1D32 JUMP JUMPDEST DUP1 MLOAD PUSH1 0x0 SWAP1 PUSH2 0x1C8B PUSH2 0x191D DUP4 PUSH2 0x470 JUMP JUMPDEST EQ PUSH2 0x1CDE JUMPI PUSH2 0x1C9E PUSH2 0x191D PUSH2 0x169B DUP6 MLOAD SWAP1 JUMP JUMPDEST GT PUSH2 0x1CAE JUMPI POP POP PUSH2 0x246 SWAP1 PUSH2 0x1CE5 JUMP JUMPDEST PUSH2 0x246 SWAP3 POP PUSH2 0x1CD2 SWAP2 PUSH2 0x246 SWAP2 PUSH2 0x1CC4 PUSH1 0x40 MLOAD SWAP1 JUMP JUMPDEST SWAP4 DUP5 SWAP3 PUSH1 0x20 DUP5 ADD SWAP3 DUP4 PUSH2 0x1C42 JUMP JUMPDEST SWAP1 DUP2 SUB DUP3 MSTORE SUB DUP3 PUSH2 0x58A JUMP JUMPDEST POP POP SWAP1 POP SWAP1 JUMP JUMPDEST PUSH2 0x1CEE DUP2 PUSH2 0x17DD JUMP JUMPDEST PUSH2 0x1CF6 PUSH2 0x1D32 JUMP JUMPDEST DUP1 MLOAD PUSH2 0x1D05 PUSH2 0x191D PUSH1 0x0 PUSH2 0x470 JUMP JUMPDEST GT ISZERO PUSH2 0x1D28 JUMPI PUSH2 0x246 PUSH2 0x1CD2 SWAP2 PUSH2 0x1D1E PUSH2 0x246 SWAP5 PUSH2 0x1D87 JUMP JUMPDEST SWAP1 PUSH2 0x1CC4 PUSH1 0x40 MLOAD SWAP1 JUMP JUMPDEST POP POP PUSH2 0x246 PUSH2 0x133D JUMP JUMPDEST PUSH2 0x246 PUSH2 0x133D JUMP JUMPDEST CALLDATASIZE SWAP1 CALLDATACOPY JUMP JUMPDEST SWAP1 PUSH2 0x230 PUSH2 0x1D55 PUSH2 0x1D4F DUP5 PUSH2 0x1321 JUMP JUMPDEST SWAP4 PUSH2 0x90A JUMP JUMPDEST PUSH1 0x1F NOT ADD PUSH1 0x20 DUP5 ADD PUSH2 0x1D3A JUMP JUMPDEST PUSH4 0x4E487B71 PUSH1 0xE0 SHL PUSH1 0x0 MSTORE PUSH1 0x12 PUSH1 0x4 MSTORE PUSH1 0x24 PUSH1 0x0 REVERT JUMPDEST DUP2 ISZERO PUSH2 0x1D82 JUMPI DIV SWAP1 JUMP JUMPDEST PUSH2 0x1D62 JUMP JUMPDEST PUSH2 0x1D90 DUP2 PUSH2 0x1E13 JUMP JUMPDEST SWAP1 PUSH2 0x1DA0 PUSH1 0x1 SWAP3 PUSH2 0x2E1 DUP5 PUSH2 0x470 JUMP JUMPDEST SWAP2 DUP1 PUSH2 0x1DAB DUP5 PUSH2 0x1D3F JUMP JUMPDEST SWAP4 PUSH1 0x20 ADD DUP5 ADD SWAP1 JUMPDEST PUSH2 0x1DBE JUMPI JUMPDEST POP POP POP SWAP1 JUMP JUMPDEST PUSH2 0x1DF2 SWAP1 PUSH1 0x0 NOT ADD SWAP3 PUSH16 0x181899199A1A9B1B9C1CB0B131B232B3 PUSH1 0x81 SHL PUSH1 0xA DUP3 MOD BYTE DUP5 MSTORE8 PUSH2 0x1DEC PUSH1 0xA PUSH2 0x470 JUMP JUMPDEST SWAP1 PUSH2 0x1D78 JUMP JUMPDEST SWAP1 DUP2 PUSH2 0x1E01 PUSH2 0x191D PUSH1 0x0 PUSH2 0x470 JUMP JUMPDEST EQ PUSH2 0x1E0E JUMPI SWAP1 SWAP2 DUP2 PUSH2 0x1DB3 JUMP JUMPDEST PUSH2 0x1DB8 JUMP JUMPDEST PUSH2 0x1E1D PUSH1 0x0 PUSH2 0x470 JUMP JUMPDEST SWAP1 PUSH27 0x184F03E93FF9F4DAA797ED6E38ED64BF6A1F010000000000000000 PUSH2 0x1E43 DUP2 PUSH2 0x470 JUMP JUMPDEST DUP3 LT ISZERO PUSH2 0x1F95 JUMPI JUMPDEST POP PUSH14 0x4EE2D6D415B85ACEF8100000000 PUSH2 0x1E64 DUP2 PUSH2 0x470 JUMP JUMPDEST DUP3 LT ISZERO PUSH2 0x1F73 JUMPI JUMPDEST POP PUSH7 0x2386F26FC10000 PUSH2 0x1E7E DUP2 PUSH2 0x470 JUMP JUMPDEST DUP3 LT ISZERO PUSH2 0x1F51 JUMPI JUMPDEST POP PUSH4 0x5F5E100 PUSH2 0x1E95 DUP2 PUSH2 0x470 JUMP JUMPDEST DUP3 LT ISZERO PUSH2 0x1F2F JUMPI JUMPDEST POP PUSH2 0x2710 PUSH2 0x1EAA DUP2 PUSH2 0x470 JUMP JUMPDEST DUP3 LT ISZERO PUSH2 0x1F0D JUMPI JUMPDEST POP PUSH1 0x64 PUSH2 0x1EBE DUP2 PUSH2 0x470 JUMP JUMPDEST DUP3 LT ISZERO PUSH2 0x1EEB JUMPI JUMPDEST POP PUSH2 0x1ED4 PUSH2 0x191D PUSH1 0xA PUSH2 0x470 JUMP JUMPDEST LT ISZERO PUSH2 0x1EDD JUMPI SWAP1 JUMP JUMPDEST PUSH2 0x246 SWAP1 PUSH2 0x2E1 PUSH1 0x1 PUSH2 0x470 JUMP JUMPDEST PUSH2 0x1F06 SWAP2 PUSH2 0x1DEC PUSH2 0x1EFB SWAP3 PUSH2 0x470 JUMP JUMPDEST SWAP2 PUSH2 0x2E1 PUSH1 0x2 PUSH2 0x470 JUMP JUMPDEST SWAP1 CODESIZE PUSH2 0x1EC6 JUMP JUMPDEST PUSH2 0x1F28 SWAP2 PUSH2 0x1DEC PUSH2 0x1F1D SWAP3 PUSH2 0x470 JUMP JUMPDEST SWAP2 PUSH2 0x2E1 PUSH1 0x4 PUSH2 0x470 JUMP JUMPDEST SWAP1 CODESIZE PUSH2 0x1EB2 JUMP JUMPDEST PUSH2 0x1F4A SWAP2 PUSH2 0x1DEC PUSH2 0x1F3F SWAP3 PUSH2 0x470 JUMP JUMPDEST SWAP2 PUSH2 0x2E1 PUSH1 0x8 PUSH2 0x470 JUMP JUMPDEST SWAP1 CODESIZE PUSH2 0x1E9D JUMP JUMPDEST PUSH2 0x1F6C SWAP2 PUSH2 0x1DEC PUSH2 0x1F61 SWAP3 PUSH2 0x470 JUMP JUMPDEST SWAP2 PUSH2 0x2E1 PUSH1 0x10 PUSH2 0x470 JUMP JUMPDEST SWAP1 CODESIZE PUSH2 0x1E86 JUMP JUMPDEST PUSH2 0x1F8E SWAP2 PUSH2 0x1DEC PUSH2 0x1F83 SWAP3 PUSH2 0x470 JUMP JUMPDEST SWAP2 PUSH2 0x2E1 PUSH1 0x20 PUSH2 0x470 JUMP JUMPDEST SWAP1 CODESIZE PUSH2 0x1E6C JUMP JUMPDEST PUSH2 0x1FB0 SWAP2 PUSH2 0x1DEC PUSH2 0x1FA5 SWAP3 PUSH2 0x470 JUMP JUMPDEST SWAP2 PUSH2 0x2E1 PUSH1 0x40 PUSH2 0x470 JUMP JUMPDEST SWAP1 CODESIZE PUSH2 0x1E4B JUMP JUMPDEST PUSH2 0x230 SWAP4 SWAP2 SWAP3 SWAP2 PUSH2 0x1FCB PUSH2 0x191D PUSH1 0x1 PUSH2 0x470 JUMP JUMPDEST GT PUSH2 0x2061 JUMPI PUSH2 0x1FFF PUSH2 0x1FDD PUSH1 0x0 PUSH2 0xDE8 JUMP JUMPDEST PUSH1 0x1 PUSH1 0x1 PUSH1 0xA0 SHL SUB DUP2 AND PUSH1 0x1 PUSH1 0x1 PUSH1 0xA0 SHL SUB DUP5 AND SUB PUSH2 0x203E JUMPI PUSH2 0x344 DUP5 PUSH2 0x214B JUMP JUMPDEST PUSH1 0x1 PUSH1 0x1 PUSH1 0xA0 SHL SUB DUP5 AND SUB PUSH2 0x2019 JUMPI POP PUSH2 0x230 SWAP2 POP PUSH2 0x226E JUMP JUMPDEST PUSH1 0x1 PUSH1 0x1 PUSH1 0xA0 SHL SUB AND PUSH1 0x1 PUSH1 0x1 PUSH1 0xA0 SHL SUB DUP4 AND SUB PUSH2 0x2035 JUMPI POP POP JUMP JUMPDEST PUSH2 0x230 SWAP2 PUSH2 0x20C4 JUMP JUMPDEST PUSH1 0x1 PUSH1 0x1 PUSH1 0xA0 SHL SUB DUP6 AND PUSH1 0x1 PUSH1 0x1 PUSH1 0xA0 SHL SUB DUP5 AND EQ PUSH2 0x344 JUMPI PUSH2 0x344 DUP5 DUP5 PUSH2 0x21A3 JUMP JUMPDEST PUSH1 0x40 MLOAD PUSH3 0x461BCD PUSH1 0xE5 SHL DUP2 MSTORE PUSH1 0x20 PUSH1 0x4 DUP3 ADD MSTORE PUSH1 0x35 PUSH1 0x24 DUP3 ADD MSTORE PUSH32 0x455243373231456E756D657261626C653A20636F6E7365637574697665207472 PUSH1 0x44 DUP3 ADD MSTORE PUSH21 0x185B9CD9995C9CC81B9BDD081CDD5C1C1BDC9D1959 PUSH1 0x5A SHL PUSH1 0x64 DUP3 ADD MSTORE PUSH1 0x84 SWAP1 REVERT JUMPDEST PUSH2 0x20E9 DUP3 PUSH2 0x20EE PUSH2 0x230 SWAP5 PUSH2 0x20E9 PUSH2 0x1A1E SWAP6 PUSH2 0x20DF DUP2 PUSH2 0x1048 JUMP JUMPDEST SWAP7 DUP8 SWAP2 PUSH1 0x7 PUSH2 0x103E JUMP JUMPDEST PUSH2 0x1570 JUMP JUMPDEST PUSH1 0x8 PUSH2 0x47D JUMP JUMPDEST SWAP2 PUSH1 0x0 NOT PUSH1 0x8 SWAP3 SWAP1 SWAP3 MUL SWAP2 DUP3 SHL SWAP2 SHL PUSH2 0xF38 JUMP JUMPDEST SWAP2 SWAP1 PUSH2 0x211A PUSH2 0x246 PUSH2 0xF7F SWAP4 PUSH2 0x470 JUMP JUMPDEST SWAP1 DUP4 SLOAD PUSH2 0x20F5 JUMP JUMPDEST SWAP1 DUP2 SLOAD SWAP2 PUSH1 0x1 PUSH1 0x40 SHL DUP4 LT ISZERO PUSH2 0x5AC JUMPI DUP3 PUSH2 0x2145 SWAP2 PUSH1 0x1 PUSH2 0x230 SWAP6 ADD DUP2 SSTORE PUSH2 0x1A9A JUMP JUMPDEST SWAP1 PUSH2 0x2109 JUMP JUMPDEST PUSH2 0x230 SWAP1 PUSH2 0x216A PUSH1 0x9 PUSH2 0x246 PUSH2 0x215F DUP3 SLOAD SWAP1 JUMP JUMPDEST PUSH2 0x20E9 DUP6 PUSH1 0xA PUSH2 0x47D JUMP JUMPDEST PUSH2 0x2122 JUMP JUMPDEST PUSH4 0x4E487B71 PUSH1 0xE0 SHL PUSH1 0x0 MSTORE PUSH1 0x11 PUSH1 0x4 MSTORE PUSH1 0x24 PUSH1 0x0 REVERT JUMPDEST SWAP2 SWAP1 DUP3 SUB SWAP2 DUP3 GT PUSH2 0x2192 JUMPI JUMP JUMPDEST PUSH2 0x216F JUMP JUMPDEST PUSH2 0x230 SWAP2 PUSH1 0x0 SWAP2 PUSH2 0x2109 JUMP JUMPDEST PUSH2 0x21F1 PUSH2 0x230 SWAP3 PUSH2 0x1A1E PUSH1 0x0 SWAP4 PUSH2 0x1A17 DUP6 PUSH2 0x21F1 PUSH2 0x21D3 PUSH2 0x21C3 DUP6 PUSH2 0x1048 JUMP JUMPDEST PUSH2 0x21CD PUSH1 0x1 PUSH2 0x470 JUMP JUMPDEST SWAP1 PUSH2 0x2185 JUMP JUMPDEST SWAP6 PUSH1 0x8 PUSH2 0x21E3 PUSH2 0x1080 DUP4 DUP4 PUSH2 0x47D JUMP JUMPDEST DUP9 DUP2 SUB PUSH2 0x21F6 JUMPI JUMPDEST POP PUSH2 0x47D JUMP JUMPDEST PUSH2 0x2197 JUMP JUMPDEST DUP1 PUSH2 0x20E9 DUP9 PUSH2 0x2224 DUP13 PUSH2 0x20E9 PUSH2 0x222A SWAP7 PUSH2 0x1A1E PUSH2 0x221C PUSH2 0x1080 PUSH1 0x7 SWAP6 PUSH2 0x1A1E DUP10 DUP9 PUSH2 0x103E JUMP JUMPDEST SWAP6 DUP7 SWAP5 PUSH2 0x103E JUMP JUMPDEST DUP5 PUSH2 0x47D JUMP JUMPDEST CODESIZE PUSH2 0x21EB JUMP JUMPDEST PUSH4 0x4E487B71 PUSH1 0xE0 SHL PUSH1 0x0 MSTORE PUSH1 0x31 PUSH1 0x4 MSTORE PUSH1 0x24 PUSH1 0x0 REVERT JUMPDEST DUP1 SLOAD DUP1 ISZERO PUSH2 0x2269 JUMPI PUSH1 0x0 NOT ADD SWAP1 PUSH2 0x2266 PUSH2 0x2260 DUP4 DUP4 PUSH2 0x1A9A JUMP JUMPDEST SWAP1 PUSH2 0x2197 JUMP JUMPDEST SSTORE JUMP JUMPDEST PUSH2 0x2230 JUMP JUMPDEST PUSH2 0x22BC PUSH2 0x230 SWAP2 PUSH2 0x246 PUSH1 0x0 PUSH2 0x21F1 PUSH1 0x9 SWAP4 PUSH2 0x228B PUSH2 0x21C3 DUP7 SLOAD SWAP1 JUMP JUMPDEST PUSH2 0x1A1E PUSH1 0xA SWAP2 PUSH2 0x20E9 PUSH2 0x22AE PUSH2 0x1AEF PUSH2 0x22A7 PUSH2 0x1080 DUP9 DUP9 PUSH2 0x47D JUMP JUMPDEST SWAP4 DUP12 PUSH2 0x1A9A JUMP JUMPDEST PUSH2 0x2224 DUP2 PUSH2 0x2145 DUP6 DUP14 PUSH2 0x1A9A JUMP JUMPDEST PUSH2 0x2246 JUMP JUMPDEST PUSH2 0x230 SWAP1 PUSH2 0x22CD PUSH2 0xE5F JUMP JUMPDEST PUSH2 0x22E7 PUSH2 0x230 SWAP2 PUSH2 0x18BB PUSH2 0x22E0 DUP3 PUSH2 0xF5F JUMP JUMPDEST PUSH1 0xE PUSH2 0xF68 JUMP JUMPDEST PUSH1 0xC PUSH2 0xF68 JUMP JUMPDEST PUSH2 0x230 SWAP1 PUSH2 0x22C1 JUMP JUMPDEST PUSH2 0x230 SWAP1 PUSH2 0x2303 PUSH2 0xE5F JUMP JUMPDEST PUSH2 0x230F PUSH2 0x230 SWAP2 PUSH2 0xF5F JUMP JUMPDEST PUSH1 0xD PUSH2 0xF68 JUMP JUMPDEST PUSH2 0x230 SWAP1 PUSH2 0x22F7 JUMP JUMPDEST PUSH1 0x0 NOT DUP2 EQ PUSH2 0x2192 JUMPI PUSH1 0x1 ADD SWAP1 JUMP JUMPDEST PUSH2 0x246 PUSH2 0x140 PUSH2 0x8F6 JUMP JUMPDEST SWAP1 PUSH2 0x249 SWAP1 PUSH2 0x683 JUMP JUMPDEST SWAP1 PUSH2 0x249 SWAP1 PUSH2 0xA6F JUMP JUMPDEST PUSH4 0x4E487B71 PUSH1 0xE0 SHL PUSH1 0x0 MSTORE PUSH1 0x0 PUSH1 0x4 MSTORE PUSH1 0x24 PUSH1 0x0 REVERT JUMPDEST DUP2 DUP2 LT PUSH2 0x236E JUMPI POP POP JUMP JUMPDEST DUP1 PUSH2 0x237C PUSH1 0x0 PUSH1 0x1 SWAP4 PUSH2 0x2197 JUMP JUMPDEST ADD PUSH2 0x2363 JUMP JUMPDEST SWAP2 SWAP1 PUSH1 0x1F DUP2 GT PUSH2 0x2391 JUMPI POP POP POP JUMP JUMPDEST PUSH2 0x23A3 PUSH2 0x230 SWAP4 PUSH1 0x0 MSTORE PUSH1 0x20 PUSH1 0x0 KECCAK256 SWAP1 JUMP JUMPDEST SWAP1 PUSH1 0x20 PUSH1 0x1F DUP5 ADD DUP2 SWAP1 DIV DUP4 ADD SWAP4 LT PUSH2 0x23C6 JUMPI JUMPDEST PUSH1 0x20 PUSH1 0x1F SWAP1 SWAP2 ADD DIV JUMPDEST ADD SWAP1 PUSH2 0x2363 JUMP JUMPDEST SWAP1 SWAP2 POP DUP2 SWAP1 PUSH2 0x23B6 JUMP JUMPDEST PUSH1 0x0 NOT PUSH1 0x8 DUP4 MUL SHR NOT AND SWAP1 PUSH1 0x2 MUL OR SWAP1 JUMP JUMPDEST SWAP1 PUSH2 0x23EB DUP2 MLOAD SWAP1 JUMP JUMPDEST SWAP1 PUSH8 0xFFFFFFFFFFFFFFFF DUP3 GT PUSH2 0x5AC JUMPI PUSH2 0x240F DUP3 PUSH2 0x2409 DUP6 SLOAD PUSH2 0x4BC JUMP JUMPDEST DUP6 PUSH2 0x2382 JUMP JUMPDEST PUSH1 0x20 SWAP1 PUSH1 0x1F DUP4 GT PUSH1 0x1 EQ PUSH2 0x243D JUMPI PUSH2 0xF7F SWAP3 SWAP2 PUSH1 0x0 SWAP2 DUP4 PUSH2 0x2432 JUMPI JUMPDEST POP POP PUSH2 0x23D0 JUMP JUMPDEST ADD MLOAD SWAP1 POP CODESIZE DUP1 PUSH2 0x242B JUMP JUMPDEST PUSH1 0x1F NOT DUP4 AND SWAP2 PUSH2 0x2452 DUP6 PUSH1 0x0 MSTORE PUSH1 0x20 PUSH1 0x0 KECCAK256 SWAP1 JUMP JUMPDEST SWAP3 PUSH1 0x0 JUMPDEST DUP2 DUP2 LT PUSH2 0x2490 JUMPI POP SWAP2 PUSH1 0x2 SWAP4 SWAP2 DUP6 PUSH1 0x1 SWAP7 SWAP5 LT PUSH2 0x2477 JUMPI JUMPDEST POP POP POP MUL ADD SWAP1 SSTORE JUMP JUMPDEST ADD MLOAD PUSH1 0x0 NOT PUSH1 0x8 PUSH1 0x1F DUP6 AND MUL SHR NOT AND SWAP1 SSTORE CODESIZE DUP1 DUP1 PUSH2 0x246E JUMP JUMPDEST SWAP2 SWAP4 PUSH1 0x20 PUSH1 0x1 DUP2 SWAP3 DUP8 DUP8 ADD MLOAD DUP2 SSTORE ADD SWAP6 ADD SWAP3 ADD PUSH2 0x2456 JUMP JUMPDEST SWAP1 PUSH2 0x230 SWAP2 PUSH2 0x23E2 JUMP JUMPDEST PUSH2 0x246 SWAP1 MLOAD PUSH2 0x683 JUMP JUMPDEST SWAP1 PUSH2 0x1760 PUSH2 0x246 PUSH2 0xF7F SWAP3 PUSH2 0x68D JUMP JUMPDEST PUSH2 0x246 SWAP1 MLOAD PUSH2 0xA6F JUMP JUMPDEST SWAP1 PUSH2 0xFF00 SWAP1 PUSH1 0x8 SHL PUSH2 0xF38 JUMP JUMPDEST SWAP1 PUSH2 0x24F3 PUSH2 0x246 PUSH2 0xF7F SWAP3 PUSH2 0xA79 JUMP JUMPDEST DUP3 SLOAD PUSH2 0x24D6 JUMP JUMPDEST PUSH2 0x230 SWAP2 SWAP1 PUSH2 0x25C7 SWAP1 PUSH2 0x120 SWAP1 PUSH1 0x8 SWAP1 PUSH2 0x2516 DUP2 PUSH2 0x1641 DUP8 MLOAD SWAP1 JUMP JUMPDEST PUSH2 0x2537 PUSH1 0x1 DUP3 ADD PUSH2 0x2531 PUSH1 0x20 DUP9 ADD MLOAD PUSH1 0x1 PUSH1 0x1 PUSH1 0xA0 SHL SUB AND SWAP1 JUMP JUMPDEST SWAP1 PUSH2 0xF68 JUMP JUMPDEST PUSH2 0x254F PUSH1 0x2 DUP3 ADD PUSH2 0x2549 PUSH1 0x40 DUP9 ADD MLOAD SWAP1 JUMP JUMPDEST SWAP1 PUSH2 0x24A8 JUMP JUMPDEST PUSH2 0x2561 PUSH1 0x3 DUP3 ADD PUSH2 0x2549 PUSH1 0x60 DUP9 ADD MLOAD SWAP1 JUMP JUMPDEST PUSH2 0x2573 PUSH1 0x4 DUP3 ADD PUSH2 0x2549 PUSH1 0x80 DUP9 ADD MLOAD SWAP1 JUMP JUMPDEST PUSH2 0x2585 PUSH1 0x5 DUP3 ADD PUSH2 0x2549 PUSH1 0xA0 DUP9 ADD MLOAD SWAP1 JUMP JUMPDEST PUSH2 0x2597 PUSH1 0x6 DUP3 ADD PUSH2 0x1641 PUSH1 0xC0 DUP9 ADD MLOAD SWAP1 JUMP JUMPDEST PUSH2 0x25A9 PUSH1 0x7 DUP3 ADD PUSH2 0x1641 PUSH1 0xE0 DUP9 ADD MLOAD SWAP1 JUMP JUMPDEST ADD SWAP3 PUSH2 0x25C1 PUSH2 0x25BB PUSH2 0x100 DUP4 ADD PUSH2 0x24B2 JUMP JUMPDEST DUP6 PUSH2 0x24BC JUMP JUMPDEST ADD PUSH2 0x24CC JUMP JUMPDEST SWAP1 PUSH2 0x24E3 JUMP JUMPDEST SWAP1 PUSH2 0x230 SWAP2 PUSH2 0x24FA JUMP JUMPDEST SWAP4 SWAP6 SWAP2 SWAP5 SWAP1 SWAP3 SWAP6 PUSH2 0x25E8 PUSH1 0xF PUSH2 0x49C JUMP JUMPDEST SWAP7 PUSH2 0x25F2 DUP9 PUSH2 0x231F JUMP JUMPDEST PUSH2 0x25FD SWAP1 PUSH1 0xF PUSH2 0x1570 JUMP JUMPDEST CALLER SWAP7 PUSH1 0x0 SWAP6 PUSH2 0x260A PUSH2 0x232E JUMP JUMPDEST SWAP8 PUSH2 0x2615 DUP12 DUP10 DUP12 ADD MSTORE JUMP JUMPDEST PUSH1 0x1 PUSH1 0x1 PUSH1 0xA0 SHL SUB DUP11 AND PUSH1 0x20 DUP11 ADD MSTORE PUSH1 0x40 DUP10 ADD MSTORE PUSH1 0x60 DUP9 ADD MSTORE PUSH1 0x80 DUP8 ADD MSTORE PUSH1 0xA0 DUP7 ADD MSTORE PUSH1 0xC0 DUP6 ADD MSTORE PUSH1 0xE0 DUP5 ADD MSTORE PUSH2 0x2650 SWAP1 PUSH2 0x100 DUP5 ADD PUSH2 0x2339 JUMP JUMPDEST PUSH2 0x265E SWAP1 PUSH2 0x120 DUP4 ADD PUSH2 0x2343 JUMP JUMPDEST PUSH2 0x2669 DUP4 PUSH1 0x11 PUSH2 0x47D JUMP JUMPDEST SWAP1 PUSH2 0x2673 SWAP2 PUSH2 0x25CD JUMP JUMPDEST PUSH2 0x267E SWAP1 PUSH1 0x12 PUSH2 0x103E JUMP JUMPDEST SWAP1 PUSH2 0x230 SWAP2 PUSH2 0x2122 JUMP JUMPDEST SWAP1 PUSH2 0x26A3 PUSH2 0x2697 PUSH2 0xD4C DUP5 SLOAD SWAP1 JUMP JUMPDEST SWAP3 PUSH1 0x0 MSTORE PUSH1 0x20 PUSH1 0x0 KECCAK256 SWAP1 JUMP JUMPDEST SWAP1 PUSH1 0x0 JUMPDEST DUP2 DUP2 LT PUSH2 0x26B4 JUMPI POP POP POP SWAP1 JUMP JUMPDEST SWAP1 SWAP2 SWAP3 PUSH2 0x26D8 PUSH2 0x26D1 PUSH1 0x1 SWAP3 PUSH2 0x26C9 DUP8 PUSH2 0x49C JUMP JUMPDEST DUP2 MSTORE PUSH1 0x20 ADD SWAP1 JUMP JUMPDEST SWAP5 PUSH1 0x1 ADD SWAP1 JUMP JUMPDEST SWAP3 SWAP2 ADD PUSH2 0x26A7 JUMP JUMPDEST SWAP1 PUSH2 0x246 SWAP2 PUSH2 0x2688 JUMP JUMPDEST SWAP1 PUSH2 0x230 PUSH2 0x5CB SWAP3 PUSH2 0x26FB PUSH1 0x40 MLOAD SWAP1 JUMP JUMPDEST SWAP4 DUP5 DUP1 SWAP3 PUSH2 0x26E0 JUMP JUMPDEST PUSH2 0x246 SWAP1 PUSH2 0x26EA JUMP JUMPDEST PUSH2 0x2724 PUSH2 0x246 SWAP2 PUSH2 0x271C PUSH1 0x60 SWAP1 JUMP JUMPDEST POP PUSH1 0x12 PUSH2 0x103E JUMP JUMPDEST PUSH2 0x2704 JUMP JUMPDEST PUSH8 0xFFFFFFFFFFFFFFFF DUP2 GT PUSH2 0x5AC JUMPI PUSH1 0x20 DUP1 SWAP2 MUL ADD SWAP1 JUMP JUMPDEST SWAP1 PUSH2 0x132E PUSH2 0x943 DUP4 PUSH2 0x2729 JUMP JUMPDEST PUSH2 0x2756 PUSH2 0x232E JUMP JUMPDEST SWAP1 PUSH1 0x0 DUP3 MSTORE PUSH1 0x20 DUP1 DUP1 DUP1 DUP1 DUP1 DUP1 DUP1 DUP1 DUP1 DUP12 ADD PUSH1 0x0 DUP2 MSTORE ADD PUSH1 0x60 DUP2 MSTORE ADD PUSH1 0x60 DUP2 MSTORE ADD PUSH1 0x60 DUP2 MSTORE ADD PUSH1 0x60 DUP2 MSTORE ADD PUSH1 0x0 DUP2 MSTORE ADD PUSH1 0x0 DUP2 MSTORE ADD PUSH1 0x0 DUP2 MSTORE ADD PUSH1 0x0 SWAP1 MSTORE POP JUMP JUMPDEST PUSH2 0x246 PUSH2 0x274E JUMP JUMPDEST PUSH1 0x0 JUMPDEST DUP3 DUP2 LT PUSH2 0x27AE JUMPI POP POP POP JUMP JUMPDEST PUSH1 0x20 SWAP1 PUSH2 0x27B9 PUSH2 0x2797 JUMP JUMPDEST DUP2 DUP5 ADD MSTORE ADD PUSH2 0x27A2 JUMP JUMPDEST SWAP1 PUSH2 0x230 PUSH2 0x27D9 PUSH2 0x27D3 DUP5 PUSH2 0x2741 JUMP JUMPDEST SWAP4 PUSH2 0x2729 JUMP JUMPDEST PUSH1 0x1F NOT ADD PUSH1 0x20 DUP5 ADD PUSH2 0x279F JUMP JUMPDEST SWAP1 PUSH2 0x27EF DUP3 MLOAD SWAP1 JUMP JUMPDEST DUP2 LT ISZERO PUSH2 0x1ABD JUMPI PUSH1 0x20 DUP1 SWAP2 MUL ADD ADD SWAP1 JUMP JUMPDEST PUSH2 0x246 SWAP1 PUSH1 0x8 SHR PUSH2 0x5D7 JUMP JUMPDEST PUSH2 0x246 SWAP1 SLOAD PUSH2 0x2800 JUMP JUMPDEST SWAP1 PUSH2 0x230 PUSH2 0x2901 PUSH1 0x8 PUSH2 0x2827 PUSH2 0x232E JUMP JUMPDEST SWAP5 PUSH2 0x2838 PUSH2 0x2834 DUP3 PUSH2 0x49C JUMP JUMPDEST DUP8 MSTORE JUMP JUMPDEST PUSH2 0x285F PUSH2 0x284F PUSH1 0x1 DUP4 ADD SLOAD PUSH1 0x1 PUSH1 0x1 PUSH1 0xA0 SHL SUB AND SWAP1 JUMP JUMPDEST PUSH1 0x1 PUSH1 0x1 PUSH1 0xA0 SHL SUB AND PUSH1 0x20 DUP9 ADD MSTORE JUMP JUMPDEST PUSH2 0x2875 PUSH2 0x286E PUSH1 0x2 DUP4 ADD PUSH2 0x5B1 JUMP JUMPDEST PUSH1 0x40 DUP9 ADD MSTORE JUMP JUMPDEST PUSH2 0x288B PUSH2 0x2884 PUSH1 0x3 DUP4 ADD PUSH2 0x5B1 JUMP JUMPDEST PUSH1 0x60 DUP9 ADD MSTORE JUMP JUMPDEST PUSH2 0x28A1 PUSH2 0x289A PUSH1 0x4 DUP4 ADD PUSH2 0x5B1 JUMP JUMPDEST PUSH1 0x80 DUP9 ADD MSTORE JUMP JUMPDEST PUSH2 0x28B7 PUSH2 0x28B0 PUSH1 0x5 DUP4 ADD PUSH2 0x5B1 JUMP JUMPDEST PUSH1 0xA0 DUP9 ADD MSTORE JUMP JUMPDEST PUSH2 0x28CD PUSH2 0x28C6 PUSH1 0x6 DUP4 ADD PUSH2 0x49C JUMP JUMPDEST PUSH1 0xC0 DUP9 ADD MSTORE JUMP JUMPDEST PUSH2 0x28E3 PUSH2 0x28DC PUSH1 0x7 DUP4 ADD PUSH2 0x49C JUMP JUMPDEST PUSH1 0xE0 DUP9 ADD MSTORE JUMP JUMPDEST PUSH2 0x28FB PUSH2 0x28F1 DUP4 DUP4 ADD PUSH2 0x5DD JUMP JUMPDEST PUSH2 0x100 DUP9 ADD PUSH2 0x2339 JUMP JUMPDEST ADD PUSH2 0x280C JUMP JUMPDEST PUSH2 0x120 DUP5 ADD PUSH2 0x2343 JUMP JUMPDEST PUSH2 0x246 SWAP1 PUSH2 0x2816 JUMP JUMPDEST PUSH2 0x2724 PUSH2 0x2923 SWAP2 PUSH2 0x271C PUSH1 0x60 SWAP1 JUMP JUMPDEST PUSH2 0x2933 PUSH2 0x292E DUP3 MLOAD SWAP1 JUMP JUMPDEST PUSH2 0x27C3 JUMP JUMPDEST SWAP1 PUSH2 0x293E PUSH1 0x0 PUSH2 0x470 JUMP JUMPDEST PUSH2 0x2949 PUSH2 0x246 DUP4 MLOAD SWAP1 JUMP JUMPDEST DUP2 LT ISZERO PUSH2 0x2998 JUMPI PUSH2 0x2993 SWAP1 PUSH2 0x2978 PUSH2 0x2973 PUSH1 0x11 PUSH2 0x296D PUSH2 0x2969 DUP6 DUP9 PUSH2 0x27E6 JUMP JUMPDEST MLOAD SWAP1 JUMP JUMPDEST SWAP1 PUSH2 0x47D JUMP JUMPDEST PUSH2 0x290B JUMP JUMPDEST PUSH2 0x2982 DUP3 DUP7 PUSH2 0x27E6 JUMP JUMPDEST MSTORE PUSH2 0x298D DUP2 DUP6 PUSH2 0x27E6 JUMP JUMPDEST POP PUSH2 0x231F JUMP JUMPDEST PUSH2 0x293E JUMP JUMPDEST POP POP SWAP1 JUMP JUMPDEST ISZERO PUSH2 0x29A4 JUMPI JUMP JUMPDEST PUSH1 0x40 MLOAD PUSH3 0x461BCD PUSH1 0xE5 SHL DUP2 MSTORE PUSH1 0x20 PUSH1 0x4 DUP3 ADD MSTORE PUSH1 0xF PUSH1 0x24 DUP3 ADD MSTORE PUSH15 0x2737BA103A34329031B932B0BA37B9 PUSH1 0x89 SHL PUSH1 0x44 DUP3 ADD MSTORE PUSH1 0x64 SWAP1 REVERT JUMPDEST SWAP1 PUSH2 0x29EE SWAP1 PUSH1 0x0 NOT SWAP1 PUSH1 0x20 SUB PUSH1 0x8 MUL SHR SWAP1 JUMP JUMPDEST DUP2 SLOAD AND SWAP1 SSTORE JUMP JUMPDEST SWAP1 PUSH1 0x0 SWAP2 PUSH2 0x2A13 PUSH2 0x2A0B DUP3 PUSH1 0x0 MSTORE PUSH1 0x20 PUSH1 0x0 KECCAK256 SWAP1 JUMP JUMPDEST SWAP3 DUP4 SLOAD PUSH2 0x23D0 JUMP JUMPDEST SWAP1 SSTORE SSTORE JUMP JUMPDEST SWAP2 SWAP3 SWAP1 PUSH1 0x20 DUP3 LT ISZERO PUSH2 0x2A70 JUMPI PUSH1 0x1F DUP5 GT PUSH1 0x1 EQ PUSH2 0x2A3A JUMPI PUSH2 0xF7F SWAP3 SWAP4 POP PUSH2 0x23D0 JUMP JUMPDEST POP SWAP1 PUSH2 0x2A6B PUSH2 0x230 SWAP4 PUSH1 0x1 PUSH2 0x2A62 PUSH2 0x2A57 DUP6 PUSH1 0x0 MSTORE PUSH1 0x20 PUSH1 0x0 KECCAK256 SWAP1 JUMP JUMPDEST SWAP3 PUSH1 0x1F PUSH1 0x20 SWAP2 ADD DIV SWAP1 JUMP JUMPDEST DUP3 ADD SWAP2 ADD PUSH2 0x2363 JUMP JUMPDEST PUSH2 0x29F5 JUMP JUMPDEST POP PUSH2 0x2AA9 DUP3 SWAP4 PUSH2 0x2A87 PUSH1 0x1 SWAP5 PUSH1 0x0 MSTORE PUSH1 0x20 PUSH1 0x0 KECCAK256 SWAP1 JUMP JUMPDEST PUSH2 0x23BF PUSH1 0x20 PUSH1 0x1F DUP7 ADD DIV DUP3 ADD SWAP3 PUSH1 0x1F DUP7 AND DUP1 PUSH2 0x2AB1 JUMPI JUMPDEST POP PUSH1 0x1F PUSH1 0x20 SWAP2 ADD DIV SWAP1 JUMP JUMPDEST PUSH1 0x2 MUL OR SWAP1 SSTORE JUMP JUMPDEST PUSH2 0x2ABD SWAP1 DUP9 DUP7 SUB PUSH2 0x29DB JUMP JUMPDEST CODESIZE PUSH2 0x2A9E JUMP JUMPDEST SWAP3 SWAP1 SWAP2 PUSH1 0x1 PUSH1 0x40 SHL DUP3 GT PUSH2 0x5AC JUMPI PUSH1 0x20 GT ISZERO PUSH2 0x2B0A JUMPI PUSH1 0x20 DUP2 LT ISZERO PUSH2 0x2AEB JUMPI PUSH2 0xF7F SWAP2 PUSH2 0x23D0 JUMP JUMPDEST PUSH1 0x1 SWAP2 PUSH1 0xFF NOT AND PUSH2 0x2B01 DUP5 PUSH1 0x0 MSTORE PUSH1 0x20 PUSH1 0x0 KECCAK256 SWAP1 JUMP JUMPDEST SSTORE PUSH1 0x2 MUL ADD SWAP1 SSTORE JUMP JUMPDEST PUSH1 0x1 SWAP2 POP PUSH1 0x2 MUL ADD SWAP1 SSTORE JUMP JUMPDEST SWAP1 DUP2 SLOAD PUSH2 0x2B22 DUP2 PUSH2 0x4BC JUMP JUMPDEST SWAP1 DUP2 DUP4 GT PUSH2 0x2B4B JUMPI JUMPDEST DUP2 DUP4 LT PUSH2 0x2B39 JUMPI JUMPDEST POP POP POP POP JUMP JUMPDEST PUSH2 0x2B42 SWAP4 PUSH2 0x2A18 JUMP JUMPDEST CODESIZE DUP1 DUP1 DUP1 PUSH2 0x2B33 JUMP JUMPDEST PUSH2 0x2B57 DUP4 DUP4 DUP4 DUP8 PUSH2 0x2AC3 JUMP JUMPDEST PUSH2 0x2B2B JUMP JUMPDEST DUP2 DUP2 MUL SWAP3 SWAP2 DUP2 ISZERO SWAP2 DUP5 DIV EQ OR ISZERO PUSH2 0x2192 JUMPI JUMP JUMPDEST PUSH1 0x0 PUSH2 0x230 SWAP2 PUSH2 0x2B16 JUMP JUMPDEST SWAP1 PUSH1 0x0 SUB PUSH2 0x2B8B JUMPI PUSH2 0x230 SWAP1 PUSH2 0x2B6F JUMP JUMPDEST PUSH2 0x234D JUMP JUMPDEST PUSH1 0x0 SWAP1 PUSH1 0x8 SWAP1 PUSH2 0x2BA0 DUP4 DUP3 PUSH2 0x2197 JUMP JUMPDEST DUP3 PUSH1 0x1 DUP3 ADD SSTORE PUSH2 0x2BB3 DUP4 PUSH1 0x2 DUP4 ADD PUSH2 0x2B7A JUMP JUMPDEST PUSH2 0x2BC0 DUP4 PUSH1 0x3 DUP4 ADD PUSH2 0x2B7A JUMP JUMPDEST PUSH2 0x2BCD DUP4 PUSH1 0x4 DUP4 ADD PUSH2 0x2B7A JUMP JUMPDEST PUSH2 0x2BDA DUP4 PUSH1 0x5 DUP4 ADD PUSH2 0x2B7A JUMP JUMPDEST PUSH2 0x2BE7 DUP4 PUSH1 0x6 DUP4 ADD PUSH2 0x2197 JUMP JUMPDEST PUSH2 0x2BF4 DUP4 PUSH1 0x7 DUP4 ADD PUSH2 0x2197 JUMP JUMPDEST ADD SSTORE JUMP JUMPDEST SWAP1 PUSH1 0x0 SUB PUSH2 0x2B8B JUMPI PUSH2 0x230 SWAP1 PUSH2 0x2B90 JUMP JUMPDEST PUSH2 0x230 SWAP1 PUSH1 0x11 PUSH2 0x2C50 PUSH1 0x0 PUSH2 0x2C4B DUP5 PUSH2 0x2C35 PUSH1 0x1 PUSH2 0x2C27 DUP4 DUP9 PUSH2 0x47D JUMP JUMPDEST ADD SLOAD PUSH1 0x1 PUSH1 0x1 PUSH1 0xA0 SHL SUB AND SWAP1 JUMP JUMPDEST CALLER SWAP6 SWAP1 PUSH2 0x1A1E SWAP1 PUSH2 0x2C45 DUP9 PUSH2 0xE80 JUMP JUMPDEST EQ PUSH2 0x299D JUMP JUMPDEST PUSH2 0x2BF8 JUMP JUMPDEST PUSH1 0x12 PUSH2 0x2C63 PUSH2 0x2C5F DUP4 DUP4 PUSH2 0x103E JUMP JUMPDEST SLOAD SWAP1 JUMP JUMPDEST PUSH2 0x2C6D PUSH1 0x0 PUSH2 0x470 JUMP JUMPDEST DUP2 DUP2 LT ISZERO PUSH2 0x2CE3 JUMPI PUSH2 0x2C8B PUSH2 0x1AEF DUP3 PUSH2 0x2C86 DUP8 DUP8 PUSH2 0x103E JUMP JUMPDEST PUSH2 0x1A9A JUMP JUMPDEST DUP6 EQ PUSH2 0x2C9F JUMPI PUSH2 0x2C9A SWAP1 PUSH2 0x231F JUMP JUMPDEST PUSH2 0x2C6D JUMP JUMPDEST PUSH2 0x230 SWAP5 POP SWAP2 PUSH2 0x1298 PUSH2 0x246 SWAP4 PUSH2 0x2145 PUSH2 0x2CD8 PUSH2 0x1AEF DUP9 SWAP7 PUSH2 0x2CD2 PUSH2 0x2CC7 PUSH2 0x22BC SWAP12 DUP10 PUSH2 0x103E JUMP JUMPDEST SWAP2 PUSH2 0x21CD PUSH1 0x1 PUSH2 0x470 JUMP JUMPDEST SWAP1 PUSH2 0x1A9A JUMP JUMPDEST SWAP2 PUSH2 0x2C86 DUP7 DUP7 PUSH2 0x103E JUMP JUMPDEST POP POP POP POP POP JUMP JUMPDEST PUSH2 0x2CF4 PUSH1 0x7 PUSH2 0x1321 JUMP JUMPDEST PUSH7 0x383934B1B29D1 PUSH1 0xCD SHL PUSH1 0x20 DUP3 ADD MSTORE SWAP1 JUMP JUMPDEST PUSH2 0x246 PUSH2 0x2CEA JUMP JUMPDEST SWAP1 POP MLOAD SWAP1 PUSH2 0x230 DUP3 PUSH2 0x31D JUMP JUMPDEST SWAP1 PUSH1 0x20 DUP3 DUP3 SUB SLT PUSH2 0x21E JUMPI PUSH2 0x246 SWAP2 PUSH2 0x2D0F JUMP JUMPDEST ISZERO PUSH2 0x2D37 JUMPI JUMP JUMPDEST PUSH1 0x40 MLOAD PUSH3 0x461BCD PUSH1 0xE5 SHL DUP2 MSTORE PUSH1 0x20 PUSH1 0x4 DUP3 ADD MSTORE PUSH1 0x11 PUSH1 0x24 DUP3 ADD MSTORE PUSH17 0x105B1B1BDDD85B98D9481B9BDD081CD95D PUSH1 0x7A SHL PUSH1 0x44 DUP3 ADD MSTORE PUSH1 0x64 SWAP1 REVERT JUMPDEST SWAP1 POP MLOAD SWAP1 PUSH2 0x230 DUP3 PUSH2 0x8A5 JUMP JUMPDEST SWAP1 PUSH1 0x20 DUP3 DUP3 SUB SLT PUSH2 0x21E JUMPI PUSH2 0x246 SWAP2 PUSH2 0x2D70 JUMP JUMPDEST PUSH2 0x249 SWAP1 PUSH2 0xF5F JUMP JUMPDEST PUSH1 0x1 PUSH1 0x1 PUSH1 0xA0 SHL SUB SWAP1 SWAP2 AND DUP2 MSTORE PUSH1 0x60 DUP2 ADD SWAP4 SWAP3 PUSH2 0x230 SWAP3 SWAP1 SWAP2 PUSH1 0x40 SWAP2 PUSH2 0x2DC4 SWAP1 PUSH1 0x20 DUP4 ADD SWAP1 PUSH2 0x2D91 JUMP JUMPDEST ADD MSTORE JUMP JUMPDEST ISZERO PUSH2 0x2DCF JUMPI JUMP JUMPDEST PUSH1 0x40 MLOAD PUSH3 0x461BCD PUSH1 0xE5 SHL DUP2 MSTORE PUSH1 0x20 PUSH1 0x4 DUP3 ADD MSTORE PUSH1 0xF PUSH1 0x24 DUP3 ADD MSTORE PUSH15 0x151C985B9CD9995C8819985A5B1959 PUSH1 0x8A SHL PUSH1 0x44 DUP3 ADD MSTORE PUSH1 0x64 SWAP1 REVERT JUMPDEST PUSH2 0x2E16 PUSH2 0x2973 PUSH1 0xC0 SWAP3 PUSH1 0x11 PUSH2 0x47D JUMP JUMPDEST ADD PUSH2 0x2E2F PUSH2 0x2E22 DUP3 MLOAD SWAP1 JUMP JUMPDEST PUSH2 0x2E2A PUSH2 0x2D07 JUMP JUMPDEST PUSH2 0x32FC JUMP JUMPDEST PUSH2 0x2E92 PUSH2 0x2E47 PUSH2 0x18BB PUSH1 0xC SLOAD PUSH1 0x1 PUSH1 0x1 PUSH1 0xA0 SHL SUB AND SWAP1 JUMP JUMPDEST PUSH1 0x20 PUSH4 0xDD62ED3E CALLER SWAP3 PUSH2 0x2E73 PUSH2 0x2E5C ADDRESS PUSH2 0xF5F JUMP JUMPDEST SWAP3 PUSH2 0x2E66 PUSH1 0x40 MLOAD SWAP1 JUMP JUMPDEST SWAP7 DUP8 SWAP5 DUP6 SWAP4 DUP5 SWAP4 PUSH1 0xE0 SHL SWAP1 JUMP JUMPDEST DUP4 MSTORE PUSH1 0x1 PUSH1 0x1 PUSH1 0xA0 SHL SUB DUP1 DUP10 AND PUSH1 0x4 DUP6 ADD MSTORE AND PUSH1 0x24 DUP4 ADD MSTORE PUSH1 0x44 DUP3 ADD SWAP1 JUMP JUMPDEST SUB SWAP2 GAS STATICCALL DUP1 ISZERO PUSH2 0x2F8D JUMPI PUSH1 0x20 SWAP3 PUSH1 0x0 SWAP2 PUSH2 0x2F92 JUMPI JUMPDEST POP PUSH2 0x2EDD PUSH2 0x2EB3 DUP6 MLOAD SWAP1 JUMP JUMPDEST SWAP2 PUSH2 0x2ED6 PUSH2 0x191D PUSH2 0x246 PUSH8 0xDE0B6B3A7640000 SWAP6 PUSH2 0x2ED0 DUP8 PUSH2 0x470 JUMP JUMPDEST SWAP1 PUSH2 0x2B5C JUMP JUMPDEST LT ISZERO PUSH2 0x2D30 JUMP JUMPDEST PUSH2 0x2F38 PUSH1 0x0 PUSH2 0x2EF7 PUSH2 0x18BB PUSH1 0xC SLOAD PUSH1 0x1 PUSH1 0x1 PUSH1 0xA0 SHL SUB AND SWAP1 JUMP JUMPDEST SWAP3 PUSH2 0x2F43 PUSH2 0x2F27 PUSH4 0x23B872DD SWAP3 PUSH2 0x2ED0 PUSH2 0x2F21 PUSH2 0x2F1C PUSH1 0xE SLOAD PUSH1 0x1 PUSH1 0x1 PUSH1 0xA0 SHL SUB AND SWAP1 JUMP JUMPDEST SWAP12 MLOAD SWAP1 JUMP JUMPDEST SWAP2 PUSH2 0x470 JUMP JUMPDEST PUSH1 0x40 MLOAD JUMPDEST SWAP9 DUP10 SWAP8 DUP9 SWAP7 DUP8 SWAP6 PUSH1 0xE0 SHL SWAP1 JUMP JUMPDEST DUP6 MSTORE PUSH1 0x4 DUP6 ADD PUSH2 0x2D9A JUMP JUMPDEST SUB SWAP3 GAS CALL DUP1 ISZERO PUSH2 0x2F8D JUMPI PUSH2 0x230 SWAP2 PUSH1 0x0 SWAP2 PUSH2 0x2F5F JUMPI JUMPDEST POP PUSH2 0x2DC8 JUMP JUMPDEST PUSH2 0x2F80 SWAP2 POP PUSH1 0x20 RETURNDATASIZE DUP2 GT PUSH2 0x2F86 JUMPI JUMPDEST PUSH2 0x2F78 DUP2 DUP4 PUSH2 0x58A JUMP JUMPDEST DUP2 ADD SWAP1 PUSH2 0x2D7D JUMP JUMPDEST CODESIZE PUSH2 0x2F59 JUMP JUMPDEST POP RETURNDATASIZE PUSH2 0x2F6E JUMP JUMPDEST PUSH2 0x1860 JUMP JUMPDEST PUSH2 0x2FB2 SWAP2 POP DUP4 RETURNDATASIZE DUP2 GT PUSH2 0x2FB8 JUMPI JUMPDEST PUSH2 0x2FAA DUP2 DUP4 PUSH2 0x58A JUMP JUMPDEST DUP2 ADD SWAP1 PUSH2 0x2D1C JUMP JUMPDEST CODESIZE PUSH2 0x2EA7 JUMP JUMPDEST POP RETURNDATASIZE PUSH2 0x2FA0 JUMP JUMPDEST SWAP1 PUSH2 0x230 SWAP2 PUSH2 0x2FCC PUSH2 0xE5F JUMP JUMPDEST PUSH2 0x306A JUMP JUMPDEST PUSH1 0x1 PUSH1 0x1 PUSH1 0xA0 SHL SUB SWAP1 SWAP2 AND DUP2 MSTORE PUSH1 0x40 DUP2 ADD SWAP3 SWAP2 PUSH2 0x230 SWAP2 PUSH1 0x20 ADD MSTORE JUMP JUMPDEST PUSH1 0x1 PUSH1 0x1 PUSH1 0xA0 SHL SUB SWAP2 DUP3 AND DUP2 MSTORE SWAP2 AND PUSH1 0x20 DUP3 ADD MSTORE PUSH1 0x60 DUP2 ADD SWAP3 SWAP2 PUSH2 0x230 SWAP2 PUSH1 0x40 ADD MSTORE JUMP JUMPDEST ISZERO PUSH2 0x3019 JUMPI JUMP JUMPDEST PUSH1 0x40 MLOAD PUSH3 0x461BCD PUSH1 0xE5 SHL DUP2 MSTORE PUSH1 0x20 PUSH1 0x4 DUP3 ADD MSTORE PUSH1 0x24 DUP1 DUP3 ADD MSTORE PUSH32 0x496E73756666696369656E74204554482062616C616E636520696E20636F6E74 PUSH1 0x44 DUP3 ADD MSTORE PUSH4 0x1C9858DD PUSH1 0xE2 SHL PUSH1 0x64 DUP3 ADD MSTORE PUSH1 0x84 SWAP1 REVERT JUMPDEST SWAP1 PUSH1 0x0 PUSH2 0x3079 PUSH2 0x344 DUP3 PUSH2 0xDE8 JUMP JUMPDEST PUSH1 0x1 PUSH1 0x1 PUSH1 0xA0 SHL SUB DUP5 AND SUB PUSH2 0x3112 JUMPI PUSH2 0x309E PUSH2 0x3094 ADDRESS PUSH2 0xF5F JUMP JUMPDEST DUP4 SWAP1 BALANCE LT ISZERO PUSH2 0x3012 JUMP JUMPDEST DUP1 DUP1 DUP1 DUP5 PUSH2 0x30BA PUSH2 0x18BB PUSH2 0x18BB PUSH1 0xB SLOAD PUSH1 0x1 PUSH1 0x1 PUSH1 0xA0 SHL SUB AND SWAP1 JUMP JUMPDEST DUP3 DUP3 ISZERO PUSH2 0x3109 JUMPI JUMPDEST CALL ISZERO PUSH2 0x2F8D JUMPI PUSH32 0xFFF3B3844276F57024E0B42AFEC1A37F75DB36511E43819A4F2A63AB7862B648 SWAP1 PUSH2 0x30F3 CALLER PUSH2 0xF5F JUMP JUMPDEST SWAP3 PUSH2 0x1B3F PUSH2 0x3100 PUSH1 0x40 MLOAD SWAP1 JUMP JUMPDEST SWAP3 DUP4 SWAP3 DUP4 PUSH2 0x2FD1 JUMP JUMPDEST POP PUSH2 0x8FC PUSH2 0x30C2 JUMP JUMPDEST DUP2 PUSH1 0x20 PUSH2 0x3121 PUSH2 0x18BB DUP7 PUSH2 0xF5F JUMP JUMPDEST PUSH4 0xA9059CBB SWAP1 PUSH2 0x3157 DUP6 PUSH2 0x313D PUSH1 0xB SLOAD PUSH1 0x1 PUSH1 0x1 PUSH1 0xA0 SHL SUB AND SWAP1 JUMP JUMPDEST SWAP4 PUSH2 0x3162 PUSH2 0x314A PUSH1 0x40 MLOAD SWAP1 JUMP JUMPDEST SWAP8 DUP9 SWAP7 DUP8 SWAP6 DUP7 SWAP5 PUSH1 0xE0 SHL SWAP1 JUMP JUMPDEST DUP5 MSTORE PUSH1 0x4 DUP5 ADD PUSH2 0x2FD1 JUMP JUMPDEST SUB SWAP3 GAS CALL SWAP1 DUP2 PUSH2 0x32B4 JUMPI JUMPDEST POP ISZERO DUP2 EQ PUSH2 0x3288 JUMPI PUSH2 0x3181 PUSH2 0x18BB DUP5 PUSH2 0xF5F JUMP JUMPDEST PUSH4 0x42842E0E PUSH2 0x318F ADDRESS PUSH2 0xF5F JUMP JUMPDEST PUSH1 0xB SLOAD PUSH1 0x1 PUSH1 0x1 PUSH1 0xA0 SHL SUB AND SWAP3 DUP1 EXTCODESIZE ISZERO PUSH2 0x21E JUMPI PUSH2 0x31B6 DUP6 DUP1 SWAP5 PUSH2 0x31C1 DUP10 PUSH2 0x2F2B PUSH1 0x40 MLOAD SWAP1 JUMP JUMPDEST DUP6 MSTORE PUSH1 0x4 DUP6 ADD PUSH2 0x2FEE JUMP JUMPDEST SUB SWAP3 GAS CALL SWAP1 DUP2 PUSH2 0x325C JUMPI JUMPDEST POP ISZERO EQ PUSH2 0x3231 JUMPI PUSH1 0x40 MLOAD PUSH3 0x461BCD PUSH1 0xE5 SHL DUP2 MSTORE PUSH1 0x20 PUSH1 0x4 DUP3 ADD MSTORE PUSH1 0x30 PUSH1 0x24 DUP3 ADD MSTORE PUSH32 0x546F6B656E2074797065206E6F7420737570706F72746564206F7220696E7375 PUSH1 0x44 DUP3 ADD MSTORE PUSH16 0x6666696369656E742062616C616E6365 PUSH1 0x80 SHL PUSH1 0x64 DUP3 ADD MSTORE PUSH1 0x84 SWAP1 REVERT JUMPDEST PUSH32 0xFFF3B3844276F57024E0B42AFEC1A37F75DB36511E43819A4F2A63AB7862B648 SWAP1 PUSH2 0x30F3 CALLER PUSH2 0xF5F JUMP JUMPDEST PUSH2 0x327B SWAP1 DUP4 RETURNDATASIZE DUP6 GT PUSH2 0x3281 JUMPI JUMPDEST PUSH2 0x3273 DUP2 DUP4 PUSH2 0x58A JUMP JUMPDEST DUP2 ADD SWAP1 PUSH2 0x27F JUMP JUMPDEST CODESIZE PUSH2 0x31CC JUMP JUMPDEST POP RETURNDATASIZE PUSH2 0x3269 JUMP JUMPDEST POP PUSH32 0xFFF3B3844276F57024E0B42AFEC1A37F75DB36511E43819A4F2A63AB7862B648 SWAP1 PUSH2 0x30F3 CALLER PUSH2 0xF5F JUMP JUMPDEST PUSH2 0x32CB SWAP1 PUSH1 0x20 RETURNDATASIZE DUP2 GT PUSH2 0x2F86 JUMPI PUSH2 0x2F78 DUP2 DUP4 PUSH2 0x58A JUMP JUMPDEST PUSH2 0x316D JUMP JUMPDEST SWAP1 PUSH2 0x230 SWAP2 PUSH2 0x2FBF JUMP JUMPDEST SWAP3 SWAP2 PUSH1 0x20 PUSH2 0x32F7 PUSH2 0x230 SWAP4 PUSH1 0x40 DUP8 ADD SWAP1 DUP8 DUP3 SUB PUSH1 0x0 DUP10 ADD MSTORE PUSH2 0x2AD JUMP JUMPDEST SWAP5 ADD MSTORE JUMP JUMPDEST SWAP1 PUSH2 0x3338 PUSH2 0x230 SWAP3 PUSH2 0x3329 PUSH2 0x3310 PUSH1 0x40 MLOAD SWAP1 JUMP JUMPDEST PUSH4 0x2D839CB3 PUSH1 0xE2 SHL PUSH1 0x20 DUP3 ADD MSTORE SWAP4 DUP5 SWAP3 PUSH1 0x24 DUP5 ADD PUSH2 0x32DA JUMP JUMPDEST PUSH1 0x20 DUP3 ADD DUP2 SUB DUP3 MSTORE SUB DUP3 PUSH2 0x58A JUMP JUMPDEST PUSH1 0x0 DUP1 SWAP2 PUSH2 0x3344 DUP2 MLOAD SWAP1 JUMP JUMPDEST SWAP1 PUSH1 0x20 ADD PUSH11 0x636F6E736F6C652E6C6F67 GAS STATICCALL POP JUMP INVALID LOG2 PUSH5 0x6970667358 0x22 SLT KECCAK256 PUSH9 0x55BFD141B21769CCA3 0xE8 0xB5 0x4E PUSH5 0x9806E9A17D 0xC5 0xC2 SDIV 0xCE DUP16 0xEF DUP15 SHL 0xB8 PUSH24 0xCDCF4764736F6C6343000813003300000000000000000000 "},"methodIdentifiers":{"approve(address,uint256)":"095ea7b3","balanceOf(address)":"70a08231","buyNFT(uint256)":"51ed8288","deleteNFTSource(uint256)":"15b684cf","getApproved(uint256)":"081812fc","getNFTDetailsByCreator(address)":"af2217cd","getNFTsByCreator(address)":"ffa03821","isApprovedForAll(address,address)":"e985e9c5","name()":"06fdde03","nextNFTId()":"c909adc0","nextSourceId()":"926061f0","nfts(uint256)":"265aa621","owner()":"8da5cb5b","ownerOf(uint256)":"6352211e","renounceOwnership()":"715018a6","safeTransferFrom(address,address,uint256)":"42842e0e","safeTransferFrom(address,address,uint256,bytes)":"b88d4fde","setApprovalForAll(address,bool)":"a22cb465","setBlockFans(address)":"ba908b45","setCreators(address)":"fa3157d5","setNFTSource(string,string,string,string,uint256,uint256,uint8)":"abd48199","supportsInterface(bytes4)":"01ffc9a7","symbol()":"95d89b41","tokenByIndex(uint256)":"4f6ccce7","tokenOfOwnerByIndex(address,uint256)":"2f745c59","tokenURI(uint256)":"c87b56dd","totalSupply()":"18160ddd","transferFrom(address,address,uint256)":"23b872dd","transferOwnership(address)":"f2fde38b","withdraw(address,uint256)":"f3fef3a3"}}}}}