{"contracts/Creators.sol":{"Creators":{"abi":[{"inputs":[],"stateMutability":"nonpayable","type":"constructor"},{"anonymous":false,"inputs":[{"indexed":true,"internalType":"address","name":"previousOwner","type":"address"},{"indexed":true,"internalType":"address","name":"newOwner","type":"address"}],"name":"OwnershipTransferred","type":"event"},{"anonymous":false,"inputs":[{"indexed":true,"internalType":"address","name":"from","type":"address"},{"indexed":false,"internalType":"uint256","name":"amount","type":"uint256"}],"name":"Received","type":"event"},{"anonymous":false,"inputs":[{"indexed":false,"internalType":"address","name":"sender","type":"address"},{"indexed":false,"internalType":"address","name":"tokenAddress","type":"address"},{"indexed":false,"internalType":"uint256","name":"amountOrTokenId","type":"uint256"}],"name":"Recovered","type":"event"},{"stateMutability":"payable","type":"fallback"},{"inputs":[{"internalType":"address","name":"creatorAddress","type":"address"},{"internalType":"enum Creator.Status","name":"status","type":"uint8"}],"name":"addCreator","outputs":[],"stateMutability":"nonpayable","type":"function"},{"inputs":[{"internalType":"address","name":"creatorAddress","type":"address"},{"internalType":"enum Creator.Status","name":"newStatus","type":"uint8"}],"name":"changeCreatorStatus","outputs":[],"stateMutability":"nonpayable","type":"function"},{"inputs":[],"name":"owner","outputs":[{"internalType":"address","name":"","type":"address"}],"stateMutability":"view","type":"function"},{"inputs":[],"name":"renounceOwnership","outputs":[],"stateMutability":"nonpayable","type":"function"},{"inputs":[{"internalType":"address","name":"blockFansAddress","type":"address"}],"name":"setBlockFans","outputs":[],"stateMutability":"nonpayable","type":"function"},{"inputs":[{"internalType":"address","name":"creatorsNFTAddress","type":"address"}],"name":"setCreatorsNFT","outputs":[],"stateMutability":"nonpayable","type":"function"},{"inputs":[{"internalType":"address","name":"newOwner","type":"address"}],"name":"transferOwnership","outputs":[],"stateMutability":"nonpayable","type":"function"},{"inputs":[{"internalType":"address","name":"tokenAddress","type":"address"},{"internalType":"uint256","name":"amountOrTokenId","type":"uint256"}],"name":"withdraw","outputs":[],"stateMutability":"nonpayable","type":"function"},{"stateMutability":"payable","type":"receive"}],"evm":{"bytecode":{"linkReferences":{},"object":"608060405234620000265762000014620000b5565b604051610ac3620001808239610ac390f35b600080fd5b6200003e6200003b6200003b9290565b90565b6001600160a01b031690565b6200003b906200002b565b6200003b906200003e906001600160a01b031682565b6200003b9062000055565b6200003b906200006b565b90620000956200003b620000b19262000076565b82546001600160a01b0319166001600160a01b03919091161790565b9055565b620000bf620000fa565b620000f8620000f0620000d360006200004a565b620000ea620000e28262000076565b600162000081565b62000076565b600262000081565b565b620000f880336200011d565b6200003b906200003e565b6200003b905462000106565b62000129600062000111565b906200013781600062000081565b6200016e620001677f8be0079c531659141344cd1fd0a4f28419497f9722a3daafe3b4186f6b6457e09362000076565b9162000076565b916200017960405190565b600090a356fe60806040526004361015610026575b361561001e5761001c610478565b005b61001c610478565b60003560e01c80625360e7146100a55780635cfac830146100a0578063715018a61461009b5780638da5cb5b14610096578063ae587f9f14610091578063ba908b451461008c578063f2fde38b146100875763f3fef3a30361000e5761024c565b6101fe565b6101e6565b6101ce565b61017b565b61015f565b61013b565b610119565b6001600160a01b031690565b90565b6001600160a01b0381165b036100cb57565b600080fd5b905035906100dd826100b9565b565b600611156100cb57565b905035906100dd826100df565b91906040838203126100cb576100b69061011081856100d0565b936020016100e9565b346100cb5761013261012c3660046100f6565b90610646565b604051005b0390f35b346100cb5761013261014e3660046100f6565b90610709565b60009103126100cb57565b346100cb5761016f366004610154565b61013261029d565b9052565b346100cb5761018b366004610154565b6101376101a06000546001600160a01b031690565b604051918291826001600160a01b03909116815260200190565b906020828203126100cb576100b6916100d0565b346100cb576101326101e13660046101ba565b610509565b346100cb576101326101f93660046101ba565b6104e1565b346100cb576101326102113660046101ba565b6103be565b806100c4565b905035906100dd82610216565b91906040838203126100cb576100b69061024381856100d0565b9360200161021c565b346100cb5761013261025f366004610229565b90610a83565b61026d6102f9565b6100dd61028b565b6100aa6100b66100b69290565b6100b690610275565b6100dd6102986000610282565b61041d565b6100dd610265565b156102ac57565b60405162461bcd60e51b8152806102f5600482016020808252818101527f4f776e61626c653a2063616c6c6572206973206e6f7420746865206f776e6572604082015260600190565b0390fd5b6100dd61030e6000546001600160a01b031690565b61032761031a336100aa565b916001600160a01b031690565b146102a5565b6100dd906103396102f9565b610399565b1561034557565b60405162461bcd60e51b815260206004820152602660248201527f4f776e61626c653a206e6577206f776e657220697320746865207a65726f206160448201526564647265737360d01b6064820152608490fd5b6100dd906102986103ad6100aa6000610282565b6001600160a01b038316141561033e565b6100dd9061032d565b906001600160a01b03905b9181191691161790565b6100b6906100aa906001600160a01b031682565b6100b6906103dc565b6100b6906103f0565b906104126100b6610419926103f9565b82546103c7565b9055565b6000546001600160a01b031690610435816000610402565b6104686104627f8be0079c531659141344cd1fd0a4f28419497f9722a3daafe3b4186f6b6457e0936103f9565b916103f9565b9161047260405190565b600090a3565b347f88a5966d370b9919b20f3e2c13ff65706f196a4e32cc2c12bf57088f885258746104bd6104a6336103f9565b926104b060405190565b9182918290815260200190565b0390a2565b6100dd906104ce6102f9565b6104da6100dd916103f9565b6001610402565b6100dd906104c2565b6100dd906104f66102f9565b6105026100dd916103f9565b6002610402565b6100dd906104ea565b906100dd9161051f6102f9565b610620565b634e487b7160e01b600052604160045260246000fd5b90601f01601f1916810190811067ffffffffffffffff82111761055c57604052565b610524565b906100dd61056e60405190565b928361053a565b6100b66020610561565b634e487b7160e01b600052602160045260246000fd5b6006111561059f57565b61057f565b906100dd82610595565b90610177906105a4565b906105c2906103f9565b600052602052604060002090565b6100b690516105a4565b9060ff906103d2565b6100b6906105a4565b906105fc6100b6610419926105e3565b82546105da565b6100dd91610610906105d0565b906105ec565b906100dd91610603565b906106416100dd9261063a610633610575565b93846105ae565b60036105b8565b610616565b906100dd91610512565b906100dd9161065d6102f9565b6106b9565b61066f6100b66100b69290565b6105a4565b1561067b57565b60405162461bcd60e51b815260206004820152601660248201527510dc99585d1bdc88191bd95cc81b9bdd08195e1a5cdd60521b6044820152606490fd5b906100dd916107036003916106db60006106d383866105b8565b015460ff1690565b926106fe6000946106f76106f161066f88610662565b916105a4565b1415610674565b6105b8565b016105ec565b906100dd91610650565b906100dd916107206102f9565b6107f3565b8015156100c4565b905051906100dd82610725565b906020828203126100cb576100b69161072d565b6001600160a01b0390911681526040810192916100dd9160200152565b6040513d6000823e3d90fd5b6001600160a01b039182168152911660208201526060810192916100dd9160400152565b156107a257565b60405162461bcd60e51b8152602060048201526024808201527f496e73756666696369656e74204554482062616c616e636520696e20636f6e746044820152631c9858dd60e21b6064820152608490fd5b60006108016100aa82610282565b6001600160a01b038316036108a05761082661081c306103f9565b849031101561079b565b808080856108476108426108426000546001600160a01b031690565b6103f9565b828215610897575bf115610892573361088d7ffff3b3844276f57024e0b42afec1a37f75db36511e43819a4f2a63ab7862b6489361088460405190565b93849384610777565b0390a1565b61076b565b506108fc61084f565b8260206108af610842856103f9565b63a9059cbb906108e5856108cb6000546001600160a01b031690565b936108f06108d860405190565b9788968795869460e01b90565b84526004840161074e565b03925af19081610a57575b50158114610a275761090f610842836103f9565b6342842e0e61091d306103f9565b6000546001600160a01b031692803b156100cb5761095185809461095c8a61094460405190565b9889978896879560e01b90565b855260048501610777565b03925af190816109fb575b5015146109cc5760405162461bcd60e51b815260206004820152603060248201527f546f6b656e2074797065206e6f7420737570706f72746564206f7220696e737560448201526f6666696369656e742062616c616e636560801b6064820152608490fd5b3361088d7ffff3b3844276f57024e0b42afec1a37f75db36511e43819a4f2a63ab7862b6489361088460405190565b610a1a90833d8511610a20575b610a12818361053a565b810190610154565b38610967565b503d610a08565b503361088d7ffff3b3844276f57024e0b42afec1a37f75db36511e43819a4f2a63ab7862b6489361088460405190565b610a779060203d8111610a7c575b610a6f818361053a565b81019061073a565b6108fb565b503d610a65565b906100dd9161071356fea2646970667358221220ae3b4f82f0e8e2657e283bec760c5479fca9202f01ccbcd7156e8892b0e4cc0c64736f6c63430008130033","opcodes":"PUSH1 0x80 PUSH1 0x40 MSTORE CALLVALUE PUSH3 0x26 JUMPI PUSH3 0x14 PUSH3 0xB5 JUMP JUMPDEST PUSH1 0x40 MLOAD PUSH2 0xAC3 PUSH3 0x180 DUP3 CODECOPY PUSH2 0xAC3 SWAP1 RETURN JUMPDEST PUSH1 0x0 DUP1 REVERT JUMPDEST PUSH3 0x3E PUSH3 0x3B PUSH3 0x3B SWAP3 SWAP1 JUMP JUMPDEST SWAP1 JUMP JUMPDEST PUSH1 0x1 PUSH1 0x1 PUSH1 0xA0 SHL SUB AND SWAP1 JUMP JUMPDEST PUSH3 0x3B SWAP1 PUSH3 0x2B JUMP JUMPDEST PUSH3 0x3B SWAP1 PUSH3 0x3E SWAP1 PUSH1 0x1 PUSH1 0x1 PUSH1 0xA0 SHL SUB AND DUP3 JUMP JUMPDEST PUSH3 0x3B SWAP1 PUSH3 0x55 JUMP JUMPDEST PUSH3 0x3B SWAP1 PUSH3 0x6B JUMP JUMPDEST SWAP1 PUSH3 0x95 PUSH3 0x3B PUSH3 0xB1 SWAP3 PUSH3 0x76 JUMP JUMPDEST DUP3 SLOAD PUSH1 0x1 PUSH1 0x1 PUSH1 0xA0 SHL SUB NOT AND PUSH1 0x1 PUSH1 0x1 PUSH1 0xA0 SHL SUB SWAP2 SWAP1 SWAP2 AND OR SWAP1 JUMP JUMPDEST SWAP1 SSTORE JUMP JUMPDEST PUSH3 0xBF PUSH3 0xFA JUMP JUMPDEST PUSH3 0xF8 PUSH3 0xF0 PUSH3 0xD3 PUSH1 0x0 PUSH3 0x4A JUMP JUMPDEST PUSH3 0xEA PUSH3 0xE2 DUP3 PUSH3 0x76 JUMP JUMPDEST PUSH1 0x1 PUSH3 0x81 JUMP JUMPDEST PUSH3 0x76 JUMP JUMPDEST PUSH1 0x2 PUSH3 0x81 JUMP JUMPDEST JUMP JUMPDEST PUSH3 0xF8 DUP1 CALLER PUSH3 0x11D JUMP JUMPDEST PUSH3 0x3B SWAP1 PUSH3 0x3E JUMP JUMPDEST PUSH3 0x3B SWAP1 SLOAD PUSH3 0x106 JUMP JUMPDEST PUSH3 0x129 PUSH1 0x0 PUSH3 0x111 JUMP JUMPDEST SWAP1 PUSH3 0x137 DUP2 PUSH1 0x0 PUSH3 0x81 JUMP JUMPDEST PUSH3 0x16E PUSH3 0x167 PUSH32 0x8BE0079C531659141344CD1FD0A4F28419497F9722A3DAAFE3B4186F6B6457E0 SWAP4 PUSH3 0x76 JUMP JUMPDEST SWAP2 PUSH3 0x76 JUMP JUMPDEST SWAP2 PUSH3 0x179 PUSH1 0x40 MLOAD SWAP1 JUMP JUMPDEST PUSH1 0x0 SWAP1 LOG3 JUMP INVALID PUSH1 0x80 PUSH1 0x40 MSTORE PUSH1 0x4 CALLDATASIZE LT ISZERO PUSH2 0x26 JUMPI JUMPDEST CALLDATASIZE ISZERO PUSH2 0x1E JUMPI PUSH2 0x1C PUSH2 0x478 JUMP JUMPDEST STOP JUMPDEST PUSH2 0x1C PUSH2 0x478 JUMP JUMPDEST PUSH1 0x0 CALLDATALOAD PUSH1 0xE0 SHR DUP1 PUSH3 0x5360E7 EQ PUSH2 0xA5 JUMPI DUP1 PUSH4 0x5CFAC830 EQ PUSH2 0xA0 JUMPI DUP1 PUSH4 0x715018A6 EQ PUSH2 0x9B JUMPI DUP1 PUSH4 0x8DA5CB5B EQ PUSH2 0x96 JUMPI DUP1 PUSH4 0xAE587F9F EQ PUSH2 0x91 JUMPI DUP1 PUSH4 0xBA908B45 EQ PUSH2 0x8C JUMPI DUP1 PUSH4 0xF2FDE38B EQ PUSH2 0x87 JUMPI PUSH4 0xF3FEF3A3 SUB PUSH2 0xE JUMPI PUSH2 0x24C JUMP JUMPDEST PUSH2 0x1FE JUMP JUMPDEST PUSH2 0x1E6 JUMP JUMPDEST PUSH2 0x1CE JUMP JUMPDEST PUSH2 0x17B JUMP JUMPDEST PUSH2 0x15F JUMP JUMPDEST PUSH2 0x13B JUMP JUMPDEST PUSH2 0x119 JUMP JUMPDEST PUSH1 0x1 PUSH1 0x1 PUSH1 0xA0 SHL SUB AND SWAP1 JUMP JUMPDEST SWAP1 JUMP JUMPDEST PUSH1 0x1 PUSH1 0x1 PUSH1 0xA0 SHL SUB DUP2 AND JUMPDEST SUB PUSH2 0xCB JUMPI JUMP JUMPDEST PUSH1 0x0 DUP1 REVERT JUMPDEST SWAP1 POP CALLDATALOAD SWAP1 PUSH2 0xDD DUP3 PUSH2 0xB9 JUMP JUMPDEST JUMP JUMPDEST PUSH1 0x6 GT ISZERO PUSH2 0xCB JUMPI JUMP JUMPDEST SWAP1 POP CALLDATALOAD SWAP1 PUSH2 0xDD DUP3 PUSH2 0xDF JUMP JUMPDEST SWAP2 SWAP1 PUSH1 0x40 DUP4 DUP3 SUB SLT PUSH2 0xCB JUMPI PUSH2 0xB6 SWAP1 PUSH2 0x110 DUP2 DUP6 PUSH2 0xD0 JUMP JUMPDEST SWAP4 PUSH1 0x20 ADD PUSH2 0xE9 JUMP JUMPDEST CALLVALUE PUSH2 0xCB JUMPI PUSH2 0x132 PUSH2 0x12C CALLDATASIZE PUSH1 0x4 PUSH2 0xF6 JUMP JUMPDEST SWAP1 PUSH2 0x646 JUMP JUMPDEST PUSH1 0x40 MLOAD STOP JUMPDEST SUB SWAP1 RETURN JUMPDEST CALLVALUE PUSH2 0xCB JUMPI PUSH2 0x132 PUSH2 0x14E CALLDATASIZE PUSH1 0x4 PUSH2 0xF6 JUMP JUMPDEST SWAP1 PUSH2 0x709 JUMP JUMPDEST PUSH1 0x0 SWAP2 SUB SLT PUSH2 0xCB JUMPI JUMP JUMPDEST CALLVALUE PUSH2 0xCB JUMPI PUSH2 0x16F CALLDATASIZE PUSH1 0x4 PUSH2 0x154 JUMP JUMPDEST PUSH2 0x132 PUSH2 0x29D JUMP JUMPDEST SWAP1 MSTORE JUMP JUMPDEST CALLVALUE PUSH2 0xCB JUMPI PUSH2 0x18B CALLDATASIZE PUSH1 0x4 PUSH2 0x154 JUMP JUMPDEST PUSH2 0x137 PUSH2 0x1A0 PUSH1 0x0 SLOAD PUSH1 0x1 PUSH1 0x1 PUSH1 0xA0 SHL SUB AND SWAP1 JUMP JUMPDEST PUSH1 0x40 MLOAD SWAP2 DUP3 SWAP2 DUP3 PUSH1 0x1 PUSH1 0x1 PUSH1 0xA0 SHL SUB SWAP1 SWAP2 AND DUP2 MSTORE PUSH1 0x20 ADD SWAP1 JUMP JUMPDEST SWAP1 PUSH1 0x20 DUP3 DUP3 SUB SLT PUSH2 0xCB JUMPI PUSH2 0xB6 SWAP2 PUSH2 0xD0 JUMP JUMPDEST CALLVALUE PUSH2 0xCB JUMPI PUSH2 0x132 PUSH2 0x1E1 CALLDATASIZE PUSH1 0x4 PUSH2 0x1BA JUMP JUMPDEST PUSH2 0x509 JUMP JUMPDEST CALLVALUE PUSH2 0xCB JUMPI PUSH2 0x132 PUSH2 0x1F9 CALLDATASIZE PUSH1 0x4 PUSH2 0x1BA JUMP JUMPDEST PUSH2 0x4E1 JUMP JUMPDEST CALLVALUE PUSH2 0xCB JUMPI PUSH2 0x132 PUSH2 0x211 CALLDATASIZE PUSH1 0x4 PUSH2 0x1BA JUMP JUMPDEST PUSH2 0x3BE JUMP JUMPDEST DUP1 PUSH2 0xC4 JUMP JUMPDEST SWAP1 POP CALLDATALOAD SWAP1 PUSH2 0xDD DUP3 PUSH2 0x216 JUMP JUMPDEST SWAP2 SWAP1 PUSH1 0x40 DUP4 DUP3 SUB SLT PUSH2 0xCB JUMPI PUSH2 0xB6 SWAP1 PUSH2 0x243 DUP2 DUP6 PUSH2 0xD0 JUMP JUMPDEST SWAP4 PUSH1 0x20 ADD PUSH2 0x21C JUMP JUMPDEST CALLVALUE PUSH2 0xCB JUMPI PUSH2 0x132 PUSH2 0x25F CALLDATASIZE PUSH1 0x4 PUSH2 0x229 JUMP JUMPDEST SWAP1 PUSH2 0xA83 JUMP JUMPDEST PUSH2 0x26D PUSH2 0x2F9 JUMP JUMPDEST PUSH2 0xDD PUSH2 0x28B JUMP JUMPDEST PUSH2 0xAA PUSH2 0xB6 PUSH2 0xB6 SWAP3 SWAP1 JUMP JUMPDEST PUSH2 0xB6 SWAP1 PUSH2 0x275 JUMP JUMPDEST PUSH2 0xDD PUSH2 0x298 PUSH1 0x0 PUSH2 0x282 JUMP JUMPDEST PUSH2 0x41D JUMP JUMPDEST PUSH2 0xDD PUSH2 0x265 JUMP JUMPDEST ISZERO PUSH2 0x2AC JUMPI JUMP JUMPDEST PUSH1 0x40 MLOAD PUSH3 0x461BCD PUSH1 0xE5 SHL DUP2 MSTORE DUP1 PUSH2 0x2F5 PUSH1 0x4 DUP3 ADD PUSH1 0x20 DUP1 DUP3 MSTORE DUP2 DUP2 ADD MSTORE PUSH32 0x4F776E61626C653A2063616C6C6572206973206E6F7420746865206F776E6572 PUSH1 0x40 DUP3 ADD MSTORE PUSH1 0x60 ADD SWAP1 JUMP JUMPDEST SUB SWAP1 REVERT JUMPDEST PUSH2 0xDD PUSH2 0x30E PUSH1 0x0 SLOAD PUSH1 0x1 PUSH1 0x1 PUSH1 0xA0 SHL SUB AND SWAP1 JUMP JUMPDEST PUSH2 0x327 PUSH2 0x31A CALLER PUSH2 0xAA JUMP JUMPDEST SWAP2 PUSH1 0x1 PUSH1 0x1 PUSH1 0xA0 SHL SUB AND SWAP1 JUMP JUMPDEST EQ PUSH2 0x2A5 JUMP JUMPDEST PUSH2 0xDD SWAP1 PUSH2 0x339 PUSH2 0x2F9 JUMP JUMPDEST PUSH2 0x399 JUMP JUMPDEST ISZERO PUSH2 0x345 JUMPI JUMP JUMPDEST PUSH1 0x40 MLOAD PUSH3 0x461BCD PUSH1 0xE5 SHL DUP2 MSTORE PUSH1 0x20 PUSH1 0x4 DUP3 ADD MSTORE PUSH1 0x26 PUSH1 0x24 DUP3 ADD MSTORE PUSH32 0x4F776E61626C653A206E6577206F776E657220697320746865207A65726F2061 PUSH1 0x44 DUP3 ADD MSTORE PUSH6 0x646472657373 PUSH1 0xD0 SHL PUSH1 0x64 DUP3 ADD MSTORE PUSH1 0x84 SWAP1 REVERT JUMPDEST PUSH2 0xDD SWAP1 PUSH2 0x298 PUSH2 0x3AD PUSH2 0xAA PUSH1 0x0 PUSH2 0x282 JUMP JUMPDEST PUSH1 0x1 PUSH1 0x1 PUSH1 0xA0 SHL SUB DUP4 AND EQ ISZERO PUSH2 0x33E JUMP JUMPDEST PUSH2 0xDD SWAP1 PUSH2 0x32D JUMP JUMPDEST SWAP1 PUSH1 0x1 PUSH1 0x1 PUSH1 0xA0 SHL SUB SWAP1 JUMPDEST SWAP2 DUP2 NOT AND SWAP2 AND OR SWAP1 JUMP JUMPDEST PUSH2 0xB6 SWAP1 PUSH2 0xAA SWAP1 PUSH1 0x1 PUSH1 0x1 PUSH1 0xA0 SHL SUB AND DUP3 JUMP JUMPDEST PUSH2 0xB6 SWAP1 PUSH2 0x3DC JUMP JUMPDEST PUSH2 0xB6 SWAP1 PUSH2 0x3F0 JUMP JUMPDEST SWAP1 PUSH2 0x412 PUSH2 0xB6 PUSH2 0x419 SWAP3 PUSH2 0x3F9 JUMP JUMPDEST DUP3 SLOAD PUSH2 0x3C7 JUMP JUMPDEST SWAP1 SSTORE JUMP JUMPDEST PUSH1 0x0 SLOAD PUSH1 0x1 PUSH1 0x1 PUSH1 0xA0 SHL SUB AND SWAP1 PUSH2 0x435 DUP2 PUSH1 0x0 PUSH2 0x402 JUMP JUMPDEST PUSH2 0x468 PUSH2 0x462 PUSH32 0x8BE0079C531659141344CD1FD0A4F28419497F9722A3DAAFE3B4186F6B6457E0 SWAP4 PUSH2 0x3F9 JUMP JUMPDEST SWAP2 PUSH2 0x3F9 JUMP JUMPDEST SWAP2 PUSH2 0x472 PUSH1 0x40 MLOAD SWAP1 JUMP JUMPDEST PUSH1 0x0 SWAP1 LOG3 JUMP JUMPDEST CALLVALUE PUSH32 0x88A5966D370B9919B20F3E2C13FF65706F196A4E32CC2C12BF57088F88525874 PUSH2 0x4BD PUSH2 0x4A6 CALLER PUSH2 0x3F9 JUMP JUMPDEST SWAP3 PUSH2 0x4B0 PUSH1 0x40 MLOAD SWAP1 JUMP JUMPDEST SWAP2 DUP3 SWAP2 DUP3 SWAP1 DUP2 MSTORE PUSH1 0x20 ADD SWAP1 JUMP JUMPDEST SUB SWAP1 LOG2 JUMP JUMPDEST PUSH2 0xDD SWAP1 PUSH2 0x4CE PUSH2 0x2F9 JUMP JUMPDEST PUSH2 0x4DA PUSH2 0xDD SWAP2 PUSH2 0x3F9 JUMP JUMPDEST PUSH1 0x1 PUSH2 0x402 JUMP JUMPDEST PUSH2 0xDD SWAP1 PUSH2 0x4C2 JUMP JUMPDEST PUSH2 0xDD SWAP1 PUSH2 0x4F6 PUSH2 0x2F9 JUMP JUMPDEST PUSH2 0x502 PUSH2 0xDD SWAP2 PUSH2 0x3F9 JUMP JUMPDEST PUSH1 0x2 PUSH2 0x402 JUMP JUMPDEST PUSH2 0xDD SWAP1 PUSH2 0x4EA JUMP JUMPDEST SWAP1 PUSH2 0xDD SWAP2 PUSH2 0x51F PUSH2 0x2F9 JUMP JUMPDEST PUSH2 0x620 JUMP JUMPDEST PUSH4 0x4E487B71 PUSH1 0xE0 SHL PUSH1 0x0 MSTORE PUSH1 0x41 PUSH1 0x4 MSTORE PUSH1 0x24 PUSH1 0x0 REVERT JUMPDEST SWAP1 PUSH1 0x1F ADD PUSH1 0x1F NOT AND DUP2 ADD SWAP1 DUP2 LT PUSH8 0xFFFFFFFFFFFFFFFF DUP3 GT OR PUSH2 0x55C JUMPI PUSH1 0x40 MSTORE JUMP JUMPDEST PUSH2 0x524 JUMP JUMPDEST SWAP1 PUSH2 0xDD PUSH2 0x56E PUSH1 0x40 MLOAD SWAP1 JUMP JUMPDEST SWAP3 DUP4 PUSH2 0x53A JUMP JUMPDEST PUSH2 0xB6 PUSH1 0x20 PUSH2 0x561 JUMP JUMPDEST PUSH4 0x4E487B71 PUSH1 0xE0 SHL PUSH1 0x0 MSTORE PUSH1 0x21 PUSH1 0x4 MSTORE PUSH1 0x24 PUSH1 0x0 REVERT JUMPDEST PUSH1 0x6 GT ISZERO PUSH2 0x59F JUMPI JUMP JUMPDEST PUSH2 0x57F JUMP JUMPDEST SWAP1 PUSH2 0xDD DUP3 PUSH2 0x595 JUMP JUMPDEST SWAP1 PUSH2 0x177 SWAP1 PUSH2 0x5A4 JUMP JUMPDEST SWAP1 PUSH2 0x5C2 SWAP1 PUSH2 0x3F9 JUMP JUMPDEST PUSH1 0x0 MSTORE PUSH1 0x20 MSTORE PUSH1 0x40 PUSH1 0x0 KECCAK256 SWAP1 JUMP JUMPDEST PUSH2 0xB6 SWAP1 MLOAD PUSH2 0x5A4 JUMP JUMPDEST SWAP1 PUSH1 0xFF SWAP1 PUSH2 0x3D2 JUMP JUMPDEST PUSH2 0xB6 SWAP1 PUSH2 0x5A4 JUMP JUMPDEST SWAP1 PUSH2 0x5FC PUSH2 0xB6 PUSH2 0x419 SWAP3 PUSH2 0x5E3 JUMP JUMPDEST DUP3 SLOAD PUSH2 0x5DA JUMP JUMPDEST PUSH2 0xDD SWAP2 PUSH2 0x610 SWAP1 PUSH2 0x5D0 JUMP JUMPDEST SWAP1 PUSH2 0x5EC JUMP JUMPDEST SWAP1 PUSH2 0xDD SWAP2 PUSH2 0x603 JUMP JUMPDEST SWAP1 PUSH2 0x641 PUSH2 0xDD SWAP3 PUSH2 0x63A PUSH2 0x633 PUSH2 0x575 JUMP JUMPDEST SWAP4 DUP5 PUSH2 0x5AE JUMP JUMPDEST PUSH1 0x3 PUSH2 0x5B8 JUMP JUMPDEST PUSH2 0x616 JUMP JUMPDEST SWAP1 PUSH2 0xDD SWAP2 PUSH2 0x512 JUMP JUMPDEST SWAP1 PUSH2 0xDD SWAP2 PUSH2 0x65D PUSH2 0x2F9 JUMP JUMPDEST PUSH2 0x6B9 JUMP JUMPDEST PUSH2 0x66F PUSH2 0xB6 PUSH2 0xB6 SWAP3 SWAP1 JUMP JUMPDEST PUSH2 0x5A4 JUMP JUMPDEST ISZERO PUSH2 0x67B JUMPI JUMP JUMPDEST PUSH1 0x40 MLOAD PUSH3 0x461BCD PUSH1 0xE5 SHL DUP2 MSTORE PUSH1 0x20 PUSH1 0x4 DUP3 ADD MSTORE PUSH1 0x16 PUSH1 0x24 DUP3 ADD MSTORE PUSH22 0x10DC99585D1BDC88191BD95CC81B9BDD08195E1A5CDD PUSH1 0x52 SHL PUSH1 0x44 DUP3 ADD MSTORE PUSH1 0x64 SWAP1 REVERT JUMPDEST SWAP1 PUSH2 0xDD SWAP2 PUSH2 0x703 PUSH1 0x3 SWAP2 PUSH2 0x6DB PUSH1 0x0 PUSH2 0x6D3 DUP4 DUP7 PUSH2 0x5B8 JUMP JUMPDEST ADD SLOAD PUSH1 0xFF AND SWAP1 JUMP JUMPDEST SWAP3 PUSH2 0x6FE PUSH1 0x0 SWAP5 PUSH2 0x6F7 PUSH2 0x6F1 PUSH2 0x66F DUP9 PUSH2 0x662 JUMP JUMPDEST SWAP2 PUSH2 0x5A4 JUMP JUMPDEST EQ ISZERO PUSH2 0x674 JUMP JUMPDEST PUSH2 0x5B8 JUMP JUMPDEST ADD PUSH2 0x5EC JUMP JUMPDEST SWAP1 PUSH2 0xDD SWAP2 PUSH2 0x650 JUMP JUMPDEST SWAP1 PUSH2 0xDD SWAP2 PUSH2 0x720 PUSH2 0x2F9 JUMP JUMPDEST PUSH2 0x7F3 JUMP JUMPDEST DUP1 ISZERO ISZERO PUSH2 0xC4 JUMP JUMPDEST SWAP1 POP MLOAD SWAP1 PUSH2 0xDD DUP3 PUSH2 0x725 JUMP JUMPDEST SWAP1 PUSH1 0x20 DUP3 DUP3 SUB SLT PUSH2 0xCB JUMPI PUSH2 0xB6 SWAP2 PUSH2 0x72D JUMP JUMPDEST PUSH1 0x1 PUSH1 0x1 PUSH1 0xA0 SHL SUB SWAP1 SWAP2 AND DUP2 MSTORE PUSH1 0x40 DUP2 ADD SWAP3 SWAP2 PUSH2 0xDD SWAP2 PUSH1 0x20 ADD MSTORE JUMP JUMPDEST PUSH1 0x40 MLOAD RETURNDATASIZE PUSH1 0x0 DUP3 RETURNDATACOPY RETURNDATASIZE SWAP1 REVERT JUMPDEST PUSH1 0x1 PUSH1 0x1 PUSH1 0xA0 SHL SUB SWAP2 DUP3 AND DUP2 MSTORE SWAP2 AND PUSH1 0x20 DUP3 ADD MSTORE PUSH1 0x60 DUP2 ADD SWAP3 SWAP2 PUSH2 0xDD SWAP2 PUSH1 0x40 ADD MSTORE JUMP JUMPDEST ISZERO PUSH2 0x7A2 JUMPI JUMP JUMPDEST PUSH1 0x40 MLOAD PUSH3 0x461BCD PUSH1 0xE5 SHL DUP2 MSTORE PUSH1 0x20 PUSH1 0x4 DUP3 ADD MSTORE PUSH1 0x24 DUP1 DUP3 ADD MSTORE PUSH32 0x496E73756666696369656E74204554482062616C616E636520696E20636F6E74 PUSH1 0x44 DUP3 ADD MSTORE PUSH4 0x1C9858DD PUSH1 0xE2 SHL PUSH1 0x64 DUP3 ADD MSTORE PUSH1 0x84 SWAP1 REVERT JUMPDEST PUSH1 0x0 PUSH2 0x801 PUSH2 0xAA DUP3 PUSH2 0x282 JUMP JUMPDEST PUSH1 0x1 PUSH1 0x1 PUSH1 0xA0 SHL SUB DUP4 AND SUB PUSH2 0x8A0 JUMPI PUSH2 0x826 PUSH2 0x81C ADDRESS PUSH2 0x3F9 JUMP JUMPDEST DUP5 SWAP1 BALANCE LT ISZERO PUSH2 0x79B JUMP JUMPDEST DUP1 DUP1 DUP1 DUP6 PUSH2 0x847 PUSH2 0x842 PUSH2 0x842 PUSH1 0x0 SLOAD PUSH1 0x1 PUSH1 0x1 PUSH1 0xA0 SHL SUB AND SWAP1 JUMP JUMPDEST PUSH2 0x3F9 JUMP JUMPDEST DUP3 DUP3 ISZERO PUSH2 0x897 JUMPI JUMPDEST CALL ISZERO PUSH2 0x892 JUMPI CALLER PUSH2 0x88D PUSH32 0xFFF3B3844276F57024E0B42AFEC1A37F75DB36511E43819A4F2A63AB7862B648 SWAP4 PUSH2 0x884 PUSH1 0x40 MLOAD SWAP1 JUMP JUMPDEST SWAP4 DUP5 SWAP4 DUP5 PUSH2 0x777 JUMP JUMPDEST SUB SWAP1 LOG1 JUMP JUMPDEST PUSH2 0x76B JUMP JUMPDEST POP PUSH2 0x8FC PUSH2 0x84F JUMP JUMPDEST DUP3 PUSH1 0x20 PUSH2 0x8AF PUSH2 0x842 DUP6 PUSH2 0x3F9 JUMP JUMPDEST PUSH4 0xA9059CBB SWAP1 PUSH2 0x8E5 DUP6 PUSH2 0x8CB PUSH1 0x0 SLOAD PUSH1 0x1 PUSH1 0x1 PUSH1 0xA0 SHL SUB AND SWAP1 JUMP JUMPDEST SWAP4 PUSH2 0x8F0 PUSH2 0x8D8 PUSH1 0x40 MLOAD SWAP1 JUMP JUMPDEST SWAP8 DUP9 SWAP7 DUP8 SWAP6 DUP7 SWAP5 PUSH1 0xE0 SHL SWAP1 JUMP JUMPDEST DUP5 MSTORE PUSH1 0x4 DUP5 ADD PUSH2 0x74E JUMP JUMPDEST SUB SWAP3 GAS CALL SWAP1 DUP2 PUSH2 0xA57 JUMPI JUMPDEST POP ISZERO DUP2 EQ PUSH2 0xA27 JUMPI PUSH2 0x90F PUSH2 0x842 DUP4 PUSH2 0x3F9 JUMP JUMPDEST PUSH4 0x42842E0E PUSH2 0x91D ADDRESS PUSH2 0x3F9 JUMP JUMPDEST PUSH1 0x0 SLOAD PUSH1 0x1 PUSH1 0x1 PUSH1 0xA0 SHL SUB AND SWAP3 DUP1 EXTCODESIZE ISZERO PUSH2 0xCB JUMPI PUSH2 0x951 DUP6 DUP1 SWAP5 PUSH2 0x95C DUP11 PUSH2 0x944 PUSH1 0x40 MLOAD SWAP1 JUMP JUMPDEST SWAP9 DUP10 SWAP8 DUP9 SWAP7 DUP8 SWAP6 PUSH1 0xE0 SHL SWAP1 JUMP JUMPDEST DUP6 MSTORE PUSH1 0x4 DUP6 ADD PUSH2 0x777 JUMP JUMPDEST SUB SWAP3 GAS CALL SWAP1 DUP2 PUSH2 0x9FB JUMPI JUMPDEST POP ISZERO EQ PUSH2 0x9CC JUMPI PUSH1 0x40 MLOAD PUSH3 0x461BCD PUSH1 0xE5 SHL DUP2 MSTORE PUSH1 0x20 PUSH1 0x4 DUP3 ADD MSTORE PUSH1 0x30 PUSH1 0x24 DUP3 ADD MSTORE PUSH32 0x546F6B656E2074797065206E6F7420737570706F72746564206F7220696E7375 PUSH1 0x44 DUP3 ADD MSTORE PUSH16 0x6666696369656E742062616C616E6365 PUSH1 0x80 SHL PUSH1 0x64 DUP3 ADD MSTORE PUSH1 0x84 SWAP1 REVERT JUMPDEST CALLER PUSH2 0x88D PUSH32 0xFFF3B3844276F57024E0B42AFEC1A37F75DB36511E43819A4F2A63AB7862B648 SWAP4 PUSH2 0x884 PUSH1 0x40 MLOAD SWAP1 JUMP JUMPDEST PUSH2 0xA1A SWAP1 DUP4 RETURNDATASIZE DUP6 GT PUSH2 0xA20 JUMPI JUMPDEST PUSH2 0xA12 DUP2 DUP4 PUSH2 0x53A JUMP JUMPDEST DUP2 ADD SWAP1 PUSH2 0x154 JUMP JUMPDEST CODESIZE PUSH2 0x967 JUMP JUMPDEST POP RETURNDATASIZE PUSH2 0xA08 JUMP JUMPDEST POP CALLER PUSH2 0x88D PUSH32 0xFFF3B3844276F57024E0B42AFEC1A37F75DB36511E43819A4F2A63AB7862B648 SWAP4 PUSH2 0x884 PUSH1 0x40 MLOAD SWAP1 JUMP JUMPDEST PUSH2 0xA77 SWAP1 PUSH1 0x20 RETURNDATASIZE DUP2 GT PUSH2 0xA7C JUMPI JUMPDEST PUSH2 0xA6F DUP2 DUP4 PUSH2 0x53A JUMP JUMPDEST DUP2 ADD SWAP1 PUSH2 0x73A JUMP JUMPDEST PUSH2 0x8FB JUMP JUMPDEST POP RETURNDATASIZE PUSH2 0xA65 JUMP JUMPDEST SWAP1 PUSH2 0xDD SWAP2 PUSH2 0x713 JUMP INVALID LOG2 PUSH5 0x6970667358 0x22 SLT KECCAK256 0xAE EXTCODESIZE 0x4F DUP3 CREATE 0xE8 0xE2 PUSH6 0x7E283BEC760C SLOAD PUSH26 0xFCA9202F01CCBCD7156E8892B0E4CC0C64736F6C634300081300 CALLER "},"methodIdentifiers":{"addCreator(address,uint8)":"005360e7","changeCreatorStatus(address,uint8)":"5cfac830","owner()":"8da5cb5b","renounceOwnership()":"715018a6","setBlockFans(address)":"ba908b45","setCreatorsNFT(address)":"ae587f9f","transferOwnership(address)":"f2fde38b","withdraw(address,uint256)":"f3fef3a3"}}}}}